{
  "contractName": "BET",
  "abi": [
    {
      "inputs": [
        {
          "internalType": "string",
          "name": "_name",
          "type": "string"
        },
        {
          "internalType": "string",
          "name": "_symbol",
          "type": "string"
        },
        {
          "internalType": "uint8",
          "name": "_decimals",
          "type": "uint8"
        }
      ],
      "stateMutability": "nonpayable",
      "type": "constructor"
    },
    {
      "anonymous": false,
      "inputs": [
        {
          "indexed": true,
          "internalType": "address",
          "name": "owner",
          "type": "address"
        },
        {
          "indexed": true,
          "internalType": "address",
          "name": "spender",
          "type": "address"
        },
        {
          "indexed": false,
          "internalType": "uint256",
          "name": "value",
          "type": "uint256"
        }
      ],
      "name": "Approval",
      "type": "event"
    },
    {
      "anonymous": false,
      "inputs": [
        {
          "indexed": false,
          "internalType": "address",
          "name": "userAddress",
          "type": "address"
        },
        {
          "indexed": false,
          "internalType": "address payable",
          "name": "relayerAddress",
          "type": "address"
        },
        {
          "indexed": false,
          "internalType": "bytes",
          "name": "functionSignature",
          "type": "bytes"
        }
      ],
      "name": "MetaTransactionExecuted",
      "type": "event"
    },
    {
      "anonymous": false,
      "inputs": [
        {
          "indexed": true,
          "internalType": "bytes32",
          "name": "role",
          "type": "bytes32"
        },
        {
          "indexed": true,
          "internalType": "bytes32",
          "name": "previousAdminRole",
          "type": "bytes32"
        },
        {
          "indexed": true,
          "internalType": "bytes32",
          "name": "newAdminRole",
          "type": "bytes32"
        }
      ],
      "name": "RoleAdminChanged",
      "type": "event"
    },
    {
      "anonymous": false,
      "inputs": [
        {
          "indexed": true,
          "internalType": "bytes32",
          "name": "role",
          "type": "bytes32"
        },
        {
          "indexed": true,
          "internalType": "address",
          "name": "account",
          "type": "address"
        },
        {
          "indexed": true,
          "internalType": "address",
          "name": "sender",
          "type": "address"
        }
      ],
      "name": "RoleGranted",
      "type": "event"
    },
    {
      "anonymous": false,
      "inputs": [
        {
          "indexed": true,
          "internalType": "bytes32",
          "name": "role",
          "type": "bytes32"
        },
        {
          "indexed": true,
          "internalType": "address",
          "name": "account",
          "type": "address"
        },
        {
          "indexed": true,
          "internalType": "address",
          "name": "sender",
          "type": "address"
        }
      ],
      "name": "RoleRevoked",
      "type": "event"
    },
    {
      "anonymous": false,
      "inputs": [
        {
          "indexed": true,
          "internalType": "address",
          "name": "from",
          "type": "address"
        },
        {
          "indexed": true,
          "internalType": "address",
          "name": "to",
          "type": "address"
        },
        {
          "indexed": false,
          "internalType": "uint256",
          "name": "value",
          "type": "uint256"
        }
      ],
      "name": "Transfer",
      "type": "event"
    },
    {
      "inputs": [],
      "name": "DEFAULT_ADMIN_ROLE",
      "outputs": [
        {
          "internalType": "bytes32",
          "name": "",
          "type": "bytes32"
        }
      ],
      "stateMutability": "view",
      "type": "function",
      "constant": true
    },
    {
      "inputs": [],
      "name": "GFindex",
      "outputs": [
        {
          "internalType": "uint256",
          "name": "",
          "type": "uint256"
        }
      ],
      "stateMutability": "view",
      "type": "function",
      "constant": true
    },
    {
      "inputs": [],
      "name": "GFrewards",
      "outputs": [
        {
          "internalType": "uint256",
          "name": "",
          "type": "uint256"
        }
      ],
      "stateMutability": "view",
      "type": "function",
      "constant": true
    },
    {
      "inputs": [],
      "name": "advisorPepc",
      "outputs": [
        {
          "internalType": "uint256",
          "name": "",
          "type": "uint256"
        }
      ],
      "stateMutability": "view",
      "type": "function",
      "constant": true
    },
    {
      "inputs": [],
      "name": "advisorPercMint",
      "outputs": [
        {
          "internalType": "uint256",
          "name": "",
          "type": "uint256"
        }
      ],
      "stateMutability": "view",
      "type": "function",
      "constant": true
    },
    {
      "inputs": [
        {
          "internalType": "address",
          "name": "owner",
          "type": "address"
        },
        {
          "internalType": "address",
          "name": "spender",
          "type": "address"
        }
      ],
      "name": "allowance",
      "outputs": [
        {
          "internalType": "uint256",
          "name": "",
          "type": "uint256"
        }
      ],
      "stateMutability": "view",
      "type": "function",
      "constant": true
    },
    {
      "inputs": [
        {
          "internalType": "address",
          "name": "spender",
          "type": "address"
        },
        {
          "internalType": "uint256",
          "name": "amount",
          "type": "uint256"
        }
      ],
      "name": "approve",
      "outputs": [
        {
          "internalType": "bool",
          "name": "",
          "type": "bool"
        }
      ],
      "stateMutability": "nonpayable",
      "type": "function"
    },
    {
      "inputs": [
        {
          "internalType": "address",
          "name": "account",
          "type": "address"
        }
      ],
      "name": "balanceOf",
      "outputs": [
        {
          "internalType": "uint256",
          "name": "",
          "type": "uint256"
        }
      ],
      "stateMutability": "view",
      "type": "function",
      "constant": true
    },
    {
      "inputs": [],
      "name": "communityMarketingFund",
      "outputs": [
        {
          "internalType": "uint256",
          "name": "",
          "type": "uint256"
        }
      ],
      "stateMutability": "view",
      "type": "function",
      "constant": true
    },
    {
      "inputs": [],
      "name": "companyPerc",
      "outputs": [
        {
          "internalType": "uint256",
          "name": "",
          "type": "uint256"
        }
      ],
      "stateMutability": "view",
      "type": "function",
      "constant": true
    },
    {
      "inputs": [],
      "name": "decimals",
      "outputs": [
        {
          "internalType": "uint8",
          "name": "",
          "type": "uint8"
        }
      ],
      "stateMutability": "view",
      "type": "function",
      "constant": true
    },
    {
      "inputs": [
        {
          "internalType": "address",
          "name": "spender",
          "type": "address"
        },
        {
          "internalType": "uint256",
          "name": "subtractedValue",
          "type": "uint256"
        }
      ],
      "name": "decreaseAllowance",
      "outputs": [
        {
          "internalType": "bool",
          "name": "",
          "type": "bool"
        }
      ],
      "stateMutability": "nonpayable",
      "type": "function"
    },
    {
      "inputs": [
        {
          "internalType": "address",
          "name": "userAddress",
          "type": "address"
        },
        {
          "internalType": "bytes",
          "name": "functionSignature",
          "type": "bytes"
        },
        {
          "internalType": "bytes32",
          "name": "sigR",
          "type": "bytes32"
        },
        {
          "internalType": "bytes32",
          "name": "sigS",
          "type": "bytes32"
        },
        {
          "internalType": "uint8",
          "name": "sigV",
          "type": "uint8"
        }
      ],
      "name": "executeMetaTransaction",
      "outputs": [
        {
          "internalType": "bytes",
          "name": "",
          "type": "bytes"
        }
      ],
      "stateMutability": "payable",
      "type": "function",
      "payable": true
    },
    {
      "inputs": [],
      "name": "expertExptraPerc",
      "outputs": [
        {
          "internalType": "uint256",
          "name": "",
          "type": "uint256"
        }
      ],
      "stateMutability": "view",
      "type": "function",
      "constant": true
    },
    {
      "inputs": [],
      "name": "expertPerc",
      "outputs": [
        {
          "internalType": "uint256",
          "name": "",
          "type": "uint256"
        }
      ],
      "stateMutability": "view",
      "type": "function",
      "constant": true
    },
    {
      "inputs": [],
      "name": "expertPercMint",
      "outputs": [
        {
          "internalType": "uint256",
          "name": "",
          "type": "uint256"
        }
      ],
      "stateMutability": "view",
      "type": "function",
      "constant": true
    },
    {
      "inputs": [],
      "name": "firstWithdrawIndex",
      "outputs": [
        {
          "internalType": "uint256",
          "name": "",
          "type": "uint256"
        }
      ],
      "stateMutability": "view",
      "type": "function",
      "constant": true
    },
    {
      "inputs": [],
      "name": "getFirstWithdraw",
      "outputs": [
        {
          "internalType": "uint256",
          "name": "",
          "type": "uint256"
        }
      ],
      "stateMutability": "view",
      "type": "function",
      "constant": true
    },
    {
      "inputs": [
        {
          "internalType": "address",
          "name": "user",
          "type": "address"
        }
      ],
      "name": "getNonce",
      "outputs": [
        {
          "internalType": "uint256",
          "name": "nonce",
          "type": "uint256"
        }
      ],
      "stateMutability": "view",
      "type": "function",
      "constant": true
    },
    {
      "inputs": [
        {
          "internalType": "bytes32",
          "name": "role",
          "type": "bytes32"
        }
      ],
      "name": "getRoleAdmin",
      "outputs": [
        {
          "internalType": "bytes32",
          "name": "",
          "type": "bytes32"
        }
      ],
      "stateMutability": "view",
      "type": "function",
      "constant": true
    },
    {
      "inputs": [
        {
          "internalType": "bytes32",
          "name": "role",
          "type": "bytes32"
        },
        {
          "internalType": "uint256",
          "name": "index",
          "type": "uint256"
        }
      ],
      "name": "getRoleMember",
      "outputs": [
        {
          "internalType": "address",
          "name": "",
          "type": "address"
        }
      ],
      "stateMutability": "view",
      "type": "function",
      "constant": true
    },
    {
      "inputs": [
        {
          "internalType": "bytes32",
          "name": "role",
          "type": "bytes32"
        }
      ],
      "name": "getRoleMemberCount",
      "outputs": [
        {
          "internalType": "uint256",
          "name": "",
          "type": "uint256"
        }
      ],
      "stateMutability": "view",
      "type": "function",
      "constant": true
    },
    {
      "inputs": [
        {
          "internalType": "bytes32",
          "name": "role",
          "type": "bytes32"
        },
        {
          "internalType": "address",
          "name": "account",
          "type": "address"
        }
      ],
      "name": "grantRole",
      "outputs": [],
      "stateMutability": "nonpayable",
      "type": "function"
    },
    {
      "inputs": [
        {
          "internalType": "bytes32",
          "name": "role",
          "type": "bytes32"
        },
        {
          "internalType": "address",
          "name": "account",
          "type": "address"
        }
      ],
      "name": "hasRole",
      "outputs": [
        {
          "internalType": "bool",
          "name": "",
          "type": "bool"
        }
      ],
      "stateMutability": "view",
      "type": "function",
      "constant": true
    },
    {
      "inputs": [],
      "name": "hostPerc",
      "outputs": [
        {
          "internalType": "uint256",
          "name": "",
          "type": "uint256"
        }
      ],
      "stateMutability": "view",
      "type": "function",
      "constant": true
    },
    {
      "inputs": [],
      "name": "hostPercMint",
      "outputs": [
        {
          "internalType": "uint256",
          "name": "",
          "type": "uint256"
        }
      ],
      "stateMutability": "view",
      "type": "function",
      "constant": true
    },
    {
      "inputs": [
        {
          "internalType": "address",
          "name": "spender",
          "type": "address"
        },
        {
          "internalType": "uint256",
          "name": "addedValue",
          "type": "uint256"
        }
      ],
      "name": "increaseAllowance",
      "outputs": [
        {
          "internalType": "bool",
          "name": "",
          "type": "bool"
        }
      ],
      "stateMutability": "nonpayable",
      "type": "function"
    },
    {
      "inputs": [],
      "name": "name",
      "outputs": [
        {
          "internalType": "string",
          "name": "",
          "type": "string"
        }
      ],
      "stateMutability": "view",
      "type": "function",
      "constant": true
    },
    {
      "inputs": [],
      "name": "owner",
      "outputs": [
        {
          "internalType": "address",
          "name": "",
          "type": "address"
        }
      ],
      "stateMutability": "view",
      "type": "function",
      "constant": true
    },
    {
      "inputs": [],
      "name": "playerPers",
      "outputs": [
        {
          "internalType": "uint256",
          "name": "",
          "type": "uint256"
        }
      ],
      "stateMutability": "view",
      "type": "function",
      "constant": true
    },
    {
      "inputs": [
        {
          "internalType": "bytes32",
          "name": "role",
          "type": "bytes32"
        },
        {
          "internalType": "address",
          "name": "account",
          "type": "address"
        }
      ],
      "name": "renounceRole",
      "outputs": [],
      "stateMutability": "nonpayable",
      "type": "function"
    },
    {
      "inputs": [
        {
          "internalType": "bytes32",
          "name": "role",
          "type": "bytes32"
        },
        {
          "internalType": "address",
          "name": "account",
          "type": "address"
        }
      ],
      "name": "revokeRole",
      "outputs": [],
      "stateMutability": "nonpayable",
      "type": "function"
    },
    {
      "inputs": [
        {
          "internalType": "uint256",
          "name": "_companyPerc",
          "type": "uint256"
        }
      ],
      "name": "setCompanyPerc",
      "outputs": [],
      "stateMutability": "nonpayable",
      "type": "function"
    },
    {
      "inputs": [
        {
          "internalType": "uint256",
          "name": "_expertPerc",
          "type": "uint256"
        }
      ],
      "name": "setExpertPerc",
      "outputs": [],
      "stateMutability": "nonpayable",
      "type": "function"
    },
    {
      "inputs": [
        {
          "internalType": "uint256",
          "name": "_firstWithdrawIndex",
          "type": "uint256"
        }
      ],
      "name": "setFirstWithdraw",
      "outputs": [],
      "stateMutability": "nonpayable",
      "type": "function"
    },
    {
      "inputs": [
        {
          "internalType": "uint256",
          "name": "_GFindex",
          "type": "uint256"
        }
      ],
      "name": "setGFindex",
      "outputs": [],
      "stateMutability": "nonpayable",
      "type": "function"
    },
    {
      "inputs": [
        {
          "internalType": "uint256",
          "name": "_GFrewards",
          "type": "uint256"
        }
      ],
      "name": "setGFrewards",
      "outputs": [],
      "stateMutability": "nonpayable",
      "type": "function"
    },
    {
      "inputs": [
        {
          "internalType": "uint256",
          "name": "_hostPercMint",
          "type": "uint256"
        },
        {
          "internalType": "uint256",
          "name": "_hostPerc",
          "type": "uint256"
        }
      ],
      "name": "setHostPerc",
      "outputs": [],
      "stateMutability": "nonpayable",
      "type": "function"
    },
    {
      "inputs": [
        {
          "internalType": "uint256",
          "name": "_playerPers",
          "type": "uint256"
        }
      ],
      "name": "setPlayerPers",
      "outputs": [],
      "stateMutability": "nonpayable",
      "type": "function"
    },
    {
      "inputs": [
        {
          "internalType": "uint256",
          "name": "_welcomeBTYTokens",
          "type": "uint256"
        }
      ],
      "name": "setWelcomeBTYTokens",
      "outputs": [],
      "stateMutability": "nonpayable",
      "type": "function"
    },
    {
      "inputs": [],
      "name": "symbol",
      "outputs": [
        {
          "internalType": "string",
          "name": "",
          "type": "string"
        }
      ],
      "stateMutability": "view",
      "type": "function",
      "constant": true
    },
    {
      "inputs": [],
      "name": "totalSupply",
      "outputs": [
        {
          "internalType": "uint256",
          "name": "",
          "type": "uint256"
        }
      ],
      "stateMutability": "view",
      "type": "function",
      "constant": true
    },
    {
      "inputs": [
        {
          "internalType": "address",
          "name": "recipient",
          "type": "address"
        },
        {
          "internalType": "uint256",
          "name": "amount",
          "type": "uint256"
        }
      ],
      "name": "transfer",
      "outputs": [
        {
          "internalType": "bool",
          "name": "",
          "type": "bool"
        }
      ],
      "stateMutability": "nonpayable",
      "type": "function"
    },
    {
      "inputs": [
        {
          "internalType": "address",
          "name": "sender",
          "type": "address"
        },
        {
          "internalType": "address",
          "name": "recipient",
          "type": "address"
        },
        {
          "internalType": "uint256",
          "name": "amount",
          "type": "uint256"
        }
      ],
      "name": "transferFrom",
      "outputs": [
        {
          "internalType": "bool",
          "name": "",
          "type": "bool"
        }
      ],
      "stateMutability": "nonpayable",
      "type": "function"
    },
    {
      "inputs": [],
      "name": "welcomeBTYTokens",
      "outputs": [
        {
          "internalType": "uint256",
          "name": "",
          "type": "uint256"
        }
      ],
      "stateMutability": "view",
      "type": "function",
      "constant": true
    },
    {
      "stateMutability": "payable",
      "type": "receive",
      "payable": true
    },
    {
      "inputs": [
        {
          "internalType": "address",
          "name": "_publicEvents",
          "type": "address"
        },
        {
          "internalType": "address",
          "name": "_bty",
          "type": "address"
        }
      ],
      "name": "setConfigContract",
      "outputs": [],
      "stateMutability": "nonpayable",
      "type": "function"
    },
    {
      "inputs": [
        {
          "internalType": "address",
          "name": "wallet",
          "type": "address"
        }
      ],
      "name": "mint",
      "outputs": [],
      "stateMutability": "nonpayable",
      "type": "function"
    },
    {
      "inputs": [
        {
          "internalType": "address",
          "name": "wallet",
          "type": "address"
        },
        {
          "internalType": "uint256",
          "name": "amount",
          "type": "uint256"
        }
      ],
      "name": "mintFromPublicContract",
      "outputs": [
        {
          "internalType": "bool",
          "name": "",
          "type": "bool"
        }
      ],
      "stateMutability": "nonpayable",
      "type": "function"
    },
    {
      "inputs": [
        {
          "internalType": "address",
          "name": "wallet",
          "type": "address"
        },
        {
          "internalType": "uint256",
          "name": "amount",
          "type": "uint256"
        }
      ],
      "name": "burn",
      "outputs": [],
      "stateMutability": "nonpayable",
      "type": "function"
    }
  ],
  "bytecode": "0x6080604052600a8055600a600b556004600c55600a600d556004600e556002600f5560026010556001601155600a60145568056bc75e2d631000006015556001601655678ac7230489e800006017553480156200005b57600080fd5b5060405162003f7338038062003f73833981810160405260608110156200008157600080fd5b8101908080516040519392919084640100000000821115620000a257600080fd5b83820191506020820185811115620000b957600080fd5b8251866001820283011164010000000082111715620000d757600080fd5b8083526020830192505050908051906020019080838360005b838110156200010d578082015181840152602081019050620000f0565b50505050905090810190601f1680156200013b5780820380516001836020036101000a031916815260200191505b50604052602001805160405193929190846401000000008211156200015f57600080fd5b838201915060208201858111156200017657600080fd5b82518660018202830111640100000000821117156200019457600080fd5b8083526020830192505050908051906020019080838360005b83811015620001ca578082015181840152602081019050620001ad565b50505050905090810190601f168015620001f85780820380516001836020036101000a031916815260200191505b506040526020018051906020019092919050505082826040518060400160405280600981526020017f4245545f746f6b656e00000000000000000000000000000000000000000000008152506040518060400160405280600181526020017f3100000000000000000000000000000000000000000000000000000000000000815250600582828282828260405180608001604052806052815260200162003f216052913980519060200120838051906020012083805190602001208330604051602001808681526020018581526020018481526020018381526020018273ffffffffffffffffffffffffffffffffffffffff1681526020019550505050505060405160208183030381529060405280519060200120600181905550505050505050505050816006908051906020019062000334929190620003e5565b5080600790805190602001906200034d929190620003e5565b506012600860006101000a81548160ff021916908360ff160217905550505033601360006101000a81548173ffffffffffffffffffffffffffffffffffffffff021916908373ffffffffffffffffffffffffffffffffffffffff160217905550620003be81620003c760201b60201c565b5050506200049b565b80600860006101000a81548160ff021916908360ff16021790555050565b828054600181600116156101000203166002900490600052602060002090601f0160209004810192826200041d576000855562000469565b82601f106200043857805160ff191683800117855562000469565b8280016001018555821562000469579182015b82811115620004685782518255916020019190600101906200044b565b5b5090506200047891906200047c565b5090565b5b80821115620004975760008160009055506001016200047d565b5090565b613a7680620004ab6000396000f3fe6080604052600436106102b25760003560e01c80638da5cb5b11610175578063b1642b50116100dc578063d7a86da711610095578063e1aea5231161006f578063e1aea5231461113e578063ef99e09914611179578063f7ec5851146111a4578063fda9a211146111cf576102b9565b8063d7a86da714611053578063dd62ed3e1461108e578063df18581714611113576102b9565b8063b1642b5014610ed3578063b44901e814610f18578063c369085e14610f43578063ca15c87314610f7e578063cd09508514610fcd578063d547741f14610ff8576102b9565b80639dc29fac1161012e5780639dc29fac14610d05578063a03c669714610d60578063a217fddf14610d9b578063a457c2d714610dc6578063a9059cbb14610e37578063af9ace4514610ea8576102b9565b80638da5cb5b14610aee5780638fc8bc4214610b2f5780639010d07c14610b5a57806391d1485414610bc95780639580de6714610c3a57806395d89b4114610c75576102b9565b80632f2ff15d116102195780636a627842116101d25780636a6278421461098c5780636afd7b7f146109dd57806370a0823114610a08578063786508c514610a6d578063896aa7a414610a985780638a9dbda714610ac3576102b9565b80632f2ff15d1461079b578063313ce567146107f6578063341ce1fc1461082457806336568abe1461089557806339509351146108f0578063671f3b9414610961576102b9565b806323b872dd1161026b57806323b872dd146105c557806324467c4514610656578063248a9ca3146106915780632d0335ab146106e05780632d0e277c146107455780632e63e45214610770576102b9565b806306fdde03146102be578063095ea7b31461034e5780630c53c51c146103bf57806315cfe4191461053457806318160ddd1461055f57806319d6b7d81461058a576102b9565b366102b957005b600080fd5b3480156102ca57600080fd5b506102d3611240565b6040518080602001828103825283818151815260200191508051906020019080838360005b838110156103135780820151818401526020810190506102f8565b50505050905090810190601f1680156103405780820380516001836020036101000a031916815260200191505b509250505060405180910390f35b34801561035a57600080fd5b506103a76004803603604081101561037157600080fd5b81019080803573ffffffffffffffffffffffffffffffffffffffff169060200190929190803590602001909291905050506112e2565b60405180821515815260200191505060405180910390f35b6104b9600480360360a08110156103d557600080fd5b81019080803573ffffffffffffffffffffffffffffffffffffffff1690602001909291908035906020019064010000000081111561041257600080fd5b82018360208201111561042457600080fd5b8035906020019184600183028401116401000000008311171561044657600080fd5b91908080601f016020809104026020016040519081016040528093929190818152602001838380828437600081840152601f19601f8201169050808301925050505050505091929192908035906020019092919080359060200190929190803560ff169060200190929190505050611300565b6040518080602001828103825283818151815260200191508051906020019080838360005b838110156104f95780820151818401526020810190506104de565b50505050905090810190601f1680156105265780820380516001836020036101000a031916815260200191505b509250505060405180910390f35b34801561054057600080fd5b5061054961170d565b6040518082815260200191505060405180910390f35b34801561056b57600080fd5b50610574611713565b6040518082815260200191505060405180910390f35b34801561059657600080fd5b506105c3600480360360208110156105ad57600080fd5b810190808035906020019092919050505061171d565b005b3480156105d157600080fd5b5061063e600480360360608110156105e857600080fd5b81019080803573ffffffffffffffffffffffffffffffffffffffff169060200190929190803573ffffffffffffffffffffffffffffffffffffffff169060200190929190803590602001909291905050506117cd565b60405180821515815260200191505060405180910390f35b34801561066257600080fd5b5061068f6004803603602081101561067957600080fd5b81019080803590602001909291905050506118a6565b005b34801561069d57600080fd5b506106ca600480360360208110156106b457600080fd5b8101908080359060200190929190505050611956565b6040518082815260200191505060405180910390f35b3480156106ec57600080fd5b5061072f6004803603602081101561070357600080fd5b81019080803573ffffffffffffffffffffffffffffffffffffffff169060200190929190505050611975565b6040518082815260200191505060405180910390f35b34801561075157600080fd5b5061075a6119be565b6040518082815260200191505060405180910390f35b34801561077c57600080fd5b506107856119c4565b6040518082815260200191505060405180910390f35b3480156107a757600080fd5b506107f4600480360360408110156107be57600080fd5b8101908080359060200190929190803573ffffffffffffffffffffffffffffffffffffffff1690602001909291905050506119ca565b005b34801561080257600080fd5b5061080b611a53565b604051808260ff16815260200191505060405180910390f35b34801561083057600080fd5b5061087d6004803603604081101561084757600080fd5b81019080803573ffffffffffffffffffffffffffffffffffffffff16906020019092919080359060200190929190505050611a6a565b60405180821515815260200191505060405180910390f35b3480156108a157600080fd5b506108ee600480360360408110156108b857600080fd5b8101908080359060200190929190803573ffffffffffffffffffffffffffffffffffffffff169060200190929190505050611b26565b005b3480156108fc57600080fd5b506109496004803603604081101561091357600080fd5b81019080803573ffffffffffffffffffffffffffffffffffffffff16906020019092919080359060200190929190505050611bbf565b60405180821515815260200191505060405180910390f35b34801561096d57600080fd5b50610976611c72565b6040518082815260200191505060405180910390f35b34801561099857600080fd5b506109db600480360360208110156109af57600080fd5b81019080803573ffffffffffffffffffffffffffffffffffffffff169060200190929190505050611c78565b005b3480156109e957600080fd5b506109f2611dab565b6040518082815260200191505060405180910390f35b348015610a1457600080fd5b50610a5760048036036020811015610a2b57600080fd5b81019080803573ffffffffffffffffffffffffffffffffffffffff169060200190929190505050611db1565b6040518082815260200191505060405180910390f35b348015610a7957600080fd5b50610a82611dfa565b6040518082815260200191505060405180910390f35b348015610aa457600080fd5b50610aad611e00565b6040518082815260200191505060405180910390f35b348015610acf57600080fd5b50610ad8611e06565b6040518082815260200191505060405180910390f35b348015610afa57600080fd5b50610b03611e0c565b604051808273ffffffffffffffffffffffffffffffffffffffff16815260200191505060405180910390f35b348015610b3b57600080fd5b50610b44611e32565b6040518082815260200191505060405180910390f35b348015610b6657600080fd5b50610b9d60048036036040811015610b7d57600080fd5b810190808035906020019092919080359060200190929190505050611e38565b604051808273ffffffffffffffffffffffffffffffffffffffff16815260200191505060405180910390f35b348015610bd557600080fd5b50610c2260048036036040811015610bec57600080fd5b8101908080359060200190929190803573ffffffffffffffffffffffffffffffffffffffff169060200190929190505050611e69565b60405180821515815260200191505060405180910390f35b348015610c4657600080fd5b50610c7360048036036020811015610c5d57600080fd5b8101908080359060200190929190505050611e9a565b005b348015610c8157600080fd5b50610c8a611f4a565b6040518080602001828103825283818151815260200191508051906020019080838360005b83811015610cca578082015181840152602081019050610caf565b50505050905090810190601f168015610cf75780820380516001836020036101000a031916815260200191505b509250505060405180910390f35b348015610d1157600080fd5b50610d5e60048036036040811015610d2857600080fd5b81019080803573ffffffffffffffffffffffffffffffffffffffff16906020019092919080359060200190929190505050611fec565b005b348015610d6c57600080fd5b50610d9960048036036020811015610d8357600080fd5b81019080803590602001909291905050506120a0565b005b348015610da757600080fd5b50610db0612150565b6040518082815260200191505060405180910390f35b348015610dd257600080fd5b50610e1f60048036036040811015610de957600080fd5b81019080803573ffffffffffffffffffffffffffffffffffffffff16906020019092919080359060200190929190505050612157565b60405180821515815260200191505060405180910390f35b348015610e4357600080fd5b50610e9060048036036040811015610e5a57600080fd5b81019080803573ffffffffffffffffffffffffffffffffffffffff16906020019092919080359060200190929190505050612224565b60405180821515815260200191505060405180910390f35b348015610eb457600080fd5b50610ebd612242565b6040518082815260200191505060405180910390f35b348015610edf57600080fd5b50610f1660048036036040811015610ef657600080fd5b810190808035906020019092919080359060200190929190505050612248565b005b348015610f2457600080fd5b50610f2d612300565b6040518082815260200191505060405180910390f35b348015610f4f57600080fd5b50610f7c60048036036020811015610f6657600080fd5b8101908080359060200190929190505050612306565b005b348015610f8a57600080fd5b50610fb760048036036020811015610fa157600080fd5b81019080803590602001909291905050506123b6565b6040518082815260200191505060405180910390f35b348015610fd957600080fd5b50610fe26123dc565b6040518082815260200191505060405180910390f35b34801561100457600080fd5b506110516004803603604081101561101b57600080fd5b8101908080359060200190929190803573ffffffffffffffffffffffffffffffffffffffff1690602001909291905050506123e2565b005b34801561105f57600080fd5b5061108c6004803603602081101561107657600080fd5b810190808035906020019092919050505061246b565b005b34801561109a57600080fd5b506110fd600480360360408110156110b157600080fd5b81019080803573ffffffffffffffffffffffffffffffffffffffff169060200190929190803573ffffffffffffffffffffffffffffffffffffffff16906020019092919050505061251b565b6040518082815260200191505060405180910390f35b34801561111f57600080fd5b506111286125a2565b6040518082815260200191505060405180910390f35b34801561114a57600080fd5b506111776004803603602081101561116157600080fd5b81019080803590602001909291905050506125a8565b005b34801561118557600080fd5b5061118e612658565b6040518082815260200191505060405180910390f35b3480156111b057600080fd5b506111b9612666565b6040518082815260200191505060405180910390f35b3480156111db57600080fd5b5061123e600480360360408110156111f257600080fd5b81019080803573ffffffffffffffffffffffffffffffffffffffff169060200190929190803573ffffffffffffffffffffffffffffffffffffffff16906020019092919050505061266c565b005b606060068054600181600116156101000203166002900480601f0160208091040260200160405190810160405280929190818152602001828054600181600116156101000203166002900480156112d85780601f106112ad576101008083540402835291602001916112d8565b820191906000526020600020905b8154815290600101906020018083116112bb57829003601f168201915b5050505050905090565b60006112f66112ef612798565b84846127a0565b6001905092915050565b606060006040518060600160405280600260008a73ffffffffffffffffffffffffffffffffffffffff1673ffffffffffffffffffffffffffffffffffffffff1681526020019081526020016000205481526020018873ffffffffffffffffffffffffffffffffffffffff1681526020018781525090506113838782878787612997565b6113d8576040517f08c379a00000000000000000000000000000000000000000000000000000000081526004018080602001828103825260218152602001806138f66021913960400191505060405180910390fd5b61142b6001600260008a73ffffffffffffffffffffffffffffffffffffffff1673ffffffffffffffffffffffffffffffffffffffff16815260200190815260200160002054612a4690919063ffffffff16565b600260008973ffffffffffffffffffffffffffffffffffffffff1673ffffffffffffffffffffffffffffffffffffffff168152602001908152602001600020819055507f5845892132946850460bff5a0083f71031bc5bf9aadcd40f1de79423eac9b10b873388604051808473ffffffffffffffffffffffffffffffffffffffff1681526020018373ffffffffffffffffffffffffffffffffffffffff16815260200180602001828103825283818151815260200191508051906020019080838360005b8381101561150a5780820151818401526020810190506114ef565b50505050905090810190601f1680156115375780820380516001836020036101000a031916815260200191505b5094505050505060405180910390a16000803073ffffffffffffffffffffffffffffffffffffffff16888a6040516020018083805190602001908083835b602083106115985780518252602082019150602081019050602083039250611575565b6001836020036101000a0380198251168184511680821785525050505050509050018273ffffffffffffffffffffffffffffffffffffffff1660601b8152601401925050506040516020818303038152906040526040518082805190602001908083835b6020831061161f57805182526020820191506020810190506020830392506115fc565b6001836020036101000a0380198251168184511680821785525050505050509050019150506000604051808303816000865af19150503d8060008114611681576040519150601f19603f3d011682016040523d82523d6000602084013e611686565b606091505b5091509150816116fe576040517f08c379a000000000000000000000000000000000000000000000000000000000815260040180806020018281038252601c8152602001807f46756e6374696f6e2063616c6c206e6f74207375636365737366756c0000000081525060200191505060405180910390fd5b80935050505095945050505050565b60165481565b6000600554905090565b601360009054906101000a900473ffffffffffffffffffffffffffffffffffffffff1673ffffffffffffffffffffffffffffffffffffffff163373ffffffffffffffffffffffffffffffffffffffff16146117c3576040517f08c379a00000000000000000000000000000000000000000000000000000000081526004018080602001828103825260318152602001806139e16031913960400191505060405180910390fd5b8060178190555050565b60006117da848484612ace565b61189b846117e6612798565b611896856040518060600160405280602881526020016138ce60289139600460008b73ffffffffffffffffffffffffffffffffffffffff1673ffffffffffffffffffffffffffffffffffffffff168152602001908152602001600020600061184c612798565b73ffffffffffffffffffffffffffffffffffffffff1673ffffffffffffffffffffffffffffffffffffffff16815260200190815260200160002054612d939092919063ffffffff16565b6127a0565b600190509392505050565b601360009054906101000a900473ffffffffffffffffffffffffffffffffffffffff1673ffffffffffffffffffffffffffffffffffffffff163373ffffffffffffffffffffffffffffffffffffffff161461194c576040517f08c379a00000000000000000000000000000000000000000000000000000000081526004018080602001828103825260318152602001806139e16031913960400191505060405180910390fd5b80600a8190555050565b6000806000838152602001908152602001600020600201549050919050565b6000600260008373ffffffffffffffffffffffffffffffffffffffff1673ffffffffffffffffffffffffffffffffffffffff168152602001908152602001600020549050919050565b60095481565b60175481565b6119f0600080848152602001908152602001600020600201546119eb612798565b611e69565b611a45576040517f08c379a000000000000000000000000000000000000000000000000000000000815260040180806020018281038252602f8152602001806137c2602f913960400191505060405180910390fd5b611a4f8282612e4d565b5050565b6000600860009054906101000a900460ff16905090565b6000601860009054906101000a900473ffffffffffffffffffffffffffffffffffffffff1673ffffffffffffffffffffffffffffffffffffffff163373ffffffffffffffffffffffffffffffffffffffff1614611b12576040517f08c379a000000000000000000000000000000000000000000000000000000000815260040180806020018281038252603b815260200180613981603b913960400191505060405180910390fd5b611b1c8383612ee0565b6001905092915050565b611b2e612798565b73ffffffffffffffffffffffffffffffffffffffff168173ffffffffffffffffffffffffffffffffffffffff1614611bb1576040517f08c379a000000000000000000000000000000000000000000000000000000000815260040180806020018281038252602f815260200180613a12602f913960400191505060405180910390fd5b611bbb82826130a9565b5050565b6000611c68611bcc612798565b84611c638560046000611bdd612798565b73ffffffffffffffffffffffffffffffffffffffff1673ffffffffffffffffffffffffffffffffffffffff16815260200190815260200160002060008973ffffffffffffffffffffffffffffffffffffffff1673ffffffffffffffffffffffffffffffffffffffff16815260200190815260200160002054612a4690919063ffffffff16565b6127a0565b6001905092915050565b600f5481565b601360009054906101000a900473ffffffffffffffffffffffffffffffffffffffff1673ffffffffffffffffffffffffffffffffffffffff163373ffffffffffffffffffffffffffffffffffffffff1614611d1e576040517f08c379a00000000000000000000000000000000000000000000000000000000081526004018080602001828103825260318152602001806139e16031913960400191505060405180910390fd5b6000611d2982611db1565b14611d9c576040517f08c379a000000000000000000000000000000000000000000000000000000000815260040180806020018281038252601a8152602001807f557365722068617320746f6b656e73206f6e2062616c616e636500000000000081525060200191505060405180910390fd5b611da881601754612ee0565b50565b600a5481565b6000600360008373ffffffffffffffffffffffffffffffffffffffff1673ffffffffffffffffffffffffffffffffffffffff168152602001908152602001600020549050919050565b60115481565b600e5481565b600b5481565b601360009054906101000a900473ffffffffffffffffffffffffffffffffffffffff1681565b600c5481565b6000611e618260008086815260200190815260200160002060000161313c90919063ffffffff16565b905092915050565b6000611e928260008086815260200190815260200160002060000161315690919063ffffffff16565b905092915050565b601360009054906101000a900473ffffffffffffffffffffffffffffffffffffffff1673ffffffffffffffffffffffffffffffffffffffff163373ffffffffffffffffffffffffffffffffffffffff1614611f40576040517f08c379a00000000000000000000000000000000000000000000000000000000081526004018080602001828103825260318152602001806139e16031913960400191505060405180910390fd5b80600e8190555050565b606060078054600181600116156101000203166002900480601f016020809104026020016040519081016040528092919081815260200182805460018160011615610100020316600290048015611fe25780601f10611fb757610100808354040283529160200191611fe2565b820191906000526020600020905b815481529060010190602001808311611fc557829003601f168201915b5050505050905090565b601960009054906101000a900473ffffffffffffffffffffffffffffffffffffffff1673ffffffffffffffffffffffffffffffffffffffff163373ffffffffffffffffffffffffffffffffffffffff1614612092576040517f08c379a000000000000000000000000000000000000000000000000000000000815260040180806020018281038252602381526020018061375a6023913960400191505060405180910390fd5b61209c8282613186565b5050565b601360009054906101000a900473ffffffffffffffffffffffffffffffffffffffff1673ffffffffffffffffffffffffffffffffffffffff163373ffffffffffffffffffffffffffffffffffffffff1614612146576040517f08c379a00000000000000000000000000000000000000000000000000000000081526004018080602001828103825260318152602001806139e16031913960400191505060405180910390fd5b8060148190555050565b6000801b81565b600061221a612164612798565b84612215856040518060600160405280602581526020016139bc602591396004600061218e612798565b73ffffffffffffffffffffffffffffffffffffffff1673ffffffffffffffffffffffffffffffffffffffff16815260200190815260200160002060008a73ffffffffffffffffffffffffffffffffffffffff1673ffffffffffffffffffffffffffffffffffffffff16815260200190815260200160002054612d939092919063ffffffff16565b6127a0565b6001905092915050565b6000612238612231612798565b8484612ace565b6001905092915050565b600d5481565b601360009054906101000a900473ffffffffffffffffffffffffffffffffffffffff1673ffffffffffffffffffffffffffffffffffffffff163373ffffffffffffffffffffffffffffffffffffffff16146122ee576040517f08c379a00000000000000000000000000000000000000000000000000000000081526004018080602001828103825260318152602001806139e16031913960400191505060405180910390fd5b81600b8190555080600c819055505050565b60145481565b601360009054906101000a900473ffffffffffffffffffffffffffffffffffffffff1673ffffffffffffffffffffffffffffffffffffffff163373ffffffffffffffffffffffffffffffffffffffff16146123ac576040517f08c379a00000000000000000000000000000000000000000000000000000000081526004018080602001828103825260318152602001806139e16031913960400191505060405180910390fd5b8060168190555050565b60006123d560008084815260200190815260200160002060000161334c565b9050919050565b60125481565b61240860008084815260200190815260200160002060020154612403612798565b611e69565b61245d576040517f08c379a000000000000000000000000000000000000000000000000000000000815260040180806020018281038252603081526020018061389e6030913960400191505060405180910390fd5b61246782826130a9565b5050565b601360009054906101000a900473ffffffffffffffffffffffffffffffffffffffff1673ffffffffffffffffffffffffffffffffffffffff163373ffffffffffffffffffffffffffffffffffffffff1614612511576040517f08c379a00000000000000000000000000000000000000000000000000000000081526004018080602001828103825260318152602001806139e16031913960400191505060405180910390fd5b8060158190555050565b6000600460008473ffffffffffffffffffffffffffffffffffffffff1673ffffffffffffffffffffffffffffffffffffffff16815260200190815260200160002060008373ffffffffffffffffffffffffffffffffffffffff1673ffffffffffffffffffffffffffffffffffffffff16815260200190815260200160002054905092915050565b60155481565b601360009054906101000a900473ffffffffffffffffffffffffffffffffffffffff1673ffffffffffffffffffffffffffffffffffffffff163373ffffffffffffffffffffffffffffffffffffffff161461264e576040517f08c379a00000000000000000000000000000000000000000000000000000000081526004018080602001828103825260318152602001806139e16031913960400191505060405180910390fd5b8060128190555050565b600060145460175402905090565b60105481565b601360009054906101000a900473ffffffffffffffffffffffffffffffffffffffff1673ffffffffffffffffffffffffffffffffffffffff163373ffffffffffffffffffffffffffffffffffffffff1614612712576040517f08c379a00000000000000000000000000000000000000000000000000000000081526004018080602001828103825260318152602001806139e16031913960400191505060405180910390fd5b81601860006101000a81548173ffffffffffffffffffffffffffffffffffffffff021916908373ffffffffffffffffffffffffffffffffffffffff16021790555080601960006101000a81548173ffffffffffffffffffffffffffffffffffffffff021916908373ffffffffffffffffffffffffffffffffffffffff1602179055505050565b600033905090565b600073ffffffffffffffffffffffffffffffffffffffff168373ffffffffffffffffffffffffffffffffffffffff161415612826576040517f08c379a000000000000000000000000000000000000000000000000000000000815260040180806020018281038252602481526020018061395d6024913960400191505060405180910390fd5b600073ffffffffffffffffffffffffffffffffffffffff168273ffffffffffffffffffffffffffffffffffffffff1614156128ac576040517f08c379a00000000000000000000000000000000000000000000000000000000081526004018080602001828103825260228152602001806138566022913960400191505060405180910390fd5b80600460008573ffffffffffffffffffffffffffffffffffffffff1673ffffffffffffffffffffffffffffffffffffffff16815260200190815260200160002060008473ffffffffffffffffffffffffffffffffffffffff1673ffffffffffffffffffffffffffffffffffffffff168152602001908152602001600020819055508173ffffffffffffffffffffffffffffffffffffffff168373ffffffffffffffffffffffffffffffffffffffff167f8c5be1e5ebec7d5bd14f71427d1e84f3dd0314c0f7b2291e5b200ac8c7c3b925836040518082815260200191505060405180910390a3505050565b600060016129ac6129a787613361565b6133f1565b83868660405160008152602001604052604051808581526020018460ff1681526020018381526020018281526020019450505050506020604051602081039080840390855afa158015612a03573d6000803e3d6000fd5b5050506020604051035173ffffffffffffffffffffffffffffffffffffffff168673ffffffffffffffffffffffffffffffffffffffff1614905095945050505050565b600080828401905083811015612ac4576040517f08c379a000000000000000000000000000000000000000000000000000000000815260040180806020018281038252601b8152602001807f536166654d6174683a206164646974696f6e206f766572666c6f77000000000081525060200191505060405180910390fd5b8091505092915050565b600073ffffffffffffffffffffffffffffffffffffffff168373ffffffffffffffffffffffffffffffffffffffff161415612b54576040517f08c379a00000000000000000000000000000000000000000000000000000000081526004018080602001828103825260258152602001806139386025913960400191505060405180910390fd5b600073ffffffffffffffffffffffffffffffffffffffff168273ffffffffffffffffffffffffffffffffffffffff161415612bda576040517f08c379a000000000000000000000000000000000000000000000000000000000815260040180806020018281038252602381526020018061379f6023913960400191505060405180910390fd5b612be5838383613458565b612c518160405180606001604052806026815260200161387860269139600360008773ffffffffffffffffffffffffffffffffffffffff1673ffffffffffffffffffffffffffffffffffffffff16815260200190815260200160002054612d939092919063ffffffff16565b600360008573ffffffffffffffffffffffffffffffffffffffff1673ffffffffffffffffffffffffffffffffffffffff16815260200190815260200160002081905550612ce681600360008573ffffffffffffffffffffffffffffffffffffffff1673ffffffffffffffffffffffffffffffffffffffff16815260200190815260200160002054612a4690919063ffffffff16565b600360008473ffffffffffffffffffffffffffffffffffffffff1673ffffffffffffffffffffffffffffffffffffffff168152602001908152602001600020819055508173ffffffffffffffffffffffffffffffffffffffff168373ffffffffffffffffffffffffffffffffffffffff167fddf252ad1be2c89b69c2b068fc378daa952ba7f163c4a11628f55a4df523b3ef836040518082815260200191505060405180910390a3505050565b6000838311158290612e40576040517f08c379a00000000000000000000000000000000000000000000000000000000081526004018080602001828103825283818151815260200191508051906020019080838360005b83811015612e05578082015181840152602081019050612dea565b50505050905090810190601f168015612e325780820380516001836020036101000a031916815260200191505b509250505060405180910390fd5b5082840390509392505050565b612e748160008085815260200190815260200160002060000161345d90919063ffffffff16565b15612edc57612e81612798565b73ffffffffffffffffffffffffffffffffffffffff168173ffffffffffffffffffffffffffffffffffffffff16837f2f8788117e7eff1d82e926ec794901d17c78024a50270940304540a733656f0d60405160405180910390a45b5050565b600073ffffffffffffffffffffffffffffffffffffffff168273ffffffffffffffffffffffffffffffffffffffff161415612f83576040517f08c379a000000000000000000000000000000000000000000000000000000000815260040180806020018281038252601f8152602001807f45524332303a206d696e7420746f20746865207a65726f20616464726573730081525060200191505060405180910390fd5b612f8f60008383613458565b612fa481600554612a4690919063ffffffff16565b600581905550612ffc81600360008573ffffffffffffffffffffffffffffffffffffffff1673ffffffffffffffffffffffffffffffffffffffff16815260200190815260200160002054612a4690919063ffffffff16565b600360008473ffffffffffffffffffffffffffffffffffffffff1673ffffffffffffffffffffffffffffffffffffffff168152602001908152602001600020819055508173ffffffffffffffffffffffffffffffffffffffff16600073ffffffffffffffffffffffffffffffffffffffff167fddf252ad1be2c89b69c2b068fc378daa952ba7f163c4a11628f55a4df523b3ef836040518082815260200191505060405180910390a35050565b6130d08160008085815260200190815260200160002060000161348d90919063ffffffff16565b15613138576130dd612798565b73ffffffffffffffffffffffffffffffffffffffff168173ffffffffffffffffffffffffffffffffffffffff16837ff6391f5c32d9c69d2a47ea670b442974b53935d1edc7fd64eb21e047a839171b60405160405180910390a45b5050565b600061314b83600001836134bd565b60001c905092915050565b600061317e836000018373ffffffffffffffffffffffffffffffffffffffff1660001b613540565b905092915050565b600073ffffffffffffffffffffffffffffffffffffffff168273ffffffffffffffffffffffffffffffffffffffff16141561320c576040517f08c379a00000000000000000000000000000000000000000000000000000000081526004018080602001828103825260218152602001806139176021913960400191505060405180910390fd5b61321882600083613458565b613284816040518060600160405280602281526020016137f160229139600360008673ffffffffffffffffffffffffffffffffffffffff1673ffffffffffffffffffffffffffffffffffffffff16815260200190815260200160002054612d939092919063ffffffff16565b600360008473ffffffffffffffffffffffffffffffffffffffff1673ffffffffffffffffffffffffffffffffffffffff168152602001908152602001600020819055506132dc8160055461356390919063ffffffff16565b600581905550600073ffffffffffffffffffffffffffffffffffffffff168273ffffffffffffffffffffffffffffffffffffffff167fddf252ad1be2c89b69c2b068fc378daa952ba7f163c4a11628f55a4df523b3ef836040518082815260200191505060405180910390a35050565b600061335a826000016135e6565b9050919050565b6000604051806080016040528060438152602001613813604391398051906020012082600001518360200151846040015180519060200120604051602001808581526020018481526020018373ffffffffffffffffffffffffffffffffffffffff168152602001828152602001945050505050604051602081830303815290604052805190602001209050919050565b60006133fb6135f7565b8260405160200180807f190100000000000000000000000000000000000000000000000000000000000081525060020183815260200182815260200192505050604051602081830303815290604052805190602001209050919050565b505050565b6000613485836000018373ffffffffffffffffffffffffffffffffffffffff1660001b613601565b905092915050565b60006134b5836000018373ffffffffffffffffffffffffffffffffffffffff1660001b613671565b905092915050565b60008183600001805490501161351e576040517f08c379a000000000000000000000000000000000000000000000000000000000815260040180806020018281038252602281526020018061377d6022913960400191505060405180910390fd5b82600001828154811061352d57fe5b9060005260206000200154905092915050565b600080836001016000848152602001908152602001600020541415905092915050565b6000828211156135db576040517f08c379a000000000000000000000000000000000000000000000000000000000815260040180806020018281038252601e8152602001807f536166654d6174683a207375627472616374696f6e206f766572666c6f77000081525060200191505060405180910390fd5b818303905092915050565b600081600001805490509050919050565b6000600154905090565b600061360d8383613540565b61366657826000018290806001815401808255809150506001900390600052602060002001600090919091909150558260000180549050836001016000848152602001908152602001600020819055506001905061366b565b600090505b92915050565b6000808360010160008481526020019081526020016000205490506000811461374d57600060018203905060006001866000018054905003905060008660000182815481106136bc57fe5b90600052602060002001549050808760000184815481106136d957fe5b906000526020600020018190555060018301876001016000838152602001908152602001600020819055508660000180548061371157fe5b60019003818190600052602060002001600090559055866001016000878152602001908152602001600020600090556001945050505050613753565b60009150505b9291505056fe4f6e6c792042545920746f6b656e732063616e206275726e2042455420746f6b656e73456e756d657261626c655365743a20696e646578206f7574206f6620626f756e647345524332303a207472616e7366657220746f20746865207a65726f2061646472657373416363657373436f6e74726f6c3a2073656e646572206d75737420626520616e2061646d696e20746f206772616e7445524332303a206275726e20616d6f756e7420657863656564732062616c616e63654d6574615472616e73616374696f6e2875696e74323536206e6f6e63652c616464726573732066726f6d2c62797465732066756e6374696f6e5369676e61747572652945524332303a20617070726f766520746f20746865207a65726f206164647265737345524332303a207472616e7366657220616d6f756e7420657863656564732062616c616e6365416363657373436f6e74726f6c3a2073656e646572206d75737420626520616e2061646d696e20746f207265766f6b6545524332303a207472616e7366657220616d6f756e74206578636565647320616c6c6f77616e63655369676e657220616e64207369676e617475726520646f206e6f74206d6174636845524332303a206275726e2066726f6d20746865207a65726f206164647265737345524332303a207472616e736665722066726f6d20746865207a65726f206164647265737345524332303a20617070726f76652066726f6d20746865207a65726f2061646472657373546869732066756e6374696f6e20636f756c64206f6e6c7920626520657865637574656420627920746865207075626c696320636f6e747261637445524332303a2064656372656173656420616c6c6f77616e63652062656c6f77207a65726f546869732066756e6374696f6e20636f756c64206f6e6c7920626520657865637574656420627920746865206f776e6572416363657373436f6e74726f6c3a2063616e206f6e6c792072656e6f756e636520726f6c657320666f722073656c66a2646970667358221220d1405f9e0199df997670a19a834dc1c01e3bac5ee80b8c33e76f289b4a888ec364736f6c63430007060033454950373132446f6d61696e28737472696e67206e616d652c737472696e672076657273696f6e2c75696e7432353620636861696e49642c6164647265737320766572696679696e67436f6e747261637429",
  "immutableReferences": {},
  "source": "// SPDX-License-Identifier: MIT\npragma solidity >=0.4.22 <0.9.0;\n\nimport {ERC20} from \"@openzeppelin/contracts/token/ERC20/ERC20.sol\";\nimport {MetaTransactLib} from \"../helpers/MetaTransactLib.sol\";\nimport {ConfigVariables} from \"../config/ConfigVariables.sol\";\n\ncontract BET is MetaTransactLib, ERC20, ConfigVariables {\n    address publicContract;\n    address btyContract;\n\n    constructor(\n        string memory _name,\n        string memory _symbol,\n        uint8 _decimals\n    ) ERC20(_name, _symbol) MetaTransactLib(\"BET_token\", \"1\", 5) {\n        _setupDecimals(_decimals);\n    }\n\n    function setConfigContract(address _publicEvents, address _bty) public ownerOnly() {\n        publicContract = _publicEvents;\n        btyContract = _bty;\n    }\n\n    function mint(address wallet) public ownerOnly() {\n        require(balanceOf(wallet) == 0, \"User has tokens on balance\");\n        _mint(wallet, welcomeBTYTokens);\n    }\n\n    function mintFromPublicContract(address wallet, uint256 amount) public returns(bool) {\n        require(\n            msg.sender == publicContract,\n            \"This function could only be executed by the public contract\"\n        );\n        _mint(wallet, amount);\n        return true;\n    }\n\n    function burn(address wallet, uint256 amount) public {\n        require(msg.sender == btyContract, \"Only BTY tokens can burn BET tokens\");\n        _burn(wallet, amount);\n    }\n}\n",
  "sourcePath": "/Users/macbook/Documents/freelance/tokenominc/contracts/tokens/BET.sol",
  "compiler": {
    "name": "solc",
    "version": "0.7.6+commit.7338295f.Linux.g++"
  },
  "schemaVersion": "3.2.2",
  "updatedAt": "2021-03-01T18:47:47.465Z",
  "networkType": "ethereum",
  "devdoc": {
    "kind": "dev",
    "methods": {
      "allowance(address,address)": {
        "details": "See {IERC20-allowance}."
      },
      "approve(address,uint256)": {
        "details": "See {IERC20-approve}. Requirements: - `spender` cannot be the zero address."
      },
      "balanceOf(address)": {
        "details": "See {IERC20-balanceOf}."
      },
      "decimals()": {
        "details": "Returns the number of decimals used to get its user representation. For example, if `decimals` equals `2`, a balance of `505` tokens should be displayed to a user as `5,05` (`505 / 10 ** 2`). Tokens usually opt for a value of 18, imitating the relationship between Ether and Wei. This is the value {ERC20} uses, unless {_setupDecimals} is called. NOTE: This information is only used for _display_ purposes: it in no way affects any of the arithmetic of the contract, including {IERC20-balanceOf} and {IERC20-transfer}."
      },
      "decreaseAllowance(address,uint256)": {
        "details": "Atomically decreases the allowance granted to `spender` by the caller. This is an alternative to {approve} that can be used as a mitigation for problems described in {IERC20-approve}. Emits an {Approval} event indicating the updated allowance. Requirements: - `spender` cannot be the zero address. - `spender` must have allowance for the caller of at least `subtractedValue`."
      },
      "getRoleAdmin(bytes32)": {
        "details": "Returns the admin role that controls `role`. See {grantRole} and {revokeRole}. To change a role's admin, use {_setRoleAdmin}."
      },
      "getRoleMember(bytes32,uint256)": {
        "details": "Returns one of the accounts that have `role`. `index` must be a value between 0 and {getRoleMemberCount}, non-inclusive. Role bearers are not sorted in any particular way, and their ordering may change at any point. WARNING: When using {getRoleMember} and {getRoleMemberCount}, make sure you perform all queries on the same block. See the following https://forum.openzeppelin.com/t/iterating-over-elements-on-enumerableset-in-openzeppelin-contracts/2296[forum post] for more information."
      },
      "getRoleMemberCount(bytes32)": {
        "details": "Returns the number of accounts that have `role`. Can be used together with {getRoleMember} to enumerate all bearers of a role."
      },
      "grantRole(bytes32,address)": {
        "details": "Grants `role` to `account`. If `account` had not been already granted `role`, emits a {RoleGranted} event. Requirements: - the caller must have ``role``'s admin role."
      },
      "hasRole(bytes32,address)": {
        "details": "Returns `true` if `account` has been granted `role`."
      },
      "increaseAllowance(address,uint256)": {
        "details": "Atomically increases the allowance granted to `spender` by the caller. This is an alternative to {approve} that can be used as a mitigation for problems described in {IERC20-approve}. Emits an {Approval} event indicating the updated allowance. Requirements: - `spender` cannot be the zero address."
      },
      "name()": {
        "details": "Returns the name of the token."
      },
      "renounceRole(bytes32,address)": {
        "details": "Revokes `role` from the calling account. Roles are often managed via {grantRole} and {revokeRole}: this function's purpose is to provide a mechanism for accounts to lose their privileges if they are compromised (such as when a trusted device is misplaced). If the calling account had been granted `role`, emits a {RoleRevoked} event. Requirements: - the caller must be `account`."
      },
      "revokeRole(bytes32,address)": {
        "details": "Revokes `role` from `account`. If `account` had been granted `role`, emits a {RoleRevoked} event. Requirements: - the caller must have ``role``'s admin role."
      },
      "symbol()": {
        "details": "Returns the symbol of the token, usually a shorter version of the name."
      },
      "totalSupply()": {
        "details": "See {IERC20-totalSupply}."
      },
      "transfer(address,uint256)": {
        "details": "See {IERC20-transfer}. Requirements: - `recipient` cannot be the zero address. - the caller must have a balance of at least `amount`."
      },
      "transferFrom(address,address,uint256)": {
        "details": "See {IERC20-transferFrom}. Emits an {Approval} event indicating the updated allowance. This is not required by the EIP. See the note at the beginning of {ERC20}. Requirements: - `sender` and `recipient` cannot be the zero address. - `sender` must have a balance of at least `amount`. - the caller must have allowance for ``sender``'s tokens of at least `amount`."
      }
    },
    "version": 1
  },
  "userdoc": {
    "kind": "user",
    "methods": {},
    "version": 1
  }
}