{
  "contractName": "BET",
  "abi": [
    {
      "anonymous": false,
      "inputs": [
        {
          "indexed": true,
          "internalType": "address",
          "name": "owner",
          "type": "address"
        },
        {
          "indexed": true,
          "internalType": "address",
          "name": "spender",
          "type": "address"
        },
        {
          "indexed": false,
          "internalType": "uint256",
          "name": "value",
          "type": "uint256"
        }
      ],
      "name": "Approval",
      "type": "event"
    },
    {
      "anonymous": false,
      "inputs": [
        {
          "indexed": false,
          "internalType": "address",
          "name": "userAddress",
          "type": "address"
        },
        {
          "indexed": false,
          "internalType": "address payable",
          "name": "relayerAddress",
          "type": "address"
        },
        {
          "indexed": false,
          "internalType": "bytes",
          "name": "functionSignature",
          "type": "bytes"
        }
      ],
      "name": "MetaTransactionExecuted",
      "type": "event"
    },
    {
      "anonymous": false,
      "inputs": [
        {
          "indexed": true,
          "internalType": "bytes32",
          "name": "role",
          "type": "bytes32"
        },
        {
          "indexed": true,
          "internalType": "bytes32",
          "name": "previousAdminRole",
          "type": "bytes32"
        },
        {
          "indexed": true,
          "internalType": "bytes32",
          "name": "newAdminRole",
          "type": "bytes32"
        }
      ],
      "name": "RoleAdminChanged",
      "type": "event"
    },
    {
      "anonymous": false,
      "inputs": [
        {
          "indexed": true,
          "internalType": "bytes32",
          "name": "role",
          "type": "bytes32"
        },
        {
          "indexed": true,
          "internalType": "address",
          "name": "account",
          "type": "address"
        },
        {
          "indexed": true,
          "internalType": "address",
          "name": "sender",
          "type": "address"
        }
      ],
      "name": "RoleGranted",
      "type": "event"
    },
    {
      "anonymous": false,
      "inputs": [
        {
          "indexed": true,
          "internalType": "bytes32",
          "name": "role",
          "type": "bytes32"
        },
        {
          "indexed": true,
          "internalType": "address",
          "name": "account",
          "type": "address"
        },
        {
          "indexed": true,
          "internalType": "address",
          "name": "sender",
          "type": "address"
        }
      ],
      "name": "RoleRevoked",
      "type": "event"
    },
    {
      "anonymous": false,
      "inputs": [
        {
          "indexed": true,
          "internalType": "address",
          "name": "from",
          "type": "address"
        },
        {
          "indexed": true,
          "internalType": "address",
          "name": "to",
          "type": "address"
        },
        {
          "indexed": false,
          "internalType": "uint256",
          "name": "value",
          "type": "uint256"
        }
      ],
      "name": "Transfer",
      "type": "event"
    },
    {
      "inputs": [],
      "name": "DEFAULT_ADMIN_ROLE",
      "outputs": [
        {
          "internalType": "bytes32",
          "name": "",
          "type": "bytes32"
        }
      ],
      "stateMutability": "view",
      "type": "function",
      "constant": true
    },
    {
      "inputs": [],
      "name": "GFindex",
      "outputs": [
        {
          "internalType": "uint256",
          "name": "",
          "type": "uint256"
        }
      ],
      "stateMutability": "view",
      "type": "function",
      "constant": true
    },
    {
      "inputs": [],
      "name": "GFrewards",
      "outputs": [
        {
          "internalType": "uint256",
          "name": "",
          "type": "uint256"
        }
      ],
      "stateMutability": "view",
      "type": "function",
      "constant": true
    },
    {
      "inputs": [
        {
          "internalType": "uint256",
          "name": "_firstWithdrawIndex",
          "type": "uint256"
        },
        {
          "internalType": "uint256",
          "name": "_GFrewards",
          "type": "uint256"
        },
        {
          "internalType": "uint256",
          "name": "_welcomeBTYTokens",
          "type": "uint256"
        },
        {
          "internalType": "uint256",
          "name": "_GFindex",
          "type": "uint256"
        }
      ],
      "name": "__ConfigVariables",
      "outputs": [],
      "stateMutability": "nonpayable",
      "type": "function"
    },
    {
      "inputs": [
        {
          "internalType": "string",
          "name": "name",
          "type": "string"
        },
        {
          "internalType": "string",
          "name": "version",
          "type": "string"
        },
        {
          "internalType": "uint256",
          "name": "_chainId",
          "type": "uint256"
        }
      ],
      "name": "__EIP712BaseInit",
      "outputs": [],
      "stateMutability": "nonpayable",
      "type": "function"
    },
    {
      "inputs": [
        {
          "internalType": "string",
          "name": "_name",
          "type": "string"
        },
        {
          "internalType": "string",
          "name": "_version",
          "type": "string"
        },
        {
          "internalType": "uint256",
          "name": "_chain_id",
          "type": "uint256"
        }
      ],
      "name": "__MetaTransactLibInit",
      "outputs": [],
      "stateMutability": "nonpayable",
      "type": "function"
    },
    {
      "inputs": [
        {
          "internalType": "string",
          "name": "name",
          "type": "string"
        },
        {
          "internalType": "string",
          "name": "version",
          "type": "string"
        },
        {
          "internalType": "uint256",
          "name": "chainId",
          "type": "uint256"
        }
      ],
      "name": "__NetworkAgnosticInit",
      "outputs": [],
      "stateMutability": "nonpayable",
      "type": "function"
    },
    {
      "inputs": [
        {
          "internalType": "address",
          "name": "owner",
          "type": "address"
        },
        {
          "internalType": "address",
          "name": "spender",
          "type": "address"
        }
      ],
      "name": "allowance",
      "outputs": [
        {
          "internalType": "uint256",
          "name": "",
          "type": "uint256"
        }
      ],
      "stateMutability": "view",
      "type": "function",
      "constant": true
    },
    {
      "inputs": [
        {
          "internalType": "address",
          "name": "spender",
          "type": "address"
        },
        {
          "internalType": "uint256",
          "name": "amount",
          "type": "uint256"
        }
      ],
      "name": "approve",
      "outputs": [
        {
          "internalType": "bool",
          "name": "",
          "type": "bool"
        }
      ],
      "stateMutability": "nonpayable",
      "type": "function"
    },
    {
      "inputs": [
        {
          "internalType": "address",
          "name": "account",
          "type": "address"
        }
      ],
      "name": "balanceOf",
      "outputs": [
        {
          "internalType": "uint256",
          "name": "",
          "type": "uint256"
        }
      ],
      "stateMutability": "view",
      "type": "function",
      "constant": true
    },
    {
      "inputs": [],
      "name": "decimals",
      "outputs": [
        {
          "internalType": "uint8",
          "name": "",
          "type": "uint8"
        }
      ],
      "stateMutability": "view",
      "type": "function",
      "constant": true
    },
    {
      "inputs": [
        {
          "internalType": "address",
          "name": "spender",
          "type": "address"
        },
        {
          "internalType": "uint256",
          "name": "subtractedValue",
          "type": "uint256"
        }
      ],
      "name": "decreaseAllowance",
      "outputs": [
        {
          "internalType": "bool",
          "name": "",
          "type": "bool"
        }
      ],
      "stateMutability": "nonpayable",
      "type": "function"
    },
    {
      "inputs": [
        {
          "internalType": "address",
          "name": "userAddress",
          "type": "address"
        },
        {
          "internalType": "bytes",
          "name": "functionSignature",
          "type": "bytes"
        },
        {
          "internalType": "bytes32",
          "name": "sigR",
          "type": "bytes32"
        },
        {
          "internalType": "bytes32",
          "name": "sigS",
          "type": "bytes32"
        },
        {
          "internalType": "uint8",
          "name": "sigV",
          "type": "uint8"
        }
      ],
      "name": "executeMetaTransaction",
      "outputs": [
        {
          "internalType": "bytes",
          "name": "",
          "type": "bytes"
        }
      ],
      "stateMutability": "payable",
      "type": "function",
      "payable": true
    },
    {
      "inputs": [],
      "name": "firstWithdrawIndex",
      "outputs": [
        {
          "internalType": "uint256",
          "name": "",
          "type": "uint256"
        }
      ],
      "stateMutability": "view",
      "type": "function",
      "constant": true
    },
    {
      "inputs": [],
      "name": "getFirstWithdraw",
      "outputs": [
        {
          "internalType": "uint256",
          "name": "",
          "type": "uint256"
        }
      ],
      "stateMutability": "view",
      "type": "function",
      "constant": true
    },
    {
      "inputs": [],
      "name": "getGFindex",
      "outputs": [
        {
          "internalType": "uint256",
          "name": "",
          "type": "uint256"
        }
      ],
      "stateMutability": "view",
      "type": "function",
      "constant": true
    },
    {
      "inputs": [
        {
          "internalType": "address",
          "name": "user",
          "type": "address"
        }
      ],
      "name": "getNonce",
      "outputs": [
        {
          "internalType": "uint256",
          "name": "nonce",
          "type": "uint256"
        }
      ],
      "stateMutability": "view",
      "type": "function",
      "constant": true
    },
    {
      "inputs": [
        {
          "internalType": "bytes32",
          "name": "role",
          "type": "bytes32"
        }
      ],
      "name": "getRoleAdmin",
      "outputs": [
        {
          "internalType": "bytes32",
          "name": "",
          "type": "bytes32"
        }
      ],
      "stateMutability": "view",
      "type": "function",
      "constant": true
    },
    {
      "inputs": [
        {
          "internalType": "bytes32",
          "name": "role",
          "type": "bytes32"
        },
        {
          "internalType": "uint256",
          "name": "index",
          "type": "uint256"
        }
      ],
      "name": "getRoleMember",
      "outputs": [
        {
          "internalType": "address",
          "name": "",
          "type": "address"
        }
      ],
      "stateMutability": "view",
      "type": "function",
      "constant": true
    },
    {
      "inputs": [
        {
          "internalType": "bytes32",
          "name": "role",
          "type": "bytes32"
        }
      ],
      "name": "getRoleMemberCount",
      "outputs": [
        {
          "internalType": "uint256",
          "name": "",
          "type": "uint256"
        }
      ],
      "stateMutability": "view",
      "type": "function",
      "constant": true
    },
    {
      "inputs": [
        {
          "internalType": "bytes32",
          "name": "role",
          "type": "bytes32"
        },
        {
          "internalType": "address",
          "name": "account",
          "type": "address"
        }
      ],
      "name": "grantRole",
      "outputs": [],
      "stateMutability": "nonpayable",
      "type": "function"
    },
    {
      "inputs": [
        {
          "internalType": "bytes32",
          "name": "role",
          "type": "bytes32"
        },
        {
          "internalType": "address",
          "name": "account",
          "type": "address"
        }
      ],
      "name": "hasRole",
      "outputs": [
        {
          "internalType": "bool",
          "name": "",
          "type": "bool"
        }
      ],
      "stateMutability": "view",
      "type": "function",
      "constant": true
    },
    {
      "inputs": [
        {
          "internalType": "address",
          "name": "spender",
          "type": "address"
        },
        {
          "internalType": "uint256",
          "name": "addedValue",
          "type": "uint256"
        }
      ],
      "name": "increaseAllowance",
      "outputs": [
        {
          "internalType": "bool",
          "name": "",
          "type": "bool"
        }
      ],
      "stateMutability": "nonpayable",
      "type": "function"
    },
    {
      "inputs": [],
      "name": "name",
      "outputs": [
        {
          "internalType": "string",
          "name": "",
          "type": "string"
        }
      ],
      "stateMutability": "view",
      "type": "function",
      "constant": true
    },
    {
      "inputs": [],
      "name": "owner",
      "outputs": [
        {
          "internalType": "address payable",
          "name": "",
          "type": "address"
        }
      ],
      "stateMutability": "view",
      "type": "function",
      "constant": true
    },
    {
      "inputs": [
        {
          "internalType": "bytes32",
          "name": "role",
          "type": "bytes32"
        },
        {
          "internalType": "address",
          "name": "account",
          "type": "address"
        }
      ],
      "name": "renounceRole",
      "outputs": [],
      "stateMutability": "nonpayable",
      "type": "function"
    },
    {
      "inputs": [
        {
          "internalType": "bytes32",
          "name": "role",
          "type": "bytes32"
        },
        {
          "internalType": "address",
          "name": "account",
          "type": "address"
        }
      ],
      "name": "revokeRole",
      "outputs": [],
      "stateMutability": "nonpayable",
      "type": "function"
    },
    {
      "inputs": [
        {
          "internalType": "uint256",
          "name": "_firstWithdrawIndex",
          "type": "uint256"
        }
      ],
      "name": "setFirstWithdraw",
      "outputs": [],
      "stateMutability": "nonpayable",
      "type": "function"
    },
    {
      "inputs": [
        {
          "internalType": "uint256",
          "name": "_GFindex",
          "type": "uint256"
        }
      ],
      "name": "setGFindex",
      "outputs": [],
      "stateMutability": "nonpayable",
      "type": "function"
    },
    {
      "inputs": [
        {
          "internalType": "uint256",
          "name": "_GFrewards",
          "type": "uint256"
        }
      ],
      "name": "setGFrewards",
      "outputs": [],
      "stateMutability": "nonpayable",
      "type": "function"
    },
    {
      "inputs": [
        {
          "internalType": "uint256",
          "name": "_welcomeBTYTokens",
          "type": "uint256"
        }
      ],
      "name": "setWelcomeBTYTokens",
      "outputs": [],
      "stateMutability": "nonpayable",
      "type": "function"
    },
    {
      "inputs": [],
      "name": "symbol",
      "outputs": [
        {
          "internalType": "string",
          "name": "",
          "type": "string"
        }
      ],
      "stateMutability": "view",
      "type": "function",
      "constant": true
    },
    {
      "inputs": [],
      "name": "totalSupply",
      "outputs": [
        {
          "internalType": "uint256",
          "name": "",
          "type": "uint256"
        }
      ],
      "stateMutability": "view",
      "type": "function",
      "constant": true
    },
    {
      "inputs": [
        {
          "internalType": "address",
          "name": "recipient",
          "type": "address"
        },
        {
          "internalType": "uint256",
          "name": "amount",
          "type": "uint256"
        }
      ],
      "name": "transfer",
      "outputs": [
        {
          "internalType": "bool",
          "name": "",
          "type": "bool"
        }
      ],
      "stateMutability": "nonpayable",
      "type": "function"
    },
    {
      "inputs": [
        {
          "internalType": "address",
          "name": "sender",
          "type": "address"
        },
        {
          "internalType": "address",
          "name": "recipient",
          "type": "address"
        },
        {
          "internalType": "uint256",
          "name": "amount",
          "type": "uint256"
        }
      ],
      "name": "transferFrom",
      "outputs": [
        {
          "internalType": "bool",
          "name": "",
          "type": "bool"
        }
      ],
      "stateMutability": "nonpayable",
      "type": "function"
    },
    {
      "inputs": [],
      "name": "welcomeBTYTokens",
      "outputs": [
        {
          "internalType": "uint256",
          "name": "",
          "type": "uint256"
        }
      ],
      "stateMutability": "view",
      "type": "function",
      "constant": true
    },
    {
      "stateMutability": "payable",
      "type": "receive",
      "payable": true
    },
    {
      "inputs": [
        {
          "internalType": "string",
          "name": "_name",
          "type": "string"
        },
        {
          "internalType": "string",
          "name": "_symbol",
          "type": "string"
        },
        {
          "internalType": "uint8",
          "name": "_decimals",
          "type": "uint8"
        },
        {
          "internalType": "uint256",
          "name": "_network_id",
          "type": "uint256"
        },
        {
          "internalType": "uint256",
          "name": "_firstWithdrawIndex",
          "type": "uint256"
        },
        {
          "internalType": "uint256",
          "name": "_GFrewards",
          "type": "uint256"
        },
        {
          "internalType": "uint256",
          "name": "_welcomeBTYTokens",
          "type": "uint256"
        },
        {
          "internalType": "uint256",
          "name": "_GFindex",
          "type": "uint256"
        }
      ],
      "name": "__BETinit",
      "outputs": [],
      "stateMutability": "nonpayable",
      "type": "function"
    },
    {
      "inputs": [
        {
          "internalType": "address",
          "name": "_publicEvents",
          "type": "address"
        },
        {
          "internalType": "address",
          "name": "_bty",
          "type": "address"
        }
      ],
      "name": "setConfigContract",
      "outputs": [],
      "stateMutability": "nonpayable",
      "type": "function"
    },
    {
      "inputs": [
        {
          "internalType": "address",
          "name": "wallet",
          "type": "address"
        }
      ],
      "name": "mint",
      "outputs": [],
      "stateMutability": "nonpayable",
      "type": "function"
    },
    {
      "inputs": [
        {
          "internalType": "address",
          "name": "wallet",
          "type": "address"
        },
        {
          "internalType": "uint256",
          "name": "amount",
          "type": "uint256"
        }
      ],
      "name": "mintFromPublicContract",
      "outputs": [
        {
          "internalType": "bool",
          "name": "",
          "type": "bool"
        }
      ],
      "stateMutability": "nonpayable",
      "type": "function"
    },
    {
      "inputs": [
        {
          "internalType": "address",
          "name": "wallet",
          "type": "address"
        },
        {
          "internalType": "uint256",
          "name": "amount",
          "type": "uint256"
        }
      ],
      "name": "burn",
      "outputs": [],
      "stateMutability": "nonpayable",
      "type": "function"
    }
  ],
  "bytecode": "0x608060405234801561001057600080fd5b5061459d806100206000396000f3fe60806040526004361061024a5760003560e01c80638da5cb5b11610139578063a9059cbb116100b6578063d70b4bb61161007a578063d70b4bb6146113e0578063d7a86da71461140b578063dd62ed3e14611446578063df185817146114cb578063ef99e099146114f6578063fda9a2111461152157610251565b8063a9059cbb1461125f578063b44901e8146112d0578063c369085e146112fb578063ca15c87314611336578063d547741f1461138557610251565b80639dc29fac116100fd5780639dc29fac14610f8e578063a03c669714610fe9578063a1464c4d14611024578063a217fddf146111c3578063a457c2d7146111ee57610251565b80638da5cb5b14610c745780639010d07c14610cb557806391d1485414610d2457806395d89b4114610d955780639cf10a7c14610e2557610251565b80632e63e452116101c7578063395093511161018b578063395093511461087b57806357b6701c146108ec57806361bf799b14610a555780636a62784214610bbe57806370a0823114610c0f57610251565b80632e63e452146106fb5780632f2ff15d14610726578063313ce56714610781578063341ce1fc146107af57806336568abe1461082057610251565b806318160ddd1161020e57806318160ddd1461055057806319d6b7d81461057b57806323b872dd146105b6578063248a9ca3146106475780632d0335ab1461069657610251565b806306fdde0314610256578063095ea7b3146102e65780630c53c51c146103575780630cf7b3ca146104cc57806315cfe4191461052557610251565b3661025157005b600080fd5b34801561026257600080fd5b5061026b611592565b6040518080602001828103825283818151815260200191508051906020019080838360005b838110156102ab578082015181840152602081019050610290565b50505050905090810190601f1680156102d85780820380516001836020036101000a031916815260200191505b509250505060405180910390f35b3480156102f257600080fd5b5061033f6004803603604081101561030957600080fd5b81019080803573ffffffffffffffffffffffffffffffffffffffff16906020019092919080359060200190929190505050611634565b60405180821515815260200191505060405180910390f35b610451600480360360a081101561036d57600080fd5b81019080803573ffffffffffffffffffffffffffffffffffffffff169060200190929190803590602001906401000000008111156103aa57600080fd5b8201836020820111156103bc57600080fd5b803590602001918460018302840111640100000000831117156103de57600080fd5b91908080601f016020809104026020016040519081016040528093929190818152602001838380828437600081840152601f19601f8201169050808301925050505050505091929192908035906020019092919080359060200190929190803560ff169060200190929190505050611652565b6040518080602001828103825283818151815260200191508051906020019080838360005b83811015610491578082015181840152602081019050610476565b50505050905090810190601f1680156104be5780820380516001836020036101000a031916815260200191505b509250505060405180910390f35b3480156104d857600080fd5b50610523600480360360808110156104ef57600080fd5b8101908080359060200190929190803590602001909291908035906020019092919080359060200190929190505050611a5f565b005b34801561053157600080fd5b5061053a611bbe565b6040518082815260200191505060405180910390f35b34801561055c57600080fd5b50610565611bc4565b6040518082815260200191505060405180910390f35b34801561058757600080fd5b506105b46004803603602081101561059e57600080fd5b8101908080359060200190929190505050611bce565b005b3480156105c257600080fd5b5061062f600480360360608110156105d957600080fd5b81019080803573ffffffffffffffffffffffffffffffffffffffff169060200190929190803573ffffffffffffffffffffffffffffffffffffffff16906020019092919080359060200190929190505050611c7e565b60405180821515815260200191505060405180910390f35b34801561065357600080fd5b506106806004803603602081101561066a57600080fd5b8101908080359060200190929190505050611d57565b6040518082815260200191505060405180910390f35b3480156106a257600080fd5b506106e5600480360360208110156106b957600080fd5b81019080803573ffffffffffffffffffffffffffffffffffffffff169060200190929190505050611d77565b6040518082815260200191505060405180910390f35b34801561070757600080fd5b50610710611dc0565b6040518082815260200191505060405180910390f35b34801561073257600080fd5b5061077f6004803603604081101561074957600080fd5b8101908080359060200190929190803573ffffffffffffffffffffffffffffffffffffffff169060200190929190505050611dc6565b005b34801561078d57600080fd5b50610796611e50565b604051808260ff16815260200191505060405180910390f35b3480156107bb57600080fd5b50610808600480360360408110156107d257600080fd5b81019080803573ffffffffffffffffffffffffffffffffffffffff16906020019092919080359060200190929190505050611e67565b60405180821515815260200191505060405180910390f35b34801561082c57600080fd5b506108796004803603604081101561084357600080fd5b8101908080359060200190929190803573ffffffffffffffffffffffffffffffffffffffff169060200190929190505050611f40565b005b34801561088757600080fd5b506108d46004803603604081101561089e57600080fd5b81019080803573ffffffffffffffffffffffffffffffffffffffff16906020019092919080359060200190929190505050611fd9565b60405180821515815260200191505060405180910390f35b3480156108f857600080fd5b50610a536004803603606081101561090f57600080fd5b810190808035906020019064010000000081111561092c57600080fd5b82018360208201111561093e57600080fd5b8035906020019184600183028401116401000000008311171561096057600080fd5b91908080601f016020809104026020016040519081016040528093929190818152602001838380828437600081840152601f19601f820116905080830192505050505050509192919290803590602001906401000000008111156109c357600080fd5b8201836020820111156109d557600080fd5b803590602001918460018302840111640100000000831117156109f757600080fd5b91908080601f016020809104026020016040519081016040528093929190818152602001838380828437600081840152601f19601f8201169050808301925050505050505091929192908035906020019092919050505061208c565b005b348015610a6157600080fd5b50610bbc60048036036060811015610a7857600080fd5b8101908080359060200190640100000000811115610a9557600080fd5b820183602082011115610aa757600080fd5b80359060200191846001830284011164010000000083111715610ac957600080fd5b91908080601f016020809104026020016040519081016040528093929190818152602001838380828437600081840152601f19601f82011690508083019250505050505050919291929080359060200190640100000000811115610b2c57600080fd5b820183602082011115610b3e57600080fd5b80359060200191846001830284011164010000000083111715610b6057600080fd5b91908080601f016020809104026020016040519081016040528093929190818152602001838380828437600081840152601f19601f8201169050808301925050505050505091929192908035906020019092919050505061221d565b005b348015610bca57600080fd5b50610c0d60048036036020811015610be157600080fd5b81019080803573ffffffffffffffffffffffffffffffffffffffff169060200190929190505050612329565b005b348015610c1b57600080fd5b50610c5e60048036036020811015610c3257600080fd5b81019080803573ffffffffffffffffffffffffffffffffffffffff1690602001909291905050506123de565b6040518082815260200191505060405180910390f35b348015610c8057600080fd5b50610c89612427565b604051808273ffffffffffffffffffffffffffffffffffffffff16815260200191505060405180910390f35b348015610cc157600080fd5b50610cf860048036036040811015610cd857600080fd5b81019080803590602001909291908035906020019092919050505061244d565b604051808273ffffffffffffffffffffffffffffffffffffffff16815260200191505060405180910390f35b348015610d3057600080fd5b50610d7d60048036036040811015610d4757600080fd5b8101908080359060200190929190803573ffffffffffffffffffffffffffffffffffffffff16906020019092919050505061247f565b60405180821515815260200191505060405180910390f35b348015610da157600080fd5b50610daa6124b1565b6040518080602001828103825283818151815260200191508051906020019080838360005b83811015610dea578082015181840152602081019050610dcf565b50505050905090810190601f168015610e175780820380516001836020036101000a031916815260200191505b509250505060405180910390f35b348015610e3157600080fd5b50610f8c60048036036060811015610e4857600080fd5b8101908080359060200190640100000000811115610e6557600080fd5b820183602082011115610e7757600080fd5b80359060200191846001830284011164010000000083111715610e9957600080fd5b91908080601f016020809104026020016040519081016040528093929190818152602001838380828437600081840152601f19601f82011690508083019250505050505050919291929080359060200190640100000000811115610efc57600080fd5b820183602082011115610f0e57600080fd5b80359060200191846001830284011164010000000083111715610f3057600080fd5b91908080601f016020809104026020016040519081016040528093929190818152602001838380828437600081840152601f19601f82011690508083019250505050505050919291929080359060200190929190505050612553565b005b348015610f9a57600080fd5b50610fe760048036036040811015610fb157600080fd5b81019080803573ffffffffffffffffffffffffffffffffffffffff1690602001909291908035906020019092919050505061265f565b005b348015610ff557600080fd5b506110226004803603602081101561100c57600080fd5b8101908080359060200190929190505050612730565b005b34801561103057600080fd5b506111c1600480360361010081101561104857600080fd5b810190808035906020019064010000000081111561106557600080fd5b82018360208201111561107757600080fd5b8035906020019184600183028401116401000000008311171561109957600080fd5b91908080601f016020809104026020016040519081016040528093929190818152602001838380828437600081840152601f19601f820116905080830192505050505050509192919290803590602001906401000000008111156110fc57600080fd5b82018360208201111561110e57600080fd5b8035906020019184600183028401116401000000008311171561113057600080fd5b91908080601f016020809104026020016040519081016040528093929190818152602001838380828437600081840152601f19601f820116905080830192505050505050509192919290803560ff16906020019092919080359060200190929190803590602001909291908035906020019092919080359060200190929190803590602001909291905050506127e0565b005b3480156111cf57600080fd5b506111d861297a565b6040518082815260200191505060405180910390f35b3480156111fa57600080fd5b506112476004803603604081101561121157600080fd5b81019080803573ffffffffffffffffffffffffffffffffffffffff16906020019092919080359060200190929190505050612981565b60405180821515815260200191505060405180910390f35b34801561126b57600080fd5b506112b86004803603604081101561128257600080fd5b81019080803573ffffffffffffffffffffffffffffffffffffffff16906020019092919080359060200190929190505050612a4e565b60405180821515815260200191505060405180910390f35b3480156112dc57600080fd5b506112e5612a6c565b6040518082815260200191505060405180910390f35b34801561130757600080fd5b506113346004803603602081101561131e57600080fd5b8101908080359060200190929190505050612a72565b005b34801561134257600080fd5b5061136f6004803603602081101561135957600080fd5b8101908080359060200190929190505050612b22565b6040518082815260200191505060405180910390f35b34801561139157600080fd5b506113de600480360360408110156113a857600080fd5b8101908080359060200190929190803573ffffffffffffffffffffffffffffffffffffffff169060200190929190505050612b49565b005b3480156113ec57600080fd5b506113f5612bd3565b6040518082815260200191505060405180910390f35b34801561141757600080fd5b506114446004803603602081101561142e57600080fd5b8101908080359060200190929190505050612bdd565b005b34801561145257600080fd5b506114b56004803603604081101561146957600080fd5b81019080803573ffffffffffffffffffffffffffffffffffffffff169060200190929190803573ffffffffffffffffffffffffffffffffffffffff169060200190929190505050612c8d565b6040518082815260200191505060405180910390f35b3480156114d757600080fd5b506114e0612d14565b6040518082815260200191505060405180910390f35b34801561150257600080fd5b5061150b612d1a565b6040518082815260200191505060405180910390f35b34801561152d57600080fd5b506115906004803603604081101561154457600080fd5b81019080803573ffffffffffffffffffffffffffffffffffffffff169060200190929190803573ffffffffffffffffffffffffffffffffffffffff169060200190929190505050612d28565b005b6060606a8054600181600116156101000203166002900480601f01602080910402602001604051908101604052809291908181526020018280546001816001161561010002031660029004801561162a5780601f106115ff5761010080835404028352916020019161162a565b820191906000526020600020905b81548152906001019060200180831161160d57829003601f168201915b5050505050905090565b6000611648611641612e54565b8484612e5c565b6001905092915050565b606060006040518060600160405280606660008a73ffffffffffffffffffffffffffffffffffffffff1673ffffffffffffffffffffffffffffffffffffffff1681526020019081526020016000205481526020018873ffffffffffffffffffffffffffffffffffffffff1681526020018781525090506116d58782878787613053565b61172a576040517f08c379a00000000000000000000000000000000000000000000000000000000081526004018080602001828103825260218152602001806144586021913960400191505060405180910390fd5b61177d6001606660008a73ffffffffffffffffffffffffffffffffffffffff1673ffffffffffffffffffffffffffffffffffffffff1681526020019081526020016000205461310290919063ffffffff16565b606660008973ffffffffffffffffffffffffffffffffffffffff1673ffffffffffffffffffffffffffffffffffffffff168152602001908152602001600020819055507f5845892132946850460bff5a0083f71031bc5bf9aadcd40f1de79423eac9b10b873388604051808473ffffffffffffffffffffffffffffffffffffffff1681526020018373ffffffffffffffffffffffffffffffffffffffff16815260200180602001828103825283818151815260200191508051906020019080838360005b8381101561185c578082015181840152602081019050611841565b50505050905090810190601f1680156118895780820380516001836020036101000a031916815260200191505b5094505050505060405180910390a16000803073ffffffffffffffffffffffffffffffffffffffff16888a6040516020018083805190602001908083835b602083106118ea57805182526020820191506020810190506020830392506118c7565b6001836020036101000a0380198251168184511680821785525050505050509050018273ffffffffffffffffffffffffffffffffffffffff1660601b8152601401925050506040516020818303038152906040526040518082805190602001908083835b60208310611971578051825260208201915060208101905060208303925061194e565b6001836020036101000a0380198251168184511680821785525050505050509050019150506000604051808303816000865af19150503d80600081146119d3576040519150601f19603f3d011682016040523d82523d6000602084013e6119d8565b606091505b509150915081611a50576040517f08c379a000000000000000000000000000000000000000000000000000000000815260040180806020018281038252601c8152602001807f46756e6374696f6e2063616c6c206e6f74207375636365737366756c0000000081525060200191505060405180910390fd5b80935050505095945050505050565b600060019054906101000a900460ff1680611a7e5750611a7d61318a565b5b80611a94575060008054906101000a900460ff16155b611ae9576040517f08c379a000000000000000000000000000000000000000000000000000000000815260040180806020018281038252602e8152602001806143b0602e913960400191505060405180910390fd5b60008060019054906101000a900460ff161590508015611b39576001600060016101000a81548160ff02191690831515021790555060016000806101000a81548160ff0219169083151502179055505b33609c60006101000a81548173ffffffffffffffffffffffffffffffffffffffff021916908373ffffffffffffffffffffffffffffffffffffffff1602179055508460998190555083609a8190555082609b8190555081609d819055508015611bb75760008060016101000a81548160ff0219169083151502179055505b5050505050565b609d5481565b6000606954905090565b609c60009054906101000a900473ffffffffffffffffffffffffffffffffffffffff1673ffffffffffffffffffffffffffffffffffffffff163373ffffffffffffffffffffffffffffffffffffffff1614611c74576040517f08c379a00000000000000000000000000000000000000000000000000000000081526004018080602001828103825260318152602001806145086031913960400191505060405180910390fd5b80609b8190555050565b6000611c8b84848461319b565b611d4c84611c97612e54565b611d478560405180606001604052806028815260200161443060289139606860008b73ffffffffffffffffffffffffffffffffffffffff1673ffffffffffffffffffffffffffffffffffffffff1681526020019081526020016000206000611cfd612e54565b73ffffffffffffffffffffffffffffffffffffffff1673ffffffffffffffffffffffffffffffffffffffff168152602001908152602001600020546134609092919063ffffffff16565b612e5c565b600190509392505050565b600060336000838152602001908152602001600020600201549050919050565b6000606660008373ffffffffffffffffffffffffffffffffffffffff1673ffffffffffffffffffffffffffffffffffffffff168152602001908152602001600020549050919050565b609b5481565b611ded6033600084815260200190815260200160002060020154611de8612e54565b61247f565b611e42576040517f08c379a000000000000000000000000000000000000000000000000000000000815260040180806020018281038252602f8152602001806142a4602f913960400191505060405180910390fd5b611e4c828261351a565b5050565b6000606c60009054906101000a900460ff16905090565b6000609e60009054906101000a900473ffffffffffffffffffffffffffffffffffffffff1673ffffffffffffffffffffffffffffffffffffffff163373ffffffffffffffffffffffffffffffffffffffff1614611f2c576040517f08c379a00000000000000000000000000000000000000000000000000000000081526004018080602001828103825260148152602001807f6f6e6c79207075626c696320636f6e747261637400000000000000000000000081525060200191505060405180910390fd5b611f3683836135ae565b6001905092915050565b611f48612e54565b73ffffffffffffffffffffffffffffffffffffffff168173ffffffffffffffffffffffffffffffffffffffff1614611fcb576040517f08c379a000000000000000000000000000000000000000000000000000000000815260040180806020018281038252602f815260200180614539602f913960400191505060405180910390fd5b611fd58282613777565b5050565b6000612082611fe6612e54565b8461207d8560686000611ff7612e54565b73ffffffffffffffffffffffffffffffffffffffff1673ffffffffffffffffffffffffffffffffffffffff16815260200190815260200160002060008973ffffffffffffffffffffffffffffffffffffffff1673ffffffffffffffffffffffffffffffffffffffff1681526020019081526020016000205461310290919063ffffffff16565b612e5c565b6001905092915050565b600060019054906101000a900460ff16806120ab57506120aa61318a565b5b806120c1575060008054906101000a900460ff16155b612116576040517f08c379a000000000000000000000000000000000000000000000000000000000815260040180806020018281038252602e8152602001806143b0602e913960400191505060405180910390fd5b60008060019054906101000a900460ff161590508015612166576001600060016101000a81548160ff02191690831515021790555060016000806101000a81548160ff0219169083151502179055505b6040518060800160405280605281526020016143de6052913980519060200120848051906020012084805190602001208430604051602001808681526020018581526020018481526020018381526020018273ffffffffffffffffffffffffffffffffffffffff168152602001955050505050506040516020818303038152906040528051906020012060658190555080156122175760008060016101000a81548160ff0219169083151502179055505b50505050565b600060019054906101000a900460ff168061223c575061223b61318a565b5b80612252575060008054906101000a900460ff16155b6122a7576040517f08c379a000000000000000000000000000000000000000000000000000000000815260040180806020018281038252602e8152602001806143b0602e913960400191505060405180910390fd5b60008060019054906101000a900460ff1615905080156122f7576001600060016101000a81548160ff02191690831515021790555060016000806101000a81548160ff0219169083151502179055505b612302848484612553565b80156123235760008060016101000a81548160ff0219169083151502179055505b50505050565b609c60009054906101000a900473ffffffffffffffffffffffffffffffffffffffff1673ffffffffffffffffffffffffffffffffffffffff163373ffffffffffffffffffffffffffffffffffffffff16146123cf576040517f08c379a00000000000000000000000000000000000000000000000000000000081526004018080602001828103825260318152602001806145086031913960400191505060405180910390fd5b6123db81609b546135ae565b50565b6000606760008373ffffffffffffffffffffffffffffffffffffffff1673ffffffffffffffffffffffffffffffffffffffff168152602001908152602001600020549050919050565b609c60009054906101000a900473ffffffffffffffffffffffffffffffffffffffff1681565b6000612477826033600086815260200190815260200160002060000161380b90919063ffffffff16565b905092915050565b60006124a9826033600086815260200190815260200160002060000161382590919063ffffffff16565b905092915050565b6060606b8054600181600116156101000203166002900480601f0160208091040260200160405190810160405280929190818152602001828054600181600116156101000203166002900480156125495780601f1061251e57610100808354040283529160200191612549565b820191906000526020600020905b81548152906001019060200180831161252c57829003601f168201915b5050505050905090565b600060019054906101000a900460ff1680612572575061257161318a565b5b80612588575060008054906101000a900460ff16155b6125dd576040517f08c379a000000000000000000000000000000000000000000000000000000000815260040180806020018281038252602e8152602001806143b0602e913960400191505060405180910390fd5b60008060019054906101000a900460ff16159050801561262d576001600060016101000a81548160ff02191690831515021790555060016000806101000a81548160ff0219169083151502179055505b61263884848461208c565b80156126595760008060016101000a81548160ff0219169083151502179055505b50505050565b609f60009054906101000a900473ffffffffffffffffffffffffffffffffffffffff1673ffffffffffffffffffffffffffffffffffffffff163373ffffffffffffffffffffffffffffffffffffffff1614612722576040517f08c379a00000000000000000000000000000000000000000000000000000000081526004018080602001828103825260108152602001807f4254592063616e206275726e204245540000000000000000000000000000000081525060200191505060405180910390fd5b61272c8282613855565b5050565b609c60009054906101000a900473ffffffffffffffffffffffffffffffffffffffff1673ffffffffffffffffffffffffffffffffffffffff163373ffffffffffffffffffffffffffffffffffffffff16146127d6576040517f08c379a00000000000000000000000000000000000000000000000000000000081526004018080602001828103825260318152602001806145086031913960400191505060405180910390fd5b8060998190555050565b600060019054906101000a900460ff16806127ff57506127fe61318a565b5b80612815575060008054906101000a900460ff16155b61286a576040517f08c379a000000000000000000000000000000000000000000000000000000000815260040180806020018281038252602e8152602001806143b0602e913960400191505060405180910390fd5b60008060019054906101000a900460ff1615905080156128ba576001600060016101000a81548160ff02191690831515021790555060016000806101000a81548160ff0219169083151502179055505b6128c685858585611a5f565b6128d08989613a1b565b6128d987613b2d565b61294e6040518060400160405280600981526020017f4245545f746f6b656e00000000000000000000000000000000000000000000008152506040518060400160405280600181526020017f31000000000000000000000000000000000000000000000000000000000000008152508861221d565b801561296f5760008060016101000a81548160ff0219169083151502179055505b505050505050505050565b6000801b81565b6000612a4461298e612e54565b84612a3f856040518060600160405280602581526020016144e360259139606860006129b8612e54565b73ffffffffffffffffffffffffffffffffffffffff1673ffffffffffffffffffffffffffffffffffffffff16815260200190815260200160002060008a73ffffffffffffffffffffffffffffffffffffffff1673ffffffffffffffffffffffffffffffffffffffff168152602001908152602001600020546134609092919063ffffffff16565b612e5c565b6001905092915050565b6000612a62612a5b612e54565b848461319b565b6001905092915050565b60995481565b609c60009054906101000a900473ffffffffffffffffffffffffffffffffffffffff1673ffffffffffffffffffffffffffffffffffffffff163373ffffffffffffffffffffffffffffffffffffffff1614612b18576040517f08c379a00000000000000000000000000000000000000000000000000000000081526004018080602001828103825260318152602001806145086031913960400191505060405180910390fd5b80609d8190555050565b6000612b4260336000848152602001908152602001600020600001613b4b565b9050919050565b612b706033600084815260200190815260200160002060020154612b6b612e54565b61247f565b612bc5576040517f08c379a00000000000000000000000000000000000000000000000000000000081526004018080602001828103825260308152602001806143806030913960400191505060405180910390fd5b612bcf8282613777565b5050565b6000609d54905090565b609c60009054906101000a900473ffffffffffffffffffffffffffffffffffffffff1673ffffffffffffffffffffffffffffffffffffffff163373ffffffffffffffffffffffffffffffffffffffff1614612c83576040517f08c379a00000000000000000000000000000000000000000000000000000000081526004018080602001828103825260318152602001806145086031913960400191505060405180910390fd5b80609a8190555050565b6000606860008473ffffffffffffffffffffffffffffffffffffffff1673ffffffffffffffffffffffffffffffffffffffff16815260200190815260200160002060008373ffffffffffffffffffffffffffffffffffffffff1673ffffffffffffffffffffffffffffffffffffffff16815260200190815260200160002054905092915050565b609a5481565b6000609954609b5402905090565b609c60009054906101000a900473ffffffffffffffffffffffffffffffffffffffff1673ffffffffffffffffffffffffffffffffffffffff163373ffffffffffffffffffffffffffffffffffffffff1614612dce576040517f08c379a00000000000000000000000000000000000000000000000000000000081526004018080602001828103825260318152602001806145086031913960400191505060405180910390fd5b81609e60006101000a81548173ffffffffffffffffffffffffffffffffffffffff021916908373ffffffffffffffffffffffffffffffffffffffff16021790555080609f60006101000a81548173ffffffffffffffffffffffffffffffffffffffff021916908373ffffffffffffffffffffffffffffffffffffffff1602179055505050565b600033905090565b600073ffffffffffffffffffffffffffffffffffffffff168373ffffffffffffffffffffffffffffffffffffffff161415612ee2576040517f08c379a00000000000000000000000000000000000000000000000000000000081526004018080602001828103825260248152602001806144bf6024913960400191505060405180910390fd5b600073ffffffffffffffffffffffffffffffffffffffff168273ffffffffffffffffffffffffffffffffffffffff161415612f68576040517f08c379a00000000000000000000000000000000000000000000000000000000081526004018080602001828103825260228152602001806143386022913960400191505060405180910390fd5b80606860008573ffffffffffffffffffffffffffffffffffffffff1673ffffffffffffffffffffffffffffffffffffffff16815260200190815260200160002060008473ffffffffffffffffffffffffffffffffffffffff1673ffffffffffffffffffffffffffffffffffffffff168152602001908152602001600020819055508173ffffffffffffffffffffffffffffffffffffffff168373ffffffffffffffffffffffffffffffffffffffff167f8c5be1e5ebec7d5bd14f71427d1e84f3dd0314c0f7b2291e5b200ac8c7c3b925836040518082815260200191505060405180910390a3505050565b6000600161306861306387613b60565b613bf0565b83868660405160008152602001604052604051808581526020018460ff1681526020018381526020018281526020019450505050506020604051602081039080840390855afa1580156130bf573d6000803e3d6000fd5b5050506020604051035173ffffffffffffffffffffffffffffffffffffffff168673ffffffffffffffffffffffffffffffffffffffff1614905095945050505050565b600080828401905083811015613180576040517f08c379a000000000000000000000000000000000000000000000000000000000815260040180806020018281038252601b8152602001807f536166654d6174683a206164646974696f6e206f766572666c6f77000000000081525060200191505060405180910390fd5b8091505092915050565b600061319530613c57565b15905090565b600073ffffffffffffffffffffffffffffffffffffffff168373ffffffffffffffffffffffffffffffffffffffff161415613221576040517f08c379a000000000000000000000000000000000000000000000000000000000815260040180806020018281038252602581526020018061449a6025913960400191505060405180910390fd5b600073ffffffffffffffffffffffffffffffffffffffff168273ffffffffffffffffffffffffffffffffffffffff1614156132a7576040517f08c379a00000000000000000000000000000000000000000000000000000000081526004018080602001828103825260238152602001806142816023913960400191505060405180910390fd5b6132b2838383613c6a565b61331e8160405180606001604052806026815260200161435a60269139606760008773ffffffffffffffffffffffffffffffffffffffff1673ffffffffffffffffffffffffffffffffffffffff168152602001908152602001600020546134609092919063ffffffff16565b606760008573ffffffffffffffffffffffffffffffffffffffff1673ffffffffffffffffffffffffffffffffffffffff168152602001908152602001600020819055506133b381606760008573ffffffffffffffffffffffffffffffffffffffff1673ffffffffffffffffffffffffffffffffffffffff1681526020019081526020016000205461310290919063ffffffff16565b606760008473ffffffffffffffffffffffffffffffffffffffff1673ffffffffffffffffffffffffffffffffffffffff168152602001908152602001600020819055508173ffffffffffffffffffffffffffffffffffffffff168373ffffffffffffffffffffffffffffffffffffffff167fddf252ad1be2c89b69c2b068fc378daa952ba7f163c4a11628f55a4df523b3ef836040518082815260200191505060405180910390a3505050565b600083831115829061350d576040517f08c379a00000000000000000000000000000000000000000000000000000000081526004018080602001828103825283818151815260200191508051906020019080838360005b838110156134d25780820151818401526020810190506134b7565b50505050905090810190601f1680156134ff5780820380516001836020036101000a031916815260200191505b509250505060405180910390fd5b5082840390509392505050565b6135428160336000858152602001908152602001600020600001613c6f90919063ffffffff16565b156135aa5761354f612e54565b73ffffffffffffffffffffffffffffffffffffffff168173ffffffffffffffffffffffffffffffffffffffff16837f2f8788117e7eff1d82e926ec794901d17c78024a50270940304540a733656f0d60405160405180910390a45b5050565b600073ffffffffffffffffffffffffffffffffffffffff168273ffffffffffffffffffffffffffffffffffffffff161415613651576040517f08c379a000000000000000000000000000000000000000000000000000000000815260040180806020018281038252601f8152602001807f45524332303a206d696e7420746f20746865207a65726f20616464726573730081525060200191505060405180910390fd5b61365d60008383613c6a565b6136728160695461310290919063ffffffff16565b6069819055506136ca81606760008573ffffffffffffffffffffffffffffffffffffffff1673ffffffffffffffffffffffffffffffffffffffff1681526020019081526020016000205461310290919063ffffffff16565b606760008473ffffffffffffffffffffffffffffffffffffffff1673ffffffffffffffffffffffffffffffffffffffff168152602001908152602001600020819055508173ffffffffffffffffffffffffffffffffffffffff16600073ffffffffffffffffffffffffffffffffffffffff167fddf252ad1be2c89b69c2b068fc378daa952ba7f163c4a11628f55a4df523b3ef836040518082815260200191505060405180910390a35050565b61379f8160336000858152602001908152602001600020600001613c9f90919063ffffffff16565b15613807576137ac612e54565b73ffffffffffffffffffffffffffffffffffffffff168173ffffffffffffffffffffffffffffffffffffffff16837ff6391f5c32d9c69d2a47ea670b442974b53935d1edc7fd64eb21e047a839171b60405160405180910390a45b5050565b600061381a8360000183613ccf565b60001c905092915050565b600061384d836000018373ffffffffffffffffffffffffffffffffffffffff1660001b613d52565b905092915050565b600073ffffffffffffffffffffffffffffffffffffffff168273ffffffffffffffffffffffffffffffffffffffff1614156138db576040517f08c379a00000000000000000000000000000000000000000000000000000000081526004018080602001828103825260218152602001806144796021913960400191505060405180910390fd5b6138e782600083613c6a565b613953816040518060600160405280602281526020016142d360229139606760008673ffffffffffffffffffffffffffffffffffffffff1673ffffffffffffffffffffffffffffffffffffffff168152602001908152602001600020546134609092919063ffffffff16565b606760008473ffffffffffffffffffffffffffffffffffffffff1673ffffffffffffffffffffffffffffffffffffffff168152602001908152602001600020819055506139ab81606954613d7590919063ffffffff16565b606981905550600073ffffffffffffffffffffffffffffffffffffffff168273ffffffffffffffffffffffffffffffffffffffff167fddf252ad1be2c89b69c2b068fc378daa952ba7f163c4a11628f55a4df523b3ef836040518082815260200191505060405180910390a35050565b600060019054906101000a900460ff1680613a3a5750613a3961318a565b5b80613a50575060008054906101000a900460ff16155b613aa5576040517f08c379a000000000000000000000000000000000000000000000000000000000815260040180806020018281038252602e8152602001806143b0602e913960400191505060405180910390fd5b60008060019054906101000a900460ff161590508015613af5576001600060016101000a81548160ff02191690831515021790555060016000806101000a81548160ff0219169083151502179055505b613afd613df8565b613b078383613ef6565b8015613b285760008060016101000a81548160ff0219169083151502179055505b505050565b80606c60006101000a81548160ff021916908360ff16021790555050565b6000613b5982600001614040565b9050919050565b60006040518060800160405280604381526020016142f5604391398051906020012082600001518360200151846040015180519060200120604051602001808581526020018481526020018373ffffffffffffffffffffffffffffffffffffffff168152602001828152602001945050505050604051602081830303815290604052805190602001209050919050565b6000613bfa614051565b8260405160200180807f190100000000000000000000000000000000000000000000000000000000000081525060020183815260200182815260200192505050604051602081830303815290604052805190602001209050919050565b600080823b905060008111915050919050565b505050565b6000613c97836000018373ffffffffffffffffffffffffffffffffffffffff1660001b61405b565b905092915050565b6000613cc7836000018373ffffffffffffffffffffffffffffffffffffffff1660001b6140cb565b905092915050565b600081836000018054905011613d30576040517f08c379a000000000000000000000000000000000000000000000000000000000815260040180806020018281038252602281526020018061425f6022913960400191505060405180910390fd5b826000018281548110613d3f57fe5b9060005260206000200154905092915050565b600080836001016000848152602001908152602001600020541415905092915050565b600082821115613ded576040517f08c379a000000000000000000000000000000000000000000000000000000000815260040180806020018281038252601e8152602001807f536166654d6174683a207375627472616374696f6e206f766572666c6f77000081525060200191505060405180910390fd5b818303905092915050565b600060019054906101000a900460ff1680613e175750613e1661318a565b5b80613e2d575060008054906101000a900460ff16155b613e82576040517f08c379a000000000000000000000000000000000000000000000000000000000815260040180806020018281038252602e8152602001806143b0602e913960400191505060405180910390fd5b60008060019054906101000a900460ff161590508015613ed2576001600060016101000a81548160ff02191690831515021790555060016000806101000a81548160ff0219169083151502179055505b8015613ef35760008060016101000a81548160ff0219169083151502179055505b50565b600060019054906101000a900460ff1680613f155750613f1461318a565b5b80613f2b575060008054906101000a900460ff16155b613f80576040517f08c379a000000000000000000000000000000000000000000000000000000000815260040180806020018281038252602e8152602001806143b0602e913960400191505060405180910390fd5b60008060019054906101000a900460ff161590508015613fd0576001600060016101000a81548160ff02191690831515021790555060016000806101000a81548160ff0219169083151502179055505b82606a9080519060200190613fe69291906141b3565b5081606b9080519060200190613ffd9291906141b3565b506012606c60006101000a81548160ff021916908360ff160217905550801561403b5760008060016101000a81548160ff0219169083151502179055505b505050565b600081600001805490509050919050565b6000606554905090565b60006140678383613d52565b6140c05782600001829080600181540180825580915050600190039060005260206000200160009091909190915055826000018054905083600101600084815260200190815260200160002081905550600190506140c5565b600090505b92915050565b600080836001016000848152602001908152602001600020549050600081146141a7576000600182039050600060018660000180549050039050600086600001828154811061411657fe5b906000526020600020015490508087600001848154811061413357fe5b906000526020600020018190555060018301876001016000838152602001908152602001600020819055508660000180548061416b57fe5b600190038181906000526020600020016000905590558660010160008781526020019081526020016000206000905560019450505050506141ad565b60009150505b92915050565b828054600181600116156101000203166002900490600052602060002090601f0160209004810192826141e95760008555614230565b82601f1061420257805160ff1916838001178555614230565b82800160010185558215614230579182015b8281111561422f578251825591602001919060010190614214565b5b50905061423d9190614241565b5090565b5b8082111561425a576000816000905550600101614242565b509056fe456e756d657261626c655365743a20696e646578206f7574206f6620626f756e647345524332303a207472616e7366657220746f20746865207a65726f2061646472657373416363657373436f6e74726f6c3a2073656e646572206d75737420626520616e2061646d696e20746f206772616e7445524332303a206275726e20616d6f756e7420657863656564732062616c616e63654d6574615472616e73616374696f6e2875696e74323536206e6f6e63652c616464726573732066726f6d2c62797465732066756e6374696f6e5369676e61747572652945524332303a20617070726f766520746f20746865207a65726f206164647265737345524332303a207472616e7366657220616d6f756e7420657863656564732062616c616e6365416363657373436f6e74726f6c3a2073656e646572206d75737420626520616e2061646d696e20746f207265766f6b65496e697469616c697a61626c653a20636f6e747261637420697320616c726561647920696e697469616c697a6564454950373132446f6d61696e28737472696e67206e616d652c737472696e672076657273696f6e2c75696e7432353620636861696e49642c6164647265737320766572696679696e67436f6e74726163742945524332303a207472616e7366657220616d6f756e74206578636565647320616c6c6f77616e63655369676e657220616e64207369676e617475726520646f206e6f74206d6174636845524332303a206275726e2066726f6d20746865207a65726f206164647265737345524332303a207472616e736665722066726f6d20746865207a65726f206164647265737345524332303a20617070726f76652066726f6d20746865207a65726f206164647265737345524332303a2064656372656173656420616c6c6f77616e63652062656c6f77207a65726f546869732066756e6374696f6e20636f756c64206f6e6c7920626520657865637574656420627920746865206f776e6572416363657373436f6e74726f6c3a2063616e206f6e6c792072656e6f756e636520726f6c657320666f722073656c66a2646970667358221220a9dfdec53e4215cd1f941e09e44b11aa7ce7f53341bbcdde1ce8f0090e514c8a64736f6c63430007060033",
  "immutableReferences": {},
  "source": "// SPDX-License-Identifier: MIT\npragma solidity >=0.4.22 <0.9.0;\n\nimport {\n    ERC20Upgradeable\n} from \"@openzeppelin/contracts-upgradeable/token/ERC20/ERC20Upgradeable.sol\";\nimport {MetaTransactLib} from \"../../metaTransaction/MetaTransactLib.sol\";\nimport {ConfigVariables} from \"../config/ConfigVariables.sol\";\n\ncontract BET is MetaTransactLib, ERC20Upgradeable, ConfigVariables {\n    address publicContract;\n    address btyContract;\n\n    function __BETinit(\n        string memory _name,\n        string memory _symbol,\n        uint8 _decimals,\n        uint _network_id,\n        uint _firstWithdrawIndex,\n        uint _GFrewards,\n        uint _welcomeBTYTokens,\n        uint _GFindex\n    ) public initializer {\n        __ConfigVariables(\n            _firstWithdrawIndex,\n            _GFrewards,\n            _welcomeBTYTokens,\n            _GFindex\n        );\n        __ERC20_init(_name, _symbol);\n        _setupDecimals(_decimals);\n        __MetaTransactLibInit(\"BET_token\", \"1\", _network_id);\n    }\n\n    function setConfigContract(address _publicEvents, address _bty)\n        public\n        ownerOnly()\n    {\n        publicContract = _publicEvents;\n        btyContract = _bty;\n    }\n\n    function mint(address wallet) public ownerOnly() {\n        //    require(balanceOf(wallet) == 0, \"User has tokens on balance\"); TODO remove from prodaction\n        _mint(wallet, welcomeBTYTokens);\n    }\n\n    function mintFromPublicContract(address wallet, uint256 amount)\n        public\n        returns (bool)\n    {\n        require(msg.sender == publicContract, \"only public contract\");\n        _mint(wallet, amount);\n        return true;\n    }\n\n    function burn(address wallet, uint256 amount) public {\n        require(msg.sender == btyContract, \"BTY can burn BET\");\n        _burn(wallet, amount);\n    }\n}\n",
  "sourcePath": "/Users/macbook/Documents/freelance/tokenominc/contracts/matic/tokens/BET.sol",
  "compiler": {
    "name": "solc",
    "version": "0.7.6+commit.7338295f.Linux.g++"
  },
  "schemaVersion": "3.3.4",
  "updatedAt": "2021-03-25T10:30:29.448Z",
  "networkType": "ethereum",
  "devdoc": {
    "kind": "dev",
    "methods": {
      "allowance(address,address)": {
        "details": "See {IERC20-allowance}."
      },
      "approve(address,uint256)": {
        "details": "See {IERC20-approve}. Requirements: - `spender` cannot be the zero address."
      },
      "balanceOf(address)": {
        "details": "See {IERC20-balanceOf}."
      },
      "decimals()": {
        "details": "Returns the number of decimals used to get its user representation. For example, if `decimals` equals `2`, a balance of `505` tokens should be displayed to a user as `5,05` (`505 / 10 ** 2`). Tokens usually opt for a value of 18, imitating the relationship between Ether and Wei. This is the value {ERC20} uses, unless {_setupDecimals} is called. NOTE: This information is only used for _display_ purposes: it in no way affects any of the arithmetic of the contract, including {IERC20-balanceOf} and {IERC20-transfer}."
      },
      "decreaseAllowance(address,uint256)": {
        "details": "Atomically decreases the allowance granted to `spender` by the caller. This is an alternative to {approve} that can be used as a mitigation for problems described in {IERC20-approve}. Emits an {Approval} event indicating the updated allowance. Requirements: - `spender` cannot be the zero address. - `spender` must have allowance for the caller of at least `subtractedValue`."
      },
      "getRoleAdmin(bytes32)": {
        "details": "Returns the admin role that controls `role`. See {grantRole} and {revokeRole}. To change a role's admin, use {_setRoleAdmin}."
      },
      "getRoleMember(bytes32,uint256)": {
        "details": "Returns one of the accounts that have `role`. `index` must be a value between 0 and {getRoleMemberCount}, non-inclusive. Role bearers are not sorted in any particular way, and their ordering may change at any point. WARNING: When using {getRoleMember} and {getRoleMemberCount}, make sure you perform all queries on the same block. See the following https://forum.openzeppelin.com/t/iterating-over-elements-on-enumerableset-in-openzeppelin-contracts/2296[forum post] for more information."
      },
      "getRoleMemberCount(bytes32)": {
        "details": "Returns the number of accounts that have `role`. Can be used together with {getRoleMember} to enumerate all bearers of a role."
      },
      "grantRole(bytes32,address)": {
        "details": "Grants `role` to `account`. If `account` had not been already granted `role`, emits a {RoleGranted} event. Requirements: - the caller must have ``role``'s admin role."
      },
      "hasRole(bytes32,address)": {
        "details": "Returns `true` if `account` has been granted `role`."
      },
      "increaseAllowance(address,uint256)": {
        "details": "Atomically increases the allowance granted to `spender` by the caller. This is an alternative to {approve} that can be used as a mitigation for problems described in {IERC20-approve}. Emits an {Approval} event indicating the updated allowance. Requirements: - `spender` cannot be the zero address."
      },
      "name()": {
        "details": "Returns the name of the token."
      },
      "renounceRole(bytes32,address)": {
        "details": "Revokes `role` from the calling account. Roles are often managed via {grantRole} and {revokeRole}: this function's purpose is to provide a mechanism for accounts to lose their privileges if they are compromised (such as when a trusted device is misplaced). If the calling account had been granted `role`, emits a {RoleRevoked} event. Requirements: - the caller must be `account`."
      },
      "revokeRole(bytes32,address)": {
        "details": "Revokes `role` from `account`. If `account` had been granted `role`, emits a {RoleRevoked} event. Requirements: - the caller must have ``role``'s admin role."
      },
      "symbol()": {
        "details": "Returns the symbol of the token, usually a shorter version of the name."
      },
      "totalSupply()": {
        "details": "See {IERC20-totalSupply}."
      },
      "transfer(address,uint256)": {
        "details": "See {IERC20-transfer}. Requirements: - `recipient` cannot be the zero address. - the caller must have a balance of at least `amount`."
      },
      "transferFrom(address,address,uint256)": {
        "details": "See {IERC20-transferFrom}. Emits an {Approval} event indicating the updated allowance. This is not required by the EIP. See the note at the beginning of {ERC20}. Requirements: - `sender` and `recipient` cannot be the zero address. - `sender` must have a balance of at least `amount`. - the caller must have allowance for ``sender``'s tokens of at least `amount`."
      }
    },
    "version": 1
  },
  "userdoc": {
    "kind": "user",
    "methods": {},
    "version": 1
  }
}