{
  "contractName": "BET",
  "abi": [
    {
      "inputs": [
        {
          "internalType": "string",
          "name": "_name",
          "type": "string"
        },
        {
          "internalType": "string",
          "name": "_symbol",
          "type": "string"
        },
        {
          "internalType": "uint8",
          "name": "_decimals",
          "type": "uint8"
        }
      ],
      "stateMutability": "nonpayable",
      "type": "constructor"
    },
    {
      "anonymous": false,
      "inputs": [
        {
          "indexed": true,
          "internalType": "address",
          "name": "owner",
          "type": "address"
        },
        {
          "indexed": true,
          "internalType": "address",
          "name": "spender",
          "type": "address"
        },
        {
          "indexed": false,
          "internalType": "uint256",
          "name": "value",
          "type": "uint256"
        }
      ],
      "name": "Approval",
      "type": "event"
    },
    {
      "anonymous": false,
      "inputs": [
        {
          "indexed": false,
          "internalType": "address",
          "name": "userAddress",
          "type": "address"
        },
        {
          "indexed": false,
          "internalType": "address payable",
          "name": "relayerAddress",
          "type": "address"
        },
        {
          "indexed": false,
          "internalType": "bytes",
          "name": "functionSignature",
          "type": "bytes"
        }
      ],
      "name": "MetaTransactionExecuted",
      "type": "event"
    },
    {
      "anonymous": false,
      "inputs": [
        {
          "indexed": true,
          "internalType": "bytes32",
          "name": "role",
          "type": "bytes32"
        },
        {
          "indexed": true,
          "internalType": "bytes32",
          "name": "previousAdminRole",
          "type": "bytes32"
        },
        {
          "indexed": true,
          "internalType": "bytes32",
          "name": "newAdminRole",
          "type": "bytes32"
        }
      ],
      "name": "RoleAdminChanged",
      "type": "event"
    },
    {
      "anonymous": false,
      "inputs": [
        {
          "indexed": true,
          "internalType": "bytes32",
          "name": "role",
          "type": "bytes32"
        },
        {
          "indexed": true,
          "internalType": "address",
          "name": "account",
          "type": "address"
        },
        {
          "indexed": true,
          "internalType": "address",
          "name": "sender",
          "type": "address"
        }
      ],
      "name": "RoleGranted",
      "type": "event"
    },
    {
      "anonymous": false,
      "inputs": [
        {
          "indexed": true,
          "internalType": "bytes32",
          "name": "role",
          "type": "bytes32"
        },
        {
          "indexed": true,
          "internalType": "address",
          "name": "account",
          "type": "address"
        },
        {
          "indexed": true,
          "internalType": "address",
          "name": "sender",
          "type": "address"
        }
      ],
      "name": "RoleRevoked",
      "type": "event"
    },
    {
      "anonymous": false,
      "inputs": [
        {
          "indexed": true,
          "internalType": "address",
          "name": "from",
          "type": "address"
        },
        {
          "indexed": true,
          "internalType": "address",
          "name": "to",
          "type": "address"
        },
        {
          "indexed": false,
          "internalType": "uint256",
          "name": "value",
          "type": "uint256"
        }
      ],
      "name": "Transfer",
      "type": "event"
    },
    {
      "inputs": [],
      "name": "DEFAULT_ADMIN_ROLE",
      "outputs": [
        {
          "internalType": "bytes32",
          "name": "",
          "type": "bytes32"
        }
      ],
      "stateMutability": "view",
      "type": "function"
    },
    {
      "inputs": [],
      "name": "GFindex",
      "outputs": [
        {
          "internalType": "uint256",
          "name": "",
          "type": "uint256"
        }
      ],
      "stateMutability": "view",
      "type": "function"
    },
    {
      "inputs": [],
      "name": "GFrewards",
      "outputs": [
        {
          "internalType": "uint256",
          "name": "",
          "type": "uint256"
        }
      ],
      "stateMutability": "view",
      "type": "function"
    },
    {
      "inputs": [],
      "name": "advisorPepc",
      "outputs": [
        {
          "internalType": "uint256",
          "name": "",
          "type": "uint256"
        }
      ],
      "stateMutability": "view",
      "type": "function"
    },
    {
      "inputs": [],
      "name": "advisorPercMint",
      "outputs": [
        {
          "internalType": "uint256",
          "name": "",
          "type": "uint256"
        }
      ],
      "stateMutability": "view",
      "type": "function"
    },
    {
      "inputs": [
        {
          "internalType": "address",
          "name": "owner",
          "type": "address"
        },
        {
          "internalType": "address",
          "name": "spender",
          "type": "address"
        }
      ],
      "name": "allowance",
      "outputs": [
        {
          "internalType": "uint256",
          "name": "",
          "type": "uint256"
        }
      ],
      "stateMutability": "view",
      "type": "function"
    },
    {
      "inputs": [
        {
          "internalType": "address",
          "name": "spender",
          "type": "address"
        },
        {
          "internalType": "uint256",
          "name": "amount",
          "type": "uint256"
        }
      ],
      "name": "approve",
      "outputs": [
        {
          "internalType": "bool",
          "name": "",
          "type": "bool"
        }
      ],
      "stateMutability": "nonpayable",
      "type": "function"
    },
    {
      "inputs": [
        {
          "internalType": "address",
          "name": "account",
          "type": "address"
        }
      ],
      "name": "balanceOf",
      "outputs": [
        {
          "internalType": "uint256",
          "name": "",
          "type": "uint256"
        }
      ],
      "stateMutability": "view",
      "type": "function"
    },
    {
      "inputs": [],
      "name": "comMarketFundPerc",
      "outputs": [
        {
          "internalType": "uint256",
          "name": "",
          "type": "uint256"
        }
      ],
      "stateMutability": "view",
      "type": "function"
    },
    {
      "inputs": [],
      "name": "decimals",
      "outputs": [
        {
          "internalType": "uint8",
          "name": "",
          "type": "uint8"
        }
      ],
      "stateMutability": "view",
      "type": "function"
    },
    {
      "inputs": [
        {
          "internalType": "address",
          "name": "spender",
          "type": "address"
        },
        {
          "internalType": "uint256",
          "name": "subtractedValue",
          "type": "uint256"
        }
      ],
      "name": "decreaseAllowance",
      "outputs": [
        {
          "internalType": "bool",
          "name": "",
          "type": "bool"
        }
      ],
      "stateMutability": "nonpayable",
      "type": "function"
    },
    {
      "inputs": [],
      "name": "developFundPerc",
      "outputs": [
        {
          "internalType": "uint256",
          "name": "",
          "type": "uint256"
        }
      ],
      "stateMutability": "view",
      "type": "function"
    },
    {
      "inputs": [],
      "name": "developFundPercPremim",
      "outputs": [
        {
          "internalType": "uint256",
          "name": "",
          "type": "uint256"
        }
      ],
      "stateMutability": "view",
      "type": "function"
    },
    {
      "inputs": [
        {
          "internalType": "address",
          "name": "userAddress",
          "type": "address"
        },
        {
          "internalType": "bytes",
          "name": "functionSignature",
          "type": "bytes"
        },
        {
          "internalType": "bytes32",
          "name": "sigR",
          "type": "bytes32"
        },
        {
          "internalType": "bytes32",
          "name": "sigS",
          "type": "bytes32"
        },
        {
          "internalType": "uint8",
          "name": "sigV",
          "type": "uint8"
        }
      ],
      "name": "executeMetaTransaction",
      "outputs": [
        {
          "internalType": "bytes",
          "name": "",
          "type": "bytes"
        }
      ],
      "stateMutability": "payable",
      "type": "function"
    },
    {
      "inputs": [],
      "name": "expertExtraPerc",
      "outputs": [
        {
          "internalType": "uint256",
          "name": "",
          "type": "uint256"
        }
      ],
      "stateMutability": "view",
      "type": "function"
    },
    {
      "inputs": [],
      "name": "expertPerc",
      "outputs": [
        {
          "internalType": "uint256",
          "name": "",
          "type": "uint256"
        }
      ],
      "stateMutability": "view",
      "type": "function"
    },
    {
      "inputs": [],
      "name": "expertPercMint",
      "outputs": [
        {
          "internalType": "uint256",
          "name": "",
          "type": "uint256"
        }
      ],
      "stateMutability": "view",
      "type": "function"
    },
    {
      "inputs": [],
      "name": "expertPremiumPerc",
      "outputs": [
        {
          "internalType": "uint256",
          "name": "",
          "type": "uint256"
        }
      ],
      "stateMutability": "view",
      "type": "function"
    },
    {
      "inputs": [],
      "name": "extraHostPerc",
      "outputs": [
        {
          "internalType": "uint256",
          "name": "",
          "type": "uint256"
        }
      ],
      "stateMutability": "view",
      "type": "function"
    },
    {
      "inputs": [],
      "name": "extraHostPercMint",
      "outputs": [
        {
          "internalType": "uint256",
          "name": "",
          "type": "uint256"
        }
      ],
      "stateMutability": "view",
      "type": "function"
    },
    {
      "inputs": [],
      "name": "firstWithdrawIndex",
      "outputs": [
        {
          "internalType": "uint256",
          "name": "",
          "type": "uint256"
        }
      ],
      "stateMutability": "view",
      "type": "function"
    },
    {
      "inputs": [],
      "name": "getFirstWithdraw",
      "outputs": [
        {
          "internalType": "uint256",
          "name": "",
          "type": "uint256"
        }
      ],
      "stateMutability": "view",
      "type": "function"
    },
    {
      "inputs": [],
      "name": "getGFindex",
      "outputs": [
        {
          "internalType": "uint256",
          "name": "",
          "type": "uint256"
        }
      ],
      "stateMutability": "view",
      "type": "function"
    },
    {
      "inputs": [
        {
          "internalType": "address",
          "name": "user",
          "type": "address"
        }
      ],
      "name": "getNonce",
      "outputs": [
        {
          "internalType": "uint256",
          "name": "nonce",
          "type": "uint256"
        }
      ],
      "stateMutability": "view",
      "type": "function"
    },
    {
      "inputs": [
        {
          "internalType": "bytes32",
          "name": "role",
          "type": "bytes32"
        }
      ],
      "name": "getRoleAdmin",
      "outputs": [
        {
          "internalType": "bytes32",
          "name": "",
          "type": "bytes32"
        }
      ],
      "stateMutability": "view",
      "type": "function"
    },
    {
      "inputs": [
        {
          "internalType": "bytes32",
          "name": "role",
          "type": "bytes32"
        },
        {
          "internalType": "uint256",
          "name": "index",
          "type": "uint256"
        }
      ],
      "name": "getRoleMember",
      "outputs": [
        {
          "internalType": "address",
          "name": "",
          "type": "address"
        }
      ],
      "stateMutability": "view",
      "type": "function"
    },
    {
      "inputs": [
        {
          "internalType": "bytes32",
          "name": "role",
          "type": "bytes32"
        }
      ],
      "name": "getRoleMemberCount",
      "outputs": [
        {
          "internalType": "uint256",
          "name": "",
          "type": "uint256"
        }
      ],
      "stateMutability": "view",
      "type": "function"
    },
    {
      "inputs": [
        {
          "internalType": "bytes32",
          "name": "role",
          "type": "bytes32"
        },
        {
          "internalType": "address",
          "name": "account",
          "type": "address"
        }
      ],
      "name": "grantRole",
      "outputs": [],
      "stateMutability": "nonpayable",
      "type": "function"
    },
    {
      "inputs": [
        {
          "internalType": "bytes32",
          "name": "role",
          "type": "bytes32"
        },
        {
          "internalType": "address",
          "name": "account",
          "type": "address"
        }
      ],
      "name": "hasRole",
      "outputs": [
        {
          "internalType": "bool",
          "name": "",
          "type": "bool"
        }
      ],
      "stateMutability": "view",
      "type": "function"
    },
    {
      "inputs": [],
      "name": "hostPerc",
      "outputs": [
        {
          "internalType": "uint256",
          "name": "",
          "type": "uint256"
        }
      ],
      "stateMutability": "view",
      "type": "function"
    },
    {
      "inputs": [],
      "name": "hostPercMint",
      "outputs": [
        {
          "internalType": "uint256",
          "name": "",
          "type": "uint256"
        }
      ],
      "stateMutability": "view",
      "type": "function"
    },
    {
      "inputs": [
        {
          "internalType": "address",
          "name": "spender",
          "type": "address"
        },
        {
          "internalType": "uint256",
          "name": "addedValue",
          "type": "uint256"
        }
      ],
      "name": "increaseAllowance",
      "outputs": [
        {
          "internalType": "bool",
          "name": "",
          "type": "bool"
        }
      ],
      "stateMutability": "nonpayable",
      "type": "function"
    },
    {
      "inputs": [],
      "name": "moderatorsFundPerc",
      "outputs": [
        {
          "internalType": "uint256",
          "name": "",
          "type": "uint256"
        }
      ],
      "stateMutability": "view",
      "type": "function"
    },
    {
      "inputs": [],
      "name": "name",
      "outputs": [
        {
          "internalType": "string",
          "name": "",
          "type": "string"
        }
      ],
      "stateMutability": "view",
      "type": "function"
    },
    {
      "inputs": [],
      "name": "owner",
      "outputs": [
        {
          "internalType": "address payable",
          "name": "",
          "type": "address"
        }
      ],
      "stateMutability": "view",
      "type": "function"
    },
    {
      "inputs": [],
      "name": "playersPers",
      "outputs": [
        {
          "internalType": "uint256",
          "name": "",
          "type": "uint256"
        }
      ],
      "stateMutability": "view",
      "type": "function"
    },
    {
      "inputs": [],
      "name": "playersPersMint",
      "outputs": [
        {
          "internalType": "uint256",
          "name": "",
          "type": "uint256"
        }
      ],
      "stateMutability": "view",
      "type": "function"
    },
    {
      "inputs": [],
      "name": "playersPersPremiun",
      "outputs": [
        {
          "internalType": "uint256",
          "name": "",
          "type": "uint256"
        }
      ],
      "stateMutability": "view",
      "type": "function"
    },
    {
      "inputs": [
        {
          "internalType": "bytes32",
          "name": "role",
          "type": "bytes32"
        },
        {
          "internalType": "address",
          "name": "account",
          "type": "address"
        }
      ],
      "name": "renounceRole",
      "outputs": [],
      "stateMutability": "nonpayable",
      "type": "function"
    },
    {
      "inputs": [
        {
          "internalType": "bytes32",
          "name": "role",
          "type": "bytes32"
        },
        {
          "internalType": "address",
          "name": "account",
          "type": "address"
        }
      ],
      "name": "revokeRole",
      "outputs": [],
      "stateMutability": "nonpayable",
      "type": "function"
    },
    {
      "inputs": [
        {
          "internalType": "uint256",
          "name": "_developFundPerc",
          "type": "uint256"
        }
      ],
      "name": "setDevelopFundPerc",
      "outputs": [],
      "stateMutability": "nonpayable",
      "type": "function"
    },
    {
      "inputs": [
        {
          "internalType": "uint256",
          "name": "_expertPerc",
          "type": "uint256"
        }
      ],
      "name": "setExpertPerc",
      "outputs": [],
      "stateMutability": "nonpayable",
      "type": "function"
    },
    {
      "inputs": [
        {
          "internalType": "uint256",
          "name": "_firstWithdrawIndex",
          "type": "uint256"
        }
      ],
      "name": "setFirstWithdraw",
      "outputs": [],
      "stateMutability": "nonpayable",
      "type": "function"
    },
    {
      "inputs": [
        {
          "internalType": "uint256",
          "name": "_GFindex",
          "type": "uint256"
        }
      ],
      "name": "setGFindex",
      "outputs": [],
      "stateMutability": "nonpayable",
      "type": "function"
    },
    {
      "inputs": [
        {
          "internalType": "uint256",
          "name": "_GFrewards",
          "type": "uint256"
        }
      ],
      "name": "setGFrewards",
      "outputs": [],
      "stateMutability": "nonpayable",
      "type": "function"
    },
    {
      "inputs": [
        {
          "internalType": "uint256",
          "name": "_hostPercMint",
          "type": "uint256"
        },
        {
          "internalType": "uint256",
          "name": "_hostPerc",
          "type": "uint256"
        }
      ],
      "name": "setHostPerc",
      "outputs": [],
      "stateMutability": "nonpayable",
      "type": "function"
    },
    {
      "inputs": [
        {
          "internalType": "uint256",
          "name": "_playersPersMint",
          "type": "uint256"
        }
      ],
      "name": "setPlayerPersMint",
      "outputs": [],
      "stateMutability": "nonpayable",
      "type": "function"
    },
    {
      "inputs": [
        {
          "internalType": "uint256",
          "name": "_welcomeBTYTokens",
          "type": "uint256"
        }
      ],
      "name": "setWelcomeBTYTokens",
      "outputs": [],
      "stateMutability": "nonpayable",
      "type": "function"
    },
    {
      "inputs": [],
      "name": "symbol",
      "outputs": [
        {
          "internalType": "string",
          "name": "",
          "type": "string"
        }
      ],
      "stateMutability": "view",
      "type": "function"
    },
    {
      "inputs": [],
      "name": "totalSupply",
      "outputs": [
        {
          "internalType": "uint256",
          "name": "",
          "type": "uint256"
        }
      ],
      "stateMutability": "view",
      "type": "function"
    },
    {
      "inputs": [
        {
          "internalType": "address",
          "name": "recipient",
          "type": "address"
        },
        {
          "internalType": "uint256",
          "name": "amount",
          "type": "uint256"
        }
      ],
      "name": "transfer",
      "outputs": [
        {
          "internalType": "bool",
          "name": "",
          "type": "bool"
        }
      ],
      "stateMutability": "nonpayable",
      "type": "function"
    },
    {
      "inputs": [
        {
          "internalType": "address",
          "name": "sender",
          "type": "address"
        },
        {
          "internalType": "address",
          "name": "recipient",
          "type": "address"
        },
        {
          "internalType": "uint256",
          "name": "amount",
          "type": "uint256"
        }
      ],
      "name": "transferFrom",
      "outputs": [
        {
          "internalType": "bool",
          "name": "",
          "type": "bool"
        }
      ],
      "stateMutability": "nonpayable",
      "type": "function"
    },
    {
      "inputs": [],
      "name": "welcomeBTYTokens",
      "outputs": [
        {
          "internalType": "uint256",
          "name": "",
          "type": "uint256"
        }
      ],
      "stateMutability": "view",
      "type": "function"
    },
    {
      "stateMutability": "payable",
      "type": "receive"
    },
    {
      "inputs": [
        {
          "internalType": "address",
          "name": "_publicEvents",
          "type": "address"
        },
        {
          "internalType": "address",
          "name": "_bty",
          "type": "address"
        }
      ],
      "name": "setConfigContract",
      "outputs": [],
      "stateMutability": "nonpayable",
      "type": "function"
    },
    {
      "inputs": [
        {
          "internalType": "address",
          "name": "wallet",
          "type": "address"
        }
      ],
      "name": "mint",
      "outputs": [],
      "stateMutability": "nonpayable",
      "type": "function"
    },
    {
      "inputs": [
        {
          "internalType": "address",
          "name": "wallet",
          "type": "address"
        },
        {
          "internalType": "uint256",
          "name": "amount",
          "type": "uint256"
        }
      ],
      "name": "mintFromPublicContract",
      "outputs": [
        {
          "internalType": "bool",
          "name": "",
          "type": "bool"
        }
      ],
      "stateMutability": "nonpayable",
      "type": "function"
    },
    {
      "inputs": [
        {
          "internalType": "address",
          "name": "wallet",
          "type": "address"
        },
        {
          "internalType": "uint256",
          "name": "amount",
          "type": "uint256"
        }
      ],
      "name": "burn",
      "outputs": [],
      "stateMutability": "nonpayable",
      "type": "function"
    }
  ],
  "bytecode": "0x6080604052600a6009556004600a556001600b556001600c55600a600d556004600e556002600f55600f601055600260115560016012556032601355605a601455604b601555600a60165568056bc75e2d631000006017556064601855678ac7230489e80000601955600a601b55600a601c556005601d556002601e553480156200008957600080fd5b50604051620042773803806200427783398181016040526060811015620000af57600080fd5b8101908080516040519392919084640100000000821115620000d057600080fd5b83820191506020820185811115620000e757600080fd5b82518660018202830111640100000000821117156200010557600080fd5b8083526020830192505050908051906020019080838360005b838110156200013b5780820151818401526020810190506200011e565b50505050905090810190601f168015620001695780820380516001836020036101000a031916815260200191505b50604052602001805160405193929190846401000000008211156200018d57600080fd5b83820191506020820185811115620001a457600080fd5b8251866001820283011164010000000082111715620001c257600080fd5b8083526020830192505050908051906020019080838360005b83811015620001f8578082015181840152602081019050620001db565b50505050905090810190601f168015620002265780820380516001836020036101000a031916815260200191505b506040526020018051906020019092919050505082826040518060400160405280600981526020017f4245545f746f6b656e00000000000000000000000000000000000000000000008152506040518060400160405280600181526020017f31000000000000000000000000000000000000000000000000000000000000008152506005828282828282604051806080016040528060528152602001620042256052913980519060200120838051906020012083805190602001208330604051602001808681526020018581526020018481526020018381526020018273ffffffffffffffffffffffffffffffffffffffff168152602001955050505050506040516020818303038152906040528051906020012060018190555050505050505050505081600690805190602001906200036292919062000413565b5080600790805190602001906200037b92919062000413565b506012600860006101000a81548160ff021916908360ff160217905550505033601a60006101000a81548173ffffffffffffffffffffffffffffffffffffffff021916908373ffffffffffffffffffffffffffffffffffffffff160217905550620003ec81620003f560201b60201c565b505050620004c9565b80600860006101000a81548160ff021916908360ff16021790555050565b828054600181600116156101000203166002900490600052602060002090601f0160209004810192826200044b576000855562000497565b82601f106200046657805160ff191683800117855562000497565b8280016001018555821562000497579182015b828111156200049657825182559160200191906001019062000479565b5b509050620004a69190620004aa565b5090565b5b80821115620004c5576000816000905550600101620004ab565b5090565b613d4c80620004d96000396000f3fe60806040526004361061037a5760003560e01c80638fc8bc42116101d1578063c12c8c4611610102578063dd3c2283116100a0578063e1dcc4091161006f578063e1dcc4091461136e578063ef99e09914611399578063f7ec5851146113c4578063fda9a211146113ef57610381565b8063dd3c228314611258578063dd62ed3e14611293578063df18581714611318578063e1755c6a1461134357610381565b8063d547741f116100dc578063d547741f1461116c578063d70b4bb6146111c7578063d7a86da7146111f2578063dba8fe871461122d57610381565b8063c12c8c46146110b7578063c369085e146110e2578063ca15c8731461111d57610381565b8063a03c66971161016f578063a9059cbb11610149578063a9059cbb14610fab578063af9ace451461101c578063b1642b5014611047578063b44901e81461108c57610381565b8063a03c669714610ed4578063a217fddf14610f0f578063a457c2d714610f3a57610381565b80639336e8fd116101ab5780639336e8fd14610d735780639580de6714610dae57806395d89b4114610de95780639dc29fac14610e7957610381565b80638fc8bc4214610c685780639010d07c14610c9357806391d1485414610d0257610381565b80632e63e452116102ab5780636a62784211610249578063786508c511610223578063786508c514610ba6578063896aa7a414610bd15780638a9dbda714610bfc5780638da5cb5b14610c2757610381565b80636a62784214610ac557806370a0823114610b1657806373e258ac14610b7b57610381565b8063341ce1fc11610285578063341ce1fc1461095d57806336568abe146109ce5780633950935114610a2957806355e8415814610a9a57610381565b80632e63e452146108a95780632f2ff15d146108d4578063313ce5671461092f57610381565b80631c4083571161031857806324beedd3116102f257806324beedd3146107c357806327e53717146107ee5780632c316d05146108195780632d0335ab1461084457610381565b80631c408357146106b857806323b872dd146106e3578063248a9ca31461077457610381565b8063134c3b0711610354578063134c3b07146105fc57806315cfe4191461062757806318160ddd1461065257806319d6b7d81461067d57610381565b806306fdde0314610386578063095ea7b3146104165780630c53c51c1461048757610381565b3661038157005b600080fd5b34801561039257600080fd5b5061039b611460565b6040518080602001828103825283818151815260200191508051906020019080838360005b838110156103db5780820151818401526020810190506103c0565b50505050905090810190601f1680156104085780820380516001836020036101000a031916815260200191505b509250505060405180910390f35b34801561042257600080fd5b5061046f6004803603604081101561043957600080fd5b81019080803573ffffffffffffffffffffffffffffffffffffffff16906020019092919080359060200190929190505050611502565b60405180821515815260200191505060405180910390f35b610581600480360360a081101561049d57600080fd5b81019080803573ffffffffffffffffffffffffffffffffffffffff169060200190929190803590602001906401000000008111156104da57600080fd5b8201836020820111156104ec57600080fd5b8035906020019184600183028401116401000000008311171561050e57600080fd5b91908080601f016020809104026020016040519081016040528093929190818152602001838380828437600081840152601f19601f8201169050808301925050505050505091929192908035906020019092919080359060200190929190803560ff169060200190929190505050611520565b6040518080602001828103825283818151815260200191508051906020019080838360005b838110156105c15780820151818401526020810190506105a6565b50505050905090810190601f1680156105ee5780820380516001836020036101000a031916815260200191505b509250505060405180910390f35b34801561060857600080fd5b5061061161192d565b6040518082815260200191505060405180910390f35b34801561063357600080fd5b5061063c611933565b6040518082815260200191505060405180910390f35b34801561065e57600080fd5b50610667611939565b6040518082815260200191505060405180910390f35b34801561068957600080fd5b506106b6600480360360208110156106a057600080fd5b8101908080359060200190929190505050611943565b005b3480156106c457600080fd5b506106cd6119f3565b6040518082815260200191505060405180910390f35b3480156106ef57600080fd5b5061075c6004803603606081101561070657600080fd5b81019080803573ffffffffffffffffffffffffffffffffffffffff169060200190929190803573ffffffffffffffffffffffffffffffffffffffff169060200190929190803590602001909291905050506119f9565b60405180821515815260200191505060405180910390f35b34801561078057600080fd5b506107ad6004803603602081101561079757600080fd5b8101908080359060200190929190505050611ad2565b6040518082815260200191505060405180910390f35b3480156107cf57600080fd5b506107d8611af1565b6040518082815260200191505060405180910390f35b3480156107fa57600080fd5b50610803611af7565b6040518082815260200191505060405180910390f35b34801561082557600080fd5b5061082e611afd565b6040518082815260200191505060405180910390f35b34801561085057600080fd5b506108936004803603602081101561086757600080fd5b81019080803573ffffffffffffffffffffffffffffffffffffffff169060200190929190505050611b03565b6040518082815260200191505060405180910390f35b3480156108b557600080fd5b506108be611b4c565b6040518082815260200191505060405180910390f35b3480156108e057600080fd5b5061092d600480360360408110156108f757600080fd5b8101908080359060200190929190803573ffffffffffffffffffffffffffffffffffffffff169060200190929190505050611b52565b005b34801561093b57600080fd5b50610944611bdb565b604051808260ff16815260200191505060405180910390f35b34801561096957600080fd5b506109b66004803603604081101561098057600080fd5b81019080803573ffffffffffffffffffffffffffffffffffffffff16906020019092919080359060200190929190505050611bf2565b60405180821515815260200191505060405180910390f35b3480156109da57600080fd5b50610a27600480360360408110156109f157600080fd5b8101908080359060200190929190803573ffffffffffffffffffffffffffffffffffffffff169060200190929190505050611ccb565b005b348015610a3557600080fd5b50610a8260048036036040811015610a4c57600080fd5b81019080803573ffffffffffffffffffffffffffffffffffffffff16906020019092919080359060200190929190505050611d64565b60405180821515815260200191505060405180910390f35b348015610aa657600080fd5b50610aaf611e17565b6040518082815260200191505060405180910390f35b348015610ad157600080fd5b50610b1460048036036020811015610ae857600080fd5b81019080803573ffffffffffffffffffffffffffffffffffffffff169060200190929190505050611e1d565b005b348015610b2257600080fd5b50610b6560048036036020811015610b3957600080fd5b81019080803573ffffffffffffffffffffffffffffffffffffffff169060200190929190505050611f50565b6040518082815260200191505060405180910390f35b348015610b8757600080fd5b50610b90611f99565b6040518082815260200191505060405180910390f35b348015610bb257600080fd5b50610bbb611f9f565b6040518082815260200191505060405180910390f35b348015610bdd57600080fd5b50610be6611fa5565b6040518082815260200191505060405180910390f35b348015610c0857600080fd5b50610c11611fab565b6040518082815260200191505060405180910390f35b348015610c3357600080fd5b50610c3c611fb1565b604051808273ffffffffffffffffffffffffffffffffffffffff16815260200191505060405180910390f35b348015610c7457600080fd5b50610c7d611fd7565b6040518082815260200191505060405180910390f35b348015610c9f57600080fd5b50610cd660048036036040811015610cb657600080fd5b810190808035906020019092919080359060200190929190505050611fdd565b604051808273ffffffffffffffffffffffffffffffffffffffff16815260200191505060405180910390f35b348015610d0e57600080fd5b50610d5b60048036036040811015610d2557600080fd5b8101908080359060200190929190803573ffffffffffffffffffffffffffffffffffffffff16906020019092919050505061200e565b60405180821515815260200191505060405180910390f35b348015610d7f57600080fd5b50610dac60048036036020811015610d9657600080fd5b810190808035906020019092919050505061203f565b005b348015610dba57600080fd5b50610de760048036036020811015610dd157600080fd5b81019080803590602001909291905050506120ef565b005b348015610df557600080fd5b50610dfe61219f565b6040518080602001828103825283818151815260200191508051906020019080838360005b83811015610e3e578082015181840152602081019050610e23565b50505050905090810190601f168015610e6b5780820380516001836020036101000a031916815260200191505b509250505060405180910390f35b348015610e8557600080fd5b50610ed260048036036040811015610e9c57600080fd5b81019080803573ffffffffffffffffffffffffffffffffffffffff16906020019092919080359060200190929190505050612241565b005b348015610ee057600080fd5b50610f0d60048036036020811015610ef757600080fd5b8101908080359060200190929190505050612312565b005b348015610f1b57600080fd5b50610f246123c2565b6040518082815260200191505060405180910390f35b348015610f4657600080fd5b50610f9360048036036040811015610f5d57600080fd5b81019080803573ffffffffffffffffffffffffffffffffffffffff169060200190929190803590602001909291905050506123c9565b60405180821515815260200191505060405180910390f35b348015610fb757600080fd5b5061100460048036036040811015610fce57600080fd5b81019080803573ffffffffffffffffffffffffffffffffffffffff16906020019092919080359060200190929190505050612496565b60405180821515815260200191505060405180910390f35b34801561102857600080fd5b506110316124b4565b6040518082815260200191505060405180910390f35b34801561105357600080fd5b5061108a6004803603604081101561106a57600080fd5b8101908080359060200190929190803590602001909291905050506124ba565b005b34801561109857600080fd5b506110a1612572565b6040518082815260200191505060405180910390f35b3480156110c357600080fd5b506110cc612578565b6040518082815260200191505060405180910390f35b3480156110ee57600080fd5b5061111b6004803603602081101561110557600080fd5b810190808035906020019092919050505061257e565b005b34801561112957600080fd5b506111566004803603602081101561114057600080fd5b810190808035906020019092919050505061262e565b6040518082815260200191505060405180910390f35b34801561117857600080fd5b506111c56004803603604081101561118f57600080fd5b8101908080359060200190929190803573ffffffffffffffffffffffffffffffffffffffff169060200190929190505050612654565b005b3480156111d357600080fd5b506111dc6126dd565b6040518082815260200191505060405180910390f35b3480156111fe57600080fd5b5061122b6004803603602081101561121557600080fd5b810190808035906020019092919050505061278d565b005b34801561123957600080fd5b5061124261283d565b6040518082815260200191505060405180910390f35b34801561126457600080fd5b506112916004803603602081101561127b57600080fd5b8101908080359060200190929190505050612843565b005b34801561129f57600080fd5b50611302600480360360408110156112b657600080fd5b81019080803573ffffffffffffffffffffffffffffffffffffffff169060200190929190803573ffffffffffffffffffffffffffffffffffffffff1690602001909291905050506128f3565b6040518082815260200191505060405180910390f35b34801561132457600080fd5b5061132d61297a565b6040518082815260200191505060405180910390f35b34801561134f57600080fd5b50611358612980565b6040518082815260200191505060405180910390f35b34801561137a57600080fd5b50611383612986565b6040518082815260200191505060405180910390f35b3480156113a557600080fd5b506113ae61298c565b6040518082815260200191505060405180910390f35b3480156113d057600080fd5b506113d961299a565b6040518082815260200191505060405180910390f35b3480156113fb57600080fd5b5061145e6004803603604081101561141257600080fd5b81019080803573ffffffffffffffffffffffffffffffffffffffff169060200190929190803573ffffffffffffffffffffffffffffffffffffffff1690602001909291905050506129a0565b005b606060068054600181600116156101000203166002900480601f0160208091040260200160405190810160405280929190818152602001828054600181600116156101000203166002900480156114f85780601f106114cd576101008083540402835291602001916114f8565b820191906000526020600020905b8154815290600101906020018083116114db57829003601f168201915b5050505050905090565b600061151661150f612acc565b8484612ad4565b6001905092915050565b606060006040518060600160405280600260008a73ffffffffffffffffffffffffffffffffffffffff1673ffffffffffffffffffffffffffffffffffffffff1681526020019081526020016000205481526020018873ffffffffffffffffffffffffffffffffffffffff1681526020018781525090506115a38782878787612ccb565b6115f8576040517f08c379a0000000000000000000000000000000000000000000000000000000008152600401808060200182810382526021815260200180613c076021913960400191505060405180910390fd5b61164b6001600260008a73ffffffffffffffffffffffffffffffffffffffff1673ffffffffffffffffffffffffffffffffffffffff16815260200190815260200160002054612d7a90919063ffffffff16565b600260008973ffffffffffffffffffffffffffffffffffffffff1673ffffffffffffffffffffffffffffffffffffffff168152602001908152602001600020819055507f5845892132946850460bff5a0083f71031bc5bf9aadcd40f1de79423eac9b10b873388604051808473ffffffffffffffffffffffffffffffffffffffff1681526020018373ffffffffffffffffffffffffffffffffffffffff16815260200180602001828103825283818151815260200191508051906020019080838360005b8381101561172a57808201518184015260208101905061170f565b50505050905090810190601f1680156117575780820380516001836020036101000a031916815260200191505b5094505050505060405180910390a16000803073ffffffffffffffffffffffffffffffffffffffff16888a6040516020018083805190602001908083835b602083106117b85780518252602082019150602081019050602083039250611795565b6001836020036101000a0380198251168184511680821785525050505050509050018273ffffffffffffffffffffffffffffffffffffffff1660601b8152601401925050506040516020818303038152906040526040518082805190602001908083835b6020831061183f578051825260208201915060208101905060208303925061181c565b6001836020036101000a0380198251168184511680821785525050505050509050019150506000604051808303816000865af19150503d80600081146118a1576040519150601f19603f3d011682016040523d82523d6000602084013e6118a6565b606091505b50915091508161191e576040517f08c379a000000000000000000000000000000000000000000000000000000000815260040180806020018281038252601c8152602001807f46756e6374696f6e2063616c6c206e6f74207375636365737366756c0000000081525060200191505060405180910390fd5b80935050505095945050505050565b60155481565b60185481565b6000600554905090565b601a60009054906101000a900473ffffffffffffffffffffffffffffffffffffffff1673ffffffffffffffffffffffffffffffffffffffff163373ffffffffffffffffffffffffffffffffffffffff16146119e9576040517f08c379a0000000000000000000000000000000000000000000000000000000008152600401808060200182810382526031815260200180613cb76031913960400191505060405180910390fd5b8060198190555050565b601b5481565b6000611a06848484612e02565b611ac784611a12612acc565b611ac285604051806060016040528060288152602001613bdf60289139600460008b73ffffffffffffffffffffffffffffffffffffffff1673ffffffffffffffffffffffffffffffffffffffff1681526020019081526020016000206000611a78612acc565b73ffffffffffffffffffffffffffffffffffffffff1673ffffffffffffffffffffffffffffffffffffffff168152602001908152602001600020546130c79092919063ffffffff16565b612ad4565b600190509392505050565b6000806000838152602001908152602001600020600201549050919050565b601e5481565b60145481565b600f5481565b6000600260008373ffffffffffffffffffffffffffffffffffffffff1673ffffffffffffffffffffffffffffffffffffffff168152602001908152602001600020549050919050565b60195481565b611b7860008084815260200190815260200160002060020154611b73612acc565b61200e565b611bcd576040517f08c379a000000000000000000000000000000000000000000000000000000000815260040180806020018281038252602f815260200180613ad3602f913960400191505060405180910390fd5b611bd78282613181565b5050565b6000600860009054906101000a900460ff16905090565b6000601f60009054906101000a900473ffffffffffffffffffffffffffffffffffffffff1673ffffffffffffffffffffffffffffffffffffffff163373ffffffffffffffffffffffffffffffffffffffff1614611cb7576040517f08c379a00000000000000000000000000000000000000000000000000000000081526004018080602001828103825260148152602001807f6f6e6c79207075626c696320636f6e747261637400000000000000000000000081525060200191505060405180910390fd5b611cc18383613214565b6001905092915050565b611cd3612acc565b73ffffffffffffffffffffffffffffffffffffffff168173ffffffffffffffffffffffffffffffffffffffff1614611d56576040517f08c379a000000000000000000000000000000000000000000000000000000000815260040180806020018281038252602f815260200180613ce8602f913960400191505060405180910390fd5b611d6082826133dd565b5050565b6000611e0d611d71612acc565b84611e088560046000611d82612acc565b73ffffffffffffffffffffffffffffffffffffffff1673ffffffffffffffffffffffffffffffffffffffff16815260200190815260200160002060008973ffffffffffffffffffffffffffffffffffffffff1673ffffffffffffffffffffffffffffffffffffffff16815260200190815260200160002054612d7a90919063ffffffff16565b612ad4565b6001905092915050565b600c5481565b601a60009054906101000a900473ffffffffffffffffffffffffffffffffffffffff1673ffffffffffffffffffffffffffffffffffffffff163373ffffffffffffffffffffffffffffffffffffffff1614611ec3576040517f08c379a0000000000000000000000000000000000000000000000000000000008152600401808060200182810382526031815260200180613cb76031913960400191505060405180910390fd5b6000611ece82611f50565b14611f41576040517f08c379a000000000000000000000000000000000000000000000000000000000815260040180806020018281038252601a8152602001807f557365722068617320746f6b656e73206f6e2062616c616e636500000000000081525060200191505060405180910390fd5b611f4d81601954613214565b50565b6000600360008373ffffffffffffffffffffffffffffffffffffffff1673ffffffffffffffffffffffffffffffffffffffff168152602001908152602001600020549050919050565b60135481565b60125481565b600e5481565b60095481565b601a60009054906101000a900473ffffffffffffffffffffffffffffffffffffffff1681565b600a5481565b60006120068260008086815260200190815260200160002060000161347090919063ffffffff16565b905092915050565b60006120378260008086815260200190815260200160002060000161348a90919063ffffffff16565b905092915050565b601a60009054906101000a900473ffffffffffffffffffffffffffffffffffffffff1673ffffffffffffffffffffffffffffffffffffffff163373ffffffffffffffffffffffffffffffffffffffff16146120e5576040517f08c379a0000000000000000000000000000000000000000000000000000000008152600401808060200182810382526031815260200180613cb76031913960400191505060405180910390fd5b8060138190555050565b601a60009054906101000a900473ffffffffffffffffffffffffffffffffffffffff1673ffffffffffffffffffffffffffffffffffffffff163373ffffffffffffffffffffffffffffffffffffffff1614612195576040517f08c379a0000000000000000000000000000000000000000000000000000000008152600401808060200182810382526031815260200180613cb76031913960400191505060405180910390fd5b80600e8190555050565b606060078054600181600116156101000203166002900480601f0160208091040260200160405190810160405280929190818152602001828054600181600116156101000203166002900480156122375780601f1061220c57610100808354040283529160200191612237565b820191906000526020600020905b81548152906001019060200180831161221a57829003601f168201915b5050505050905090565b602060009054906101000a900473ffffffffffffffffffffffffffffffffffffffff1673ffffffffffffffffffffffffffffffffffffffff163373ffffffffffffffffffffffffffffffffffffffff1614612304576040517f08c379a00000000000000000000000000000000000000000000000000000000081526004018080602001828103825260108152602001807f4254592063616e206275726e204245540000000000000000000000000000000081525060200191505060405180910390fd5b61230e82826134ba565b5050565b601a60009054906101000a900473ffffffffffffffffffffffffffffffffffffffff1673ffffffffffffffffffffffffffffffffffffffff163373ffffffffffffffffffffffffffffffffffffffff16146123b8576040517f08c379a0000000000000000000000000000000000000000000000000000000008152600401808060200182810382526031815260200180613cb76031913960400191505060405180910390fd5b8060168190555050565b6000801b81565b600061248c6123d6612acc565b8461248785604051806060016040528060258152602001613c926025913960046000612400612acc565b73ffffffffffffffffffffffffffffffffffffffff1673ffffffffffffffffffffffffffffffffffffffff16815260200190815260200160002060008a73ffffffffffffffffffffffffffffffffffffffff1673ffffffffffffffffffffffffffffffffffffffff168152602001908152602001600020546130c79092919063ffffffff16565b612ad4565b6001905092915050565b60006124aa6124a3612acc565b8484612e02565b6001905092915050565b600d5481565b601a60009054906101000a900473ffffffffffffffffffffffffffffffffffffffff1673ffffffffffffffffffffffffffffffffffffffff163373ffffffffffffffffffffffffffffffffffffffff1614612560576040517f08c379a0000000000000000000000000000000000000000000000000000000008152600401808060200182810382526031815260200180613cb76031913960400191505060405180910390fd5b8160098190555080600a819055505050565b60165481565b600b5481565b601a60009054906101000a900473ffffffffffffffffffffffffffffffffffffffff1673ffffffffffffffffffffffffffffffffffffffff163373ffffffffffffffffffffffffffffffffffffffff1614612624576040517f08c379a0000000000000000000000000000000000000000000000000000000008152600401808060200182810382526031815260200180613cb76031913960400191505060405180910390fd5b8060188190555050565b600061264d600080848152602001908152602001600020600001613680565b9050919050565b61267a60008084815260200190815260200160002060020154612675612acc565b61200e565b6126cf576040517f08c379a0000000000000000000000000000000000000000000000000000000008152600401808060200182810382526030815260200180613baf6030913960400191505060405180910390fd5b6126d982826133dd565b5050565b6000601a60009054906101000a900473ffffffffffffffffffffffffffffffffffffffff1673ffffffffffffffffffffffffffffffffffffffff163373ffffffffffffffffffffffffffffffffffffffff1614612785576040517f08c379a0000000000000000000000000000000000000000000000000000000008152600401808060200182810382526031815260200180613cb76031913960400191505060405180910390fd5b601854905090565b601a60009054906101000a900473ffffffffffffffffffffffffffffffffffffffff1673ffffffffffffffffffffffffffffffffffffffff163373ffffffffffffffffffffffffffffffffffffffff1614612833576040517f08c379a0000000000000000000000000000000000000000000000000000000008152600401808060200182810382526031815260200180613cb76031913960400191505060405180910390fd5b8060178190555050565b60105481565b601a60009054906101000a900473ffffffffffffffffffffffffffffffffffffffff1673ffffffffffffffffffffffffffffffffffffffff163373ffffffffffffffffffffffffffffffffffffffff16146128e9576040517f08c379a0000000000000000000000000000000000000000000000000000000008152600401808060200182810382526031815260200180613cb76031913960400191505060405180910390fd5b80601b8190555050565b6000600460008473ffffffffffffffffffffffffffffffffffffffff1673ffffffffffffffffffffffffffffffffffffffff16815260200190815260200160002060008373ffffffffffffffffffffffffffffffffffffffff1673ffffffffffffffffffffffffffffffffffffffff16815260200190815260200160002054905092915050565b60175481565b601d5481565b601c5481565b600060165460195402905090565b60115481565b601a60009054906101000a900473ffffffffffffffffffffffffffffffffffffffff1673ffffffffffffffffffffffffffffffffffffffff163373ffffffffffffffffffffffffffffffffffffffff1614612a46576040517f08c379a0000000000000000000000000000000000000000000000000000000008152600401808060200182810382526031815260200180613cb76031913960400191505060405180910390fd5b81601f60006101000a81548173ffffffffffffffffffffffffffffffffffffffff021916908373ffffffffffffffffffffffffffffffffffffffff16021790555080602060006101000a81548173ffffffffffffffffffffffffffffffffffffffff021916908373ffffffffffffffffffffffffffffffffffffffff1602179055505050565b600033905090565b600073ffffffffffffffffffffffffffffffffffffffff168373ffffffffffffffffffffffffffffffffffffffff161415612b5a576040517f08c379a0000000000000000000000000000000000000000000000000000000008152600401808060200182810382526024815260200180613c6e6024913960400191505060405180910390fd5b600073ffffffffffffffffffffffffffffffffffffffff168273ffffffffffffffffffffffffffffffffffffffff161415612be0576040517f08c379a0000000000000000000000000000000000000000000000000000000008152600401808060200182810382526022815260200180613b676022913960400191505060405180910390fd5b80600460008573ffffffffffffffffffffffffffffffffffffffff1673ffffffffffffffffffffffffffffffffffffffff16815260200190815260200160002060008473ffffffffffffffffffffffffffffffffffffffff1673ffffffffffffffffffffffffffffffffffffffff168152602001908152602001600020819055508173ffffffffffffffffffffffffffffffffffffffff168373ffffffffffffffffffffffffffffffffffffffff167f8c5be1e5ebec7d5bd14f71427d1e84f3dd0314c0f7b2291e5b200ac8c7c3b925836040518082815260200191505060405180910390a3505050565b60006001612ce0612cdb87613695565b613725565b83868660405160008152602001604052604051808581526020018460ff1681526020018381526020018281526020019450505050506020604051602081039080840390855afa158015612d37573d6000803e3d6000fd5b5050506020604051035173ffffffffffffffffffffffffffffffffffffffff168673ffffffffffffffffffffffffffffffffffffffff1614905095945050505050565b600080828401905083811015612df8576040517f08c379a000000000000000000000000000000000000000000000000000000000815260040180806020018281038252601b8152602001807f536166654d6174683a206164646974696f6e206f766572666c6f77000000000081525060200191505060405180910390fd5b8091505092915050565b600073ffffffffffffffffffffffffffffffffffffffff168373ffffffffffffffffffffffffffffffffffffffff161415612e88576040517f08c379a0000000000000000000000000000000000000000000000000000000008152600401808060200182810382526025815260200180613c496025913960400191505060405180910390fd5b600073ffffffffffffffffffffffffffffffffffffffff168273ffffffffffffffffffffffffffffffffffffffff161415612f0e576040517f08c379a0000000000000000000000000000000000000000000000000000000008152600401808060200182810382526023815260200180613ab06023913960400191505060405180910390fd5b612f1983838361378c565b612f8581604051806060016040528060268152602001613b8960269139600360008773ffffffffffffffffffffffffffffffffffffffff1673ffffffffffffffffffffffffffffffffffffffff168152602001908152602001600020546130c79092919063ffffffff16565b600360008573ffffffffffffffffffffffffffffffffffffffff1673ffffffffffffffffffffffffffffffffffffffff1681526020019081526020016000208190555061301a81600360008573ffffffffffffffffffffffffffffffffffffffff1673ffffffffffffffffffffffffffffffffffffffff16815260200190815260200160002054612d7a90919063ffffffff16565b600360008473ffffffffffffffffffffffffffffffffffffffff1673ffffffffffffffffffffffffffffffffffffffff168152602001908152602001600020819055508173ffffffffffffffffffffffffffffffffffffffff168373ffffffffffffffffffffffffffffffffffffffff167fddf252ad1be2c89b69c2b068fc378daa952ba7f163c4a11628f55a4df523b3ef836040518082815260200191505060405180910390a3505050565b6000838311158290613174576040517f08c379a00000000000000000000000000000000000000000000000000000000081526004018080602001828103825283818151815260200191508051906020019080838360005b8381101561313957808201518184015260208101905061311e565b50505050905090810190601f1680156131665780820380516001836020036101000a031916815260200191505b509250505060405180910390fd5b5082840390509392505050565b6131a88160008085815260200190815260200160002060000161379190919063ffffffff16565b15613210576131b5612acc565b73ffffffffffffffffffffffffffffffffffffffff168173ffffffffffffffffffffffffffffffffffffffff16837f2f8788117e7eff1d82e926ec794901d17c78024a50270940304540a733656f0d60405160405180910390a45b5050565b600073ffffffffffffffffffffffffffffffffffffffff168273ffffffffffffffffffffffffffffffffffffffff1614156132b7576040517f08c379a000000000000000000000000000000000000000000000000000000000815260040180806020018281038252601f8152602001807f45524332303a206d696e7420746f20746865207a65726f20616464726573730081525060200191505060405180910390fd5b6132c36000838361378c565b6132d881600554612d7a90919063ffffffff16565b60058190555061333081600360008573ffffffffffffffffffffffffffffffffffffffff1673ffffffffffffffffffffffffffffffffffffffff16815260200190815260200160002054612d7a90919063ffffffff16565b600360008473ffffffffffffffffffffffffffffffffffffffff1673ffffffffffffffffffffffffffffffffffffffff168152602001908152602001600020819055508173ffffffffffffffffffffffffffffffffffffffff16600073ffffffffffffffffffffffffffffffffffffffff167fddf252ad1be2c89b69c2b068fc378daa952ba7f163c4a11628f55a4df523b3ef836040518082815260200191505060405180910390a35050565b613404816000808581526020019081526020016000206000016137c190919063ffffffff16565b1561346c57613411612acc565b73ffffffffffffffffffffffffffffffffffffffff168173ffffffffffffffffffffffffffffffffffffffff16837ff6391f5c32d9c69d2a47ea670b442974b53935d1edc7fd64eb21e047a839171b60405160405180910390a45b5050565b600061347f83600001836137f1565b60001c905092915050565b60006134b2836000018373ffffffffffffffffffffffffffffffffffffffff1660001b613874565b905092915050565b600073ffffffffffffffffffffffffffffffffffffffff168273ffffffffffffffffffffffffffffffffffffffff161415613540576040517f08c379a0000000000000000000000000000000000000000000000000000000008152600401808060200182810382526021815260200180613c286021913960400191505060405180910390fd5b61354c8260008361378c565b6135b881604051806060016040528060228152602001613b0260229139600360008673ffffffffffffffffffffffffffffffffffffffff1673ffffffffffffffffffffffffffffffffffffffff168152602001908152602001600020546130c79092919063ffffffff16565b600360008473ffffffffffffffffffffffffffffffffffffffff1673ffffffffffffffffffffffffffffffffffffffff168152602001908152602001600020819055506136108160055461389790919063ffffffff16565b600581905550600073ffffffffffffffffffffffffffffffffffffffff168273ffffffffffffffffffffffffffffffffffffffff167fddf252ad1be2c89b69c2b068fc378daa952ba7f163c4a11628f55a4df523b3ef836040518082815260200191505060405180910390a35050565b600061368e8260000161391a565b9050919050565b6000604051806080016040528060438152602001613b24604391398051906020012082600001518360200151846040015180519060200120604051602001808581526020018481526020018373ffffffffffffffffffffffffffffffffffffffff168152602001828152602001945050505050604051602081830303815290604052805190602001209050919050565b600061372f61392b565b8260405160200180807f190100000000000000000000000000000000000000000000000000000000000081525060020183815260200182815260200192505050604051602081830303815290604052805190602001209050919050565b505050565b60006137b9836000018373ffffffffffffffffffffffffffffffffffffffff1660001b613935565b905092915050565b60006137e9836000018373ffffffffffffffffffffffffffffffffffffffff1660001b6139a5565b905092915050565b600081836000018054905011613852576040517f08c379a0000000000000000000000000000000000000000000000000000000008152600401808060200182810382526022815260200180613a8e6022913960400191505060405180910390fd5b82600001828154811061386157fe5b9060005260206000200154905092915050565b600080836001016000848152602001908152602001600020541415905092915050565b60008282111561390f576040517f08c379a000000000000000000000000000000000000000000000000000000000815260040180806020018281038252601e8152602001807f536166654d6174683a207375627472616374696f6e206f766572666c6f77000081525060200191505060405180910390fd5b818303905092915050565b600081600001805490509050919050565b6000600154905090565b60006139418383613874565b61399a57826000018290806001815401808255809150506001900390600052602060002001600090919091909150558260000180549050836001016000848152602001908152602001600020819055506001905061399f565b600090505b92915050565b60008083600101600084815260200190815260200160002054905060008114613a8157600060018203905060006001866000018054905003905060008660000182815481106139f057fe5b9060005260206000200154905080876000018481548110613a0d57fe5b9060005260206000200181905550600183018760010160008381526020019081526020016000208190555086600001805480613a4557fe5b60019003818190600052602060002001600090559055866001016000878152602001908152602001600020600090556001945050505050613a87565b60009150505b9291505056fe456e756d657261626c655365743a20696e646578206f7574206f6620626f756e647345524332303a207472616e7366657220746f20746865207a65726f2061646472657373416363657373436f6e74726f6c3a2073656e646572206d75737420626520616e2061646d696e20746f206772616e7445524332303a206275726e20616d6f756e7420657863656564732062616c616e63654d6574615472616e73616374696f6e2875696e74323536206e6f6e63652c616464726573732066726f6d2c62797465732066756e6374696f6e5369676e61747572652945524332303a20617070726f766520746f20746865207a65726f206164647265737345524332303a207472616e7366657220616d6f756e7420657863656564732062616c616e6365416363657373436f6e74726f6c3a2073656e646572206d75737420626520616e2061646d696e20746f207265766f6b6545524332303a207472616e7366657220616d6f756e74206578636565647320616c6c6f77616e63655369676e657220616e64207369676e617475726520646f206e6f74206d6174636845524332303a206275726e2066726f6d20746865207a65726f206164647265737345524332303a207472616e736665722066726f6d20746865207a65726f206164647265737345524332303a20617070726f76652066726f6d20746865207a65726f206164647265737345524332303a2064656372656173656420616c6c6f77616e63652062656c6f77207a65726f546869732066756e6374696f6e20636f756c64206f6e6c7920626520657865637574656420627920746865206f776e6572416363657373436f6e74726f6c3a2063616e206f6e6c792072656e6f756e636520726f6c657320666f722073656c66a264697066735822122026746d31d099193c8eff957a1c195caa0ec3df8021f564d360c73592d49ee30b64736f6c63430007060033454950373132446f6d61696e28737472696e67206e616d652c737472696e672076657273696f6e2c75696e7432353620636861696e49642c6164647265737320766572696679696e67436f6e747261637429",
  "immutableReferences": {},
  "source": "// SPDX-License-Identifier: MIT\npragma solidity >=0.4.22 <0.9.0;\n\nimport {ERC20} from \"@openzeppelin/contracts/token/ERC20/ERC20.sol\";\nimport {MetaTransactLib} from \"../helpers/MetaTransactLib.sol\";\nimport {ConfigVariables} from \"../config/ConfigVariables.sol\";\n\ncontract BET is MetaTransactLib, ERC20, ConfigVariables {\n    address publicContract;\n    address btyContract;\n\n    constructor(\n        string memory _name,\n        string memory _symbol,\n        uint8 _decimals\n    ) ERC20(_name, _symbol) MetaTransactLib(\"BET_token\", \"1\", 5) {\n        _setupDecimals(_decimals);\n    }\n\n    function setConfigContract(address _publicEvents, address _bty) public ownerOnly() {\n        publicContract = _publicEvents;\n        btyContract = _bty;\n    }\n\n    function mint(address wallet) public ownerOnly() {\n        require(balanceOf(wallet) == 0, \"User has tokens on balance\");\n        _mint(wallet, welcomeBTYTokens);\n    }\n\n    function mintFromPublicContract(address wallet, uint256 amount) public returns(bool) {\n        require(\n            msg.sender == publicContract,\n            \"only public contract\"\n        );\n        _mint(wallet, amount);\n        return true;\n    }\n\n    function burn(address wallet, uint256 amount) public {\n        require(msg.sender == btyContract, \"BTY can burn BET\");\n        _burn(wallet, amount);\n    }\n}\n",
  "sourcePath": "/Users/macbook/Documents/freelance/tokenominc/contracts/tokens/BET.sol",
  "compiler": {
    "name": "solc",
    "version": "0.7.6+commit.7338295f.Linux.g++"
  },
  "schemaVersion": "3.3.4",
  "updatedAt": "2021-03-12T09:54:31.238Z",
  "devdoc": {
    "kind": "dev",
    "methods": {
      "allowance(address,address)": {
        "details": "See {IERC20-allowance}."
      },
      "approve(address,uint256)": {
        "details": "See {IERC20-approve}. Requirements: - `spender` cannot be the zero address."
      },
      "balanceOf(address)": {
        "details": "See {IERC20-balanceOf}."
      },
      "decimals()": {
        "details": "Returns the number of decimals used to get its user representation. For example, if `decimals` equals `2`, a balance of `505` tokens should be displayed to a user as `5,05` (`505 / 10 ** 2`). Tokens usually opt for a value of 18, imitating the relationship between Ether and Wei. This is the value {ERC20} uses, unless {_setupDecimals} is called. NOTE: This information is only used for _display_ purposes: it in no way affects any of the arithmetic of the contract, including {IERC20-balanceOf} and {IERC20-transfer}."
      },
      "decreaseAllowance(address,uint256)": {
        "details": "Atomically decreases the allowance granted to `spender` by the caller. This is an alternative to {approve} that can be used as a mitigation for problems described in {IERC20-approve}. Emits an {Approval} event indicating the updated allowance. Requirements: - `spender` cannot be the zero address. - `spender` must have allowance for the caller of at least `subtractedValue`."
      },
      "getRoleAdmin(bytes32)": {
        "details": "Returns the admin role that controls `role`. See {grantRole} and {revokeRole}. To change a role's admin, use {_setRoleAdmin}."
      },
      "getRoleMember(bytes32,uint256)": {
        "details": "Returns one of the accounts that have `role`. `index` must be a value between 0 and {getRoleMemberCount}, non-inclusive. Role bearers are not sorted in any particular way, and their ordering may change at any point. WARNING: When using {getRoleMember} and {getRoleMemberCount}, make sure you perform all queries on the same block. See the following https://forum.openzeppelin.com/t/iterating-over-elements-on-enumerableset-in-openzeppelin-contracts/2296[forum post] for more information."
      },
      "getRoleMemberCount(bytes32)": {
        "details": "Returns the number of accounts that have `role`. Can be used together with {getRoleMember} to enumerate all bearers of a role."
      },
      "grantRole(bytes32,address)": {
        "details": "Grants `role` to `account`. If `account` had not been already granted `role`, emits a {RoleGranted} event. Requirements: - the caller must have ``role``'s admin role."
      },
      "hasRole(bytes32,address)": {
        "details": "Returns `true` if `account` has been granted `role`."
      },
      "increaseAllowance(address,uint256)": {
        "details": "Atomically increases the allowance granted to `spender` by the caller. This is an alternative to {approve} that can be used as a mitigation for problems described in {IERC20-approve}. Emits an {Approval} event indicating the updated allowance. Requirements: - `spender` cannot be the zero address."
      },
      "name()": {
        "details": "Returns the name of the token."
      },
      "renounceRole(bytes32,address)": {
        "details": "Revokes `role` from the calling account. Roles are often managed via {grantRole} and {revokeRole}: this function's purpose is to provide a mechanism for accounts to lose their privileges if they are compromised (such as when a trusted device is misplaced). If the calling account had been granted `role`, emits a {RoleRevoked} event. Requirements: - the caller must be `account`."
      },
      "revokeRole(bytes32,address)": {
        "details": "Revokes `role` from `account`. If `account` had been granted `role`, emits a {RoleRevoked} event. Requirements: - the caller must have ``role``'s admin role."
      },
      "symbol()": {
        "details": "Returns the symbol of the token, usually a shorter version of the name."
      },
      "totalSupply()": {
        "details": "See {IERC20-totalSupply}."
      },
      "transfer(address,uint256)": {
        "details": "See {IERC20-transfer}. Requirements: - `recipient` cannot be the zero address. - the caller must have a balance of at least `amount`."
      },
      "transferFrom(address,address,uint256)": {
        "details": "See {IERC20-transferFrom}. Emits an {Approval} event indicating the updated allowance. This is not required by the EIP. See the note at the beginning of {ERC20}. Requirements: - `sender` and `recipient` cannot be the zero address. - `sender` must have a balance of at least `amount`. - the caller must have allowance for ``sender``'s tokens of at least `amount`."
      }
    },
    "version": 1
  },
  "userdoc": {
    "kind": "user",
    "methods": {},
    "version": 1
  }
}