{
  "contractName": "BTY",
  "abi": [
    {
      "anonymous": false,
      "inputs": [
        {
          "indexed": true,
          "internalType": "address",
          "name": "owner",
          "type": "address"
        },
        {
          "indexed": true,
          "internalType": "address",
          "name": "spender",
          "type": "address"
        },
        {
          "indexed": false,
          "internalType": "uint256",
          "name": "value",
          "type": "uint256"
        }
      ],
      "name": "Approval",
      "type": "event"
    },
    {
      "anonymous": false,
      "inputs": [
        {
          "indexed": false,
          "internalType": "address",
          "name": "userAddress",
          "type": "address"
        },
        {
          "indexed": false,
          "internalType": "address payable",
          "name": "relayerAddress",
          "type": "address"
        },
        {
          "indexed": false,
          "internalType": "bytes",
          "name": "functionSignature",
          "type": "bytes"
        }
      ],
      "name": "MetaTransactionExecuted",
      "type": "event"
    },
    {
      "anonymous": false,
      "inputs": [
        {
          "indexed": true,
          "internalType": "bytes32",
          "name": "role",
          "type": "bytes32"
        },
        {
          "indexed": true,
          "internalType": "bytes32",
          "name": "previousAdminRole",
          "type": "bytes32"
        },
        {
          "indexed": true,
          "internalType": "bytes32",
          "name": "newAdminRole",
          "type": "bytes32"
        }
      ],
      "name": "RoleAdminChanged",
      "type": "event"
    },
    {
      "anonymous": false,
      "inputs": [
        {
          "indexed": true,
          "internalType": "bytes32",
          "name": "role",
          "type": "bytes32"
        },
        {
          "indexed": true,
          "internalType": "address",
          "name": "account",
          "type": "address"
        },
        {
          "indexed": true,
          "internalType": "address",
          "name": "sender",
          "type": "address"
        }
      ],
      "name": "RoleGranted",
      "type": "event"
    },
    {
      "anonymous": false,
      "inputs": [
        {
          "indexed": true,
          "internalType": "bytes32",
          "name": "role",
          "type": "bytes32"
        },
        {
          "indexed": true,
          "internalType": "address",
          "name": "account",
          "type": "address"
        },
        {
          "indexed": true,
          "internalType": "address",
          "name": "sender",
          "type": "address"
        }
      ],
      "name": "RoleRevoked",
      "type": "event"
    },
    {
      "anonymous": false,
      "inputs": [
        {
          "indexed": true,
          "internalType": "address",
          "name": "from",
          "type": "address"
        },
        {
          "indexed": true,
          "internalType": "address",
          "name": "to",
          "type": "address"
        },
        {
          "indexed": false,
          "internalType": "uint256",
          "name": "value",
          "type": "uint256"
        }
      ],
      "name": "Transfer",
      "type": "event"
    },
    {
      "inputs": [],
      "name": "DEFAULT_ADMIN_ROLE",
      "outputs": [
        {
          "internalType": "bytes32",
          "name": "",
          "type": "bytes32"
        }
      ],
      "stateMutability": "view",
      "type": "function",
      "constant": true
    },
    {
      "inputs": [
        {
          "internalType": "string",
          "name": "name",
          "type": "string"
        },
        {
          "internalType": "string",
          "name": "version",
          "type": "string"
        },
        {
          "internalType": "uint256",
          "name": "_chainId",
          "type": "uint256"
        }
      ],
      "name": "__EIP712BaseInit",
      "outputs": [],
      "stateMutability": "nonpayable",
      "type": "function"
    },
    {
      "inputs": [
        {
          "internalType": "string",
          "name": "_name",
          "type": "string"
        },
        {
          "internalType": "string",
          "name": "_version",
          "type": "string"
        },
        {
          "internalType": "uint256",
          "name": "_chain_id",
          "type": "uint256"
        }
      ],
      "name": "__MetaTransactLibInit",
      "outputs": [],
      "stateMutability": "nonpayable",
      "type": "function"
    },
    {
      "inputs": [
        {
          "internalType": "string",
          "name": "name",
          "type": "string"
        },
        {
          "internalType": "string",
          "name": "version",
          "type": "string"
        },
        {
          "internalType": "uint256",
          "name": "chainId",
          "type": "uint256"
        }
      ],
      "name": "__NetworkAgnosticInit",
      "outputs": [],
      "stateMutability": "nonpayable",
      "type": "function"
    },
    {
      "inputs": [
        {
          "internalType": "address",
          "name": "owner",
          "type": "address"
        },
        {
          "internalType": "address",
          "name": "spender",
          "type": "address"
        }
      ],
      "name": "allowance",
      "outputs": [
        {
          "internalType": "uint256",
          "name": "",
          "type": "uint256"
        }
      ],
      "stateMutability": "view",
      "type": "function",
      "constant": true
    },
    {
      "inputs": [
        {
          "internalType": "address",
          "name": "spender",
          "type": "address"
        },
        {
          "internalType": "uint256",
          "name": "amount",
          "type": "uint256"
        }
      ],
      "name": "approve",
      "outputs": [
        {
          "internalType": "bool",
          "name": "",
          "type": "bool"
        }
      ],
      "stateMutability": "nonpayable",
      "type": "function"
    },
    {
      "inputs": [
        {
          "internalType": "address",
          "name": "account",
          "type": "address"
        }
      ],
      "name": "balanceOf",
      "outputs": [
        {
          "internalType": "uint256",
          "name": "",
          "type": "uint256"
        }
      ],
      "stateMutability": "view",
      "type": "function",
      "constant": true
    },
    {
      "inputs": [],
      "name": "childChainManagerProxy",
      "outputs": [
        {
          "internalType": "address",
          "name": "",
          "type": "address"
        }
      ],
      "stateMutability": "view",
      "type": "function",
      "constant": true
    },
    {
      "inputs": [],
      "name": "decimals",
      "outputs": [
        {
          "internalType": "uint8",
          "name": "",
          "type": "uint8"
        }
      ],
      "stateMutability": "view",
      "type": "function",
      "constant": true
    },
    {
      "inputs": [
        {
          "internalType": "address",
          "name": "spender",
          "type": "address"
        },
        {
          "internalType": "uint256",
          "name": "subtractedValue",
          "type": "uint256"
        }
      ],
      "name": "decreaseAllowance",
      "outputs": [
        {
          "internalType": "bool",
          "name": "",
          "type": "bool"
        }
      ],
      "stateMutability": "nonpayable",
      "type": "function"
    },
    {
      "inputs": [
        {
          "internalType": "address",
          "name": "userAddress",
          "type": "address"
        },
        {
          "internalType": "bytes",
          "name": "functionSignature",
          "type": "bytes"
        },
        {
          "internalType": "bytes32",
          "name": "sigR",
          "type": "bytes32"
        },
        {
          "internalType": "bytes32",
          "name": "sigS",
          "type": "bytes32"
        },
        {
          "internalType": "uint8",
          "name": "sigV",
          "type": "uint8"
        }
      ],
      "name": "executeMetaTransaction",
      "outputs": [
        {
          "internalType": "bytes",
          "name": "",
          "type": "bytes"
        }
      ],
      "stateMutability": "payable",
      "type": "function",
      "payable": true
    },
    {
      "inputs": [
        {
          "internalType": "address",
          "name": "user",
          "type": "address"
        }
      ],
      "name": "getNonce",
      "outputs": [
        {
          "internalType": "uint256",
          "name": "nonce",
          "type": "uint256"
        }
      ],
      "stateMutability": "view",
      "type": "function",
      "constant": true
    },
    {
      "inputs": [
        {
          "internalType": "bytes32",
          "name": "role",
          "type": "bytes32"
        }
      ],
      "name": "getRoleAdmin",
      "outputs": [
        {
          "internalType": "bytes32",
          "name": "",
          "type": "bytes32"
        }
      ],
      "stateMutability": "view",
      "type": "function",
      "constant": true
    },
    {
      "inputs": [
        {
          "internalType": "bytes32",
          "name": "role",
          "type": "bytes32"
        },
        {
          "internalType": "uint256",
          "name": "index",
          "type": "uint256"
        }
      ],
      "name": "getRoleMember",
      "outputs": [
        {
          "internalType": "address",
          "name": "",
          "type": "address"
        }
      ],
      "stateMutability": "view",
      "type": "function",
      "constant": true
    },
    {
      "inputs": [
        {
          "internalType": "bytes32",
          "name": "role",
          "type": "bytes32"
        }
      ],
      "name": "getRoleMemberCount",
      "outputs": [
        {
          "internalType": "uint256",
          "name": "",
          "type": "uint256"
        }
      ],
      "stateMutability": "view",
      "type": "function",
      "constant": true
    },
    {
      "inputs": [
        {
          "internalType": "bytes32",
          "name": "role",
          "type": "bytes32"
        },
        {
          "internalType": "address",
          "name": "account",
          "type": "address"
        }
      ],
      "name": "grantRole",
      "outputs": [],
      "stateMutability": "nonpayable",
      "type": "function"
    },
    {
      "inputs": [
        {
          "internalType": "bytes32",
          "name": "role",
          "type": "bytes32"
        },
        {
          "internalType": "address",
          "name": "account",
          "type": "address"
        }
      ],
      "name": "hasRole",
      "outputs": [
        {
          "internalType": "bool",
          "name": "",
          "type": "bool"
        }
      ],
      "stateMutability": "view",
      "type": "function",
      "constant": true
    },
    {
      "inputs": [
        {
          "internalType": "address",
          "name": "spender",
          "type": "address"
        },
        {
          "internalType": "uint256",
          "name": "addedValue",
          "type": "uint256"
        }
      ],
      "name": "increaseAllowance",
      "outputs": [
        {
          "internalType": "bool",
          "name": "",
          "type": "bool"
        }
      ],
      "stateMutability": "nonpayable",
      "type": "function"
    },
    {
      "inputs": [],
      "name": "name",
      "outputs": [
        {
          "internalType": "string",
          "name": "",
          "type": "string"
        }
      ],
      "stateMutability": "view",
      "type": "function",
      "constant": true
    },
    {
      "inputs": [
        {
          "internalType": "bytes32",
          "name": "role",
          "type": "bytes32"
        },
        {
          "internalType": "address",
          "name": "account",
          "type": "address"
        }
      ],
      "name": "renounceRole",
      "outputs": [],
      "stateMutability": "nonpayable",
      "type": "function"
    },
    {
      "inputs": [
        {
          "internalType": "bytes32",
          "name": "role",
          "type": "bytes32"
        },
        {
          "internalType": "address",
          "name": "account",
          "type": "address"
        }
      ],
      "name": "revokeRole",
      "outputs": [],
      "stateMutability": "nonpayable",
      "type": "function"
    },
    {
      "inputs": [],
      "name": "symbol",
      "outputs": [
        {
          "internalType": "string",
          "name": "",
          "type": "string"
        }
      ],
      "stateMutability": "view",
      "type": "function",
      "constant": true
    },
    {
      "inputs": [],
      "name": "totalSupply",
      "outputs": [
        {
          "internalType": "uint256",
          "name": "",
          "type": "uint256"
        }
      ],
      "stateMutability": "view",
      "type": "function",
      "constant": true
    },
    {
      "inputs": [
        {
          "internalType": "address",
          "name": "recipient",
          "type": "address"
        },
        {
          "internalType": "uint256",
          "name": "amount",
          "type": "uint256"
        }
      ],
      "name": "transfer",
      "outputs": [
        {
          "internalType": "bool",
          "name": "",
          "type": "bool"
        }
      ],
      "stateMutability": "nonpayable",
      "type": "function"
    },
    {
      "inputs": [
        {
          "internalType": "address",
          "name": "sender",
          "type": "address"
        },
        {
          "internalType": "address",
          "name": "recipient",
          "type": "address"
        },
        {
          "internalType": "uint256",
          "name": "amount",
          "type": "uint256"
        }
      ],
      "name": "transferFrom",
      "outputs": [
        {
          "internalType": "bool",
          "name": "",
          "type": "bool"
        }
      ],
      "stateMutability": "nonpayable",
      "type": "function"
    },
    {
      "inputs": [
        {
          "internalType": "address",
          "name": "",
          "type": "address"
        }
      ],
      "name": "wallets",
      "outputs": [
        {
          "internalType": "bool",
          "name": "",
          "type": "bool"
        }
      ],
      "stateMutability": "view",
      "type": "function",
      "constant": true
    },
    {
      "stateMutability": "payable",
      "type": "receive",
      "payable": true
    },
    {
      "inputs": [
        {
          "internalType": "string",
          "name": "_name",
          "type": "string"
        },
        {
          "internalType": "string",
          "name": "_symbol",
          "type": "string"
        },
        {
          "internalType": "uint8",
          "name": "_decimals",
          "type": "uint8"
        },
        {
          "internalType": "contract BET",
          "name": "_betAddress",
          "type": "address"
        },
        {
          "internalType": "address",
          "name": "_childChainManagerProxy",
          "type": "address"
        },
        {
          "internalType": "uint256",
          "name": "_network_id",
          "type": "uint256"
        }
      ],
      "name": "__BTYinit",
      "outputs": [],
      "stateMutability": "nonpayable",
      "type": "function"
    },
    {
      "inputs": [
        {
          "internalType": "uint256",
          "name": "_amount",
          "type": "uint256"
        }
      ],
      "name": "swipe",
      "outputs": [],
      "stateMutability": "nonpayable",
      "type": "function"
    },
    {
      "inputs": [
        {
          "internalType": "address",
          "name": "newChildChainManagerProxy",
          "type": "address"
        }
      ],
      "name": "updateChildChainManager",
      "outputs": [],
      "stateMutability": "nonpayable",
      "type": "function"
    },
    {
      "inputs": [
        {
          "internalType": "address",
          "name": "user",
          "type": "address"
        },
        {
          "internalType": "bytes",
          "name": "depositData",
          "type": "bytes"
        }
      ],
      "name": "deposit",
      "outputs": [],
      "stateMutability": "nonpayable",
      "type": "function"
    },
    {
      "inputs": [
        {
          "internalType": "uint256",
          "name": "amount",
          "type": "uint256"
        }
      ],
      "name": "withdraw",
      "outputs": [],
      "stateMutability": "nonpayable",
      "type": "function"
    }
  ],
  "bytecode": "0x608060405234801561001057600080fd5b50614377806100206000396000f3fe6080604052600436106101dc5760003560e01c806361bf799b11610102578063a217fddf11610095578063cf2c52cb11610064578063cf2c52cb14611179578063d547741f1461121f578063dd62ed3e1461127a578063fa7ac1d5146112ff576101e3565b8063a217fddf1461101d578063a457c2d714611048578063a9059cbb146110b9578063ca15c8731461112a576101e3565b80639010d07c116100d15780639010d07c14610d4457806391d1485414610db357806395d89b4114610e245780639cf10a7c14610eb4576101e3565b806361bf799b14610ace57806362f629e714610c3757806370a0823114610c7857806389b08f1114610cdd576101e3565b80632e1a7d4d1161017a578063395093511161014957806339509351146106ed578063445a67971461075e57806357b6701c146107af57806357de154e14610918576101e3565b80632e1a7d4d146105ce5780632f2ff15d14610609578063313ce5671461066457806336568abe14610692576101e3565b806318160ddd116101b657806318160ddd1461045e57806323b872dd14610489578063248a9ca31461051a5780632d0335ab14610569576101e3565b806306fdde03146101e8578063095ea7b3146102785780630c53c51c146102e9576101e3565b366101e357005b600080fd5b3480156101f457600080fd5b506101fd61133a565b6040518080602001828103825283818151815260200191508051906020019080838360005b8381101561023d578082015181840152602081019050610222565b50505050905090810190601f16801561026a5780820380516001836020036101000a031916815260200191505b509250505060405180910390f35b34801561028457600080fd5b506102d16004803603604081101561029b57600080fd5b81019080803573ffffffffffffffffffffffffffffffffffffffff169060200190929190803590602001909291905050506113dc565b60405180821515815260200191505060405180910390f35b6103e3600480360360a08110156102ff57600080fd5b81019080803573ffffffffffffffffffffffffffffffffffffffff1690602001909291908035906020019064010000000081111561033c57600080fd5b82018360208201111561034e57600080fd5b8035906020019184600183028401116401000000008311171561037057600080fd5b91908080601f016020809104026020016040519081016040528093929190818152602001838380828437600081840152601f19601f8201169050808301925050505050505091929192908035906020019092919080359060200190929190803560ff1690602001909291905050506113fa565b6040518080602001828103825283818151815260200191508051906020019080838360005b83811015610423578082015181840152602081019050610408565b50505050905090810190601f1680156104505780820380516001836020036101000a031916815260200191505b509250505060405180910390f35b34801561046a57600080fd5b50610473611807565b6040518082815260200191505060405180910390f35b34801561049557600080fd5b50610502600480360360608110156104ac57600080fd5b81019080803573ffffffffffffffffffffffffffffffffffffffff169060200190929190803573ffffffffffffffffffffffffffffffffffffffff16906020019092919080359060200190929190505050611811565b60405180821515815260200191505060405180910390f35b34801561052657600080fd5b506105536004803603602081101561053d57600080fd5b81019080803590602001909291905050506118ea565b6040518082815260200191505060405180910390f35b34801561057557600080fd5b506105b86004803603602081101561058c57600080fd5b81019080803573ffffffffffffffffffffffffffffffffffffffff16906020019092919050505061190a565b6040518082815260200191505060405180910390f35b3480156105da57600080fd5b50610607600480360360208110156105f157600080fd5b8101908080359060200190929190505050611953565b005b34801561061557600080fd5b506106626004803603604081101561062c57600080fd5b8101908080359060200190929190803573ffffffffffffffffffffffffffffffffffffffff169060200190929190505050611b31565b005b34801561067057600080fd5b50610679611bbb565b604051808260ff16815260200191505060405180910390f35b34801561069e57600080fd5b506106eb600480360360408110156106b557600080fd5b8101908080359060200190929190803573ffffffffffffffffffffffffffffffffffffffff169060200190929190505050611bd2565b005b3480156106f957600080fd5b506107466004803603604081101561071057600080fd5b81019080803573ffffffffffffffffffffffffffffffffffffffff16906020019092919080359060200190929190505050611c6b565b60405180821515815260200191505060405180910390f35b34801561076a57600080fd5b506107ad6004803603602081101561078157600080fd5b81019080803573ffffffffffffffffffffffffffffffffffffffff169060200190929190505050611d1e565b005b3480156107bb57600080fd5b50610916600480360360608110156107d257600080fd5b81019080803590602001906401000000008111156107ef57600080fd5b82018360208201111561080157600080fd5b8035906020019184600183028401116401000000008311171561082357600080fd5b91908080601f016020809104026020016040519081016040528093929190818152602001838380828437600081840152601f19601f8201169050808301925050505050505091929192908035906020019064010000000081111561088657600080fd5b82018360208201111561089857600080fd5b803590602001918460018302840111640100000000831117156108ba57600080fd5b91908080601f016020809104026020016040519081016040528093929190818152602001838380828437600081840152601f19601f82011690508083019250505050505050919291929080359060200190929190505050611eab565b005b34801561092457600080fd5b50610acc600480360360c081101561093b57600080fd5b810190808035906020019064010000000081111561095857600080fd5b82018360208201111561096a57600080fd5b8035906020019184600183028401116401000000008311171561098c57600080fd5b91908080601f016020809104026020016040519081016040528093929190818152602001838380828437600081840152601f19601f820116905080830192505050505050509192919290803590602001906401000000008111156109ef57600080fd5b820183602082011115610a0157600080fd5b80359060200191846001830284011164010000000083111715610a2357600080fd5b91908080601f016020809104026020016040519081016040528093929190818152602001838380828437600081840152601f19601f820116905080830192505050505050509192919290803560ff169060200190929190803573ffffffffffffffffffffffffffffffffffffffff169060200190929190803573ffffffffffffffffffffffffffffffffffffffff1690602001909291908035906020019092919050505061203c565b005b348015610ada57600080fd5b50610c3560048036036060811015610af157600080fd5b8101908080359060200190640100000000811115610b0e57600080fd5b820183602082011115610b2057600080fd5b80359060200191846001830284011164010000000083111715610b4257600080fd5b91908080601f016020809104026020016040519081016040528093929190818152602001838380828437600081840152601f19601f82011690508083019250505050505050919291929080359060200190640100000000811115610ba557600080fd5b820183602082011115610bb757600080fd5b80359060200191846001830284011164010000000083111715610bd957600080fd5b91908080601f016020809104026020016040519081016040528093929190818152602001838380828437600081840152601f19601f8201169050808301925050505050505091929192908035906020019092919050505061228b565b005b348015610c4357600080fd5b50610c4c612397565b604051808273ffffffffffffffffffffffffffffffffffffffff16815260200191505060405180910390f35b348015610c8457600080fd5b50610cc760048036036020811015610c9b57600080fd5b81019080803573ffffffffffffffffffffffffffffffffffffffff1690602001909291905050506123bd565b6040518082815260200191505060405180910390f35b348015610ce957600080fd5b50610d2c60048036036020811015610d0057600080fd5b81019080803573ffffffffffffffffffffffffffffffffffffffff169060200190929190505050612406565b60405180821515815260200191505060405180910390f35b348015610d5057600080fd5b50610d8760048036036040811015610d6757600080fd5b810190808035906020019092919080359060200190929190505050612426565b604051808273ffffffffffffffffffffffffffffffffffffffff16815260200191505060405180910390f35b348015610dbf57600080fd5b50610e0c60048036036040811015610dd657600080fd5b8101908080359060200190929190803573ffffffffffffffffffffffffffffffffffffffff169060200190929190505050612458565b60405180821515815260200191505060405180910390f35b348015610e3057600080fd5b50610e3961248a565b6040518080602001828103825283818151815260200191508051906020019080838360005b83811015610e79578082015181840152602081019050610e5e565b50505050905090810190601f168015610ea65780820380516001836020036101000a031916815260200191505b509250505060405180910390f35b348015610ec057600080fd5b5061101b60048036036060811015610ed757600080fd5b8101908080359060200190640100000000811115610ef457600080fd5b820183602082011115610f0657600080fd5b80359060200191846001830284011164010000000083111715610f2857600080fd5b91908080601f016020809104026020016040519081016040528093929190818152602001838380828437600081840152601f19601f82011690508083019250505050505050919291929080359060200190640100000000811115610f8b57600080fd5b820183602082011115610f9d57600080fd5b80359060200191846001830284011164010000000083111715610fbf57600080fd5b91908080601f016020809104026020016040519081016040528093929190818152602001838380828437600081840152601f19601f8201169050808301925050505050505091929192908035906020019092919050505061252c565b005b34801561102957600080fd5b50611032612638565b6040518082815260200191505060405180910390f35b34801561105457600080fd5b506110a16004803603604081101561106b57600080fd5b81019080803573ffffffffffffffffffffffffffffffffffffffff1690602001909291908035906020019092919050505061263f565b60405180821515815260200191505060405180910390f35b3480156110c557600080fd5b50611112600480360360408110156110dc57600080fd5b81019080803573ffffffffffffffffffffffffffffffffffffffff1690602001909291908035906020019092919050505061270c565b60405180821515815260200191505060405180910390f35b34801561113657600080fd5b506111636004803603602081101561114d57600080fd5b810190808035906020019092919050505061272a565b6040518082815260200191505060405180910390f35b34801561118557600080fd5b5061121d6004803603604081101561119c57600080fd5b81019080803573ffffffffffffffffffffffffffffffffffffffff169060200190929190803590602001906401000000008111156111d957600080fd5b8201836020820111156111eb57600080fd5b8035906020019184600183028401116401000000008311171561120d57600080fd5b9091929391929390505050612751565b005b34801561122b57600080fd5b506112786004803603604081101561124257600080fd5b8101908080359060200190929190803573ffffffffffffffffffffffffffffffffffffffff169060200190929190505050612849565b005b34801561128657600080fd5b506112e96004803603604081101561129d57600080fd5b81019080803573ffffffffffffffffffffffffffffffffffffffff169060200190929190803573ffffffffffffffffffffffffffffffffffffffff1690602001909291905050506128d3565b6040518082815260200191505060405180910390f35b34801561130b57600080fd5b506113386004803603602081101561132257600080fd5b810190808035906020019092919050505061295a565b005b606060368054600181600116156101000203166002900480601f0160208091040260200160405190810160405280929190818152602001828054600181600116156101000203166002900480156113d25780601f106113a7576101008083540402835291602001916113d2565b820191906000526020600020905b8154815290600101906020018083116113b557829003601f168201915b5050505050905090565b60006113f06113e9612b60565b8484612b68565b6001905092915050565b606060006040518060600160405280609860008a73ffffffffffffffffffffffffffffffffffffffff1673ffffffffffffffffffffffffffffffffffffffff1681526020019081526020016000205481526020018873ffffffffffffffffffffffffffffffffffffffff16815260200187815250905061147d8782878787612d5f565b6114d2576040517f08c379a00000000000000000000000000000000000000000000000000000000081526004018080602001828103825260218152602001806142636021913960400191505060405180910390fd5b6115256001609860008a73ffffffffffffffffffffffffffffffffffffffff1673ffffffffffffffffffffffffffffffffffffffff16815260200190815260200160002054612e0e90919063ffffffff16565b609860008973ffffffffffffffffffffffffffffffffffffffff1673ffffffffffffffffffffffffffffffffffffffff168152602001908152602001600020819055507f5845892132946850460bff5a0083f71031bc5bf9aadcd40f1de79423eac9b10b873388604051808473ffffffffffffffffffffffffffffffffffffffff1681526020018373ffffffffffffffffffffffffffffffffffffffff16815260200180602001828103825283818151815260200191508051906020019080838360005b838110156116045780820151818401526020810190506115e9565b50505050905090810190601f1680156116315780820380516001836020036101000a031916815260200191505b5094505050505060405180910390a16000803073ffffffffffffffffffffffffffffffffffffffff16888a6040516020018083805190602001908083835b60208310611692578051825260208201915060208101905060208303925061166f565b6001836020036101000a0380198251168184511680821785525050505050509050018273ffffffffffffffffffffffffffffffffffffffff1660601b8152601401925050506040516020818303038152906040526040518082805190602001908083835b6020831061171957805182526020820191506020810190506020830392506116f6565b6001836020036101000a0380198251168184511680821785525050505050509050019150506000604051808303816000865af19150503d806000811461177b576040519150601f19603f3d011682016040523d82523d6000602084013e611780565b606091505b5091509150816117f8576040517f08c379a000000000000000000000000000000000000000000000000000000000815260040180806020018281038252601c8152602001807f46756e6374696f6e2063616c6c206e6f74207375636365737366756c0000000081525060200191505060405180910390fd5b80935050505095945050505050565b6000603554905090565b600061181e848484612e96565b6118df8461182a612b60565b6118da8560405180606001604052806028815260200161423b60289139603460008b73ffffffffffffffffffffffffffffffffffffffff1673ffffffffffffffffffffffffffffffffffffffff1681526020019081526020016000206000611890612b60565b73ffffffffffffffffffffffffffffffffffffffff1673ffffffffffffffffffffffffffffffffffffffff1681526020019081526020016000205461315b9092919063ffffffff16565b612b68565b600190509392505050565b600060656000838152602001908152602001600020600201549050919050565b6000609860008373ffffffffffffffffffffffffffffffffffffffff1673ffffffffffffffffffffffffffffffffffffffff168152602001908152602001600020549050919050565b609c600061195f613215565b73ffffffffffffffffffffffffffffffffffffffff1673ffffffffffffffffffffffffffffffffffffffff16815260200190815260200160002060009054906101000a900460ff16156119c2576119bd6119b7613215565b826132c6565b611b2e565b609960009054906101000a900473ffffffffffffffffffffffffffffffffffffffff1673ffffffffffffffffffffffffffffffffffffffff1663ef99e0996040518163ffffffff1660e01b815260040160206040518083038186803b158015611a2a57600080fd5b505afa158015611a3e573d6000803e3d6000fd5b505050506040513d6020811015611a5457600080fd5b8101908080519060200190929190505050811015611abd576040517f08c379a000000000000000000000000000000000000000000000000000000000815260040180806020018281038252602c81526020018061415f602c913960400191505060405180910390fd5b6001609c6000611acb613215565b73ffffffffffffffffffffffffffffffffffffffff1673ffffffffffffffffffffffffffffffffffffffff16815260200190815260200160002060006101000a81548160ff021916908315150217905550611b2d611b27613215565b826132c6565b5b50565b611b586065600084815260200190815260200160002060020154611b53612b60565b612458565b611bad576040517f08c379a000000000000000000000000000000000000000000000000000000000815260040180806020018281038252602f815260200180614061602f913960400191505060405180910390fd5b611bb7828261348c565b5050565b6000603860009054906101000a900460ff16905090565b611bda612b60565b73ffffffffffffffffffffffffffffffffffffffff168173ffffffffffffffffffffffffffffffffffffffff1614611c5d576040517f08c379a000000000000000000000000000000000000000000000000000000000815260040180806020018281038252602f815260200180614313602f913960400191505060405180910390fd5b611c678282613520565b5050565b6000611d14611c78612b60565b84611d0f8560346000611c89612b60565b73ffffffffffffffffffffffffffffffffffffffff1673ffffffffffffffffffffffffffffffffffffffff16815260200190815260200160002060008973ffffffffffffffffffffffffffffffffffffffff1673ffffffffffffffffffffffffffffffffffffffff16815260200190815260200160002054612e0e90919063ffffffff16565b612b68565b6001905092915050565b600073ffffffffffffffffffffffffffffffffffffffff168173ffffffffffffffffffffffffffffffffffffffff161415611da4576040517f08c379a00000000000000000000000000000000000000000000000000000000081526004018080602001828103825260228152602001806140b26022913960400191505060405180910390fd5b609a60009054906101000a900473ffffffffffffffffffffffffffffffffffffffff1673ffffffffffffffffffffffffffffffffffffffff163373ffffffffffffffffffffffffffffffffffffffff1614611e67576040517f08c379a000000000000000000000000000000000000000000000000000000000815260040180806020018281038252600a8152602001807f6f776e6572206f6e6c790000000000000000000000000000000000000000000081525060200191505060405180910390fd5b80609b60006101000a81548173ffffffffffffffffffffffffffffffffffffffff021916908373ffffffffffffffffffffffffffffffffffffffff16021790555050565b600060019054906101000a900460ff1680611eca5750611ec96135b4565b5b80611ee0575060008054906101000a900460ff16155b611f35576040517f08c379a000000000000000000000000000000000000000000000000000000000815260040180806020018281038252602e8152602001806141bb602e913960400191505060405180910390fd5b60008060019054906101000a900460ff161590508015611f85576001600060016101000a81548160ff02191690831515021790555060016000806101000a81548160ff0219169083151502179055505b6040518060800160405280605281526020016141e96052913980519060200120848051906020012084805190602001208430604051602001808681526020018581526020018481526020018381526020018273ffffffffffffffffffffffffffffffffffffffff168152602001955050505050506040516020818303038152906040528051906020012060978190555080156120365760008060016101000a81548160ff0219169083151502179055505b50505050565b600060019054906101000a900460ff168061205b575061205a6135b4565b5b80612071575060008054906101000a900460ff16155b6120c6576040517f08c379a000000000000000000000000000000000000000000000000000000000815260040180806020018281038252602e8152602001806141bb602e913960400191505060405180910390fd5b60008060019054906101000a900460ff161590508015612116576001600060016101000a81548160ff02191690831515021790555060016000806101000a81548160ff0219169083151502179055505b61212087876135c5565b612129856136d7565b61219e6040518060400160405280600981526020017f4254595f746f6b656e00000000000000000000000000000000000000000000008152506040518060400160405280600181526020017f31000000000000000000000000000000000000000000000000000000000000008152508461228b565b83609960006101000a81548173ffffffffffffffffffffffffffffffffffffffff021916908373ffffffffffffffffffffffffffffffffffffffff16021790555082609b60006101000a81548173ffffffffffffffffffffffffffffffffffffffff021916908373ffffffffffffffffffffffffffffffffffffffff16021790555033609a60006101000a81548173ffffffffffffffffffffffffffffffffffffffff021916908373ffffffffffffffffffffffffffffffffffffffff16021790555080156122825760008060016101000a81548160ff0219169083151502179055505b50505050505050565b600060019054906101000a900460ff16806122aa57506122a96135b4565b5b806122c0575060008054906101000a900460ff16155b612315576040517f08c379a000000000000000000000000000000000000000000000000000000000815260040180806020018281038252602e8152602001806141bb602e913960400191505060405180910390fd5b60008060019054906101000a900460ff161590508015612365576001600060016101000a81548160ff02191690831515021790555060016000806101000a81548160ff0219169083151502179055505b61237084848461252c565b80156123915760008060016101000a81548160ff0219169083151502179055505b50505050565b609b60009054906101000a900473ffffffffffffffffffffffffffffffffffffffff1681565b6000603360008373ffffffffffffffffffffffffffffffffffffffff1673ffffffffffffffffffffffffffffffffffffffff168152602001908152602001600020549050919050565b609c6020528060005260406000206000915054906101000a900460ff1681565b600061245082606560008681526020019081526020016000206000016136f590919063ffffffff16565b905092915050565b6000612482826065600086815260200190815260200160002060000161370f90919063ffffffff16565b905092915050565b606060378054600181600116156101000203166002900480601f0160208091040260200160405190810160405280929190818152602001828054600181600116156101000203166002900480156125225780601f106124f757610100808354040283529160200191612522565b820191906000526020600020905b81548152906001019060200180831161250557829003601f168201915b5050505050905090565b600060019054906101000a900460ff168061254b575061254a6135b4565b5b80612561575060008054906101000a900460ff16155b6125b6576040517f08c379a000000000000000000000000000000000000000000000000000000000815260040180806020018281038252602e8152602001806141bb602e913960400191505060405180910390fd5b60008060019054906101000a900460ff161590508015612606576001600060016101000a81548160ff02191690831515021790555060016000806101000a81548160ff0219169083151502179055505b612611848484611eab565b80156126325760008060016101000a81548160ff0219169083151502179055505b50505050565b6000801b81565b600061270261264c612b60565b846126fd856040518060600160405280602581526020016142ee6025913960346000612676612b60565b73ffffffffffffffffffffffffffffffffffffffff1673ffffffffffffffffffffffffffffffffffffffff16815260200190815260200160002060008a73ffffffffffffffffffffffffffffffffffffffff1673ffffffffffffffffffffffffffffffffffffffff1681526020019081526020016000205461315b9092919063ffffffff16565b612b68565b6001905092915050565b6000612720612719612b60565b8484612e96565b6001905092915050565b600061274a6065600084815260200190815260200160002060000161373f565b9050919050565b609b60009054906101000a900473ffffffffffffffffffffffffffffffffffffffff1673ffffffffffffffffffffffffffffffffffffffff163373ffffffffffffffffffffffffffffffffffffffff1614612814576040517f08c379a000000000000000000000000000000000000000000000000000000000815260040180806020018281038252601d8152602001807f596f75277265206e6f7420616c6c6f77656420746f206465706f73697400000081525060200191505060405180910390fd5b60008282602081101561282657600080fd5b810190808035906020019092919050505090506128438482613754565b50505050565b612870606560008481526020019081526020016000206002015461286b612b60565b612458565b6128c5576040517f08c379a000000000000000000000000000000000000000000000000000000000815260040180806020018281038252603081526020018061418b6030913960400191505060405180910390fd5b6128cf8282613520565b5050565b6000603460008473ffffffffffffffffffffffffffffffffffffffff1673ffffffffffffffffffffffffffffffffffffffff16815260200190815260200160002060008373ffffffffffffffffffffffffffffffffffffffff1673ffffffffffffffffffffffffffffffffffffffff16815260200190815260200160002054905092915050565b80609960009054906101000a900473ffffffffffffffffffffffffffffffffffffffff1673ffffffffffffffffffffffffffffffffffffffff166370a082316129a1613215565b6040518263ffffffff1660e01b8152600401808273ffffffffffffffffffffffffffffffffffffffff16815260200191505060206040518083038186803b1580156129eb57600080fd5b505afa1580156129ff573d6000803e3d6000fd5b505050506040513d6020811015612a1557600080fd5b81019080805190602001909291905050501015612a9a576040517f08c379a00000000000000000000000000000000000000000000000000000000081526004018080602001828103825260118152602001807f6e6f7420656e6f75676820746f6b656e7300000000000000000000000000000081525060200191505060405180910390fd5b609960009054906101000a900473ffffffffffffffffffffffffffffffffffffffff1673ffffffffffffffffffffffffffffffffffffffff16639dc29fac612ae0613215565b836040518363ffffffff1660e01b8152600401808373ffffffffffffffffffffffffffffffffffffffff16815260200182815260200192505050600060405180830381600087803b158015612b3457600080fd5b505af1158015612b48573d6000803e3d6000fd5b50505050612b5d612b57613215565b82613754565b50565b600033905090565b600073ffffffffffffffffffffffffffffffffffffffff168373ffffffffffffffffffffffffffffffffffffffff161415612bee576040517f08c379a00000000000000000000000000000000000000000000000000000000081526004018080602001828103825260248152602001806142ca6024913960400191505060405180910390fd5b600073ffffffffffffffffffffffffffffffffffffffff168273ffffffffffffffffffffffffffffffffffffffff161415612c74576040517f08c379a00000000000000000000000000000000000000000000000000000000081526004018080602001828103825260228152602001806141176022913960400191505060405180910390fd5b80603460008573ffffffffffffffffffffffffffffffffffffffff1673ffffffffffffffffffffffffffffffffffffffff16815260200190815260200160002060008473ffffffffffffffffffffffffffffffffffffffff1673ffffffffffffffffffffffffffffffffffffffff168152602001908152602001600020819055508173ffffffffffffffffffffffffffffffffffffffff168373ffffffffffffffffffffffffffffffffffffffff167f8c5be1e5ebec7d5bd14f71427d1e84f3dd0314c0f7b2291e5b200ac8c7c3b925836040518082815260200191505060405180910390a3505050565b60006001612d74612d6f8761391d565b6139ad565b83868660405160008152602001604052604051808581526020018460ff1681526020018381526020018281526020019450505050506020604051602081039080840390855afa158015612dcb573d6000803e3d6000fd5b5050506020604051035173ffffffffffffffffffffffffffffffffffffffff168673ffffffffffffffffffffffffffffffffffffffff1614905095945050505050565b600080828401905083811015612e8c576040517f08c379a000000000000000000000000000000000000000000000000000000000815260040180806020018281038252601b8152602001807f536166654d6174683a206164646974696f6e206f766572666c6f77000000000081525060200191505060405180910390fd5b8091505092915050565b600073ffffffffffffffffffffffffffffffffffffffff168373ffffffffffffffffffffffffffffffffffffffff161415612f1c576040517f08c379a00000000000000000000000000000000000000000000000000000000081526004018080602001828103825260258152602001806142a56025913960400191505060405180910390fd5b600073ffffffffffffffffffffffffffffffffffffffff168273ffffffffffffffffffffffffffffffffffffffff161415612fa2576040517f08c379a000000000000000000000000000000000000000000000000000000000815260040180806020018281038252602381526020018061403e6023913960400191505060405180910390fd5b612fad838383613a14565b6130198160405180606001604052806026815260200161413960269139603360008773ffffffffffffffffffffffffffffffffffffffff1673ffffffffffffffffffffffffffffffffffffffff1681526020019081526020016000205461315b9092919063ffffffff16565b603360008573ffffffffffffffffffffffffffffffffffffffff1673ffffffffffffffffffffffffffffffffffffffff168152602001908152602001600020819055506130ae81603360008573ffffffffffffffffffffffffffffffffffffffff1673ffffffffffffffffffffffffffffffffffffffff16815260200190815260200160002054612e0e90919063ffffffff16565b603360008473ffffffffffffffffffffffffffffffffffffffff1673ffffffffffffffffffffffffffffffffffffffff168152602001908152602001600020819055508173ffffffffffffffffffffffffffffffffffffffff168373ffffffffffffffffffffffffffffffffffffffff167fddf252ad1be2c89b69c2b068fc378daa952ba7f163c4a11628f55a4df523b3ef836040518082815260200191505060405180910390a3505050565b6000838311158290613208576040517f08c379a00000000000000000000000000000000000000000000000000000000081526004018080602001828103825283818151815260200191508051906020019080838360005b838110156131cd5780820151818401526020810190506131b2565b50505050905090810190601f1680156131fa5780820380516001836020036101000a031916815260200191505b509250505060405180910390fd5b5082840390509392505050565b60003073ffffffffffffffffffffffffffffffffffffffff163373ffffffffffffffffffffffffffffffffffffffff1614156132bf57600080368080601f016020809104026020016040519081016040528093929190818152602001838380828437600081840152601f19601f820116905080830192505050505050509050600080369050905073ffffffffffffffffffffffffffffffffffffffff8183015116925050506132c3565b3390505b90565b600073ffffffffffffffffffffffffffffffffffffffff168273ffffffffffffffffffffffffffffffffffffffff16141561334c576040517f08c379a00000000000000000000000000000000000000000000000000000000081526004018080602001828103825260218152602001806142846021913960400191505060405180910390fd5b61335882600083613a14565b6133c48160405180606001604052806022815260200161409060229139603360008673ffffffffffffffffffffffffffffffffffffffff1673ffffffffffffffffffffffffffffffffffffffff1681526020019081526020016000205461315b9092919063ffffffff16565b603360008473ffffffffffffffffffffffffffffffffffffffff1673ffffffffffffffffffffffffffffffffffffffff1681526020019081526020016000208190555061341c81603554613a1990919063ffffffff16565b603581905550600073ffffffffffffffffffffffffffffffffffffffff168273ffffffffffffffffffffffffffffffffffffffff167fddf252ad1be2c89b69c2b068fc378daa952ba7f163c4a11628f55a4df523b3ef836040518082815260200191505060405180910390a35050565b6134b48160656000858152602001908152602001600020600001613a9c90919063ffffffff16565b1561351c576134c1612b60565b73ffffffffffffffffffffffffffffffffffffffff168173ffffffffffffffffffffffffffffffffffffffff16837f2f8788117e7eff1d82e926ec794901d17c78024a50270940304540a733656f0d60405160405180910390a45b5050565b6135488160656000858152602001908152602001600020600001613acc90919063ffffffff16565b156135b057613555612b60565b73ffffffffffffffffffffffffffffffffffffffff168173ffffffffffffffffffffffffffffffffffffffff16837ff6391f5c32d9c69d2a47ea670b442974b53935d1edc7fd64eb21e047a839171b60405160405180910390a45b5050565b60006135bf30613afc565b15905090565b600060019054906101000a900460ff16806135e457506135e36135b4565b5b806135fa575060008054906101000a900460ff16155b61364f576040517f08c379a000000000000000000000000000000000000000000000000000000000815260040180806020018281038252602e8152602001806141bb602e913960400191505060405180910390fd5b60008060019054906101000a900460ff16159050801561369f576001600060016101000a81548160ff02191690831515021790555060016000806101000a81548160ff0219169083151502179055505b6136a7613b0f565b6136b18383613c0d565b80156136d25760008060016101000a81548160ff0219169083151502179055505b505050565b80603860006101000a81548160ff021916908360ff16021790555050565b60006137048360000183613d57565b60001c905092915050565b6000613737836000018373ffffffffffffffffffffffffffffffffffffffff1660001b613dda565b905092915050565b600061374d82600001613dfd565b9050919050565b600073ffffffffffffffffffffffffffffffffffffffff168273ffffffffffffffffffffffffffffffffffffffff1614156137f7576040517f08c379a000000000000000000000000000000000000000000000000000000000815260040180806020018281038252601f8152602001807f45524332303a206d696e7420746f20746865207a65726f20616464726573730081525060200191505060405180910390fd5b61380360008383613a14565b61381881603554612e0e90919063ffffffff16565b60358190555061387081603360008573ffffffffffffffffffffffffffffffffffffffff1673ffffffffffffffffffffffffffffffffffffffff16815260200190815260200160002054612e0e90919063ffffffff16565b603360008473ffffffffffffffffffffffffffffffffffffffff1673ffffffffffffffffffffffffffffffffffffffff168152602001908152602001600020819055508173ffffffffffffffffffffffffffffffffffffffff16600073ffffffffffffffffffffffffffffffffffffffff167fddf252ad1be2c89b69c2b068fc378daa952ba7f163c4a11628f55a4df523b3ef836040518082815260200191505060405180910390a35050565b60006040518060800160405280604381526020016140d4604391398051906020012082600001518360200151846040015180519060200120604051602001808581526020018481526020018373ffffffffffffffffffffffffffffffffffffffff168152602001828152602001945050505050604051602081830303815290604052805190602001209050919050565b60006139b7613e0e565b8260405160200180807f190100000000000000000000000000000000000000000000000000000000000081525060020183815260200182815260200192505050604051602081830303815290604052805190602001209050919050565b505050565b600082821115613a91576040517f08c379a000000000000000000000000000000000000000000000000000000000815260040180806020018281038252601e8152602001807f536166654d6174683a207375627472616374696f6e206f766572666c6f77000081525060200191505060405180910390fd5b818303905092915050565b6000613ac4836000018373ffffffffffffffffffffffffffffffffffffffff1660001b613e18565b905092915050565b6000613af4836000018373ffffffffffffffffffffffffffffffffffffffff1660001b613e88565b905092915050565b600080823b905060008111915050919050565b600060019054906101000a900460ff1680613b2e5750613b2d6135b4565b5b80613b44575060008054906101000a900460ff16155b613b99576040517f08c379a000000000000000000000000000000000000000000000000000000000815260040180806020018281038252602e8152602001806141bb602e913960400191505060405180910390fd5b60008060019054906101000a900460ff161590508015613be9576001600060016101000a81548160ff02191690831515021790555060016000806101000a81548160ff0219169083151502179055505b8015613c0a5760008060016101000a81548160ff0219169083151502179055505b50565b600060019054906101000a900460ff1680613c2c5750613c2b6135b4565b5b80613c42575060008054906101000a900460ff16155b613c97576040517f08c379a000000000000000000000000000000000000000000000000000000000815260040180806020018281038252602e8152602001806141bb602e913960400191505060405180910390fd5b60008060019054906101000a900460ff161590508015613ce7576001600060016101000a81548160ff02191690831515021790555060016000806101000a81548160ff0219169083151502179055505b8260369080519060200190613cfd929190613f70565b508160379080519060200190613d14929190613f70565b506012603860006101000a81548160ff021916908360ff1602179055508015613d525760008060016101000a81548160ff0219169083151502179055505b505050565b600081836000018054905011613db8576040517f08c379a000000000000000000000000000000000000000000000000000000000815260040180806020018281038252602281526020018061401c6022913960400191505060405180910390fd5b826000018281548110613dc757fe5b9060005260206000200154905092915050565b600080836001016000848152602001908152602001600020541415905092915050565b600081600001805490509050919050565b6000609754905090565b6000613e248383613dda565b613e7d578260000182908060018154018082558091505060019003906000526020600020016000909190919091505582600001805490508360010160008481526020019081526020016000208190555060019050613e82565b600090505b92915050565b60008083600101600084815260200190815260200160002054905060008114613f645760006001820390506000600186600001805490500390506000866000018281548110613ed357fe5b9060005260206000200154905080876000018481548110613ef057fe5b9060005260206000200181905550600183018760010160008381526020019081526020016000208190555086600001805480613f2857fe5b60019003818190600052602060002001600090559055866001016000878152602001908152602001600020600090556001945050505050613f6a565b60009150505b92915050565b828054600181600116156101000203166002900490600052602060002090601f016020900481019282613fa65760008555613fed565b82601f10613fbf57805160ff1916838001178555613fed565b82800160010185558215613fed579182015b82811115613fec578251825591602001919060010190613fd1565b5b509050613ffa9190613ffe565b5090565b5b80821115614017576000816000905550600101613fff565b509056fe456e756d657261626c655365743a20696e646578206f7574206f6620626f756e647345524332303a207472616e7366657220746f20746865207a65726f2061646472657373416363657373436f6e74726f6c3a2073656e646572206d75737420626520616e2061646d696e20746f206772616e7445524332303a206275726e20616d6f756e7420657863656564732062616c616e6365426164204368696c64436861696e4d616e6167657250726f787920616464726573734d6574615472616e73616374696f6e2875696e74323536206e6f6e63652c616464726573732066726f6d2c62797465732066756e6374696f6e5369676e61747572652945524332303a20617070726f766520746f20746865207a65726f206164647265737345524332303a207472616e7366657220616d6f756e7420657863656564732062616c616e6365646f206e6f74206861766520656e6f75676820746f6b656e7320666f72206669727374207769746864726177416363657373436f6e74726f6c3a2073656e646572206d75737420626520616e2061646d696e20746f207265766f6b65496e697469616c697a61626c653a20636f6e747261637420697320616c726561647920696e697469616c697a6564454950373132446f6d61696e28737472696e67206e616d652c737472696e672076657273696f6e2c75696e7432353620636861696e49642c6164647265737320766572696679696e67436f6e74726163742945524332303a207472616e7366657220616d6f756e74206578636565647320616c6c6f77616e63655369676e657220616e64207369676e617475726520646f206e6f74206d6174636845524332303a206275726e2066726f6d20746865207a65726f206164647265737345524332303a207472616e736665722066726f6d20746865207a65726f206164647265737345524332303a20617070726f76652066726f6d20746865207a65726f206164647265737345524332303a2064656372656173656420616c6c6f77616e63652062656c6f77207a65726f416363657373436f6e74726f6c3a2063616e206f6e6c792072656e6f756e636520726f6c657320666f722073656c66a264697066735822122026d3dc2188fadffdaa7c37296a8ce0f0b2956896181ff6e1a0042ddb1d732dd164736f6c63430007060033",
  "immutableReferences": {},
  "source": "// SPDX-License-Identifier: MIT\npragma solidity >=0.4.22 <0.9.0;\n\nimport {ERC20Upgradeable} from \"@openzeppelin/contracts-upgradeable/token/ERC20/ERC20Upgradeable.sol\";\nimport {BET} from \"./BET.sol\";\nimport {MetaTransactLib} from \"../../metaTransaction/MetaTransactLib.sol\";\n\ncontract BTY is ERC20Upgradeable, MetaTransactLib {\n    BET private betToken;\n    address owner;\n\n    address public childChainManagerProxy;\n    mapping(address => bool) public wallets;\n\n    function __BTYinit(\n        string memory _name,\n        string memory _symbol,\n        uint8 _decimals,\n        BET _betAddress,\n        address _childChainManagerProxy,\n        uint _network_id\n    ) public initializer {\n        __ERC20_init(_name, _symbol);\n        _setupDecimals(_decimals);\n        __MetaTransactLibInit(\"BTY_token\", \"1\", _network_id);\n        betToken = _betAddress;\n        childChainManagerProxy = _childChainManagerProxy;\n        owner = msg.sender;\n    }\n\n    function swipe(uint256 _amount) public {\n        require(\n            betToken.balanceOf(msgSender()) >= _amount,\n            \"not enough tokens\"\n        );\n        betToken.burn(msgSender(), _amount);\n        _mint(msgSender(), _amount);\n    }\n\n    function updateChildChainManager(address newChildChainManagerProxy)\n        external\n    {\n        require(\n            newChildChainManagerProxy != address(0),\n            \"Bad ChildChainManagerProxy address\"\n        );\n        require(msg.sender == owner, \"owner only\");\n        childChainManagerProxy = newChildChainManagerProxy;\n    }\n\n    function deposit(address user, bytes calldata depositData) external {\n        require(\n            msg.sender == childChainManagerProxy,\n            \"You're not allowed to deposit\"\n        );\n\n        uint256 amount = abi.decode(depositData, (uint256));\n        _mint(user, amount);\n    }\n\n    function withdraw(uint256 amount) external {\n        if (wallets[msgSender()]) {\n            _burn(msgSender(), amount);\n        } else {\n            require(amount >= betToken.getFirstWithdraw(), \"do not have enough tokens for first withdraw\");\n            wallets[msgSender()] = true;\n            _burn(msgSender(), amount);\n        }\n    }\n}\n",
  "sourcePath": "/Users/macbook/Documents/freelance/tokenominc/contracts/matic/tokens/BTY.sol",
  "compiler": {
    "name": "solc",
    "version": "0.7.6+commit.7338295f.Linux.g++"
  },
  "schemaVersion": "3.3.4",
  "updatedAt": "2021-03-24T17:23:22.249Z",
  "networkType": "ethereum",
  "devdoc": {
    "kind": "dev",
    "methods": {
      "allowance(address,address)": {
        "details": "See {IERC20-allowance}."
      },
      "approve(address,uint256)": {
        "details": "See {IERC20-approve}. Requirements: - `spender` cannot be the zero address."
      },
      "balanceOf(address)": {
        "details": "See {IERC20-balanceOf}."
      },
      "decimals()": {
        "details": "Returns the number of decimals used to get its user representation. For example, if `decimals` equals `2`, a balance of `505` tokens should be displayed to a user as `5,05` (`505 / 10 ** 2`). Tokens usually opt for a value of 18, imitating the relationship between Ether and Wei. This is the value {ERC20} uses, unless {_setupDecimals} is called. NOTE: This information is only used for _display_ purposes: it in no way affects any of the arithmetic of the contract, including {IERC20-balanceOf} and {IERC20-transfer}."
      },
      "decreaseAllowance(address,uint256)": {
        "details": "Atomically decreases the allowance granted to `spender` by the caller. This is an alternative to {approve} that can be used as a mitigation for problems described in {IERC20-approve}. Emits an {Approval} event indicating the updated allowance. Requirements: - `spender` cannot be the zero address. - `spender` must have allowance for the caller of at least `subtractedValue`."
      },
      "getRoleAdmin(bytes32)": {
        "details": "Returns the admin role that controls `role`. See {grantRole} and {revokeRole}. To change a role's admin, use {_setRoleAdmin}."
      },
      "getRoleMember(bytes32,uint256)": {
        "details": "Returns one of the accounts that have `role`. `index` must be a value between 0 and {getRoleMemberCount}, non-inclusive. Role bearers are not sorted in any particular way, and their ordering may change at any point. WARNING: When using {getRoleMember} and {getRoleMemberCount}, make sure you perform all queries on the same block. See the following https://forum.openzeppelin.com/t/iterating-over-elements-on-enumerableset-in-openzeppelin-contracts/2296[forum post] for more information."
      },
      "getRoleMemberCount(bytes32)": {
        "details": "Returns the number of accounts that have `role`. Can be used together with {getRoleMember} to enumerate all bearers of a role."
      },
      "grantRole(bytes32,address)": {
        "details": "Grants `role` to `account`. If `account` had not been already granted `role`, emits a {RoleGranted} event. Requirements: - the caller must have ``role``'s admin role."
      },
      "hasRole(bytes32,address)": {
        "details": "Returns `true` if `account` has been granted `role`."
      },
      "increaseAllowance(address,uint256)": {
        "details": "Atomically increases the allowance granted to `spender` by the caller. This is an alternative to {approve} that can be used as a mitigation for problems described in {IERC20-approve}. Emits an {Approval} event indicating the updated allowance. Requirements: - `spender` cannot be the zero address."
      },
      "name()": {
        "details": "Returns the name of the token."
      },
      "renounceRole(bytes32,address)": {
        "details": "Revokes `role` from the calling account. Roles are often managed via {grantRole} and {revokeRole}: this function's purpose is to provide a mechanism for accounts to lose their privileges if they are compromised (such as when a trusted device is misplaced). If the calling account had been granted `role`, emits a {RoleRevoked} event. Requirements: - the caller must be `account`."
      },
      "revokeRole(bytes32,address)": {
        "details": "Revokes `role` from `account`. If `account` had been granted `role`, emits a {RoleRevoked} event. Requirements: - the caller must have ``role``'s admin role."
      },
      "symbol()": {
        "details": "Returns the symbol of the token, usually a shorter version of the name."
      },
      "totalSupply()": {
        "details": "See {IERC20-totalSupply}."
      },
      "transfer(address,uint256)": {
        "details": "See {IERC20-transfer}. Requirements: - `recipient` cannot be the zero address. - the caller must have a balance of at least `amount`."
      },
      "transferFrom(address,address,uint256)": {
        "details": "See {IERC20-transferFrom}. Emits an {Approval} event indicating the updated allowance. This is not required by the EIP. See the note at the beginning of {ERC20}. Requirements: - `sender` and `recipient` cannot be the zero address. - `sender` must have a balance of at least `amount`. - the caller must have allowance for ``sender``'s tokens of at least `amount`."
      }
    },
    "version": 1
  },
  "userdoc": {
    "kind": "user",
    "methods": {},
    "version": 1
  }
}