{
  "contractName": "ConfigVariables",
  "abi": [
    {
      "inputs": [],
      "stateMutability": "nonpayable",
      "type": "constructor"
    },
    {
      "inputs": [],
      "name": "GFindex",
      "outputs": [
        {
          "internalType": "uint256",
          "name": "",
          "type": "uint256"
        }
      ],
      "stateMutability": "view",
      "type": "function"
    },
    {
      "inputs": [],
      "name": "GFrewards",
      "outputs": [
        {
          "internalType": "uint256",
          "name": "",
          "type": "uint256"
        }
      ],
      "stateMutability": "view",
      "type": "function"
    },
    {
      "inputs": [],
      "name": "advisorPepc",
      "outputs": [
        {
          "internalType": "uint256",
          "name": "",
          "type": "uint256"
        }
      ],
      "stateMutability": "view",
      "type": "function"
    },
    {
      "inputs": [],
      "name": "advisorPercMint",
      "outputs": [
        {
          "internalType": "uint256",
          "name": "",
          "type": "uint256"
        }
      ],
      "stateMutability": "view",
      "type": "function"
    },
    {
      "inputs": [],
      "name": "comMarketFundPerc",
      "outputs": [
        {
          "internalType": "uint256",
          "name": "",
          "type": "uint256"
        }
      ],
      "stateMutability": "view",
      "type": "function"
    },
    {
      "inputs": [],
      "name": "developFundPerc",
      "outputs": [
        {
          "internalType": "uint256",
          "name": "",
          "type": "uint256"
        }
      ],
      "stateMutability": "view",
      "type": "function"
    },
    {
      "inputs": [],
      "name": "developFundPercPremim",
      "outputs": [
        {
          "internalType": "uint256",
          "name": "",
          "type": "uint256"
        }
      ],
      "stateMutability": "view",
      "type": "function"
    },
    {
      "inputs": [],
      "name": "expertExtraPerc",
      "outputs": [
        {
          "internalType": "uint256",
          "name": "",
          "type": "uint256"
        }
      ],
      "stateMutability": "view",
      "type": "function"
    },
    {
      "inputs": [],
      "name": "expertPerc",
      "outputs": [
        {
          "internalType": "uint256",
          "name": "",
          "type": "uint256"
        }
      ],
      "stateMutability": "view",
      "type": "function"
    },
    {
      "inputs": [],
      "name": "expertPercMint",
      "outputs": [
        {
          "internalType": "uint256",
          "name": "",
          "type": "uint256"
        }
      ],
      "stateMutability": "view",
      "type": "function"
    },
    {
      "inputs": [],
      "name": "expertPremiumPerc",
      "outputs": [
        {
          "internalType": "uint256",
          "name": "",
          "type": "uint256"
        }
      ],
      "stateMutability": "view",
      "type": "function"
    },
    {
      "inputs": [],
      "name": "extraHostPerc",
      "outputs": [
        {
          "internalType": "uint256",
          "name": "",
          "type": "uint256"
        }
      ],
      "stateMutability": "view",
      "type": "function"
    },
    {
      "inputs": [],
      "name": "extraHostPercMint",
      "outputs": [
        {
          "internalType": "uint256",
          "name": "",
          "type": "uint256"
        }
      ],
      "stateMutability": "view",
      "type": "function"
    },
    {
      "inputs": [],
      "name": "firstWithdrawIndex",
      "outputs": [
        {
          "internalType": "uint256",
          "name": "",
          "type": "uint256"
        }
      ],
      "stateMutability": "view",
      "type": "function"
    },
    {
      "inputs": [],
      "name": "hostPerc",
      "outputs": [
        {
          "internalType": "uint256",
          "name": "",
          "type": "uint256"
        }
      ],
      "stateMutability": "view",
      "type": "function"
    },
    {
      "inputs": [],
      "name": "hostPercMint",
      "outputs": [
        {
          "internalType": "uint256",
          "name": "",
          "type": "uint256"
        }
      ],
      "stateMutability": "view",
      "type": "function"
    },
    {
      "inputs": [],
      "name": "moderatorsFundPerc",
      "outputs": [
        {
          "internalType": "uint256",
          "name": "",
          "type": "uint256"
        }
      ],
      "stateMutability": "view",
      "type": "function"
    },
    {
      "inputs": [],
      "name": "owner",
      "outputs": [
        {
          "internalType": "address payable",
          "name": "",
          "type": "address"
        }
      ],
      "stateMutability": "view",
      "type": "function"
    },
    {
      "inputs": [],
      "name": "playersPers",
      "outputs": [
        {
          "internalType": "uint256",
          "name": "",
          "type": "uint256"
        }
      ],
      "stateMutability": "view",
      "type": "function"
    },
    {
      "inputs": [],
      "name": "playersPersMint",
      "outputs": [
        {
          "internalType": "uint256",
          "name": "",
          "type": "uint256"
        }
      ],
      "stateMutability": "view",
      "type": "function"
    },
    {
      "inputs": [],
      "name": "playersPersPremiun",
      "outputs": [
        {
          "internalType": "uint256",
          "name": "",
          "type": "uint256"
        }
      ],
      "stateMutability": "view",
      "type": "function"
    },
    {
      "inputs": [],
      "name": "welcomeBTYTokens",
      "outputs": [
        {
          "internalType": "uint256",
          "name": "",
          "type": "uint256"
        }
      ],
      "stateMutability": "view",
      "type": "function"
    },
    {
      "inputs": [
        {
          "internalType": "uint256",
          "name": "_developFundPerc",
          "type": "uint256"
        }
      ],
      "name": "setDevelopFundPerc",
      "outputs": [],
      "stateMutability": "nonpayable",
      "type": "function"
    },
    {
      "inputs": [
        {
          "internalType": "uint256",
          "name": "_hostPercMint",
          "type": "uint256"
        },
        {
          "internalType": "uint256",
          "name": "_hostPerc",
          "type": "uint256"
        }
      ],
      "name": "setHostPerc",
      "outputs": [],
      "stateMutability": "nonpayable",
      "type": "function"
    },
    {
      "inputs": [
        {
          "internalType": "uint256",
          "name": "_expertPerc",
          "type": "uint256"
        }
      ],
      "name": "setExpertPerc",
      "outputs": [],
      "stateMutability": "nonpayable",
      "type": "function"
    },
    {
      "inputs": [
        {
          "internalType": "uint256",
          "name": "_playersPersMint",
          "type": "uint256"
        }
      ],
      "name": "setPlayerPersMint",
      "outputs": [],
      "stateMutability": "nonpayable",
      "type": "function"
    },
    {
      "inputs": [
        {
          "internalType": "uint256",
          "name": "_firstWithdrawIndex",
          "type": "uint256"
        }
      ],
      "name": "setFirstWithdraw",
      "outputs": [],
      "stateMutability": "nonpayable",
      "type": "function"
    },
    {
      "inputs": [
        {
          "internalType": "uint256",
          "name": "_GFrewards",
          "type": "uint256"
        }
      ],
      "name": "setGFrewards",
      "outputs": [],
      "stateMutability": "nonpayable",
      "type": "function"
    },
    {
      "inputs": [
        {
          "internalType": "uint256",
          "name": "_welcomeBTYTokens",
          "type": "uint256"
        }
      ],
      "name": "setWelcomeBTYTokens",
      "outputs": [],
      "stateMutability": "nonpayable",
      "type": "function"
    },
    {
      "inputs": [
        {
          "internalType": "uint256",
          "name": "_GFindex",
          "type": "uint256"
        }
      ],
      "name": "setGFindex",
      "outputs": [],
      "stateMutability": "nonpayable",
      "type": "function"
    },
    {
      "inputs": [],
      "name": "getGFindex",
      "outputs": [
        {
          "internalType": "uint256",
          "name": "",
          "type": "uint256"
        }
      ],
      "stateMutability": "view",
      "type": "function"
    },
    {
      "inputs": [],
      "name": "getFirstWithdraw",
      "outputs": [
        {
          "internalType": "uint256",
          "name": "",
          "type": "uint256"
        }
      ],
      "stateMutability": "view",
      "type": "function"
    }
  ],
  "bytecode": "0x6080604052600a600055600460015560016002556001600355600a60045560046005556002600655600f600755600260085560016009556032600a55605a600b55604b600c55600a600d5568056bc75e2d63100000600e556064600f55678ac7230489e80000601055600a601255600a6013556005601455600260155534801561008857600080fd5b5033601160006101000a81548173ffffffffffffffffffffffffffffffffffffffff021916908373ffffffffffffffffffffffffffffffffffffffff160217905550610da6806100d96000396000f3fe608060405234801561001057600080fd5b50600436106101f05760003560e01c80639580de671161010f578063d7a86da7116100a2578063e1755c6a11610071578063e1755c6a146105dd578063e1dcc409146105fb578063ef99e09914610619578063f7ec585114610637576101f0565b8063d7a86da714610545578063dba8fe8714610573578063dd3c228314610591578063df185817146105bf576101f0565b8063b44901e8116100de578063b44901e8146104bd578063c12c8c46146104db578063c369085e146104f9578063d70b4bb614610527576101f0565b80639580de671461040b578063a03c669714610439578063af9ace4514610467578063b1642b5014610485576101f0565b806355e84158116101875780638a9dbda7116101565780638a9dbda71461036d5780638da5cb5b1461038b5780638fc8bc42146103bf5780639336e8fd146103dd576101f0565b806355e84158146102f557806373e258ac14610313578063786508c514610331578063896aa7a41461034f576101f0565b806324beedd3116101c357806324beedd31461027d57806327e537171461029b5780632c316d05146102b95780632e63e452146102d7576101f0565b8063134c3b07146101f557806315cfe4191461021357806319d6b7d8146102315780631c4083571461025f575b600080fd5b6101fd610655565b6040518082815260200191505060405180910390f35b61021b61065b565b6040518082815260200191505060405180910390f35b61025d6004803603602081101561024757600080fd5b8101908080359060200190929190505050610661565b005b610267610711565b6040518082815260200191505060405180910390f35b610285610717565b6040518082815260200191505060405180910390f35b6102a361071d565b6040518082815260200191505060405180910390f35b6102c1610723565b6040518082815260200191505060405180910390f35b6102df610729565b6040518082815260200191505060405180910390f35b6102fd61072f565b6040518082815260200191505060405180910390f35b61031b610735565b6040518082815260200191505060405180910390f35b61033961073b565b6040518082815260200191505060405180910390f35b610357610741565b6040518082815260200191505060405180910390f35b610375610747565b6040518082815260200191505060405180910390f35b61039361074d565b604051808273ffffffffffffffffffffffffffffffffffffffff16815260200191505060405180910390f35b6103c7610773565b6040518082815260200191505060405180910390f35b610409600480360360208110156103f357600080fd5b8101908080359060200190929190505050610779565b005b6104376004803603602081101561042157600080fd5b8101908080359060200190929190505050610829565b005b6104656004803603602081101561044f57600080fd5b81019080803590602001909291905050506108d9565b005b61046f610989565b6040518082815260200191505060405180910390f35b6104bb6004803603604081101561049b57600080fd5b81019080803590602001909291908035906020019092919050505061098f565b005b6104c5610a47565b6040518082815260200191505060405180910390f35b6104e3610a4d565b6040518082815260200191505060405180910390f35b6105256004803603602081101561050f57600080fd5b8101908080359060200190929190505050610a53565b005b61052f610b03565b6040518082815260200191505060405180910390f35b6105716004803603602081101561055b57600080fd5b8101908080359060200190929190505050610bb3565b005b61057b610c63565b6040518082815260200191505060405180910390f35b6105bd600480360360208110156105a757600080fd5b8101908080359060200190929190505050610c69565b005b6105c7610d19565b6040518082815260200191505060405180910390f35b6105e5610d1f565b6040518082815260200191505060405180910390f35b610603610d25565b6040518082815260200191505060405180910390f35b610621610d2b565b6040518082815260200191505060405180910390f35b61063f610d39565b6040518082815260200191505060405180910390f35b600c5481565b600f5481565b601160009054906101000a900473ffffffffffffffffffffffffffffffffffffffff1673ffffffffffffffffffffffffffffffffffffffff163373ffffffffffffffffffffffffffffffffffffffff1614610707576040517f08c379a0000000000000000000000000000000000000000000000000000000008152600401808060200182810382526031815260200180610d406031913960400191505060405180910390fd5b8060108190555050565b60125481565b60155481565b600b5481565b60065481565b60105481565b60035481565b600a5481565b60095481565b60055481565b60005481565b601160009054906101000a900473ffffffffffffffffffffffffffffffffffffffff1681565b60015481565b601160009054906101000a900473ffffffffffffffffffffffffffffffffffffffff1673ffffffffffffffffffffffffffffffffffffffff163373ffffffffffffffffffffffffffffffffffffffff161461081f576040517f08c379a0000000000000000000000000000000000000000000000000000000008152600401808060200182810382526031815260200180610d406031913960400191505060405180910390fd5b80600a8190555050565b601160009054906101000a900473ffffffffffffffffffffffffffffffffffffffff1673ffffffffffffffffffffffffffffffffffffffff163373ffffffffffffffffffffffffffffffffffffffff16146108cf576040517f08c379a0000000000000000000000000000000000000000000000000000000008152600401808060200182810382526031815260200180610d406031913960400191505060405180910390fd5b8060058190555050565b601160009054906101000a900473ffffffffffffffffffffffffffffffffffffffff1673ffffffffffffffffffffffffffffffffffffffff163373ffffffffffffffffffffffffffffffffffffffff161461097f576040517f08c379a0000000000000000000000000000000000000000000000000000000008152600401808060200182810382526031815260200180610d406031913960400191505060405180910390fd5b80600d8190555050565b60045481565b601160009054906101000a900473ffffffffffffffffffffffffffffffffffffffff1673ffffffffffffffffffffffffffffffffffffffff163373ffffffffffffffffffffffffffffffffffffffff1614610a35576040517f08c379a0000000000000000000000000000000000000000000000000000000008152600401808060200182810382526031815260200180610d406031913960400191505060405180910390fd5b81600081905550806001819055505050565b600d5481565b60025481565b601160009054906101000a900473ffffffffffffffffffffffffffffffffffffffff1673ffffffffffffffffffffffffffffffffffffffff163373ffffffffffffffffffffffffffffffffffffffff1614610af9576040517f08c379a0000000000000000000000000000000000000000000000000000000008152600401808060200182810382526031815260200180610d406031913960400191505060405180910390fd5b80600f8190555050565b6000601160009054906101000a900473ffffffffffffffffffffffffffffffffffffffff1673ffffffffffffffffffffffffffffffffffffffff163373ffffffffffffffffffffffffffffffffffffffff1614610bab576040517f08c379a0000000000000000000000000000000000000000000000000000000008152600401808060200182810382526031815260200180610d406031913960400191505060405180910390fd5b600f54905090565b601160009054906101000a900473ffffffffffffffffffffffffffffffffffffffff1673ffffffffffffffffffffffffffffffffffffffff163373ffffffffffffffffffffffffffffffffffffffff1614610c59576040517f08c379a0000000000000000000000000000000000000000000000000000000008152600401808060200182810382526031815260200180610d406031913960400191505060405180910390fd5b80600e8190555050565b60075481565b601160009054906101000a900473ffffffffffffffffffffffffffffffffffffffff1673ffffffffffffffffffffffffffffffffffffffff163373ffffffffffffffffffffffffffffffffffffffff1614610d0f576040517f08c379a0000000000000000000000000000000000000000000000000000000008152600401808060200182810382526031815260200180610d406031913960400191505060405180910390fd5b8060128190555050565b600e5481565b60145481565b60135481565b6000600d5460105402905090565b6008548156fe546869732066756e6374696f6e20636f756c64206f6e6c7920626520657865637574656420627920746865206f776e6572a26469706673582212207b2bd876cf45fa7d137a911f9c9e7674c18aa6fc827e758eea3b5e4ce095d48f64736f6c63430007060033",
  "immutableReferences": {},
  "source": "// SPDX-License-Identifier: MIT\npragma solidity >=0.4.22 <0.9.0;\n\ncontract ConfigVariables {\n    // HOST\n    uint public hostPercMint = 10; // mint token percent for host \n    uint public hostPerc = 4; // pay token percent for host\n    uint public extraHostPerc = 1; // if advisor exist we add extra coins to host\n    uint public extraHostPercMint = 1; // if advisor exist we add extra coins to host in mint token\n    // EXPERT\n    uint public expertPercMint = 10; // mint token percent for expert \n    uint public expertPerc = 4; // pay token percent for expert \n    uint public expertExtraPerc = 2; // extra pay token parcent for expert if advisor not exist\n    uint public expertPremiumPerc = 15; // bty percent in premium events for experts\n    // ADVISORS\n    uint public advisorPercMint = 2; // mint token parcent for advisor \n    uint public advisorPepc = 1;  // pay token parcent for advisor \n    // PLAYERS\n    uint public playersPersMint = 50; // mint token percent for players\n    uint public playersPers = 90; // pay token percent for players\n    uint public playersPersPremiun = 75; // pay token percent for players in Premium events\n\n    uint public firstWithdrawIndex = 10; \n    uint public GFrewards = 100000000000000000000;\n    uint public GFindex = 100;\n    uint public welcomeBTYTokens = 10000000000000000000;\n    // Bettery Development Fund\n    address payable public owner; // Bettery Development Fund wallet\n    uint public developFundPerc = 10; // mint token percent for Development Fund\n    uint public developFundPercPremim = 10; // pay token percent for Developement Fund in Premium events\n    uint public comMarketFundPerc = 5; // 5 if advisor exist or comMarketFundPerc + advisorPercMint + extraHostPercMint = 8 if advisor not exist\n    uint public moderatorsFundPerc = 2; // Moderators Fund percent to pay token\n\n    constructor() {\n        owner = msg.sender;\n    }\n\n    modifier ownerOnly() {\n        require(\n            msg.sender == owner,\n            \"This function could only be executed by the owner\"\n        );\n        _;\n    }\n\n    function setDevelopFundPerc(uint _developFundPerc) public ownerOnly() {\n        developFundPerc = _developFundPerc;\n    }\n\n    function setHostPerc(uint _hostPercMint, uint _hostPerc) public ownerOnly() {\n        hostPercMint = _hostPercMint;\n        hostPerc = _hostPerc;\n    }\n\n    function setExpertPerc(uint _expertPerc) public ownerOnly() {\n        expertPerc = _expertPerc;\n    }\n\n    function setPlayerPersMint(uint _playersPersMint) public ownerOnly() {\n        playersPersMint = _playersPersMint;\n    }\n\n    function setFirstWithdraw(uint _firstWithdrawIndex) public ownerOnly() {\n        firstWithdrawIndex = _firstWithdrawIndex;\n    }\n\n    function setGFrewards(uint _GFrewards) public ownerOnly() {\n        GFrewards = _GFrewards;\n    }\n\n    function setWelcomeBTYTokens(uint _welcomeBTYTokens) public ownerOnly() {\n        welcomeBTYTokens = _welcomeBTYTokens;\n    }\n\n    function setGFindex(uint _GFindex) public ownerOnly() {\n        GFindex = _GFindex;\n    }\n\n    function getGFindex() public ownerOnly() view returns(uint) {\n        return GFindex;\n    }\n\n    function getFirstWithdraw() public view returns (uint) {\n        return welcomeBTYTokens * firstWithdrawIndex;\n    }\n}\n",
  "sourcePath": "/Users/macbook/Documents/freelance/tokenominc/contracts/config/ConfigVariables.sol",
  "compiler": {
    "name": "solc",
    "version": "0.7.6+commit.7338295f.Linux.g++"
  },
  "schemaVersion": "3.3.4",
  "updatedAt": "2021-03-12T09:54:31.167Z",
  "devdoc": {
    "kind": "dev",
    "methods": {},
    "version": 1
  },
  "userdoc": {
    "kind": "user",
    "methods": {},
    "version": 1
  }
}