{
  "contractName": "ConfigVariables",
  "abi": [
    {
      "inputs": [],
      "stateMutability": "nonpayable",
      "type": "constructor"
    },
    {
      "inputs": [],
      "name": "GFindex",
      "outputs": [
        {
          "internalType": "uint256",
          "name": "",
          "type": "uint256"
        }
      ],
      "stateMutability": "view",
      "type": "function"
    },
    {
      "inputs": [],
      "name": "GFrewards",
      "outputs": [
        {
          "internalType": "uint256",
          "name": "",
          "type": "uint256"
        }
      ],
      "stateMutability": "view",
      "type": "function"
    },
    {
      "inputs": [],
      "name": "advisorPepc",
      "outputs": [
        {
          "internalType": "uint256",
          "name": "",
          "type": "uint256"
        }
      ],
      "stateMutability": "view",
      "type": "function"
    },
    {
      "inputs": [],
      "name": "advisorPercMint",
      "outputs": [
        {
          "internalType": "uint256",
          "name": "",
          "type": "uint256"
        }
      ],
      "stateMutability": "view",
      "type": "function"
    },
    {
      "inputs": [],
      "name": "comMarketFundPerc",
      "outputs": [
        {
          "internalType": "uint256",
          "name": "",
          "type": "uint256"
        }
      ],
      "stateMutability": "view",
      "type": "function"
    },
    {
      "inputs": [],
      "name": "comMarketFundWallet",
      "outputs": [
        {
          "internalType": "address payable",
          "name": "",
          "type": "address"
        }
      ],
      "stateMutability": "view",
      "type": "function"
    },
    {
      "inputs": [],
      "name": "developFundPerc",
      "outputs": [
        {
          "internalType": "uint256",
          "name": "",
          "type": "uint256"
        }
      ],
      "stateMutability": "view",
      "type": "function"
    },
    {
      "inputs": [],
      "name": "developFundPercPremim",
      "outputs": [
        {
          "internalType": "uint256",
          "name": "",
          "type": "uint256"
        }
      ],
      "stateMutability": "view",
      "type": "function"
    },
    {
      "inputs": [],
      "name": "expertExtraPerc",
      "outputs": [
        {
          "internalType": "uint256",
          "name": "",
          "type": "uint256"
        }
      ],
      "stateMutability": "view",
      "type": "function"
    },
    {
      "inputs": [],
      "name": "expertPerc",
      "outputs": [
        {
          "internalType": "uint256",
          "name": "",
          "type": "uint256"
        }
      ],
      "stateMutability": "view",
      "type": "function"
    },
    {
      "inputs": [],
      "name": "expertPercMint",
      "outputs": [
        {
          "internalType": "uint256",
          "name": "",
          "type": "uint256"
        }
      ],
      "stateMutability": "view",
      "type": "function"
    },
    {
      "inputs": [],
      "name": "expertPremiumPerc",
      "outputs": [
        {
          "internalType": "uint256",
          "name": "",
          "type": "uint256"
        }
      ],
      "stateMutability": "view",
      "type": "function"
    },
    {
      "inputs": [],
      "name": "extraHostPerc",
      "outputs": [
        {
          "internalType": "uint256",
          "name": "",
          "type": "uint256"
        }
      ],
      "stateMutability": "view",
      "type": "function"
    },
    {
      "inputs": [],
      "name": "extraHostPercMint",
      "outputs": [
        {
          "internalType": "uint256",
          "name": "",
          "type": "uint256"
        }
      ],
      "stateMutability": "view",
      "type": "function"
    },
    {
      "inputs": [],
      "name": "firstWithdrawIndex",
      "outputs": [
        {
          "internalType": "uint256",
          "name": "",
          "type": "uint256"
        }
      ],
      "stateMutability": "view",
      "type": "function"
    },
    {
      "inputs": [],
      "name": "hostPerc",
      "outputs": [
        {
          "internalType": "uint256",
          "name": "",
          "type": "uint256"
        }
      ],
      "stateMutability": "view",
      "type": "function"
    },
    {
      "inputs": [],
      "name": "hostPercMint",
      "outputs": [
        {
          "internalType": "uint256",
          "name": "",
          "type": "uint256"
        }
      ],
      "stateMutability": "view",
      "type": "function"
    },
    {
      "inputs": [],
      "name": "moderatorsFundPerc",
      "outputs": [
        {
          "internalType": "uint256",
          "name": "",
          "type": "uint256"
        }
      ],
      "stateMutability": "view",
      "type": "function"
    },
    {
      "inputs": [],
      "name": "moderatorsFundWallet",
      "outputs": [
        {
          "internalType": "address payable",
          "name": "",
          "type": "address"
        }
      ],
      "stateMutability": "view",
      "type": "function"
    },
    {
      "inputs": [],
      "name": "owner",
      "outputs": [
        {
          "internalType": "address payable",
          "name": "",
          "type": "address"
        }
      ],
      "stateMutability": "view",
      "type": "function"
    },
    {
      "inputs": [],
      "name": "playersPers",
      "outputs": [
        {
          "internalType": "uint256",
          "name": "",
          "type": "uint256"
        }
      ],
      "stateMutability": "view",
      "type": "function"
    },
    {
      "inputs": [],
      "name": "playersPersMint",
      "outputs": [
        {
          "internalType": "uint256",
          "name": "",
          "type": "uint256"
        }
      ],
      "stateMutability": "view",
      "type": "function"
    },
    {
      "inputs": [],
      "name": "playersPersPremiun",
      "outputs": [
        {
          "internalType": "uint256",
          "name": "",
          "type": "uint256"
        }
      ],
      "stateMutability": "view",
      "type": "function"
    },
    {
      "inputs": [],
      "name": "welcomeBTYTokens",
      "outputs": [
        {
          "internalType": "uint256",
          "name": "",
          "type": "uint256"
        }
      ],
      "stateMutability": "view",
      "type": "function"
    },
    {
      "inputs": [
        {
          "internalType": "uint256",
          "name": "_developFundPerc",
          "type": "uint256"
        }
      ],
      "name": "setDevelopFundPerc",
      "outputs": [],
      "stateMutability": "nonpayable",
      "type": "function"
    },
    {
      "inputs": [
        {
          "internalType": "uint256",
          "name": "_hostPercMint",
          "type": "uint256"
        },
        {
          "internalType": "uint256",
          "name": "_hostPerc",
          "type": "uint256"
        }
      ],
      "name": "setHostPerc",
      "outputs": [],
      "stateMutability": "nonpayable",
      "type": "function"
    },
    {
      "inputs": [
        {
          "internalType": "uint256",
          "name": "_expertPerc",
          "type": "uint256"
        }
      ],
      "name": "setExpertPerc",
      "outputs": [],
      "stateMutability": "nonpayable",
      "type": "function"
    },
    {
      "inputs": [
        {
          "internalType": "uint256",
          "name": "_playersPersMint",
          "type": "uint256"
        }
      ],
      "name": "setPlayerPersMint",
      "outputs": [],
      "stateMutability": "nonpayable",
      "type": "function"
    },
    {
      "inputs": [
        {
          "internalType": "uint256",
          "name": "_firstWithdrawIndex",
          "type": "uint256"
        }
      ],
      "name": "setFirstWithdraw",
      "outputs": [],
      "stateMutability": "nonpayable",
      "type": "function"
    },
    {
      "inputs": [
        {
          "internalType": "uint256",
          "name": "_GFrewards",
          "type": "uint256"
        }
      ],
      "name": "setGFrewards",
      "outputs": [],
      "stateMutability": "nonpayable",
      "type": "function"
    },
    {
      "inputs": [
        {
          "internalType": "uint256",
          "name": "_welcomeBTYTokens",
          "type": "uint256"
        }
      ],
      "name": "setWelcomeBTYTokens",
      "outputs": [],
      "stateMutability": "nonpayable",
      "type": "function"
    },
    {
      "inputs": [
        {
          "internalType": "uint256",
          "name": "_GFindex",
          "type": "uint256"
        }
      ],
      "name": "setGFindex",
      "outputs": [],
      "stateMutability": "nonpayable",
      "type": "function"
    },
    {
      "inputs": [
        {
          "internalType": "address payable",
          "name": "_wallet",
          "type": "address"
        }
      ],
      "name": "setComMarketFundWallet",
      "outputs": [],
      "stateMutability": "nonpayable",
      "type": "function"
    },
    {
      "inputs": [
        {
          "internalType": "address payable",
          "name": "_wallet",
          "type": "address"
        }
      ],
      "name": "setModeratorsFundWallet",
      "outputs": [],
      "stateMutability": "nonpayable",
      "type": "function"
    },
    {
      "inputs": [],
      "name": "getFirstWithdraw",
      "outputs": [
        {
          "internalType": "uint256",
          "name": "",
          "type": "uint256"
        }
      ],
      "stateMutability": "view",
      "type": "function"
    }
  ],
  "bytecode": "0x6080604052600a600055600460015560016002556001600355600a60045560046005556002600655600f600755600260085560016009556032600a55605a600b55604b600c55600a600d5568056bc75e2d63100000600e556001600f55678ac7230489e80000601055600a601255600a6013556005601555600260175534801561008857600080fd5b5033601160006101000a81548173ffffffffffffffffffffffffffffffffffffffff021916908373ffffffffffffffffffffffffffffffffffffffff160217905550611009806100d96000396000f3fe608060405234801561001057600080fd5b50600436106102115760003560e01c80638fc8bc4211610125578063c369085e116100ad578063df1858171161007c578063df185817146106b2578063e1755c6a146106d0578063e1dcc409146106ee578063ef99e0991461070c578063f7ec58511461072a57610211565b8063c369085e1461060a578063d7a86da714610638578063dba8fe8714610666578063dd3c22831461068457610211565b8063a03c6697116100f4578063a03c66971461054a578063af9ace4514610578578063b1642b5014610596578063b44901e8146105ce578063c12c8c46146105ec57610211565b80638fc8bc421461048c578063903a19cf146104aa5780639336e8fd146104ee5780639580de671461051c57610211565b80632e63e452116101a8578063786508c511610177578063786508c5146103ca578063802cc34c146103e8578063896aa7a41461041c5780638a9dbda71461043a5780638da5cb5b1461045857610211565b80632e63e4521461033c5780633467f6971461035a57806355e841581461038e57806373e258ac146103ac57610211565b806324045aad116101e457806324045aad1461029e57806324beedd3146102e257806327e53717146103005780632c316d051461031e57610211565b8063134c3b071461021657806315cfe4191461023457806319d6b7d8146102525780631c40835714610280575b600080fd5b61021e610748565b6040518082815260200191505060405180910390f35b61023c61074e565b6040518082815260200191505060405180910390f35b61027e6004803603602081101561026857600080fd5b8101908080359060200190929190505050610754565b005b610288610804565b6040518082815260200191505060405180910390f35b6102e0600480360360208110156102b457600080fd5b81019080803573ffffffffffffffffffffffffffffffffffffffff16906020019092919050505061080a565b005b6102ea6108f4565b6040518082815260200191505060405180910390f35b6103086108fa565b6040518082815260200191505060405180910390f35b610326610900565b6040518082815260200191505060405180910390f35b610344610906565b6040518082815260200191505060405180910390f35b61036261090c565b604051808273ffffffffffffffffffffffffffffffffffffffff16815260200191505060405180910390f35b610396610932565b6040518082815260200191505060405180910390f35b6103b4610938565b6040518082815260200191505060405180910390f35b6103d261093e565b6040518082815260200191505060405180910390f35b6103f0610944565b604051808273ffffffffffffffffffffffffffffffffffffffff16815260200191505060405180910390f35b61042461096a565b6040518082815260200191505060405180910390f35b610442610970565b6040518082815260200191505060405180910390f35b610460610976565b604051808273ffffffffffffffffffffffffffffffffffffffff16815260200191505060405180910390f35b61049461099c565b6040518082815260200191505060405180910390f35b6104ec600480360360208110156104c057600080fd5b81019080803573ffffffffffffffffffffffffffffffffffffffff1690602001909291905050506109a2565b005b61051a6004803603602081101561050457600080fd5b8101908080359060200190929190505050610a8c565b005b6105486004803603602081101561053257600080fd5b8101908080359060200190929190505050610b3c565b005b6105766004803603602081101561056057600080fd5b8101908080359060200190929190505050610bec565b005b610580610c9c565b6040518082815260200191505060405180910390f35b6105cc600480360360408110156105ac57600080fd5b810190808035906020019092919080359060200190929190505050610ca2565b005b6105d6610d5a565b6040518082815260200191505060405180910390f35b6105f4610d60565b6040518082815260200191505060405180910390f35b6106366004803603602081101561062057600080fd5b8101908080359060200190929190505050610d66565b005b6106646004803603602081101561064e57600080fd5b8101908080359060200190929190505050610e16565b005b61066e610ec6565b6040518082815260200191505060405180910390f35b6106b06004803603602081101561069a57600080fd5b8101908080359060200190929190505050610ecc565b005b6106ba610f7c565b6040518082815260200191505060405180910390f35b6106d8610f82565b6040518082815260200191505060405180910390f35b6106f6610f88565b6040518082815260200191505060405180910390f35b610714610f8e565b6040518082815260200191505060405180910390f35b610732610f9c565b6040518082815260200191505060405180910390f35b600c5481565b600f5481565b601160009054906101000a900473ffffffffffffffffffffffffffffffffffffffff1673ffffffffffffffffffffffffffffffffffffffff163373ffffffffffffffffffffffffffffffffffffffff16146107fa576040517f08c379a0000000000000000000000000000000000000000000000000000000008152600401808060200182810382526031815260200180610fa36031913960400191505060405180910390fd5b8060108190555050565b60125481565b601160009054906101000a900473ffffffffffffffffffffffffffffffffffffffff1673ffffffffffffffffffffffffffffffffffffffff163373ffffffffffffffffffffffffffffffffffffffff16146108b0576040517f08c379a0000000000000000000000000000000000000000000000000000000008152600401808060200182810382526031815260200180610fa36031913960400191505060405180910390fd5b80601660006101000a81548173ffffffffffffffffffffffffffffffffffffffff021916908373ffffffffffffffffffffffffffffffffffffffff16021790555050565b60175481565b600b5481565b60065481565b60105481565b601660009054906101000a900473ffffffffffffffffffffffffffffffffffffffff1681565b60035481565b600a5481565b60095481565b601460009054906101000a900473ffffffffffffffffffffffffffffffffffffffff1681565b60055481565b60005481565b601160009054906101000a900473ffffffffffffffffffffffffffffffffffffffff1681565b60015481565b601160009054906101000a900473ffffffffffffffffffffffffffffffffffffffff1673ffffffffffffffffffffffffffffffffffffffff163373ffffffffffffffffffffffffffffffffffffffff1614610a48576040517f08c379a0000000000000000000000000000000000000000000000000000000008152600401808060200182810382526031815260200180610fa36031913960400191505060405180910390fd5b80601460006101000a81548173ffffffffffffffffffffffffffffffffffffffff021916908373ffffffffffffffffffffffffffffffffffffffff16021790555050565b601160009054906101000a900473ffffffffffffffffffffffffffffffffffffffff1673ffffffffffffffffffffffffffffffffffffffff163373ffffffffffffffffffffffffffffffffffffffff1614610b32576040517f08c379a0000000000000000000000000000000000000000000000000000000008152600401808060200182810382526031815260200180610fa36031913960400191505060405180910390fd5b80600a8190555050565b601160009054906101000a900473ffffffffffffffffffffffffffffffffffffffff1673ffffffffffffffffffffffffffffffffffffffff163373ffffffffffffffffffffffffffffffffffffffff1614610be2576040517f08c379a0000000000000000000000000000000000000000000000000000000008152600401808060200182810382526031815260200180610fa36031913960400191505060405180910390fd5b8060058190555050565b601160009054906101000a900473ffffffffffffffffffffffffffffffffffffffff1673ffffffffffffffffffffffffffffffffffffffff163373ffffffffffffffffffffffffffffffffffffffff1614610c92576040517f08c379a0000000000000000000000000000000000000000000000000000000008152600401808060200182810382526031815260200180610fa36031913960400191505060405180910390fd5b80600d8190555050565b60045481565b601160009054906101000a900473ffffffffffffffffffffffffffffffffffffffff1673ffffffffffffffffffffffffffffffffffffffff163373ffffffffffffffffffffffffffffffffffffffff1614610d48576040517f08c379a0000000000000000000000000000000000000000000000000000000008152600401808060200182810382526031815260200180610fa36031913960400191505060405180910390fd5b81600081905550806001819055505050565b600d5481565b60025481565b601160009054906101000a900473ffffffffffffffffffffffffffffffffffffffff1673ffffffffffffffffffffffffffffffffffffffff163373ffffffffffffffffffffffffffffffffffffffff1614610e0c576040517f08c379a0000000000000000000000000000000000000000000000000000000008152600401808060200182810382526031815260200180610fa36031913960400191505060405180910390fd5b80600f8190555050565b601160009054906101000a900473ffffffffffffffffffffffffffffffffffffffff1673ffffffffffffffffffffffffffffffffffffffff163373ffffffffffffffffffffffffffffffffffffffff1614610ebc576040517f08c379a0000000000000000000000000000000000000000000000000000000008152600401808060200182810382526031815260200180610fa36031913960400191505060405180910390fd5b80600e8190555050565b60075481565b601160009054906101000a900473ffffffffffffffffffffffffffffffffffffffff1673ffffffffffffffffffffffffffffffffffffffff163373ffffffffffffffffffffffffffffffffffffffff1614610f72576040517f08c379a0000000000000000000000000000000000000000000000000000000008152600401808060200182810382526031815260200180610fa36031913960400191505060405180910390fd5b8060128190555050565b600e5481565b60155481565b60135481565b6000600d5460105402905090565b6008548156fe546869732066756e6374696f6e20636f756c64206f6e6c7920626520657865637574656420627920746865206f776e6572a26469706673582212200877208817a193d9943a79c6881c5ddd05b2803c9fa1b0f911c17e3c6f76dcf264736f6c63430007060033",
  "immutableReferences": {},
  "source": "// SPDX-License-Identifier: MIT\npragma solidity >=0.4.22 <0.9.0;\n\ncontract ConfigVariables {\n    // HOST\n    uint256 public hostPercMint = 10; // mint token percent for host \n    uint256 public hostPerc = 4; // pay token percent for host\n    uint256 public extraHostPerc = 1; // if advisor exist we add extra coins to host\n    uint256 public extraHostPercMint = 1; // if advisor exist we add extra coins to host in mint token\n    // EXPERT\n    uint256 public expertPercMint = 10; // mint token percent for expert \n    uint256 public expertPerc = 4; // pay token percent for expert \n    uint256 public expertExtraPerc = 2; // extra pay token parcent for expert if advisor not exist\n    uint256 public expertPremiumPerc = 15; // bty percent in premium events for experts\n    // ADVISORS\n    uint256 public advisorPercMint = 2; // mint token parcent for advisor \n    uint256 public advisorPepc = 1;  // pay token parcent for advisor \n    // PLAYERS\n    uint256 public playersPersMint = 50; // mint token percent for players\n    uint256 public playersPers = 90; // pay token percent for players\n    uint256 public playersPersPremiun = 75; // pay token percent for players in Premium events\n\n    uint256 public firstWithdrawIndex = 10; \n    uint256 public GFrewards = 100000000000000000000;\n    uint256 public GFindex = 1;\n    uint256 public welcomeBTYTokens = 10000000000000000000;\n    // Bettery Development Fund\n    address payable public owner; // Bettery Development Fund wallet\n    uint256 public developFundPerc = 10; // mint token percent for Development Fund\n    uint256 public developFundPercPremim = 10; // pay token percent for Developement Fund in Premium events\n    // Community Market Fund\n    address payable public comMarketFundWallet; // Community Market Fund wallet\n    uint256 public comMarketFundPerc = 5; // 5 if advisor exist or comMarketFundPerc + advisorPercMint + extraHostPercMint = 8 if advisor not exist\n    // Moderators Fund\n    address payable public moderatorsFundWallet; // Moderators Fund wallet\n    uint256 public moderatorsFundPerc = 2; // Moderators Fund percent to pay token\n\n    constructor() {\n        owner = msg.sender;\n    }\n\n    modifier ownerOnly() {\n        require(\n            msg.sender == owner,\n            \"This function could only be executed by the owner\"\n        );\n        _;\n    }\n\n    function setDevelopFundPerc(uint256 _developFundPerc) public ownerOnly() {\n        developFundPerc = _developFundPerc;\n    }\n\n    function setHostPerc(uint256 _hostPercMint, uint256 _hostPerc) public ownerOnly() {\n        hostPercMint = _hostPercMint;\n        hostPerc = _hostPerc;\n    }\n\n    function setExpertPerc(uint256 _expertPerc) public ownerOnly() {\n        expertPerc = _expertPerc;\n    }\n\n    function setPlayerPersMint(uint256 _playersPersMint) public ownerOnly() {\n        playersPersMint = _playersPersMint;\n    }\n\n    function setFirstWithdraw(uint256 _firstWithdrawIndex) public ownerOnly() {\n        firstWithdrawIndex = _firstWithdrawIndex;\n    }\n\n    function setGFrewards(uint256 _GFrewards) public ownerOnly() {\n        GFrewards = _GFrewards;\n    }\n\n    function setWelcomeBTYTokens(uint256 _welcomeBTYTokens) public ownerOnly() {\n        welcomeBTYTokens = _welcomeBTYTokens;\n    }\n\n    function setGFindex(uint256 _GFindex) public ownerOnly() {\n        GFindex = _GFindex;\n    }\n\n    function setComMarketFundWallet(address payable _wallet) public ownerOnly() {\n        comMarketFundWallet = _wallet;\n    }\n\n    function setModeratorsFundWallet(address payable _wallet) public ownerOnly() {\n        moderatorsFundWallet = _wallet;\n    }\n\n    function getFirstWithdraw() public view returns (uint256) {\n        return welcomeBTYTokens * firstWithdrawIndex;\n    }\n}\n",
  "sourcePath": "/Users/macbook/Documents/freelance/tokenominc/contracts/config/ConfigVariables.sol",
  "compiler": {
    "name": "solc",
    "version": "0.7.6+commit.7338295f.Linux.g++"
  },
  "schemaVersion": "3.3.4",
  "updatedAt": "2021-03-11T12:59:30.603Z",
  "devdoc": {
    "kind": "dev",
    "methods": {},
    "version": 1
  },
  "userdoc": {
    "kind": "user",
    "methods": {},
    "version": 1
  }
}