{
  "contractName": "ConfigVariables",
  "abi": [
    {
      "inputs": [],
      "stateMutability": "nonpayable",
      "type": "constructor"
    },
    {
      "inputs": [
        {
          "internalType": "uint256",
          "name": "_companyPerc",
          "type": "uint256"
        }
      ],
      "name": "setCompanyPerc",
      "outputs": [],
      "stateMutability": "nonpayable",
      "type": "function"
    },
    {
      "inputs": [
        {
          "internalType": "uint256",
          "name": "_hostPerc",
          "type": "uint256"
        }
      ],
      "name": "setHostPerc",
      "outputs": [],
      "stateMutability": "nonpayable",
      "type": "function"
    },
    {
      "inputs": [
        {
          "internalType": "uint256",
          "name": "_expertPerc",
          "type": "uint256"
        }
      ],
      "name": "setExpertPerc",
      "outputs": [],
      "stateMutability": "nonpayable",
      "type": "function"
    },
    {
      "inputs": [
        {
          "internalType": "uint256",
          "name": "_playerPers",
          "type": "uint256"
        }
      ],
      "name": "setPlayerPers",
      "outputs": [],
      "stateMutability": "nonpayable",
      "type": "function"
    },
    {
      "inputs": [
        {
          "internalType": "uint256",
          "name": "_firstWithdrawIndex",
          "type": "uint256"
        }
      ],
      "name": "setFirstWithdraw",
      "outputs": [],
      "stateMutability": "nonpayable",
      "type": "function"
    },
    {
      "inputs": [
        {
          "internalType": "uint256",
          "name": "_GFrewards",
          "type": "uint256"
        }
      ],
      "name": "setGFrewards",
      "outputs": [],
      "stateMutability": "nonpayable",
      "type": "function"
    },
    {
      "inputs": [
        {
          "internalType": "uint256",
          "name": "_welcomeBTYTokens",
          "type": "uint256"
        }
      ],
      "name": "setWelcomeBTYTokens",
      "outputs": [],
      "stateMutability": "nonpayable",
      "type": "function"
    },
    {
      "inputs": [
        {
          "internalType": "uint256",
          "name": "_GFindex",
          "type": "uint256"
        }
      ],
      "name": "setGFindex",
      "outputs": [],
      "stateMutability": "nonpayable",
      "type": "function"
    },
    {
      "inputs": [],
      "name": "getCompanyPerc",
      "outputs": [
        {
          "internalType": "uint256",
          "name": "",
          "type": "uint256"
        }
      ],
      "stateMutability": "view",
      "type": "function"
    },
    {
      "inputs": [],
      "name": "getHostPerc",
      "outputs": [
        {
          "internalType": "uint256",
          "name": "",
          "type": "uint256"
        }
      ],
      "stateMutability": "view",
      "type": "function"
    },
    {
      "inputs": [],
      "name": "getExpertPerc",
      "outputs": [
        {
          "internalType": "uint256",
          "name": "",
          "type": "uint256"
        }
      ],
      "stateMutability": "view",
      "type": "function"
    },
    {
      "inputs": [],
      "name": "getPlayerPers",
      "outputs": [
        {
          "internalType": "uint256",
          "name": "",
          "type": "uint256"
        }
      ],
      "stateMutability": "view",
      "type": "function"
    },
    {
      "inputs": [],
      "name": "getFirstWithdraw",
      "outputs": [
        {
          "internalType": "uint256",
          "name": "",
          "type": "uint256"
        }
      ],
      "stateMutability": "view",
      "type": "function"
    },
    {
      "inputs": [],
      "name": "getGFrewards",
      "outputs": [
        {
          "internalType": "uint256",
          "name": "",
          "type": "uint256"
        }
      ],
      "stateMutability": "view",
      "type": "function"
    },
    {
      "inputs": [],
      "name": "getGFindex",
      "outputs": [
        {
          "internalType": "uint256",
          "name": "",
          "type": "uint256"
        }
      ],
      "stateMutability": "view",
      "type": "function"
    },
    {
      "inputs": [],
      "name": "getWelcomeBTYTokens",
      "outputs": [
        {
          "internalType": "uint256",
          "name": "",
          "type": "uint256"
        }
      ],
      "stateMutability": "view",
      "type": "function"
    }
  ],
  "bytecode": "0x6080604052600a60055568056bc75e2d631000006006556001600755678ac7230489e8000060085534801561003357600080fd5b5033600460006101000a81548173ffffffffffffffffffffffffffffffffffffffff021916908373ffffffffffffffffffffffffffffffffffffffff16021790555061099f806100846000396000f3fe608060405234801561001057600080fd5b50600436106101005760003560e01c8063be8968aa11610097578063d7a86da711610066578063d7a86da7146102cd578063e1aea523146102fb578063e640a53314610329578063ef99e0991461034757610100565b8063be8968aa14610245578063c369085e14610263578063ca2f2f7a14610291578063d70b4bb6146102af57610100565b8063782f4a4f116100d3578063782f4a4f146101ad5780639580de67146101cb578063997862cb146101f9578063a03c66971461021757610100565b80630328ff4a1461010557806319d6b7d81461013357806324467c4514610161578063282dc5461461018f575b600080fd5b6101316004803603602081101561011b57600080fd5b8101908080359060200190929190505050610365565b005b61015f6004803603602081101561014957600080fd5b8101908080359060200190929190505050610415565b005b61018d6004803603602081101561017757600080fd5b81019080803590602001909291905050506104c5565b005b610197610575565b6040518082815260200191505060405180910390f35b6101b561057f565b6040518082815260200191505060405180910390f35b6101f7600480360360208110156101e157600080fd5b8101908080359060200190929190505050610589565b005b610201610639565b6040518082815260200191505060405180910390f35b6102436004803603602081101561022d57600080fd5b8101908080359060200190929190505050610643565b005b61024d6106f3565b6040518082815260200191505060405180910390f35b61028f6004803603602081101561027957600080fd5b81019080803590602001909291905050506106fd565b005b6102996107ad565b6040518082815260200191505060405180910390f35b6102b76107b6565b6040518082815260200191505060405180910390f35b6102f9600480360360208110156102e357600080fd5b81019080803590602001909291905050506107c0565b005b6103276004803603602081101561031157600080fd5b8101908080359060200190929190505050610870565b005b610331610920565b6040518082815260200191505060405180910390f35b61034f61092a565b6040518082815260200191505060405180910390f35b600460009054906101000a900473ffffffffffffffffffffffffffffffffffffffff1673ffffffffffffffffffffffffffffffffffffffff163373ffffffffffffffffffffffffffffffffffffffff161461040b576040517f08c379a00000000000000000000000000000000000000000000000000000000081526004018080602001828103825260318152602001806109396031913960400191505060405180910390fd5b8060018190555050565b600460009054906101000a900473ffffffffffffffffffffffffffffffffffffffff1673ffffffffffffffffffffffffffffffffffffffff163373ffffffffffffffffffffffffffffffffffffffff16146104bb576040517f08c379a00000000000000000000000000000000000000000000000000000000081526004018080602001828103825260318152602001806109396031913960400191505060405180910390fd5b8060088190555050565b600460009054906101000a900473ffffffffffffffffffffffffffffffffffffffff1673ffffffffffffffffffffffffffffffffffffffff163373ffffffffffffffffffffffffffffffffffffffff161461056b576040517f08c379a00000000000000000000000000000000000000000000000000000000081526004018080602001828103825260318152602001806109396031913960400191505060405180910390fd5b8060008190555050565b6000600854905090565b6000600654905090565b600460009054906101000a900473ffffffffffffffffffffffffffffffffffffffff1673ffffffffffffffffffffffffffffffffffffffff163373ffffffffffffffffffffffffffffffffffffffff161461062f576040517f08c379a00000000000000000000000000000000000000000000000000000000081526004018080602001828103825260318152602001806109396031913960400191505060405180910390fd5b8060028190555050565b6000600354905090565b600460009054906101000a900473ffffffffffffffffffffffffffffffffffffffff1673ffffffffffffffffffffffffffffffffffffffff163373ffffffffffffffffffffffffffffffffffffffff16146106e9576040517f08c379a00000000000000000000000000000000000000000000000000000000081526004018080602001828103825260318152602001806109396031913960400191505060405180910390fd5b8060058190555050565b6000600154905090565b600460009054906101000a900473ffffffffffffffffffffffffffffffffffffffff1673ffffffffffffffffffffffffffffffffffffffff163373ffffffffffffffffffffffffffffffffffffffff16146107a3576040517f08c379a00000000000000000000000000000000000000000000000000000000081526004018080602001828103825260318152602001806109396031913960400191505060405180910390fd5b8060078190555050565b60008054905090565b6000600754905090565b600460009054906101000a900473ffffffffffffffffffffffffffffffffffffffff1673ffffffffffffffffffffffffffffffffffffffff163373ffffffffffffffffffffffffffffffffffffffff1614610866576040517f08c379a00000000000000000000000000000000000000000000000000000000081526004018080602001828103825260318152602001806109396031913960400191505060405180910390fd5b8060068190555050565b600460009054906101000a900473ffffffffffffffffffffffffffffffffffffffff1673ffffffffffffffffffffffffffffffffffffffff163373ffffffffffffffffffffffffffffffffffffffff1614610916576040517f08c379a00000000000000000000000000000000000000000000000000000000081526004018080602001828103825260318152602001806109396031913960400191505060405180910390fd5b8060038190555050565b6000600254905090565b60006005546008540290509056fe546869732066756e6374696f6e20636f756c64206f6e6c7920626520657865637574656420627920746865206f776e6572a2646970667358221220fe2800703795d29c3b5e4cb924deb0ce23fc3542c62ef846372520f1df994f0964736f6c63430007060033",
  "immutableReferences": {},
  "source": "// SPDX-License-Identifier: MIT\npragma solidity >=0.4.22 <0.9.0;\n\ncontract ConfigVariables {\n    uint256 private companyPerc;\n    uint256 private hostPerc;\n    uint256 private expertPerc;\n    uint256 private playerPers;\n    address private owner;\n    uint256 private firstWithdrawIndex = 10;\n    uint256 private GFrewards = 100000000000000000000;\n    uint256 private GFindex = 1;\n    uint256 private welcomeBTYTokens = 10000000000000000000;\n\n    constructor() {\n        owner = msg.sender;\n    }\n\n    modifier ownerOnly() {\n        require(\n            msg.sender == owner,\n            \"This function could only be executed by the owner\"\n        );\n        _;\n    }\n\n    function setCompanyPerc(uint256 _companyPerc) public ownerOnly() {\n        companyPerc = _companyPerc;\n    }\n\n    function setHostPerc(uint256 _hostPerc) public ownerOnly() {\n        hostPerc = _hostPerc;\n    }\n\n    function setExpertPerc(uint256 _expertPerc) public ownerOnly() {\n        expertPerc = _expertPerc;\n    }\n\n    function setPlayerPers(uint256 _playerPers) public ownerOnly() {\n        playerPers = _playerPers;\n    }\n\n    function setFirstWithdraw(uint256 _firstWithdrawIndex) public ownerOnly() {\n        firstWithdrawIndex = _firstWithdrawIndex;\n    }\n\n    function setGFrewards(uint256 _GFrewards) public ownerOnly() {\n        GFrewards = _GFrewards;\n    }\n\n    function setWelcomeBTYTokens(uint256 _welcomeBTYTokens) public ownerOnly() {\n        welcomeBTYTokens = _welcomeBTYTokens;\n    }\n\n    function setGFindex(uint256 _GFindex) public ownerOnly() {\n        GFindex = _GFindex;\n    }\n\n    function getCompanyPerc() public view returns (uint256) {\n        return companyPerc;\n    }\n\n    function getHostPerc() public view returns (uint256) {\n        return hostPerc;\n    }\n\n    function getExpertPerc() public view returns (uint256) {\n        return expertPerc;\n    }\n\n    function getPlayerPers() public view returns (uint256) {\n        return playerPers;\n    }\n\n    function getFirstWithdraw() public view returns (uint256) {\n        return welcomeBTYTokens * firstWithdrawIndex;\n    }\n\n    function getGFrewards() public view returns (uint256) {\n        return GFrewards;\n    }\n\n    function getGFindex() public view returns (uint256) {\n        return GFindex;\n    }\n\n    function getWelcomeBTYTokens() public view returns (uint256) {\n        return welcomeBTYTokens;\n    }\n}\n",
  "sourcePath": "/Users/macbook/Documents/freelance/tokenominc/contracts/config/ConfigVariables.sol",
  "compiler": {
    "name": "solc",
    "version": "0.7.6+commit.7338295f.Linux.g++"
  },
  "schemaVersion": "3.2.2",
  "updatedAt": "2021-02-23T12:00:59.016Z",
  "devdoc": {
    "kind": "dev",
    "methods": {},
    "version": 1
  },
  "userdoc": {
    "kind": "user",
    "methods": {},
    "version": 1
  }
}