{
  "contractName": "ConfigVariables",
  "abi": [
    {
      "inputs": [],
      "stateMutability": "nonpayable",
      "type": "constructor"
    },
    {
      "inputs": [],
      "name": "GFindex",
      "outputs": [
        {
          "internalType": "uint256",
          "name": "",
          "type": "uint256"
        }
      ],
      "stateMutability": "view",
      "type": "function"
    },
    {
      "inputs": [],
      "name": "GFrewards",
      "outputs": [
        {
          "internalType": "uint256",
          "name": "",
          "type": "uint256"
        }
      ],
      "stateMutability": "view",
      "type": "function"
    },
    {
      "inputs": [],
      "name": "advisorPepc",
      "outputs": [
        {
          "internalType": "uint256",
          "name": "",
          "type": "uint256"
        }
      ],
      "stateMutability": "view",
      "type": "function"
    },
    {
      "inputs": [],
      "name": "advisorPercMint",
      "outputs": [
        {
          "internalType": "uint256",
          "name": "",
          "type": "uint256"
        }
      ],
      "stateMutability": "view",
      "type": "function"
    },
    {
      "inputs": [],
      "name": "comMarketFundPerc",
      "outputs": [
        {
          "internalType": "uint256",
          "name": "",
          "type": "uint256"
        }
      ],
      "stateMutability": "view",
      "type": "function"
    },
    {
      "inputs": [],
      "name": "comMarketFundWallet",
      "outputs": [
        {
          "internalType": "address payable",
          "name": "",
          "type": "address"
        }
      ],
      "stateMutability": "view",
      "type": "function"
    },
    {
      "inputs": [],
      "name": "developFundPerc",
      "outputs": [
        {
          "internalType": "uint256",
          "name": "",
          "type": "uint256"
        }
      ],
      "stateMutability": "view",
      "type": "function"
    },
    {
      "inputs": [],
      "name": "developFundPercPremim",
      "outputs": [
        {
          "internalType": "uint256",
          "name": "",
          "type": "uint256"
        }
      ],
      "stateMutability": "view",
      "type": "function"
    },
    {
      "inputs": [],
      "name": "expertExtraPerc",
      "outputs": [
        {
          "internalType": "uint256",
          "name": "",
          "type": "uint256"
        }
      ],
      "stateMutability": "view",
      "type": "function"
    },
    {
      "inputs": [],
      "name": "expertPerc",
      "outputs": [
        {
          "internalType": "uint256",
          "name": "",
          "type": "uint256"
        }
      ],
      "stateMutability": "view",
      "type": "function"
    },
    {
      "inputs": [],
      "name": "expertPercMint",
      "outputs": [
        {
          "internalType": "uint256",
          "name": "",
          "type": "uint256"
        }
      ],
      "stateMutability": "view",
      "type": "function"
    },
    {
      "inputs": [],
      "name": "expertPremiumPerc",
      "outputs": [
        {
          "internalType": "uint256",
          "name": "",
          "type": "uint256"
        }
      ],
      "stateMutability": "view",
      "type": "function"
    },
    {
      "inputs": [],
      "name": "extraHostPerc",
      "outputs": [
        {
          "internalType": "uint256",
          "name": "",
          "type": "uint256"
        }
      ],
      "stateMutability": "view",
      "type": "function"
    },
    {
      "inputs": [],
      "name": "extraHostPercMint",
      "outputs": [
        {
          "internalType": "uint256",
          "name": "",
          "type": "uint256"
        }
      ],
      "stateMutability": "view",
      "type": "function"
    },
    {
      "inputs": [],
      "name": "firstWithdrawIndex",
      "outputs": [
        {
          "internalType": "uint256",
          "name": "",
          "type": "uint256"
        }
      ],
      "stateMutability": "view",
      "type": "function"
    },
    {
      "inputs": [],
      "name": "hostPerc",
      "outputs": [
        {
          "internalType": "uint256",
          "name": "",
          "type": "uint256"
        }
      ],
      "stateMutability": "view",
      "type": "function"
    },
    {
      "inputs": [],
      "name": "hostPercMint",
      "outputs": [
        {
          "internalType": "uint256",
          "name": "",
          "type": "uint256"
        }
      ],
      "stateMutability": "view",
      "type": "function"
    },
    {
      "inputs": [],
      "name": "moderatorsFundPerc",
      "outputs": [
        {
          "internalType": "uint256",
          "name": "",
          "type": "uint256"
        }
      ],
      "stateMutability": "view",
      "type": "function"
    },
    {
      "inputs": [],
      "name": "moderatorsFundWallet",
      "outputs": [
        {
          "internalType": "address payable",
          "name": "",
          "type": "address"
        }
      ],
      "stateMutability": "view",
      "type": "function"
    },
    {
      "inputs": [],
      "name": "owner",
      "outputs": [
        {
          "internalType": "address payable",
          "name": "",
          "type": "address"
        }
      ],
      "stateMutability": "view",
      "type": "function"
    },
    {
      "inputs": [],
      "name": "playerPers",
      "outputs": [
        {
          "internalType": "uint256",
          "name": "",
          "type": "uint256"
        }
      ],
      "stateMutability": "view",
      "type": "function"
    },
    {
      "inputs": [],
      "name": "welcomeBTYTokens",
      "outputs": [
        {
          "internalType": "uint256",
          "name": "",
          "type": "uint256"
        }
      ],
      "stateMutability": "view",
      "type": "function"
    },
    {
      "inputs": [
        {
          "internalType": "uint256",
          "name": "_developFundPerc",
          "type": "uint256"
        }
      ],
      "name": "setDevelopFundPerc",
      "outputs": [],
      "stateMutability": "nonpayable",
      "type": "function"
    },
    {
      "inputs": [
        {
          "internalType": "uint256",
          "name": "_hostPercMint",
          "type": "uint256"
        },
        {
          "internalType": "uint256",
          "name": "_hostPerc",
          "type": "uint256"
        }
      ],
      "name": "setHostPerc",
      "outputs": [],
      "stateMutability": "nonpayable",
      "type": "function"
    },
    {
      "inputs": [
        {
          "internalType": "uint256",
          "name": "_expertPerc",
          "type": "uint256"
        }
      ],
      "name": "setExpertPerc",
      "outputs": [],
      "stateMutability": "nonpayable",
      "type": "function"
    },
    {
      "inputs": [
        {
          "internalType": "uint256",
          "name": "_playerPers",
          "type": "uint256"
        }
      ],
      "name": "setPlayerPers",
      "outputs": [],
      "stateMutability": "nonpayable",
      "type": "function"
    },
    {
      "inputs": [
        {
          "internalType": "uint256",
          "name": "_firstWithdrawIndex",
          "type": "uint256"
        }
      ],
      "name": "setFirstWithdraw",
      "outputs": [],
      "stateMutability": "nonpayable",
      "type": "function"
    },
    {
      "inputs": [
        {
          "internalType": "uint256",
          "name": "_GFrewards",
          "type": "uint256"
        }
      ],
      "name": "setGFrewards",
      "outputs": [],
      "stateMutability": "nonpayable",
      "type": "function"
    },
    {
      "inputs": [
        {
          "internalType": "uint256",
          "name": "_welcomeBTYTokens",
          "type": "uint256"
        }
      ],
      "name": "setWelcomeBTYTokens",
      "outputs": [],
      "stateMutability": "nonpayable",
      "type": "function"
    },
    {
      "inputs": [
        {
          "internalType": "uint256",
          "name": "_GFindex",
          "type": "uint256"
        }
      ],
      "name": "setGFindex",
      "outputs": [],
      "stateMutability": "nonpayable",
      "type": "function"
    },
    {
      "inputs": [],
      "name": "getFirstWithdraw",
      "outputs": [
        {
          "internalType": "uint256",
          "name": "",
          "type": "uint256"
        }
      ],
      "stateMutability": "view",
      "type": "function"
    }
  ],
  "bytecode": "0x6080604052600a600055600a600155600a6002556004600355600a60045560046005556002600655600f600755600260085560016009556001600a556001600b55600a600d5568056bc75e2d63100000600e556001600f55678ac7230489e800006010556005601355600260155534801561007957600080fd5b5033601160006101000a81548173ffffffffffffffffffffffffffffffffffffffff021916908373ffffffffffffffffffffffffffffffffffffffff160217905550610d39806100ca6000396000f3fe608060405234801561001057600080fd5b50600436106101e55760003560e01c8063a03c66971161010f578063dba8fe87116100a2578063e1aea52311610071578063e1aea523146105d0578063e1dcc409146105fe578063ef99e0991461061c578063f7ec58511461063a576101e5565b8063dba8fe8714610548578063dd3c228314610566578063df18581714610594578063e1755c6a146105b2576101e5565b8063c12c8c46116100de578063c12c8c46146104b0578063c369085e146104ce578063cd095085146104fc578063d7a86da71461051a576101e5565b8063a03c66971461040e578063af9ace451461043c578063b1642b501461045a578063b44901e814610492576101e5565b806355e84158116101875780638a9dbda7116101565780638a9dbda7146103705780638da5cb5b1461038e5780638fc8bc42146103c25780639580de67146103e0576101e5565b806355e84158146102e2578063786508c514610300578063802cc34c1461031e578063896aa7a414610352576101e5565b806324beedd3116101c357806324beedd3146102545780632c316d05146102725780632e63e452146102905780633467f697146102ae576101e5565b806315cfe419146101ea57806319d6b7d8146102085780631c40835714610236575b600080fd5b6101f2610658565b6040518082815260200191505060405180910390f35b6102346004803603602081101561021e57600080fd5b810190808035906020019092919050505061065e565b005b61023e61070e565b6040518082815260200191505060405180910390f35b61025c610714565b6040518082815260200191505060405180910390f35b61027a61071a565b6040518082815260200191505060405180910390f35b610298610720565b6040518082815260200191505060405180910390f35b6102b6610726565b604051808273ffffffffffffffffffffffffffffffffffffffff16815260200191505060405180910390f35b6102ea61074c565b6040518082815260200191505060405180910390f35b610308610752565b6040518082815260200191505060405180910390f35b610326610758565b604051808273ffffffffffffffffffffffffffffffffffffffff16815260200191505060405180910390f35b61035a61077e565b6040518082815260200191505060405180910390f35b610378610784565b6040518082815260200191505060405180910390f35b61039661078a565b604051808273ffffffffffffffffffffffffffffffffffffffff16815260200191505060405180910390f35b6103ca6107b0565b6040518082815260200191505060405180910390f35b61040c600480360360208110156103f657600080fd5b81019080803590602001909291905050506107b6565b005b61043a6004803603602081101561042457600080fd5b8101908080359060200190929190505050610866565b005b610444610916565b6040518082815260200191505060405180910390f35b6104906004803603604081101561047057600080fd5b81019080803590602001909291908035906020019092919050505061091c565b005b61049a6109d4565b6040518082815260200191505060405180910390f35b6104b86109da565b6040518082815260200191505060405180910390f35b6104fa600480360360208110156104e457600080fd5b81019080803590602001909291905050506109e0565b005b610504610a90565b6040518082815260200191505060405180910390f35b6105466004803603602081101561053057600080fd5b8101908080359060200190929190505050610a96565b005b610550610b46565b6040518082815260200191505060405180910390f35b6105926004803603602081101561057c57600080fd5b8101908080359060200190929190505050610b4c565b005b61059c610bfc565b6040518082815260200191505060405180910390f35b6105ba610c02565b6040518082815260200191505060405180910390f35b6105fc600480360360208110156105e657600080fd5b8101908080359060200190929190505050610c08565b005b610606610cb8565b6040518082815260200191505060405180910390f35b610624610cbe565b6040518082815260200191505060405180910390f35b610642610ccc565b6040518082815260200191505060405180910390f35b600f5481565b601160009054906101000a900473ffffffffffffffffffffffffffffffffffffffff1673ffffffffffffffffffffffffffffffffffffffff163373ffffffffffffffffffffffffffffffffffffffff1614610704576040517f08c379a0000000000000000000000000000000000000000000000000000000008152600401808060200182810382526031815260200180610cd36031913960400191505060405180910390fd5b8060108190555050565b60005481565b60155481565b60065481565b60105481565b601460009054906101000a900473ffffffffffffffffffffffffffffffffffffffff1681565b600b5481565b60095481565b601260009054906101000a900473ffffffffffffffffffffffffffffffffffffffff1681565b60055481565b60025481565b601160009054906101000a900473ffffffffffffffffffffffffffffffffffffffff1681565b60035481565b601160009054906101000a900473ffffffffffffffffffffffffffffffffffffffff1673ffffffffffffffffffffffffffffffffffffffff163373ffffffffffffffffffffffffffffffffffffffff161461085c576040517f08c379a0000000000000000000000000000000000000000000000000000000008152600401808060200182810382526031815260200180610cd36031913960400191505060405180910390fd5b8060058190555050565b601160009054906101000a900473ffffffffffffffffffffffffffffffffffffffff1673ffffffffffffffffffffffffffffffffffffffff163373ffffffffffffffffffffffffffffffffffffffff161461090c576040517f08c379a0000000000000000000000000000000000000000000000000000000008152600401808060200182810382526031815260200180610cd36031913960400191505060405180910390fd5b80600d8190555050565b60045481565b601160009054906101000a900473ffffffffffffffffffffffffffffffffffffffff1673ffffffffffffffffffffffffffffffffffffffff163373ffffffffffffffffffffffffffffffffffffffff16146109c2576040517f08c379a0000000000000000000000000000000000000000000000000000000008152600401808060200182810382526031815260200180610cd36031913960400191505060405180910390fd5b81600281905550806003819055505050565b600d5481565b600a5481565b601160009054906101000a900473ffffffffffffffffffffffffffffffffffffffff1673ffffffffffffffffffffffffffffffffffffffff163373ffffffffffffffffffffffffffffffffffffffff1614610a86576040517f08c379a0000000000000000000000000000000000000000000000000000000008152600401808060200182810382526031815260200180610cd36031913960400191505060405180910390fd5b80600f8190555050565b600c5481565b601160009054906101000a900473ffffffffffffffffffffffffffffffffffffffff1673ffffffffffffffffffffffffffffffffffffffff163373ffffffffffffffffffffffffffffffffffffffff1614610b3c576040517f08c379a0000000000000000000000000000000000000000000000000000000008152600401808060200182810382526031815260200180610cd36031913960400191505060405180910390fd5b80600e8190555050565b60075481565b601160009054906101000a900473ffffffffffffffffffffffffffffffffffffffff1673ffffffffffffffffffffffffffffffffffffffff163373ffffffffffffffffffffffffffffffffffffffff1614610bf2576040517f08c379a0000000000000000000000000000000000000000000000000000000008152600401808060200182810382526031815260200180610cd36031913960400191505060405180910390fd5b8060008190555050565b600e5481565b60135481565b601160009054906101000a900473ffffffffffffffffffffffffffffffffffffffff1673ffffffffffffffffffffffffffffffffffffffff163373ffffffffffffffffffffffffffffffffffffffff1614610cae576040517f08c379a0000000000000000000000000000000000000000000000000000000008152600401808060200182810382526031815260200180610cd36031913960400191505060405180910390fd5b80600c8190555050565b60015481565b6000600d5460105402905090565b6008548156fe546869732066756e6374696f6e20636f756c64206f6e6c7920626520657865637574656420627920746865206f776e6572a2646970667358221220bea2b5a0a778dacc00e6c9a74d7cf1127dc9b5b8b6e5ba91efd5be1a7f6e521864736f6c63430007060033",
  "immutableReferences": {},
  "source": "// SPDX-License-Identifier: MIT\npragma solidity >=0.4.22 <0.9.0;\n\ncontract ConfigVariables {\n    uint256 public developFundPerc = 10; // mint token percent for Development Fund\n    uint256 public developFundPercPremim = 10; // pay token pervent for Developement Fund in Premium events\n    uint256 public hostPercMint = 10; // mint token percent for host \n    uint256 public hostPerc = 4; // pay token percent for host\n    uint256 public expertPercMint = 10; // mint token percent for expert \n    uint256 public expertPerc = 4; // pay token percent for expert \n    uint256 public expertExtraPerc = 2; // extra pay token parcent for expert if advisor not exist\n    uint256 public expertPremiumPerc = 15; // bty percent in premium events for experts\n    uint256 public advisorPercMint = 2; // mint token parcent for advisor \n    uint256 public advisorPepc = 1;  // pay token parcent for advisor \n    uint256 public extraHostPerc = 1; // if advisor exist we add extra coins to host\n    uint256 public extraHostPercMint = 1; // if advisor exist we add extra coins to host in mint token\n    uint256 public playerPers; // TODO\n    uint256 public firstWithdrawIndex = 10; \n    uint256 public GFrewards = 100000000000000000000;\n    uint256 public GFindex = 1;\n    uint256 public welcomeBTYTokens = 10000000000000000000;\n\n    address payable public owner; // Bettery Development Fund wallet\n    address payable public comMarketFundWallet; // Community Market Fund wallet\n    uint256 public comMarketFundPerc = 5; // 5 if advisor exist or comMarketFundPerc + advisorPercMint + extraHostPercMint = 8 if advisor not exist\n\n    address payable public moderatorsFundWallet; // Moderators Fund wallet\n    uint256 public moderatorsFundPerc = 2; // Moderators Fund percent to pay token\n\n    constructor() {\n        owner = msg.sender;\n    }\n\n    modifier ownerOnly() {\n        require(\n            msg.sender == owner,\n            \"This function could only be executed by the owner\"\n        );\n        _;\n    }\n\n    function setDevelopFundPerc(uint256 _developFundPerc) public ownerOnly() {\n        developFundPerc = _developFundPerc;\n    }\n\n    function setHostPerc(uint256 _hostPercMint, uint256 _hostPerc) public ownerOnly() {\n        hostPercMint = _hostPercMint;\n        hostPerc = _hostPerc;\n    }\n\n    function setExpertPerc(uint256 _expertPerc) public ownerOnly() {\n        expertPerc = _expertPerc;\n    }\n\n    function setPlayerPers(uint256 _playerPers) public ownerOnly() {\n        playerPers = _playerPers;\n    }\n\n    function setFirstWithdraw(uint256 _firstWithdrawIndex) public ownerOnly() {\n        firstWithdrawIndex = _firstWithdrawIndex;\n    }\n\n    function setGFrewards(uint256 _GFrewards) public ownerOnly() {\n        GFrewards = _GFrewards;\n    }\n\n    function setWelcomeBTYTokens(uint256 _welcomeBTYTokens) public ownerOnly() {\n        welcomeBTYTokens = _welcomeBTYTokens;\n    }\n\n    function setGFindex(uint256 _GFindex) public ownerOnly() {\n        GFindex = _GFindex;\n    }\n\n    function getFirstWithdraw() public view returns (uint256) {\n        return welcomeBTYTokens * firstWithdrawIndex;\n    }\n}\n",
  "sourcePath": "/Users/macbook/Documents/freelance/tokenominc/contracts/config/ConfigVariables.sol",
  "compiler": {
    "name": "solc",
    "version": "0.7.6+commit.7338295f.Linux.g++"
  },
  "schemaVersion": "3.2.2",
  "updatedAt": "2021-03-05T14:04:08.087Z",
  "devdoc": {
    "kind": "dev",
    "methods": {},
    "version": 1
  },
  "userdoc": {
    "kind": "user",
    "methods": {},
    "version": 1
  }
}