{
  "contractName": "ConfigVariables",
  "abi": [
    {
      "inputs": [],
      "stateMutability": "nonpayable",
      "type": "constructor"
    },
    {
      "inputs": [
        {
          "internalType": "uint256",
          "name": "_companyPerc",
          "type": "uint256"
        }
      ],
      "name": "setCompanyPerc",
      "outputs": [],
      "stateMutability": "nonpayable",
      "type": "function"
    },
    {
      "inputs": [
        {
          "internalType": "uint256",
          "name": "_hostPerc",
          "type": "uint256"
        }
      ],
      "name": "setHostPerc",
      "outputs": [],
      "stateMutability": "nonpayable",
      "type": "function"
    },
    {
      "inputs": [
        {
          "internalType": "uint256",
          "name": "_expertPerc",
          "type": "uint256"
        }
      ],
      "name": "setExpertPerc",
      "outputs": [],
      "stateMutability": "nonpayable",
      "type": "function"
    },
    {
      "inputs": [
        {
          "internalType": "uint256",
          "name": "_playerPers",
          "type": "uint256"
        }
      ],
      "name": "setFirstWithdraw",
      "outputs": [],
      "stateMutability": "nonpayable",
      "type": "function"
    },
    {
      "inputs": [
        {
          "internalType": "uint256",
          "name": "_firstWithdraw",
          "type": "uint256"
        }
      ],
      "name": "setPlayerPers",
      "outputs": [],
      "stateMutability": "nonpayable",
      "type": "function"
    },
    {
      "inputs": [
        {
          "internalType": "uint256",
          "name": "_GFrewards",
          "type": "uint256"
        }
      ],
      "name": "setGFrewards",
      "outputs": [],
      "stateMutability": "nonpayable",
      "type": "function"
    },
    {
      "inputs": [
        {
          "internalType": "uint256",
          "name": "_GFindex",
          "type": "uint256"
        }
      ],
      "name": "setGFindex",
      "outputs": [],
      "stateMutability": "nonpayable",
      "type": "function"
    },
    {
      "inputs": [],
      "name": "getCompanyPerc",
      "outputs": [
        {
          "internalType": "uint256",
          "name": "",
          "type": "uint256"
        }
      ],
      "stateMutability": "view",
      "type": "function"
    },
    {
      "inputs": [],
      "name": "getHostPerc",
      "outputs": [
        {
          "internalType": "uint256",
          "name": "",
          "type": "uint256"
        }
      ],
      "stateMutability": "view",
      "type": "function"
    },
    {
      "inputs": [],
      "name": "getExpertPerc",
      "outputs": [
        {
          "internalType": "uint256",
          "name": "",
          "type": "uint256"
        }
      ],
      "stateMutability": "view",
      "type": "function"
    },
    {
      "inputs": [],
      "name": "getPlayerPers",
      "outputs": [
        {
          "internalType": "uint256",
          "name": "",
          "type": "uint256"
        }
      ],
      "stateMutability": "view",
      "type": "function"
    },
    {
      "inputs": [],
      "name": "getFirstWithdraw",
      "outputs": [
        {
          "internalType": "uint256",
          "name": "",
          "type": "uint256"
        }
      ],
      "stateMutability": "view",
      "type": "function"
    },
    {
      "inputs": [],
      "name": "getGFrewards",
      "outputs": [
        {
          "internalType": "uint256",
          "name": "",
          "type": "uint256"
        }
      ],
      "stateMutability": "view",
      "type": "function"
    },
    {
      "inputs": [],
      "name": "getGFindex",
      "outputs": [
        {
          "internalType": "uint256",
          "name": "",
          "type": "uint256"
        }
      ],
      "stateMutability": "view",
      "type": "function"
    }
  ],
  "bytecode": "0x608060405268056bc75e2d6310000060055568056bc75e2d63100000600655600160075534801561002f57600080fd5b5033600460006101000a81548173ffffffffffffffffffffffffffffffffffffffff021916908373ffffffffffffffffffffffffffffffffffffffff16021790555061087f806100806000396000f3fe608060405234801561001057600080fd5b50600436106100ea5760003560e01c8063c369085e1161008c578063d7a86da711610066578063d7a86da71461026b578063e1aea52314610299578063e640a533146102c7578063ef99e099146102e5576100ea565b8063c369085e14610201578063ca2f2f7a1461022f578063d70b4bb61461024d576100ea565b80639580de67116100c85780639580de6714610169578063997862cb14610197578063a03c6697146101b5578063be8968aa146101e3576100ea565b80630328ff4a146100ef57806324467c451461011d578063782f4a4f1461014b575b600080fd5b61011b6004803603602081101561010557600080fd5b8101908080359060200190929190505050610303565b005b6101496004803603602081101561013357600080fd5b81019080803590602001909291905050506103b3565b005b610153610463565b6040518082815260200191505060405180910390f35b6101956004803603602081101561017f57600080fd5b810190808035906020019092919050505061046d565b005b61019f61051d565b6040518082815260200191505060405180910390f35b6101e1600480360360208110156101cb57600080fd5b8101908080359060200190929190505050610527565b005b6101eb6105d7565b6040518082815260200191505060405180910390f35b61022d6004803603602081101561021757600080fd5b81019080803590602001909291905050506105e1565b005b610237610691565b6040518082815260200191505060405180910390f35b61025561069a565b6040518082815260200191505060405180910390f35b6102976004803603602081101561028157600080fd5b81019080803590602001909291905050506106a4565b005b6102c5600480360360208110156102af57600080fd5b8101908080359060200190929190505050610754565b005b6102cf610804565b6040518082815260200191505060405180910390f35b6102ed61080e565b6040518082815260200191505060405180910390f35b600460009054906101000a900473ffffffffffffffffffffffffffffffffffffffff1673ffffffffffffffffffffffffffffffffffffffff163373ffffffffffffffffffffffffffffffffffffffff16146103a9576040517f08c379a00000000000000000000000000000000000000000000000000000000081526004018080602001828103825260318152602001806108196031913960400191505060405180910390fd5b8060018190555050565b600460009054906101000a900473ffffffffffffffffffffffffffffffffffffffff1673ffffffffffffffffffffffffffffffffffffffff163373ffffffffffffffffffffffffffffffffffffffff1614610459576040517f08c379a00000000000000000000000000000000000000000000000000000000081526004018080602001828103825260318152602001806108196031913960400191505060405180910390fd5b8060008190555050565b6000600654905090565b600460009054906101000a900473ffffffffffffffffffffffffffffffffffffffff1673ffffffffffffffffffffffffffffffffffffffff163373ffffffffffffffffffffffffffffffffffffffff1614610513576040517f08c379a00000000000000000000000000000000000000000000000000000000081526004018080602001828103825260318152602001806108196031913960400191505060405180910390fd5b8060028190555050565b6000600354905090565b600460009054906101000a900473ffffffffffffffffffffffffffffffffffffffff1673ffffffffffffffffffffffffffffffffffffffff163373ffffffffffffffffffffffffffffffffffffffff16146105cd576040517f08c379a00000000000000000000000000000000000000000000000000000000081526004018080602001828103825260318152602001806108196031913960400191505060405180910390fd5b8060038190555050565b6000600154905090565b600460009054906101000a900473ffffffffffffffffffffffffffffffffffffffff1673ffffffffffffffffffffffffffffffffffffffff163373ffffffffffffffffffffffffffffffffffffffff1614610687576040517f08c379a00000000000000000000000000000000000000000000000000000000081526004018080602001828103825260318152602001806108196031913960400191505060405180910390fd5b8060078190555050565b60008054905090565b6000600754905090565b600460009054906101000a900473ffffffffffffffffffffffffffffffffffffffff1673ffffffffffffffffffffffffffffffffffffffff163373ffffffffffffffffffffffffffffffffffffffff161461074a576040517f08c379a00000000000000000000000000000000000000000000000000000000081526004018080602001828103825260318152602001806108196031913960400191505060405180910390fd5b8060068190555050565b600460009054906101000a900473ffffffffffffffffffffffffffffffffffffffff1673ffffffffffffffffffffffffffffffffffffffff163373ffffffffffffffffffffffffffffffffffffffff16146107fa576040517f08c379a00000000000000000000000000000000000000000000000000000000081526004018080602001828103825260318152602001806108196031913960400191505060405180910390fd5b8060058190555050565b6000600254905090565b600060055490509056fe546869732066756e6374696f6e20636f756c64206f6e6c7920626520657865637574656420627920746865206f776e6572a264697066735822122075b9af660b30b23e2ca706d26639e5e343f10e33e34563f330cac2631619eaf164736f6c63430007060033",
  "immutableReferences": {},
  "source": "// SPDX-License-Identifier: MIT\npragma solidity >=0.4.22 <0.9.0;\n\ncontract ConfigVariables {\n    uint256 private companyPerc;\n    uint256 private hostPerc;\n    uint256 private expertPerc;\n    uint256 private playerPers;\n    address private owner;\n    uint256 private firstWithdraw = 100000000000000000000;\n    uint256 private GFrewards = 100000000000000000000;\n    uint256 private GFindex = 1;\n\n    constructor() {\n        owner = msg.sender;\n    }\n\n    modifier ownerOnly() {\n        require(\n            msg.sender == owner,\n            \"This function could only be executed by the owner\"\n        );\n        _;\n    }\n\n    function setCompanyPerc(uint256 _companyPerc) public ownerOnly() {\n        companyPerc = _companyPerc;\n    }\n\n    function setHostPerc(uint256 _hostPerc) public ownerOnly() {\n        hostPerc = _hostPerc;\n    }\n\n    function setExpertPerc(uint256 _expertPerc) public ownerOnly() {\n        expertPerc = _expertPerc;\n    }\n\n    function setFirstWithdraw(uint256 _playerPers) public ownerOnly() {\n        playerPers = _playerPers;\n    }\n\n    function setPlayerPers(uint256 _firstWithdraw) public ownerOnly() {\n        firstWithdraw = _firstWithdraw;\n    }\n\n    function setGFrewards(uint256 _GFrewards) public ownerOnly() {\n        GFrewards = _GFrewards;\n    }\n\n    function setGFindex(uint256 _GFindex) public ownerOnly() {\n        GFindex = _GFindex;\n    }\n\n    function getCompanyPerc() public view returns (uint256) {\n        return companyPerc;\n    }\n\n    function getHostPerc() public view returns (uint256) {\n        return hostPerc;\n    }\n\n    function getExpertPerc() public view returns (uint256) {\n        return expertPerc;\n    }\n\n    function getPlayerPers() public view returns (uint256) {\n        return playerPers;\n    }\n\n    function getFirstWithdraw() public view returns (uint256) {\n        return firstWithdraw;\n    }\n\n    function getGFrewards() public view returns (uint256) {\n        return GFrewards;\n    }\n\n    function getGFindex() public view returns (uint256) {\n        return GFindex;\n    }\n\n    \n}\n",
  "sourcePath": "/Users/macbook/Documents/freelance/tokenominc/contracts/config/ConfigVariables.sol",
  "compiler": {
    "name": "solc",
    "version": "0.7.6+commit.7338295f.Linux.g++"
  },
  "schemaVersion": "3.2.2",
  "updatedAt": "2021-02-17T15:37:06.270Z",
  "devdoc": {
    "kind": "dev",
    "methods": {},
    "version": 1
  },
  "userdoc": {
    "kind": "user",
    "methods": {},
    "version": 1
  }
}