{
  "contractName": "ConfigVariables",
  "abi": [
    {
      "inputs": [],
      "stateMutability": "nonpayable",
      "type": "constructor"
    },
    {
      "inputs": [
        {
          "internalType": "uint256",
          "name": "_companyPerc",
          "type": "uint256"
        }
      ],
      "name": "setCompanyPerc",
      "outputs": [],
      "stateMutability": "nonpayable",
      "type": "function"
    },
    {
      "inputs": [
        {
          "internalType": "uint256",
          "name": "_hostPerc",
          "type": "uint256"
        }
      ],
      "name": "setHostPerc",
      "outputs": [],
      "stateMutability": "nonpayable",
      "type": "function"
    },
    {
      "inputs": [
        {
          "internalType": "uint256",
          "name": "_expertPerc",
          "type": "uint256"
        }
      ],
      "name": "setExpertPerc",
      "outputs": [],
      "stateMutability": "nonpayable",
      "type": "function"
    },
    {
      "inputs": [
        {
          "internalType": "uint256",
          "name": "_playerPers",
          "type": "uint256"
        }
      ],
      "name": "setFirstWithdraw",
      "outputs": [],
      "stateMutability": "nonpayable",
      "type": "function"
    },
    {
      "inputs": [
        {
          "internalType": "uint256",
          "name": "_firstWithdraw",
          "type": "uint256"
        }
      ],
      "name": "setPlayerPers",
      "outputs": [],
      "stateMutability": "nonpayable",
      "type": "function"
    },
    {
      "inputs": [],
      "name": "getCompanyPerc",
      "outputs": [
        {
          "internalType": "uint256",
          "name": "",
          "type": "uint256"
        }
      ],
      "stateMutability": "view",
      "type": "function"
    },
    {
      "inputs": [],
      "name": "getHostPerc",
      "outputs": [
        {
          "internalType": "uint256",
          "name": "",
          "type": "uint256"
        }
      ],
      "stateMutability": "view",
      "type": "function"
    },
    {
      "inputs": [],
      "name": "getExpertPerc",
      "outputs": [
        {
          "internalType": "uint256",
          "name": "",
          "type": "uint256"
        }
      ],
      "stateMutability": "view",
      "type": "function"
    },
    {
      "inputs": [],
      "name": "getPlayerPers",
      "outputs": [
        {
          "internalType": "uint256",
          "name": "",
          "type": "uint256"
        }
      ],
      "stateMutability": "view",
      "type": "function"
    },
    {
      "inputs": [],
      "name": "getFirstWithdraw",
      "outputs": [
        {
          "internalType": "uint256",
          "name": "",
          "type": "uint256"
        }
      ],
      "stateMutability": "view",
      "type": "function"
    }
  ],
  "bytecode": "0x608060405268056bc75e2d6310000060055534801561001d57600080fd5b5033600460006101000a81548173ffffffffffffffffffffffffffffffffffffffff021916908373ffffffffffffffffffffffffffffffffffffffff1602179055506106278061006e6000396000f3fe608060405234801561001057600080fd5b506004361061009e5760003560e01c8063be8968aa11610066578063be8968aa14610179578063ca2f2f7a14610197578063e1aea523146101b5578063e640a533146101e3578063ef99e099146102015761009e565b80630328ff4a146100a357806324467c45146100d15780639580de67146100ff578063997862cb1461012d578063a03c66971461014b575b600080fd5b6100cf600480360360208110156100b957600080fd5b810190808035906020019092919050505061021f565b005b6100fd600480360360208110156100e757600080fd5b81019080803590602001909291905050506102cf565b005b61012b6004803603602081101561011557600080fd5b810190808035906020019092919050505061037f565b005b61013561042f565b6040518082815260200191505060405180910390f35b6101776004803603602081101561016157600080fd5b8101908080359060200190929190505050610439565b005b6101816104e9565b6040518082815260200191505060405180910390f35b61019f6104f3565b6040518082815260200191505060405180910390f35b6101e1600480360360208110156101cb57600080fd5b81019080803590602001909291905050506104fc565b005b6101eb6105ac565b6040518082815260200191505060405180910390f35b6102096105b6565b6040518082815260200191505060405180910390f35b600460009054906101000a900473ffffffffffffffffffffffffffffffffffffffff1673ffffffffffffffffffffffffffffffffffffffff163373ffffffffffffffffffffffffffffffffffffffff16146102c5576040517f08c379a00000000000000000000000000000000000000000000000000000000081526004018080602001828103825260318152602001806105c16031913960400191505060405180910390fd5b8060018190555050565b600460009054906101000a900473ffffffffffffffffffffffffffffffffffffffff1673ffffffffffffffffffffffffffffffffffffffff163373ffffffffffffffffffffffffffffffffffffffff1614610375576040517f08c379a00000000000000000000000000000000000000000000000000000000081526004018080602001828103825260318152602001806105c16031913960400191505060405180910390fd5b8060008190555050565b600460009054906101000a900473ffffffffffffffffffffffffffffffffffffffff1673ffffffffffffffffffffffffffffffffffffffff163373ffffffffffffffffffffffffffffffffffffffff1614610425576040517f08c379a00000000000000000000000000000000000000000000000000000000081526004018080602001828103825260318152602001806105c16031913960400191505060405180910390fd5b8060028190555050565b6000600354905090565b600460009054906101000a900473ffffffffffffffffffffffffffffffffffffffff1673ffffffffffffffffffffffffffffffffffffffff163373ffffffffffffffffffffffffffffffffffffffff16146104df576040517f08c379a00000000000000000000000000000000000000000000000000000000081526004018080602001828103825260318152602001806105c16031913960400191505060405180910390fd5b8060038190555050565b6000600154905090565b60008054905090565b600460009054906101000a900473ffffffffffffffffffffffffffffffffffffffff1673ffffffffffffffffffffffffffffffffffffffff163373ffffffffffffffffffffffffffffffffffffffff16146105a2576040517f08c379a00000000000000000000000000000000000000000000000000000000081526004018080602001828103825260318152602001806105c16031913960400191505060405180910390fd5b8060058190555050565b6000600254905090565b600060055490509056fe546869732066756e6374696f6e20636f756c64206f6e6c7920626520657865637574656420627920746865206f776e6572a26469706673582212201acec7d569988e21347b327218217a9465e1a2efc0051b3684c11af5ef91e12764736f6c63430007060033",
  "immutableReferences": {},
  "source": "// SPDX-License-Identifier: MIT\npragma solidity >=0.4.22 <0.9.0;\n\ncontract ConfigVariables {\n    uint256 private companyPerc;\n    uint256 private hostPerc;\n    uint256 private expertPerc;\n    uint256 private playerPers;\n    address private owner;\n    uint256 private firstWithdraw = 100000000000000000000;\n\n    constructor() {\n        owner = msg.sender;\n    }\n\n    modifier ownerOnly() {\n        require(\n            msg.sender == owner,\n            \"This function could only be executed by the owner\"\n        );\n        _;\n    }\n\n    function setCompanyPerc(uint256 _companyPerc) public ownerOnly() {\n        companyPerc = _companyPerc;\n    }\n\n    function setHostPerc(uint256 _hostPerc) public ownerOnly() {\n        hostPerc = _hostPerc;\n    }\n\n    function setExpertPerc(uint256 _expertPerc) public ownerOnly() {\n        expertPerc = _expertPerc;\n    }\n\n    function setFirstWithdraw(uint256 _playerPers) public ownerOnly() {\n        playerPers = _playerPers;\n    }\n\n    function setPlayerPers(uint256 _firstWithdraw) public ownerOnly() {\n        firstWithdraw = _firstWithdraw;\n    }\n\n    function getCompanyPerc() public view returns (uint256) {\n        return companyPerc;\n    }\n\n    function getHostPerc() public view returns (uint256) {\n        return hostPerc;\n    }\n\n    function getExpertPerc() public view returns (uint256) {\n        return expertPerc;\n    }\n\n    function getPlayerPers() public view returns (uint256) {\n        return playerPers;\n    }\n\n    function getFirstWithdraw() public view returns (uint256) {\n        return firstWithdraw;\n    }\n}\n",
  "sourcePath": "/Users/macbook/Documents/freelance/tokenominc/contracts/config/ConfigVariables.sol",
  "compiler": {
    "name": "solc",
    "version": "0.7.6+commit.7338295f.Linux.g++"
  },
  "schemaVersion": "3.2.2",
  "updatedAt": "2021-02-16T11:26:55.842Z",
  "devdoc": {
    "kind": "dev",
    "methods": {},
    "version": 1
  },
  "userdoc": {
    "kind": "user",
    "methods": {},
    "version": 1
  }
}