{
  "contractName": "ConfigVariables",
  "abi": [
    {
      "inputs": [],
      "name": "GFrewards",
      "outputs": [
        {
          "internalType": "uint256",
          "name": "",
          "type": "uint256"
        }
      ],
      "stateMutability": "view",
      "type": "function"
    },
    {
      "inputs": [],
      "name": "firstWithdrawIndex",
      "outputs": [
        {
          "internalType": "uint256",
          "name": "",
          "type": "uint256"
        }
      ],
      "stateMutability": "view",
      "type": "function"
    },
    {
      "inputs": [],
      "name": "owner",
      "outputs": [
        {
          "internalType": "address payable",
          "name": "",
          "type": "address"
        }
      ],
      "stateMutability": "view",
      "type": "function"
    },
    {
      "inputs": [],
      "name": "welcomeBTYTokens",
      "outputs": [
        {
          "internalType": "uint256",
          "name": "",
          "type": "uint256"
        }
      ],
      "stateMutability": "view",
      "type": "function"
    },
    {
      "inputs": [
        {
          "internalType": "uint256",
          "name": "_firstWithdrawIndex",
          "type": "uint256"
        },
        {
          "internalType": "uint256",
          "name": "_GFrewards",
          "type": "uint256"
        },
        {
          "internalType": "uint256",
          "name": "_welcomeBTYTokens",
          "type": "uint256"
        }
      ],
      "name": "__ConfigVariables",
      "outputs": [],
      "stateMutability": "nonpayable",
      "type": "function"
    },
    {
      "inputs": [
        {
          "internalType": "uint256",
          "name": "_firstWithdrawIndex",
          "type": "uint256"
        }
      ],
      "name": "setFirstWithdraw",
      "outputs": [],
      "stateMutability": "nonpayable",
      "type": "function"
    },
    {
      "inputs": [
        {
          "internalType": "uint256",
          "name": "_GFrewards",
          "type": "uint256"
        }
      ],
      "name": "setGFrewards",
      "outputs": [],
      "stateMutability": "nonpayable",
      "type": "function"
    },
    {
      "inputs": [
        {
          "internalType": "uint256",
          "name": "_welcomeBTYTokens",
          "type": "uint256"
        }
      ],
      "name": "setWelcomeBTYTokens",
      "outputs": [],
      "stateMutability": "nonpayable",
      "type": "function"
    },
    {
      "inputs": [],
      "name": "getFirstWithdraw",
      "outputs": [
        {
          "internalType": "uint256",
          "name": "",
          "type": "uint256"
        }
      ],
      "stateMutability": "view",
      "type": "function"
    }
  ],
  "bytecode": "0x608060405234801561001057600080fd5b50610676806100206000396000f3fe608060405234801561001057600080fd5b50600436106100935760003560e01c8063a03c669711610066578063a03c66971461015a578063b44901e814610188578063d7a86da7146101a6578063df185817146101d4578063ef99e099146101f257610093565b806319d6b7d8146100985780632e63e452146100c65780635bdb235a146100e45780638da5cb5b14610126575b600080fd5b6100c4600480360360208110156100ae57600080fd5b8101908080359060200190929190505050610210565b005b6100ce6102c0565b6040518082815260200191505060405180910390f35b610124600480360360608110156100fa57600080fd5b810190808035906020019092919080359060200190929190803590602001909291905050506102c6565b005b61012e61041d565b604051808273ffffffffffffffffffffffffffffffffffffffff16815260200191505060405180910390f35b6101866004803603602081101561017057600080fd5b8101908080359060200190929190505050610443565b005b6101906104f3565b6040518082815260200191505060405180910390f35b6101d2600480360360208110156101bc57600080fd5b81019080803590602001909291905050506104f9565b005b6101dc6105a9565b6040518082815260200191505060405180910390f35b6101fa6105af565b6040518082815260200191505060405180910390f35b600460009054906101000a900473ffffffffffffffffffffffffffffffffffffffff1673ffffffffffffffffffffffffffffffffffffffff163373ffffffffffffffffffffffffffffffffffffffff16146102b6576040517f08c379a00000000000000000000000000000000000000000000000000000000081526004018080602001828103825260318152602001806106106031913960400191505060405180910390fd5b8060038190555050565b60035481565b600060019054906101000a900460ff16806102e557506102e46105bd565b5b806102fb575060008054906101000a900460ff16155b610350576040517f08c379a000000000000000000000000000000000000000000000000000000000815260040180806020018281038252602e8152602001806105e2602e913960400191505060405180910390fd5b60008060019054906101000a900460ff1615905080156103a0576001600060016101000a81548160ff02191690831515021790555060016000806101000a81548160ff0219169083151502179055505b33600460006101000a81548173ffffffffffffffffffffffffffffffffffffffff021916908373ffffffffffffffffffffffffffffffffffffffff16021790555083600181905550826002819055508160038190555080156104175760008060016101000a81548160ff0219169083151502179055505b50505050565b600460009054906101000a900473ffffffffffffffffffffffffffffffffffffffff1681565b600460009054906101000a900473ffffffffffffffffffffffffffffffffffffffff1673ffffffffffffffffffffffffffffffffffffffff163373ffffffffffffffffffffffffffffffffffffffff16146104e9576040517f08c379a00000000000000000000000000000000000000000000000000000000081526004018080602001828103825260318152602001806106106031913960400191505060405180910390fd5b8060018190555050565b60015481565b600460009054906101000a900473ffffffffffffffffffffffffffffffffffffffff1673ffffffffffffffffffffffffffffffffffffffff163373ffffffffffffffffffffffffffffffffffffffff161461059f576040517f08c379a00000000000000000000000000000000000000000000000000000000081526004018080602001828103825260318152602001806106106031913960400191505060405180910390fd5b8060028190555050565b60025481565b600060015460035402905090565b60006105c8306105ce565b15905090565b600080823b90506000811191505091905056fe496e697469616c697a61626c653a20636f6e747261637420697320616c726561647920696e697469616c697a6564546869732066756e6374696f6e20636f756c64206f6e6c7920626520657865637574656420627920746865206f776e6572a2646970667358221220ae6e147b73ec80a7c246303415f4363fffc147ff644a10808589e9030fd5aa3464736f6c63430007060033",
  "immutableReferences": {},
  "source": "// SPDX-License-Identifier: MIT\npragma solidity >=0.4.22 <0.9.0;\n\nimport \"@openzeppelin/contracts-upgradeable/proxy/Initializable.sol\";\n\ncontract ConfigVariables is Initializable {\n\n    uint public firstWithdrawIndex; \n    uint public GFrewards;\n    uint public welcomeBTYTokens;\n    address payable public owner; // Bettery Development Fund wallet\n\n\n    function __ConfigVariables(\n        uint _firstWithdrawIndex,\n        uint _GFrewards,\n        uint _welcomeBTYTokens\n        ) public initializer {\n        owner = msg.sender;\n        firstWithdrawIndex = _firstWithdrawIndex;\n        GFrewards = _GFrewards;\n        welcomeBTYTokens = _welcomeBTYTokens;\n    }\n\n    modifier ownerOnly() {\n        require(\n            msg.sender == owner,\n            \"This function could only be executed by the owner\"\n        );\n        _;\n    }\n\n    function setFirstWithdraw(uint _firstWithdrawIndex) public ownerOnly() {\n        firstWithdrawIndex = _firstWithdrawIndex;\n    }\n\n    function setGFrewards(uint _GFrewards) public ownerOnly() {\n        GFrewards = _GFrewards;\n    }\n\n    function setWelcomeBTYTokens(uint _welcomeBTYTokens) public ownerOnly() {\n        welcomeBTYTokens = _welcomeBTYTokens;\n    }\n\n    function getFirstWithdraw() public view returns (uint) {\n        return welcomeBTYTokens * firstWithdrawIndex;\n    }\n}\n",
  "sourcePath": "/Users/macbook/Documents/freelance/tokenominc/contracts/matic/config/ConfigVariables.sol",
  "compiler": {
    "name": "solc",
    "version": "0.7.6+commit.7338295f.Linux.g++"
  },
  "schemaVersion": "3.3.4",
  "updatedAt": "2021-03-22T15:58:28.209Z",
  "devdoc": {
    "kind": "dev",
    "methods": {},
    "version": 1
  },
  "userdoc": {
    "kind": "user",
    "methods": {},
    "version": 1
  }
}