{
  "contractName": "EFStruct",
  "abi": [
    {
      "inputs": [
        {
          "internalType": "int256",
          "name": "",
          "type": "int256"
        }
      ],
      "name": "eventFinishData",
      "outputs": [
        {
          "internalType": "int256",
          "name": "id",
          "type": "int256"
        },
        {
          "internalType": "uint256",
          "name": "correctAnswer",
          "type": "uint256"
        },
        {
          "internalType": "uint256",
          "name": "loserPool",
          "type": "uint256"
        },
        {
          "internalType": "uint256",
          "name": "tokenMinted",
          "type": "uint256"
        },
        {
          "internalType": "bool",
          "name": "reverted",
          "type": "bool"
        },
        {
          "internalType": "bool",
          "name": "eventFinish",
          "type": "bool"
        }
      ],
      "stateMutability": "view",
      "type": "function"
    },
    {
      "inputs": [
        {
          "internalType": "int256",
          "name": "_id",
          "type": "int256"
        }
      ],
      "name": "checkReverted",
      "outputs": [
        {
          "internalType": "bool",
          "name": "",
          "type": "bool"
        }
      ],
      "stateMutability": "view",
      "type": "function"
    },
    {
      "inputs": [
        {
          "internalType": "int256",
          "name": "_id",
          "type": "int256"
        }
      ],
      "name": "checkEventFinish",
      "outputs": [
        {
          "internalType": "bool",
          "name": "",
          "type": "bool"
        }
      ],
      "stateMutability": "view",
      "type": "function"
    },
    {
      "inputs": [
        {
          "internalType": "int256",
          "name": "_id",
          "type": "int256"
        }
      ],
      "name": "setReverted",
      "outputs": [],
      "stateMutability": "nonpayable",
      "type": "function"
    }
  ],
  "bytecode": "0x608060405234801561001057600080fd5b50610285806100206000396000f3fe608060405234801561001057600080fd5b506004361061004c5760003560e01c8063362e41b6146100515780639ec2345a14610095578063a6b883ef146100c3578063d343c1dc1461012c575b600080fd5b61007d6004803603602081101561006757600080fd5b8101908080359060200190929190505050610170565b60405180821515815260200191505060405180910390f35b6100c1600480360360208110156100ab57600080fd5b810190808035906020019092919050505061019c565b005b6100ef600480360360208110156100d957600080fd5b81019080803590602001909291905050506101cd565b6040518087815260200186815260200185815260200184815260200183151581526020018215158152602001965050505050505060405180910390f35b6101586004803603602081101561014257600080fd5b8101908080359060200190929190505050610223565b60405180821515815260200191505060405180910390f35b600080600083815260200190815260200160002060040160009054906101000a900460ff169050919050565b600160008083815260200190815260200160002060040160006101000a81548160ff02191690831515021790555050565b60006020528060005260406000206000915090508060000154908060010154908060020154908060030154908060040160009054906101000a900460ff16908060040160019054906101000a900460ff16905086565b600080600083815260200190815260200160002060040160019054906101000a900460ff16905091905056fea2646970667358221220d851cc9b6543b74b60b4f06fa1c307babb9053c137ad5eb14ac3a35952f6a4a564736f6c63430007060033",
  "immutableReferences": {},
  "source": "// SPDX-License-Identifier: MIT\npragma solidity >=0.4.22 <0.9.0;\n\ncontract EFStruct {\n    struct EventFinishStruct {\n        int256 id;\n        uint256 correctAnswer;\n        uint256 loserPool;\n        uint256 tokenMinted;\n        bool reverted;\n        bool eventFinish;\n    }\n\n    mapping(int256 => EventFinishStruct) public eventFinishData;\n\n    function checkReverted(int256 _id) public view returns (bool) {\n        return eventFinishData[_id].reverted;\n    }\n\n    function checkEventFinish(int256 _id) public view returns (bool) {\n        return eventFinishData[_id].eventFinish;\n    }\n\n    function setReverted(int256 _id) public {\n        eventFinishData[_id].reverted = true;\n    }\n}\n",
  "sourcePath": "/Users/macbook/Documents/freelance/tokenominc/contracts/struct/EFStruct.sol",
  "compiler": {
    "name": "solc",
    "version": "0.7.6+commit.7338295f.Linux.g++"
  },
  "schemaVersion": "3.3.4",
  "updatedAt": "2021-03-11T21:40:32.267Z",
  "devdoc": {
    "kind": "dev",
    "methods": {},
    "version": 1
  },
  "userdoc": {
    "kind": "user",
    "methods": {},
    "version": 1
  }
}