{
  "contractName": "FinishEvent",
  "abi": [
    {
      "inputs": [
        {
          "internalType": "contract BET",
          "name": "_betAddress",
          "type": "address"
        },
        {
          "internalType": "contract BTY",
          "name": "_btyAddress",
          "type": "address"
        }
      ],
      "stateMutability": "nonpayable",
      "type": "constructor"
    },
    {
      "anonymous": false,
      "inputs": [
        {
          "indexed": false,
          "internalType": "int256",
          "name": "id",
          "type": "int256"
        },
        {
          "indexed": false,
          "internalType": "uint256",
          "name": "tokens",
          "type": "uint256"
        },
        {
          "indexed": false,
          "internalType": "uint256",
          "name": "correctAnswer",
          "type": "uint256"
        }
      ],
      "name": "eventFinish",
      "type": "event"
    },
    {
      "anonymous": false,
      "inputs": [
        {
          "indexed": false,
          "internalType": "int256",
          "name": "id",
          "type": "int256"
        },
        {
          "indexed": false,
          "internalType": "uint256",
          "name": "tokens",
          "type": "uint256"
        }
      ],
      "name": "payToCompanies",
      "type": "event"
    },
    {
      "anonymous": false,
      "inputs": [
        {
          "indexed": false,
          "internalType": "int256",
          "name": "id",
          "type": "int256"
        }
      ],
      "name": "payToExperts",
      "type": "event"
    },
    {
      "anonymous": false,
      "inputs": [
        {
          "indexed": false,
          "internalType": "int256",
          "name": "id",
          "type": "int256"
        },
        {
          "indexed": false,
          "internalType": "uint256",
          "name": "avarageBet",
          "type": "uint256"
        },
        {
          "indexed": false,
          "internalType": "uint256",
          "name": "mintedTokens",
          "type": "uint256"
        }
      ],
      "name": "payToLosers",
      "type": "event"
    },
    {
      "anonymous": false,
      "inputs": [
        {
          "indexed": false,
          "internalType": "int256",
          "name": "id",
          "type": "int256"
        }
      ],
      "name": "payToPlayers",
      "type": "event"
    },
    {
      "anonymous": false,
      "inputs": [
        {
          "indexed": false,
          "internalType": "int256",
          "name": "id",
          "type": "int256"
        },
        {
          "indexed": false,
          "internalType": "string",
          "name": "purpose",
          "type": "string"
        }
      ],
      "name": "revertedEvent",
      "type": "event"
    },
    {
      "inputs": [],
      "name": "GFindex",
      "outputs": [
        {
          "internalType": "uint256",
          "name": "",
          "type": "uint256"
        }
      ],
      "stateMutability": "view",
      "type": "function"
    },
    {
      "inputs": [],
      "name": "GFrewards",
      "outputs": [
        {
          "internalType": "uint256",
          "name": "",
          "type": "uint256"
        }
      ],
      "stateMutability": "view",
      "type": "function"
    },
    {
      "inputs": [],
      "name": "advisorPepc",
      "outputs": [
        {
          "internalType": "uint256",
          "name": "",
          "type": "uint256"
        }
      ],
      "stateMutability": "view",
      "type": "function"
    },
    {
      "inputs": [],
      "name": "advisorPercMint",
      "outputs": [
        {
          "internalType": "uint256",
          "name": "",
          "type": "uint256"
        }
      ],
      "stateMutability": "view",
      "type": "function"
    },
    {
      "inputs": [],
      "name": "betToken",
      "outputs": [
        {
          "internalType": "contract BET",
          "name": "",
          "type": "address"
        }
      ],
      "stateMutability": "view",
      "type": "function"
    },
    {
      "inputs": [],
      "name": "btyToken",
      "outputs": [
        {
          "internalType": "contract BTY",
          "name": "",
          "type": "address"
        }
      ],
      "stateMutability": "view",
      "type": "function"
    },
    {
      "inputs": [
        {
          "internalType": "uint256",
          "name": "_activePlayers",
          "type": "uint256"
        },
        {
          "internalType": "uint256",
          "name": "_pool",
          "type": "uint256"
        },
        {
          "internalType": "uint256",
          "name": "_GFindex",
          "type": "uint256"
        }
      ],
      "name": "calcMintedTokens",
      "outputs": [
        {
          "internalType": "uint256",
          "name": "",
          "type": "uint256"
        }
      ],
      "stateMutability": "pure",
      "type": "function"
    },
    {
      "inputs": [],
      "name": "comMarketFundPerc",
      "outputs": [
        {
          "internalType": "uint256",
          "name": "",
          "type": "uint256"
        }
      ],
      "stateMutability": "view",
      "type": "function"
    },
    {
      "inputs": [],
      "name": "comMarketFundWallet",
      "outputs": [
        {
          "internalType": "address payable",
          "name": "",
          "type": "address"
        }
      ],
      "stateMutability": "view",
      "type": "function"
    },
    {
      "inputs": [],
      "name": "developFundPerc",
      "outputs": [
        {
          "internalType": "uint256",
          "name": "",
          "type": "uint256"
        }
      ],
      "stateMutability": "view",
      "type": "function"
    },
    {
      "inputs": [],
      "name": "developFundPercPremim",
      "outputs": [
        {
          "internalType": "uint256",
          "name": "",
          "type": "uint256"
        }
      ],
      "stateMutability": "view",
      "type": "function"
    },
    {
      "inputs": [],
      "name": "expertExtraPerc",
      "outputs": [
        {
          "internalType": "uint256",
          "name": "",
          "type": "uint256"
        }
      ],
      "stateMutability": "view",
      "type": "function"
    },
    {
      "inputs": [],
      "name": "expertPerc",
      "outputs": [
        {
          "internalType": "uint256",
          "name": "",
          "type": "uint256"
        }
      ],
      "stateMutability": "view",
      "type": "function"
    },
    {
      "inputs": [],
      "name": "expertPercMint",
      "outputs": [
        {
          "internalType": "uint256",
          "name": "",
          "type": "uint256"
        }
      ],
      "stateMutability": "view",
      "type": "function"
    },
    {
      "inputs": [],
      "name": "expertPremiumPerc",
      "outputs": [
        {
          "internalType": "uint256",
          "name": "",
          "type": "uint256"
        }
      ],
      "stateMutability": "view",
      "type": "function"
    },
    {
      "inputs": [],
      "name": "extraHostPerc",
      "outputs": [
        {
          "internalType": "uint256",
          "name": "",
          "type": "uint256"
        }
      ],
      "stateMutability": "view",
      "type": "function"
    },
    {
      "inputs": [],
      "name": "extraHostPercMint",
      "outputs": [
        {
          "internalType": "uint256",
          "name": "",
          "type": "uint256"
        }
      ],
      "stateMutability": "view",
      "type": "function"
    },
    {
      "inputs": [],
      "name": "firstWithdrawIndex",
      "outputs": [
        {
          "internalType": "uint256",
          "name": "",
          "type": "uint256"
        }
      ],
      "stateMutability": "view",
      "type": "function"
    },
    {
      "inputs": [],
      "name": "getFirstWithdraw",
      "outputs": [
        {
          "internalType": "uint256",
          "name": "",
          "type": "uint256"
        }
      ],
      "stateMutability": "view",
      "type": "function"
    },
    {
      "inputs": [
        {
          "internalType": "uint256",
          "name": "_percent",
          "type": "uint256"
        },
        {
          "internalType": "uint256",
          "name": "_from",
          "type": "uint256"
        }
      ],
      "name": "getPercent",
      "outputs": [
        {
          "internalType": "uint256",
          "name": "",
          "type": "uint256"
        }
      ],
      "stateMutability": "pure",
      "type": "function"
    },
    {
      "inputs": [],
      "name": "hostPerc",
      "outputs": [
        {
          "internalType": "uint256",
          "name": "",
          "type": "uint256"
        }
      ],
      "stateMutability": "view",
      "type": "function"
    },
    {
      "inputs": [],
      "name": "hostPercMint",
      "outputs": [
        {
          "internalType": "uint256",
          "name": "",
          "type": "uint256"
        }
      ],
      "stateMutability": "view",
      "type": "function"
    },
    {
      "inputs": [],
      "name": "moderatorsFundPerc",
      "outputs": [
        {
          "internalType": "uint256",
          "name": "",
          "type": "uint256"
        }
      ],
      "stateMutability": "view",
      "type": "function"
    },
    {
      "inputs": [],
      "name": "moderatorsFundWallet",
      "outputs": [
        {
          "internalType": "address payable",
          "name": "",
          "type": "address"
        }
      ],
      "stateMutability": "view",
      "type": "function"
    },
    {
      "inputs": [],
      "name": "owner",
      "outputs": [
        {
          "internalType": "address payable",
          "name": "",
          "type": "address"
        }
      ],
      "stateMutability": "view",
      "type": "function"
    },
    {
      "inputs": [],
      "name": "playersPers",
      "outputs": [
        {
          "internalType": "uint256",
          "name": "",
          "type": "uint256"
        }
      ],
      "stateMutability": "view",
      "type": "function"
    },
    {
      "inputs": [],
      "name": "playersPersMint",
      "outputs": [
        {
          "internalType": "uint256",
          "name": "",
          "type": "uint256"
        }
      ],
      "stateMutability": "view",
      "type": "function"
    },
    {
      "inputs": [],
      "name": "playersPersPremiun",
      "outputs": [
        {
          "internalType": "uint256",
          "name": "",
          "type": "uint256"
        }
      ],
      "stateMutability": "view",
      "type": "function"
    },
    {
      "inputs": [
        {
          "internalType": "address payable",
          "name": "_wallet",
          "type": "address"
        }
      ],
      "name": "setComMarketFundWallet",
      "outputs": [],
      "stateMutability": "nonpayable",
      "type": "function"
    },
    {
      "inputs": [
        {
          "internalType": "uint256",
          "name": "_developFundPerc",
          "type": "uint256"
        }
      ],
      "name": "setDevelopFundPerc",
      "outputs": [],
      "stateMutability": "nonpayable",
      "type": "function"
    },
    {
      "inputs": [
        {
          "internalType": "uint256",
          "name": "_expertPerc",
          "type": "uint256"
        }
      ],
      "name": "setExpertPerc",
      "outputs": [],
      "stateMutability": "nonpayable",
      "type": "function"
    },
    {
      "inputs": [
        {
          "internalType": "uint256",
          "name": "_firstWithdrawIndex",
          "type": "uint256"
        }
      ],
      "name": "setFirstWithdraw",
      "outputs": [],
      "stateMutability": "nonpayable",
      "type": "function"
    },
    {
      "inputs": [
        {
          "internalType": "uint256",
          "name": "_GFindex",
          "type": "uint256"
        }
      ],
      "name": "setGFindex",
      "outputs": [],
      "stateMutability": "nonpayable",
      "type": "function"
    },
    {
      "inputs": [
        {
          "internalType": "uint256",
          "name": "_GFrewards",
          "type": "uint256"
        }
      ],
      "name": "setGFrewards",
      "outputs": [],
      "stateMutability": "nonpayable",
      "type": "function"
    },
    {
      "inputs": [
        {
          "internalType": "uint256",
          "name": "_hostPercMint",
          "type": "uint256"
        },
        {
          "internalType": "uint256",
          "name": "_hostPerc",
          "type": "uint256"
        }
      ],
      "name": "setHostPerc",
      "outputs": [],
      "stateMutability": "nonpayable",
      "type": "function"
    },
    {
      "inputs": [
        {
          "internalType": "address payable",
          "name": "_wallet",
          "type": "address"
        }
      ],
      "name": "setModeratorsFundWallet",
      "outputs": [],
      "stateMutability": "nonpayable",
      "type": "function"
    },
    {
      "inputs": [
        {
          "internalType": "uint256",
          "name": "_playersPersMint",
          "type": "uint256"
        }
      ],
      "name": "setPlayerPersMint",
      "outputs": [],
      "stateMutability": "nonpayable",
      "type": "function"
    },
    {
      "inputs": [
        {
          "internalType": "uint256",
          "name": "_welcomeBTYTokens",
          "type": "uint256"
        }
      ],
      "name": "setWelcomeBTYTokens",
      "outputs": [],
      "stateMutability": "nonpayable",
      "type": "function"
    },
    {
      "inputs": [],
      "name": "welcomeBTYTokens",
      "outputs": [
        {
          "internalType": "uint256",
          "name": "",
          "type": "uint256"
        }
      ],
      "stateMutability": "view",
      "type": "function"
    },
    {
      "inputs": [
        {
          "internalType": "int256",
          "name": "_id",
          "type": "int256"
        }
      ],
      "name": "letsFindCorrectAnswer",
      "outputs": [],
      "stateMutability": "nonpayable",
      "type": "function"
    },
    {
      "inputs": [
        {
          "internalType": "int256",
          "name": "_id",
          "type": "int256"
        },
        {
          "internalType": "string",
          "name": "purpose",
          "type": "string"
        }
      ],
      "name": "revertedPayment",
      "outputs": [],
      "stateMutability": "nonpayable",
      "type": "function"
    },
    {
      "inputs": [
        {
          "internalType": "int256",
          "name": "_id",
          "type": "int256"
        }
      ],
      "name": "letsPayToCompanies",
      "outputs": [],
      "stateMutability": "nonpayable",
      "type": "function"
    },
    {
      "inputs": [
        {
          "internalType": "int256",
          "name": "_id",
          "type": "int256"
        }
      ],
      "name": "letsPayToExperts",
      "outputs": [],
      "stateMutability": "nonpayable",
      "type": "function"
    },
    {
      "inputs": [
        {
          "internalType": "int256",
          "name": "_id",
          "type": "int256"
        }
      ],
      "name": "letsPayToPlayers",
      "outputs": [],
      "stateMutability": "nonpayable",
      "type": "function"
    },
    {
      "inputs": [
        {
          "internalType": "int256",
          "name": "_id",
          "type": "int256"
        },
        {
          "internalType": "uint256",
          "name": "_avarageBet",
          "type": "uint256"
        },
        {
          "internalType": "uint256",
          "name": "_mintedTokens",
          "type": "uint256"
        }
      ],
      "name": "letsPayToLoosers",
      "outputs": [],
      "stateMutability": "nonpayable",
      "type": "function"
    }
  ],
  "bytecode": "0x6080604052600a600255600460035560016004556001600555600a60065560046007556002600855600f6009556002600a556001600b556032600c55605a600d55604b600e55600a600f5568056bc75e2d631000006010556001601155678ac7230489e80000601255600a601455600a6015556005601755600260195534801561008857600080fd5b50604051620043e5380380620043e5833981810160405260408110156100ad57600080fd5b81019080805190602001909291908051906020019092919050505033601360006101000a81548173ffffffffffffffffffffffffffffffffffffffff021916908373ffffffffffffffffffffffffffffffffffffffff16021790555081601a60006101000a81548173ffffffffffffffffffffffffffffffffffffffff021916908373ffffffffffffffffffffffffffffffffffffffff16021790555080601b60006101000a81548173ffffffffffffffffffffffffffffffffffffffff021916908373ffffffffffffffffffffffffffffffffffffffff1602179055505050614248806200019d6000396000f3fe608060405234801561001057600080fd5b506004361061027f5760003560e01c8063896aa7a41161015c578063b44901e8116100ce578063df18581711610087578063df185817146109bb578063e1755c6a146109d9578063e1dcc409146109f7578063e79f365d14610a15578063ef99e09914610a43578063f7ec585114610a615761027f565b8063b44901e8146108d7578063c12c8c46146108f5578063c369085e14610913578063d7a86da714610941578063dba8fe871461096f578063dd3c22831461098d5761027f565b80639336e8fd116101205780639336e8fd146107a15780639580de67146107cf578063a03c6697146107fd578063aaa3091e1461082b578063af9ace4514610881578063b1642b501461089f5761027f565b8063896aa7a4146106cf5780638a9dbda7146106ed5780638da5cb5b1461070b5780638fc8bc421461073f578063903a19cf1461075d5761027f565b80633467f697116101f557806373e258ac116101b957806373e258ac14610538578063769c489814610556578063786508c51461061b57806378691f1614610639578063802cc34c1461066d578063870d9450146106a15761027f565b80633467f69714610424578063506d05cf1461045857806355e841581461048c57806362219866146104aa57806367e2a21b146104f65761027f565b80631f36c483116102475780631f36c4831461033a57806324045aad1461036857806324beedd3146103ac57806327e53717146103ca5780632c316d05146103e85780632e63e452146104065761027f565b80630129f27814610284578063134c3b07146102b257806315cfe419146102d057806319d6b7d8146102ee5780631c4083571461031c575b600080fd5b6102b06004803603602081101561029a57600080fd5b8101908080359060200190929190505050610a7f565b005b6102ba6112a5565b6040518082815260200191505060405180910390f35b6102d86112ab565b6040518082815260200191505060405180910390f35b61031a6004803603602081101561030457600080fd5b81019080803590602001909291905050506112b1565b005b610324611361565b6040518082815260200191505060405180910390f35b6103666004803603602081101561035057600080fd5b8101908080359060200190929190505050611367565b005b6103aa6004803603602081101561037e57600080fd5b81019080803573ffffffffffffffffffffffffffffffffffffffff169060200190929190505050611aca565b005b6103b4611bb4565b6040518082815260200191505060405180910390f35b6103d2611bba565b6040518082815260200191505060405180910390f35b6103f0611bc0565b6040518082815260200191505060405180910390f35b61040e611bc6565b6040518082815260200191505060405180910390f35b61042c611bcc565b604051808273ffffffffffffffffffffffffffffffffffffffff16815260200191505060405180910390f35b610460611bf2565b604051808273ffffffffffffffffffffffffffffffffffffffff16815260200191505060405180910390f35b610494611c18565b6040518082815260200191505060405180910390f35b6104e0600480360360408110156104c057600080fd5b810190808035906020019092919080359060200190929190505050611c1e565b6040518082815260200191505060405180910390f35b6105366004803603606081101561050c57600080fd5b81019080803590602001909291908035906020019092919080359060200190929190505050611c35565b005b610540612082565b6040518082815260200191505060405180910390f35b6106196004803603604081101561056c57600080fd5b81019080803590602001909291908035906020019064010000000081111561059357600080fd5b8201836020820111156105a557600080fd5b803590602001918460018302840111640100000000831117156105c757600080fd5b91908080601f016020809104026020016040519081016040528093929190818152602001838380828437600081840152601f19601f820116905080830192505050505050509192919290505050612088565b005b61062361213c565b6040518082815260200191505060405180910390f35b610641612142565b604051808273ffffffffffffffffffffffffffffffffffffffff16815260200191505060405180910390f35b610675612168565b604051808273ffffffffffffffffffffffffffffffffffffffff16815260200191505060405180910390f35b6106cd600480360360208110156106b757600080fd5b810190808035906020019092919050505061218e565b005b6106d76129c8565b6040518082815260200191505060405180910390f35b6106f56129ce565b6040518082815260200191505060405180910390f35b6107136129d4565b604051808273ffffffffffffffffffffffffffffffffffffffff16815260200191505060405180910390f35b6107476129fa565b6040518082815260200191505060405180910390f35b61079f6004803603602081101561077357600080fd5b81019080803573ffffffffffffffffffffffffffffffffffffffff169060200190929190505050612a00565b005b6107cd600480360360208110156107b757600080fd5b8101908080359060200190929190505050612aea565b005b6107fb600480360360208110156107e557600080fd5b8101908080359060200190929190505050612b9a565b005b6108296004803603602081101561081357600080fd5b8101908080359060200190929190505050612c4a565b005b61086b6004803603606081101561084157600080fd5b81019080803590602001909291908035906020019092919080359060200190929190505050612cfa565b6040518082815260200191505060405180910390f35b610889612d41565b6040518082815260200191505060405180910390f35b6108d5600480360360408110156108b557600080fd5b810190808035906020019092919080359060200190929190505050612d47565b005b6108df612dff565b6040518082815260200191505060405180910390f35b6108fd612e05565b6040518082815260200191505060405180910390f35b61093f6004803603602081101561092957600080fd5b8101908080359060200190929190505050612e0b565b005b61096d6004803603602081101561095757600080fd5b8101908080359060200190929190505050612ebb565b005b610977612f6b565b6040518082815260200191505060405180910390f35b6109b9600480360360208110156109a357600080fd5b8101908080359060200190929190505050612f71565b005b6109c3613021565b6040518082815260200191505060405180910390f35b6109e1613027565b6040518082815260200191505060405180910390f35b6109ff61302d565b6040518082815260200191505060405180910390f35b610a4160048036036020811015610a2b57600080fd5b8101908080359060200190929190505050613033565b005b610a4b61329a565b6040518082815260200191505060405180910390f35b610a696132a8565b6040518082815260200191505060405180910390f35b601360009054906101000a900473ffffffffffffffffffffffffffffffffffffffff1673ffffffffffffffffffffffffffffffffffffffff163373ffffffffffffffffffffffffffffffffffffffff1614610b25576040517f08c379a00000000000000000000000000000000000000000000000000000000081526004018080602001828103825260318152602001806141e26031913960400191505060405180910390fd5b6000610b48600c54600080858152602001908152602001600020600f0154611c1e565b90506000610b6d600d54600080868152602001908152602001600020600e0154611c1e565b90506000806000858152602001908152602001600020600601548281610b8f57fe5b049050600080600086815260200190815260200160002060100160019054906101000a900460ff1615610c04576000610bdf600e5460008089815260200190815260200160002060110154611c1e565b9050600080878152602001908152602001600020600601548181610bff57fe5b049150505b6000805b60008088815260200190815260200160002060040160008060008a8152602001908152602001600020600c01548152602001908152602001600020805490508160ff161015610cbd5760008088815260200190815260200160002060040160008060008a8152602001908152602001600020600c015481526020019081526020016000208160ff1681548110610c9a57fe5b906000526020600020906004020160020154820191508080600101915050610c08565b506000806000888152602001908152602001600020600601548281610cde57fe5b04905060005b60008089815260200190815260200160002060040160008060008b8152602001908152602001600020600c01548152602001908152602001600020805490508160ff1610156112545760008060008a815260200190815260200160002060040160008060008c8152602001908152602001600020600c015481526020019081526020016000208260ff1681548110610d7857fe5b906000526020600020906004020160020154905060008060008b815260200190815260200160002060040160008060008d8152602001908152602001600020600c015481526020019081526020016000208360ff1681548110610dd757fe5b906000526020600020906004020160010160009054906101000a900473ffffffffffffffffffffffffffffffffffffffff16905060008060008c8152602001908152602001600020600601548a81610e2b57fe5b04858481610e3557fe5b04029050601a60009054906101000a900473ffffffffffffffffffffffffffffffffffffffff1673ffffffffffffffffffffffffffffffffffffffff1663341ce1fc83836040518363ffffffff1660e01b8152600401808373ffffffffffffffffffffffffffffffffffffffff16815260200182815260200192505050602060405180830381600087803b158015610ecc57600080fd5b505af1158015610ee0573d6000803e3d6000fd5b505050506040513d6020811015610ef657600080fd5b8101908080519060200190929190505050610f79576040517f08c379a00000000000000000000000000000000000000000000000000000000081526004018080602001828103825260068152602001807f4d20506c6179000000000000000000000000000000000000000000000000000081525060200191505060405180910390fd5b600088868581610f8557fe5b04029050601a60009054906101000a900473ffffffffffffffffffffffffffffffffffffffff1673ffffffffffffffffffffffffffffffffffffffff1663a9059cbb84836040518363ffffffff1660e01b8152600401808373ffffffffffffffffffffffffffffffffffffffff16815260200182815260200192505050602060405180830381600087803b15801561101c57600080fd5b505af1158015611030573d6000803e3d6000fd5b505050506040513d602081101561104657600080fd5b81019080805190602001909291905050506110c9576040517f08c379a00000000000000000000000000000000000000000000000000000000081526004018080602001828103825260068152602001807f5020506c6179000000000000000000000000000000000000000000000000000081525060200191505060405180910390fd5b6000808d815260200190815260200160002060100160019054906101000a900460ff1615611243576000888786816110fd57fe5b04029050601b60009054906101000a900473ffffffffffffffffffffffffffffffffffffffff1673ffffffffffffffffffffffffffffffffffffffff1663a9059cbb85836040518363ffffffff1660e01b8152600401808373ffffffffffffffffffffffffffffffffffffffff16815260200182815260200192505050602060405180830381600087803b15801561119457600080fd5b505af11580156111a8573d6000803e3d6000fd5b505050506040513d60208110156111be57600080fd5b8101908080519060200190929190505050611241576040517f08c379a000000000000000000000000000000000000000000000000000000000815260040180806020018281038252600b8152602001807f5072656d207020506c617900000000000000000000000000000000000000000081525060200191505060405180910390fd5b505b505050508080600101915050610ce4565b507f3dab09e521e432fcf2c4241a48669ead87a2cb753a8c38ac04f33c85b42ddf3e87828860405180848152602001838152602001828152602001935050505060405180910390a150505050505050565b600e5481565b60115481565b601360009054906101000a900473ffffffffffffffffffffffffffffffffffffffff1673ffffffffffffffffffffffffffffffffffffffff163373ffffffffffffffffffffffffffffffffffffffff1614611357576040517f08c379a00000000000000000000000000000000000000000000000000000000081526004018080602001828103825260318152602001806141e26031913960400191505060405180910390fd5b8060128190555050565b60145481565b601360009054906101000a900473ffffffffffffffffffffffffffffffffffffffff1673ffffffffffffffffffffffffffffffffffffffff163373ffffffffffffffffffffffffffffffffffffffff161461140d576040517f08c379a00000000000000000000000000000000000000000000000000000000081526004018080602001828103825260318152602001806141e26031913960400191505060405180910390fd5b601a60009054906101000a900473ffffffffffffffffffffffffffffffffffffffff1673ffffffffffffffffffffffffffffffffffffffff1663341ce1fc601360009054906101000a900473ffffffffffffffffffffffffffffffffffffffff1661148f600080868152602001908152602001600020600f0154601454611c1e565b6040518363ffffffff1660e01b8152600401808373ffffffffffffffffffffffffffffffffffffffff16815260200182815260200192505050602060405180830381600087803b1580156114e257600080fd5b505af11580156114f6573d6000803e3d6000fd5b505050506040513d602081101561150c57600080fd5b810190808051906020019092919050505061158f576040517f08c379a00000000000000000000000000000000000000000000000000000000081526004018080602001828103825260048152602001807f4d2044460000000000000000000000000000000000000000000000000000000081525060200191505060405180910390fd5b60008082815260200190815260200160002060100160019054906101000a900460ff161561173a57601b60009054906101000a900473ffffffffffffffffffffffffffffffffffffffff1673ffffffffffffffffffffffffffffffffffffffff1663a9059cbb601360009054906101000a900473ffffffffffffffffffffffffffffffffffffffff1661163960008086815260200190815260200160002060110154601554611c1e565b6040518363ffffffff1660e01b8152600401808373ffffffffffffffffffffffffffffffffffffffff16815260200182815260200192505050602060405180830381600087803b15801561168c57600080fd5b505af11580156116a0573d6000803e3d6000fd5b505050506040513d60208110156116b657600080fd5b8101908080519060200190929190505050611739576040517f08c379a00000000000000000000000000000000000000000000000000000000081526004018080602001828103825260088152602001807f507265207020444600000000000000000000000000000000000000000000000081525060200191505060405180910390fd5b5b60008073ffffffffffffffffffffffffffffffffffffffff16600080848152602001908152602001600020600b0160009054906101000a900473ffffffffffffffffffffffffffffffffffffffff1673ffffffffffffffffffffffffffffffffffffffff1614156117b557600a5460055460175401016117b9565b6017545b9050601a60009054906101000a900473ffffffffffffffffffffffffffffffffffffffff1673ffffffffffffffffffffffffffffffffffffffff1663341ce1fc601660009054906101000a900473ffffffffffffffffffffffffffffffffffffffff1661183b600080878152602001908152602001600020600f015485611c1e565b6040518363ffffffff1660e01b8152600401808373ffffffffffffffffffffffffffffffffffffffff16815260200182815260200192505050602060405180830381600087803b15801561188e57600080fd5b505af11580156118a2573d6000803e3d6000fd5b505050506040513d60208110156118b857600080fd5b810190808051906020019092919050505061193b576040517f08c379a00000000000000000000000000000000000000000000000000000000081526004018080602001828103825260058152602001807f4d20434d4600000000000000000000000000000000000000000000000000000081525060200191505060405180910390fd5b601a60009054906101000a900473ffffffffffffffffffffffffffffffffffffffff1673ffffffffffffffffffffffffffffffffffffffff1663341ce1fc601860009054906101000a900473ffffffffffffffffffffffffffffffffffffffff166119bd600080878152602001908152602001600020600f0154601954611c1e565b6040518363ffffffff1660e01b8152600401808373ffffffffffffffffffffffffffffffffffffffff16815260200182815260200192505050602060405180830381600087803b158015611a1057600080fd5b505af1158015611a24573d6000803e3d6000fd5b505050506040513d6020811015611a3a57600080fd5b8101908080519060200190929190505050611abd576040517f08c379a00000000000000000000000000000000000000000000000000000000081526004018080602001828103825260048152602001807f4d204d460000000000000000000000000000000000000000000000000000000081525060200191505060405180910390fd5b611ac6826132ae565b5050565b601360009054906101000a900473ffffffffffffffffffffffffffffffffffffffff1673ffffffffffffffffffffffffffffffffffffffff163373ffffffffffffffffffffffffffffffffffffffff1614611b70576040517f08c379a00000000000000000000000000000000000000000000000000000000081526004018080602001828103825260318152602001806141e26031913960400191505060405180910390fd5b80601860006101000a81548173ffffffffffffffffffffffffffffffffffffffff021916908373ffffffffffffffffffffffffffffffffffffffff16021790555050565b60195481565b600d5481565b60085481565b60125481565b601860009054906101000a900473ffffffffffffffffffffffffffffffffffffffff1681565b601b60009054906101000a900473ffffffffffffffffffffffffffffffffffffffff1681565b60055481565b6000606483830281611c2c57fe5b04905092915050565b601360009054906101000a900473ffffffffffffffffffffffffffffffffffffffff1673ffffffffffffffffffffffffffffffffffffffff163373ffffffffffffffffffffffffffffffffffffffff1614611cdb576040517f08c379a00000000000000000000000000000000000000000000000000000000081526004018080602001828103825260318152602001806141e26031913960400191505060405180910390fd5b60005b60008085815260200190815260200160002060030160009054906101000a900460ff1660ff168160ff161015611fdd578060ff16600080868152602001908152602001600020600c015414158015611d635750600080600086815260200190815260200160002060040160008360ff1681526020019081526020016000208054905014155b15611fd05760005b60008086815260200190815260200160002060040160008360ff168152602001908152602001600020805490508160ff161015611fce576000806000878152602001908152602001600020600601548481611dc257fe5b048560008089815260200190815260200160002060040160008660ff1681526020019081526020016000208460ff1681548110611dfb57fe5b90600052602060002090600402016002015481611e1457fe5b04029050601a60009054906101000a900473ffffffffffffffffffffffffffffffffffffffff1673ffffffffffffffffffffffffffffffffffffffff1663341ce1fc60008089815260200190815260200160002060040160008660ff1681526020019081526020016000208460ff1681548110611e8d57fe5b906000526020600020906004020160010160009054906101000a900473ffffffffffffffffffffffffffffffffffffffff16836040518363ffffffff1660e01b8152600401808373ffffffffffffffffffffffffffffffffffffffff16815260200182815260200192505050602060405180830381600087803b158015611f1357600080fd5b505af1158015611f27573d6000803e3d6000fd5b505050506040513d6020811015611f3d57600080fd5b8101908080519060200190929190505050611fc0576040517f08c379a00000000000000000000000000000000000000000000000000000000081526004018080602001828103825260088152602001807f50206c6f7365727300000000000000000000000000000000000000000000000081525060200191505060405180910390fd5b508080600101915050611d6b565b505b8080600101915050611cde565b50600160008085815260200190815260200160002060120160006101000a81548160ff0219169083151502179055507f77259c2197fdb6e5ec1a797cb26a9e940c2ffb127130eee76de7c6b82acd869783600080868152602001908152602001600020600f0154600080878152602001908152602001600020600c015460405180848152602001838152602001828152602001935050505060405180910390a1505050565b600c5481565b601360009054906101000a900473ffffffffffffffffffffffffffffffffffffffff1673ffffffffffffffffffffffffffffffffffffffff163373ffffffffffffffffffffffffffffffffffffffff161461212e576040517f08c379a00000000000000000000000000000000000000000000000000000000081526004018080602001828103825260318152602001806141e26031913960400191505060405180910390fd5b6121388282613cdd565b5050565b600b5481565b601a60009054906101000a900473ffffffffffffffffffffffffffffffffffffffff1681565b601660009054906101000a900473ffffffffffffffffffffffffffffffffffffffff1681565b601360009054906101000a900473ffffffffffffffffffffffffffffffffffffffff1673ffffffffffffffffffffffffffffffffffffffff163373ffffffffffffffffffffffffffffffffffffffff1614612234576040517f08c379a00000000000000000000000000000000000000000000000000000000081526004018080602001828103825260318152602001806141e26031913960400191505060405180910390fd5b600080600073ffffffffffffffffffffffffffffffffffffffff16600080858152602001908152602001600020600b0160009054906101000a900473ffffffffffffffffffffffffffffffffffffffff1673ffffffffffffffffffffffffffffffffffffffff1614156122ad57600854600754016122b1565b6007545b905060005b6000808581526020019081526020016000206007016000806000878152602001908152602001600020600c01548152602001908152602001600020805490508160ff1610156123ce5760008060008681526020019081526020016000206007016000806000888152602001908152602001600020600c015481526020019081526020016000208260ff168154811061234a57fe5b906000526020600020906002020160010154126123c1576000808581526020019081526020016000206007016000806000878152602001908152602001600020600c015481526020019081526020016000208160ff16815481106123aa57fe5b906000526020600020906002020160010154830192505b80806001019150506122b6565b5060005b6000808581526020019081526020016000206007016000806000878152602001908152602001600020600c01548152602001908152602001600020805490508160ff16101561298b5760008060008681526020019081526020016000206007016000806000888152602001908152602001600020600c015481526020019081526020016000208260ff168154811061246657fe5b906000526020600020906002020160010154905060008060008781526020019081526020016000206007016000806000898152602001908152602001600020600c015481526020019081526020016000208360ff16815481106124c557fe5b906000526020600020906002020160000160009054906101000a900473ffffffffffffffffffffffffffffffffffffffff1690506000821261297c57600085836125266000808b8152602001908152602001600020600f0154600654611c1e565b028161252e57fe5b049050601a60009054906101000a900473ffffffffffffffffffffffffffffffffffffffff1673ffffffffffffffffffffffffffffffffffffffff1663341ce1fc83836040518363ffffffff1660e01b8152600401808373ffffffffffffffffffffffffffffffffffffffff16815260200182815260200192505050602060405180830381600087803b1580156125c457600080fd5b505af11580156125d8573d6000803e3d6000fd5b505050506040513d60208110156125ee57600080fd5b8101908080519060200190929190505050612671576040517f08c379a00000000000000000000000000000000000000000000000000000000081526004018080602001828103825260058152602001807f4d2045787000000000000000000000000000000000000000000000000000000081525060200191505060405180910390fd5b600086846126946000808c8152602001908152602001600020600d015489611c1e565b028161269c57fe5b049050601a60009054906101000a900473ffffffffffffffffffffffffffffffffffffffff1673ffffffffffffffffffffffffffffffffffffffff1663a9059cbb84836040518363ffffffff1660e01b8152600401808373ffffffffffffffffffffffffffffffffffffffff16815260200182815260200192505050602060405180830381600087803b15801561273257600080fd5b505af1158015612746573d6000803e3d6000fd5b505050506040513d602081101561275c57600080fd5b81019080805190602001909291905050506127df576040517f08c379a00000000000000000000000000000000000000000000000000000000081526004018080602001828103825260058152602001807f502045787000000000000000000000000000000000000000000000000000000081525060200191505060405180910390fd5b60008089815260200190815260200160002060100160019054906101000a900460ff1615612979576000878561282c6000808d815260200190815260200160002060110154600954611c1e565b028161283457fe5b049050601b60009054906101000a900473ffffffffffffffffffffffffffffffffffffffff1673ffffffffffffffffffffffffffffffffffffffff1663a9059cbb85836040518363ffffffff1660e01b8152600401808373ffffffffffffffffffffffffffffffffffffffff16815260200182815260200192505050602060405180830381600087803b1580156128ca57600080fd5b505af11580156128de573d6000803e3d6000fd5b505050506040513d60208110156128f457600080fd5b8101908080519060200190929190505050612977576040517f08c379a000000000000000000000000000000000000000000000000000000000815260040180806020018281038252600a8152602001807f5072656d2070204578700000000000000000000000000000000000000000000081525060200191505060405180910390fd5b505b50505b505080806001019150506123d2565b507f1e22c3f76c05a9a36262788cbb4f5ee1afd505e9a6b5a48f9b82249539202c1d836040518082815260200191505060405180910390a1505050565b60075481565b60025481565b601360009054906101000a900473ffffffffffffffffffffffffffffffffffffffff1681565b60035481565b601360009054906101000a900473ffffffffffffffffffffffffffffffffffffffff1673ffffffffffffffffffffffffffffffffffffffff163373ffffffffffffffffffffffffffffffffffffffff1614612aa6576040517f08c379a00000000000000000000000000000000000000000000000000000000081526004018080602001828103825260318152602001806141e26031913960400191505060405180910390fd5b80601660006101000a81548173ffffffffffffffffffffffffffffffffffffffff021916908373ffffffffffffffffffffffffffffffffffffffff16021790555050565b601360009054906101000a900473ffffffffffffffffffffffffffffffffffffffff1673ffffffffffffffffffffffffffffffffffffffff163373ffffffffffffffffffffffffffffffffffffffff1614612b90576040517f08c379a00000000000000000000000000000000000000000000000000000000081526004018080602001828103825260318152602001806141e26031913960400191505060405180910390fd5b80600c8190555050565b601360009054906101000a900473ffffffffffffffffffffffffffffffffffffffff1673ffffffffffffffffffffffffffffffffffffffff163373ffffffffffffffffffffffffffffffffffffffff1614612c40576040517f08c379a00000000000000000000000000000000000000000000000000000000081526004018080602001828103825260318152602001806141e26031913960400191505060405180910390fd5b8060078190555050565b601360009054906101000a900473ffffffffffffffffffffffffffffffffffffffff1673ffffffffffffffffffffffffffffffffffffffff163373ffffffffffffffffffffffffffffffffffffffff1614612cf0576040517f08c379a00000000000000000000000000000000000000000000000000000000081526004018080602001828103825260318152602001806141e26031913960400191505060405180910390fd5b80600f8190555050565b60008060648560640381612d0a57fe5b0490506000858581612d1857fe5b0490506064670de0b6b3a7640000858489850202020281612d3557fe5b04925050509392505050565b60065481565b601360009054906101000a900473ffffffffffffffffffffffffffffffffffffffff1673ffffffffffffffffffffffffffffffffffffffff163373ffffffffffffffffffffffffffffffffffffffff1614612ded576040517f08c379a00000000000000000000000000000000000000000000000000000000081526004018080602001828103825260318152602001806141e26031913960400191505060405180910390fd5b81600281905550806003819055505050565b600f5481565b60045481565b601360009054906101000a900473ffffffffffffffffffffffffffffffffffffffff1673ffffffffffffffffffffffffffffffffffffffff163373ffffffffffffffffffffffffffffffffffffffff1614612eb1576040517f08c379a00000000000000000000000000000000000000000000000000000000081526004018080602001828103825260318152602001806141e26031913960400191505060405180910390fd5b8060118190555050565b601360009054906101000a900473ffffffffffffffffffffffffffffffffffffffff1673ffffffffffffffffffffffffffffffffffffffff163373ffffffffffffffffffffffffffffffffffffffff1614612f61576040517f08c379a00000000000000000000000000000000000000000000000000000000081526004018080602001828103825260318152602001806141e26031913960400191505060405180910390fd5b8060108190555050565b60095481565b601360009054906101000a900473ffffffffffffffffffffffffffffffffffffffff1673ffffffffffffffffffffffffffffffffffffffff163373ffffffffffffffffffffffffffffffffffffffff1614613017576040517f08c379a00000000000000000000000000000000000000000000000000000000081526004018080602001828103825260318152602001806141e26031913960400191505060405180910390fd5b8060148190555050565b60105481565b60175481565b60155481565b601360009054906101000a900473ffffffffffffffffffffffffffffffffffffffff1673ffffffffffffffffffffffffffffffffffffffff163373ffffffffffffffffffffffffffffffffffffffff16146130d9576040517f08c379a00000000000000000000000000000000000000000000000000000000081526004018080602001828103825260318152602001806141e26031913960400191505060405180910390fd5b600080600080600090505b60008086815260200190815260200160002060030160009054906101000a900460ff1660ff168160ff1610156131f4578360008087815260200190815260200160002060070160008360ff1681526020019081526020016000208054905011156131825760008086815260200190815260200160002060070160008260ff1681526020019081526020016000208054905093508060ff1691506131e7565b8360008087815260200190815260200160002060070160008360ff1681526020019081526020016000208054905014156131e65760008086815260200190815260200160002060070160008260ff1681526020019081526020016000208054905092505b5b80806001019150506130e4565b508282141561326f57600160008086815260200190815260200160002060100160006101000a81548160ff02191690831515021790555061326a846040518060400160405280600f81526020017f6475706c69636174206578706572740000000000000000000000000000000000815250613cdd565b613294565b80600080868152602001908152602001600020600c0181905550613293818561402c565b5b50505050565b6000600f5460125402905090565b600a5481565b600073ffffffffffffffffffffffffffffffffffffffff16600080838152602001908152602001600020600b0160009054906101000a900473ffffffffffffffffffffffffffffffffffffffff1673ffffffffffffffffffffffffffffffffffffffff161461397857601a60009054906101000a900473ffffffffffffffffffffffffffffffffffffffff1673ffffffffffffffffffffffffffffffffffffffff1663341ce1fc600080848152602001908152602001600020600a0160019054906101000a900473ffffffffffffffffffffffffffffffffffffffff166133b0600080868152602001908152602001600020600f015460055460025401611c1e565b6040518363ffffffff1660e01b8152600401808373ffffffffffffffffffffffffffffffffffffffff16815260200182815260200192505050602060405180830381600087803b15801561340357600080fd5b505af1158015613417573d6000803e3d6000fd5b505050506040513d602081101561342d57600080fd5b81019080805190602001909291905050506134b0576040517f08c379a000000000000000000000000000000000000000000000000000000000815260040180806020018281038252600f8152602001807f4d20486f7374207769746820616476000000000000000000000000000000000081525060200191505060405180910390fd5b601a60009054906101000a900473ffffffffffffffffffffffffffffffffffffffff1673ffffffffffffffffffffffffffffffffffffffff1663341ce1fc600080848152602001908152602001600020600b0160009054906101000a900473ffffffffffffffffffffffffffffffffffffffff16613545600080868152602001908152602001600020600f0154600a54611c1e565b6040518363ffffffff1660e01b8152600401808373ffffffffffffffffffffffffffffffffffffffff16815260200182815260200192505050602060405180830381600087803b15801561359857600080fd5b505af11580156135ac573d6000803e3d6000fd5b505050506040513d60208110156135c257600080fd5b8101908080519060200190929190505050613645576040517f08c379a00000000000000000000000000000000000000000000000000000000081526004018080602001828103825260088152602001807f4d20746f2041647600000000000000000000000000000000000000000000000081525060200191505060405180910390fd5b601a60009054906101000a900473ffffffffffffffffffffffffffffffffffffffff1673ffffffffffffffffffffffffffffffffffffffff1663a9059cbb600080848152602001908152602001600020600a0160019054906101000a900473ffffffffffffffffffffffffffffffffffffffff166136de600080868152602001908152602001600020600d015460045460035401611c1e565b6040518363ffffffff1660e01b8152600401808373ffffffffffffffffffffffffffffffffffffffff16815260200182815260200192505050602060405180830381600087803b15801561373157600080fd5b505af1158015613745573d6000803e3d6000fd5b505050506040513d602081101561375b57600080fd5b81019080805190602001909291905050506137de576040517f08c379a000000000000000000000000000000000000000000000000000000000815260040180806020018281038252600f8152602001807f5020486f7374207769746820616476000000000000000000000000000000000081525060200191505060405180910390fd5b601a60009054906101000a900473ffffffffffffffffffffffffffffffffffffffff1673ffffffffffffffffffffffffffffffffffffffff1663a9059cbb600080848152602001908152602001600020600b0160009054906101000a900473ffffffffffffffffffffffffffffffffffffffff16613873600080868152602001908152602001600020600d0154600b54611c1e565b6040518363ffffffff1660e01b8152600401808373ffffffffffffffffffffffffffffffffffffffff16815260200182815260200192505050602060405180830381600087803b1580156138c657600080fd5b505af11580156138da573d6000803e3d6000fd5b505050506040513d60208110156138f057600080fd5b8101908080519060200190929190505050613973576040517f08c379a00000000000000000000000000000000000000000000000000000000081526004018080602001828103825260058152602001807f502041647600000000000000000000000000000000000000000000000000000081525060200191505060405180910390fd5b613ca3565b601a60009054906101000a900473ffffffffffffffffffffffffffffffffffffffff1673ffffffffffffffffffffffffffffffffffffffff1663341ce1fc600080848152602001908152602001600020600a0160019054906101000a900473ffffffffffffffffffffffffffffffffffffffff16613a0d600080868152602001908152602001600020600f0154600254611c1e565b6040518363ffffffff1660e01b8152600401808373ffffffffffffffffffffffffffffffffffffffff16815260200182815260200192505050602060405180830381600087803b158015613a6057600080fd5b505af1158015613a74573d6000803e3d6000fd5b505050506040513d6020811015613a8a57600080fd5b8101908080519060200190929190505050613b0d576040517f08c379a00000000000000000000000000000000000000000000000000000000081526004018080602001828103825260068152602001807f4d20486f7374000000000000000000000000000000000000000000000000000081525060200191505060405180910390fd5b601a60009054906101000a900473ffffffffffffffffffffffffffffffffffffffff1673ffffffffffffffffffffffffffffffffffffffff1663a9059cbb600080848152602001908152602001600020600a0160019054906101000a900473ffffffffffffffffffffffffffffffffffffffff16613ba2600080868152602001908152602001600020600d0154600354611c1e565b6040518363ffffffff1660e01b8152600401808373ffffffffffffffffffffffffffffffffffffffff16815260200182815260200192505050602060405180830381600087803b158015613bf557600080fd5b505af1158015613c09573d6000803e3d6000fd5b505050506040513d6020811015613c1f57600080fd5b8101908080519060200190929190505050613ca2576040517f08c379a00000000000000000000000000000000000000000000000000000000081526004018080602001828103825260068152602001807f5020486f7374000000000000000000000000000000000000000000000000000081525060200191505060405180910390fd5b5b7f6a4809373725ad75f8703de0bd9b197e5729e64a7b655552880c405200fbc6f5816040518082815260200191505060405180910390a150565b60005b60008084815260200190815260200160002060030160009054906101000a900460ff1660ff168160ff161015613f555760005b60008085815260200190815260200160002060040160008360ff168152602001908152602001600020805490508160ff161015613f4757601a60009054906101000a900473ffffffffffffffffffffffffffffffffffffffff1673ffffffffffffffffffffffffffffffffffffffff1663a9059cbb60008087815260200190815260200160002060040160008560ff1681526020019081526020016000208360ff1681548110613dbf57fe5b906000526020600020906004020160010160009054906101000a900473ffffffffffffffffffffffffffffffffffffffff1660008088815260200190815260200160002060040160008660ff1681526020019081526020016000208460ff1681548110613e2857fe5b9060005260206000209060040201600201546040518363ffffffff1660e01b8152600401808373ffffffffffffffffffffffffffffffffffffffff16815260200182815260200192505050602060405180830381600087803b158015613e8d57600080fd5b505af1158015613ea1573d6000803e3d6000fd5b505050506040513d6020811015613eb757600080fd5b8101908080519060200190929190505050613f3a576040517f08c379a000000000000000000000000000000000000000000000000000000000815260040180806020018281038252600a8152602001807f526576657274204245540000000000000000000000000000000000000000000081525060200191505060405180910390fd5b8080600101915050613d13565b508080600101915050613ce0565b50600160008084815260200190815260200160002060100160006101000a81548160ff0219169083151502179055507f847521552ad126e64c52b14640c804737bd67f2b6674309b332d1e5b17f857d182826040518083815260200180602001828103825283818151815260200191508051906020019080838360005b83811015613fed578082015181840152602081019050613fd2565b50505050905090810190601f16801561401a5780820380516001836020036101000a031916815260200191505b50935050505060405180910390a15050565b600080600080848152602001908152602001600020600401600085815260200190815260200160002080549050905060005b818160ff1610156140c05760008085815260200190815260200160002060040160008681526020019081526020016000208160ff168154811061409d57fe5b90600052602060002090600402016002015483019250808060010191505061405e565b50600082600080868152602001908152602001600020600d0154039050600081141561412a57614125846040518060400160405280601581526020017f706c61792063686f7365206f6e6520616e737765720000000000000000000000815250612088565b6141da565b80600080868152602001908152602001600020600e0181905550600061417d60008087815260200190815260200160002060060154600080888152602001908152602001600020600d0154601154612cfa565b905080600080878152602001908152602001600020600f01819055507f7a04c0b307090afdeb88b7e577bb5761258941e4195fb1bd4127545cce370bd98582604051808381526020018281526020019250505060405180910390a1505b505050505056fe546869732066756e6374696f6e20636f756c64206f6e6c7920626520657865637574656420627920746865206f776e6572a264697066735822122028915148872efd261f857b351490b342c6b0015655558e774c03ecd4dede99b364736f6c63430007060033",
  "immutableReferences": {},
  "source": "// SPDX-License-Identifier: MIT\npragma solidity >=0.4.22 <0.9.0;\nimport {PubStruct} from \"../../struct/PubStruct.sol\";\nimport {Libs} from \"./Libs.sol\";\nimport {ConfigVariables} from \"../../config/ConfigVariables.sol\";\nimport {BET} from \"../../tokens/BET.sol\";\nimport {BTY} from \"../../tokens/BTY.sol\";\n\ncontract FinishEvent is PubStruct, Libs, ConfigVariables {\n    BET public betToken;\n    BTY public btyToken;\n\n    event payToCompanies(int256 id, uint256 tokens);\n    event payToExperts(int256 id);\n    event payToPlayers(int256 id);\n    event payToLosers(int256 id, uint256 avarageBet, uint256 mintedTokens);\n    event revertedEvent(int256 id, string purpose);\n    event eventFinish(int256 id, uint256 tokens, uint256 correctAnswer);\n\n    constructor(BET _betAddress, BTY _btyAddress) {\n        betToken = _betAddress;\n        btyToken = _btyAddress;\n    }\n\n    function letsFindCorrectAnswer(int256 _id) public ownerOnly() {\n        uint256 bigValue = 0;\n        uint256 candDub = 0;\n        uint256 correctAnswer;\n\n        // find correct answer\n        for (uint8 i = 0; i < events[_id].questAmount; i++) {\n            if (events[_id].expert[i].length > bigValue) {\n                bigValue = events[_id].expert[i].length;\n                correctAnswer = i;\n            } else if (events[_id].expert[i].length == bigValue) {\n                candDub = events[_id].expert[i].length;\n            }\n        }\n\n        if (candDub == bigValue) {\n            events[_id].reverted = true;\n            revertPayment(_id, \"duplicat expert\");\n        } else {\n            events[_id].correctAnswer = correctAnswer;\n            findLosersPool(correctAnswer, _id);\n        }\n    }\n\n    function findLosersPool(uint256 correctAnswer, int256 _id) private {\n        uint256 B;\n        uint256 n = events[_id].players[correctAnswer].length;\n        for (uint8 i = 0; i < n; i++) {\n            B = B + events[_id].players[correctAnswer][i].amount;\n        }\n        uint256 lP = events[_id].pool - B;\n        if (lP == 0) {\n            revertedPayment(_id, \"play chose one answer\");\n        } else {\n            events[_id].loserPool = lP;\n            // calculate minted tokens\n            uint256 tokens =\n                calcMintedTokens(\n                    events[_id].activePlayers,\n                    events[_id].pool,\n                    GFindex\n                );\n            events[_id].tokenMinted = tokens;\n            emit payToCompanies(_id, tokens);\n        }\n    }\n\n    function revertedPayment(int256 _id, string memory purpose)\n        public\n        ownerOnly()\n    {\n        revertPayment(_id, purpose);\n    }\n\n    function revertPayment(int256 _id, string memory purpose) private {\n        for (uint8 i = 0; i < events[_id].questAmount; i++) {\n            for (uint8 z = 0; z < events[_id].players[i].length; z++) {\n                require(\n                    betToken.transfer(\n                        events[_id].players[i][z].player,\n                        events[_id].players[i][z].amount\n                    ),\n                    \"Revert BET\"\n                );\n            }\n        }\n        events[_id].reverted = true;\n        emit revertedEvent(_id, purpose);\n    }\n\n    function letsPayToCompanies(int256 _id) public ownerOnly() {\n        // pay to Development Fund\n        require(\n            betToken.mintFromPublicContract(\n                owner,\n                getPercent(events[_id].tokenMinted, developFundPerc)\n            ),\n            \"M DF\"\n        );\n        if (events[_id].premium) {\n            require(\n                btyToken.transfer(\n                    owner,\n                    getPercent(\n                        events[_id].amountPremiumEvent,\n                        developFundPercPremim\n                    )\n                ),\n                \"Pre p DF\"\n            );\n        }\n        // pay to Community Marketing Fund\n        uint256 percentCMF =\n            events[_id].advisor != address(0)\n                ? comMarketFundPerc\n                : comMarketFundPerc + extraHostPercMint + advisorPercMint;\n        require(\n            betToken.mintFromPublicContract(\n                comMarketFundWallet,\n                getPercent(events[_id].tokenMinted, percentCMF)\n            ),\n            \"M CMF\"\n        );\n\n        // pay to Moderators Fund\n        require(\n            betToken.mintFromPublicContract(\n                moderatorsFundWallet,\n                getPercent(events[_id].tokenMinted, moderatorsFundPerc)\n            ),\n            \"M MF\"\n        );\n        letsPaytoHost(_id);\n    }\n\n    function letsPaytoHost(int256 _id) private {\n        if (events[_id].advisor != address(0)) {\n            // pay minted tokens\n            require(\n                betToken.mintFromPublicContract(\n                    events[_id].host,\n                    getPercent(\n                        events[_id].tokenMinted,\n                        hostPercMint + extraHostPercMint\n                    )\n                ),\n                \"M Host with adv\"\n            );\n            require(\n                betToken.mintFromPublicContract(\n                    events[_id].advisor,\n                    getPercent(events[_id].tokenMinted, advisorPercMint)\n                ),\n                \"M to Adv\"\n            );\n            // pay not minted tokens\n            require(\n                betToken.transfer(\n                    events[_id].host,\n                    getPercent(events[_id].pool, hostPerc + extraHostPerc)\n                ),\n                \"P Host with adv\"\n            );\n            require(\n                betToken.transfer(\n                    events[_id].advisor,\n                    getPercent(events[_id].pool, advisorPepc)\n                ),\n                \"P Adv\"\n            );\n        } else {\n            // pay minted tokens\n            require(\n                betToken.mintFromPublicContract(\n                    events[_id].host,\n                    getPercent(events[_id].tokenMinted, hostPercMint)\n                ),\n                \"M Host\"\n            );\n            // pay not minted tokens\n            require(\n                betToken.transfer(\n                    events[_id].host,\n                    getPercent(events[_id].pool, hostPerc)\n                ),\n                \"P Host\"\n            );\n        }\n        emit payToExperts(_id);\n    }\n\n    function letsPayToExperts(int256 _id) public ownerOnly() {\n        int256 allReputation;\n        uint256 percent =\n            events[_id].advisor != address(0)\n                ? expertPerc\n                : expertPerc + expertExtraPerc;\n\n        for ( uint8 i = 0; i < events[_id].expert[events[_id].correctAnswer].length; i++ ) {\n            if ( events[_id].expert[events[_id].correctAnswer][i].reputation >= 0 ) {\n                allReputation = allReputation + events[_id].expert[events[_id].correctAnswer][i].reputation;\n            }\n        }\n\n        for (uint8 i = 0; i < events[_id].expert[events[_id].correctAnswer].length; i++ ) {\n            int256 reputation = events[_id].expert[events[_id].correctAnswer][i].reputation;\n            address payable expertWallet = events[_id].expert[events[_id].correctAnswer][i].expert;\n            if (reputation >= 0) {\n                // mint tokens\n                uint256 amountMint = (getPercent(events[_id].tokenMinted, expertPercMint) * uint256(reputation)) / uint256(allReputation);\n                require(\n                    betToken.mintFromPublicContract(expertWallet, amountMint),\n                    \"M Exp\"\n                );\n                // pay tokens\n                uint256 amount = (getPercent(events[_id].pool, percent) * uint256(reputation)) / uint256(allReputation);\n                require(\n                    betToken.transfer(expertWallet, amount),\n                    \"P Exp\"\n                );\n                // pay in premium events\n                if (events[_id].premium) {\n                    uint256 premiumAmount = (getPercent( events[_id].amountPremiumEvent, expertPremiumPerc ) * uint256(reputation)) / uint256(allReputation);\n                    require(\n                        btyToken.transfer(expertWallet, premiumAmount),\n                        \"Prem p Exp\"\n                    );\n                }\n            }\n        }\n        emit payToPlayers(_id);\n    }\n\n    function letsPayToPlayers(int256 _id) public ownerOnly() {\n        uint256 mintedTokens = getPercent(playersPersMint, events[_id].tokenMinted);\n        uint256 loserPoolPerc = getPercent(playersPers, events[_id].loserPool);\n        uint256 winPool = loserPoolPerc / events[_id].activePlayers;\n\n        uint256 premimWin;\n        if (events[_id].premium) {\n            uint256 premiumToken = getPercent(playersPersPremiun, events[_id].amountPremiumEvent);\n            premimWin = premiumToken / events[_id].activePlayers;\n        }\n        uint256 betAmount = 0;\n\n        for ( uint8 i = 0; i < events[_id].players[events[_id].correctAnswer].length; i++ ) {\n            betAmount = betAmount + events[_id].players[events[_id].correctAnswer][i].amount;\n        }\n\n        uint256 avarageBet = betAmount / events[_id].activePlayers;\n\n        for ( uint8 i = 0; i < events[_id].players[events[_id].correctAnswer].length; i++ ) {\n            // mint token to users\n            uint256 userBet = events[_id].players[events[_id].correctAnswer][i].amount;\n            address payable userWallet = events[_id].players[events[_id].correctAnswer][i].player;\n            uint256 mintWin = (userBet / avarageBet) * (mintedTokens / events[_id].activePlayers);\n            // TODO pay to referers\n            require(\n                betToken.mintFromPublicContract(userWallet, mintWin),\n                \"M Play\"\n            );\n\n            // pay tokens to users\n            uint256 tokenWin = (userBet / avarageBet) * winPool;\n            require(\n                betToken.transfer(userWallet, tokenWin),\n                \"P Play\"\n            );\n            if (events[_id].premium) {\n                // pay premium tokens to user\n                uint256 premiumWinToken = (userBet / avarageBet) * premimWin;\n                require(\n                    btyToken.transfer(userWallet, premiumWinToken),\n                    \"Prem p Play\"\n                );\n            }\n        }\n        emit payToLosers(_id, avarageBet, mintedTokens);\n    }\n\n    function letsPayToLoosers(\n        int256 _id,\n        uint256 _avarageBet,\n        uint256 _mintedTokens\n    ) public ownerOnly() {\n        for (uint8 i = 0; i < events[_id].questAmount; i++) {\n            if (events[_id].correctAnswer != i && events[_id].players[i].length != 0) {\n                for (uint8 z = 0; z < events[_id].players[i].length; z++) {\n                    uint256 mintLost = (events[_id].players[i][z].amount / _avarageBet) * (_mintedTokens / events[_id].activePlayers);\n                    require(betToken.mintFromPublicContract(events[_id].players[i][z].player, mintLost), \"P losers\");\n                }\n            }\n        }\n        events[_id].eventFinish = true;\n        emit eventFinish(\n            _id,\n            events[_id].tokenMinted,\n            events[_id].correctAnswer\n        );\n    }\n}\n",
  "sourcePath": "/Users/macbook/Documents/freelance/tokenominc/contracts/events/PublicEvents/FinishEvent.sol",
  "compiler": {
    "name": "solc",
    "version": "0.7.6+commit.7338295f.Linux.g++"
  },
  "schemaVersion": "3.2.2",
  "updatedAt": "2021-03-11T08:23:38.644Z",
  "devdoc": {
    "kind": "dev",
    "methods": {},
    "version": 1
  },
  "userdoc": {
    "kind": "user",
    "methods": {},
    "version": 1
  }
}