{
  "contractName": "FinishEvent",
  "abi": [
    {
      "inputs": [
        {
          "internalType": "contract BET",
          "name": "_betAddress",
          "type": "address"
        },
        {
          "internalType": "contract BTY",
          "name": "_btyAddress",
          "type": "address"
        },
        {
          "internalType": "address",
          "name": "_addr",
          "type": "address"
        }
      ],
      "stateMutability": "nonpayable",
      "type": "constructor"
    },
    {
      "anonymous": false,
      "inputs": [
        {
          "indexed": false,
          "internalType": "int256",
          "name": "id",
          "type": "int256"
        },
        {
          "indexed": false,
          "internalType": "uint256",
          "name": "tokens",
          "type": "uint256"
        },
        {
          "indexed": false,
          "internalType": "uint256",
          "name": "correctAnswer",
          "type": "uint256"
        }
      ],
      "name": "eventFinish",
      "type": "event"
    },
    {
      "anonymous": false,
      "inputs": [
        {
          "indexed": false,
          "internalType": "int256",
          "name": "id",
          "type": "int256"
        },
        {
          "indexed": false,
          "internalType": "uint256",
          "name": "tokens",
          "type": "uint256"
        }
      ],
      "name": "payToCompanies",
      "type": "event"
    },
    {
      "anonymous": false,
      "inputs": [
        {
          "indexed": false,
          "internalType": "int256",
          "name": "id",
          "type": "int256"
        }
      ],
      "name": "payToExperts",
      "type": "event"
    },
    {
      "anonymous": false,
      "inputs": [
        {
          "indexed": false,
          "internalType": "int256",
          "name": "id",
          "type": "int256"
        }
      ],
      "name": "payToHost",
      "type": "event"
    },
    {
      "anonymous": false,
      "inputs": [
        {
          "indexed": false,
          "internalType": "int256",
          "name": "id",
          "type": "int256"
        },
        {
          "indexed": false,
          "internalType": "uint256",
          "name": "avarageBet",
          "type": "uint256"
        },
        {
          "indexed": false,
          "internalType": "uint256",
          "name": "mintedTokens",
          "type": "uint256"
        }
      ],
      "name": "payToLosers",
      "type": "event"
    },
    {
      "anonymous": false,
      "inputs": [
        {
          "indexed": false,
          "internalType": "int256",
          "name": "id",
          "type": "int256"
        }
      ],
      "name": "payToPlayers",
      "type": "event"
    },
    {
      "anonymous": false,
      "inputs": [
        {
          "indexed": false,
          "internalType": "int256",
          "name": "id",
          "type": "int256"
        },
        {
          "indexed": false,
          "internalType": "string",
          "name": "purpose",
          "type": "string"
        }
      ],
      "name": "revertedEvent",
      "type": "event"
    },
    {
      "inputs": [],
      "name": "GFindex",
      "outputs": [
        {
          "internalType": "uint256",
          "name": "",
          "type": "uint256"
        }
      ],
      "stateMutability": "view",
      "type": "function"
    },
    {
      "inputs": [],
      "name": "GFrewards",
      "outputs": [
        {
          "internalType": "uint256",
          "name": "",
          "type": "uint256"
        }
      ],
      "stateMutability": "view",
      "type": "function"
    },
    {
      "inputs": [],
      "name": "advisorPepc",
      "outputs": [
        {
          "internalType": "uint256",
          "name": "",
          "type": "uint256"
        }
      ],
      "stateMutability": "view",
      "type": "function"
    },
    {
      "inputs": [],
      "name": "advisorPercMint",
      "outputs": [
        {
          "internalType": "uint256",
          "name": "",
          "type": "uint256"
        }
      ],
      "stateMutability": "view",
      "type": "function"
    },
    {
      "inputs": [],
      "name": "betToken",
      "outputs": [
        {
          "internalType": "contract BET",
          "name": "",
          "type": "address"
        }
      ],
      "stateMutability": "view",
      "type": "function"
    },
    {
      "inputs": [],
      "name": "btyToken",
      "outputs": [
        {
          "internalType": "contract BTY",
          "name": "",
          "type": "address"
        }
      ],
      "stateMutability": "view",
      "type": "function"
    },
    {
      "inputs": [
        {
          "internalType": "uint256",
          "name": "_activePlayers",
          "type": "uint256"
        },
        {
          "internalType": "uint256",
          "name": "_pool",
          "type": "uint256"
        },
        {
          "internalType": "uint256",
          "name": "_GFindex",
          "type": "uint256"
        }
      ],
      "name": "calcMintedTokens",
      "outputs": [
        {
          "internalType": "uint256",
          "name": "",
          "type": "uint256"
        }
      ],
      "stateMutability": "pure",
      "type": "function"
    },
    {
      "inputs": [
        {
          "internalType": "int256",
          "name": "_id",
          "type": "int256"
        }
      ],
      "name": "checkEventFinish",
      "outputs": [
        {
          "internalType": "bool",
          "name": "",
          "type": "bool"
        }
      ],
      "stateMutability": "view",
      "type": "function"
    },
    {
      "inputs": [
        {
          "internalType": "int256",
          "name": "_id",
          "type": "int256"
        }
      ],
      "name": "checkReverted",
      "outputs": [
        {
          "internalType": "bool",
          "name": "",
          "type": "bool"
        }
      ],
      "stateMutability": "view",
      "type": "function"
    },
    {
      "inputs": [],
      "name": "comMarketFundPerc",
      "outputs": [
        {
          "internalType": "uint256",
          "name": "",
          "type": "uint256"
        }
      ],
      "stateMutability": "view",
      "type": "function"
    },
    {
      "inputs": [],
      "name": "comMarketFundWallet",
      "outputs": [
        {
          "internalType": "address payable",
          "name": "",
          "type": "address"
        }
      ],
      "stateMutability": "view",
      "type": "function"
    },
    {
      "inputs": [],
      "name": "developFundPerc",
      "outputs": [
        {
          "internalType": "uint256",
          "name": "",
          "type": "uint256"
        }
      ],
      "stateMutability": "view",
      "type": "function"
    },
    {
      "inputs": [],
      "name": "developFundPercPremim",
      "outputs": [
        {
          "internalType": "uint256",
          "name": "",
          "type": "uint256"
        }
      ],
      "stateMutability": "view",
      "type": "function"
    },
    {
      "inputs": [
        {
          "internalType": "int256",
          "name": "",
          "type": "int256"
        }
      ],
      "name": "eventFinishData",
      "outputs": [
        {
          "internalType": "int256",
          "name": "id",
          "type": "int256"
        },
        {
          "internalType": "uint256",
          "name": "correctAnswer",
          "type": "uint256"
        },
        {
          "internalType": "uint256",
          "name": "loserPool",
          "type": "uint256"
        },
        {
          "internalType": "uint256",
          "name": "tokenMinted",
          "type": "uint256"
        },
        {
          "internalType": "bool",
          "name": "reverted",
          "type": "bool"
        },
        {
          "internalType": "bool",
          "name": "eventFinish",
          "type": "bool"
        }
      ],
      "stateMutability": "view",
      "type": "function"
    },
    {
      "inputs": [],
      "name": "expertExtraPerc",
      "outputs": [
        {
          "internalType": "uint256",
          "name": "",
          "type": "uint256"
        }
      ],
      "stateMutability": "view",
      "type": "function"
    },
    {
      "inputs": [],
      "name": "expertPerc",
      "outputs": [
        {
          "internalType": "uint256",
          "name": "",
          "type": "uint256"
        }
      ],
      "stateMutability": "view",
      "type": "function"
    },
    {
      "inputs": [],
      "name": "expertPercMint",
      "outputs": [
        {
          "internalType": "uint256",
          "name": "",
          "type": "uint256"
        }
      ],
      "stateMutability": "view",
      "type": "function"
    },
    {
      "inputs": [],
      "name": "expertPremiumPerc",
      "outputs": [
        {
          "internalType": "uint256",
          "name": "",
          "type": "uint256"
        }
      ],
      "stateMutability": "view",
      "type": "function"
    },
    {
      "inputs": [],
      "name": "extraHostPerc",
      "outputs": [
        {
          "internalType": "uint256",
          "name": "",
          "type": "uint256"
        }
      ],
      "stateMutability": "view",
      "type": "function"
    },
    {
      "inputs": [],
      "name": "extraHostPercMint",
      "outputs": [
        {
          "internalType": "uint256",
          "name": "",
          "type": "uint256"
        }
      ],
      "stateMutability": "view",
      "type": "function"
    },
    {
      "inputs": [],
      "name": "firstWithdrawIndex",
      "outputs": [
        {
          "internalType": "uint256",
          "name": "",
          "type": "uint256"
        }
      ],
      "stateMutability": "view",
      "type": "function"
    },
    {
      "inputs": [],
      "name": "getFirstWithdraw",
      "outputs": [
        {
          "internalType": "uint256",
          "name": "",
          "type": "uint256"
        }
      ],
      "stateMutability": "view",
      "type": "function"
    },
    {
      "inputs": [
        {
          "internalType": "uint256",
          "name": "_percent",
          "type": "uint256"
        },
        {
          "internalType": "uint256",
          "name": "_from",
          "type": "uint256"
        }
      ],
      "name": "getPercent",
      "outputs": [
        {
          "internalType": "uint256",
          "name": "",
          "type": "uint256"
        }
      ],
      "stateMutability": "pure",
      "type": "function"
    },
    {
      "inputs": [],
      "name": "hostPerc",
      "outputs": [
        {
          "internalType": "uint256",
          "name": "",
          "type": "uint256"
        }
      ],
      "stateMutability": "view",
      "type": "function"
    },
    {
      "inputs": [],
      "name": "hostPercMint",
      "outputs": [
        {
          "internalType": "uint256",
          "name": "",
          "type": "uint256"
        }
      ],
      "stateMutability": "view",
      "type": "function"
    },
    {
      "inputs": [],
      "name": "moderatorsFundPerc",
      "outputs": [
        {
          "internalType": "uint256",
          "name": "",
          "type": "uint256"
        }
      ],
      "stateMutability": "view",
      "type": "function"
    },
    {
      "inputs": [],
      "name": "moderatorsFundWallet",
      "outputs": [
        {
          "internalType": "address payable",
          "name": "",
          "type": "address"
        }
      ],
      "stateMutability": "view",
      "type": "function"
    },
    {
      "inputs": [],
      "name": "owner",
      "outputs": [
        {
          "internalType": "address payable",
          "name": "",
          "type": "address"
        }
      ],
      "stateMutability": "view",
      "type": "function"
    },
    {
      "inputs": [],
      "name": "playersPers",
      "outputs": [
        {
          "internalType": "uint256",
          "name": "",
          "type": "uint256"
        }
      ],
      "stateMutability": "view",
      "type": "function"
    },
    {
      "inputs": [],
      "name": "playersPersMint",
      "outputs": [
        {
          "internalType": "uint256",
          "name": "",
          "type": "uint256"
        }
      ],
      "stateMutability": "view",
      "type": "function"
    },
    {
      "inputs": [],
      "name": "playersPersPremiun",
      "outputs": [
        {
          "internalType": "uint256",
          "name": "",
          "type": "uint256"
        }
      ],
      "stateMutability": "view",
      "type": "function"
    },
    {
      "inputs": [
        {
          "internalType": "address payable",
          "name": "_wallet",
          "type": "address"
        }
      ],
      "name": "setComMarketFundWallet",
      "outputs": [],
      "stateMutability": "nonpayable",
      "type": "function"
    },
    {
      "inputs": [
        {
          "internalType": "uint256",
          "name": "_developFundPerc",
          "type": "uint256"
        }
      ],
      "name": "setDevelopFundPerc",
      "outputs": [],
      "stateMutability": "nonpayable",
      "type": "function"
    },
    {
      "inputs": [
        {
          "internalType": "uint256",
          "name": "_expertPerc",
          "type": "uint256"
        }
      ],
      "name": "setExpertPerc",
      "outputs": [],
      "stateMutability": "nonpayable",
      "type": "function"
    },
    {
      "inputs": [
        {
          "internalType": "uint256",
          "name": "_firstWithdrawIndex",
          "type": "uint256"
        }
      ],
      "name": "setFirstWithdraw",
      "outputs": [],
      "stateMutability": "nonpayable",
      "type": "function"
    },
    {
      "inputs": [
        {
          "internalType": "uint256",
          "name": "_GFindex",
          "type": "uint256"
        }
      ],
      "name": "setGFindex",
      "outputs": [],
      "stateMutability": "nonpayable",
      "type": "function"
    },
    {
      "inputs": [
        {
          "internalType": "uint256",
          "name": "_GFrewards",
          "type": "uint256"
        }
      ],
      "name": "setGFrewards",
      "outputs": [],
      "stateMutability": "nonpayable",
      "type": "function"
    },
    {
      "inputs": [
        {
          "internalType": "uint256",
          "name": "_hostPercMint",
          "type": "uint256"
        },
        {
          "internalType": "uint256",
          "name": "_hostPerc",
          "type": "uint256"
        }
      ],
      "name": "setHostPerc",
      "outputs": [],
      "stateMutability": "nonpayable",
      "type": "function"
    },
    {
      "inputs": [
        {
          "internalType": "address payable",
          "name": "_wallet",
          "type": "address"
        }
      ],
      "name": "setModeratorsFundWallet",
      "outputs": [],
      "stateMutability": "nonpayable",
      "type": "function"
    },
    {
      "inputs": [
        {
          "internalType": "uint256",
          "name": "_playersPersMint",
          "type": "uint256"
        }
      ],
      "name": "setPlayerPersMint",
      "outputs": [],
      "stateMutability": "nonpayable",
      "type": "function"
    },
    {
      "inputs": [
        {
          "internalType": "int256",
          "name": "_id",
          "type": "int256"
        }
      ],
      "name": "setReverted",
      "outputs": [],
      "stateMutability": "nonpayable",
      "type": "function"
    },
    {
      "inputs": [
        {
          "internalType": "uint256",
          "name": "_welcomeBTYTokens",
          "type": "uint256"
        }
      ],
      "name": "setWelcomeBTYTokens",
      "outputs": [],
      "stateMutability": "nonpayable",
      "type": "function"
    },
    {
      "inputs": [],
      "name": "welcomeBTYTokens",
      "outputs": [
        {
          "internalType": "uint256",
          "name": "",
          "type": "uint256"
        }
      ],
      "stateMutability": "view",
      "type": "function"
    },
    {
      "inputs": [
        {
          "internalType": "int256",
          "name": "_id",
          "type": "int256"
        }
      ],
      "name": "letsFindCorrectAnswer",
      "outputs": [],
      "stateMutability": "nonpayable",
      "type": "function"
    },
    {
      "inputs": [
        {
          "internalType": "int256",
          "name": "_id",
          "type": "int256"
        },
        {
          "internalType": "string",
          "name": "purpose",
          "type": "string"
        }
      ],
      "name": "revertedPayment",
      "outputs": [],
      "stateMutability": "nonpayable",
      "type": "function"
    },
    {
      "inputs": [
        {
          "internalType": "int256",
          "name": "_id",
          "type": "int256"
        }
      ],
      "name": "letsPayToCompanies",
      "outputs": [],
      "stateMutability": "nonpayable",
      "type": "function"
    },
    {
      "inputs": [
        {
          "internalType": "int256",
          "name": "_id",
          "type": "int256"
        }
      ],
      "name": "letsPaytoHost",
      "outputs": [],
      "stateMutability": "nonpayable",
      "type": "function"
    }
  ],
  "bytecode": "0x6080604052600a600055600460015560016002556001600355600a60045560046005556002600655600f600755600260085560016009556032600a55605a600b55604b600c55600a600d5568056bc75e2d63100000600e556064600f55678ac7230489e80000601055600a601255600a6013556005601555600260175534801561008857600080fd5b50604051613fe6380380613fe6833981810160405260608110156100ab57600080fd5b8101908080519060200190929190805190602001909291908051906020019092919050505033601160006101000a81548173ffffffffffffffffffffffffffffffffffffffff021916908373ffffffffffffffffffffffffffffffffffffffff16021790555082601960006101000a81548173ffffffffffffffffffffffffffffffffffffffff021916908373ffffffffffffffffffffffffffffffffffffffff16021790555081601a60006101000a81548173ffffffffffffffffffffffffffffffffffffffff021916908373ffffffffffffffffffffffffffffffffffffffff16021790555080601b60006101000a81548173ffffffffffffffffffffffffffffffffffffffff021916908373ffffffffffffffffffffffffffffffffffffffff160217905550505050613e00806101e66000396000f3fe608060405234801561001057600080fd5b50600436106102955760003560e01c80638da5cb5b11610167578063c12c8c46116100ce578063df18581711610087578063df18581714610a80578063e1755c6a14610a9e578063e1dcc40914610abc578063e79f365d14610ada578063ef99e09914610b08578063f7ec585114610b2657610295565b8063c12c8c4614610976578063c369085e14610994578063d343c1dc146109c2578063d7a86da714610a06578063dba8fe8714610a34578063dd3c228314610a5257610295565b8063a03c669711610120578063a03c669714610815578063a6b883ef14610843578063aaa3091e146108ac578063af9ace4514610902578063b1642b5014610920578063b44901e81461095857610295565b80638da5cb5b146106f55780638fc8bc4214610729578063903a19cf146107475780639336e8fd1461078b5780639580de67146107b95780639ec2345a146107e757610295565b80633467f6971161020b578063769c4898116101c4578063769c48981461056e578063786508c51461063357806378691f1614610651578063802cc34c14610685578063896aa7a4146106b95780638a9dbda7146106d757610295565b80633467f6971461043a578063362e41b61461046e578063506d05cf146104b257806355e84158146104e6578063622198661461050457806373e258ac1461055057610295565b80631f36c4831161025d5780631f36c4831461035057806324045aad1461037e57806324beedd3146103c257806327e53717146103e05780632c316d05146103fe5780632e63e4521461041c57610295565b8063051e9ea71461029a578063134c3b07146102c857806315cfe419146102e657806319d6b7d8146103045780631c40835714610332575b600080fd5b6102c6600480360360208110156102b057600080fd5b8101908080359060200190929190505050610b44565b005b6102d0611b2c565b6040518082815260200191505060405180910390f35b6102ee611b32565b6040518082815260200191505060405180910390f35b6103306004803603602081101561031a57600080fd5b8101908080359060200190929190505050611b38565b005b61033a611be8565b6040518082815260200191505060405180910390f35b61037c6004803603602081101561036657600080fd5b8101908080359060200190929190505050611bee565b005b6103c06004803603602081101561039457600080fd5b81019080803573ffffffffffffffffffffffffffffffffffffffff169060200190929190505050612520565b005b6103ca61260a565b6040518082815260200191505060405180910390f35b6103e8612610565b6040518082815260200191505060405180910390f35b610406612616565b6040518082815260200191505060405180910390f35b61042461261c565b6040518082815260200191505060405180910390f35b610442612622565b604051808273ffffffffffffffffffffffffffffffffffffffff16815260200191505060405180910390f35b61049a6004803603602081101561048457600080fd5b8101908080359060200190929190505050612648565b60405180821515815260200191505060405180910390f35b6104ba612675565b604051808273ffffffffffffffffffffffffffffffffffffffff16815260200191505060405180910390f35b6104ee61269b565b6040518082815260200191505060405180910390f35b61053a6004803603604081101561051a57600080fd5b8101908080359060200190929190803590602001909291905050506126a1565b6040518082815260200191505060405180910390f35b6105586126b8565b6040518082815260200191505060405180910390f35b6106316004803603604081101561058457600080fd5b8101908080359060200190929190803590602001906401000000008111156105ab57600080fd5b8201836020820111156105bd57600080fd5b803590602001918460018302840111640100000000831117156105df57600080fd5b91908080601f016020809104026020016040519081016040528093929190818152602001838380828437600081840152601f19601f8201169050808301925050505050505091929192905050506126be565b005b61063b612772565b6040518082815260200191505060405180910390f35b610659612778565b604051808273ffffffffffffffffffffffffffffffffffffffff16815260200191505060405180910390f35b61068d61279e565b604051808273ffffffffffffffffffffffffffffffffffffffff16815260200191505060405180910390f35b6106c16127c4565b6040518082815260200191505060405180910390f35b6106df6127ca565b6040518082815260200191505060405180910390f35b6106fd6127d0565b604051808273ffffffffffffffffffffffffffffffffffffffff16815260200191505060405180910390f35b6107316127f6565b6040518082815260200191505060405180910390f35b6107896004803603602081101561075d57600080fd5b81019080803573ffffffffffffffffffffffffffffffffffffffff1690602001909291905050506127fc565b005b6107b7600480360360208110156107a157600080fd5b81019080803590602001909291905050506128e6565b005b6107e5600480360360208110156107cf57600080fd5b8101908080359060200190929190505050612996565b005b610813600480360360208110156107fd57600080fd5b8101908080359060200190929190505050612a46565b005b6108416004803603602081101561082b57600080fd5b8101908080359060200190929190505050612a78565b005b61086f6004803603602081101561085957600080fd5b8101908080359060200190929190505050612b28565b6040518087815260200186815260200185815260200184815260200183151581526020018215158152602001965050505050505060405180910390f35b6108ec600480360360608110156108c257600080fd5b81019080803590602001909291908035906020019092919080359060200190929190505050612b7e565b6040518082815260200191505060405180910390f35b61090a612bb2565b6040518082815260200191505060405180910390f35b6109566004803603604081101561093657600080fd5b810190808035906020019092919080359060200190929190505050612bb8565b005b610960612c70565b6040518082815260200191505060405180910390f35b61097e612c76565b6040518082815260200191505060405180910390f35b6109c0600480360360208110156109aa57600080fd5b8101908080359060200190929190505050612c7c565b005b6109ee600480360360208110156109d857600080fd5b8101908080359060200190929190505050612d2c565b60405180821515815260200191505060405180910390f35b610a3260048036036020811015610a1c57600080fd5b8101908080359060200190929190505050612d59565b005b610a3c612e09565b6040518082815260200191505060405180910390f35b610a7e60048036036020811015610a6857600080fd5b8101908080359060200190929190505050612e0f565b005b610a88612ebf565b6040518082815260200191505060405180910390f35b610aa6612ec5565b6040518082815260200191505060405180910390f35b610ac4612ecb565b6040518082815260200191505060405180910390f35b610b0660048036036020811015610af057600080fd5b8101908080359060200190929190505050612ed1565b005b610b106133e2565b6040518082815260200191505060405180910390f35b610b2e6133f0565b6040518082815260200191505060405180910390f35b601160009054906101000a900473ffffffffffffffffffffffffffffffffffffffff1673ffffffffffffffffffffffffffffffffffffffff163373ffffffffffffffffffffffffffffffffffffffff1614610bea576040517f08c379a0000000000000000000000000000000000000000000000000000000008152600401808060200182810382526031815260200180613d9a6031913960400191505060405180910390fd5b600073ffffffffffffffffffffffffffffffffffffffff16601b60009054906101000a900473ffffffffffffffffffffffffffffffffffffffff1673ffffffffffffffffffffffffffffffffffffffff166342f1bb8d836040518263ffffffff1660e01b81526004018082815260200191505060206040518083038186803b158015610c7557600080fd5b505afa158015610c89573d6000803e3d6000fd5b505050506040513d6020811015610c9f57600080fd5b810190808051906020019092919050505073ffffffffffffffffffffffffffffffffffffffff161461163e57601960009054906101000a900473ffffffffffffffffffffffffffffffffffffffff1673ffffffffffffffffffffffffffffffffffffffff1663341ce1fc601b60009054906101000a900473ffffffffffffffffffffffffffffffffffffffff1673ffffffffffffffffffffffffffffffffffffffff1663f438835c846040518263ffffffff1660e01b81526004018082815260200191505060206040518083038186803b158015610d7c57600080fd5b505afa158015610d90573d6000803e3d6000fd5b505050506040513d6020811015610da657600080fd5b8101908080519060200190929190505050610ddd6018600086815260200190815260200160002060030154600354600054016126a1565b6040518363ffffffff1660e01b8152600401808373ffffffffffffffffffffffffffffffffffffffff16815260200182815260200192505050602060405180830381600087803b158015610e3057600080fd5b505af1158015610e44573d6000803e3d6000fd5b505050506040513d6020811015610e5a57600080fd5b8101908080519060200190929190505050610edd576040517f08c379a00000000000000000000000000000000000000000000000000000000081526004018080602001828103825260168152602001807f6d696e7420686f737420776974682061647669736f720000000000000000000081525060200191505060405180910390fd5b601960009054906101000a900473ffffffffffffffffffffffffffffffffffffffff1673ffffffffffffffffffffffffffffffffffffffff1663341ce1fc601b60009054906101000a900473ffffffffffffffffffffffffffffffffffffffff1673ffffffffffffffffffffffffffffffffffffffff166342f1bb8d846040518263ffffffff1660e01b81526004018082815260200191505060206040518083038186803b158015610f8e57600080fd5b505afa158015610fa2573d6000803e3d6000fd5b505050506040513d6020811015610fb857600080fd5b8101908080519060200190929190505050610feb60186000868152602001908152602001600020600301546008546126a1565b6040518363ffffffff1660e01b8152600401808373ffffffffffffffffffffffffffffffffffffffff16815260200182815260200192505050602060405180830381600087803b15801561103e57600080fd5b505af1158015611052573d6000803e3d6000fd5b505050506040513d602081101561106857600080fd5b81019080805190602001909291905050506110eb576040517f08c379a000000000000000000000000000000000000000000000000000000000815260040180806020018281038252600f8152602001807f6d696e7420746f2061647669736f72000000000000000000000000000000000081525060200191505060405180910390fd5b601960009054906101000a900473ffffffffffffffffffffffffffffffffffffffff1673ffffffffffffffffffffffffffffffffffffffff1663a9059cbb601b60009054906101000a900473ffffffffffffffffffffffffffffffffffffffff1673ffffffffffffffffffffffffffffffffffffffff1663f438835c846040518263ffffffff1660e01b81526004018082815260200191505060206040518083038186803b15801561119c57600080fd5b505afa1580156111b0573d6000803e3d6000fd5b505050506040513d60208110156111c657600080fd5b8101908080519060200190929190505050611294601b60009054906101000a900473ffffffffffffffffffffffffffffffffffffffff1673ffffffffffffffffffffffffffffffffffffffff166330286c37866040518263ffffffff1660e01b81526004018082815260200191505060206040518083038186803b15801561124d57600080fd5b505afa158015611261573d6000803e3d6000fd5b505050506040513d602081101561127757600080fd5b8101908080519060200190929190505050600254600154016126a1565b6040518363ffffffff1660e01b8152600401808373ffffffffffffffffffffffffffffffffffffffff16815260200182815260200192505050602060405180830381600087803b1580156112e757600080fd5b505af11580156112fb573d6000803e3d6000fd5b505050506040513d602081101561131157600080fd5b8101908080519060200190929190505050611394576040517f08c379a00000000000000000000000000000000000000000000000000000000081526004018080602001828103825260188152602001807f70617920746f20686f737420776974682061647669736f72000000000000000081525060200191505060405180910390fd5b601960009054906101000a900473ffffffffffffffffffffffffffffffffffffffff1673ffffffffffffffffffffffffffffffffffffffff1663a9059cbb601b60009054906101000a900473ffffffffffffffffffffffffffffffffffffffff1673ffffffffffffffffffffffffffffffffffffffff166342f1bb8d846040518263ffffffff1660e01b81526004018082815260200191505060206040518083038186803b15801561144557600080fd5b505afa158015611459573d6000803e3d6000fd5b505050506040513d602081101561146f57600080fd5b8101908080519060200190929190505050611539601b60009054906101000a900473ffffffffffffffffffffffffffffffffffffffff1673ffffffffffffffffffffffffffffffffffffffff166330286c37866040518263ffffffff1660e01b81526004018082815260200191505060206040518083038186803b1580156114f657600080fd5b505afa15801561150a573d6000803e3d6000fd5b505050506040513d602081101561152057600080fd5b81019080805190602001909291905050506009546126a1565b6040518363ffffffff1660e01b8152600401808373ffffffffffffffffffffffffffffffffffffffff16815260200182815260200192505050602060405180830381600087803b15801561158c57600080fd5b505af11580156115a0573d6000803e3d6000fd5b505050506040513d60208110156115b657600080fd5b8101908080519060200190929190505050611639576040517f08c379a000000000000000000000000000000000000000000000000000000000815260040180806020018281038252600e8152602001807f70617920746f2061647669736f7200000000000000000000000000000000000081525060200191505060405180910390fd5b611af2565b601960009054906101000a900473ffffffffffffffffffffffffffffffffffffffff1673ffffffffffffffffffffffffffffffffffffffff1663341ce1fc601b60009054906101000a900473ffffffffffffffffffffffffffffffffffffffff1673ffffffffffffffffffffffffffffffffffffffff1663f438835c846040518263ffffffff1660e01b81526004018082815260200191505060206040518083038186803b1580156116ef57600080fd5b505afa158015611703573d6000803e3d6000fd5b505050506040513d602081101561171957600080fd5b810190808051906020019092919050505061174c60186000868152602001908152602001600020600301546000546126a1565b6040518363ffffffff1660e01b8152600401808373ffffffffffffffffffffffffffffffffffffffff16815260200182815260200192505050602060405180830381600087803b15801561179f57600080fd5b505af11580156117b3573d6000803e3d6000fd5b505050506040513d60208110156117c957600080fd5b810190808051906020019092919050505061184c576040517f08c379a000000000000000000000000000000000000000000000000000000000815260040180806020018281038252600c8152602001807f6d696e7420746f20686f7374000000000000000000000000000000000000000081525060200191505060405180910390fd5b601960009054906101000a900473ffffffffffffffffffffffffffffffffffffffff1673ffffffffffffffffffffffffffffffffffffffff1663a9059cbb601b60009054906101000a900473ffffffffffffffffffffffffffffffffffffffff1673ffffffffffffffffffffffffffffffffffffffff1663f438835c846040518263ffffffff1660e01b81526004018082815260200191505060206040518083038186803b1580156118fd57600080fd5b505afa158015611911573d6000803e3d6000fd5b505050506040513d602081101561192757600080fd5b81019080805190602001909291905050506119f1601b60009054906101000a900473ffffffffffffffffffffffffffffffffffffffff1673ffffffffffffffffffffffffffffffffffffffff166330286c37866040518263ffffffff1660e01b81526004018082815260200191505060206040518083038186803b1580156119ae57600080fd5b505afa1580156119c2573d6000803e3d6000fd5b505050506040513d60208110156119d857600080fd5b81019080805190602001909291905050506001546126a1565b6040518363ffffffff1660e01b8152600401808373ffffffffffffffffffffffffffffffffffffffff16815260200182815260200192505050602060405180830381600087803b158015611a4457600080fd5b505af1158015611a58573d6000803e3d6000fd5b505050506040513d6020811015611a6e57600080fd5b8101908080519060200190929190505050611af1576040517f08c379a000000000000000000000000000000000000000000000000000000000815260040180806020018281038252600b8152602001807f70617920746f20686f737400000000000000000000000000000000000000000081525060200191505060405180910390fd5b5b7f6a4809373725ad75f8703de0bd9b197e5729e64a7b655552880c405200fbc6f5816040518082815260200191505060405180910390a150565b600c5481565b600f5481565b601160009054906101000a900473ffffffffffffffffffffffffffffffffffffffff1673ffffffffffffffffffffffffffffffffffffffff163373ffffffffffffffffffffffffffffffffffffffff1614611bde576040517f08c379a0000000000000000000000000000000000000000000000000000000008152600401808060200182810382526031815260200180613d9a6031913960400191505060405180910390fd5b8060108190555050565b60125481565b601160009054906101000a900473ffffffffffffffffffffffffffffffffffffffff1673ffffffffffffffffffffffffffffffffffffffff163373ffffffffffffffffffffffffffffffffffffffff1614611c94576040517f08c379a0000000000000000000000000000000000000000000000000000000008152600401808060200182810382526031815260200180613d9a6031913960400191505060405180910390fd5b601960009054906101000a900473ffffffffffffffffffffffffffffffffffffffff1673ffffffffffffffffffffffffffffffffffffffff1663341ce1fc601160009054906101000a900473ffffffffffffffffffffffffffffffffffffffff16611d1760186000868152602001908152602001600020600301546012546126a1565b6040518363ffffffff1660e01b8152600401808373ffffffffffffffffffffffffffffffffffffffff16815260200182815260200192505050602060405180830381600087803b158015611d6a57600080fd5b505af1158015611d7e573d6000803e3d6000fd5b505050506040513d6020811015611d9457600080fd5b8101908080519060200190929190505050611e17576040517f08c379a00000000000000000000000000000000000000000000000000000000081526004018080602001828103825260158152602001807f6d696e7420646576656c6f706d656e742066756e64000000000000000000000081525060200191505060405180910390fd5b6000601b60009054906101000a900473ffffffffffffffffffffffffffffffffffffffff1673ffffffffffffffffffffffffffffffffffffffff166380559173836040518263ffffffff1660e01b81526004018082815260200191505060206040518083038186803b158015611e8c57600080fd5b505afa158015611ea0573d6000803e3d6000fd5b505050506040513d6020811015611eb657600080fd5b810190808051906020019092919050505011156120e857601a60009054906101000a900473ffffffffffffffffffffffffffffffffffffffff1673ffffffffffffffffffffffffffffffffffffffff1663a9059cbb601160009054906101000a900473ffffffffffffffffffffffffffffffffffffffff16611fe7601b60009054906101000a900473ffffffffffffffffffffffffffffffffffffffff1673ffffffffffffffffffffffffffffffffffffffff166380559173866040518263ffffffff1660e01b81526004018082815260200191505060206040518083038186803b158015611fa457600080fd5b505afa158015611fb8573d6000803e3d6000fd5b505050506040513d6020811015611fce57600080fd5b81019080805190602001909291905050506013546126a1565b6040518363ffffffff1660e01b8152600401808373ffffffffffffffffffffffffffffffffffffffff16815260200182815260200192505050602060405180830381600087803b15801561203a57600080fd5b505af115801561204e573d6000803e3d6000fd5b505050506040513d602081101561206457600080fd5b81019080805190602001909291905050506120e7576040517f08c379a000000000000000000000000000000000000000000000000000000000815260040180806020018281038252601c8152602001807f7072656d69756d2070617920646576656c6f706d656e742066756e640000000081525060200191505060405180910390fd5b5b60008073ffffffffffffffffffffffffffffffffffffffff16601b60009054906101000a900473ffffffffffffffffffffffffffffffffffffffff1673ffffffffffffffffffffffffffffffffffffffff166342f1bb8d846040518263ffffffff1660e01b81526004018082815260200191505060206040518083038186803b15801561217457600080fd5b505afa158015612188573d6000803e3d6000fd5b505050506040513d602081101561219e57600080fd5b810190808051906020019092919050505073ffffffffffffffffffffffffffffffffffffffff1614156121db5760085460035460155401016121df565b6015545b9050601960009054906101000a900473ffffffffffffffffffffffffffffffffffffffff1673ffffffffffffffffffffffffffffffffffffffff1663341ce1fc601460009054906101000a900473ffffffffffffffffffffffffffffffffffffffff166122626018600087815260200190815260200160002060030154856126a1565b6040518363ffffffff1660e01b8152600401808373ffffffffffffffffffffffffffffffffffffffff16815260200182815260200192505050602060405180830381600087803b1580156122b557600080fd5b505af11580156122c9573d6000803e3d6000fd5b505050506040513d60208110156122df57600080fd5b8101908080519060200190929190505050612362576040517f08c379a000000000000000000000000000000000000000000000000000000000815260040180806020018281038252601d8152602001807f6d696e7420636f6d6d756e697479206d61726b6574696e672066756e6400000081525060200191505060405180910390fd5b601960009054906101000a900473ffffffffffffffffffffffffffffffffffffffff1673ffffffffffffffffffffffffffffffffffffffff1663341ce1fc601660009054906101000a900473ffffffffffffffffffffffffffffffffffffffff166123e560186000878152602001908152602001600020600301546017546126a1565b6040518363ffffffff1660e01b8152600401808373ffffffffffffffffffffffffffffffffffffffff16815260200182815260200192505050602060405180830381600087803b15801561243857600080fd5b505af115801561244c573d6000803e3d6000fd5b505050506040513d602081101561246257600080fd5b81019080805190602001909291905050506124e5576040517f08c379a00000000000000000000000000000000000000000000000000000000081526004018080602001828103825260148152602001807f6d696e74206d6f64657261746f72732066756e6400000000000000000000000081525060200191505060405180910390fd5b7f2b64177fba354026330142168508431e5a97d0400a1236ccbe5b3835d38d4f8d826040518082815260200191505060405180910390a15050565b601160009054906101000a900473ffffffffffffffffffffffffffffffffffffffff1673ffffffffffffffffffffffffffffffffffffffff163373ffffffffffffffffffffffffffffffffffffffff16146125c6576040517f08c379a0000000000000000000000000000000000000000000000000000000008152600401808060200182810382526031815260200180613d9a6031913960400191505060405180910390fd5b80601660006101000a81548173ffffffffffffffffffffffffffffffffffffffff021916908373ffffffffffffffffffffffffffffffffffffffff16021790555050565b60175481565b600b5481565b60065481565b60105481565b601660009054906101000a900473ffffffffffffffffffffffffffffffffffffffff1681565b60006018600083815260200190815260200160002060040160009054906101000a900460ff169050919050565b601a60009054906101000a900473ffffffffffffffffffffffffffffffffffffffff1681565b60035481565b60006064838302816126af57fe5b04905092915050565b600a5481565b601160009054906101000a900473ffffffffffffffffffffffffffffffffffffffff1673ffffffffffffffffffffffffffffffffffffffff163373ffffffffffffffffffffffffffffffffffffffff1614612764576040517f08c379a0000000000000000000000000000000000000000000000000000000008152600401808060200182810382526031815260200180613d9a6031913960400191505060405180910390fd5b61276e82826133f6565b5050565b60095481565b601960009054906101000a900473ffffffffffffffffffffffffffffffffffffffff1681565b601460009054906101000a900473ffffffffffffffffffffffffffffffffffffffff1681565b60055481565b60005481565b601160009054906101000a900473ffffffffffffffffffffffffffffffffffffffff1681565b60015481565b601160009054906101000a900473ffffffffffffffffffffffffffffffffffffffff1673ffffffffffffffffffffffffffffffffffffffff163373ffffffffffffffffffffffffffffffffffffffff16146128a2576040517f08c379a0000000000000000000000000000000000000000000000000000000008152600401808060200182810382526031815260200180613d9a6031913960400191505060405180910390fd5b80601460006101000a81548173ffffffffffffffffffffffffffffffffffffffff021916908373ffffffffffffffffffffffffffffffffffffffff16021790555050565b601160009054906101000a900473ffffffffffffffffffffffffffffffffffffffff1673ffffffffffffffffffffffffffffffffffffffff163373ffffffffffffffffffffffffffffffffffffffff161461298c576040517f08c379a0000000000000000000000000000000000000000000000000000000008152600401808060200182810382526031815260200180613d9a6031913960400191505060405180910390fd5b80600a8190555050565b601160009054906101000a900473ffffffffffffffffffffffffffffffffffffffff1673ffffffffffffffffffffffffffffffffffffffff163373ffffffffffffffffffffffffffffffffffffffff1614612a3c576040517f08c379a0000000000000000000000000000000000000000000000000000000008152600401808060200182810382526031815260200180613d9a6031913960400191505060405180910390fd5b8060058190555050565b60016018600083815260200190815260200160002060040160006101000a81548160ff02191690831515021790555050565b601160009054906101000a900473ffffffffffffffffffffffffffffffffffffffff1673ffffffffffffffffffffffffffffffffffffffff163373ffffffffffffffffffffffffffffffffffffffff1614612b1e576040517f08c379a0000000000000000000000000000000000000000000000000000000008152600401808060200182810382526031815260200180613d9a6031913960400191505060405180910390fd5b80600d8190555050565b60186020528060005260406000206000915090508060000154908060010154908060020154908060030154908060040160009054906101000a900460ff16908060040160019054906101000a900460ff16905086565b6000808460640390506000858581612b9257fe5b0490506127108483888402020281612ba657fe5b04925050509392505050565b60045481565b601160009054906101000a900473ffffffffffffffffffffffffffffffffffffffff1673ffffffffffffffffffffffffffffffffffffffff163373ffffffffffffffffffffffffffffffffffffffff1614612c5e576040517f08c379a0000000000000000000000000000000000000000000000000000000008152600401808060200182810382526031815260200180613d9a6031913960400191505060405180910390fd5b81600081905550806001819055505050565b600d5481565b60025481565b601160009054906101000a900473ffffffffffffffffffffffffffffffffffffffff1673ffffffffffffffffffffffffffffffffffffffff163373ffffffffffffffffffffffffffffffffffffffff1614612d22576040517f08c379a0000000000000000000000000000000000000000000000000000000008152600401808060200182810382526031815260200180613d9a6031913960400191505060405180910390fd5b80600f8190555050565b60006018600083815260200190815260200160002060040160019054906101000a900460ff169050919050565b601160009054906101000a900473ffffffffffffffffffffffffffffffffffffffff1673ffffffffffffffffffffffffffffffffffffffff163373ffffffffffffffffffffffffffffffffffffffff1614612dff576040517f08c379a0000000000000000000000000000000000000000000000000000000008152600401808060200182810382526031815260200180613d9a6031913960400191505060405180910390fd5b80600e8190555050565b60075481565b601160009054906101000a900473ffffffffffffffffffffffffffffffffffffffff1673ffffffffffffffffffffffffffffffffffffffff163373ffffffffffffffffffffffffffffffffffffffff1614612eb5576040517f08c379a0000000000000000000000000000000000000000000000000000000008152600401808060200182810382526031815260200180613d9a6031913960400191505060405180910390fd5b8060128190555050565b600e5481565b60155481565b60135481565b601160009054906101000a900473ffffffffffffffffffffffffffffffffffffffff1673ffffffffffffffffffffffffffffffffffffffff163373ffffffffffffffffffffffffffffffffffffffff1614612f77576040517f08c379a0000000000000000000000000000000000000000000000000000000008152600401808060200182810382526031815260200180613d9a6031913960400191505060405180910390fd5b600080600080601b60009054906101000a900473ffffffffffffffffffffffffffffffffffffffff1673ffffffffffffffffffffffffffffffffffffffff1663a96c2aea866040518263ffffffff1660e01b81526004018082815260200191505060206040518083038186803b158015612ff057600080fd5b505afa158015613004573d6000803e3d6000fd5b505050506040513d602081101561301a57600080fd5b8101908080519060200190929190505050905060005b818110156133395784601b60009054906101000a900473ffffffffffffffffffffffffffffffffffffffff1673ffffffffffffffffffffffffffffffffffffffff166323c8778e88846040518363ffffffff1660e01b8152600401808381526020018281526020019250505060206040518083038186803b1580156130b457600080fd5b505afa1580156130c8573d6000803e3d6000fd5b505050506040513d60208110156130de57600080fd5b810190808051906020019092919050505011156131b557601b60009054906101000a900473ffffffffffffffffffffffffffffffffffffffff1673ffffffffffffffffffffffffffffffffffffffff166323c8778e87836040518363ffffffff1660e01b8152600401808381526020018281526020019250505060206040518083038186803b15801561317057600080fd5b505afa158015613184573d6000803e3d6000fd5b505050506040513d602081101561319a57600080fd5b8101908080519060200190929190505050945080925061332c565b84601b60009054906101000a900473ffffffffffffffffffffffffffffffffffffffff1673ffffffffffffffffffffffffffffffffffffffff166323c8778e88846040518363ffffffff1660e01b8152600401808381526020018281526020019250505060206040518083038186803b15801561323157600080fd5b505afa158015613245573d6000803e3d6000fd5b505050506040513d602081101561325b57600080fd5b8101908080519060200190929190505050141561332b57601b60009054906101000a900473ffffffffffffffffffffffffffffffffffffffff1673ffffffffffffffffffffffffffffffffffffffff166323c8778e87836040518363ffffffff1660e01b8152600401808381526020018281526020019250505060206040518083038186803b1580156132ed57600080fd5b505afa158015613301573d6000803e3d6000fd5b505050506040513d602081101561331757600080fd5b810190808051906020019092919050505093505b5b8080600101915050613030565b50838314156133b55760016018600087815260200190815260200160002060040160006101000a81548160ff0219169083151502179055506133b0856040518060400160405280600f81526020017f6475706c696361742065787065727400000000000000000000000000000000008152506133f6565b6133db565b8160186000878152602001908152602001600020600101819055506133da828661391b565b5b5050505050565b6000600d5460105402905090565b60085481565b60005b601b60009054906101000a900473ffffffffffffffffffffffffffffffffffffffff1673ffffffffffffffffffffffffffffffffffffffff1663a96c2aea846040518263ffffffff1660e01b81526004018082815260200191505060206040518083038186803b15801561346c57600080fd5b505afa158015613480573d6000803e3d6000fd5b505050506040513d602081101561349657600080fd5b81019080805190602001909291905050508110156138435760005b601b60009054906101000a900473ffffffffffffffffffffffffffffffffffffffff1673ffffffffffffffffffffffffffffffffffffffff166371aee94585846040518363ffffffff1660e01b8152600401808381526020018281526020019250505060206040518083038186803b15801561352c57600080fd5b505afa158015613540573d6000803e3d6000fd5b505050506040513d602081101561355657600080fd5b810190808051906020019092919050505081101561383557601960009054906101000a900473ffffffffffffffffffffffffffffffffffffffff1673ffffffffffffffffffffffffffffffffffffffff1663a9059cbb601b60009054906101000a900473ffffffffffffffffffffffffffffffffffffffff1673ffffffffffffffffffffffffffffffffffffffff16637c997f678786866040518463ffffffff1660e01b815260040180848152602001838152602001828152602001935050505060206040518083038186803b15801561362f57600080fd5b505afa158015613643573d6000803e3d6000fd5b505050506040513d602081101561365957600080fd5b8101908080519060200190929190505050601b60009054906101000a900473ffffffffffffffffffffffffffffffffffffffff1673ffffffffffffffffffffffffffffffffffffffff1663859f0f6a8887876040518463ffffffff1660e01b815260040180848152602001838152602001828152602001935050505060206040518083038186803b1580156136ed57600080fd5b505afa158015613701573d6000803e3d6000fd5b505050506040513d602081101561371757600080fd5b81019080805190602001909291905050506040518363ffffffff1660e01b8152600401808373ffffffffffffffffffffffffffffffffffffffff16815260200182815260200192505050602060405180830381600087803b15801561377b57600080fd5b505af115801561378f573d6000803e3d6000fd5b505050506040513d60208110156137a557600080fd5b8101908080519060200190929190505050613828576040517f08c379a000000000000000000000000000000000000000000000000000000000815260040180806020018281038252600a8152602001807f726576657274206265740000000000000000000000000000000000000000000081525060200191505060405180910390fd5b80806001019150506134b1565b5080806001019150506133f9565b5060016018600084815260200190815260200160002060040160006101000a81548160ff0219169083151502179055507f847521552ad126e64c52b14640c804737bd67f2b6674309b332d1e5b17f857d182826040518083815260200180602001828103825283818151815260200191508051906020019080838360005b838110156138dc5780820151818401526020810190506138c1565b50505050905090810190601f1680156139095780820380516001836020036101000a031916815260200191505b50935050505060405180910390a15050565b600080600090505b601b60009054906101000a900473ffffffffffffffffffffffffffffffffffffffff1673ffffffffffffffffffffffffffffffffffffffff166371aee94584866040518363ffffffff1660e01b8152600401808381526020018281526020019250505060206040518083038186803b15801561399e57600080fd5b505afa1580156139b2573d6000803e3d6000fd5b505050506040513d60208110156139c857600080fd5b8101908080519060200190929190505050811015613aaf57601b60009054906101000a900473ffffffffffffffffffffffffffffffffffffffff1673ffffffffffffffffffffffffffffffffffffffff1663859f0f6a8486846040518463ffffffff1660e01b815260040180848152602001838152602001828152602001935050505060206040518083038186803b158015613a6357600080fd5b505afa158015613a77573d6000803e3d6000fd5b505050506040513d6020811015613a8d57600080fd5b8101908080519060200190929190505050820191508080600101915050613923565b50600081601b60009054906101000a900473ffffffffffffffffffffffffffffffffffffffff1673ffffffffffffffffffffffffffffffffffffffff166330286c37856040518263ffffffff1660e01b81526004018082815260200191505060206040518083038186803b158015613b2657600080fd5b505afa158015613b3a573d6000803e3d6000fd5b505050506040513d6020811015613b5057600080fd5b81019080805190602001909291905050500390506000811415613bb157613bac836040518060400160405280601581526020017f706c61792063686f7365206f6e6520616e7377657200000000000000000000008152506126be565b613d93565b8060186000858152602001908152602001600020600201819055506000613d35601b60009054906101000a900473ffffffffffffffffffffffffffffffffffffffff1673ffffffffffffffffffffffffffffffffffffffff1663f946c207866040518263ffffffff1660e01b81526004018082815260200191505060206040518083038186803b158015613c4457600080fd5b505afa158015613c58573d6000803e3d6000fd5b505050506040513d6020811015613c6e57600080fd5b8101908080519060200190929190505050601b60009054906101000a900473ffffffffffffffffffffffffffffffffffffffff1673ffffffffffffffffffffffffffffffffffffffff166330286c37876040518263ffffffff1660e01b81526004018082815260200191505060206040518083038186803b158015613cf257600080fd5b505afa158015613d06573d6000803e3d6000fd5b505050506040513d6020811015613d1c57600080fd5b8101908080519060200190929190505050600f54612b7e565b90508060186000868152602001908152602001600020600301819055507f7a04c0b307090afdeb88b7e577bb5761258941e4195fb1bd4127545cce370bd98482604051808381526020018281526020019250505060405180910390a1505b5050505056fe546869732066756e6374696f6e20636f756c64206f6e6c7920626520657865637574656420627920746865206f776e6572a2646970667358221220d26f2788822634d9f95cf5db6b103efed7fdb03e10c513460d3f9c24c3aa57d764736f6c63430007060033",
  "immutableReferences": {},
  "source": "// SPDX-License-Identifier: MIT\npragma solidity >=0.4.22 <0.9.0;\nimport {PubStruct} from \"../../struct/PubStruct.sol\";\nimport {EFStruct} from \"../../struct/EFStruct.sol\";\nimport {Libs} from \"./Libs.sol\";\nimport {ConfigVariables} from \"../../config/ConfigVariables.sol\";\nimport {BET} from \"../../tokens/BET.sol\";\nimport {BTY} from \"../../tokens/BTY.sol\";\n\ncontract FinishEvent is Libs, ConfigVariables, EFStruct {\n    BET public betToken;\n    BTY public btyToken;\n    PubStruct eventsData;\n\n    event payToCompanies(int id, uint tokens);\n    event payToHost(int id);\n    event payToExperts(int id);\n    event payToPlayers(int id);\n    event payToLosers(int id, uint avarageBet, uint mintedTokens);\n    event revertedEvent(int id, string purpose);\n    event eventFinish(int id, uint tokens, uint correctAnswer);\n\n    constructor(BET _betAddress, BTY _btyAddress, address _addr) {\n        betToken = _betAddress;\n        btyToken = _btyAddress;\n        eventsData = PubStruct(_addr);\n    }\n\n    function letsFindCorrectAnswer(int _id) public ownerOnly() {\n        uint bigValue = 0;\n        uint candDub = 0;\n        uint correctAnswer;\n        uint questAmount = eventsData.getQuestAmount(_id);\n\n        // find correct answer\n        for (uint i = 0; i < questAmount; i++) {\n            if (eventsData.getExpertAmount(_id, i) > bigValue) {\n                bigValue = eventsData.getExpertAmount(_id, i);\n                correctAnswer = i;\n            } else if (eventsData.getExpertAmount(_id, i) == bigValue) {\n                candDub = eventsData.getExpertAmount(_id, i);\n            }\n        }\n\n        if (candDub == bigValue) {\n            eventFinishData[_id].reverted = true;\n            revertPayment(_id, \"duplicat expert\");\n        } else {\n            eventFinishData[_id].correctAnswer = correctAnswer;\n            findLosersPool(correctAnswer, _id);\n        }\n    }\n\n    function findLosersPool(uint correctAnswer, int _id) private {\n        uint B;\n        for (uint i = 0; i < eventsData.getPlayerAmount(_id, correctAnswer); i++) {\n            B = B + eventsData.getPlayerTokens(_id, correctAnswer, i);\n        }\n        uint lP = eventsData.getPool(_id) - B;\n        if (lP == 0) {\n            revertedPayment(_id, \"play chose one answer\");\n        } else {\n            eventFinishData[_id].loserPool = lP;\n            // calculate minted tokens\n            uint tokens =\n                calcMintedTokens(\n                    eventsData.getActivePlayers(_id),\n                    eventsData.getPool(_id),\n                    GFindex\n                );\n            eventFinishData[_id].tokenMinted = tokens;\n            emit payToCompanies(_id, tokens);\n        }\n    }\n\n    function revertedPayment(int _id, string memory purpose)\n        public\n        ownerOnly()\n    {\n        revertPayment(_id, purpose);\n    }\n\n    function revertPayment(int _id, string memory purpose) private {\n        for (uint i = 0; i < eventsData.getQuestAmount(_id); i++) {\n            for (uint z = 0; z < eventsData.getPlayerAmount(_id, i); z++) {\n                require(\n                    betToken.transfer(\n                        eventsData.getPlayerWallet(_id, i, z),\n                        eventsData.getPlayerTokens(_id, i, z)\n                    ),\n                    \"revert bet\"\n                );\n            }\n        }\n        eventFinishData[_id].reverted = true;\n        emit revertedEvent(_id, purpose);\n    }\n\n    function letsPayToCompanies(int _id) public ownerOnly() {\n        // pay to Development Fund\n        require(\n            betToken.mintFromPublicContract(\n                owner,\n                getPercent(eventFinishData[_id].tokenMinted, developFundPerc)\n            ),\n            \"mint development fund\"\n        );\n        if (eventsData.getPremiumAmount(_id) > 0) {\n            require(\n                btyToken.transfer(\n                    owner,\n                    getPercent(\n                        eventsData.getPremiumAmount(_id),\n                        developFundPercPremim\n                    )\n                ),\n                \"premium pay development fund\"\n            );\n        }\n        // pay to Community Marketing Fund\n        uint percentCMF =\n            eventsData.getAdvisorAddr(_id) != address(0)\n                ? comMarketFundPerc\n                : comMarketFundPerc + extraHostPercMint + advisorPercMint;\n        require(\n            betToken.mintFromPublicContract(\n                comMarketFundWallet,\n                getPercent(eventFinishData[_id].tokenMinted, percentCMF)\n            ),\n            \"mint community marketing fund\"\n        );\n\n        // pay to Moderators Fund\n        require(\n            betToken.mintFromPublicContract(\n                moderatorsFundWallet,\n                getPercent(eventFinishData[_id].tokenMinted, moderatorsFundPerc)\n            ),\n            \"mint moderators fund\"\n        );\n        emit payToHost(_id);\n    }\n\n    function letsPaytoHost(int _id) public ownerOnly() {\n        if (eventsData.getAdvisorAddr(_id) != address(0)) {\n            // pay minted tokens\n            require(\n                betToken.mintFromPublicContract(\n                    eventsData.getHostAddr(_id),\n                    getPercent(\n                        eventFinishData[_id].tokenMinted,\n                        hostPercMint + extraHostPercMint\n                    )\n                ),\n                \"mint host with advisor\"\n            );\n            require(\n                betToken.mintFromPublicContract(\n                    eventsData.getAdvisorAddr(_id),\n                    getPercent(eventFinishData[_id].tokenMinted, advisorPercMint)\n                ),\n                \"mint to advisor\"\n            );\n            // pay not minted tokens\n            require(\n                betToken.transfer(\n                    eventsData.getHostAddr(_id),\n                    getPercent(eventsData.getPool(_id), hostPerc + extraHostPerc)\n                ),\n                \"pay to host with advisor\"\n            );\n            require(\n                betToken.transfer(\n                    eventsData.getAdvisorAddr(_id),\n                    getPercent(eventsData.getPool(_id), advisorPepc)\n                ),\n                \"pay to advisor\"\n            );\n        } else {\n            // pay minted tokens\n            require(\n                betToken.mintFromPublicContract(\n                    eventsData.getHostAddr(_id),\n                    getPercent(eventFinishData[_id].tokenMinted, hostPercMint)\n                ),\n                \"mint to host\"\n            );\n            // pay not minted tokens\n            require(\n                betToken.transfer(\n                    eventsData.getHostAddr(_id),\n                    getPercent(eventsData.getPool(_id), hostPerc)\n                ),\n                \"pay to host\"\n            );\n        }\n        emit payToExperts(_id);\n    }\n\n    // function letsPayToExperts(int _id) public ownerOnly() {\n    //     int allReputation;\n    //     uint percent =\n    //         eventsData.getAdvisorAddr(_id) != address(0)\n    //             ? expertPerc\n    //             : expertPerc + expertExtraPerc;\n    //     uint correctAnswer = eventFinishData[_id].correctAnswer;\n    //     for ( uint i = 0; i < eventsData.getExpertAmount(_id, correctAnswer); i++ ) {\n    //         if ( eventsData.getExpertReput(_id, correctAnswer, i) >= 0 ) {\n    //             allReputation = allReputation + eventsData.getExpertReput(_id, correctAnswer, i);\n    //         }\n    //     }\n\n    //     for (uint i = 0; i < eventsData.getExpertAmount(_id, correctAnswer); i++ ) {\n    //         int reputation = eventsData.getExpertReput(_id, correctAnswer, i);\n    //         address payable expertWallet = eventsData.getExpertWallet(_id, correctAnswer, i);\n    //         if (reputation >= 0) {\n    //             // mint tokens\n    //             uint amountMint = (getPercent(eventFinishData[_id].tokenMinted, expertPercMint) * uint(reputation)) / uint(allReputation);\n    //             require(\n    //                 betToken.mintFromPublicContract(expertWallet, amountMint),\n    //                 \"mint exp\"\n    //             );\n    //             // pay tokens\n    //             uint amount = (getPercent(eventsData.getPool(_id), percent) * uint(reputation)) / uint(allReputation);\n    //             require(\n    //                 betToken.transfer(expertWallet, amount),\n    //                 \"pay exp\"\n    //             );\n    //             // pay in premium events\n    //             if (eventsData.getPremiumAmount(_id) > 0) {\n    //                 uint premiumAmount = (getPercent(eventsData.getPremiumAmount(_id), expertPremiumPerc ) * uint(reputation)) / uint(allReputation);\n    //                 require(\n    //                     btyToken.transfer(expertWallet, premiumAmount),\n    //                     \"prem pay exp\"\n    //                 );\n    //             }\n    //         }\n    //     }\n    //     emit payToPlayers(_id);\n    // }\n\n    // function letsPayToPlayers(int _id) public ownerOnly() {\n    //     uint activePlay = eventsData.getActivePlayers(_id);\n    //     uint winPool = getPercent(playersPers, eventFinishData[_id].loserPool) / activePlay;\n    //     uint rightPlay = eventsData.getPlayerAmount(_id, eventFinishData[_id].correctAnswer);\n\n    //     uint premimWin;\n    //     if (eventsData.getPremiumAmount(_id) > 0) {\n    //         uint premiumToken = getPercent(playersPersPremiun, eventsData.getPremiumAmount(_id));\n    //         premimWin = premiumToken / activePlay;\n    //     }\n    //     uint betAmount = 0;\n\n    //     for ( uint i = 0; i < rightPlay; i++ ) {\n    //         betAmount = betAmount + eventsData.getPlayerTokens(_id, eventFinishData[_id].correctAnswer, i);\n    //     }\n\n    //     uint avarageBet = betAmount / activePlay;\n\n    //     for ( uint i = 0; i < rightPlay; i++ ) {\n    //         // mint token to users\n    //         uint userBet = eventsData.getPlayerTokens(_id, eventFinishData[_id].correctAnswer, i);\n    //         address payable userWallet = eventsData.getPlayerWallet(_id, eventFinishData[_id].correctAnswer, i);\n    //         uint mintWin = (userBet / avarageBet) * (getPercent(playersPersMint, eventFinishData[_id].tokenMinted) / activePlay);\n    //         // TODO pay to referers\n    //         require(\n    //             betToken.mintFromPublicContract(userWallet, mintWin),\n    //             \"mint to play\"\n    //         );\n\n    //         // pay tokens to users\n    //         require(\n    //             betToken.transfer(userWallet, (userBet / avarageBet) * winPool),\n    //             \"pay to play\"\n    //         );\n    //         if (eventsData.getPremiumAmount(_id) > 0) {\n    //             // pay premium tokens to user\n    //             require(\n    //                 btyToken.transfer(userWallet, (userBet / avarageBet) * premimWin),\n    //                 \"prem pay yo play\"\n    //             );\n    //         }\n    //     }\n    //     emit payToLosers(_id, avarageBet, getPercent(playersPersMint, eventFinishData[_id].tokenMinted));\n    // }\n\n    // function letsPayToLoosers(\n    //     int _id,\n    //     uint _avarageBet,\n    //     uint _mintedTokens\n    // ) public ownerOnly() {\n    //     for (uint i = 0; i < eventsData.getQuestAmount(_id); i++) {\n    //         if (eventFinishData[_id].correctAnswer != i && eventsData.getPlayerAmount(_id, i) != 0) {\n    //             for (uint z = 0; z < eventsData.getPlayerAmount(_id, i); z++) {\n    //                 uint mintLost = (eventsData.getPlayerTokens(_id, i, z) / _avarageBet) * (_mintedTokens / eventsData.getActivePlayers(_id));\n    //                 require(betToken.mintFromPublicContract(eventsData.getPlayerWallet(_id, i, z), mintLost), \"pay to losers\");\n    //             }\n    //         }\n    //     }\n    //     eventFinishData[_id].eventFinish = true;\n    //     emit eventFinish(\n    //         _id,\n    //         eventFinishData[_id].tokenMinted,\n    //         eventFinishData[_id].correctAnswer\n    //     );\n    // }\n}\n",
  "sourcePath": "/Users/macbook/Documents/freelance/tokenominc/contracts/events/PublicEvents/FinishEvent.sol",
  "compiler": {
    "name": "solc",
    "version": "0.7.6+commit.7338295f.Linux.g++"
  },
  "schemaVersion": "3.3.4",
  "updatedAt": "2021-03-11T21:42:30.657Z",
  "devdoc": {
    "kind": "dev",
    "methods": {},
    "version": 1
  },
  "userdoc": {
    "kind": "user",
    "methods": {},
    "version": 1
  }
}