{
  "contractName": "FinishEvent",
  "abi": [
    {
      "inputs": [
        {
          "internalType": "contract BET",
          "name": "_betAddress",
          "type": "address"
        },
        {
          "internalType": "contract BTY",
          "name": "_btyAddress",
          "type": "address"
        },
        {
          "internalType": "address",
          "name": "_addr",
          "type": "address"
        }
      ],
      "stateMutability": "nonpayable",
      "type": "constructor"
    },
    {
      "anonymous": false,
      "inputs": [
        {
          "indexed": false,
          "internalType": "int256",
          "name": "id",
          "type": "int256"
        },
        {
          "indexed": false,
          "internalType": "uint256",
          "name": "tokens",
          "type": "uint256"
        },
        {
          "indexed": false,
          "internalType": "uint256",
          "name": "correctAnswer",
          "type": "uint256"
        }
      ],
      "name": "eventFinish",
      "type": "event"
    },
    {
      "anonymous": false,
      "inputs": [
        {
          "indexed": false,
          "internalType": "int256",
          "name": "id",
          "type": "int256"
        },
        {
          "indexed": false,
          "internalType": "uint256",
          "name": "tokens",
          "type": "uint256"
        }
      ],
      "name": "payToCompanies",
      "type": "event"
    },
    {
      "anonymous": false,
      "inputs": [
        {
          "indexed": false,
          "internalType": "int256",
          "name": "id",
          "type": "int256"
        }
      ],
      "name": "payToExperts",
      "type": "event"
    },
    {
      "anonymous": false,
      "inputs": [
        {
          "indexed": false,
          "internalType": "int256",
          "name": "id",
          "type": "int256"
        },
        {
          "indexed": false,
          "internalType": "uint256",
          "name": "avarageBet",
          "type": "uint256"
        },
        {
          "indexed": false,
          "internalType": "uint256",
          "name": "mintedTokens",
          "type": "uint256"
        }
      ],
      "name": "payToLosers",
      "type": "event"
    },
    {
      "anonymous": false,
      "inputs": [
        {
          "indexed": false,
          "internalType": "int256",
          "name": "id",
          "type": "int256"
        }
      ],
      "name": "payToPlayers",
      "type": "event"
    },
    {
      "anonymous": false,
      "inputs": [
        {
          "indexed": false,
          "internalType": "int256",
          "name": "id",
          "type": "int256"
        },
        {
          "indexed": false,
          "internalType": "string",
          "name": "purpose",
          "type": "string"
        }
      ],
      "name": "revertedEvent",
      "type": "event"
    },
    {
      "inputs": [],
      "name": "GFindex",
      "outputs": [
        {
          "internalType": "uint256",
          "name": "",
          "type": "uint256"
        }
      ],
      "stateMutability": "view",
      "type": "function"
    },
    {
      "inputs": [],
      "name": "GFrewards",
      "outputs": [
        {
          "internalType": "uint256",
          "name": "",
          "type": "uint256"
        }
      ],
      "stateMutability": "view",
      "type": "function"
    },
    {
      "inputs": [],
      "name": "advisorPepc",
      "outputs": [
        {
          "internalType": "uint256",
          "name": "",
          "type": "uint256"
        }
      ],
      "stateMutability": "view",
      "type": "function"
    },
    {
      "inputs": [],
      "name": "advisorPercMint",
      "outputs": [
        {
          "internalType": "uint256",
          "name": "",
          "type": "uint256"
        }
      ],
      "stateMutability": "view",
      "type": "function"
    },
    {
      "inputs": [],
      "name": "betToken",
      "outputs": [
        {
          "internalType": "contract BET",
          "name": "",
          "type": "address"
        }
      ],
      "stateMutability": "view",
      "type": "function"
    },
    {
      "inputs": [],
      "name": "btyToken",
      "outputs": [
        {
          "internalType": "contract BTY",
          "name": "",
          "type": "address"
        }
      ],
      "stateMutability": "view",
      "type": "function"
    },
    {
      "inputs": [
        {
          "internalType": "uint256",
          "name": "_activePlayers",
          "type": "uint256"
        },
        {
          "internalType": "uint256",
          "name": "_pool",
          "type": "uint256"
        },
        {
          "internalType": "uint256",
          "name": "_GFindex",
          "type": "uint256"
        }
      ],
      "name": "calcMintedTokens",
      "outputs": [
        {
          "internalType": "uint256",
          "name": "",
          "type": "uint256"
        }
      ],
      "stateMutability": "pure",
      "type": "function"
    },
    {
      "inputs": [
        {
          "internalType": "int256",
          "name": "_id",
          "type": "int256"
        }
      ],
      "name": "checkEventFinish",
      "outputs": [
        {
          "internalType": "bool",
          "name": "",
          "type": "bool"
        }
      ],
      "stateMutability": "view",
      "type": "function"
    },
    {
      "inputs": [
        {
          "internalType": "int256",
          "name": "_id",
          "type": "int256"
        }
      ],
      "name": "checkReverted",
      "outputs": [
        {
          "internalType": "bool",
          "name": "",
          "type": "bool"
        }
      ],
      "stateMutability": "view",
      "type": "function"
    },
    {
      "inputs": [],
      "name": "comMarketFundPerc",
      "outputs": [
        {
          "internalType": "uint256",
          "name": "",
          "type": "uint256"
        }
      ],
      "stateMutability": "view",
      "type": "function"
    },
    {
      "inputs": [],
      "name": "comMarketFundWallet",
      "outputs": [
        {
          "internalType": "address payable",
          "name": "",
          "type": "address"
        }
      ],
      "stateMutability": "view",
      "type": "function"
    },
    {
      "inputs": [],
      "name": "developFundPerc",
      "outputs": [
        {
          "internalType": "uint256",
          "name": "",
          "type": "uint256"
        }
      ],
      "stateMutability": "view",
      "type": "function"
    },
    {
      "inputs": [],
      "name": "developFundPercPremim",
      "outputs": [
        {
          "internalType": "uint256",
          "name": "",
          "type": "uint256"
        }
      ],
      "stateMutability": "view",
      "type": "function"
    },
    {
      "inputs": [
        {
          "internalType": "int256",
          "name": "",
          "type": "int256"
        }
      ],
      "name": "eventFinishData",
      "outputs": [
        {
          "internalType": "int256",
          "name": "id",
          "type": "int256"
        },
        {
          "internalType": "uint256",
          "name": "correctAnswer",
          "type": "uint256"
        },
        {
          "internalType": "uint256",
          "name": "loserPool",
          "type": "uint256"
        },
        {
          "internalType": "uint256",
          "name": "tokenMinted",
          "type": "uint256"
        },
        {
          "internalType": "bool",
          "name": "reverted",
          "type": "bool"
        },
        {
          "internalType": "bool",
          "name": "eventFinish",
          "type": "bool"
        }
      ],
      "stateMutability": "view",
      "type": "function"
    },
    {
      "inputs": [],
      "name": "expertExtraPerc",
      "outputs": [
        {
          "internalType": "uint256",
          "name": "",
          "type": "uint256"
        }
      ],
      "stateMutability": "view",
      "type": "function"
    },
    {
      "inputs": [],
      "name": "expertPerc",
      "outputs": [
        {
          "internalType": "uint256",
          "name": "",
          "type": "uint256"
        }
      ],
      "stateMutability": "view",
      "type": "function"
    },
    {
      "inputs": [],
      "name": "expertPercMint",
      "outputs": [
        {
          "internalType": "uint256",
          "name": "",
          "type": "uint256"
        }
      ],
      "stateMutability": "view",
      "type": "function"
    },
    {
      "inputs": [],
      "name": "expertPremiumPerc",
      "outputs": [
        {
          "internalType": "uint256",
          "name": "",
          "type": "uint256"
        }
      ],
      "stateMutability": "view",
      "type": "function"
    },
    {
      "inputs": [],
      "name": "extraHostPerc",
      "outputs": [
        {
          "internalType": "uint256",
          "name": "",
          "type": "uint256"
        }
      ],
      "stateMutability": "view",
      "type": "function"
    },
    {
      "inputs": [],
      "name": "extraHostPercMint",
      "outputs": [
        {
          "internalType": "uint256",
          "name": "",
          "type": "uint256"
        }
      ],
      "stateMutability": "view",
      "type": "function"
    },
    {
      "inputs": [],
      "name": "firstWithdrawIndex",
      "outputs": [
        {
          "internalType": "uint256",
          "name": "",
          "type": "uint256"
        }
      ],
      "stateMutability": "view",
      "type": "function"
    },
    {
      "inputs": [],
      "name": "getFirstWithdraw",
      "outputs": [
        {
          "internalType": "uint256",
          "name": "",
          "type": "uint256"
        }
      ],
      "stateMutability": "view",
      "type": "function"
    },
    {
      "inputs": [
        {
          "internalType": "uint256",
          "name": "_percent",
          "type": "uint256"
        },
        {
          "internalType": "uint256",
          "name": "_from",
          "type": "uint256"
        }
      ],
      "name": "getPercent",
      "outputs": [
        {
          "internalType": "uint256",
          "name": "",
          "type": "uint256"
        }
      ],
      "stateMutability": "pure",
      "type": "function"
    },
    {
      "inputs": [],
      "name": "hostPerc",
      "outputs": [
        {
          "internalType": "uint256",
          "name": "",
          "type": "uint256"
        }
      ],
      "stateMutability": "view",
      "type": "function"
    },
    {
      "inputs": [],
      "name": "hostPercMint",
      "outputs": [
        {
          "internalType": "uint256",
          "name": "",
          "type": "uint256"
        }
      ],
      "stateMutability": "view",
      "type": "function"
    },
    {
      "inputs": [],
      "name": "moderatorsFundPerc",
      "outputs": [
        {
          "internalType": "uint256",
          "name": "",
          "type": "uint256"
        }
      ],
      "stateMutability": "view",
      "type": "function"
    },
    {
      "inputs": [],
      "name": "moderatorsFundWallet",
      "outputs": [
        {
          "internalType": "address payable",
          "name": "",
          "type": "address"
        }
      ],
      "stateMutability": "view",
      "type": "function"
    },
    {
      "inputs": [],
      "name": "owner",
      "outputs": [
        {
          "internalType": "address payable",
          "name": "",
          "type": "address"
        }
      ],
      "stateMutability": "view",
      "type": "function"
    },
    {
      "inputs": [],
      "name": "playersPers",
      "outputs": [
        {
          "internalType": "uint256",
          "name": "",
          "type": "uint256"
        }
      ],
      "stateMutability": "view",
      "type": "function"
    },
    {
      "inputs": [],
      "name": "playersPersMint",
      "outputs": [
        {
          "internalType": "uint256",
          "name": "",
          "type": "uint256"
        }
      ],
      "stateMutability": "view",
      "type": "function"
    },
    {
      "inputs": [],
      "name": "playersPersPremiun",
      "outputs": [
        {
          "internalType": "uint256",
          "name": "",
          "type": "uint256"
        }
      ],
      "stateMutability": "view",
      "type": "function"
    },
    {
      "inputs": [
        {
          "internalType": "address payable",
          "name": "_wallet",
          "type": "address"
        }
      ],
      "name": "setComMarketFundWallet",
      "outputs": [],
      "stateMutability": "nonpayable",
      "type": "function"
    },
    {
      "inputs": [
        {
          "internalType": "uint256",
          "name": "_developFundPerc",
          "type": "uint256"
        }
      ],
      "name": "setDevelopFundPerc",
      "outputs": [],
      "stateMutability": "nonpayable",
      "type": "function"
    },
    {
      "inputs": [
        {
          "internalType": "uint256",
          "name": "_expertPerc",
          "type": "uint256"
        }
      ],
      "name": "setExpertPerc",
      "outputs": [],
      "stateMutability": "nonpayable",
      "type": "function"
    },
    {
      "inputs": [
        {
          "internalType": "uint256",
          "name": "_firstWithdrawIndex",
          "type": "uint256"
        }
      ],
      "name": "setFirstWithdraw",
      "outputs": [],
      "stateMutability": "nonpayable",
      "type": "function"
    },
    {
      "inputs": [
        {
          "internalType": "uint256",
          "name": "_GFindex",
          "type": "uint256"
        }
      ],
      "name": "setGFindex",
      "outputs": [],
      "stateMutability": "nonpayable",
      "type": "function"
    },
    {
      "inputs": [
        {
          "internalType": "uint256",
          "name": "_GFrewards",
          "type": "uint256"
        }
      ],
      "name": "setGFrewards",
      "outputs": [],
      "stateMutability": "nonpayable",
      "type": "function"
    },
    {
      "inputs": [
        {
          "internalType": "uint256",
          "name": "_hostPercMint",
          "type": "uint256"
        },
        {
          "internalType": "uint256",
          "name": "_hostPerc",
          "type": "uint256"
        }
      ],
      "name": "setHostPerc",
      "outputs": [],
      "stateMutability": "nonpayable",
      "type": "function"
    },
    {
      "inputs": [
        {
          "internalType": "address payable",
          "name": "_wallet",
          "type": "address"
        }
      ],
      "name": "setModeratorsFundWallet",
      "outputs": [],
      "stateMutability": "nonpayable",
      "type": "function"
    },
    {
      "inputs": [
        {
          "internalType": "uint256",
          "name": "_playersPersMint",
          "type": "uint256"
        }
      ],
      "name": "setPlayerPersMint",
      "outputs": [],
      "stateMutability": "nonpayable",
      "type": "function"
    },
    {
      "inputs": [
        {
          "internalType": "int256",
          "name": "_id",
          "type": "int256"
        }
      ],
      "name": "setReverted",
      "outputs": [],
      "stateMutability": "nonpayable",
      "type": "function"
    },
    {
      "inputs": [
        {
          "internalType": "uint256",
          "name": "_welcomeBTYTokens",
          "type": "uint256"
        }
      ],
      "name": "setWelcomeBTYTokens",
      "outputs": [],
      "stateMutability": "nonpayable",
      "type": "function"
    },
    {
      "inputs": [],
      "name": "welcomeBTYTokens",
      "outputs": [
        {
          "internalType": "uint256",
          "name": "",
          "type": "uint256"
        }
      ],
      "stateMutability": "view",
      "type": "function"
    },
    {
      "inputs": [
        {
          "internalType": "int256",
          "name": "_id",
          "type": "int256"
        }
      ],
      "name": "letsFindCorrectAnswer",
      "outputs": [],
      "stateMutability": "nonpayable",
      "type": "function"
    },
    {
      "inputs": [
        {
          "internalType": "int256",
          "name": "_id",
          "type": "int256"
        },
        {
          "internalType": "string",
          "name": "purpose",
          "type": "string"
        }
      ],
      "name": "revertedPayment",
      "outputs": [],
      "stateMutability": "nonpayable",
      "type": "function"
    }
  ],
  "bytecode": "0x6080604052600a600055600460015560016002556001600355600a60045560046005556002600655600f600755600260085560016009556032600a55605a600b55604b600c55600a600d5568056bc75e2d63100000600e556001600f55678ac7230489e80000601055600a601255600a6013556005601555600260175534801561008857600080fd5b5060405161266d38038061266d833981810160405260608110156100ab57600080fd5b8101908080519060200190929190805190602001909291908051906020019092919050505033601160006101000a81548173ffffffffffffffffffffffffffffffffffffffff021916908373ffffffffffffffffffffffffffffffffffffffff16021790555082601960006101000a81548173ffffffffffffffffffffffffffffffffffffffff021916908373ffffffffffffffffffffffffffffffffffffffff16021790555081601a60006101000a81548173ffffffffffffffffffffffffffffffffffffffff021916908373ffffffffffffffffffffffffffffffffffffffff16021790555080601b60006101000a81548173ffffffffffffffffffffffffffffffffffffffff021916908373ffffffffffffffffffffffffffffffffffffffff160217905550505050612487806101e66000396000f3fe608060405234801561001057600080fd5b506004361061027f5760003560e01c80638fc8bc421161015c578063c12c8c46116100ce578063df18581711610087578063df18581714610a0e578063e1755c6a14610a2c578063e1dcc40914610a4a578063e79f365d14610a68578063ef99e09914610a96578063f7ec585114610ab45761027f565b8063c12c8c4614610904578063c369085e14610922578063d343c1dc14610950578063d7a86da714610994578063dba8fe87146109c2578063dd3c2283146109e05761027f565b8063a03c669711610120578063a03c6697146107a3578063a6b883ef146107d1578063aaa3091e1461083a578063af9ace4514610890578063b1642b50146108ae578063b44901e8146108e65761027f565b80638fc8bc42146106b7578063903a19cf146106d55780639336e8fd146107195780639580de67146107475780639ec2345a146107755761027f565b8063506d05cf116101f5578063786508c5116101b9578063786508c5146105c157806378691f16146105df578063802cc34c14610613578063896aa7a4146106475780638a9dbda7146106655780638da5cb5b146106835761027f565b8063506d05cf1461044057806355e8415814610474578063622198661461049257806373e258ac146104de578063769c4898146104fc5761027f565b806324beedd31161024757806324beedd31461035057806327e537171461036e5780632c316d051461038c5780632e63e452146103aa5780633467f697146103c8578063362e41b6146103fc5761027f565b8063134c3b071461028457806315cfe419146102a257806319d6b7d8146102c05780631c408357146102ee57806324045aad1461030c575b600080fd5b61028c610ad2565b6040518082815260200191505060405180910390f35b6102aa610ad8565b6040518082815260200191505060405180910390f35b6102ec600480360360208110156102d657600080fd5b8101908080359060200190929190505050610ade565b005b6102f6610b8e565b6040518082815260200191505060405180910390f35b61034e6004803603602081101561032257600080fd5b81019080803573ffffffffffffffffffffffffffffffffffffffff169060200190929190505050610b94565b005b610358610c7e565b6040518082815260200191505060405180910390f35b610376610c84565b6040518082815260200191505060405180910390f35b610394610c8a565b6040518082815260200191505060405180910390f35b6103b2610c90565b6040518082815260200191505060405180910390f35b6103d0610c96565b604051808273ffffffffffffffffffffffffffffffffffffffff16815260200191505060405180910390f35b6104286004803603602081101561041257600080fd5b8101908080359060200190929190505050610cbc565b60405180821515815260200191505060405180910390f35b610448610ce9565b604051808273ffffffffffffffffffffffffffffffffffffffff16815260200191505060405180910390f35b61047c610d0f565b6040518082815260200191505060405180910390f35b6104c8600480360360408110156104a857600080fd5b810190808035906020019092919080359060200190929190505050610d15565b6040518082815260200191505060405180910390f35b6104e6610d2c565b6040518082815260200191505060405180910390f35b6105bf6004803603604081101561051257600080fd5b81019080803590602001909291908035906020019064010000000081111561053957600080fd5b82018360208201111561054b57600080fd5b8035906020019184600183028401116401000000008311171561056d57600080fd5b91908080601f016020809104026020016040519081016040528093929190818152602001838380828437600081840152601f19601f820116905080830192505050505050509192919290505050610d32565b005b6105c9610de6565b6040518082815260200191505060405180910390f35b6105e7610dec565b604051808273ffffffffffffffffffffffffffffffffffffffff16815260200191505060405180910390f35b61061b610e12565b604051808273ffffffffffffffffffffffffffffffffffffffff16815260200191505060405180910390f35b61064f610e38565b6040518082815260200191505060405180910390f35b61066d610e3e565b6040518082815260200191505060405180910390f35b61068b610e44565b604051808273ffffffffffffffffffffffffffffffffffffffff16815260200191505060405180910390f35b6106bf610e6a565b6040518082815260200191505060405180910390f35b610717600480360360208110156106eb57600080fd5b81019080803573ffffffffffffffffffffffffffffffffffffffff169060200190929190505050610e70565b005b6107456004803603602081101561072f57600080fd5b8101908080359060200190929190505050610f5a565b005b6107736004803603602081101561075d57600080fd5b810190808035906020019092919050505061100a565b005b6107a16004803603602081101561078b57600080fd5b81019080803590602001909291905050506110ba565b005b6107cf600480360360208110156107b957600080fd5b81019080803590602001909291905050506110ec565b005b6107fd600480360360208110156107e757600080fd5b810190808035906020019092919050505061119c565b6040518087815260200186815260200185815260200184815260200183151581526020018215158152602001965050505050505060405180910390f35b61087a6004803603606081101561085057600080fd5b810190808035906020019092919080359060200190929190803590602001909291905050506111f2565b6040518082815260200191505060405180910390f35b610898611239565b6040518082815260200191505060405180910390f35b6108e4600480360360408110156108c457600080fd5b81019080803590602001909291908035906020019092919050505061123f565b005b6108ee6112f7565b6040518082815260200191505060405180910390f35b61090c6112fd565b6040518082815260200191505060405180910390f35b61094e6004803603602081101561093857600080fd5b8101908080359060200190929190505050611303565b005b61097c6004803603602081101561096657600080fd5b81019080803590602001909291905050506113b3565b60405180821515815260200191505060405180910390f35b6109c0600480360360208110156109aa57600080fd5b81019080803590602001909291905050506113e0565b005b6109ca611490565b6040518082815260200191505060405180910390f35b610a0c600480360360208110156109f657600080fd5b8101908080359060200190929190505050611496565b005b610a16611546565b6040518082815260200191505060405180910390f35b610a3461154c565b6040518082815260200191505060405180910390f35b610a52611552565b6040518082815260200191505060405180910390f35b610a9460048036036020811015610a7e57600080fd5b8101908080359060200190929190505050611558565b005b610a9e611a69565b6040518082815260200191505060405180910390f35b610abc611a77565b6040518082815260200191505060405180910390f35b600c5481565b600f5481565b601160009054906101000a900473ffffffffffffffffffffffffffffffffffffffff1673ffffffffffffffffffffffffffffffffffffffff163373ffffffffffffffffffffffffffffffffffffffff1614610b84576040517f08c379a00000000000000000000000000000000000000000000000000000000081526004018080602001828103825260318152602001806124216031913960400191505060405180910390fd5b8060108190555050565b60125481565b601160009054906101000a900473ffffffffffffffffffffffffffffffffffffffff1673ffffffffffffffffffffffffffffffffffffffff163373ffffffffffffffffffffffffffffffffffffffff1614610c3a576040517f08c379a00000000000000000000000000000000000000000000000000000000081526004018080602001828103825260318152602001806124216031913960400191505060405180910390fd5b80601660006101000a81548173ffffffffffffffffffffffffffffffffffffffff021916908373ffffffffffffffffffffffffffffffffffffffff16021790555050565b60175481565b600b5481565b60065481565b60105481565b601660009054906101000a900473ffffffffffffffffffffffffffffffffffffffff1681565b60006018600083815260200190815260200160002060040160009054906101000a900460ff169050919050565b601a60009054906101000a900473ffffffffffffffffffffffffffffffffffffffff1681565b60035481565b6000606483830281610d2357fe5b04905092915050565b600a5481565b601160009054906101000a900473ffffffffffffffffffffffffffffffffffffffff1673ffffffffffffffffffffffffffffffffffffffff163373ffffffffffffffffffffffffffffffffffffffff1614610dd8576040517f08c379a00000000000000000000000000000000000000000000000000000000081526004018080602001828103825260318152602001806124216031913960400191505060405180910390fd5b610de28282611a7d565b5050565b60095481565b601960009054906101000a900473ffffffffffffffffffffffffffffffffffffffff1681565b601460009054906101000a900473ffffffffffffffffffffffffffffffffffffffff1681565b60055481565b60005481565b601160009054906101000a900473ffffffffffffffffffffffffffffffffffffffff1681565b60015481565b601160009054906101000a900473ffffffffffffffffffffffffffffffffffffffff1673ffffffffffffffffffffffffffffffffffffffff163373ffffffffffffffffffffffffffffffffffffffff1614610f16576040517f08c379a00000000000000000000000000000000000000000000000000000000081526004018080602001828103825260318152602001806124216031913960400191505060405180910390fd5b80601460006101000a81548173ffffffffffffffffffffffffffffffffffffffff021916908373ffffffffffffffffffffffffffffffffffffffff16021790555050565b601160009054906101000a900473ffffffffffffffffffffffffffffffffffffffff1673ffffffffffffffffffffffffffffffffffffffff163373ffffffffffffffffffffffffffffffffffffffff1614611000576040517f08c379a00000000000000000000000000000000000000000000000000000000081526004018080602001828103825260318152602001806124216031913960400191505060405180910390fd5b80600a8190555050565b601160009054906101000a900473ffffffffffffffffffffffffffffffffffffffff1673ffffffffffffffffffffffffffffffffffffffff163373ffffffffffffffffffffffffffffffffffffffff16146110b0576040517f08c379a00000000000000000000000000000000000000000000000000000000081526004018080602001828103825260318152602001806124216031913960400191505060405180910390fd5b8060058190555050565b60016018600083815260200190815260200160002060040160006101000a81548160ff02191690831515021790555050565b601160009054906101000a900473ffffffffffffffffffffffffffffffffffffffff1673ffffffffffffffffffffffffffffffffffffffff163373ffffffffffffffffffffffffffffffffffffffff1614611192576040517f08c379a00000000000000000000000000000000000000000000000000000000081526004018080602001828103825260318152602001806124216031913960400191505060405180910390fd5b80600d8190555050565b60186020528060005260406000206000915090508060000154908060010154908060020154908060030154908060040160009054906101000a900460ff16908060040160019054906101000a900460ff16905086565b6000806064856064038161120257fe5b049050600085858161121057fe5b0490506064670de0b6b3a764000085848985020202028161122d57fe5b04925050509392505050565b60045481565b601160009054906101000a900473ffffffffffffffffffffffffffffffffffffffff1673ffffffffffffffffffffffffffffffffffffffff163373ffffffffffffffffffffffffffffffffffffffff16146112e5576040517f08c379a00000000000000000000000000000000000000000000000000000000081526004018080602001828103825260318152602001806124216031913960400191505060405180910390fd5b81600081905550806001819055505050565b600d5481565b60025481565b601160009054906101000a900473ffffffffffffffffffffffffffffffffffffffff1673ffffffffffffffffffffffffffffffffffffffff163373ffffffffffffffffffffffffffffffffffffffff16146113a9576040517f08c379a00000000000000000000000000000000000000000000000000000000081526004018080602001828103825260318152602001806124216031913960400191505060405180910390fd5b80600f8190555050565b60006018600083815260200190815260200160002060040160019054906101000a900460ff169050919050565b601160009054906101000a900473ffffffffffffffffffffffffffffffffffffffff1673ffffffffffffffffffffffffffffffffffffffff163373ffffffffffffffffffffffffffffffffffffffff1614611486576040517f08c379a00000000000000000000000000000000000000000000000000000000081526004018080602001828103825260318152602001806124216031913960400191505060405180910390fd5b80600e8190555050565b60075481565b601160009054906101000a900473ffffffffffffffffffffffffffffffffffffffff1673ffffffffffffffffffffffffffffffffffffffff163373ffffffffffffffffffffffffffffffffffffffff161461153c576040517f08c379a00000000000000000000000000000000000000000000000000000000081526004018080602001828103825260318152602001806124216031913960400191505060405180910390fd5b8060128190555050565b600e5481565b60155481565b60135481565b601160009054906101000a900473ffffffffffffffffffffffffffffffffffffffff1673ffffffffffffffffffffffffffffffffffffffff163373ffffffffffffffffffffffffffffffffffffffff16146115fe576040517f08c379a00000000000000000000000000000000000000000000000000000000081526004018080602001828103825260318152602001806124216031913960400191505060405180910390fd5b600080600080601b60009054906101000a900473ffffffffffffffffffffffffffffffffffffffff1673ffffffffffffffffffffffffffffffffffffffff1663a96c2aea866040518263ffffffff1660e01b81526004018082815260200191505060206040518083038186803b15801561167757600080fd5b505afa15801561168b573d6000803e3d6000fd5b505050506040513d60208110156116a157600080fd5b8101908080519060200190929190505050905060005b818110156119c05784601b60009054906101000a900473ffffffffffffffffffffffffffffffffffffffff1673ffffffffffffffffffffffffffffffffffffffff166323c8778e88846040518363ffffffff1660e01b8152600401808381526020018281526020019250505060206040518083038186803b15801561173b57600080fd5b505afa15801561174f573d6000803e3d6000fd5b505050506040513d602081101561176557600080fd5b8101908080519060200190929190505050111561183c57601b60009054906101000a900473ffffffffffffffffffffffffffffffffffffffff1673ffffffffffffffffffffffffffffffffffffffff166323c8778e87836040518363ffffffff1660e01b8152600401808381526020018281526020019250505060206040518083038186803b1580156117f757600080fd5b505afa15801561180b573d6000803e3d6000fd5b505050506040513d602081101561182157600080fd5b810190808051906020019092919050505094508092506119b3565b84601b60009054906101000a900473ffffffffffffffffffffffffffffffffffffffff1673ffffffffffffffffffffffffffffffffffffffff166323c8778e88846040518363ffffffff1660e01b8152600401808381526020018281526020019250505060206040518083038186803b1580156118b857600080fd5b505afa1580156118cc573d6000803e3d6000fd5b505050506040513d60208110156118e257600080fd5b810190808051906020019092919050505014156119b257601b60009054906101000a900473ffffffffffffffffffffffffffffffffffffffff1673ffffffffffffffffffffffffffffffffffffffff166323c8778e87836040518363ffffffff1660e01b8152600401808381526020018281526020019250505060206040518083038186803b15801561197457600080fd5b505afa158015611988573d6000803e3d6000fd5b505050506040513d602081101561199e57600080fd5b810190808051906020019092919050505093505b5b80806001019150506116b7565b5083831415611a3c5760016018600087815260200190815260200160002060040160006101000a81548160ff021916908315150217905550611a37856040518060400160405280600f81526020017f6475706c69636174206578706572740000000000000000000000000000000000815250611a7d565b611a62565b816018600087815260200190815260200160002060010181905550611a618286611fa2565b5b5050505050565b6000600d5460105402905090565b60085481565b60005b601b60009054906101000a900473ffffffffffffffffffffffffffffffffffffffff1673ffffffffffffffffffffffffffffffffffffffff1663a96c2aea846040518263ffffffff1660e01b81526004018082815260200191505060206040518083038186803b158015611af357600080fd5b505afa158015611b07573d6000803e3d6000fd5b505050506040513d6020811015611b1d57600080fd5b8101908080519060200190929190505050811015611eca5760005b601b60009054906101000a900473ffffffffffffffffffffffffffffffffffffffff1673ffffffffffffffffffffffffffffffffffffffff166371aee94585846040518363ffffffff1660e01b8152600401808381526020018281526020019250505060206040518083038186803b158015611bb357600080fd5b505afa158015611bc7573d6000803e3d6000fd5b505050506040513d6020811015611bdd57600080fd5b8101908080519060200190929190505050811015611ebc57601960009054906101000a900473ffffffffffffffffffffffffffffffffffffffff1673ffffffffffffffffffffffffffffffffffffffff1663a9059cbb601b60009054906101000a900473ffffffffffffffffffffffffffffffffffffffff1673ffffffffffffffffffffffffffffffffffffffff16637c997f678786866040518463ffffffff1660e01b815260040180848152602001838152602001828152602001935050505060206040518083038186803b158015611cb657600080fd5b505afa158015611cca573d6000803e3d6000fd5b505050506040513d6020811015611ce057600080fd5b8101908080519060200190929190505050601b60009054906101000a900473ffffffffffffffffffffffffffffffffffffffff1673ffffffffffffffffffffffffffffffffffffffff1663859f0f6a8887876040518463ffffffff1660e01b815260040180848152602001838152602001828152602001935050505060206040518083038186803b158015611d7457600080fd5b505afa158015611d88573d6000803e3d6000fd5b505050506040513d6020811015611d9e57600080fd5b81019080805190602001909291905050506040518363ffffffff1660e01b8152600401808373ffffffffffffffffffffffffffffffffffffffff16815260200182815260200192505050602060405180830381600087803b158015611e0257600080fd5b505af1158015611e16573d6000803e3d6000fd5b505050506040513d6020811015611e2c57600080fd5b8101908080519060200190929190505050611eaf576040517f08c379a000000000000000000000000000000000000000000000000000000000815260040180806020018281038252600a8152602001807f526576657274204245540000000000000000000000000000000000000000000081525060200191505060405180910390fd5b8080600101915050611b38565b508080600101915050611a80565b5060016018600084815260200190815260200160002060040160006101000a81548160ff0219169083151502179055507f847521552ad126e64c52b14640c804737bd67f2b6674309b332d1e5b17f857d182826040518083815260200180602001828103825283818151815260200191508051906020019080838360005b83811015611f63578082015181840152602081019050611f48565b50505050905090810190601f168015611f905780820380516001836020036101000a031916815260200191505b50935050505060405180910390a15050565b600080600090505b601b60009054906101000a900473ffffffffffffffffffffffffffffffffffffffff1673ffffffffffffffffffffffffffffffffffffffff166371aee94584866040518363ffffffff1660e01b8152600401808381526020018281526020019250505060206040518083038186803b15801561202557600080fd5b505afa158015612039573d6000803e3d6000fd5b505050506040513d602081101561204f57600080fd5b810190808051906020019092919050505081101561213657601b60009054906101000a900473ffffffffffffffffffffffffffffffffffffffff1673ffffffffffffffffffffffffffffffffffffffff1663859f0f6a8486846040518463ffffffff1660e01b815260040180848152602001838152602001828152602001935050505060206040518083038186803b1580156120ea57600080fd5b505afa1580156120fe573d6000803e3d6000fd5b505050506040513d602081101561211457600080fd5b8101908080519060200190929190505050820191508080600101915050611faa565b50600081601b60009054906101000a900473ffffffffffffffffffffffffffffffffffffffff1673ffffffffffffffffffffffffffffffffffffffff166330286c37856040518263ffffffff1660e01b81526004018082815260200191505060206040518083038186803b1580156121ad57600080fd5b505afa1580156121c1573d6000803e3d6000fd5b505050506040513d60208110156121d757600080fd5b8101908080519060200190929190505050039050600081141561223857612233836040518060400160405280601581526020017f706c61792063686f7365206f6e6520616e737765720000000000000000000000815250610d32565b61241a565b80601860008581526020019081526020016000206002018190555060006123bc601b60009054906101000a900473ffffffffffffffffffffffffffffffffffffffff1673ffffffffffffffffffffffffffffffffffffffff1663f946c207866040518263ffffffff1660e01b81526004018082815260200191505060206040518083038186803b1580156122cb57600080fd5b505afa1580156122df573d6000803e3d6000fd5b505050506040513d60208110156122f557600080fd5b8101908080519060200190929190505050601b60009054906101000a900473ffffffffffffffffffffffffffffffffffffffff1673ffffffffffffffffffffffffffffffffffffffff166330286c37876040518263ffffffff1660e01b81526004018082815260200191505060206040518083038186803b15801561237957600080fd5b505afa15801561238d573d6000803e3d6000fd5b505050506040513d60208110156123a357600080fd5b8101908080519060200190929190505050600f546111f2565b90508060186000868152602001908152602001600020600301819055507f7a04c0b307090afdeb88b7e577bb5761258941e4195fb1bd4127545cce370bd98482604051808381526020018281526020019250505060405180910390a1505b5050505056fe546869732066756e6374696f6e20636f756c64206f6e6c7920626520657865637574656420627920746865206f776e6572a2646970667358221220839a1e68a3c699212e030edb101fe0e7851ce9387ddeeff08407edf29c5129a664736f6c63430007060033",
  "immutableReferences": {},
  "source": "// SPDX-License-Identifier: MIT\npragma solidity >=0.4.22 <0.9.0;\nimport {PubStruct} from \"../../struct/PubStruct.sol\";\nimport {EFStruct} from \"../../struct/EFStruct.sol\";\nimport {Libs} from \"./Libs.sol\";\nimport {ConfigVariables} from \"../../config/ConfigVariables.sol\";\nimport {BET} from \"../../tokens/BET.sol\";\nimport {BTY} from \"../../tokens/BTY.sol\";\n\ncontract FinishEvent is Libs, ConfigVariables, EFStruct {\n    BET public betToken;\n    BTY public btyToken;\n    PubStruct eventsData;\n\n    event payToCompanies(int id, uint tokens);\n    event payToExperts(int id);\n    event payToPlayers(int id);\n    event payToLosers(int id, uint avarageBet, uint mintedTokens);\n    event revertedEvent(int id, string purpose);\n    event eventFinish(int id, uint tokens, uint correctAnswer);\n\n    constructor(BET _betAddress, BTY _btyAddress, address _addr) {\n        betToken = _betAddress;\n        btyToken = _btyAddress;\n        eventsData = PubStruct(_addr);\n    }\n\n    function letsFindCorrectAnswer(int _id) public ownerOnly() {\n        uint bigValue = 0;\n        uint candDub = 0;\n        uint correctAnswer;\n        uint questAmount = eventsData.getQuestAmount(_id);\n\n        // find correct answer\n        for (uint i = 0; i < questAmount; i++) {\n            if (eventsData.getExpertAmount(_id, i) > bigValue) {\n                bigValue = eventsData.getExpertAmount(_id, i);\n                correctAnswer = i;\n            } else if (eventsData.getExpertAmount(_id, i) == bigValue) {\n                candDub = eventsData.getExpertAmount(_id, i);\n            }\n        }\n\n        if (candDub == bigValue) {\n            eventFinishData[_id].reverted = true;\n            revertPayment(_id, \"duplicat expert\");\n        } else {\n            eventFinishData[_id].correctAnswer = correctAnswer;\n            findLosersPool(correctAnswer, _id);\n        }\n    }\n\n    function findLosersPool(uint correctAnswer, int _id) private {\n        uint B;\n        for (uint i = 0; i < eventsData.getPlayerAmount(_id, correctAnswer); i++) {\n            B = B + eventsData.getPlayerTokens(_id, correctAnswer, i);\n        }\n        uint lP = eventsData.getPool(_id) - B;\n        if (lP == 0) {\n            revertedPayment(_id, \"play chose one answer\");\n        } else {\n            eventFinishData[_id].loserPool = lP;\n            // calculate minted tokens\n            uint tokens =\n                calcMintedTokens(\n                    eventsData.getActivePlayers(_id),\n                    eventsData.getPool(_id),\n                    GFindex\n                );\n            eventFinishData[_id].tokenMinted = tokens;\n            emit payToCompanies(_id, tokens);\n        }\n    }\n\n    function revertedPayment(int _id, string memory purpose)\n        public\n        ownerOnly()\n    {\n        revertPayment(_id, purpose);\n    }\n\n    function revertPayment(int _id, string memory purpose) private {\n        for (uint i = 0; i < eventsData.getQuestAmount(_id); i++) {\n            for (uint z = 0; z < eventsData.getPlayerAmount(_id, i); z++) {\n                require(\n                    betToken.transfer(\n                        eventsData.getPlayerWallet(_id, i, z),\n                        eventsData.getPlayerTokens(_id, i, z)\n                    ),\n                    \"Revert BET\"\n                );\n            }\n        }\n        eventFinishData[_id].reverted = true;\n        emit revertedEvent(_id, purpose);\n    }\n\n    // function letsPayToCompanies(int _id) public ownerOnly() {\n    //     // pay to Development Fund\n    //     require(\n    //         betToken.mintFromPublicContract(\n    //             owner,\n    //             getPercent(additionalData[_id].tokenMinted, developFundPerc)\n    //         ),\n    //         \"M DF\"\n    //     );\n    //     if (additionalData[_id].premium) {\n    //         require(\n    //             btyToken.transfer(\n    //                 owner,\n    //                 getPercent(\n    //                     additionalData[_id].amountPremiumEvent,\n    //                     developFundPercPremim\n    //                 )\n    //             ),\n    //             \"Pre p DF\"\n    //         );\n    //     }\n    //     // pay to Community Marketing Fund\n    //     uint percentCMF =\n    //         events[_id].advisor != address(0)\n    //             ? comMarketFundPerc\n    //             : comMarketFundPerc + extraHostPercMint + advisorPercMint;\n    //     require(\n    //         betToken.mintFromPublicContract(\n    //             comMarketFundWallet,\n    //             getPercent(additionalData[_id].tokenMinted, percentCMF)\n    //         ),\n    //         \"M CMF\"\n    //     );\n\n    //     // pay to Moderators Fund\n    //     require(\n    //         betToken.mintFromPublicContract(\n    //             moderatorsFundWallet,\n    //             getPercent(additionalData[_id].tokenMinted, moderatorsFundPerc)\n    //         ),\n    //         \"M MF\"\n    //     );\n    //     letsPaytoHost(_id);\n    // }\n\n    // function letsPaytoHost(int _id) private {\n    //     if (events[_id].advisor != address(0)) {\n    //         // pay minted tokens\n    //         require(\n    //             betToken.mintFromPublicContract(\n    //                 events[_id].host,\n    //                 getPercent(\n    //                     additionalData[_id].tokenMinted,\n    //                     hostPercMint + extraHostPercMint\n    //                 )\n    //             ),\n    //             \"M Host with adv\"\n    //         );\n    //         require(\n    //             betToken.mintFromPublicContract(\n    //                 events[_id].advisor,\n    //                 getPercent(additionalData[_id].tokenMinted, advisorPercMint)\n    //             ),\n    //             \"M to Adv\"\n    //         );\n    //         // pay not minted tokens\n    //         require(\n    //             betToken.transfer(\n    //                 events[_id].host,\n    //                 getPercent(additionalData[_id].pool, hostPerc + extraHostPerc)\n    //             ),\n    //             \"P Host with adv\"\n    //         );\n    //         require(\n    //             betToken.transfer(\n    //                 events[_id].advisor,\n    //                 getPercent(additionalData[_id].pool, advisorPepc)\n    //             ),\n    //             \"P Adv\"\n    //         );\n    //     } else {\n    //         // pay minted tokens\n    //         require(\n    //             betToken.mintFromPublicContract(\n    //                 events[_id].host,\n    //                 getPercent(additionalData[_id].tokenMinted, hostPercMint)\n    //             ),\n    //             \"M Host\"\n    //         );\n    //         // pay not minted tokens\n    //         require(\n    //             betToken.transfer(\n    //                 events[_id].host,\n    //                 getPercent(additionalData[_id].pool, hostPerc)\n    //             ),\n    //             \"P Host\"\n    //         );\n    //     }\n    //     emit payToExperts(_id);\n    // }\n\n    // function letsPayToExperts(int _id) public ownerOnly() {\n    //     int allReputation;\n    //     uint percent =\n    //         events[_id].advisor != address(0)\n    //             ? expertPerc\n    //             : expertPerc + expertExtraPerc;\n\n    //     for ( uint i = 0; i < events[_id].expert[additionalData[_id].correctAnswer].length; i++ ) {\n    //         if ( events[_id].expert[additionalData[_id].correctAnswer][i].reputation >= 0 ) {\n    //             allReputation = allReputation + events[_id].expert[additionalData[_id].correctAnswer][i].reputation;\n    //         }\n    //     }\n\n    //     for (uint i = 0; i < events[_id].expert[additionalData[_id].correctAnswer].length; i++ ) {\n    //         int reputation = events[_id].expert[additionalData[_id].correctAnswer][i].reputation;\n    //         address payable expertWallet = events[_id].expert[additionalData[_id].correctAnswer][i].expert;\n    //         if (reputation >= 0) {\n    //             // mint tokens\n    //             uint amountMint = (getPercent(additionalData[_id].tokenMinted, expertPercMint) * uint(reputation)) / uint(allReputation);\n    //             require(\n    //                 betToken.mintFromPublicContract(expertWallet, amountMint),\n    //                 \"M Exp\"\n    //             );\n    //             // pay tokens\n    //             uint amount = (getPercent(additionalData[_id].pool, percent) * uint(reputation)) / uint(allReputation);\n    //             require(\n    //                 betToken.transfer(expertWallet, amount),\n    //                 \"P Exp\"\n    //             );\n    //             // pay in premium events\n    //             if (additionalData[_id].premium) {\n    //                 uint premiumAmount = (getPercent( additionalData[_id].amountPremiumEvent, expertPremiumPerc ) * uint(reputation)) / uint(allReputation);\n    //                 require(\n    //                     btyToken.transfer(expertWallet, premiumAmount),\n    //                     \"Prem p Exp\"\n    //                 );\n    //             }\n    //         }\n    //     }\n    //     emit payToPlayers(_id);\n    // }\n\n    // function letsPayToPlayers(int _id) public ownerOnly() {\n    //     uint mintedTokens = getPercent(playersPersMint, additionalData[_id].tokenMinted);\n    //     uint loserPoolPerc = getPercent(playersPers, additionalData[_id].loserPool);\n    //     uint winPool = loserPoolPerc / events[_id].activePlayers;\n\n    //     uint premimWin;\n    //     if (additionalData[_id].premium) {\n    //         uint premiumToken = getPercent(playersPersPremiun, additionalData[_id].amountPremiumEvent);\n    //         premimWin = premiumToken / events[_id].activePlayers;\n    //     }\n    //     uint betAmount = 0;\n\n    //     for ( uint i = 0; i < events[_id].players[additionalData[_id].correctAnswer].length; i++ ) {\n    //         betAmount = betAmount + events[_id].players[additionalData[_id].correctAnswer][i].amount;\n    //     }\n\n    //     uint avarageBet = betAmount / events[_id].activePlayers;\n\n    //     for ( uint i = 0; i < events[_id].players[additionalData[_id].correctAnswer].length; i++ ) {\n    //         // mint token to users\n    //         uint userBet = events[_id].players[additionalData[_id].correctAnswer][i].amount;\n    //         address payable userWallet = events[_id].players[additionalData[_id].correctAnswer][i].player;\n    //         uint mintWin = (userBet / avarageBet) * (mintedTokens / events[_id].activePlayers);\n    //         // TODO pay to referers\n    //         require(\n    //             betToken.mintFromPublicContract(userWallet, mintWin),\n    //             \"M Play\"\n    //         );\n\n    //         // pay tokens to users\n    //         uint tokenWin = (userBet / avarageBet) * winPool;\n    //         require(\n    //             betToken.transfer(userWallet, tokenWin),\n    //             \"P Play\"\n    //         );\n    //         if (additionalData[_id].premium) {\n    //             // pay premium tokens to user\n    //             uint premiumWinToken = (userBet / avarageBet) * premimWin;\n    //             require(\n    //                 btyToken.transfer(userWallet, premiumWinToken),\n    //                 \"Prem p Play\"\n    //             );\n    //         }\n    //     }\n    //     emit payToLosers(_id, avarageBet, mintedTokens);\n    // }\n\n    // function letsPayToLoosers(\n    //     int _id,\n    //     uint _avarageBet,\n    //     uint _mintedTokens\n    // ) public ownerOnly() {\n    //     for (uint i = 0; i < events[_id].questAmount; i++) {\n    //         if (additionalData[_id].correctAnswer != i && events[_id].players[i].length != 0) {\n    //             for (uint z = 0; z < events[_id].players[i].length; z++) {\n    //                 uint mintLost = (events[_id].players[i][z].amount / _avarageBet) * (_mintedTokens / events[_id].activePlayers);\n    //                 require(betToken.mintFromPublicContract(events[_id].players[i][z].player, mintLost), \"P losers\");\n    //             }\n    //         }\n    //     }\n    //     additionalData[_id].eventFinish = true;\n    //     emit eventFinish(\n    //         _id,\n    //         additionalData[_id].tokenMinted,\n    //         additionalData[_id].correctAnswer\n    //     );\n    // }\n}\n",
  "sourcePath": "/Users/macbook/Documents/freelance/tokenominc/contracts/events/PublicEvents/FinishEvent.sol",
  "compiler": {
    "name": "solc",
    "version": "0.7.6+commit.7338295f.Linux.g++"
  },
  "schemaVersion": "3.3.4",
  "updatedAt": "2021-03-11T15:04:35.065Z",
  "devdoc": {
    "kind": "dev",
    "methods": {},
    "version": 1
  },
  "userdoc": {
    "kind": "user",
    "methods": {},
    "version": 1
  }
}