{
  "contractName": "GrowthFactorEvents",
  "abi": [
    {
      "anonymous": false,
      "inputs": [
        {
          "indexed": false,
          "internalType": "int256",
          "name": "_id",
          "type": "int256"
        },
        {
          "indexed": false,
          "internalType": "uint8",
          "name": "correctAnswer",
          "type": "uint8"
        }
      ],
      "name": "GFIsFinish",
      "type": "event"
    },
    {
      "inputs": [
        {
          "internalType": "uint256",
          "name": "_startTime",
          "type": "uint256"
        },
        {
          "internalType": "uint256",
          "name": "_endTime",
          "type": "uint256"
        }
      ],
      "name": "timeAnswer",
      "outputs": [
        {
          "internalType": "int8",
          "name": "",
          "type": "int8"
        }
      ],
      "stateMutability": "view",
      "type": "function"
    },
    {
      "inputs": [
        {
          "internalType": "uint256",
          "name": "_endTime",
          "type": "uint256"
        }
      ],
      "name": "timeValidate",
      "outputs": [
        {
          "internalType": "int8",
          "name": "",
          "type": "int8"
        }
      ],
      "stateMutability": "view",
      "type": "function"
    },
    {
      "inputs": [],
      "name": "__GrowthFactorEventsInit",
      "outputs": [],
      "stateMutability": "nonpayable",
      "type": "function"
    },
    {
      "inputs": [
        {
          "internalType": "int256",
          "name": "_id",
          "type": "int256"
        },
        {
          "internalType": "uint256",
          "name": "_startTime",
          "type": "uint256"
        },
        {
          "internalType": "uint256",
          "name": "_endTime",
          "type": "uint256"
        },
        {
          "internalType": "uint8",
          "name": "_questAmount",
          "type": "uint8"
        }
      ],
      "name": "createEvent",
      "outputs": [],
      "stateMutability": "nonpayable",
      "type": "function"
    },
    {
      "inputs": [
        {
          "internalType": "int256",
          "name": "_id",
          "type": "int256"
        },
        {
          "internalType": "uint8",
          "name": "_whichAnswer",
          "type": "uint8"
        },
        {
          "internalType": "address payable",
          "name": "_playerWallet",
          "type": "address"
        },
        {
          "internalType": "uint8",
          "name": "_reputation",
          "type": "uint8"
        }
      ],
      "name": "setAnswer",
      "outputs": [],
      "stateMutability": "nonpayable",
      "type": "function"
    },
    {
      "inputs": [
        {
          "internalType": "int256",
          "name": "_id",
          "type": "int256"
        }
      ],
      "name": "finishGFEvent",
      "outputs": [],
      "stateMutability": "nonpayable",
      "type": "function"
    }
  ],
  "bytecode": "0x608060405234801561001057600080fd5b506109ff806100206000396000f3fe608060405234801561001057600080fd5b50600436106100625760003560e01c8063246fe64714610067578063279a839b146100ac57806328e162d91461011457806354f6db741461014257806380d0437a14610191578063ca41ddcc146101e0575b600080fd5b6100936004803603602081101561007d57600080fd5b81019080803590602001909291905050506101ea565b604051808260000b815260200191505060405180910390f35b610112600480360360808110156100c257600080fd5b8101908080359060200190929190803560ff169060200190929190803573ffffffffffffffffffffffffffffffffffffffff169060200190929190803560ff169060200190929190505050610208565b005b6101406004803603602081101561012a57600080fd5b8101908080359060200190929190505050610472565b005b6101786004803603604081101561015857600080fd5b81019080803590602001909291908035906020019092919050505061068a565b604051808260000b815260200191505060405180910390f35b6101de600480360360808110156101a757600080fd5b81019080803590602001909291908035906020019092919080359060200190929190803560ff1690602001909291905050506106bc565b005b6101e8610805565b005b600080824203126101fe5760009050610203565b600190505b919050565b600260009054906101000a900473ffffffffffffffffffffffffffffffffffffffff1673ffffffffffffffffffffffffffffffffffffffff163373ffffffffffffffffffffffffffffffffffffffff16146102cb576040517f08c379a000000000000000000000000000000000000000000000000000000000815260040180806020018281038252600a8152602001807f6f776e6572206f6e6c790000000000000000000000000000000000000000000081525060200191505060405180910390fd5b60006103036001600087815260200190815260200160002060010154600160008881526020019081526020016000206002015461068a565b60000b14610379576040517f08c379a000000000000000000000000000000000000000000000000000000000815260040180806020018281038252600e8152602001807f54696d65206e6f742076616c696400000000000000000000000000000000000081525060200191505060405180910390fd5b610381610968565b60405180604001604052808473ffffffffffffffffffffffffffffffffffffffff1681526020018360ff1681525090506001600086815260200190815260200160002060040160008560ff168152602001908152602001600020819080600181540180825580915050600190039060005260206000200160009091909190915060008201518160000160006101000a81548173ffffffffffffffffffffffffffffffffffffffff021916908373ffffffffffffffffffffffffffffffffffffffff16021790555060208201518160000160146101000a81548160ff021916908360ff16021790555050505050505050565b600260009054906101000a900473ffffffffffffffffffffffffffffffffffffffff1673ffffffffffffffffffffffffffffffffffffffff163373ffffffffffffffffffffffffffffffffffffffff1614610535576040517f08c379a000000000000000000000000000000000000000000000000000000000815260040180806020018281038252600a8152602001807f6f776e6572206f6e6c790000000000000000000000000000000000000000000081525060200191505060405180910390fd5b60008080600090505b6001600085815260200190815260200160002060030160009054906101000a900460ff1660ff168160ff1610156105e557826001600086815260200190815260200160002060040160008360ff1681526020019081526020016000208054905011156105d8576001600085815260200190815260200160002060040160008260ff1681526020019081526020016000208054905092508091505b808060010191505061053e565b50806001600085815260200190815260200160002060050160016101000a81548160ff021916908360ff160217905550600180600085815260200190815260200160002060050160006101000a81548160ff0219169083151502179055507fb2ce968840ae229a799f5eaa854b1366708b242855976804bc004892ffe679a58382604051808381526020018260ff1681526020019250505060405180910390a1505050565b600080834203126106b1576000428303126106a857600090506106b6565b600290506106b6565b600190505b92915050565b600260009054906101000a900473ffffffffffffffffffffffffffffffffffffffff1673ffffffffffffffffffffffffffffffffffffffff163373ffffffffffffffffffffffffffffffffffffffff161461077f576040517f08c379a000000000000000000000000000000000000000000000000000000000815260040180806020018281038252600a8152602001807f6f776e6572206f6e6c790000000000000000000000000000000000000000000081525060200191505060405180910390fd5b836001600086815260200190815260200160002060000181905550826001600086815260200190815260200160002060010181905550816001600086815260200190815260200160002060020181905550806001600086815260200190815260200160002060030160006101000a81548160ff021916908360ff16021790555050505050565b600060019054906101000a900460ff16806108245750610823610944565b5b8061083a575060008054906101000a900460ff16155b61088f576040517f08c379a000000000000000000000000000000000000000000000000000000000815260040180806020018281038252602e81526020018061099c602e913960400191505060405180910390fd5b60008060019054906101000a900460ff1615905080156108df576001600060016101000a81548160ff02191690831515021790555060016000806101000a81548160ff0219169083151502179055505b33600260006101000a81548173ffffffffffffffffffffffffffffffffffffffff021916908373ffffffffffffffffffffffffffffffffffffffff16021790555080156109415760008060016101000a81548160ff0219169083151502179055505b50565b600061094f30610955565b15905090565b600080823b905060008111915050919050565b6040518060400160405280600073ffffffffffffffffffffffffffffffffffffffff168152602001600060ff168152509056fe496e697469616c697a61626c653a20636f6e747261637420697320616c726561647920696e697469616c697a6564a2646970667358221220d96a60083d3611f815fa84256a12d5c5cdcdc7262735cd468a9e6688c71c7f9164736f6c63430007060033",
  "immutableReferences": {},
  "source": "// SPDX-License-Identifier: MIT\npragma solidity >=0.4.22 <0.9.0;\n\nimport {GFStruct} from \"../struct/GFStruct.sol\";\nimport {TimeValidation} from \"../helpers/TimeValidation.sol\";\nimport \"@openzeppelin/contracts-upgradeable/proxy/Initializable.sol\";\n\ncontract GrowthFactorEvents is TimeValidation, Initializable {\n\n    mapping(int256 => GFStruct.EventData) events;\n    event GFIsFinish(int256 _id, uint8 correctAnswer);\n    address owner;\n\n    function __GrowthFactorEventsInit() public initializer{\n        owner = msg.sender;\n    }\n\n    function createEvent(\n        int256 _id,\n        uint256 _startTime,\n        uint256 _endTime,\n        uint8 _questAmount\n    ) public {\n        require( msg.sender == owner, \"owner only\");\n        events[_id].id = _id;\n        events[_id].startTime = _startTime;\n        events[_id].endTime = _endTime;\n        events[_id].questAmount = _questAmount;\n    } \n\n    function setAnswer(\n        int256 _id,\n        uint8 _whichAnswer,\n        address payable _playerWallet,\n        uint8 _reputation\n    ) public {\n        require( msg.sender == owner, \"owner only\");\n        require(\n            timeAnswer(events[_id].startTime, events[_id].endTime) == 0,\n            \"Time not valid\"\n        );\n        GFStruct.Player memory play;\n        play = GFStruct.Player(_playerWallet, _reputation);\n        events[_id].player[_whichAnswer].push(play);\n    }\n\n    function finishGFEvent(int256 _id) public {\n        require( msg.sender == owner, \"owner only\");\n        uint256 biggestValue = 0;\n        uint8 correctAnswer;\n\n        // find correct answer\n        for (uint8 i = 0; i < events[_id].questAmount; i++) {\n            if (events[_id].player[i].length > biggestValue) {\n                biggestValue = events[_id].player[i].length;\n                correctAnswer = i;\n            }\n        }\n\n        // add payment for players\n      //  uint256 GFrewards = getGFrewards();\n\n        events[_id].correctAnswer = correctAnswer;\n        events[_id].eventFinish = true;\n        emit GFIsFinish(_id, correctAnswer);\n    }\n    \n\n}    ",
  "sourcePath": "/Users/macbook/Documents/freelance/tokenominc/contracts/matic/events/GrowthFactorEvents.sol",
  "compiler": {
    "name": "solc",
    "version": "0.7.6+commit.7338295f.Linux.g++"
  },
  "schemaVersion": "3.3.4",
  "updatedAt": "2021-03-25T15:22:33.893Z",
  "networkType": "ethereum",
  "devdoc": {
    "kind": "dev",
    "methods": {},
    "version": 1
  },
  "userdoc": {
    "kind": "user",
    "methods": {},
    "version": 1
  }
}