{
  "contractName": "GrowthFactorEvents",
  "abi": [
    {
      "inputs": [],
      "stateMutability": "nonpayable",
      "type": "constructor"
    },
    {
      "anonymous": false,
      "inputs": [
        {
          "indexed": false,
          "internalType": "int256",
          "name": "_id",
          "type": "int256"
        },
        {
          "indexed": false,
          "internalType": "uint8",
          "name": "correctAnswer",
          "type": "uint8"
        }
      ],
      "name": "GFIsFinish",
      "type": "event"
    },
    {
      "inputs": [],
      "name": "GFindex",
      "outputs": [
        {
          "internalType": "uint256",
          "name": "",
          "type": "uint256"
        }
      ],
      "stateMutability": "view",
      "type": "function"
    },
    {
      "inputs": [],
      "name": "GFrewards",
      "outputs": [
        {
          "internalType": "uint256",
          "name": "",
          "type": "uint256"
        }
      ],
      "stateMutability": "view",
      "type": "function"
    },
    {
      "inputs": [],
      "name": "advisorPepc",
      "outputs": [
        {
          "internalType": "uint256",
          "name": "",
          "type": "uint256"
        }
      ],
      "stateMutability": "view",
      "type": "function"
    },
    {
      "inputs": [],
      "name": "advisorPercMint",
      "outputs": [
        {
          "internalType": "uint256",
          "name": "",
          "type": "uint256"
        }
      ],
      "stateMutability": "view",
      "type": "function"
    },
    {
      "inputs": [],
      "name": "comMarketFundPerc",
      "outputs": [
        {
          "internalType": "uint256",
          "name": "",
          "type": "uint256"
        }
      ],
      "stateMutability": "view",
      "type": "function"
    },
    {
      "inputs": [],
      "name": "comMarketFundWallet",
      "outputs": [
        {
          "internalType": "address payable",
          "name": "",
          "type": "address"
        }
      ],
      "stateMutability": "view",
      "type": "function"
    },
    {
      "inputs": [],
      "name": "developFundPerc",
      "outputs": [
        {
          "internalType": "uint256",
          "name": "",
          "type": "uint256"
        }
      ],
      "stateMutability": "view",
      "type": "function"
    },
    {
      "inputs": [],
      "name": "developFundPercPremim",
      "outputs": [
        {
          "internalType": "uint256",
          "name": "",
          "type": "uint256"
        }
      ],
      "stateMutability": "view",
      "type": "function"
    },
    {
      "inputs": [],
      "name": "expertExtraPerc",
      "outputs": [
        {
          "internalType": "uint256",
          "name": "",
          "type": "uint256"
        }
      ],
      "stateMutability": "view",
      "type": "function"
    },
    {
      "inputs": [],
      "name": "expertPerc",
      "outputs": [
        {
          "internalType": "uint256",
          "name": "",
          "type": "uint256"
        }
      ],
      "stateMutability": "view",
      "type": "function"
    },
    {
      "inputs": [],
      "name": "expertPercMint",
      "outputs": [
        {
          "internalType": "uint256",
          "name": "",
          "type": "uint256"
        }
      ],
      "stateMutability": "view",
      "type": "function"
    },
    {
      "inputs": [],
      "name": "expertPremiumPerc",
      "outputs": [
        {
          "internalType": "uint256",
          "name": "",
          "type": "uint256"
        }
      ],
      "stateMutability": "view",
      "type": "function"
    },
    {
      "inputs": [],
      "name": "extraHostPerc",
      "outputs": [
        {
          "internalType": "uint256",
          "name": "",
          "type": "uint256"
        }
      ],
      "stateMutability": "view",
      "type": "function"
    },
    {
      "inputs": [],
      "name": "extraHostPercMint",
      "outputs": [
        {
          "internalType": "uint256",
          "name": "",
          "type": "uint256"
        }
      ],
      "stateMutability": "view",
      "type": "function"
    },
    {
      "inputs": [],
      "name": "firstWithdrawIndex",
      "outputs": [
        {
          "internalType": "uint256",
          "name": "",
          "type": "uint256"
        }
      ],
      "stateMutability": "view",
      "type": "function"
    },
    {
      "inputs": [],
      "name": "getFirstWithdraw",
      "outputs": [
        {
          "internalType": "uint256",
          "name": "",
          "type": "uint256"
        }
      ],
      "stateMutability": "view",
      "type": "function"
    },
    {
      "inputs": [],
      "name": "hostPerc",
      "outputs": [
        {
          "internalType": "uint256",
          "name": "",
          "type": "uint256"
        }
      ],
      "stateMutability": "view",
      "type": "function"
    },
    {
      "inputs": [],
      "name": "hostPercMint",
      "outputs": [
        {
          "internalType": "uint256",
          "name": "",
          "type": "uint256"
        }
      ],
      "stateMutability": "view",
      "type": "function"
    },
    {
      "inputs": [],
      "name": "moderatorsFundPerc",
      "outputs": [
        {
          "internalType": "uint256",
          "name": "",
          "type": "uint256"
        }
      ],
      "stateMutability": "view",
      "type": "function"
    },
    {
      "inputs": [],
      "name": "moderatorsFundWallet",
      "outputs": [
        {
          "internalType": "address payable",
          "name": "",
          "type": "address"
        }
      ],
      "stateMutability": "view",
      "type": "function"
    },
    {
      "inputs": [],
      "name": "owner",
      "outputs": [
        {
          "internalType": "address payable",
          "name": "",
          "type": "address"
        }
      ],
      "stateMutability": "view",
      "type": "function"
    },
    {
      "inputs": [],
      "name": "playersPers",
      "outputs": [
        {
          "internalType": "uint256",
          "name": "",
          "type": "uint256"
        }
      ],
      "stateMutability": "view",
      "type": "function"
    },
    {
      "inputs": [],
      "name": "playersPersMint",
      "outputs": [
        {
          "internalType": "uint256",
          "name": "",
          "type": "uint256"
        }
      ],
      "stateMutability": "view",
      "type": "function"
    },
    {
      "inputs": [],
      "name": "playersPersPremiun",
      "outputs": [
        {
          "internalType": "uint256",
          "name": "",
          "type": "uint256"
        }
      ],
      "stateMutability": "view",
      "type": "function"
    },
    {
      "inputs": [
        {
          "internalType": "address payable",
          "name": "_wallet",
          "type": "address"
        }
      ],
      "name": "setComMarketFundWallet",
      "outputs": [],
      "stateMutability": "nonpayable",
      "type": "function"
    },
    {
      "inputs": [
        {
          "internalType": "uint256",
          "name": "_developFundPerc",
          "type": "uint256"
        }
      ],
      "name": "setDevelopFundPerc",
      "outputs": [],
      "stateMutability": "nonpayable",
      "type": "function"
    },
    {
      "inputs": [
        {
          "internalType": "uint256",
          "name": "_expertPerc",
          "type": "uint256"
        }
      ],
      "name": "setExpertPerc",
      "outputs": [],
      "stateMutability": "nonpayable",
      "type": "function"
    },
    {
      "inputs": [
        {
          "internalType": "uint256",
          "name": "_firstWithdrawIndex",
          "type": "uint256"
        }
      ],
      "name": "setFirstWithdraw",
      "outputs": [],
      "stateMutability": "nonpayable",
      "type": "function"
    },
    {
      "inputs": [
        {
          "internalType": "uint256",
          "name": "_GFindex",
          "type": "uint256"
        }
      ],
      "name": "setGFindex",
      "outputs": [],
      "stateMutability": "nonpayable",
      "type": "function"
    },
    {
      "inputs": [
        {
          "internalType": "uint256",
          "name": "_GFrewards",
          "type": "uint256"
        }
      ],
      "name": "setGFrewards",
      "outputs": [],
      "stateMutability": "nonpayable",
      "type": "function"
    },
    {
      "inputs": [
        {
          "internalType": "uint256",
          "name": "_hostPercMint",
          "type": "uint256"
        },
        {
          "internalType": "uint256",
          "name": "_hostPerc",
          "type": "uint256"
        }
      ],
      "name": "setHostPerc",
      "outputs": [],
      "stateMutability": "nonpayable",
      "type": "function"
    },
    {
      "inputs": [
        {
          "internalType": "address payable",
          "name": "_wallet",
          "type": "address"
        }
      ],
      "name": "setModeratorsFundWallet",
      "outputs": [],
      "stateMutability": "nonpayable",
      "type": "function"
    },
    {
      "inputs": [
        {
          "internalType": "uint256",
          "name": "_playersPersMint",
          "type": "uint256"
        }
      ],
      "name": "setPlayerPersMint",
      "outputs": [],
      "stateMutability": "nonpayable",
      "type": "function"
    },
    {
      "inputs": [
        {
          "internalType": "uint256",
          "name": "_welcomeBTYTokens",
          "type": "uint256"
        }
      ],
      "name": "setWelcomeBTYTokens",
      "outputs": [],
      "stateMutability": "nonpayable",
      "type": "function"
    },
    {
      "inputs": [
        {
          "internalType": "uint256",
          "name": "_startTime",
          "type": "uint256"
        },
        {
          "internalType": "uint256",
          "name": "_endTime",
          "type": "uint256"
        }
      ],
      "name": "timeAnswer",
      "outputs": [
        {
          "internalType": "int8",
          "name": "",
          "type": "int8"
        }
      ],
      "stateMutability": "view",
      "type": "function"
    },
    {
      "inputs": [
        {
          "internalType": "uint256",
          "name": "_endTime",
          "type": "uint256"
        }
      ],
      "name": "timeValidate",
      "outputs": [
        {
          "internalType": "int8",
          "name": "",
          "type": "int8"
        }
      ],
      "stateMutability": "view",
      "type": "function"
    },
    {
      "inputs": [],
      "name": "welcomeBTYTokens",
      "outputs": [
        {
          "internalType": "uint256",
          "name": "",
          "type": "uint256"
        }
      ],
      "stateMutability": "view",
      "type": "function"
    },
    {
      "inputs": [
        {
          "internalType": "int256",
          "name": "_id",
          "type": "int256"
        },
        {
          "internalType": "uint256",
          "name": "_startTime",
          "type": "uint256"
        },
        {
          "internalType": "uint256",
          "name": "_endTime",
          "type": "uint256"
        },
        {
          "internalType": "uint8",
          "name": "_questAmount",
          "type": "uint8"
        }
      ],
      "name": "createEvent",
      "outputs": [],
      "stateMutability": "nonpayable",
      "type": "function"
    },
    {
      "inputs": [
        {
          "internalType": "int256",
          "name": "_id",
          "type": "int256"
        },
        {
          "internalType": "uint8",
          "name": "_whichAnswer",
          "type": "uint8"
        },
        {
          "internalType": "address payable",
          "name": "_playerWallet",
          "type": "address"
        },
        {
          "internalType": "uint8",
          "name": "_reputation",
          "type": "uint8"
        }
      ],
      "name": "setAnswer",
      "outputs": [],
      "stateMutability": "nonpayable",
      "type": "function"
    },
    {
      "inputs": [
        {
          "internalType": "int256",
          "name": "_id",
          "type": "int256"
        }
      ],
      "name": "finishEvent",
      "outputs": [],
      "stateMutability": "nonpayable",
      "type": "function"
    }
  ],
  "bytecode": "0x6080604052600a600055600460015560016002556001600355600a60045560046005556002600655600f600755600260085560016009556032600a55605a600b55604b600c55600a600d5568056bc75e2d63100000600e556001600f55678ac7230489e80000601055600a601255600a6013556005601555600260175534801561008857600080fd5b5033601160006101000a81548173ffffffffffffffffffffffffffffffffffffffff021916908373ffffffffffffffffffffffffffffffffffffffff1602179055506117b1806100d96000396000f3fe608060405234801561001057600080fd5b50600436106102485760003560e01c80638da5cb5b1161013b578063c12c8c46116100b8578063df1858171161007c578063df18581714610862578063e1755c6a14610880578063e1dcc4091461089e578063ef99e099146108bc578063f7ec5851146108da57610248565b8063c12c8c461461079c578063c369085e146107ba578063d7a86da7146107e8578063dba8fe8714610816578063dd3c22831461083457610248565b80639cb38460116100ff5780639cb38460146106cc578063a03c6697146106fa578063af9ace4514610728578063b1642b5014610746578063b44901e81461077e57610248565b80638da5cb5b146105da5780638fc8bc421461060e578063903a19cf1461062c5780639336e8fd146106705780639580de671461069e57610248565b80632e63e452116101c9578063786508c51161018d578063786508c5146104fd578063802cc34c1461051b57806380d0437a1461054f578063896aa7a41461059e5780638a9dbda7146105bc57610248565b80632e63e452146104205780633467f6971461043e57806354f6db741461047257806355e84158146104c157806373e258ac146104df57610248565b8063246fe64711610210578063246fe6471461031957806324beedd31461035e578063279a839b1461037c57806327e53717146103e45780632c316d051461040257610248565b8063134c3b071461024d57806315cfe4191461026b57806319d6b7d8146102895780631c408357146102b757806324045aad146102d5575b600080fd5b6102556108f8565b6040518082815260200191505060405180910390f35b6102736108fe565b6040518082815260200191505060405180910390f35b6102b56004803603602081101561029f57600080fd5b8101908080359060200190929190505050610904565b005b6102bf6109b4565b6040518082815260200191505060405180910390f35b610317600480360360208110156102eb57600080fd5b81019080803573ffffffffffffffffffffffffffffffffffffffff1690602001909291905050506109ba565b005b6103456004803603602081101561032f57600080fd5b8101908080359060200190929190505050610aa4565b604051808260000b815260200191505060405180910390f35b610366610ac2565b6040518082815260200191505060405180910390f35b6103e26004803603608081101561039257600080fd5b8101908080359060200190929190803560ff169060200190929190803573ffffffffffffffffffffffffffffffffffffffff169060200190929190803560ff169060200190929190505050610ac8565b005b6103ec610d15565b6040518082815260200191505060405180910390f35b61040a610d1b565b6040518082815260200191505060405180910390f35b610428610d21565b6040518082815260200191505060405180910390f35b610446610d27565b604051808273ffffffffffffffffffffffffffffffffffffffff16815260200191505060405180910390f35b6104a86004803603604081101561048857600080fd5b810190808035906020019092919080359060200190929190505050610d4d565b604051808260000b815260200191505060405180910390f35b6104c9610d7f565b6040518082815260200191505060405180910390f35b6104e7610d85565b6040518082815260200191505060405180910390f35b610505610d8b565b6040518082815260200191505060405180910390f35b610523610d91565b604051808273ffffffffffffffffffffffffffffffffffffffff16815260200191505060405180910390f35b61059c6004803603608081101561056557600080fd5b81019080803590602001909291908035906020019092919080359060200190929190803560ff169060200190929190505050610db7565b005b6105a6610ee3565b6040518082815260200191505060405180910390f35b6105c4610ee9565b6040518082815260200191505060405180910390f35b6105e2610eef565b604051808273ffffffffffffffffffffffffffffffffffffffff16815260200191505060405180910390f35b610616610f15565b6040518082815260200191505060405180910390f35b61066e6004803603602081101561064257600080fd5b81019080803573ffffffffffffffffffffffffffffffffffffffff169060200190929190505050610f1b565b005b61069c6004803603602081101561068657600080fd5b8101908080359060200190929190505050611005565b005b6106ca600480360360208110156106b457600080fd5b81019080803590602001909291905050506110b5565b005b6106f8600480360360208110156106e257600080fd5b8101908080359060200190929190505050611165565b005b6107266004803603602081101561071057600080fd5b8101908080359060200190929190505050611361565b005b610730611411565b6040518082815260200191505060405180910390f35b61077c6004803603604081101561075c57600080fd5b810190808035906020019092919080359060200190929190505050611417565b005b6107866114cf565b6040518082815260200191505060405180910390f35b6107a46114d5565b6040518082815260200191505060405180910390f35b6107e6600480360360208110156107d057600080fd5b81019080803590602001909291905050506114db565b005b610814600480360360208110156107fe57600080fd5b810190808035906020019092919050505061158b565b005b61081e61163b565b6040518082815260200191505060405180910390f35b6108606004803603602081101561084a57600080fd5b8101908080359060200190929190505050611641565b005b61086a6116f1565b6040518082815260200191505060405180910390f35b6108886116f7565b6040518082815260200191505060405180910390f35b6108a66116fd565b6040518082815260200191505060405180910390f35b6108c4611703565b6040518082815260200191505060405180910390f35b6108e2611711565b6040518082815260200191505060405180910390f35b600c5481565b600f5481565b601160009054906101000a900473ffffffffffffffffffffffffffffffffffffffff1673ffffffffffffffffffffffffffffffffffffffff163373ffffffffffffffffffffffffffffffffffffffff16146109aa576040517f08c379a000000000000000000000000000000000000000000000000000000000815260040180806020018281038252603181526020018061174b6031913960400191505060405180910390fd5b8060108190555050565b60125481565b601160009054906101000a900473ffffffffffffffffffffffffffffffffffffffff1673ffffffffffffffffffffffffffffffffffffffff163373ffffffffffffffffffffffffffffffffffffffff1614610a60576040517f08c379a000000000000000000000000000000000000000000000000000000000815260040180806020018281038252603181526020018061174b6031913960400191505060405180910390fd5b80601660006101000a81548173ffffffffffffffffffffffffffffffffffffffff021916908373ffffffffffffffffffffffffffffffffffffffff16021790555050565b60008082420312610ab85760009050610abd565b600190505b919050565b60175481565b601160009054906101000a900473ffffffffffffffffffffffffffffffffffffffff1673ffffffffffffffffffffffffffffffffffffffff163373ffffffffffffffffffffffffffffffffffffffff1614610b6e576040517f08c379a000000000000000000000000000000000000000000000000000000000815260040180806020018281038252603181526020018061174b6031913960400191505060405180910390fd5b6000610ba660186000878152602001908152602001600020600101546018600088815260200190815260200160002060020154610d4d565b60000b14610c1c576040517f08c379a00000000000000000000000000000000000000000000000000000000081526004018080602001828103825260118152602001807f54696d65206973206e6f742076616c696400000000000000000000000000000081525060200191505060405180910390fd5b610c24611717565b60405180604001604052808473ffffffffffffffffffffffffffffffffffffffff1681526020018360ff1681525090506018600086815260200190815260200160002060040160008560ff168152602001908152602001600020819080600181540180825580915050600190039060005260206000200160009091909190915060008201518160000160006101000a81548173ffffffffffffffffffffffffffffffffffffffff021916908373ffffffffffffffffffffffffffffffffffffffff16021790555060208201518160000160146101000a81548160ff021916908360ff16021790555050505050505050565b600b5481565b60065481565b60105481565b601660009054906101000a900473ffffffffffffffffffffffffffffffffffffffff1681565b60008083420312610d7457600042830312610d6b5760009050610d79565b60029050610d79565b600190505b92915050565b60035481565b600a5481565b60095481565b601460009054906101000a900473ffffffffffffffffffffffffffffffffffffffff1681565b601160009054906101000a900473ffffffffffffffffffffffffffffffffffffffff1673ffffffffffffffffffffffffffffffffffffffff163373ffffffffffffffffffffffffffffffffffffffff1614610e5d576040517f08c379a000000000000000000000000000000000000000000000000000000000815260040180806020018281038252603181526020018061174b6031913960400191505060405180910390fd5b836018600086815260200190815260200160002060000181905550826018600086815260200190815260200160002060010181905550816018600086815260200190815260200160002060020181905550806018600086815260200190815260200160002060030160006101000a81548160ff021916908360ff16021790555050505050565b60055481565b60005481565b601160009054906101000a900473ffffffffffffffffffffffffffffffffffffffff1681565b60015481565b601160009054906101000a900473ffffffffffffffffffffffffffffffffffffffff1673ffffffffffffffffffffffffffffffffffffffff163373ffffffffffffffffffffffffffffffffffffffff1614610fc1576040517f08c379a000000000000000000000000000000000000000000000000000000000815260040180806020018281038252603181526020018061174b6031913960400191505060405180910390fd5b80601460006101000a81548173ffffffffffffffffffffffffffffffffffffffff021916908373ffffffffffffffffffffffffffffffffffffffff16021790555050565b601160009054906101000a900473ffffffffffffffffffffffffffffffffffffffff1673ffffffffffffffffffffffffffffffffffffffff163373ffffffffffffffffffffffffffffffffffffffff16146110ab576040517f08c379a000000000000000000000000000000000000000000000000000000000815260040180806020018281038252603181526020018061174b6031913960400191505060405180910390fd5b80600a8190555050565b601160009054906101000a900473ffffffffffffffffffffffffffffffffffffffff1673ffffffffffffffffffffffffffffffffffffffff163373ffffffffffffffffffffffffffffffffffffffff161461115b576040517f08c379a000000000000000000000000000000000000000000000000000000000815260040180806020018281038252603181526020018061174b6031913960400191505060405180910390fd5b8060058190555050565b601160009054906101000a900473ffffffffffffffffffffffffffffffffffffffff1673ffffffffffffffffffffffffffffffffffffffff163373ffffffffffffffffffffffffffffffffffffffff161461120b576040517f08c379a000000000000000000000000000000000000000000000000000000000815260040180806020018281038252603181526020018061174b6031913960400191505060405180910390fd5b60008080600090505b6018600085815260200190815260200160002060030160009054906101000a900460ff1660ff168160ff1610156112bb57826018600086815260200190815260200160002060040160008360ff1681526020019081526020016000208054905011156112ae576018600085815260200190815260200160002060040160008260ff1681526020019081526020016000208054905092508091505b8080600101915050611214565b50806018600085815260200190815260200160002060050160016101000a81548160ff021916908360ff16021790555060016018600085815260200190815260200160002060050160006101000a81548160ff0219169083151502179055507fb2ce968840ae229a799f5eaa854b1366708b242855976804bc004892ffe679a58382604051808381526020018260ff1681526020019250505060405180910390a1505050565b601160009054906101000a900473ffffffffffffffffffffffffffffffffffffffff1673ffffffffffffffffffffffffffffffffffffffff163373ffffffffffffffffffffffffffffffffffffffff1614611407576040517f08c379a000000000000000000000000000000000000000000000000000000000815260040180806020018281038252603181526020018061174b6031913960400191505060405180910390fd5b80600d8190555050565b60045481565b601160009054906101000a900473ffffffffffffffffffffffffffffffffffffffff1673ffffffffffffffffffffffffffffffffffffffff163373ffffffffffffffffffffffffffffffffffffffff16146114bd576040517f08c379a000000000000000000000000000000000000000000000000000000000815260040180806020018281038252603181526020018061174b6031913960400191505060405180910390fd5b81600081905550806001819055505050565b600d5481565b60025481565b601160009054906101000a900473ffffffffffffffffffffffffffffffffffffffff1673ffffffffffffffffffffffffffffffffffffffff163373ffffffffffffffffffffffffffffffffffffffff1614611581576040517f08c379a000000000000000000000000000000000000000000000000000000000815260040180806020018281038252603181526020018061174b6031913960400191505060405180910390fd5b80600f8190555050565b601160009054906101000a900473ffffffffffffffffffffffffffffffffffffffff1673ffffffffffffffffffffffffffffffffffffffff163373ffffffffffffffffffffffffffffffffffffffff1614611631576040517f08c379a000000000000000000000000000000000000000000000000000000000815260040180806020018281038252603181526020018061174b6031913960400191505060405180910390fd5b80600e8190555050565b60075481565b601160009054906101000a900473ffffffffffffffffffffffffffffffffffffffff1673ffffffffffffffffffffffffffffffffffffffff163373ffffffffffffffffffffffffffffffffffffffff16146116e7576040517f08c379a000000000000000000000000000000000000000000000000000000000815260040180806020018281038252603181526020018061174b6031913960400191505060405180910390fd5b8060128190555050565b600e5481565b60155481565b60135481565b6000600d5460105402905090565b60085481565b6040518060400160405280600073ffffffffffffffffffffffffffffffffffffffff168152602001600060ff168152509056fe546869732066756e6374696f6e20636f756c64206f6e6c7920626520657865637574656420627920746865206f776e6572a2646970667358221220f9a3117763346e1c9cb01b7002b03e33989d740913219b75bfe349b4d55376c264736f6c63430007060033",
  "immutableReferences": {},
  "source": "// SPDX-License-Identifier: MIT\npragma solidity >=0.4.22 <0.9.0;\n\nimport {GFStruct} from \"../struct/GFStruct.sol\";\nimport {TimeValidation} from \"../helpers/TimeValidation.sol\";\nimport {ConfigVariables} from \"../config/ConfigVariables.sol\";\n\ncontract GrowthFactorEvents is TimeValidation, ConfigVariables {\n    constructor(){}\n\n    mapping(int256 => GFStruct.EventData) events;\n    event GFIsFinish(int256 _id, uint8 correctAnswer);\n\n    function createEvent(\n        int256 _id,\n        uint256 _startTime,\n        uint256 _endTime,\n        uint8 _questAmount\n    ) public ownerOnly() {\n        events[_id].id = _id;\n        events[_id].startTime = _startTime;\n        events[_id].endTime = _endTime;\n        events[_id].questAmount = _questAmount;\n    } \n\n    function setAnswer(\n        int256 _id,\n        uint8 _whichAnswer,\n        address payable _playerWallet,\n        uint8 _reputation\n    ) public ownerOnly() {\n        require(\n            timeAnswer(events[_id].startTime, events[_id].endTime) == 0,\n            \"Time is not valid\"\n        );\n        GFStruct.Player memory play;\n        play = GFStruct.Player(_playerWallet, _reputation);\n        events[_id].player[_whichAnswer].push(play);\n    }\n\n    function finishEvent(int256 _id) public ownerOnly(){\n        uint256 biggestValue = 0;\n        uint8 correctAnswer;\n\n        // find correct answer\n        for (uint8 i = 0; i < events[_id].questAmount; i++) {\n            if (events[_id].player[i].length > biggestValue) {\n                biggestValue = events[_id].player[i].length;\n                correctAnswer = i;\n            }\n        }\n\n        // add payment for players\n      //  uint256 GFrewards = getGFrewards();\n\n        events[_id].correctAnswer = correctAnswer;\n        events[_id].eventFinish = true;\n        emit GFIsFinish(_id, correctAnswer);\n    }\n    \n\n}    ",
  "sourcePath": "/Users/macbook/Documents/freelance/tokenominc/contracts/events/GrowthFactorEvents.sol",
  "compiler": {
    "name": "solc",
    "version": "0.7.6+commit.7338295f.Linux.g++"
  },
  "schemaVersion": "3.2.2",
  "updatedAt": "2021-03-09T14:57:39.507Z",
  "devdoc": {
    "kind": "dev",
    "methods": {},
    "version": 1
  },
  "userdoc": {
    "kind": "user",
    "methods": {},
    "version": 1
  }
}