{
  "contractName": "GrowthFactorEvents",
  "abi": [
    {
      "inputs": [
        {
          "internalType": "contract BET",
          "name": "_betAddress",
          "type": "address"
        },
        {
          "internalType": "contract BTY",
          "name": "_btyAddress",
          "type": "address"
        }
      ],
      "stateMutability": "nonpayable",
      "type": "constructor"
    },
    {
      "inputs": [],
      "name": "getCompanyPerc",
      "outputs": [
        {
          "internalType": "uint256",
          "name": "",
          "type": "uint256"
        }
      ],
      "stateMutability": "view",
      "type": "function"
    },
    {
      "inputs": [],
      "name": "getExpertPerc",
      "outputs": [
        {
          "internalType": "uint256",
          "name": "",
          "type": "uint256"
        }
      ],
      "stateMutability": "view",
      "type": "function"
    },
    {
      "inputs": [],
      "name": "getFirstWithdraw",
      "outputs": [
        {
          "internalType": "uint256",
          "name": "",
          "type": "uint256"
        }
      ],
      "stateMutability": "view",
      "type": "function"
    },
    {
      "inputs": [],
      "name": "getGFindex",
      "outputs": [
        {
          "internalType": "uint256",
          "name": "",
          "type": "uint256"
        }
      ],
      "stateMutability": "view",
      "type": "function"
    },
    {
      "inputs": [],
      "name": "getGFrewards",
      "outputs": [
        {
          "internalType": "uint256",
          "name": "",
          "type": "uint256"
        }
      ],
      "stateMutability": "view",
      "type": "function"
    },
    {
      "inputs": [],
      "name": "getHostPerc",
      "outputs": [
        {
          "internalType": "uint256",
          "name": "",
          "type": "uint256"
        }
      ],
      "stateMutability": "view",
      "type": "function"
    },
    {
      "inputs": [],
      "name": "getPlayerPers",
      "outputs": [
        {
          "internalType": "uint256",
          "name": "",
          "type": "uint256"
        }
      ],
      "stateMutability": "view",
      "type": "function"
    },
    {
      "inputs": [
        {
          "internalType": "uint256",
          "name": "_companyPerc",
          "type": "uint256"
        }
      ],
      "name": "setCompanyPerc",
      "outputs": [],
      "stateMutability": "nonpayable",
      "type": "function"
    },
    {
      "inputs": [
        {
          "internalType": "uint256",
          "name": "_expertPerc",
          "type": "uint256"
        }
      ],
      "name": "setExpertPerc",
      "outputs": [],
      "stateMutability": "nonpayable",
      "type": "function"
    },
    {
      "inputs": [
        {
          "internalType": "uint256",
          "name": "_playerPers",
          "type": "uint256"
        }
      ],
      "name": "setFirstWithdraw",
      "outputs": [],
      "stateMutability": "nonpayable",
      "type": "function"
    },
    {
      "inputs": [
        {
          "internalType": "uint256",
          "name": "_GFindex",
          "type": "uint256"
        }
      ],
      "name": "setGFindex",
      "outputs": [],
      "stateMutability": "nonpayable",
      "type": "function"
    },
    {
      "inputs": [
        {
          "internalType": "uint256",
          "name": "_GFrewards",
          "type": "uint256"
        }
      ],
      "name": "setGFrewards",
      "outputs": [],
      "stateMutability": "nonpayable",
      "type": "function"
    },
    {
      "inputs": [
        {
          "internalType": "uint256",
          "name": "_hostPerc",
          "type": "uint256"
        }
      ],
      "name": "setHostPerc",
      "outputs": [],
      "stateMutability": "nonpayable",
      "type": "function"
    },
    {
      "inputs": [
        {
          "internalType": "uint256",
          "name": "_firstWithdraw",
          "type": "uint256"
        }
      ],
      "name": "setPlayerPers",
      "outputs": [],
      "stateMutability": "nonpayable",
      "type": "function"
    },
    {
      "inputs": [
        {
          "internalType": "uint256",
          "name": "_startTime",
          "type": "uint256"
        },
        {
          "internalType": "uint256",
          "name": "_endTime",
          "type": "uint256"
        }
      ],
      "name": "timeAnswer",
      "outputs": [
        {
          "internalType": "int8",
          "name": "",
          "type": "int8"
        }
      ],
      "stateMutability": "view",
      "type": "function"
    },
    {
      "inputs": [
        {
          "internalType": "uint256",
          "name": "_endTime",
          "type": "uint256"
        }
      ],
      "name": "timeValidate",
      "outputs": [
        {
          "internalType": "int8",
          "name": "",
          "type": "int8"
        }
      ],
      "stateMutability": "view",
      "type": "function"
    },
    {
      "inputs": [
        {
          "internalType": "int256",
          "name": "_id",
          "type": "int256"
        },
        {
          "internalType": "uint256",
          "name": "_startTime",
          "type": "uint256"
        },
        {
          "internalType": "uint256",
          "name": "_endTime",
          "type": "uint256"
        },
        {
          "internalType": "uint8",
          "name": "_questAmount",
          "type": "uint8"
        },
        {
          "internalType": "address payable",
          "name": "_host",
          "type": "address"
        },
        {
          "internalType": "uint256",
          "name": "_amount",
          "type": "uint256"
        }
      ],
      "name": "newEvent",
      "outputs": [],
      "stateMutability": "payable",
      "type": "function"
    },
    {
      "inputs": [
        {
          "internalType": "int256",
          "name": "_id",
          "type": "int256"
        },
        {
          "internalType": "uint8",
          "name": "_whichAnswer",
          "type": "uint8"
        },
        {
          "internalType": "uint256",
          "name": "_amount",
          "type": "uint256"
        },
        {
          "internalType": "address payable",
          "name": "_playerWallet",
          "type": "address"
        },
        {
          "internalType": "uint8",
          "name": "_reputation",
          "type": "uint8"
        }
      ],
      "name": "setAnswer",
      "outputs": [],
      "stateMutability": "payable",
      "type": "function"
    }
  ],
  "bytecode": "0x608060405268056bc75e2d6310000060055568056bc75e2d63100000600655600160075534801561002f57600080fd5b5060405161183a38038061183a8339818101604052604081101561005257600080fd5b81019080805190602001909291908051906020019092919050505033600460006101000a81548173ffffffffffffffffffffffffffffffffffffffff021916908373ffffffffffffffffffffffffffffffffffffffff16021790555081600860006101000a81548173ffffffffffffffffffffffffffffffffffffffff021916908373ffffffffffffffffffffffffffffffffffffffff16021790555080600960006101000a81548173ffffffffffffffffffffffffffffffffffffffff021916908373ffffffffffffffffffffffffffffffffffffffff16021790555050506116f9806101416000396000f3fe6080604052600436106101095760003560e01c8063a03c669711610095578063d70b4bb611610064578063d70b4bb61461047a578063d7a86da7146104a5578063e1aea523146104e0578063e640a5331461051b578063ef99e0991461054657610109565b8063a03c6697146103ae578063be8968aa146103e9578063c369085e14610414578063ca2f2f7a1461044f57610109565b806354f6db74116100dc57806354f6db741461024f578063782f4a4f146102ab5780638995c4f4146102d65780639580de6714610348578063997862cb1461038357610109565b80630328ff4a1461010e57806324467c4514610149578063246fe647146101845780633e634bdf146101d6575b600080fd5b34801561011a57600080fd5b506101476004803603602081101561013157600080fd5b8101908080359060200190929190505050610571565b005b34801561015557600080fd5b506101826004803603602081101561016c57600080fd5b8101908080359060200190929190505050610621565b005b34801561019057600080fd5b506101bd600480360360208110156101a757600080fd5b81019080803590602001909291905050506106d1565b604051808260000b815260200191505060405180910390f35b61024d600480360360c08110156101ec57600080fd5b81019080803590602001909291908035906020019092919080359060200190929190803560ff169060200190929190803573ffffffffffffffffffffffffffffffffffffffff169060200190929190803590602001909291905050506106ef565b005b34801561025b57600080fd5b506102926004803603604081101561027257600080fd5b810190808035906020019092919080359060200190929190505050610b0a565b604051808260000b815260200191505060405180910390f35b3480156102b757600080fd5b506102c0610b3c565b6040518082815260200191505060405180910390f35b610346600480360360a08110156102ec57600080fd5b8101908080359060200190929190803560ff16906020019092919080359060200190929190803573ffffffffffffffffffffffffffffffffffffffff169060200190929190803560ff169060200190929190505050610b46565b005b34801561035457600080fd5b506103816004803603602081101561036b57600080fd5b8101908080359060200190929190505050611265565b005b34801561038f57600080fd5b50610398611315565b6040518082815260200191505060405180910390f35b3480156103ba57600080fd5b506103e7600480360360208110156103d157600080fd5b810190808035906020019092919050505061131f565b005b3480156103f557600080fd5b506103fe6113cf565b6040518082815260200191505060405180910390f35b34801561042057600080fd5b5061044d6004803603602081101561043757600080fd5b81019080803590602001909291905050506113d9565b005b34801561045b57600080fd5b50610464611489565b6040518082815260200191505060405180910390f35b34801561048657600080fd5b5061048f611492565b6040518082815260200191505060405180910390f35b3480156104b157600080fd5b506104de600480360360208110156104c857600080fd5b810190808035906020019092919050505061149c565b005b3480156104ec57600080fd5b506105196004803603602081101561050357600080fd5b810190808035906020019092919050505061154c565b005b34801561052757600080fd5b506105306115fc565b6040518082815260200191505060405180910390f35b34801561055257600080fd5b5061055b611606565b6040518082815260200191505060405180910390f35b600460009054906101000a900473ffffffffffffffffffffffffffffffffffffffff1673ffffffffffffffffffffffffffffffffffffffff163373ffffffffffffffffffffffffffffffffffffffff1614610617576040517f08c379a00000000000000000000000000000000000000000000000000000000081526004018080602001828103825260318152602001806116936031913960400191505060405180910390fd5b8060018190555050565b600460009054906101000a900473ffffffffffffffffffffffffffffffffffffffff1673ffffffffffffffffffffffffffffffffffffffff163373ffffffffffffffffffffffffffffffffffffffff16146106c7576040517f08c379a00000000000000000000000000000000000000000000000000000000081526004018080602001828103825260318152602001806116936031913960400191505060405180910390fd5b8060008190555050565b600080824203126106e557600090506106ea565b600190505b919050565b600460009054906101000a900473ffffffffffffffffffffffffffffffffffffffff1673ffffffffffffffffffffffffffffffffffffffff163373ffffffffffffffffffffffffffffffffffffffff1614610795576040517f08c379a00000000000000000000000000000000000000000000000000000000081526004018080602001828103825260318152602001806116936031913960400191505060405180910390fd5b85600a60008881526020019081526020016000206000018190555084600a60008881526020019081526020016000206002018190555083600a60008881526020019081526020016000206003018190555082600a600088815260200190815260200160002060040160006101000a81548160ff021916908360ff16021790555081600a600088815260200190815260200160002060010160006101000a81548173ffffffffffffffffffffffffffffffffffffffff021916908373ffffffffffffffffffffffffffffffffffffffff16021790555080600960009054906101000a900473ffffffffffffffffffffffffffffffffffffffff1673ffffffffffffffffffffffffffffffffffffffff1663dd62ed3e84306040518363ffffffff1660e01b8152600401808373ffffffffffffffffffffffffffffffffffffffff1681526020018273ffffffffffffffffffffffffffffffffffffffff1681526020019250505060206040518083038186803b15801561091257600080fd5b505afa158015610926573d6000803e3d6000fd5b505050506040513d602081101561093c57600080fd5b810190808051906020019092919050505010156109c1576040517f08c379a000000000000000000000000000000000000000000000000000000000815260040180806020018281038252600f8152602001807f416c6c6f77616e6365206572726f72000000000000000000000000000000000081525060200191505060405180910390fd5b600960009054906101000a900473ffffffffffffffffffffffffffffffffffffffff1673ffffffffffffffffffffffffffffffffffffffff166323b872dd8330846040518463ffffffff1660e01b8152600401808473ffffffffffffffffffffffffffffffffffffffff1681526020018373ffffffffffffffffffffffffffffffffffffffff1681526020018281526020019350505050602060405180830381600087803b158015610a7257600080fd5b505af1158015610a86573d6000803e3d6000fd5b505050506040513d6020811015610a9c57600080fd5b8101908080519060200190929190505050610b02576040517f08c379a000000000000000000000000000000000000000000000000000000000815260040180806020018281038252602781526020018061164b6027913960400191505060405180910390fd5b505050505050565b60008083420312610b3157600042830312610b285760009050610b36565b60029050610b36565b600190505b92915050565b6000600654905090565b600460009054906101000a900473ffffffffffffffffffffffffffffffffffffffff1673ffffffffffffffffffffffffffffffffffffffff163373ffffffffffffffffffffffffffffffffffffffff1614610bec576040517f08c379a00000000000000000000000000000000000000000000000000000000081526004018080602001828103825260318152602001806116936031913960400191505060405180910390fd5b6000610c24600a600088815260200190815260200160002060020154600a600089815260200190815260200160002060030154610b0a565b60000b14610c9a576040517f08c379a00000000000000000000000000000000000000000000000000000000081526004018080602001828103825260118152602001807f54696d65206973206e6f742076616c696400000000000000000000000000000081525060200191505060405180910390fd5b600a600086815260200190815260200160002060090160009054906101000a900460ff16610d30576040517f08c379a000000000000000000000000000000000000000000000000000000000815260040180806020018281038252600f8152602001807f6576656e742069732066696e697368000000000000000000000000000000000081525060200191505060405180910390fd5b60011515600a600087815260200190815260200160002060070160008473ffffffffffffffffffffffffffffffffffffffff1673ffffffffffffffffffffffffffffffffffffffff16815260200190815260200160002060009054906101000a900460ff16151514610ded576040517f08c379a00000000000000000000000000000000000000000000000000000000081526004018080602001828103825260218152602001806116726021913960400191505060405180910390fd5b610df5611610565b60405180606001604052808473ffffffffffffffffffffffffffffffffffffffff1681526020018581526020018360ff168152509050600a600087815260200190815260200160002060060160008660ff16815260200190815260200160002081908060018154018082558091505060019003906000526020600020906003020160009091909190915060008201518160000160006101000a81548173ffffffffffffffffffffffffffffffffffffffff021916908373ffffffffffffffffffffffffffffffffffffffff1602179055506020820151816001015560408201518160020160006101000a81548160ff021916908360ff16021790555050506001600a600088815260200190815260200160002060070160008573ffffffffffffffffffffffffffffffffffffffff1673ffffffffffffffffffffffffffffffffffffffff16815260200190815260200160002060006101000a81548160ff0219169083151502179055506001600a60008881526020019081526020016000206008016000828254019250508190555083600a6000888152602001908152602001600020600a016000828254019250508190555083600860009054906101000a900473ffffffffffffffffffffffffffffffffffffffff1673ffffffffffffffffffffffffffffffffffffffff1663dd62ed3e85306040518363ffffffff1660e01b8152600401808373ffffffffffffffffffffffffffffffffffffffff1681526020018273ffffffffffffffffffffffffffffffffffffffff1681526020019250505060206040518083038186803b15801561105057600080fd5b505afa158015611064573d6000803e3d6000fd5b505050506040513d602081101561107a57600080fd5b810190808051906020019092919050505010156110ff576040517f08c379a000000000000000000000000000000000000000000000000000000000815260040180806020018281038252600f8152602001807f416c6c6f77616e6365206572726f72000000000000000000000000000000000081525060200191505060405180910390fd5b600860009054906101000a900473ffffffffffffffffffffffffffffffffffffffff1673ffffffffffffffffffffffffffffffffffffffff166323b872dd8430876040518463ffffffff1660e01b8152600401808473ffffffffffffffffffffffffffffffffffffffff1681526020018373ffffffffffffffffffffffffffffffffffffffff1681526020018281526020019350505050602060405180830381600087803b1580156111b057600080fd5b505af11580156111c4573d6000803e3d6000fd5b505050506040513d60208110156111da57600080fd5b810190808051906020019092919050505061125d576040517f08c379a000000000000000000000000000000000000000000000000000000000815260040180806020018281038252601f8152602001807f5472616e73666572204254592066726f6d20706c6179657273206572726f720081525060200191505060405180910390fd5b505050505050565b600460009054906101000a900473ffffffffffffffffffffffffffffffffffffffff1673ffffffffffffffffffffffffffffffffffffffff163373ffffffffffffffffffffffffffffffffffffffff161461130b576040517f08c379a00000000000000000000000000000000000000000000000000000000081526004018080602001828103825260318152602001806116936031913960400191505060405180910390fd5b8060028190555050565b6000600354905090565b600460009054906101000a900473ffffffffffffffffffffffffffffffffffffffff1673ffffffffffffffffffffffffffffffffffffffff163373ffffffffffffffffffffffffffffffffffffffff16146113c5576040517f08c379a00000000000000000000000000000000000000000000000000000000081526004018080602001828103825260318152602001806116936031913960400191505060405180910390fd5b8060038190555050565b6000600154905090565b600460009054906101000a900473ffffffffffffffffffffffffffffffffffffffff1673ffffffffffffffffffffffffffffffffffffffff163373ffffffffffffffffffffffffffffffffffffffff161461147f576040517f08c379a00000000000000000000000000000000000000000000000000000000081526004018080602001828103825260318152602001806116936031913960400191505060405180910390fd5b8060078190555050565b60008054905090565b6000600754905090565b600460009054906101000a900473ffffffffffffffffffffffffffffffffffffffff1673ffffffffffffffffffffffffffffffffffffffff163373ffffffffffffffffffffffffffffffffffffffff1614611542576040517f08c379a00000000000000000000000000000000000000000000000000000000081526004018080602001828103825260318152602001806116936031913960400191505060405180910390fd5b8060068190555050565b600460009054906101000a900473ffffffffffffffffffffffffffffffffffffffff1673ffffffffffffffffffffffffffffffffffffffff163373ffffffffffffffffffffffffffffffffffffffff16146115f2576040517f08c379a00000000000000000000000000000000000000000000000000000000081526004018080602001828103825260318152602001806116936031913960400191505060405180910390fd5b8060058190555050565b6000600254905090565b6000600554905090565b6040518060600160405280600073ffffffffffffffffffffffffffffffffffffffff16815260200160008152602001600060ff168152509056fe5472616e736665722042545920746f6b656e7320666f722050524f206576656e74206572726f727573657220616c726561647920706172746963697061746520696e206576656e74546869732066756e6374696f6e20636f756c64206f6e6c7920626520657865637574656420627920746865206f776e6572a26469706673582212200ac29be293673e13e36acc45b0b835a3d02db882c67501f9038b29c7ad64049a64736f6c63430007060033",
  "immutableReferences": {},
  "source": "// SPDX-License-Identifier: MIT\npragma solidity >=0.4.22 <0.9.0;\n\nimport {ProStruct} from \"../struct/ProStruct.sol\";\nimport {TimeValidation} from \"../helpers/TimeValidation.sol\";\nimport {ConfigVariables} from \"../config/ConfigVariables.sol\";\nimport {BET} from \"../tokens/BET.sol\";\nimport {BTY} from \"../tokens/BTY.sol\";\n\ncontract GrowthFactorEvents is TimeValidation, ConfigVariables {\n    BET private betToken;\n    BTY private btyToken;\n\n    mapping(int256 => ProStruct.EventData) events;\n\n    constructor(BET _betAddress, BTY _btyAddress) {\n        betToken = _betAddress;\n        btyToken = _btyAddress;\n    }\n\n    function newEvent(\n        int256 _id,\n        uint256 _startTime,\n        uint256 _endTime,\n        uint8 _questAmount,\n        address payable _host,\n        uint256 _amount\n    ) public payable ownerOnly() {\n        events[_id].id = _id;\n        events[_id].startTime = _startTime;\n        events[_id].endTime = _endTime;\n        events[_id].questAmount = _questAmount;\n        events[_id].host = _host;\n\n        require(\n            btyToken.allowance(_host, address(this)) >= _amount,\n            \"Allowance error\"\n        );\n        require(\n            btyToken.transferFrom(_host, address(this), _amount),\n            \"Transfer BTY tokens for PRO event error\"\n        );\n    }\n\n    function setAnswer(\n        int256 _id,\n        uint8 _whichAnswer,\n        uint256 _amount,\n        address payable _playerWallet,\n        uint8 _reputation\n    ) public payable ownerOnly() {\n        require(\n            timeAnswer(events[_id].startTime, events[_id].endTime) == 0,\n            \"Time is not valid\"\n        );\n        require(events[_id].eventFinish, \"event is finish\");\n        require(\n            events[_id].allPlayers[_playerWallet] == true,\n            \"user already participate in event\"\n        );\n\n        ProStruct.Player memory player;\n        player = ProStruct.Player(_playerWallet, _amount, _reputation);\n        events[_id].player[_whichAnswer].push(player);\n        events[_id].allPlayers[_playerWallet] = true;\n        events[_id].activePlayers += 1;\n        events[_id].pool += _amount;\n\n        require(\n            betToken.allowance(_playerWallet, address(this)) >= _amount,\n            \"Allowance error\"\n        );\n        require(\n            betToken.transferFrom(_playerWallet, address(this), _amount),\n            \"Transfer BTY from players error\"\n        );\n    }\n\n    //TODO add event finish logic\n\n\n}\n",
  "sourcePath": "/Users/macbook/Documents/freelance/tokenominc/contracts/events/ProEvents.sol",
  "compiler": {
    "name": "solc",
    "version": "0.7.6+commit.7338295f.Linux.g++"
  },
  "schemaVersion": "3.2.2",
  "updatedAt": "2021-02-17T15:37:06.301Z",
  "devdoc": {
    "kind": "dev",
    "methods": {},
    "version": 1
  },
  "userdoc": {
    "kind": "user",
    "methods": {},
    "version": 1
  }
}