{
  "contractName": "GrowthFactorEvents",
  "abi": [
    {
      "inputs": [],
      "stateMutability": "nonpayable",
      "type": "constructor"
    },
    {
      "anonymous": false,
      "inputs": [
        {
          "indexed": false,
          "internalType": "int256",
          "name": "_id",
          "type": "int256"
        },
        {
          "indexed": false,
          "internalType": "uint8",
          "name": "correctAnswer",
          "type": "uint8"
        }
      ],
      "name": "GFIsFinish",
      "type": "event"
    },
    {
      "inputs": [],
      "name": "GFindex",
      "outputs": [
        {
          "internalType": "uint256",
          "name": "",
          "type": "uint256"
        }
      ],
      "stateMutability": "view",
      "type": "function"
    },
    {
      "inputs": [],
      "name": "GFrewards",
      "outputs": [
        {
          "internalType": "uint256",
          "name": "",
          "type": "uint256"
        }
      ],
      "stateMutability": "view",
      "type": "function"
    },
    {
      "inputs": [],
      "name": "advisorPepc",
      "outputs": [
        {
          "internalType": "uint256",
          "name": "",
          "type": "uint256"
        }
      ],
      "stateMutability": "view",
      "type": "function"
    },
    {
      "inputs": [],
      "name": "advisorPercMint",
      "outputs": [
        {
          "internalType": "uint256",
          "name": "",
          "type": "uint256"
        }
      ],
      "stateMutability": "view",
      "type": "function"
    },
    {
      "inputs": [],
      "name": "comMarketFundPerc",
      "outputs": [
        {
          "internalType": "uint256",
          "name": "",
          "type": "uint256"
        }
      ],
      "stateMutability": "view",
      "type": "function"
    },
    {
      "inputs": [],
      "name": "developFundPerc",
      "outputs": [
        {
          "internalType": "uint256",
          "name": "",
          "type": "uint256"
        }
      ],
      "stateMutability": "view",
      "type": "function"
    },
    {
      "inputs": [],
      "name": "developFundPercPremim",
      "outputs": [
        {
          "internalType": "uint256",
          "name": "",
          "type": "uint256"
        }
      ],
      "stateMutability": "view",
      "type": "function"
    },
    {
      "inputs": [],
      "name": "expertExtraPerc",
      "outputs": [
        {
          "internalType": "uint256",
          "name": "",
          "type": "uint256"
        }
      ],
      "stateMutability": "view",
      "type": "function"
    },
    {
      "inputs": [],
      "name": "expertPerc",
      "outputs": [
        {
          "internalType": "uint256",
          "name": "",
          "type": "uint256"
        }
      ],
      "stateMutability": "view",
      "type": "function"
    },
    {
      "inputs": [],
      "name": "expertPercMint",
      "outputs": [
        {
          "internalType": "uint256",
          "name": "",
          "type": "uint256"
        }
      ],
      "stateMutability": "view",
      "type": "function"
    },
    {
      "inputs": [],
      "name": "expertPremiumPerc",
      "outputs": [
        {
          "internalType": "uint256",
          "name": "",
          "type": "uint256"
        }
      ],
      "stateMutability": "view",
      "type": "function"
    },
    {
      "inputs": [],
      "name": "extraHostPerc",
      "outputs": [
        {
          "internalType": "uint256",
          "name": "",
          "type": "uint256"
        }
      ],
      "stateMutability": "view",
      "type": "function"
    },
    {
      "inputs": [],
      "name": "extraHostPercMint",
      "outputs": [
        {
          "internalType": "uint256",
          "name": "",
          "type": "uint256"
        }
      ],
      "stateMutability": "view",
      "type": "function"
    },
    {
      "inputs": [],
      "name": "firstWithdrawIndex",
      "outputs": [
        {
          "internalType": "uint256",
          "name": "",
          "type": "uint256"
        }
      ],
      "stateMutability": "view",
      "type": "function"
    },
    {
      "inputs": [],
      "name": "getFirstWithdraw",
      "outputs": [
        {
          "internalType": "uint256",
          "name": "",
          "type": "uint256"
        }
      ],
      "stateMutability": "view",
      "type": "function"
    },
    {
      "inputs": [],
      "name": "getGFindex",
      "outputs": [
        {
          "internalType": "uint256",
          "name": "",
          "type": "uint256"
        }
      ],
      "stateMutability": "view",
      "type": "function"
    },
    {
      "inputs": [],
      "name": "hostPerc",
      "outputs": [
        {
          "internalType": "uint256",
          "name": "",
          "type": "uint256"
        }
      ],
      "stateMutability": "view",
      "type": "function"
    },
    {
      "inputs": [],
      "name": "hostPercMint",
      "outputs": [
        {
          "internalType": "uint256",
          "name": "",
          "type": "uint256"
        }
      ],
      "stateMutability": "view",
      "type": "function"
    },
    {
      "inputs": [],
      "name": "moderatorsFundPerc",
      "outputs": [
        {
          "internalType": "uint256",
          "name": "",
          "type": "uint256"
        }
      ],
      "stateMutability": "view",
      "type": "function"
    },
    {
      "inputs": [],
      "name": "owner",
      "outputs": [
        {
          "internalType": "address payable",
          "name": "",
          "type": "address"
        }
      ],
      "stateMutability": "view",
      "type": "function"
    },
    {
      "inputs": [],
      "name": "playersPers",
      "outputs": [
        {
          "internalType": "uint256",
          "name": "",
          "type": "uint256"
        }
      ],
      "stateMutability": "view",
      "type": "function"
    },
    {
      "inputs": [],
      "name": "playersPersMint",
      "outputs": [
        {
          "internalType": "uint256",
          "name": "",
          "type": "uint256"
        }
      ],
      "stateMutability": "view",
      "type": "function"
    },
    {
      "inputs": [],
      "name": "playersPersPremiun",
      "outputs": [
        {
          "internalType": "uint256",
          "name": "",
          "type": "uint256"
        }
      ],
      "stateMutability": "view",
      "type": "function"
    },
    {
      "inputs": [
        {
          "internalType": "uint256",
          "name": "_developFundPerc",
          "type": "uint256"
        }
      ],
      "name": "setDevelopFundPerc",
      "outputs": [],
      "stateMutability": "nonpayable",
      "type": "function"
    },
    {
      "inputs": [
        {
          "internalType": "uint256",
          "name": "_expertPerc",
          "type": "uint256"
        }
      ],
      "name": "setExpertPerc",
      "outputs": [],
      "stateMutability": "nonpayable",
      "type": "function"
    },
    {
      "inputs": [
        {
          "internalType": "uint256",
          "name": "_firstWithdrawIndex",
          "type": "uint256"
        }
      ],
      "name": "setFirstWithdraw",
      "outputs": [],
      "stateMutability": "nonpayable",
      "type": "function"
    },
    {
      "inputs": [
        {
          "internalType": "uint256",
          "name": "_GFindex",
          "type": "uint256"
        }
      ],
      "name": "setGFindex",
      "outputs": [],
      "stateMutability": "nonpayable",
      "type": "function"
    },
    {
      "inputs": [
        {
          "internalType": "uint256",
          "name": "_GFrewards",
          "type": "uint256"
        }
      ],
      "name": "setGFrewards",
      "outputs": [],
      "stateMutability": "nonpayable",
      "type": "function"
    },
    {
      "inputs": [
        {
          "internalType": "uint256",
          "name": "_hostPercMint",
          "type": "uint256"
        },
        {
          "internalType": "uint256",
          "name": "_hostPerc",
          "type": "uint256"
        }
      ],
      "name": "setHostPerc",
      "outputs": [],
      "stateMutability": "nonpayable",
      "type": "function"
    },
    {
      "inputs": [
        {
          "internalType": "uint256",
          "name": "_playersPersMint",
          "type": "uint256"
        }
      ],
      "name": "setPlayerPersMint",
      "outputs": [],
      "stateMutability": "nonpayable",
      "type": "function"
    },
    {
      "inputs": [
        {
          "internalType": "uint256",
          "name": "_welcomeBTYTokens",
          "type": "uint256"
        }
      ],
      "name": "setWelcomeBTYTokens",
      "outputs": [],
      "stateMutability": "nonpayable",
      "type": "function"
    },
    {
      "inputs": [
        {
          "internalType": "uint256",
          "name": "_startTime",
          "type": "uint256"
        },
        {
          "internalType": "uint256",
          "name": "_endTime",
          "type": "uint256"
        }
      ],
      "name": "timeAnswer",
      "outputs": [
        {
          "internalType": "int8",
          "name": "",
          "type": "int8"
        }
      ],
      "stateMutability": "view",
      "type": "function"
    },
    {
      "inputs": [
        {
          "internalType": "uint256",
          "name": "_endTime",
          "type": "uint256"
        }
      ],
      "name": "timeValidate",
      "outputs": [
        {
          "internalType": "int8",
          "name": "",
          "type": "int8"
        }
      ],
      "stateMutability": "view",
      "type": "function"
    },
    {
      "inputs": [],
      "name": "welcomeBTYTokens",
      "outputs": [
        {
          "internalType": "uint256",
          "name": "",
          "type": "uint256"
        }
      ],
      "stateMutability": "view",
      "type": "function"
    },
    {
      "inputs": [
        {
          "internalType": "int256",
          "name": "_id",
          "type": "int256"
        },
        {
          "internalType": "uint256",
          "name": "_startTime",
          "type": "uint256"
        },
        {
          "internalType": "uint256",
          "name": "_endTime",
          "type": "uint256"
        },
        {
          "internalType": "uint8",
          "name": "_questAmount",
          "type": "uint8"
        }
      ],
      "name": "createEvent",
      "outputs": [],
      "stateMutability": "nonpayable",
      "type": "function"
    },
    {
      "inputs": [
        {
          "internalType": "int256",
          "name": "_id",
          "type": "int256"
        },
        {
          "internalType": "uint8",
          "name": "_whichAnswer",
          "type": "uint8"
        },
        {
          "internalType": "address payable",
          "name": "_playerWallet",
          "type": "address"
        },
        {
          "internalType": "uint8",
          "name": "_reputation",
          "type": "uint8"
        }
      ],
      "name": "setAnswer",
      "outputs": [],
      "stateMutability": "nonpayable",
      "type": "function"
    },
    {
      "inputs": [
        {
          "internalType": "int256",
          "name": "_id",
          "type": "int256"
        }
      ],
      "name": "finishGFEvent",
      "outputs": [],
      "stateMutability": "nonpayable",
      "type": "function"
    }
  ],
  "bytecode": "0x6080604052600a600055600460015560016002556001600355600a60045560046005556002600655600f600755600260085560016009556032600a55605a600b55604b600c55600a600d5568056bc75e2d63100000600e556064600f55678ac7230489e80000601055600a601255600a6013556005601455600260155534801561008857600080fd5b5033601160006101000a81548173ffffffffffffffffffffffffffffffffffffffff021916908373ffffffffffffffffffffffffffffffffffffffff16021790555061154e806100d96000396000f3fe608060405234801561001057600080fd5b50600436106102275760003560e01c80638da5cb5b11610130578063c369085e116100b8578063df1858171161007c578063df1858171461076f578063e1755c6a1461078d578063e1dcc409146107ab578063ef99e099146107c9578063f7ec5851146107e757610227565b8063c369085e146106a9578063d70b4bb6146106d7578063d7a86da7146106f5578063dba8fe8714610723578063dd3c22831461074157610227565b8063a03c6697116100ff578063a03c6697146105e9578063af9ace4514610617578063b1642b5014610635578063b44901e81461066d578063c12c8c461461068b57610227565b80638da5cb5b1461053b5780638fc8bc421461056f5780639336e8fd1461058d5780639580de67146105bb57610227565b80632c316d05116101b357806373e258ac1161018257806373e258ac14610474578063786508c51461049257806380d0437a146104b0578063896aa7a4146104ff5780638a9dbda71461051d57610227565b80632c316d05146103cb5780632e63e452146103e957806354f6db741461040757806355e841581461045657610227565b8063246fe647116101fa578063246fe647146102b457806324beedd3146102f9578063279a839b1461031757806327e537171461037f57806328e162d91461039d57610227565b8063134c3b071461022c57806315cfe4191461024a57806319d6b7d8146102685780631c40835714610296575b600080fd5b610234610805565b6040518082815260200191505060405180910390f35b61025261080b565b6040518082815260200191505060405180910390f35b6102946004803603602081101561027e57600080fd5b8101908080359060200190929190505050610811565b005b61029e6108c1565b6040518082815260200191505060405180910390f35b6102e0600480360360208110156102ca57600080fd5b81019080803590602001909291905050506108c7565b604051808260000b815260200191505060405180910390f35b6103016108e5565b6040518082815260200191505060405180910390f35b61037d6004803603608081101561032d57600080fd5b8101908080359060200190929190803560ff169060200190929190803573ffffffffffffffffffffffffffffffffffffffff169060200190929190803560ff1690602001909291905050506108eb565b005b610387610b38565b6040518082815260200191505060405180910390f35b6103c9600480360360208110156103b357600080fd5b8101908080359060200190929190505050610b3e565b005b6103d3610d3a565b6040518082815260200191505060405180910390f35b6103f1610d40565b6040518082815260200191505060405180910390f35b61043d6004803603604081101561041d57600080fd5b810190808035906020019092919080359060200190929190505050610d46565b604051808260000b815260200191505060405180910390f35b61045e610d78565b6040518082815260200191505060405180910390f35b61047c610d7e565b6040518082815260200191505060405180910390f35b61049a610d84565b6040518082815260200191505060405180910390f35b6104fd600480360360808110156104c657600080fd5b81019080803590602001909291908035906020019092919080359060200190929190803560ff169060200190929190505050610d8a565b005b610507610eb6565b6040518082815260200191505060405180910390f35b610525610ebc565b6040518082815260200191505060405180910390f35b610543610ec2565b604051808273ffffffffffffffffffffffffffffffffffffffff16815260200191505060405180910390f35b610577610ee8565b6040518082815260200191505060405180910390f35b6105b9600480360360208110156105a357600080fd5b8101908080359060200190929190505050610eee565b005b6105e7600480360360208110156105d157600080fd5b8101908080359060200190929190505050610f9e565b005b610615600480360360208110156105ff57600080fd5b810190808035906020019092919050505061104e565b005b61061f6110fe565b6040518082815260200191505060405180910390f35b61066b6004803603604081101561064b57600080fd5b810190808035906020019092919080359060200190929190505050611104565b005b6106756111bc565b6040518082815260200191505060405180910390f35b6106936111c2565b6040518082815260200191505060405180910390f35b6106d5600480360360208110156106bf57600080fd5b81019080803590602001909291905050506111c8565b005b6106df611278565b6040518082815260200191505060405180910390f35b6107216004803603602081101561070b57600080fd5b8101908080359060200190929190505050611328565b005b61072b6113d8565b6040518082815260200191505060405180910390f35b61076d6004803603602081101561075757600080fd5b81019080803590602001909291905050506113de565b005b61077761148e565b6040518082815260200191505060405180910390f35b610795611494565b6040518082815260200191505060405180910390f35b6107b361149a565b6040518082815260200191505060405180910390f35b6107d16114a0565b6040518082815260200191505060405180910390f35b6107ef6114ae565b6040518082815260200191505060405180910390f35b600c5481565b600f5481565b601160009054906101000a900473ffffffffffffffffffffffffffffffffffffffff1673ffffffffffffffffffffffffffffffffffffffff163373ffffffffffffffffffffffffffffffffffffffff16146108b7576040517f08c379a00000000000000000000000000000000000000000000000000000000081526004018080602001828103825260318152602001806114e86031913960400191505060405180910390fd5b8060108190555050565b60125481565b600080824203126108db57600090506108e0565b600190505b919050565b60155481565b601160009054906101000a900473ffffffffffffffffffffffffffffffffffffffff1673ffffffffffffffffffffffffffffffffffffffff163373ffffffffffffffffffffffffffffffffffffffff1614610991576040517f08c379a00000000000000000000000000000000000000000000000000000000081526004018080602001828103825260318152602001806114e86031913960400191505060405180910390fd5b60006109c960166000878152602001908152602001600020600101546016600088815260200190815260200160002060020154610d46565b60000b14610a3f576040517f08c379a00000000000000000000000000000000000000000000000000000000081526004018080602001828103825260118152602001807f54696d65206973206e6f742076616c696400000000000000000000000000000081525060200191505060405180910390fd5b610a476114b4565b60405180604001604052808473ffffffffffffffffffffffffffffffffffffffff1681526020018360ff1681525090506016600086815260200190815260200160002060040160008560ff168152602001908152602001600020819080600181540180825580915050600190039060005260206000200160009091909190915060008201518160000160006101000a81548173ffffffffffffffffffffffffffffffffffffffff021916908373ffffffffffffffffffffffffffffffffffffffff16021790555060208201518160000160146101000a81548160ff021916908360ff16021790555050505050505050565b600b5481565b601160009054906101000a900473ffffffffffffffffffffffffffffffffffffffff1673ffffffffffffffffffffffffffffffffffffffff163373ffffffffffffffffffffffffffffffffffffffff1614610be4576040517f08c379a00000000000000000000000000000000000000000000000000000000081526004018080602001828103825260318152602001806114e86031913960400191505060405180910390fd5b60008080600090505b6016600085815260200190815260200160002060030160009054906101000a900460ff1660ff168160ff161015610c9457826016600086815260200190815260200160002060040160008360ff168152602001908152602001600020805490501115610c87576016600085815260200190815260200160002060040160008260ff1681526020019081526020016000208054905092508091505b8080600101915050610bed565b50806016600085815260200190815260200160002060050160016101000a81548160ff021916908360ff16021790555060016016600085815260200190815260200160002060050160006101000a81548160ff0219169083151502179055507fb2ce968840ae229a799f5eaa854b1366708b242855976804bc004892ffe679a58382604051808381526020018260ff1681526020019250505060405180910390a1505050565b60065481565b60105481565b60008083420312610d6d57600042830312610d645760009050610d72565b60029050610d72565b600190505b92915050565b60035481565b600a5481565b60095481565b601160009054906101000a900473ffffffffffffffffffffffffffffffffffffffff1673ffffffffffffffffffffffffffffffffffffffff163373ffffffffffffffffffffffffffffffffffffffff1614610e30576040517f08c379a00000000000000000000000000000000000000000000000000000000081526004018080602001828103825260318152602001806114e86031913960400191505060405180910390fd5b836016600086815260200190815260200160002060000181905550826016600086815260200190815260200160002060010181905550816016600086815260200190815260200160002060020181905550806016600086815260200190815260200160002060030160006101000a81548160ff021916908360ff16021790555050505050565b60055481565b60005481565b601160009054906101000a900473ffffffffffffffffffffffffffffffffffffffff1681565b60015481565b601160009054906101000a900473ffffffffffffffffffffffffffffffffffffffff1673ffffffffffffffffffffffffffffffffffffffff163373ffffffffffffffffffffffffffffffffffffffff1614610f94576040517f08c379a00000000000000000000000000000000000000000000000000000000081526004018080602001828103825260318152602001806114e86031913960400191505060405180910390fd5b80600a8190555050565b601160009054906101000a900473ffffffffffffffffffffffffffffffffffffffff1673ffffffffffffffffffffffffffffffffffffffff163373ffffffffffffffffffffffffffffffffffffffff1614611044576040517f08c379a00000000000000000000000000000000000000000000000000000000081526004018080602001828103825260318152602001806114e86031913960400191505060405180910390fd5b8060058190555050565b601160009054906101000a900473ffffffffffffffffffffffffffffffffffffffff1673ffffffffffffffffffffffffffffffffffffffff163373ffffffffffffffffffffffffffffffffffffffff16146110f4576040517f08c379a00000000000000000000000000000000000000000000000000000000081526004018080602001828103825260318152602001806114e86031913960400191505060405180910390fd5b80600d8190555050565b60045481565b601160009054906101000a900473ffffffffffffffffffffffffffffffffffffffff1673ffffffffffffffffffffffffffffffffffffffff163373ffffffffffffffffffffffffffffffffffffffff16146111aa576040517f08c379a00000000000000000000000000000000000000000000000000000000081526004018080602001828103825260318152602001806114e86031913960400191505060405180910390fd5b81600081905550806001819055505050565b600d5481565b60025481565b601160009054906101000a900473ffffffffffffffffffffffffffffffffffffffff1673ffffffffffffffffffffffffffffffffffffffff163373ffffffffffffffffffffffffffffffffffffffff161461126e576040517f08c379a00000000000000000000000000000000000000000000000000000000081526004018080602001828103825260318152602001806114e86031913960400191505060405180910390fd5b80600f8190555050565b6000601160009054906101000a900473ffffffffffffffffffffffffffffffffffffffff1673ffffffffffffffffffffffffffffffffffffffff163373ffffffffffffffffffffffffffffffffffffffff1614611320576040517f08c379a00000000000000000000000000000000000000000000000000000000081526004018080602001828103825260318152602001806114e86031913960400191505060405180910390fd5b600f54905090565b601160009054906101000a900473ffffffffffffffffffffffffffffffffffffffff1673ffffffffffffffffffffffffffffffffffffffff163373ffffffffffffffffffffffffffffffffffffffff16146113ce576040517f08c379a00000000000000000000000000000000000000000000000000000000081526004018080602001828103825260318152602001806114e86031913960400191505060405180910390fd5b80600e8190555050565b60075481565b601160009054906101000a900473ffffffffffffffffffffffffffffffffffffffff1673ffffffffffffffffffffffffffffffffffffffff163373ffffffffffffffffffffffffffffffffffffffff1614611484576040517f08c379a00000000000000000000000000000000000000000000000000000000081526004018080602001828103825260318152602001806114e86031913960400191505060405180910390fd5b8060128190555050565b600e5481565b60145481565b60135481565b6000600d5460105402905090565b60085481565b6040518060400160405280600073ffffffffffffffffffffffffffffffffffffffff168152602001600060ff168152509056fe546869732066756e6374696f6e20636f756c64206f6e6c7920626520657865637574656420627920746865206f776e6572a264697066735822122046345941a703c5a9b6b2b19c1935e03c0f16071d1473d2bc0e8412a464b94d8a64736f6c63430007060033",
  "immutableReferences": {},
  "source": "// SPDX-License-Identifier: MIT\npragma solidity >=0.4.22 <0.9.0;\n\nimport {GFStruct} from \"../struct/GFStruct.sol\";\nimport {TimeValidation} from \"../helpers/TimeValidation.sol\";\nimport {ConfigVariables} from \"../config/ConfigVariables.sol\";\n\ncontract GrowthFactorEvents is TimeValidation, ConfigVariables {\n    constructor(){}\n\n    mapping(int256 => GFStruct.EventData) events;\n    event GFIsFinish(int256 _id, uint8 correctAnswer);\n\n    function createEvent(\n        int256 _id,\n        uint256 _startTime,\n        uint256 _endTime,\n        uint8 _questAmount\n    ) public ownerOnly() {\n        events[_id].id = _id;\n        events[_id].startTime = _startTime;\n        events[_id].endTime = _endTime;\n        events[_id].questAmount = _questAmount;\n    } \n\n    function setAnswer(\n        int256 _id,\n        uint8 _whichAnswer,\n        address payable _playerWallet,\n        uint8 _reputation\n    ) public ownerOnly() {\n        require(\n            timeAnswer(events[_id].startTime, events[_id].endTime) == 0,\n            \"Time is not valid\"\n        );\n        GFStruct.Player memory play;\n        play = GFStruct.Player(_playerWallet, _reputation);\n        events[_id].player[_whichAnswer].push(play);\n    }\n\n    function finishGFEvent(int256 _id) public ownerOnly(){\n        uint256 biggestValue = 0;\n        uint8 correctAnswer;\n\n        // find correct answer\n        for (uint8 i = 0; i < events[_id].questAmount; i++) {\n            if (events[_id].player[i].length > biggestValue) {\n                biggestValue = events[_id].player[i].length;\n                correctAnswer = i;\n            }\n        }\n\n        // add payment for players\n      //  uint256 GFrewards = getGFrewards();\n\n        events[_id].correctAnswer = correctAnswer;\n        events[_id].eventFinish = true;\n        emit GFIsFinish(_id, correctAnswer);\n    }\n    \n\n}    ",
  "sourcePath": "/Users/macbook/Documents/freelance/tokenominc/contracts/events/GrowthFactorEvents.sol",
  "compiler": {
    "name": "solc",
    "version": "0.7.6+commit.7338295f.Linux.g++"
  },
  "schemaVersion": "3.3.4",
  "updatedAt": "2021-03-12T09:54:31.172Z",
  "devdoc": {
    "kind": "dev",
    "methods": {},
    "version": 1
  },
  "userdoc": {
    "kind": "user",
    "methods": {},
    "version": 1
  }
}