{
  "contractName": "GrowthFactorEvents",
  "abi": [
    {
      "inputs": [],
      "stateMutability": "nonpayable",
      "type": "constructor"
    },
    {
      "anonymous": false,
      "inputs": [
        {
          "indexed": false,
          "internalType": "int256",
          "name": "_id",
          "type": "int256"
        },
        {
          "indexed": false,
          "internalType": "uint8",
          "name": "correctAnswer",
          "type": "uint8"
        }
      ],
      "name": "GFIsFinish",
      "type": "event"
    },
    {
      "inputs": [],
      "name": "GFindex",
      "outputs": [
        {
          "internalType": "uint256",
          "name": "",
          "type": "uint256"
        }
      ],
      "stateMutability": "view",
      "type": "function",
      "constant": true
    },
    {
      "inputs": [],
      "name": "GFrewards",
      "outputs": [
        {
          "internalType": "uint256",
          "name": "",
          "type": "uint256"
        }
      ],
      "stateMutability": "view",
      "type": "function",
      "constant": true
    },
    {
      "inputs": [],
      "name": "advisorPepc",
      "outputs": [
        {
          "internalType": "uint256",
          "name": "",
          "type": "uint256"
        }
      ],
      "stateMutability": "view",
      "type": "function",
      "constant": true
    },
    {
      "inputs": [],
      "name": "advisorPercMint",
      "outputs": [
        {
          "internalType": "uint256",
          "name": "",
          "type": "uint256"
        }
      ],
      "stateMutability": "view",
      "type": "function",
      "constant": true
    },
    {
      "inputs": [],
      "name": "communityMarketingFund",
      "outputs": [
        {
          "internalType": "uint256",
          "name": "",
          "type": "uint256"
        }
      ],
      "stateMutability": "view",
      "type": "function",
      "constant": true
    },
    {
      "inputs": [],
      "name": "companyPerc",
      "outputs": [
        {
          "internalType": "uint256",
          "name": "",
          "type": "uint256"
        }
      ],
      "stateMutability": "view",
      "type": "function",
      "constant": true
    },
    {
      "inputs": [],
      "name": "expertExptraPerc",
      "outputs": [
        {
          "internalType": "uint256",
          "name": "",
          "type": "uint256"
        }
      ],
      "stateMutability": "view",
      "type": "function",
      "constant": true
    },
    {
      "inputs": [],
      "name": "expertPerc",
      "outputs": [
        {
          "internalType": "uint256",
          "name": "",
          "type": "uint256"
        }
      ],
      "stateMutability": "view",
      "type": "function",
      "constant": true
    },
    {
      "inputs": [],
      "name": "expertPercMint",
      "outputs": [
        {
          "internalType": "uint256",
          "name": "",
          "type": "uint256"
        }
      ],
      "stateMutability": "view",
      "type": "function",
      "constant": true
    },
    {
      "inputs": [],
      "name": "firstWithdrawIndex",
      "outputs": [
        {
          "internalType": "uint256",
          "name": "",
          "type": "uint256"
        }
      ],
      "stateMutability": "view",
      "type": "function",
      "constant": true
    },
    {
      "inputs": [],
      "name": "getFirstWithdraw",
      "outputs": [
        {
          "internalType": "uint256",
          "name": "",
          "type": "uint256"
        }
      ],
      "stateMutability": "view",
      "type": "function",
      "constant": true
    },
    {
      "inputs": [],
      "name": "hostPerc",
      "outputs": [
        {
          "internalType": "uint256",
          "name": "",
          "type": "uint256"
        }
      ],
      "stateMutability": "view",
      "type": "function",
      "constant": true
    },
    {
      "inputs": [],
      "name": "hostPercMint",
      "outputs": [
        {
          "internalType": "uint256",
          "name": "",
          "type": "uint256"
        }
      ],
      "stateMutability": "view",
      "type": "function",
      "constant": true
    },
    {
      "inputs": [],
      "name": "owner",
      "outputs": [
        {
          "internalType": "address",
          "name": "",
          "type": "address"
        }
      ],
      "stateMutability": "view",
      "type": "function",
      "constant": true
    },
    {
      "inputs": [],
      "name": "playerPers",
      "outputs": [
        {
          "internalType": "uint256",
          "name": "",
          "type": "uint256"
        }
      ],
      "stateMutability": "view",
      "type": "function",
      "constant": true
    },
    {
      "inputs": [
        {
          "internalType": "uint256",
          "name": "_companyPerc",
          "type": "uint256"
        }
      ],
      "name": "setCompanyPerc",
      "outputs": [],
      "stateMutability": "nonpayable",
      "type": "function"
    },
    {
      "inputs": [
        {
          "internalType": "uint256",
          "name": "_expertPerc",
          "type": "uint256"
        }
      ],
      "name": "setExpertPerc",
      "outputs": [],
      "stateMutability": "nonpayable",
      "type": "function"
    },
    {
      "inputs": [
        {
          "internalType": "uint256",
          "name": "_firstWithdrawIndex",
          "type": "uint256"
        }
      ],
      "name": "setFirstWithdraw",
      "outputs": [],
      "stateMutability": "nonpayable",
      "type": "function"
    },
    {
      "inputs": [
        {
          "internalType": "uint256",
          "name": "_GFindex",
          "type": "uint256"
        }
      ],
      "name": "setGFindex",
      "outputs": [],
      "stateMutability": "nonpayable",
      "type": "function"
    },
    {
      "inputs": [
        {
          "internalType": "uint256",
          "name": "_GFrewards",
          "type": "uint256"
        }
      ],
      "name": "setGFrewards",
      "outputs": [],
      "stateMutability": "nonpayable",
      "type": "function"
    },
    {
      "inputs": [
        {
          "internalType": "uint256",
          "name": "_hostPercMint",
          "type": "uint256"
        },
        {
          "internalType": "uint256",
          "name": "_hostPerc",
          "type": "uint256"
        }
      ],
      "name": "setHostPerc",
      "outputs": [],
      "stateMutability": "nonpayable",
      "type": "function"
    },
    {
      "inputs": [
        {
          "internalType": "uint256",
          "name": "_playerPers",
          "type": "uint256"
        }
      ],
      "name": "setPlayerPers",
      "outputs": [],
      "stateMutability": "nonpayable",
      "type": "function"
    },
    {
      "inputs": [
        {
          "internalType": "uint256",
          "name": "_welcomeBTYTokens",
          "type": "uint256"
        }
      ],
      "name": "setWelcomeBTYTokens",
      "outputs": [],
      "stateMutability": "nonpayable",
      "type": "function"
    },
    {
      "inputs": [
        {
          "internalType": "uint256",
          "name": "_startTime",
          "type": "uint256"
        },
        {
          "internalType": "uint256",
          "name": "_endTime",
          "type": "uint256"
        }
      ],
      "name": "timeAnswer",
      "outputs": [
        {
          "internalType": "int8",
          "name": "",
          "type": "int8"
        }
      ],
      "stateMutability": "view",
      "type": "function",
      "constant": true
    },
    {
      "inputs": [
        {
          "internalType": "uint256",
          "name": "_endTime",
          "type": "uint256"
        }
      ],
      "name": "timeValidate",
      "outputs": [
        {
          "internalType": "int8",
          "name": "",
          "type": "int8"
        }
      ],
      "stateMutability": "view",
      "type": "function",
      "constant": true
    },
    {
      "inputs": [],
      "name": "welcomeBTYTokens",
      "outputs": [
        {
          "internalType": "uint256",
          "name": "",
          "type": "uint256"
        }
      ],
      "stateMutability": "view",
      "type": "function",
      "constant": true
    },
    {
      "inputs": [
        {
          "internalType": "int256",
          "name": "_id",
          "type": "int256"
        },
        {
          "internalType": "uint256",
          "name": "_startTime",
          "type": "uint256"
        },
        {
          "internalType": "uint256",
          "name": "_endTime",
          "type": "uint256"
        },
        {
          "internalType": "uint8",
          "name": "_questAmount",
          "type": "uint8"
        }
      ],
      "name": "createEvent",
      "outputs": [],
      "stateMutability": "nonpayable",
      "type": "function"
    },
    {
      "inputs": [
        {
          "internalType": "int256",
          "name": "_id",
          "type": "int256"
        },
        {
          "internalType": "uint8",
          "name": "_whichAnswer",
          "type": "uint8"
        },
        {
          "internalType": "address payable",
          "name": "_playerWallet",
          "type": "address"
        },
        {
          "internalType": "uint8",
          "name": "_reputation",
          "type": "uint8"
        }
      ],
      "name": "setAnswer",
      "outputs": [],
      "stateMutability": "nonpayable",
      "type": "function"
    },
    {
      "inputs": [
        {
          "internalType": "int256",
          "name": "_id",
          "type": "int256"
        }
      ],
      "name": "finishEvent",
      "outputs": [],
      "stateMutability": "nonpayable",
      "type": "function"
    }
  ],
  "bytecode": "0x6080604052600a600155600a6002556004600355600a6004556004600555600260065560026007556001600855600a600b5568056bc75e2d63100000600c556001600d55678ac7230489e80000600e5534801561005b57600080fd5b5033600a60006101000a81548173ffffffffffffffffffffffffffffffffffffffff021916908373ffffffffffffffffffffffffffffffffffffffff16021790555061132c806100ac6000396000f3fe608060405234801561001057600080fd5b50600436106101cf5760003560e01c80638da5cb5b11610104578063b44901e8116100a2578063df18581711610071578063df18581714610635578063e1aea52314610653578063ef99e09914610681578063f7ec58511461069f576101cf565b8063b44901e81461059d578063c369085e146105bb578063cd095085146105e9578063d7a86da714610607576101cf565b80639cb38460116100de5780639cb38460146104eb578063a03c669714610519578063af9ace4514610547578063b1642b5014610565576101cf565b80638da5cb5b1461046b5780638fc8bc421461049f5780639580de67146104bd576101cf565b806354f6db7411610171578063786508c51161014b578063786508c5146103c257806380d0437a146103e0578063896aa7a41461042f5780638a9dbda71461044d576101cf565b806354f6db7414610337578063671f3b94146103865780636afd7b7f146103a4576101cf565b8063246fe647116101ad578063246fe6471461024e578063279a839b146102935780632d0e277c146102fb5780632e63e45214610319576101cf565b806315cfe419146101d457806319d6b7d8146101f257806324467c4514610220575b600080fd5b6101dc6106bd565b6040518082815260200191505060405180910390f35b61021e6004803603602081101561020857600080fd5b81019080803590602001909291905050506106c3565b005b61024c6004803603602081101561023657600080fd5b8101908080359060200190929190505050610773565b005b61027a6004803603602081101561026457600080fd5b8101908080359060200190929190505050610823565b604051808260000b815260200191505060405180910390f35b6102f9600480360360808110156102a957600080fd5b8101908080359060200190929190803560ff169060200190929190803573ffffffffffffffffffffffffffffffffffffffff169060200190929190803560ff169060200190929190505050610841565b005b610303610a8e565b6040518082815260200191505060405180910390f35b610321610a94565b6040518082815260200191505060405180910390f35b61036d6004803603604081101561034d57600080fd5b810190808035906020019092919080359060200190929190505050610a9a565b604051808260000b815260200191505060405180910390f35b61038e610acc565b6040518082815260200191505060405180910390f35b6103ac610ad2565b6040518082815260200191505060405180910390f35b6103ca610ad8565b6040518082815260200191505060405180910390f35b61042d600480360360808110156103f657600080fd5b81019080803590602001909291908035906020019092919080359060200190929190803560ff169060200190929190505050610ade565b005b610437610c0a565b6040518082815260200191505060405180910390f35b610455610c10565b6040518082815260200191505060405180910390f35b610473610c16565b604051808273ffffffffffffffffffffffffffffffffffffffff16815260200191505060405180910390f35b6104a7610c3c565b6040518082815260200191505060405180910390f35b6104e9600480360360208110156104d357600080fd5b8101908080359060200190929190505050610c42565b005b6105176004803603602081101561050157600080fd5b8101908080359060200190929190505050610cf2565b005b6105456004803603602081101561052f57600080fd5b8101908080359060200190929190505050610eee565b005b61054f610f9e565b6040518082815260200191505060405180910390f35b61059b6004803603604081101561057b57600080fd5b810190808035906020019092919080359060200190929190505050610fa4565b005b6105a561105c565b6040518082815260200191505060405180910390f35b6105e7600480360360208110156105d157600080fd5b8101908080359060200190929190505050611062565b005b6105f1611112565b6040518082815260200191505060405180910390f35b6106336004803603602081101561061d57600080fd5b8101908080359060200190929190505050611118565b005b61063d6111c8565b6040518082815260200191505060405180910390f35b61067f6004803603602081101561066957600080fd5b81019080803590602001909291905050506111ce565b005b61068961127e565b6040518082815260200191505060405180910390f35b6106a761128c565b6040518082815260200191505060405180910390f35b600d5481565b600a60009054906101000a900473ffffffffffffffffffffffffffffffffffffffff1673ffffffffffffffffffffffffffffffffffffffff163373ffffffffffffffffffffffffffffffffffffffff1614610769576040517f08c379a00000000000000000000000000000000000000000000000000000000081526004018080602001828103825260318152602001806112c66031913960400191505060405180910390fd5b80600e8190555050565b600a60009054906101000a900473ffffffffffffffffffffffffffffffffffffffff1673ffffffffffffffffffffffffffffffffffffffff163373ffffffffffffffffffffffffffffffffffffffff1614610819576040517f08c379a00000000000000000000000000000000000000000000000000000000081526004018080602001828103825260318152602001806112c66031913960400191505060405180910390fd5b8060018190555050565b60008082420312610837576000905061083c565b600190505b919050565b600a60009054906101000a900473ffffffffffffffffffffffffffffffffffffffff1673ffffffffffffffffffffffffffffffffffffffff163373ffffffffffffffffffffffffffffffffffffffff16146108e7576040517f08c379a00000000000000000000000000000000000000000000000000000000081526004018080602001828103825260318152602001806112c66031913960400191505060405180910390fd5b600061091f600f600087815260200190815260200160002060010154600f600088815260200190815260200160002060020154610a9a565b60000b14610995576040517f08c379a00000000000000000000000000000000000000000000000000000000081526004018080602001828103825260118152602001807f54696d65206973206e6f742076616c696400000000000000000000000000000081525060200191505060405180910390fd5b61099d611292565b60405180604001604052808473ffffffffffffffffffffffffffffffffffffffff1681526020018360ff168152509050600f600086815260200190815260200160002060040160008560ff168152602001908152602001600020819080600181540180825580915050600190039060005260206000200160009091909190915060008201518160000160006101000a81548173ffffffffffffffffffffffffffffffffffffffff021916908373ffffffffffffffffffffffffffffffffffffffff16021790555060208201518160000160146101000a81548160ff021916908360ff16021790555050505050505050565b60005481565b600e5481565b60008083420312610ac157600042830312610ab85760009050610ac6565b60029050610ac6565b600190505b92915050565b60065481565b60015481565b60085481565b600a60009054906101000a900473ffffffffffffffffffffffffffffffffffffffff1673ffffffffffffffffffffffffffffffffffffffff163373ffffffffffffffffffffffffffffffffffffffff1614610b84576040517f08c379a00000000000000000000000000000000000000000000000000000000081526004018080602001828103825260318152602001806112c66031913960400191505060405180910390fd5b83600f60008681526020019081526020016000206000018190555082600f60008681526020019081526020016000206001018190555081600f60008681526020019081526020016000206002018190555080600f600086815260200190815260200160002060030160006101000a81548160ff021916908360ff16021790555050505050565b60055481565b60025481565b600a60009054906101000a900473ffffffffffffffffffffffffffffffffffffffff1681565b60035481565b600a60009054906101000a900473ffffffffffffffffffffffffffffffffffffffff1673ffffffffffffffffffffffffffffffffffffffff163373ffffffffffffffffffffffffffffffffffffffff1614610ce8576040517f08c379a00000000000000000000000000000000000000000000000000000000081526004018080602001828103825260318152602001806112c66031913960400191505060405180910390fd5b8060058190555050565b600a60009054906101000a900473ffffffffffffffffffffffffffffffffffffffff1673ffffffffffffffffffffffffffffffffffffffff163373ffffffffffffffffffffffffffffffffffffffff1614610d98576040517f08c379a00000000000000000000000000000000000000000000000000000000081526004018080602001828103825260318152602001806112c66031913960400191505060405180910390fd5b60008080600090505b600f600085815260200190815260200160002060030160009054906101000a900460ff1660ff168160ff161015610e485782600f600086815260200190815260200160002060040160008360ff168152602001908152602001600020805490501115610e3b57600f600085815260200190815260200160002060040160008260ff1681526020019081526020016000208054905092508091505b8080600101915050610da1565b5080600f600085815260200190815260200160002060050160016101000a81548160ff021916908360ff1602179055506001600f600085815260200190815260200160002060050160006101000a81548160ff0219169083151502179055507fb2ce968840ae229a799f5eaa854b1366708b242855976804bc004892ffe679a58382604051808381526020018260ff1681526020019250505060405180910390a1505050565b600a60009054906101000a900473ffffffffffffffffffffffffffffffffffffffff1673ffffffffffffffffffffffffffffffffffffffff163373ffffffffffffffffffffffffffffffffffffffff1614610f94576040517f08c379a00000000000000000000000000000000000000000000000000000000081526004018080602001828103825260318152602001806112c66031913960400191505060405180910390fd5b80600b8190555050565b60045481565b600a60009054906101000a900473ffffffffffffffffffffffffffffffffffffffff1673ffffffffffffffffffffffffffffffffffffffff163373ffffffffffffffffffffffffffffffffffffffff161461104a576040517f08c379a00000000000000000000000000000000000000000000000000000000081526004018080602001828103825260318152602001806112c66031913960400191505060405180910390fd5b81600281905550806003819055505050565b600b5481565b600a60009054906101000a900473ffffffffffffffffffffffffffffffffffffffff1673ffffffffffffffffffffffffffffffffffffffff163373ffffffffffffffffffffffffffffffffffffffff1614611108576040517f08c379a00000000000000000000000000000000000000000000000000000000081526004018080602001828103825260318152602001806112c66031913960400191505060405180910390fd5b80600d8190555050565b60095481565b600a60009054906101000a900473ffffffffffffffffffffffffffffffffffffffff1673ffffffffffffffffffffffffffffffffffffffff163373ffffffffffffffffffffffffffffffffffffffff16146111be576040517f08c379a00000000000000000000000000000000000000000000000000000000081526004018080602001828103825260318152602001806112c66031913960400191505060405180910390fd5b80600c8190555050565b600c5481565b600a60009054906101000a900473ffffffffffffffffffffffffffffffffffffffff1673ffffffffffffffffffffffffffffffffffffffff163373ffffffffffffffffffffffffffffffffffffffff1614611274576040517f08c379a00000000000000000000000000000000000000000000000000000000081526004018080602001828103825260318152602001806112c66031913960400191505060405180910390fd5b8060098190555050565b6000600b54600e5402905090565b60075481565b6040518060400160405280600073ffffffffffffffffffffffffffffffffffffffff168152602001600060ff168152509056fe546869732066756e6374696f6e20636f756c64206f6e6c7920626520657865637574656420627920746865206f776e6572a2646970667358221220e5bbfa192075d31b9096637989b38f7d4d3b323983e486fa1661f7e1702dceb964736f6c63430007060033",
  "immutableReferences": {},
  "source": "// SPDX-License-Identifier: MIT\npragma solidity >=0.4.22 <0.9.0;\n\nimport {GFStruct} from \"../struct/GFStruct.sol\";\nimport {TimeValidation} from \"../helpers/TimeValidation.sol\";\nimport {ConfigVariables} from \"../config/ConfigVariables.sol\";\n\ncontract GrowthFactorEvents is TimeValidation, ConfigVariables {\n    constructor(){}\n\n    mapping(int256 => GFStruct.EventData) events;\n    event GFIsFinish(int256 _id, uint8 correctAnswer);\n\n    function createEvent(\n        int256 _id,\n        uint256 _startTime,\n        uint256 _endTime,\n        uint8 _questAmount\n    ) public ownerOnly() {\n        events[_id].id = _id;\n        events[_id].startTime = _startTime;\n        events[_id].endTime = _endTime;\n        events[_id].questAmount = _questAmount;\n    } \n\n    function setAnswer(\n        int256 _id,\n        uint8 _whichAnswer,\n        address payable _playerWallet,\n        uint8 _reputation\n    ) public ownerOnly() {\n        require(\n            timeAnswer(events[_id].startTime, events[_id].endTime) == 0,\n            \"Time is not valid\"\n        );\n        GFStruct.Player memory play;\n        play = GFStruct.Player(_playerWallet, _reputation);\n        events[_id].player[_whichAnswer].push(play);\n    }\n\n    function finishEvent(int256 _id) public ownerOnly(){\n        uint256 biggestValue = 0;\n        uint8 correctAnswer;\n\n        // find correct answer\n        for (uint8 i = 0; i < events[_id].questAmount; i++) {\n            if (events[_id].player[i].length > biggestValue) {\n                biggestValue = events[_id].player[i].length;\n                correctAnswer = i;\n            }\n        }\n\n        // add payment for players\n      //  uint256 GFrewards = getGFrewards();\n\n        events[_id].correctAnswer = correctAnswer;\n        events[_id].eventFinish = true;\n        emit GFIsFinish(_id, correctAnswer);\n    }\n    \n\n}    ",
  "sourcePath": "/Users/macbook/Documents/freelance/tokenominc/contracts/events/GrowthFactorEvents.sol",
  "compiler": {
    "name": "solc",
    "version": "0.7.6+commit.7338295f.Linux.g++"
  },
  "schemaVersion": "3.2.2",
  "updatedAt": "2021-03-01T18:47:47.500Z",
  "networkType": "ethereum",
  "devdoc": {
    "kind": "dev",
    "methods": {},
    "version": 1
  },
  "userdoc": {
    "kind": "user",
    "methods": {},
    "version": 1
  }
}