{
  "contractName": "GrowthFactorEvents",
  "abi": [
    {
      "inputs": [],
      "stateMutability": "nonpayable",
      "type": "constructor"
    },
    {
      "anonymous": false,
      "inputs": [
        {
          "indexed": false,
          "internalType": "int256",
          "name": "_id",
          "type": "int256"
        },
        {
          "indexed": false,
          "internalType": "uint8",
          "name": "correctAnswer",
          "type": "uint8"
        }
      ],
      "name": "GFIsFinish",
      "type": "event"
    },
    {
      "inputs": [],
      "name": "GFindex",
      "outputs": [
        {
          "internalType": "uint256",
          "name": "",
          "type": "uint256"
        }
      ],
      "stateMutability": "view",
      "type": "function"
    },
    {
      "inputs": [],
      "name": "GFrewards",
      "outputs": [
        {
          "internalType": "uint256",
          "name": "",
          "type": "uint256"
        }
      ],
      "stateMutability": "view",
      "type": "function"
    },
    {
      "inputs": [],
      "name": "advisorPepc",
      "outputs": [
        {
          "internalType": "uint256",
          "name": "",
          "type": "uint256"
        }
      ],
      "stateMutability": "view",
      "type": "function"
    },
    {
      "inputs": [],
      "name": "advisorPercMint",
      "outputs": [
        {
          "internalType": "uint256",
          "name": "",
          "type": "uint256"
        }
      ],
      "stateMutability": "view",
      "type": "function"
    },
    {
      "inputs": [],
      "name": "comMarketFundPerc",
      "outputs": [
        {
          "internalType": "uint256",
          "name": "",
          "type": "uint256"
        }
      ],
      "stateMutability": "view",
      "type": "function"
    },
    {
      "inputs": [],
      "name": "comMarketFundWallet",
      "outputs": [
        {
          "internalType": "address payable",
          "name": "",
          "type": "address"
        }
      ],
      "stateMutability": "view",
      "type": "function"
    },
    {
      "inputs": [],
      "name": "developFundPerc",
      "outputs": [
        {
          "internalType": "uint256",
          "name": "",
          "type": "uint256"
        }
      ],
      "stateMutability": "view",
      "type": "function"
    },
    {
      "inputs": [],
      "name": "developFundPercPremim",
      "outputs": [
        {
          "internalType": "uint256",
          "name": "",
          "type": "uint256"
        }
      ],
      "stateMutability": "view",
      "type": "function"
    },
    {
      "inputs": [],
      "name": "expertExtraPerc",
      "outputs": [
        {
          "internalType": "uint256",
          "name": "",
          "type": "uint256"
        }
      ],
      "stateMutability": "view",
      "type": "function"
    },
    {
      "inputs": [],
      "name": "expertPerc",
      "outputs": [
        {
          "internalType": "uint256",
          "name": "",
          "type": "uint256"
        }
      ],
      "stateMutability": "view",
      "type": "function"
    },
    {
      "inputs": [],
      "name": "expertPercMint",
      "outputs": [
        {
          "internalType": "uint256",
          "name": "",
          "type": "uint256"
        }
      ],
      "stateMutability": "view",
      "type": "function"
    },
    {
      "inputs": [],
      "name": "expertPremiumPerc",
      "outputs": [
        {
          "internalType": "uint256",
          "name": "",
          "type": "uint256"
        }
      ],
      "stateMutability": "view",
      "type": "function"
    },
    {
      "inputs": [],
      "name": "extraHostPerc",
      "outputs": [
        {
          "internalType": "uint256",
          "name": "",
          "type": "uint256"
        }
      ],
      "stateMutability": "view",
      "type": "function"
    },
    {
      "inputs": [],
      "name": "extraHostPercMint",
      "outputs": [
        {
          "internalType": "uint256",
          "name": "",
          "type": "uint256"
        }
      ],
      "stateMutability": "view",
      "type": "function"
    },
    {
      "inputs": [],
      "name": "firstWithdrawIndex",
      "outputs": [
        {
          "internalType": "uint256",
          "name": "",
          "type": "uint256"
        }
      ],
      "stateMutability": "view",
      "type": "function"
    },
    {
      "inputs": [],
      "name": "getFirstWithdraw",
      "outputs": [
        {
          "internalType": "uint256",
          "name": "",
          "type": "uint256"
        }
      ],
      "stateMutability": "view",
      "type": "function"
    },
    {
      "inputs": [],
      "name": "hostPerc",
      "outputs": [
        {
          "internalType": "uint256",
          "name": "",
          "type": "uint256"
        }
      ],
      "stateMutability": "view",
      "type": "function"
    },
    {
      "inputs": [],
      "name": "hostPercMint",
      "outputs": [
        {
          "internalType": "uint256",
          "name": "",
          "type": "uint256"
        }
      ],
      "stateMutability": "view",
      "type": "function"
    },
    {
      "inputs": [],
      "name": "moderatorsFundPerc",
      "outputs": [
        {
          "internalType": "uint256",
          "name": "",
          "type": "uint256"
        }
      ],
      "stateMutability": "view",
      "type": "function"
    },
    {
      "inputs": [],
      "name": "moderatorsFundWallet",
      "outputs": [
        {
          "internalType": "address payable",
          "name": "",
          "type": "address"
        }
      ],
      "stateMutability": "view",
      "type": "function"
    },
    {
      "inputs": [],
      "name": "owner",
      "outputs": [
        {
          "internalType": "address payable",
          "name": "",
          "type": "address"
        }
      ],
      "stateMutability": "view",
      "type": "function"
    },
    {
      "inputs": [],
      "name": "playerPers",
      "outputs": [
        {
          "internalType": "uint256",
          "name": "",
          "type": "uint256"
        }
      ],
      "stateMutability": "view",
      "type": "function"
    },
    {
      "inputs": [
        {
          "internalType": "uint256",
          "name": "_developFundPerc",
          "type": "uint256"
        }
      ],
      "name": "setDevelopFundPerc",
      "outputs": [],
      "stateMutability": "nonpayable",
      "type": "function"
    },
    {
      "inputs": [
        {
          "internalType": "uint256",
          "name": "_expertPerc",
          "type": "uint256"
        }
      ],
      "name": "setExpertPerc",
      "outputs": [],
      "stateMutability": "nonpayable",
      "type": "function"
    },
    {
      "inputs": [
        {
          "internalType": "uint256",
          "name": "_firstWithdrawIndex",
          "type": "uint256"
        }
      ],
      "name": "setFirstWithdraw",
      "outputs": [],
      "stateMutability": "nonpayable",
      "type": "function"
    },
    {
      "inputs": [
        {
          "internalType": "uint256",
          "name": "_GFindex",
          "type": "uint256"
        }
      ],
      "name": "setGFindex",
      "outputs": [],
      "stateMutability": "nonpayable",
      "type": "function"
    },
    {
      "inputs": [
        {
          "internalType": "uint256",
          "name": "_GFrewards",
          "type": "uint256"
        }
      ],
      "name": "setGFrewards",
      "outputs": [],
      "stateMutability": "nonpayable",
      "type": "function"
    },
    {
      "inputs": [
        {
          "internalType": "uint256",
          "name": "_hostPercMint",
          "type": "uint256"
        },
        {
          "internalType": "uint256",
          "name": "_hostPerc",
          "type": "uint256"
        }
      ],
      "name": "setHostPerc",
      "outputs": [],
      "stateMutability": "nonpayable",
      "type": "function"
    },
    {
      "inputs": [
        {
          "internalType": "uint256",
          "name": "_playerPers",
          "type": "uint256"
        }
      ],
      "name": "setPlayerPers",
      "outputs": [],
      "stateMutability": "nonpayable",
      "type": "function"
    },
    {
      "inputs": [
        {
          "internalType": "uint256",
          "name": "_welcomeBTYTokens",
          "type": "uint256"
        }
      ],
      "name": "setWelcomeBTYTokens",
      "outputs": [],
      "stateMutability": "nonpayable",
      "type": "function"
    },
    {
      "inputs": [
        {
          "internalType": "uint256",
          "name": "_startTime",
          "type": "uint256"
        },
        {
          "internalType": "uint256",
          "name": "_endTime",
          "type": "uint256"
        }
      ],
      "name": "timeAnswer",
      "outputs": [
        {
          "internalType": "int8",
          "name": "",
          "type": "int8"
        }
      ],
      "stateMutability": "view",
      "type": "function"
    },
    {
      "inputs": [
        {
          "internalType": "uint256",
          "name": "_endTime",
          "type": "uint256"
        }
      ],
      "name": "timeValidate",
      "outputs": [
        {
          "internalType": "int8",
          "name": "",
          "type": "int8"
        }
      ],
      "stateMutability": "view",
      "type": "function"
    },
    {
      "inputs": [],
      "name": "welcomeBTYTokens",
      "outputs": [
        {
          "internalType": "uint256",
          "name": "",
          "type": "uint256"
        }
      ],
      "stateMutability": "view",
      "type": "function"
    },
    {
      "inputs": [
        {
          "internalType": "int256",
          "name": "_id",
          "type": "int256"
        },
        {
          "internalType": "uint256",
          "name": "_startTime",
          "type": "uint256"
        },
        {
          "internalType": "uint256",
          "name": "_endTime",
          "type": "uint256"
        },
        {
          "internalType": "uint8",
          "name": "_questAmount",
          "type": "uint8"
        }
      ],
      "name": "createEvent",
      "outputs": [],
      "stateMutability": "nonpayable",
      "type": "function"
    },
    {
      "inputs": [
        {
          "internalType": "int256",
          "name": "_id",
          "type": "int256"
        },
        {
          "internalType": "uint8",
          "name": "_whichAnswer",
          "type": "uint8"
        },
        {
          "internalType": "address payable",
          "name": "_playerWallet",
          "type": "address"
        },
        {
          "internalType": "uint8",
          "name": "_reputation",
          "type": "uint8"
        }
      ],
      "name": "setAnswer",
      "outputs": [],
      "stateMutability": "nonpayable",
      "type": "function"
    },
    {
      "inputs": [
        {
          "internalType": "int256",
          "name": "_id",
          "type": "int256"
        }
      ],
      "name": "finishEvent",
      "outputs": [],
      "stateMutability": "nonpayable",
      "type": "function"
    }
  ],
  "bytecode": "0x6080604052600a600055600a600155600a6002556004600355600a60045560046005556002600655600f600755600260085560016009556001600a556001600b55600a600d5568056bc75e2d63100000600e556001600f55678ac7230489e800006010556005601355600260155534801561007957600080fd5b5033601160006101000a81548173ffffffffffffffffffffffffffffffffffffffff021916908373ffffffffffffffffffffffffffffffffffffffff1602179055506114e1806100ca6000396000f3fe608060405234801561001057600080fd5b506004361061021c5760003560e01c80639580de6711610125578063d7a86da7116100ad578063e1755c6a1161007c578063e1755c6a14610762578063e1aea52314610780578063e1dcc409146107ae578063ef99e099146107cc578063f7ec5851146107ea5761021c565b8063d7a86da7146106ca578063dba8fe87146106f8578063dd3c228314610716578063df185817146107445761021c565b8063b1642b50116100f4578063b1642b501461060a578063b44901e814610642578063c12c8c4614610660578063c369085e1461067e578063cd095085146106ac5761021c565b80639580de67146105625780639cb3846014610590578063a03c6697146105be578063af9ace45146105ec5761021c565b806354f6db74116101a857806380d0437a1161017757806380d0437a14610485578063896aa7a4146104d45780638a9dbda7146104f25780638da5cb5b146105105780638fc8bc42146105445761021c565b806354f6db74146103c657806355e8415814610415578063786508c514610433578063802cc34c146104515761021c565b806324beedd3116101ef57806324beedd3146102d0578063279a839b146102ee5780632c316d05146103565780632e63e452146103745780633467f697146103925761021c565b806315cfe4191461022157806319d6b7d81461023f5780631c4083571461026d578063246fe6471461028b575b600080fd5b610229610808565b6040518082815260200191505060405180910390f35b61026b6004803603602081101561025557600080fd5b810190808035906020019092919050505061080e565b005b6102756108be565b6040518082815260200191505060405180910390f35b6102b7600480360360208110156102a157600080fd5b81019080803590602001909291905050506108c4565b604051808260000b815260200191505060405180910390f35b6102d86108e2565b6040518082815260200191505060405180910390f35b6103546004803603608081101561030457600080fd5b8101908080359060200190929190803560ff169060200190929190803573ffffffffffffffffffffffffffffffffffffffff169060200190929190803560ff1690602001909291905050506108e8565b005b61035e610b35565b6040518082815260200191505060405180910390f35b61037c610b3b565b6040518082815260200191505060405180910390f35b61039a610b41565b604051808273ffffffffffffffffffffffffffffffffffffffff16815260200191505060405180910390f35b6103fc600480360360408110156103dc57600080fd5b810190808035906020019092919080359060200190929190505050610b67565b604051808260000b815260200191505060405180910390f35b61041d610b99565b6040518082815260200191505060405180910390f35b61043b610b9f565b6040518082815260200191505060405180910390f35b610459610ba5565b604051808273ffffffffffffffffffffffffffffffffffffffff16815260200191505060405180910390f35b6104d26004803603608081101561049b57600080fd5b81019080803590602001909291908035906020019092919080359060200190929190803560ff169060200190929190505050610bcb565b005b6104dc610cf7565b6040518082815260200191505060405180910390f35b6104fa610cfd565b6040518082815260200191505060405180910390f35b610518610d03565b604051808273ffffffffffffffffffffffffffffffffffffffff16815260200191505060405180910390f35b61054c610d29565b6040518082815260200191505060405180910390f35b61058e6004803603602081101561057857600080fd5b8101908080359060200190929190505050610d2f565b005b6105bc600480360360208110156105a657600080fd5b8101908080359060200190929190505050610ddf565b005b6105ea600480360360208110156105d457600080fd5b8101908080359060200190929190505050610fdb565b005b6105f461108b565b6040518082815260200191505060405180910390f35b6106406004803603604081101561062057600080fd5b810190808035906020019092919080359060200190929190505050611091565b005b61064a611149565b6040518082815260200191505060405180910390f35b61066861114f565b6040518082815260200191505060405180910390f35b6106aa6004803603602081101561069457600080fd5b8101908080359060200190929190505050611155565b005b6106b4611205565b6040518082815260200191505060405180910390f35b6106f6600480360360208110156106e057600080fd5b810190808035906020019092919050505061120b565b005b6107006112bb565b6040518082815260200191505060405180910390f35b6107426004803603602081101561072c57600080fd5b81019080803590602001909291905050506112c1565b005b61074c611371565b6040518082815260200191505060405180910390f35b61076a611377565b6040518082815260200191505060405180910390f35b6107ac6004803603602081101561079657600080fd5b810190808035906020019092919050505061137d565b005b6107b661142d565b6040518082815260200191505060405180910390f35b6107d4611433565b6040518082815260200191505060405180910390f35b6107f2611441565b6040518082815260200191505060405180910390f35b600f5481565b601160009054906101000a900473ffffffffffffffffffffffffffffffffffffffff1673ffffffffffffffffffffffffffffffffffffffff163373ffffffffffffffffffffffffffffffffffffffff16146108b4576040517f08c379a000000000000000000000000000000000000000000000000000000000815260040180806020018281038252603181526020018061147b6031913960400191505060405180910390fd5b8060108190555050565b60005481565b600080824203126108d857600090506108dd565b600190505b919050565b60155481565b601160009054906101000a900473ffffffffffffffffffffffffffffffffffffffff1673ffffffffffffffffffffffffffffffffffffffff163373ffffffffffffffffffffffffffffffffffffffff161461098e576040517f08c379a000000000000000000000000000000000000000000000000000000000815260040180806020018281038252603181526020018061147b6031913960400191505060405180910390fd5b60006109c660166000878152602001908152602001600020600101546016600088815260200190815260200160002060020154610b67565b60000b14610a3c576040517f08c379a00000000000000000000000000000000000000000000000000000000081526004018080602001828103825260118152602001807f54696d65206973206e6f742076616c696400000000000000000000000000000081525060200191505060405180910390fd5b610a44611447565b60405180604001604052808473ffffffffffffffffffffffffffffffffffffffff1681526020018360ff1681525090506016600086815260200190815260200160002060040160008560ff168152602001908152602001600020819080600181540180825580915050600190039060005260206000200160009091909190915060008201518160000160006101000a81548173ffffffffffffffffffffffffffffffffffffffff021916908373ffffffffffffffffffffffffffffffffffffffff16021790555060208201518160000160146101000a81548160ff021916908360ff16021790555050505050505050565b60065481565b60105481565b601460009054906101000a900473ffffffffffffffffffffffffffffffffffffffff1681565b60008083420312610b8e57600042830312610b855760009050610b93565b60029050610b93565b600190505b92915050565b600b5481565b60095481565b601260009054906101000a900473ffffffffffffffffffffffffffffffffffffffff1681565b601160009054906101000a900473ffffffffffffffffffffffffffffffffffffffff1673ffffffffffffffffffffffffffffffffffffffff163373ffffffffffffffffffffffffffffffffffffffff1614610c71576040517f08c379a000000000000000000000000000000000000000000000000000000000815260040180806020018281038252603181526020018061147b6031913960400191505060405180910390fd5b836016600086815260200190815260200160002060000181905550826016600086815260200190815260200160002060010181905550816016600086815260200190815260200160002060020181905550806016600086815260200190815260200160002060030160006101000a81548160ff021916908360ff16021790555050505050565b60055481565b60025481565b601160009054906101000a900473ffffffffffffffffffffffffffffffffffffffff1681565b60035481565b601160009054906101000a900473ffffffffffffffffffffffffffffffffffffffff1673ffffffffffffffffffffffffffffffffffffffff163373ffffffffffffffffffffffffffffffffffffffff1614610dd5576040517f08c379a000000000000000000000000000000000000000000000000000000000815260040180806020018281038252603181526020018061147b6031913960400191505060405180910390fd5b8060058190555050565b601160009054906101000a900473ffffffffffffffffffffffffffffffffffffffff1673ffffffffffffffffffffffffffffffffffffffff163373ffffffffffffffffffffffffffffffffffffffff1614610e85576040517f08c379a000000000000000000000000000000000000000000000000000000000815260040180806020018281038252603181526020018061147b6031913960400191505060405180910390fd5b60008080600090505b6016600085815260200190815260200160002060030160009054906101000a900460ff1660ff168160ff161015610f3557826016600086815260200190815260200160002060040160008360ff168152602001908152602001600020805490501115610f28576016600085815260200190815260200160002060040160008260ff1681526020019081526020016000208054905092508091505b8080600101915050610e8e565b50806016600085815260200190815260200160002060050160016101000a81548160ff021916908360ff16021790555060016016600085815260200190815260200160002060050160006101000a81548160ff0219169083151502179055507fb2ce968840ae229a799f5eaa854b1366708b242855976804bc004892ffe679a58382604051808381526020018260ff1681526020019250505060405180910390a1505050565b601160009054906101000a900473ffffffffffffffffffffffffffffffffffffffff1673ffffffffffffffffffffffffffffffffffffffff163373ffffffffffffffffffffffffffffffffffffffff1614611081576040517f08c379a000000000000000000000000000000000000000000000000000000000815260040180806020018281038252603181526020018061147b6031913960400191505060405180910390fd5b80600d8190555050565b60045481565b601160009054906101000a900473ffffffffffffffffffffffffffffffffffffffff1673ffffffffffffffffffffffffffffffffffffffff163373ffffffffffffffffffffffffffffffffffffffff1614611137576040517f08c379a000000000000000000000000000000000000000000000000000000000815260040180806020018281038252603181526020018061147b6031913960400191505060405180910390fd5b81600281905550806003819055505050565b600d5481565b600a5481565b601160009054906101000a900473ffffffffffffffffffffffffffffffffffffffff1673ffffffffffffffffffffffffffffffffffffffff163373ffffffffffffffffffffffffffffffffffffffff16146111fb576040517f08c379a000000000000000000000000000000000000000000000000000000000815260040180806020018281038252603181526020018061147b6031913960400191505060405180910390fd5b80600f8190555050565b600c5481565b601160009054906101000a900473ffffffffffffffffffffffffffffffffffffffff1673ffffffffffffffffffffffffffffffffffffffff163373ffffffffffffffffffffffffffffffffffffffff16146112b1576040517f08c379a000000000000000000000000000000000000000000000000000000000815260040180806020018281038252603181526020018061147b6031913960400191505060405180910390fd5b80600e8190555050565b60075481565b601160009054906101000a900473ffffffffffffffffffffffffffffffffffffffff1673ffffffffffffffffffffffffffffffffffffffff163373ffffffffffffffffffffffffffffffffffffffff1614611367576040517f08c379a000000000000000000000000000000000000000000000000000000000815260040180806020018281038252603181526020018061147b6031913960400191505060405180910390fd5b8060008190555050565b600e5481565b60135481565b601160009054906101000a900473ffffffffffffffffffffffffffffffffffffffff1673ffffffffffffffffffffffffffffffffffffffff163373ffffffffffffffffffffffffffffffffffffffff1614611423576040517f08c379a000000000000000000000000000000000000000000000000000000000815260040180806020018281038252603181526020018061147b6031913960400191505060405180910390fd5b80600c8190555050565b60015481565b6000600d5460105402905090565b60085481565b6040518060400160405280600073ffffffffffffffffffffffffffffffffffffffff168152602001600060ff168152509056fe546869732066756e6374696f6e20636f756c64206f6e6c7920626520657865637574656420627920746865206f776e6572a26469706673582212207526811fc835eef031ff84ada7b49b2c3477852d4cf2471ae8dfe7cfd4cb50df64736f6c63430007060033",
  "immutableReferences": {},
  "source": "// SPDX-License-Identifier: MIT\npragma solidity >=0.4.22 <0.9.0;\n\nimport {GFStruct} from \"../struct/GFStruct.sol\";\nimport {TimeValidation} from \"../helpers/TimeValidation.sol\";\nimport {ConfigVariables} from \"../config/ConfigVariables.sol\";\n\ncontract GrowthFactorEvents is TimeValidation, ConfigVariables {\n    constructor(){}\n\n    mapping(int256 => GFStruct.EventData) events;\n    event GFIsFinish(int256 _id, uint8 correctAnswer);\n\n    function createEvent(\n        int256 _id,\n        uint256 _startTime,\n        uint256 _endTime,\n        uint8 _questAmount\n    ) public ownerOnly() {\n        events[_id].id = _id;\n        events[_id].startTime = _startTime;\n        events[_id].endTime = _endTime;\n        events[_id].questAmount = _questAmount;\n    } \n\n    function setAnswer(\n        int256 _id,\n        uint8 _whichAnswer,\n        address payable _playerWallet,\n        uint8 _reputation\n    ) public ownerOnly() {\n        require(\n            timeAnswer(events[_id].startTime, events[_id].endTime) == 0,\n            \"Time is not valid\"\n        );\n        GFStruct.Player memory play;\n        play = GFStruct.Player(_playerWallet, _reputation);\n        events[_id].player[_whichAnswer].push(play);\n    }\n\n    function finishEvent(int256 _id) public ownerOnly(){\n        uint256 biggestValue = 0;\n        uint8 correctAnswer;\n\n        // find correct answer\n        for (uint8 i = 0; i < events[_id].questAmount; i++) {\n            if (events[_id].player[i].length > biggestValue) {\n                biggestValue = events[_id].player[i].length;\n                correctAnswer = i;\n            }\n        }\n\n        // add payment for players\n      //  uint256 GFrewards = getGFrewards();\n\n        events[_id].correctAnswer = correctAnswer;\n        events[_id].eventFinish = true;\n        emit GFIsFinish(_id, correctAnswer);\n    }\n    \n\n}    ",
  "sourcePath": "/Users/macbook/Documents/freelance/tokenominc/contracts/events/GrowthFactorEvents.sol",
  "compiler": {
    "name": "solc",
    "version": "0.7.6+commit.7338295f.Linux.g++"
  },
  "schemaVersion": "3.2.2",
  "updatedAt": "2021-03-05T14:04:08.098Z",
  "devdoc": {
    "kind": "dev",
    "methods": {},
    "version": 1
  },
  "userdoc": {
    "kind": "user",
    "methods": {},
    "version": 1
  }
}