{
  "contractName": "Libs",
  "abi": [
    {
      "inputs": [
        {
          "internalType": "uint256",
          "name": "",
          "type": "uint256"
        }
      ],
      "name": "sortedArray",
      "outputs": [
        {
          "internalType": "uint256",
          "name": "",
          "type": "uint256"
        }
      ],
      "stateMutability": "view",
      "type": "function"
    },
    {
      "inputs": [
        {
          "internalType": "uint256",
          "name": "players",
          "type": "uint256"
        }
      ],
      "name": "calculateExpertAmount",
      "outputs": [
        {
          "internalType": "uint256",
          "name": "",
          "type": "uint256"
        }
      ],
      "stateMutability": "pure",
      "type": "function"
    },
    {
      "inputs": [
        {
          "internalType": "uint256",
          "name": "_percent",
          "type": "uint256"
        },
        {
          "internalType": "uint256",
          "name": "_from",
          "type": "uint256"
        }
      ],
      "name": "getPersent",
      "outputs": [
        {
          "internalType": "uint256",
          "name": "",
          "type": "uint256"
        }
      ],
      "stateMutability": "pure",
      "type": "function"
    },
    {
      "inputs": [
        {
          "internalType": "uint256[]",
          "name": "_data",
          "type": "uint256[]"
        }
      ],
      "name": "setSort",
      "outputs": [],
      "stateMutability": "nonpayable",
      "type": "function"
    },
    {
      "inputs": [],
      "name": "sort",
      "outputs": [],
      "stateMutability": "nonpayable",
      "type": "function"
    }
  ],
  "bytecode": "0x608060405234801561001057600080fd5b5061059c806100206000396000f3fe608060405234801561001057600080fd5b50600436106100575760003560e01c80632aad63d11461005c5780633b97b5d61461009e5780638cdc86a614610156578063e2d914f214610160578063e7872183146101a2575b600080fd5b6100886004803603602081101561007257600080fd5b81019080803590602001909291905050506101ee565b6040518082815260200191505060405180910390f35b610154600480360360208110156100b457600080fd5b81019080803590602001906401000000008111156100d157600080fd5b8201836020820111156100e357600080fd5b8035906020019184602083028401116401000000008311171561010557600080fd5b919080806020026020016040519081016040528093929190818152602001838360200280828437600081840152601f19601f820116905080830192505050505050509192919290505050610332565b005b61015e61034c565b005b61018c6004803603602081101561017657600080fd5b8101908080359060200190929190505050610375565b6040518082815260200191505060405180910390f35b6101d8600480360360408110156101b857600080fd5b810190808035906020019092919080359060200190929190505050610399565b6040518082815260200191505060405180910390f35b600060028211610201576001905061032d565b600382101580156102135750600b8211155b15610221576003905061032d565b600c82101580156102335750601e8211155b15610241576005905061032d565b601f8210158015610253575060388211155b15610261576007905061032d565b603982101580156102735750605b8211155b15610281576009905061032d565b605c8210158015610293575060858211155b156102a157600b905061032d565b608682101580156102b4575061012c8211155b156102c257600f905061032d565b61012d82101580156102d657506101f48211155b156102e4576017905061032d565b6101f582101580156102f857506103e88211155b15610306576021905061032d565b6103e9821015801561031a57506113888211155b15610328576046905061032d565b606490505b919050565b80600090805190602001906103489291906104fc565b5050565b60008080549050141561035e57610373565b6103726000806001600080549050036103b0565b5b565b6000818154811061038557600080fd5b906000526020600020016000915090505481565b60006064838302816103a757fe5b04905092915050565b600082905060008290506000856002868603816103c957fe5b048601815481106103d657fe5b906000526020600020015490505b8183116104cc575b808684815481106103f957fe5b906000526020600020015410156104175782806001019350506103ec565b5b85828154811061042457fe5b906000526020600020015481101561044457818060019003925050610418565b8183116104c75785828154811061045757fe5b906000526020600020015486848154811061046e57fe5b906000526020600020015487858154811061048557fe5b90600052602060002001600089868154811061049d57fe5b90600052602060002001600084919050558391905055505082806001019350508180600190039250505b6103e4565b818510156104e0576104df8686846103b0565b5b838310156104f4576104f38684866103b0565b5b505050505050565b828054828255906000526020600020908101928215610538579160200282015b8281111561053757825182559160200191906001019061051c565b5b5090506105459190610549565b5090565b5b8082111561056257600081600090555060010161054a565b509056fea2646970667358221220e257d2395bfcb956fbab6ad8dca3d74d77ea10505d581a3ca16d8d1eba155e8864736f6c63430007060033",
  "immutableReferences": {},
  "source": "// SPDX-License-Identifier: MIT\npragma solidity >=0.4.22 <0.9.0;\n\ncontract Libs {\n    uint256[] public sortedArray;\n\n    function calculateExpertAmount(uint256 players)\n        public\n        pure\n        returns (uint256)\n    {\n        // TODO rewrite to formula\n        if (players <= 2) {\n            return 1;\n        } else if (players >= 3 && players <= 11) {\n            return 3;\n        } else if (players >= 12 && players <= 30) {\n            return 5;\n        } else if (players >= 31 && players <= 56) {\n            return 7;\n        } else if (players >= 57 && players <= 91) {\n            return 9;\n        } else if (players >= 92 && players <= 133) {\n            return 11;\n        } else if (players >= 134 && players <= 300) {\n            return 15;\n        } else if (players >= 301 && players <= 500) {\n            return 23;\n        } else if (players >= 501 && players <= 1000) {\n            return 33;\n        } else if (players >= 1001 && players <= 5000) {\n            return 70;\n        } else {\n            return 100;\n        }\n    }\n\n    function getPersent(uint256 _percent, uint256 _from)\n        public\n        pure\n        returns (uint256)\n    {\n        return (_from * _percent) / 100;\n    }\n\n    function setSort(uint256[] memory _data) public {\n        sortedArray = _data;\n    }\n\n    function sort() public {\n        if (sortedArray.length == 0) return;\n        quickSort(sortedArray, 0, sortedArray.length - 1);\n    }\n\n    function quickSort(\n        uint256[] storage arr,\n        uint256 left,\n        uint256 right\n    ) internal {\n        uint256 i = left;\n        uint256 j = right;\n        uint256 pivot = arr[left + (right - left) / 2];\n        while (i <= j) {\n            while (arr[i] < pivot) i++;\n            while (pivot < arr[j]) j--;\n            if (i <= j) {\n                (arr[i], arr[j]) = (arr[j], arr[i]);\n                i++;\n                j--;\n            }\n        }\n        if (left < j) quickSort(arr, left, j);\n\n        if (i < right) quickSort(arr, i, right);\n    }\n}\n",
  "sourcePath": "/Users/macbook/Documents/freelance/tokenominc/contracts/helpers/Libs.sol",
  "compiler": {
    "name": "solc",
    "version": "0.7.6+commit.7338295f.Linux.g++"
  },
  "schemaVersion": "3.2.2",
  "updatedAt": "2021-02-23T12:00:59.043Z",
  "devdoc": {
    "kind": "dev",
    "methods": {},
    "version": 1
  },
  "userdoc": {
    "kind": "user",
    "methods": {},
    "version": 1
  }
}