{
  "contractName": "Libs",
  "abi": [
    {
      "inputs": [
        {
          "internalType": "uint256",
          "name": "_percent",
          "type": "uint256"
        },
        {
          "internalType": "uint256",
          "name": "_from",
          "type": "uint256"
        }
      ],
      "name": "getPercent",
      "outputs": [
        {
          "internalType": "uint256",
          "name": "",
          "type": "uint256"
        }
      ],
      "stateMutability": "pure",
      "type": "function"
    },
    {
      "inputs": [
        {
          "internalType": "uint256",
          "name": "_activePlayers",
          "type": "uint256"
        },
        {
          "internalType": "uint256",
          "name": "_pool",
          "type": "uint256"
        },
        {
          "internalType": "uint256",
          "name": "_GFindex",
          "type": "uint256"
        }
      ],
      "name": "calcMintedTokens",
      "outputs": [
        {
          "internalType": "uint256",
          "name": "",
          "type": "uint256"
        }
      ],
      "stateMutability": "pure",
      "type": "function"
    }
  ],
  "bytecode": "0x608060405234801561001057600080fd5b50610171806100206000396000f3fe608060405234801561001057600080fd5b50600436106100365760003560e01c8063622198661461003b578063aaa3091e14610087575b600080fd5b6100716004803603604081101561005157600080fd5b8101908080359060200190929190803590602001909291905050506100dd565b6040518082815260200191505060405180910390f35b6100c76004803603606081101561009d57600080fd5b810190808035906020019092919080359060200190929190803590602001909291905050506100f4565b6040518082815260200191505060405180910390f35b60006064838302816100eb57fe5b04905092915050565b6000806064856064038161010457fe5b049050600085858161011257fe5b0490506064670de0b6b3a764000085848985020202028161012f57fe5b0492505050939250505056fea26469706673582212209fc35f3bb52ed11632607d47ee824c38fb0f6275bec7c7a85d88ff5300dc032764736f6c63430007060033",
  "immutableReferences": {},
  "source": "// SPDX-License-Identifier: MIT\npragma solidity >=0.4.22 <0.9.0;\n\ncontract Libs {\n    function getPercent(uint256 _percent, uint256 _from)\n        public\n        pure\n        returns (uint256)\n    {\n        return (_from * _percent) / 100;\n    }\n\n    function calcMintedTokens(\n        uint256 _activePlayers,\n        uint256 _pool,\n        uint256 _GFindex\n    ) public pure returns (uint256) {\n        uint256 controversy = (100 - _activePlayers) / 100;\n        uint256 averageBet = _pool / _activePlayers;\n        return\n            ((averageBet * _activePlayers * controversy * _GFindex) *\n                1000000000000000000) / 100;\n    }\n}\n",
  "sourcePath": "/Users/macbook/Documents/freelance/tokenominc/contracts/events/PublicEvents/Libs.sol",
  "compiler": {
    "name": "solc",
    "version": "0.7.6+commit.7338295f.Linux.g++"
  },
  "schemaVersion": "3.2.2",
  "updatedAt": "2021-03-09T14:57:39.528Z",
  "devdoc": {
    "kind": "dev",
    "methods": {},
    "version": 1
  },
  "userdoc": {
    "kind": "user",
    "methods": {},
    "version": 1
  }
}