{
  "contractName": "Libs",
  "abi": [
    {
      "inputs": [
        {
          "internalType": "uint256",
          "name": "",
          "type": "uint256"
        }
      ],
      "name": "sortedArray",
      "outputs": [
        {
          "internalType": "uint256",
          "name": "",
          "type": "uint256"
        }
      ],
      "stateMutability": "view",
      "type": "function"
    },
    {
      "inputs": [
        {
          "internalType": "uint256",
          "name": "_percent",
          "type": "uint256"
        },
        {
          "internalType": "uint256",
          "name": "_from",
          "type": "uint256"
        }
      ],
      "name": "getPersent",
      "outputs": [
        {
          "internalType": "uint256",
          "name": "",
          "type": "uint256"
        }
      ],
      "stateMutability": "pure",
      "type": "function"
    },
    {
      "inputs": [
        {
          "internalType": "uint256[]",
          "name": "_data",
          "type": "uint256[]"
        }
      ],
      "name": "setSort",
      "outputs": [],
      "stateMutability": "nonpayable",
      "type": "function"
    },
    {
      "inputs": [],
      "name": "sort",
      "outputs": [],
      "stateMutability": "nonpayable",
      "type": "function"
    }
  ],
  "bytecode": "0x608060405234801561001057600080fd5b5061040b806100206000396000f3fe608060405234801561001057600080fd5b506004361061004c5760003560e01c80633b97b5d6146100515780638cdc86a614610109578063e2d914f214610113578063e787218314610155575b600080fd5b6101076004803603602081101561006757600080fd5b810190808035906020019064010000000081111561008457600080fd5b82018360208201111561009657600080fd5b803590602001918460208302840111640100000000831117156100b857600080fd5b919080806020026020016040519081016040528093929190818152602001838360200280828437600081840152601f19601f8201169050808301925050505050505091929192905050506101a1565b005b6101116101bb565b005b61013f6004803603602081101561012957600080fd5b81019080803590602001909291905050506101e4565b6040518082815260200191505060405180910390f35b61018b6004803603604081101561016b57600080fd5b810190808035906020019092919080359060200190929190505050610208565b6040518082815260200191505060405180910390f35b80600090805190602001906101b792919061036b565b5050565b6000808054905014156101cd576101e2565b6101e160008060016000805490500361021f565b5b565b600081815481106101f457600080fd5b906000526020600020016000915090505481565b600060648383028161021657fe5b04905092915050565b6000829050600082905060008560028686038161023857fe5b0486018154811061024557fe5b906000526020600020015490505b81831161033b575b8086848154811061026857fe5b9060005260206000200154101561028657828060010193505061025b565b5b85828154811061029357fe5b90600052602060002001548110156102b357818060019003925050610287565b818311610336578582815481106102c657fe5b90600052602060002001548684815481106102dd57fe5b90600052602060002001548785815481106102f457fe5b90600052602060002001600089868154811061030c57fe5b90600052602060002001600084919050558391905055505082806001019350508180600190039250505b610253565b8185101561034f5761034e86868461021f565b5b838310156103635761036286848661021f565b5b505050505050565b8280548282559060005260206000209081019282156103a7579160200282015b828111156103a657825182559160200191906001019061038b565b5b5090506103b491906103b8565b5090565b5b808211156103d15760008160009055506001016103b9565b509056fea26469706673582212205ceb90bda0d508811729ff548070848625bd13767eb575c3d197da145cfb096c64736f6c63430007060033",
  "immutableReferences": {},
  "source": "// SPDX-License-Identifier: MIT\npragma solidity >=0.4.22 <0.9.0;\n\ncontract Libs {\n    uint256[] public sortedArray;\n\n    function getPersent(uint256 _percent, uint256 _from)\n        public\n        pure\n        returns (uint256)\n    {\n        return (_from * _percent) / 100;\n    }\n\n    function setSort(uint256[] memory _data) public {\n        sortedArray = _data;\n    }\n\n    function sort() public {\n        if (sortedArray.length == 0) return;\n        quickSort(sortedArray, 0, sortedArray.length - 1);\n    }\n\n    function quickSort(\n        uint256[] storage arr,\n        uint256 left,\n        uint256 right\n    ) internal {\n        uint256 i = left;\n        uint256 j = right;\n        uint256 pivot = arr[left + (right - left) / 2];\n        while (i <= j) {\n            while (arr[i] < pivot) i++;\n            while (pivot < arr[j]) j--;\n            if (i <= j) {\n                (arr[i], arr[j]) = (arr[j], arr[i]);\n                i++;\n                j--;\n            }\n        }\n        if (left < j) quickSort(arr, left, j);\n\n        if (i < right) quickSort(arr, i, right);\n    }\n}\n",
  "sourcePath": "/Users/macbook/Documents/freelance/tokenominc/contracts/events/PublicEvents/Libs.sol",
  "compiler": {
    "name": "solc",
    "version": "0.7.6+commit.7338295f.Linux.g++"
  },
  "schemaVersion": "3.2.2",
  "updatedAt": "2021-03-01T13:44:40.706Z",
  "devdoc": {
    "kind": "dev",
    "methods": {},
    "version": 1
  },
  "userdoc": {
    "kind": "user",
    "methods": {},
    "version": 1
  }
}