{
  "contractName": "Libs",
  "abi": [
    {
      "inputs": [
        {
          "internalType": "uint256",
          "name": "_percent",
          "type": "uint256"
        },
        {
          "internalType": "uint256",
          "name": "_from",
          "type": "uint256"
        }
      ],
      "name": "getPercent",
      "outputs": [
        {
          "internalType": "uint256",
          "name": "",
          "type": "uint256"
        }
      ],
      "stateMutability": "pure",
      "type": "function"
    },
    {
      "inputs": [
        {
          "internalType": "uint256",
          "name": "_GFindex",
          "type": "uint256"
        },
        {
          "internalType": "int256",
          "name": "_id",
          "type": "int256"
        },
        {
          "internalType": "contract PubStruct",
          "name": "eventsData",
          "type": "address"
        }
      ],
      "name": "calcMintedTokens",
      "outputs": [
        {
          "internalType": "uint256",
          "name": "",
          "type": "uint256"
        }
      ],
      "stateMutability": "view",
      "type": "function"
    }
  ],
  "bytecode": "0x608060405234801561001057600080fd5b50610541806100206000396000f3fe608060405234801561001057600080fd5b50600436106100365760003560e01c8063622198661461003b578063de6eb43914610087575b600080fd5b6100716004803603604081101561005157600080fd5b8101908080359060200190929190803590602001909291905050506100f3565b6040518082815260200191505060405180910390f35b6100dd6004803603606081101561009d57600080fd5b810190808035906020019092919080359060200190929190803573ffffffffffffffffffffffffffffffffffffffff16906020019092919050505061010a565b6040518082815260200191505060405180910390f35b600060648284028161010157fe5b04905092915050565b600080600090506000805b8473ffffffffffffffffffffffffffffffffffffffff1663a96c2aea876040518263ffffffff1660e01b81526004018082815260200191505060206040518083038186803b15801561016657600080fd5b505afa15801561017a573d6000803e3d6000fd5b505050506040513d602081101561019057600080fd5b810190808051906020019092919050505081101561038e57828573ffffffffffffffffffffffffffffffffffffffff166371aee94588846040518363ffffffff1660e01b8152600401808381526020018281526020019250505060206040518083038186803b15801561020257600080fd5b505afa158015610216573d6000803e3d6000fd5b505050506040513d602081101561022c57600080fd5b810190808051906020019092919050505011156102e1578291508473ffffffffffffffffffffffffffffffffffffffff166371aee94587836040518363ffffffff1660e01b8152600401808381526020018281526020019250505060206040518083038186803b15801561029f57600080fd5b505afa1580156102b3573d6000803e3d6000fd5b505050506040513d60208110156102c957600080fd5b81019080805190602001909291905050509250610381565b818573ffffffffffffffffffffffffffffffffffffffff166371aee94588846040518363ffffffff1660e01b8152600401808381526020018281526020019250505060206040518083038186803b15801561033b57600080fd5b505afa15801561034f573d6000803e3d6000fd5b505050506040513d602081101561036557600080fd5b81019080805190602001909291905050501115610380578291505b5b8080600101915050610115565b5060008473ffffffffffffffffffffffffffffffffffffffff1663f946c207876040518263ffffffff1660e01b81526004018082815260200191505060206040518083038186803b1580156103e257600080fd5b505afa1580156103f6573d6000803e3d6000fd5b505050506040513d602081101561040c57600080fd5b81019080805190602001909291905050509050600061042b83836104f4565b61043585846104f4565b6064030190506000828773ffffffffffffffffffffffffffffffffffffffff166330286c378a6040518263ffffffff1660e01b81526004018082815260200191505060206040518083038186803b15801561048f57600080fd5b505afa1580156104a3573d6000803e3d6000fd5b505050506040513d60208110156104b957600080fd5b8101908080519060200190929190505050816104d157fe5b04905061271089838584020202816104e557fe5b04955050505050509392505050565b600081606484028161050257fe5b0490509291505056fea2646970667358221220f787d9257380ac71c4d06245add7c9dfe1bccea5e322f3b974eb13b1b43a34ed64736f6c63430007060033",
  "immutableReferences": {},
  "source": "// SPDX-License-Identifier: MIT\npragma solidity >=0.4.22 <0.9.0;\n\nimport {PubStruct} from \"../../struct/PubStruct.sol\";\n\ncontract Libs {\n    function getPercent(uint _percent, uint _from)\n        public\n        pure\n        returns (uint)\n    {\n        return (_percent * _from) / 100;\n    }\n\n    function calcPercent(uint number, uint from) private pure returns (uint){\n        return number * 100 / from; \n    }\n\n    function calcMintedTokens(\n        uint _GFindex,\n        int _id,\n        PubStruct eventsData\n    ) public view returns (uint) {\n        uint bigValue = 0; \n        uint bigValue2 = 0;\n\n        for (uint i = 0; i < eventsData.getQuestAmount(_id); i++) {\n            if (eventsData.getPlayerAmount(_id, i) > bigValue) {\n                bigValue2 = bigValue;\n                bigValue = eventsData.getPlayerAmount(_id, i);\n            } else if (eventsData.getPlayerAmount(_id, i) > bigValue2) {\n                bigValue2 = bigValue;\n            }\n        }\n        uint activPlay =  eventsData.getActivePlayers(_id);\n        uint controversy = (100 - calcPercent(bigValue, activPlay) + calcPercent(bigValue2, activPlay));\n        uint averageBet = eventsData.getPool(_id) / activPlay; \n        return (averageBet * activPlay * controversy * _GFindex) / 10000;\n    }\n}\n",
  "sourcePath": "/Users/macbook/Documents/freelance/tokenominc/contracts/matic/events/PublicEvents/Libs.sol",
  "compiler": {
    "name": "solc",
    "version": "0.7.6+commit.7338295f.Linux.g++"
  },
  "schemaVersion": "3.3.4",
  "updatedAt": "2021-03-22T15:08:23.570Z",
  "devdoc": {
    "kind": "dev",
    "methods": {},
    "version": 1
  },
  "userdoc": {
    "kind": "user",
    "methods": {},
    "version": 1
  }
}