{
  "contractName": "MiddlePayment",
  "abi": [
    {
      "inputs": [
        {
          "internalType": "contract PublicEvents",
          "name": "_addr",
          "type": "address"
        }
      ],
      "stateMutability": "nonpayable",
      "type": "constructor"
    },
    {
      "anonymous": false,
      "inputs": [
        {
          "indexed": false,
          "internalType": "int256",
          "name": "id",
          "type": "int256"
        },
        {
          "indexed": false,
          "internalType": "uint256",
          "name": "tokens",
          "type": "uint256"
        },
        {
          "indexed": false,
          "internalType": "uint256",
          "name": "correctAnswer",
          "type": "uint256"
        }
      ],
      "name": "payToCompanies",
      "type": "event"
    },
    {
      "anonymous": false,
      "inputs": [
        {
          "indexed": false,
          "internalType": "int256",
          "name": "id",
          "type": "int256"
        },
        {
          "indexed": false,
          "internalType": "uint256",
          "name": "mintHost",
          "type": "uint256"
        },
        {
          "indexed": false,
          "internalType": "uint256",
          "name": "payHost",
          "type": "uint256"
        },
        {
          "indexed": false,
          "internalType": "uint256",
          "name": "mintAdv",
          "type": "uint256"
        },
        {
          "indexed": false,
          "internalType": "uint256",
          "name": "payAdv",
          "type": "uint256"
        }
      ],
      "name": "payToExperts",
      "type": "event"
    },
    {
      "anonymous": false,
      "inputs": [
        {
          "indexed": false,
          "internalType": "int256",
          "name": "id",
          "type": "int256"
        },
        {
          "indexed": false,
          "internalType": "uint256",
          "name": "premDF",
          "type": "uint256"
        },
        {
          "indexed": false,
          "internalType": "uint256",
          "name": "mintDF",
          "type": "uint256"
        },
        {
          "indexed": false,
          "internalType": "uint256",
          "name": "mintCMF",
          "type": "uint256"
        },
        {
          "indexed": false,
          "internalType": "uint256",
          "name": "mintMF",
          "type": "uint256"
        }
      ],
      "name": "payToHost",
      "type": "event"
    },
    {
      "anonymous": false,
      "inputs": [
        {
          "indexed": false,
          "internalType": "int256",
          "name": "id",
          "type": "int256"
        }
      ],
      "name": "payToPlayers",
      "type": "event"
    },
    {
      "anonymous": false,
      "inputs": [
        {
          "indexed": false,
          "internalType": "int256",
          "name": "id",
          "type": "int256"
        },
        {
          "indexed": false,
          "internalType": "string",
          "name": "purpose",
          "type": "string"
        }
      ],
      "name": "revertedEvent",
      "type": "event"
    },
    {
      "inputs": [],
      "name": "GFindex",
      "outputs": [
        {
          "internalType": "uint256",
          "name": "",
          "type": "uint256"
        }
      ],
      "stateMutability": "view",
      "type": "function"
    },
    {
      "inputs": [
        {
          "internalType": "int256",
          "name": "",
          "type": "int256"
        }
      ],
      "name": "MPData",
      "outputs": [
        {
          "internalType": "int256",
          "name": "id",
          "type": "int256"
        },
        {
          "internalType": "uint256",
          "name": "correctAnswer",
          "type": "uint256"
        },
        {
          "internalType": "uint256",
          "name": "loserPool",
          "type": "uint256"
        },
        {
          "internalType": "uint256",
          "name": "tokenMinted",
          "type": "uint256"
        },
        {
          "internalType": "bool",
          "name": "reverted",
          "type": "bool"
        },
        {
          "internalType": "bool",
          "name": "eventFinish",
          "type": "bool"
        }
      ],
      "stateMutability": "view",
      "type": "function"
    },
    {
      "inputs": [],
      "name": "advisorPepc",
      "outputs": [
        {
          "internalType": "uint256",
          "name": "",
          "type": "uint256"
        }
      ],
      "stateMutability": "view",
      "type": "function"
    },
    {
      "inputs": [],
      "name": "advisorPercMint",
      "outputs": [
        {
          "internalType": "uint256",
          "name": "",
          "type": "uint256"
        }
      ],
      "stateMutability": "view",
      "type": "function"
    },
    {
      "inputs": [
        {
          "internalType": "uint256",
          "name": "_GFindex",
          "type": "uint256"
        },
        {
          "internalType": "int256",
          "name": "_id",
          "type": "int256"
        },
        {
          "internalType": "contract PubStruct",
          "name": "eventsData",
          "type": "address"
        }
      ],
      "name": "calcMintedTokens",
      "outputs": [
        {
          "internalType": "uint256",
          "name": "",
          "type": "uint256"
        }
      ],
      "stateMutability": "view",
      "type": "function"
    },
    {
      "inputs": [
        {
          "internalType": "int256",
          "name": "_id",
          "type": "int256"
        }
      ],
      "name": "checkEventFinish",
      "outputs": [
        {
          "internalType": "bool",
          "name": "",
          "type": "bool"
        }
      ],
      "stateMutability": "view",
      "type": "function"
    },
    {
      "inputs": [
        {
          "internalType": "int256",
          "name": "_id",
          "type": "int256"
        }
      ],
      "name": "checkReverted",
      "outputs": [
        {
          "internalType": "bool",
          "name": "",
          "type": "bool"
        }
      ],
      "stateMutability": "view",
      "type": "function"
    },
    {
      "inputs": [],
      "name": "comMarketFundPerc",
      "outputs": [
        {
          "internalType": "uint256",
          "name": "",
          "type": "uint256"
        }
      ],
      "stateMutability": "view",
      "type": "function"
    },
    {
      "inputs": [],
      "name": "comMarketFundWallet",
      "outputs": [
        {
          "internalType": "address payable",
          "name": "",
          "type": "address"
        }
      ],
      "stateMutability": "view",
      "type": "function"
    },
    {
      "inputs": [],
      "name": "developFundPerc",
      "outputs": [
        {
          "internalType": "uint256",
          "name": "",
          "type": "uint256"
        }
      ],
      "stateMutability": "view",
      "type": "function"
    },
    {
      "inputs": [],
      "name": "developFundPercPremim",
      "outputs": [
        {
          "internalType": "uint256",
          "name": "",
          "type": "uint256"
        }
      ],
      "stateMutability": "view",
      "type": "function"
    },
    {
      "inputs": [],
      "name": "expertExtraPerc",
      "outputs": [
        {
          "internalType": "uint256",
          "name": "",
          "type": "uint256"
        }
      ],
      "stateMutability": "view",
      "type": "function"
    },
    {
      "inputs": [],
      "name": "expertPerc",
      "outputs": [
        {
          "internalType": "uint256",
          "name": "",
          "type": "uint256"
        }
      ],
      "stateMutability": "view",
      "type": "function"
    },
    {
      "inputs": [],
      "name": "expertPercMint",
      "outputs": [
        {
          "internalType": "uint256",
          "name": "",
          "type": "uint256"
        }
      ],
      "stateMutability": "view",
      "type": "function"
    },
    {
      "inputs": [],
      "name": "expertPremiumPerc",
      "outputs": [
        {
          "internalType": "uint256",
          "name": "",
          "type": "uint256"
        }
      ],
      "stateMutability": "view",
      "type": "function"
    },
    {
      "inputs": [],
      "name": "extraHostPerc",
      "outputs": [
        {
          "internalType": "uint256",
          "name": "",
          "type": "uint256"
        }
      ],
      "stateMutability": "view",
      "type": "function"
    },
    {
      "inputs": [],
      "name": "extraHostPercMint",
      "outputs": [
        {
          "internalType": "uint256",
          "name": "",
          "type": "uint256"
        }
      ],
      "stateMutability": "view",
      "type": "function"
    },
    {
      "inputs": [
        {
          "internalType": "int256",
          "name": "_id",
          "type": "int256"
        }
      ],
      "name": "getCorrectAnswer",
      "outputs": [
        {
          "internalType": "uint256",
          "name": "",
          "type": "uint256"
        }
      ],
      "stateMutability": "view",
      "type": "function"
    },
    {
      "inputs": [],
      "name": "getGFindex",
      "outputs": [
        {
          "internalType": "uint256",
          "name": "",
          "type": "uint256"
        }
      ],
      "stateMutability": "view",
      "type": "function"
    },
    {
      "inputs": [
        {
          "internalType": "int256",
          "name": "_id",
          "type": "int256"
        }
      ],
      "name": "getLoserPool",
      "outputs": [
        {
          "internalType": "uint256",
          "name": "",
          "type": "uint256"
        }
      ],
      "stateMutability": "view",
      "type": "function"
    },
    {
      "inputs": [
        {
          "internalType": "uint256",
          "name": "_percent",
          "type": "uint256"
        },
        {
          "internalType": "uint256",
          "name": "_from",
          "type": "uint256"
        }
      ],
      "name": "getPercent",
      "outputs": [
        {
          "internalType": "uint256",
          "name": "",
          "type": "uint256"
        }
      ],
      "stateMutability": "pure",
      "type": "function"
    },
    {
      "inputs": [
        {
          "internalType": "int256",
          "name": "_id",
          "type": "int256"
        }
      ],
      "name": "getTokenMinted",
      "outputs": [
        {
          "internalType": "uint256",
          "name": "",
          "type": "uint256"
        }
      ],
      "stateMutability": "view",
      "type": "function"
    },
    {
      "inputs": [],
      "name": "hostPerc",
      "outputs": [
        {
          "internalType": "uint256",
          "name": "",
          "type": "uint256"
        }
      ],
      "stateMutability": "view",
      "type": "function"
    },
    {
      "inputs": [],
      "name": "hostPercMint",
      "outputs": [
        {
          "internalType": "uint256",
          "name": "",
          "type": "uint256"
        }
      ],
      "stateMutability": "view",
      "type": "function"
    },
    {
      "inputs": [],
      "name": "moderatorsFundPerc",
      "outputs": [
        {
          "internalType": "uint256",
          "name": "",
          "type": "uint256"
        }
      ],
      "stateMutability": "view",
      "type": "function"
    },
    {
      "inputs": [],
      "name": "moderatorsFundWallet",
      "outputs": [
        {
          "internalType": "address payable",
          "name": "",
          "type": "address"
        }
      ],
      "stateMutability": "view",
      "type": "function"
    },
    {
      "inputs": [
        {
          "internalType": "address",
          "name": "_peaddr",
          "type": "address"
        },
        {
          "internalType": "address",
          "name": "_ppaddr",
          "type": "address"
        }
      ],
      "name": "setAddresses",
      "outputs": [],
      "stateMutability": "nonpayable",
      "type": "function"
    },
    {
      "inputs": [
        {
          "internalType": "uint256",
          "name": "_adPercMint",
          "type": "uint256"
        },
        {
          "internalType": "uint256",
          "name": "_adPerc",
          "type": "uint256"
        }
      ],
      "name": "setAdvisorPerc",
      "outputs": [],
      "stateMutability": "nonpayable",
      "type": "function"
    },
    {
      "inputs": [
        {
          "internalType": "uint256",
          "name": "_ePercMint",
          "type": "uint256"
        },
        {
          "internalType": "uint256",
          "name": "_ePerc",
          "type": "uint256"
        },
        {
          "internalType": "uint256",
          "name": "_eExtraPerc",
          "type": "uint256"
        },
        {
          "internalType": "uint256",
          "name": "_ePremPerc",
          "type": "uint256"
        }
      ],
      "name": "setExpertPerc",
      "outputs": [],
      "stateMutability": "nonpayable",
      "type": "function"
    },
    {
      "inputs": [
        {
          "internalType": "int256",
          "name": "_id",
          "type": "int256"
        }
      ],
      "name": "setFinishEvent",
      "outputs": [],
      "stateMutability": "nonpayable",
      "type": "function"
    },
    {
      "inputs": [
        {
          "internalType": "uint256",
          "name": "_dFPerc",
          "type": "uint256"
        },
        {
          "internalType": "uint256",
          "name": "_dFPPremim",
          "type": "uint256"
        },
        {
          "internalType": "uint256",
          "name": "_cMFPerc",
          "type": "uint256"
        },
        {
          "internalType": "uint256",
          "name": "_mFPerc",
          "type": "uint256"
        }
      ],
      "name": "setFundPerc",
      "outputs": [],
      "stateMutability": "nonpayable",
      "type": "function"
    },
    {
      "inputs": [
        {
          "internalType": "address payable",
          "name": "_CMFWallet",
          "type": "address"
        },
        {
          "internalType": "address payable",
          "name": "_MFWallet",
          "type": "address"
        }
      ],
      "name": "setFundWallet",
      "outputs": [],
      "stateMutability": "nonpayable",
      "type": "function"
    },
    {
      "inputs": [
        {
          "internalType": "uint256",
          "name": "_GFindex",
          "type": "uint256"
        }
      ],
      "name": "setGFindex",
      "outputs": [],
      "stateMutability": "nonpayable",
      "type": "function"
    },
    {
      "inputs": [
        {
          "internalType": "uint256",
          "name": "_hostPercMint",
          "type": "uint256"
        },
        {
          "internalType": "uint256",
          "name": "_hostPerc",
          "type": "uint256"
        },
        {
          "internalType": "uint256",
          "name": "_eHPerc",
          "type": "uint256"
        },
        {
          "internalType": "uint256",
          "name": "_eHPMint",
          "type": "uint256"
        }
      ],
      "name": "setHostPerc",
      "outputs": [],
      "stateMutability": "nonpayable",
      "type": "function"
    },
    {
      "inputs": [
        {
          "internalType": "int256",
          "name": "_id",
          "type": "int256"
        }
      ],
      "name": "setReverted",
      "outputs": [],
      "stateMutability": "nonpayable",
      "type": "function"
    },
    {
      "inputs": [
        {
          "internalType": "int256",
          "name": "_id",
          "type": "int256"
        }
      ],
      "name": "letsFindCorrectAnswer",
      "outputs": [],
      "stateMutability": "nonpayable",
      "type": "function"
    },
    {
      "inputs": [
        {
          "internalType": "int256",
          "name": "_id",
          "type": "int256"
        },
        {
          "internalType": "string",
          "name": "purpose",
          "type": "string"
        }
      ],
      "name": "revertedPayment",
      "outputs": [],
      "stateMutability": "nonpayable",
      "type": "function"
    },
    {
      "inputs": [
        {
          "internalType": "int256",
          "name": "_id",
          "type": "int256"
        }
      ],
      "name": "letsPayToCompanies",
      "outputs": [],
      "stateMutability": "nonpayable",
      "type": "function"
    },
    {
      "inputs": [
        {
          "internalType": "int256",
          "name": "_id",
          "type": "int256"
        }
      ],
      "name": "letsPaytoHost",
      "outputs": [],
      "stateMutability": "nonpayable",
      "type": "function"
    },
    {
      "inputs": [
        {
          "internalType": "int256",
          "name": "_id",
          "type": "int256"
        }
      ],
      "name": "letsPayToExperts",
      "outputs": [],
      "stateMutability": "nonpayable",
      "type": "function"
    }
  ],
  "bytecode": "0x6080604052600a600355600a600455600580556002600655600a600755600460085560016009556001600a55600a600b556004600c556002600d55600f600e556002600f556001601055606460115534801561005a57600080fd5b50604051620051a9380380620051a98339818101604052602081101561007f57600080fd5b8101908080519060200190929190505050336000806101000a81548173ffffffffffffffffffffffffffffffffffffffff021916908373ffffffffffffffffffffffffffffffffffffffff16021790555033601260006101000a81548173ffffffffffffffffffffffffffffffffffffffff021916908373ffffffffffffffffffffffffffffffffffffffff16021790555080601760006101000a81548173ffffffffffffffffffffffffffffffffffffffff021916908373ffffffffffffffffffffffffffffffffffffffff16021790555080601860006101000a81548173ffffffffffffffffffffffffffffffffffffffff021916908373ffffffffffffffffffffffffffffffffffffffff16021790555080601660006101000a81548173ffffffffffffffffffffffffffffffffffffffff021916908373ffffffffffffffffffffffffffffffffffffffff16021790555050614fc480620001e56000396000f3fe608060405234801561001057600080fd5b50600436106102485760003560e01c80638a571fcc1161013b578063cb95c204116100b8578063e1755c6a1161007c578063e1755c6a14610a1b578063e1dcc40914610a39578063e79f365d14610a57578063f7ec585114610a85578063fab5102c14610aa357610248565b8063cb95c204146108e3578063d343c1dc1461092f578063d70b4bb614610973578063dba8fe8714610991578063de6eb439146109af57610248565b8063af9ace45116100ff578063af9ace45146107ce578063bc26b101146107ec578063bdc905541461082e578063c12c8c4614610897578063c369085e146108b557610248565b80638a571fcc1461069c5780638a9dbda7146107005780638fc8bc421461071e57806390107afe1461073c5780639ec2345a146107a057610248565b80633467f697116101c9578063769c48981161018d578063769c489814610539578063786508c5146105fe578063802cc34c1461061c578063870d945014610650578063896aa7a41461067e57610248565b80633467f6971461040b578063362e41b61461043f57806355e841581461048357806362219866146104a1578063684a3247146104ed57610248565b80631f36c483116102105780631f36c4831461032757806324beedd3146103555780632819bd02146103735780632c316d05146103ab5780632c7d577e146103c957610248565b8063051e9ea71461024d5780630583e6ee1461027b57806305b442ee146102a957806315cfe419146102eb5780631c40835714610309575b600080fd5b6102796004803603602081101561026357600080fd5b8101908080359060200190929190505050610aef565b005b6102a76004803603602081101561029157600080fd5b8101908080359060200190929190505050611b2e565b005b6102d5600480360360208110156102bf57600080fd5b8101908080359060200190929190505050611c23565b6040518082815260200191505060405180910390f35b6102f3611c43565b6040518082815260200191505060405180910390f35b610311611c49565b6040518082815260200191505060405180910390f35b6103536004803603602081101561033d57600080fd5b8101908080359060200190929190505050611c4f565b005b61035d6125cf565b6040518082815260200191505060405180910390f35b6103a96004803603604081101561038957600080fd5b8101908080359060200190929190803590602001909291905050506125d5565b005b6103b36126a8565b6040518082815260200191505060405180910390f35b6103f5600480360360208110156103df57600080fd5b81019080803590602001909291905050506126ae565b6040518082815260200191505060405180910390f35b6104136126ce565b604051808273ffffffffffffffffffffffffffffffffffffffff16815260200191505060405180910390f35b61046b6004803603602081101561045557600080fd5b81019080803590602001909291905050506126f4565b60405180821515815260200191505060405180910390f35b61048b612721565b6040518082815260200191505060405180910390f35b6104d7600480360360408110156104b757600080fd5b810190808035906020019092919080359060200190929190505050612727565b6040518082815260200191505060405180910390f35b6105376004803603608081101561050357600080fd5b810190808035906020019092919080359060200190929190803590602001909291908035906020019092919050505061273e565b005b6105fc6004803603604081101561054f57600080fd5b81019080803590602001909291908035906020019064010000000081111561057657600080fd5b82018360208201111561058857600080fd5b803590602001918460018302840111640100000000831117156105aa57600080fd5b91908080601f016020809104026020016040519081016040528093929190818152602001838380828437600081840152601f19601f820116905080830192505050505050509192919290505050612821565b005b610606612948565b6040518082815260200191505060405180910390f35b61062461294e565b604051808273ffffffffffffffffffffffffffffffffffffffff16815260200191505060405180910390f35b61067c6004803603602081101561066657600080fd5b8101908080359060200190929190505050612974565b005b610686613426565b6040518082815260200191505060405180910390f35b6106fe600480360360408110156106b257600080fd5b81019080803573ffffffffffffffffffffffffffffffffffffffff169060200190929190803573ffffffffffffffffffffffffffffffffffffffff16906020019092919050505061342c565b005b610708613573565b6040518082815260200191505060405180910390f35b610726613579565b6040518082815260200191505060405180910390f35b61079e6004803603604081101561075257600080fd5b81019080803573ffffffffffffffffffffffffffffffffffffffff169060200190929190803573ffffffffffffffffffffffffffffffffffffffff16906020019092919050505061357f565b005b6107cc600480360360208110156107b657600080fd5b81019080803590602001909291905050506136c8565b005b6107d66137bd565b6040518082815260200191505060405180910390f35b6108186004803603602081101561080257600080fd5b81019080803590602001909291905050506137c3565b6040518082815260200191505060405180910390f35b61085a6004803603602081101561084457600080fd5b81019080803590602001909291905050506137e3565b6040518087815260200186815260200185815260200184815260200183151581526020018215158152602001965050505050505060405180910390f35b61089f613839565b6040518082815260200191505060405180910390f35b6108e1600480360360208110156108cb57600080fd5b810190808035906020019092919050505061383f565b005b61092d600480360360808110156108f957600080fd5b810190808035906020019092919080359060200190929190803590602001909291908035906020019092919050505061390a565b005b61095b6004803603602081101561094557600080fd5b81019080803590602001909291905050506139ed565b60405180821515815260200191505060405180910390f35b61097b613a1a565b6040518082815260200191505060405180910390f35b610999613a24565b6040518082815260200191505060405180910390f35b610a05600480360360608110156109c557600080fd5b810190808035906020019092919080359060200190929190803573ffffffffffffffffffffffffffffffffffffffff169060200190929190505050613a2a565b6040518082815260200191505060405180910390f35b610a23613e87565b6040518082815260200191505060405180910390f35b610a41613e8d565b6040518082815260200191505060405180910390f35b610a8360048036036020811015610a6d57600080fd5b8101908080359060200190929190505050613e93565b005b610a8d6143bf565b6040518082815260200191505060405180910390f35b610aed60048036036080811015610ab957600080fd5b81019080803590602001909291908035906020019092919080359060200190929190803590602001909291905050506143c5565b005b60008054906101000a900473ffffffffffffffffffffffffffffffffffffffff1673ffffffffffffffffffffffffffffffffffffffff163373ffffffffffffffffffffffffffffffffffffffff1614610bb0576040517f08c379a000000000000000000000000000000000000000000000000000000000815260040180806020018281038252600a8152602001807f6f776e6572206f6e6c790000000000000000000000000000000000000000000081525060200191505060405180910390fd5b600080600080600073ffffffffffffffffffffffffffffffffffffffff16601660009054906101000a900473ffffffffffffffffffffffffffffffffffffffff1673ffffffffffffffffffffffffffffffffffffffff166342f1bb8d876040518263ffffffff1660e01b81526004018082815260200191505060206040518083038186803b158015610c4157600080fd5b505afa158015610c55573d6000803e3d6000fd5b505050506040513d6020811015610c6b57600080fd5b810190808051906020019092919050505073ffffffffffffffffffffffffffffffffffffffff161461161657610cbd6015600087815260200190815260200160002060030154600a5460075401612727565b9350601760009054906101000a900473ffffffffffffffffffffffffffffffffffffffff1673ffffffffffffffffffffffffffffffffffffffff166340c10f19601660009054906101000a900473ffffffffffffffffffffffffffffffffffffffff1673ffffffffffffffffffffffffffffffffffffffff1663f438835c886040518263ffffffff1660e01b81526004018082815260200191505060206040518083038186803b158015610d7057600080fd5b505afa158015610d84573d6000803e3d6000fd5b505050506040513d6020811015610d9a57600080fd5b8101908080519060200190929190505050866040518363ffffffff1660e01b8152600401808373ffffffffffffffffffffffffffffffffffffffff16815260200182815260200192505050602060405180830381600087803b158015610dff57600080fd5b505af1158015610e13573d6000803e3d6000fd5b505050506040513d6020811015610e2957600080fd5b8101908080519060200190929190505050610eac576040517f08c379a00000000000000000000000000000000000000000000000000000000081526004018080602001828103825260168152602001807f6d696e7420686f737420776974682061647669736f720000000000000000000081525060200191505060405180910390fd5b610ece6015600087815260200190815260200160002060030154600f54612727565b9150601760009054906101000a900473ffffffffffffffffffffffffffffffffffffffff1673ffffffffffffffffffffffffffffffffffffffff166340c10f19601660009054906101000a900473ffffffffffffffffffffffffffffffffffffffff1673ffffffffffffffffffffffffffffffffffffffff166342f1bb8d886040518263ffffffff1660e01b81526004018082815260200191505060206040518083038186803b158015610f8157600080fd5b505afa158015610f95573d6000803e3d6000fd5b505050506040513d6020811015610fab57600080fd5b8101908080519060200190929190505050846040518363ffffffff1660e01b8152600401808373ffffffffffffffffffffffffffffffffffffffff16815260200182815260200192505050602060405180830381600087803b15801561101057600080fd5b505af1158015611024573d6000803e3d6000fd5b505050506040513d602081101561103a57600080fd5b81019080805190602001909291905050506110bd576040517f08c379a000000000000000000000000000000000000000000000000000000000815260040180806020018281038252600f8152602001807f6d696e7420746f2061647669736f72000000000000000000000000000000000081525060200191505060405180910390fd5b61117a601660009054906101000a900473ffffffffffffffffffffffffffffffffffffffff1673ffffffffffffffffffffffffffffffffffffffff166330286c37876040518263ffffffff1660e01b81526004018082815260200191505060206040518083038186803b15801561113357600080fd5b505afa158015611147573d6000803e3d6000fd5b505050506040513d602081101561115d57600080fd5b810190808051906020019092919050505060095460085401612727565b9250601760009054906101000a900473ffffffffffffffffffffffffffffffffffffffff1673ffffffffffffffffffffffffffffffffffffffff1663c4076876601660009054906101000a900473ffffffffffffffffffffffffffffffffffffffff1673ffffffffffffffffffffffffffffffffffffffff1663f438835c886040518263ffffffff1660e01b81526004018082815260200191505060206040518083038186803b15801561122d57600080fd5b505afa158015611241573d6000803e3d6000fd5b505050506040513d602081101561125757600080fd5b8101908080519060200190929190505050856040518363ffffffff1660e01b8152600401808373ffffffffffffffffffffffffffffffffffffffff16815260200182815260200192505050602060405180830381600087803b1580156112bc57600080fd5b505af11580156112d0573d6000803e3d6000fd5b505050506040513d60208110156112e657600080fd5b8101908080519060200190929190505050611369576040517f08c379a00000000000000000000000000000000000000000000000000000000081526004018080602001828103825260188152602001807f70617920746f20686f737420776974682061647669736f72000000000000000081525060200191505060405180910390fd5b611422601660009054906101000a900473ffffffffffffffffffffffffffffffffffffffff1673ffffffffffffffffffffffffffffffffffffffff166330286c37876040518263ffffffff1660e01b81526004018082815260200191505060206040518083038186803b1580156113df57600080fd5b505afa1580156113f3573d6000803e3d6000fd5b505050506040513d602081101561140957600080fd5b8101908080519060200190929190505050601054612727565b9050601760009054906101000a900473ffffffffffffffffffffffffffffffffffffffff1673ffffffffffffffffffffffffffffffffffffffff1663c4076876601660009054906101000a900473ffffffffffffffffffffffffffffffffffffffff1673ffffffffffffffffffffffffffffffffffffffff166342f1bb8d886040518263ffffffff1660e01b81526004018082815260200191505060206040518083038186803b1580156114d557600080fd5b505afa1580156114e9573d6000803e3d6000fd5b505050506040513d60208110156114ff57600080fd5b8101908080519060200190929190505050836040518363ffffffff1660e01b8152600401808373ffffffffffffffffffffffffffffffffffffffff16815260200182815260200192505050602060405180830381600087803b15801561156457600080fd5b505af1158015611578573d6000803e3d6000fd5b505050506040513d602081101561158e57600080fd5b8101908080519060200190929190505050611611576040517f08c379a000000000000000000000000000000000000000000000000000000000815260040180806020018281038252600e8152602001807f70617920746f2061647669736f7200000000000000000000000000000000000081525060200191505060405180910390fd5b611ad0565b6116386015600087815260200190815260200160002060030154600754612727565b9350601760009054906101000a900473ffffffffffffffffffffffffffffffffffffffff1673ffffffffffffffffffffffffffffffffffffffff166340c10f19601660009054906101000a900473ffffffffffffffffffffffffffffffffffffffff1673ffffffffffffffffffffffffffffffffffffffff1663f438835c886040518263ffffffff1660e01b81526004018082815260200191505060206040518083038186803b1580156116eb57600080fd5b505afa1580156116ff573d6000803e3d6000fd5b505050506040513d602081101561171557600080fd5b8101908080519060200190929190505050866040518363ffffffff1660e01b8152600401808373ffffffffffffffffffffffffffffffffffffffff16815260200182815260200192505050602060405180830381600087803b15801561177a57600080fd5b505af115801561178e573d6000803e3d6000fd5b505050506040513d60208110156117a457600080fd5b8101908080519060200190929190505050611827576040517f08c379a000000000000000000000000000000000000000000000000000000000815260040180806020018281038252600c8152602001807f6d696e7420746f20686f7374000000000000000000000000000000000000000081525060200191505060405180910390fd5b6118e0601660009054906101000a900473ffffffffffffffffffffffffffffffffffffffff1673ffffffffffffffffffffffffffffffffffffffff166330286c37876040518263ffffffff1660e01b81526004018082815260200191505060206040518083038186803b15801561189d57600080fd5b505afa1580156118b1573d6000803e3d6000fd5b505050506040513d60208110156118c757600080fd5b8101908080519060200190929190505050600854612727565b9250601760009054906101000a900473ffffffffffffffffffffffffffffffffffffffff1673ffffffffffffffffffffffffffffffffffffffff1663c4076876601660009054906101000a900473ffffffffffffffffffffffffffffffffffffffff1673ffffffffffffffffffffffffffffffffffffffff1663f438835c886040518263ffffffff1660e01b81526004018082815260200191505060206040518083038186803b15801561199357600080fd5b505afa1580156119a7573d6000803e3d6000fd5b505050506040513d60208110156119bd57600080fd5b8101908080519060200190929190505050856040518363ffffffff1660e01b8152600401808373ffffffffffffffffffffffffffffffffffffffff16815260200182815260200192505050602060405180830381600087803b158015611a2257600080fd5b505af1158015611a36573d6000803e3d6000fd5b505050506040513d6020811015611a4c57600080fd5b8101908080519060200190929190505050611acf576040517f08c379a000000000000000000000000000000000000000000000000000000000815260040180806020018281038252600b8152602001807f70617920746f20686f737400000000000000000000000000000000000000000081525060200191505060405180910390fd5b5b7f8b25ea6050ae86d4a92f0105ec319f239c299ccb27723dcd9e04d02220d9f7fa8585858585604051808681526020018581526020018481526020018381526020018281526020019550505050505060405180910390a15050505050565b601460009054906101000a900473ffffffffffffffffffffffffffffffffffffffff1673ffffffffffffffffffffffffffffffffffffffff163373ffffffffffffffffffffffffffffffffffffffff1614611bf1576040517f08c379a000000000000000000000000000000000000000000000000000000000815260040180806020018281038252600f8152602001807f7070436f6e7472616374206f6e6c79000000000000000000000000000000000081525060200191505060405180910390fd5b60016015600083815260200190815260200160002060040160016101000a81548160ff02191690831515021790555050565b600060156000838152602001908152602001600020600201549050919050565b60115481565b60035481565b60008054906101000a900473ffffffffffffffffffffffffffffffffffffffff1673ffffffffffffffffffffffffffffffffffffffff163373ffffffffffffffffffffffffffffffffffffffff1614611d10576040517f08c379a000000000000000000000000000000000000000000000000000000000815260040180806020018281038252600a8152602001807f6f776e6572206f6e6c790000000000000000000000000000000000000000000081525060200191505060405180910390fd5b600080611d356015600085815260200190815260200160002060030154600354612727565b9050601760009054906101000a900473ffffffffffffffffffffffffffffffffffffffff1673ffffffffffffffffffffffffffffffffffffffff166340c10f1960008054906101000a900473ffffffffffffffffffffffffffffffffffffffff16836040518363ffffffff1660e01b8152600401808373ffffffffffffffffffffffffffffffffffffffff16815260200182815260200192505050602060405180830381600087803b158015611dea57600080fd5b505af1158015611dfe573d6000803e3d6000fd5b505050506040513d6020811015611e1457600080fd5b8101908080519060200190929190505050611e97576040517f08c379a00000000000000000000000000000000000000000000000000000000081526004018080602001828103825260158152602001807f6d696e7420646576656c6f706d656e742066756e64000000000000000000000081525060200191505060405180910390fd5b6000601660009054906101000a900473ffffffffffffffffffffffffffffffffffffffff1673ffffffffffffffffffffffffffffffffffffffff166380559173856040518263ffffffff1660e01b81526004018082815260200191505060206040518083038186803b158015611f0c57600080fd5b505afa158015611f20573d6000803e3d6000fd5b505050506040513d6020811015611f3657600080fd5b8101908080519060200190929190505050111561216957612006601660009054906101000a900473ffffffffffffffffffffffffffffffffffffffff1673ffffffffffffffffffffffffffffffffffffffff166380559173856040518263ffffffff1660e01b81526004018082815260200191505060206040518083038186803b158015611fc357600080fd5b505afa158015611fd7573d6000803e3d6000fd5b505050506040513d6020811015611fed57600080fd5b8101908080519060200190929190505050600454612727565b9150601760009054906101000a900473ffffffffffffffffffffffffffffffffffffffff1673ffffffffffffffffffffffffffffffffffffffff1663458a807960008054906101000a900473ffffffffffffffffffffffffffffffffffffffff16846040518363ffffffff1660e01b8152600401808373ffffffffffffffffffffffffffffffffffffffff16815260200182815260200192505050602060405180830381600087803b1580156120bb57600080fd5b505af11580156120cf573d6000803e3d6000fd5b505050506040513d60208110156120e557600080fd5b8101908080519060200190929190505050612168576040517f08c379a000000000000000000000000000000000000000000000000000000000815260040180806020018281038252601c8152602001807f7072656d69756d2070617920646576656c6f706d656e742066756e640000000081525060200191505060405180910390fd5b5b60008073ffffffffffffffffffffffffffffffffffffffff16601660009054906101000a900473ffffffffffffffffffffffffffffffffffffffff1673ffffffffffffffffffffffffffffffffffffffff166342f1bb8d866040518263ffffffff1660e01b81526004018082815260200191505060206040518083038186803b1580156121f557600080fd5b505afa158015612209573d6000803e3d6000fd5b505050506040513d602081101561221f57600080fd5b810190808051906020019092919050505073ffffffffffffffffffffffffffffffffffffffff16141561225c57600f54600a546005540101612260565b6005545b90506000612284601560008781526020019081526020016000206003015483612727565b9050601760009054906101000a900473ffffffffffffffffffffffffffffffffffffffff1673ffffffffffffffffffffffffffffffffffffffff166340c10f19600160009054906101000a900473ffffffffffffffffffffffffffffffffffffffff16836040518363ffffffff1660e01b8152600401808373ffffffffffffffffffffffffffffffffffffffff16815260200182815260200192505050602060405180830381600087803b15801561233b57600080fd5b505af115801561234f573d6000803e3d6000fd5b505050506040513d602081101561236557600080fd5b81019080805190602001909291905050506123e8576040517f08c379a000000000000000000000000000000000000000000000000000000000815260040180806020018281038252601d8152602001807f6d696e7420636f6d6d756e697479206d61726b6574696e672066756e6400000081525060200191505060405180910390fd5b600061240c6015600088815260200190815260200160002060030154600654612727565b9050601760009054906101000a900473ffffffffffffffffffffffffffffffffffffffff1673ffffffffffffffffffffffffffffffffffffffff166340c10f19600260009054906101000a900473ffffffffffffffffffffffffffffffffffffffff16836040518363ffffffff1660e01b8152600401808373ffffffffffffffffffffffffffffffffffffffff16815260200182815260200192505050602060405180830381600087803b1580156124c357600080fd5b505af11580156124d7573d6000803e3d6000fd5b505050506040513d60208110156124ed57600080fd5b8101908080519060200190929190505050612570576040517f08c379a00000000000000000000000000000000000000000000000000000000081526004018080602001828103825260148152602001807f6d696e74206d6f64657261746f72732066756e6400000000000000000000000081525060200191505060405180910390fd5b7f27650ccb91ed33fea2eb9b1f7cecf9d3db7cf69fe53e31fc832dcecd9f3178f38686868585604051808681526020018581526020018481526020018381526020018281526020019550505050505060405180910390a1505050505050565b60065481565b60008054906101000a900473ffffffffffffffffffffffffffffffffffffffff1673ffffffffffffffffffffffffffffffffffffffff163373ffffffffffffffffffffffffffffffffffffffff1614612696576040517f08c379a000000000000000000000000000000000000000000000000000000000815260040180806020018281038252600a8152602001807f6f776e6572206f6e6c790000000000000000000000000000000000000000000081525060200191505060405180910390fd5b81600f81905550806010819055505050565b600d5481565b600060156000838152602001908152602001600020600301549050919050565b600260009054906101000a900473ffffffffffffffffffffffffffffffffffffffff1681565b60006015600083815260200190815260200160002060040160009054906101000a900460ff169050919050565b600a5481565b600060648383028161273557fe5b04905092915050565b60008054906101000a900473ffffffffffffffffffffffffffffffffffffffff1673ffffffffffffffffffffffffffffffffffffffff163373ffffffffffffffffffffffffffffffffffffffff16146127ff576040517f08c379a000000000000000000000000000000000000000000000000000000000815260040180806020018281038252600a8152602001807f6f776e6572206f6e6c790000000000000000000000000000000000000000000081525060200191505060405180910390fd5b83600781905550826008819055508160098190555080600a8190555050505050565b60008054906101000a900473ffffffffffffffffffffffffffffffffffffffff1673ffffffffffffffffffffffffffffffffffffffff163373ffffffffffffffffffffffffffffffffffffffff1614806128c85750601860009054906101000a900473ffffffffffffffffffffffffffffffffffffffff1673ffffffffffffffffffffffffffffffffffffffff163373ffffffffffffffffffffffffffffffffffffffff16145b61293a576040517f08c379a000000000000000000000000000000000000000000000000000000000815260040180806020018281038252601b8152602001807f6f776e6572206f6e6c79206f72207075622061646472206f6e6c79000000000081525060200191505060405180910390fd5b61294482826144a8565b5050565b60105481565b600160009054906101000a900473ffffffffffffffffffffffffffffffffffffffff1681565b60008054906101000a900473ffffffffffffffffffffffffffffffffffffffff1673ffffffffffffffffffffffffffffffffffffffff163373ffffffffffffffffffffffffffffffffffffffff1614612a35576040517f08c379a000000000000000000000000000000000000000000000000000000000815260040180806020018281038252600a8152602001807f6f776e6572206f6e6c790000000000000000000000000000000000000000000081525060200191505060405180910390fd5b60008073ffffffffffffffffffffffffffffffffffffffff16601660009054906101000a900473ffffffffffffffffffffffffffffffffffffffff1673ffffffffffffffffffffffffffffffffffffffff166342f1bb8d846040518263ffffffff1660e01b81526004018082815260200191505060206040518083038186803b158015612ac157600080fd5b505afa158015612ad5573d6000803e3d6000fd5b505050506040513d6020811015612aeb57600080fd5b810190808051906020019092919050505073ffffffffffffffffffffffffffffffffffffffff161415612b2457600d54600c5401612b28565b600c545b90506000601560008481526020019081526020016000206001015490506000612b5184836149cd565b905060005b601660009054906101000a900473ffffffffffffffffffffffffffffffffffffffff1673ffffffffffffffffffffffffffffffffffffffff166323c8778e86856040518363ffffffff1660e01b8152600401808381526020018281526020019250505060206040518083038186803b158015612bd157600080fd5b505afa158015612be5573d6000803e3d6000fd5b505050506040513d6020811015612bfb57600080fd5b81019080805190602001909291905050508110156133e8576000601660009054906101000a900473ffffffffffffffffffffffffffffffffffffffff1673ffffffffffffffffffffffffffffffffffffffff16630569ae998786856040518463ffffffff1660e01b815260040180848152602001838152602001828152602001935050505060206040518083038186803b158015612c9857600080fd5b505afa158015612cac573d6000803e3d6000fd5b505050506040513d6020811015612cc257600080fd5b81019080805190602001909291905050509050600081126133da576000601660009054906101000a900473ffffffffffffffffffffffffffffffffffffffff1673ffffffffffffffffffffffffffffffffffffffff1663f46cf8388887866040518463ffffffff1660e01b815260040180848152602001838152602001828152602001935050505060206040518083038186803b158015612d6257600080fd5b505afa158015612d76573d6000803e3d6000fd5b505050506040513d6020811015612d8c57600080fd5b8101908080519060200190929190505050905060008483612dc5601560008c815260200190815260200160002060030154600b54612727565b0281612dcd57fe5b049050601760009054906101000a900473ffffffffffffffffffffffffffffffffffffffff1673ffffffffffffffffffffffffffffffffffffffff166340c10f1983836040518363ffffffff1660e01b8152600401808373ffffffffffffffffffffffffffffffffffffffff16815260200182815260200192505050602060405180830381600087803b158015612e6357600080fd5b505af1158015612e77573d6000803e3d6000fd5b505050506040513d6020811015612e8d57600080fd5b8101908080519060200190929190505050612f10576040517f08c379a00000000000000000000000000000000000000000000000000000000081526004018080602001828103825260088152602001807f6d696e742065787000000000000000000000000000000000000000000000000081525060200191505060405180910390fd5b60008584612fcb601660009054906101000a900473ffffffffffffffffffffffffffffffffffffffff1673ffffffffffffffffffffffffffffffffffffffff166330286c378d6040518263ffffffff1660e01b81526004018082815260200191505060206040518083038186803b158015612f8a57600080fd5b505afa158015612f9e573d6000803e3d6000fd5b505050506040513d6020811015612fb457600080fd5b81019080805190602001909291905050508b612727565b0281612fd357fe5b049050601760009054906101000a900473ffffffffffffffffffffffffffffffffffffffff1673ffffffffffffffffffffffffffffffffffffffff1663c407687684836040518363ffffffff1660e01b8152600401808373ffffffffffffffffffffffffffffffffffffffff16815260200182815260200192505050602060405180830381600087803b15801561306957600080fd5b505af115801561307d573d6000803e3d6000fd5b505050506040513d602081101561309357600080fd5b8101908080519060200190929190505050613116576040517f08c379a00000000000000000000000000000000000000000000000000000000081526004018080602001828103825260078152602001807f706179206578700000000000000000000000000000000000000000000000000081525060200191505060405180910390fd5b6000601660009054906101000a900473ffffffffffffffffffffffffffffffffffffffff1673ffffffffffffffffffffffffffffffffffffffff1663805591738b6040518263ffffffff1660e01b81526004018082815260200191505060206040518083038186803b15801561318b57600080fd5b505afa15801561319f573d6000803e3d6000fd5b505050506040513d60208110156131b557600080fd5b810190808051906020019092919050505011156133d65760008685613289601660009054906101000a900473ffffffffffffffffffffffffffffffffffffffff1673ffffffffffffffffffffffffffffffffffffffff1663805591738e6040518263ffffffff1660e01b81526004018082815260200191505060206040518083038186803b15801561324657600080fd5b505afa15801561325a573d6000803e3d6000fd5b505050506040513d602081101561327057600080fd5b8101908080519060200190929190505050600e54612727565b028161329157fe5b049050601760009054906101000a900473ffffffffffffffffffffffffffffffffffffffff1673ffffffffffffffffffffffffffffffffffffffff1663458a807985836040518363ffffffff1660e01b8152600401808373ffffffffffffffffffffffffffffffffffffffff16815260200182815260200192505050602060405180830381600087803b15801561332757600080fd5b505af115801561333b573d6000803e3d6000fd5b505050506040513d602081101561335157600080fd5b81019080805190602001909291905050506133d4576040517f08c379a000000000000000000000000000000000000000000000000000000000815260040180806020018281038252600c8152602001807f7072656d2070617920657870000000000000000000000000000000000000000081525060200191505060405180910390fd5b505b5050505b508080600101915050612b56565b507f1e22c3f76c05a9a36262788cbb4f5ee1afd505e9a6b5a48f9b82249539202c1d846040518082815260200191505060405180910390a150505050565b600c5481565b60008054906101000a900473ffffffffffffffffffffffffffffffffffffffff1673ffffffffffffffffffffffffffffffffffffffff163373ffffffffffffffffffffffffffffffffffffffff16146134ed576040517f08c379a000000000000000000000000000000000000000000000000000000000815260040180806020018281038252600a8152602001807f6f776e6572206f6e6c790000000000000000000000000000000000000000000081525060200191505060405180910390fd5b81600160006101000a81548173ffffffffffffffffffffffffffffffffffffffff021916908373ffffffffffffffffffffffffffffffffffffffff16021790555080600260006101000a81548173ffffffffffffffffffffffffffffffffffffffff021916908373ffffffffffffffffffffffffffffffffffffffff1602179055505050565b60075481565b60085481565b601260009054906101000a900473ffffffffffffffffffffffffffffffffffffffff1673ffffffffffffffffffffffffffffffffffffffff163373ffffffffffffffffffffffffffffffffffffffff1614613642576040517f08c379a000000000000000000000000000000000000000000000000000000000815260040180806020018281038252600a8152602001807f6f776e6572206f6e6c790000000000000000000000000000000000000000000081525060200191505060405180910390fd5b81601360006101000a81548173ffffffffffffffffffffffffffffffffffffffff021916908373ffffffffffffffffffffffffffffffffffffffff16021790555080601460006101000a81548173ffffffffffffffffffffffffffffffffffffffff021916908373ffffffffffffffffffffffffffffffffffffffff1602179055505050565b601360009054906101000a900473ffffffffffffffffffffffffffffffffffffffff1673ffffffffffffffffffffffffffffffffffffffff163373ffffffffffffffffffffffffffffffffffffffff161461378b576040517f08c379a000000000000000000000000000000000000000000000000000000000815260040180806020018281038252600f8152602001807f7065436f6e7472616374206f6e6c79000000000000000000000000000000000081525060200191505060405180910390fd5b60016015600083815260200190815260200160002060040160006101000a81548160ff02191690831515021790555050565b600b5481565b600060156000838152602001908152602001600020600101549050919050565b60156020528060005260406000206000915090508060000154908060010154908060020154908060030154908060040160009054906101000a900460ff16908060040160019054906101000a900460ff16905086565b60095481565b60008054906101000a900473ffffffffffffffffffffffffffffffffffffffff1673ffffffffffffffffffffffffffffffffffffffff163373ffffffffffffffffffffffffffffffffffffffff1614613900576040517f08c379a000000000000000000000000000000000000000000000000000000000815260040180806020018281038252600a8152602001807f6f776e6572206f6e6c790000000000000000000000000000000000000000000081525060200191505060405180910390fd5b8060118190555050565b60008054906101000a900473ffffffffffffffffffffffffffffffffffffffff1673ffffffffffffffffffffffffffffffffffffffff163373ffffffffffffffffffffffffffffffffffffffff16146139cb576040517f08c379a000000000000000000000000000000000000000000000000000000000815260040180806020018281038252600a8152602001807f6f776e6572206f6e6c790000000000000000000000000000000000000000000081525060200191505060405180910390fd5b8360038190555082600481905550816005819055508060068190555050505050565b60006015600083815260200190815260200160002060040160019054906101000a900460ff169050919050565b6000601154905090565b600e5481565b600080600090506000805b8473ffffffffffffffffffffffffffffffffffffffff1663a96c2aea876040518263ffffffff1660e01b81526004018082815260200191505060206040518083038186803b158015613a8657600080fd5b505afa158015613a9a573d6000803e3d6000fd5b505050506040513d6020811015613ab057600080fd5b8101908080519060200190929190505050811015613cae57828573ffffffffffffffffffffffffffffffffffffffff166371aee94588846040518363ffffffff1660e01b8152600401808381526020018281526020019250505060206040518083038186803b158015613b2257600080fd5b505afa158015613b36573d6000803e3d6000fd5b505050506040513d6020811015613b4c57600080fd5b81019080805190602001909291905050501115613c01578291508473ffffffffffffffffffffffffffffffffffffffff166371aee94587836040518363ffffffff1660e01b8152600401808381526020018281526020019250505060206040518083038186803b158015613bbf57600080fd5b505afa158015613bd3573d6000803e3d6000fd5b505050506040513d6020811015613be957600080fd5b81019080805190602001909291905050509250613ca1565b818573ffffffffffffffffffffffffffffffffffffffff166371aee94588846040518363ffffffff1660e01b8152600401808381526020018281526020019250505060206040518083038186803b158015613c5b57600080fd5b505afa158015613c6f573d6000803e3d6000fd5b505050506040513d6020811015613c8557600080fd5b81019080805190602001909291905050501115613ca0578291505b5b8080600101915050613a35565b506000828201606403905060008573ffffffffffffffffffffffffffffffffffffffff1663f946c207886040518263ffffffff1660e01b81526004018082815260200191505060206040518083038186803b158015613d0c57600080fd5b505afa158015613d20573d6000803e3d6000fd5b505050506040513d6020811015613d3657600080fd5b81019080805190602001909291905050508673ffffffffffffffffffffffffffffffffffffffff166330286c37896040518263ffffffff1660e01b81526004018082815260200191505060206040518083038186803b158015613d9857600080fd5b505afa158015613dac573d6000803e3d6000fd5b505050506040513d6020811015613dc257600080fd5b810190808051906020019092919050505081613dda57fe5b04905061271088838873ffffffffffffffffffffffffffffffffffffffff1663f946c2078b6040518263ffffffff1660e01b81526004018082815260200191505060206040518083038186803b158015613e3357600080fd5b505afa158015613e47573d6000803e3d6000fd5b505050506040513d6020811015613e5d57600080fd5b81019080805190602001909291905050508402020281613e7957fe5b049450505050509392505050565b60055481565b60045481565b60008054906101000a900473ffffffffffffffffffffffffffffffffffffffff1673ffffffffffffffffffffffffffffffffffffffff163373ffffffffffffffffffffffffffffffffffffffff1614613f54576040517f08c379a000000000000000000000000000000000000000000000000000000000815260040180806020018281038252600a8152602001807f6f776e6572206f6e6c790000000000000000000000000000000000000000000081525060200191505060405180910390fd5b600080600080601660009054906101000a900473ffffffffffffffffffffffffffffffffffffffff1673ffffffffffffffffffffffffffffffffffffffff1663a96c2aea866040518263ffffffff1660e01b81526004018082815260200191505060206040518083038186803b158015613fcd57600080fd5b505afa158015613fe1573d6000803e3d6000fd5b505050506040513d6020811015613ff757600080fd5b8101908080519060200190929190505050905060005b818110156143165784601660009054906101000a900473ffffffffffffffffffffffffffffffffffffffff1673ffffffffffffffffffffffffffffffffffffffff166323c8778e88846040518363ffffffff1660e01b8152600401808381526020018281526020019250505060206040518083038186803b15801561409157600080fd5b505afa1580156140a5573d6000803e3d6000fd5b505050506040513d60208110156140bb57600080fd5b8101908080519060200190929190505050111561419257601660009054906101000a900473ffffffffffffffffffffffffffffffffffffffff1673ffffffffffffffffffffffffffffffffffffffff166323c8778e87836040518363ffffffff1660e01b8152600401808381526020018281526020019250505060206040518083038186803b15801561414d57600080fd5b505afa158015614161573d6000803e3d6000fd5b505050506040513d602081101561417757600080fd5b81019080805190602001909291905050509450809250614309565b84601660009054906101000a900473ffffffffffffffffffffffffffffffffffffffff1673ffffffffffffffffffffffffffffffffffffffff166323c8778e88846040518363ffffffff1660e01b8152600401808381526020018281526020019250505060206040518083038186803b15801561420e57600080fd5b505afa158015614222573d6000803e3d6000fd5b505050506040513d602081101561423857600080fd5b8101908080519060200190929190505050141561430857601660009054906101000a900473ffffffffffffffffffffffffffffffffffffffff1673ffffffffffffffffffffffffffffffffffffffff166323c8778e87836040518363ffffffff1660e01b8152600401808381526020018281526020019250505060206040518083038186803b1580156142ca57600080fd5b505afa1580156142de573d6000803e3d6000fd5b505050506040513d60208110156142f457600080fd5b810190808051906020019092919050505093505b5b808060010191505061400d565b50838314156143925760016015600087815260200190815260200160002060040160006101000a81548160ff02191690831515021790555061438d856040518060400160405280600f81526020017f6475706c696361742065787065727400000000000000000000000000000000008152506144a8565b6143b8565b8160156000878152602001908152602001600020600101819055506143b78286614c34565b5b5050505050565b600f5481565b60008054906101000a900473ffffffffffffffffffffffffffffffffffffffff1673ffffffffffffffffffffffffffffffffffffffff163373ffffffffffffffffffffffffffffffffffffffff1614614486576040517f08c379a000000000000000000000000000000000000000000000000000000000815260040180806020018281038252600a8152602001807f6f776e6572206f6e6c790000000000000000000000000000000000000000000081525060200191505060405180910390fd5b83600b8190555082600c8190555081600d8190555080600e8190555050505050565b60005b601660009054906101000a900473ffffffffffffffffffffffffffffffffffffffff1673ffffffffffffffffffffffffffffffffffffffff1663a96c2aea846040518263ffffffff1660e01b81526004018082815260200191505060206040518083038186803b15801561451e57600080fd5b505afa158015614532573d6000803e3d6000fd5b505050506040513d602081101561454857600080fd5b81019080805190602001909291905050508110156148f55760005b601660009054906101000a900473ffffffffffffffffffffffffffffffffffffffff1673ffffffffffffffffffffffffffffffffffffffff166371aee94585846040518363ffffffff1660e01b8152600401808381526020018281526020019250505060206040518083038186803b1580156145de57600080fd5b505afa1580156145f2573d6000803e3d6000fd5b505050506040513d602081101561460857600080fd5b81019080805190602001909291905050508110156148e757601760009054906101000a900473ffffffffffffffffffffffffffffffffffffffff1673ffffffffffffffffffffffffffffffffffffffff1663c4076876601660009054906101000a900473ffffffffffffffffffffffffffffffffffffffff1673ffffffffffffffffffffffffffffffffffffffff16637c997f678786866040518463ffffffff1660e01b815260040180848152602001838152602001828152602001935050505060206040518083038186803b1580156146e157600080fd5b505afa1580156146f5573d6000803e3d6000fd5b505050506040513d602081101561470b57600080fd5b8101908080519060200190929190505050601660009054906101000a900473ffffffffffffffffffffffffffffffffffffffff1673ffffffffffffffffffffffffffffffffffffffff1663859f0f6a8887876040518463ffffffff1660e01b815260040180848152602001838152602001828152602001935050505060206040518083038186803b15801561479f57600080fd5b505afa1580156147b3573d6000803e3d6000fd5b505050506040513d60208110156147c957600080fd5b81019080805190602001909291905050506040518363ffffffff1660e01b8152600401808373ffffffffffffffffffffffffffffffffffffffff16815260200182815260200192505050602060405180830381600087803b15801561482d57600080fd5b505af1158015614841573d6000803e3d6000fd5b505050506040513d602081101561485757600080fd5b81019080805190602001909291905050506148da576040517f08c379a000000000000000000000000000000000000000000000000000000000815260040180806020018281038252600a8152602001807f726576657274206265740000000000000000000000000000000000000000000081525060200191505060405180910390fd5b8080600101915050614563565b5080806001019150506144ab565b5060016015600084815260200190815260200160002060040160006101000a81548160ff0219169083151502179055507f847521552ad126e64c52b14640c804737bd67f2b6674309b332d1e5b17f857d182826040518083815260200180602001828103825283818151815260200191508051906020019080838360005b8381101561498e578082015181840152602081019050614973565b50505050905090810190601f1680156149bb5780820380516001836020036101000a031916815260200191505b50935050505060405180910390a15050565b6000806000905060005b601660009054906101000a900473ffffffffffffffffffffffffffffffffffffffff1673ffffffffffffffffffffffffffffffffffffffff166323c8778e86866040518363ffffffff1660e01b8152600401808381526020018281526020019250505060206040518083038186803b158015614a5257600080fd5b505afa158015614a66573d6000803e3d6000fd5b505050506040513d6020811015614a7c57600080fd5b8101908080519060200190929190505050811015614c29576000601660009054906101000a900473ffffffffffffffffffffffffffffffffffffffff1673ffffffffffffffffffffffffffffffffffffffff16630569ae998787856040518463ffffffff1660e01b815260040180848152602001838152602001828152602001935050505060206040518083038186803b158015614b1957600080fd5b505afa158015614b2d573d6000803e3d6000fd5b505050506040513d6020811015614b4357600080fd5b810190808051906020019092919050505012614c1c57601660009054906101000a900473ffffffffffffffffffffffffffffffffffffffff1673ffffffffffffffffffffffffffffffffffffffff16630569ae998686846040518463ffffffff1660e01b815260040180848152602001838152602001828152602001935050505060206040518083038186803b158015614bdc57600080fd5b505afa158015614bf0573d6000803e3d6000fd5b505050506040513d6020811015614c0657600080fd5b8101908080519060200190929190505050820191505b80806001019150506149d7565b508091505092915050565b600080600090505b601660009054906101000a900473ffffffffffffffffffffffffffffffffffffffff1673ffffffffffffffffffffffffffffffffffffffff166371aee94584866040518363ffffffff1660e01b8152600401808381526020018281526020019250505060206040518083038186803b158015614cb757600080fd5b505afa158015614ccb573d6000803e3d6000fd5b505050506040513d6020811015614ce157600080fd5b8101908080519060200190929190505050811015614dc857601660009054906101000a900473ffffffffffffffffffffffffffffffffffffffff1673ffffffffffffffffffffffffffffffffffffffff1663859f0f6a8486846040518463ffffffff1660e01b815260040180848152602001838152602001828152602001935050505060206040518083038186803b158015614d7c57600080fd5b505afa158015614d90573d6000803e3d6000fd5b505050506040513d6020811015614da657600080fd5b8101908080519060200190929190505050820191508080600101915050614c3c565b50600081601660009054906101000a900473ffffffffffffffffffffffffffffffffffffffff1673ffffffffffffffffffffffffffffffffffffffff166330286c37856040518263ffffffff1660e01b81526004018082815260200191505060206040518083038186803b158015614e3f57600080fd5b505afa158015614e53573d6000803e3d6000fd5b505050506040513d6020811015614e6957600080fd5b8101908080519060200190929190505050039050600081118015614e8d5750600082115b15614f48578060156000858152602001908152602001600020600201819055506000614ede60115485601660009054906101000a900473ffffffffffffffffffffffffffffffffffffffff16613a2a565b90508060156000868152602001908152602001600020600301819055507f379c6b224a7fe6850c58f9de93dac19c04862dd67059a1948f1f9d70a1fe0f9f84828760405180848152602001838152602001828152602001935050505060405180910390a150614f88565b614f87836040518060400160405280601581526020017f706c61792063686f7365206f6e6520616e737765720000000000000000000000815250612821565b5b5050505056fea26469706673582212202283aaff36c4ac2a9a974132383e88bed7ea900a185af3e0dd6827323c9e126464736f6c63430007060033",
  "immutableReferences": {},
  "source": "// SPDX-License-Identifier: MIT\npragma solidity >=0.4.22 <0.9.0;\nimport {PubStruct} from \"../../struct/PubStruct.sol\";\nimport {PublicEvents} from \"./PublicEvents.sol\";\nimport {MPStruct} from \"../../struct/MPStruct.sol\";\nimport {Libs} from \"./Libs.sol\";\nimport {MPConfig} from \"../../config/MPConfig.sol\";\n\ncontract MiddlePayment is Libs, MPConfig, MPStruct {\n    PubStruct eventsData;\n    PublicEvents PublicAddr;\n    address pubAddr;\n\n    event payToCompanies(int id, uint tokens, uint correctAnswer);\n    event payToHost(int id, uint premDF, uint mintDF, uint mintCMF, uint mintMF);\n    event payToExperts(int id, uint mintHost, uint payHost, uint mintAdv, uint payAdv);\n    event payToPlayers(int id);\n    event revertedEvent(int id, string purpose);\n\n    constructor(PublicEvents _addr) {\n        PublicAddr = _addr;\n        pubAddr = address(_addr);\n        eventsData = PubStruct(_addr);\n    }\n\n    function letsFindCorrectAnswer(int _id) public {\n        require(msg.sender == owner, \"owner only\");\n        uint bigValue = 0;\n        uint candDub = 0;\n        uint correctAnswer;\n        uint questAmount = eventsData.getQuestAmount(_id);\n\n        // find correct answer\n        for (uint i = 0; i < questAmount; i++) {\n            if (eventsData.getExpertAmount(_id, i) > bigValue) {\n                bigValue = eventsData.getExpertAmount(_id, i);\n                correctAnswer = i;\n            } else if (eventsData.getExpertAmount(_id, i) == bigValue) {\n                candDub = eventsData.getExpertAmount(_id, i);\n            }\n        }\n\n        if (candDub == bigValue) {\n            MPData[_id].reverted = true;\n            revertPayment(_id, \"duplicat expert\");\n        } else {\n            MPData[_id].correctAnswer = correctAnswer;\n            findLosersPool(correctAnswer, _id);\n        }\n    }\n\n    function findLosersPool(uint correctAnswer, int _id) private {\n        uint B;\n        for (uint i = 0; i < eventsData.getPlayerAmount(_id, correctAnswer); i++) {\n            B = B + eventsData.getPlayerTokens(_id, correctAnswer, i);\n        }\n        \n        uint lP = eventsData.getPool(_id) - B;\n        // TODO TEST\n        if (lP > 0 && B > 0) {\n             MPData[_id].loserPool = lP;\n            // calculate minted tokens\n            uint tokens =\n                calcMintedTokens(\n                    GFindex,\n                    _id,\n                    eventsData\n                );\n                \n            MPData[_id].tokenMinted = tokens;\n            emit payToCompanies(_id, tokens, correctAnswer);\n        } else {\n            revertedPayment(_id, \"play chose one answer\");\n        }\n    }\n\n    function revertedPayment(int _id, string memory purpose)\n        public\n    {\n        require(msg.sender == owner || msg.sender == pubAddr, \"owner only or pub addr only\");\n        revertPayment(_id, purpose);\n    }\n\n    function revertPayment(int _id, string memory purpose) private {\n        for (uint i = 0; i < eventsData.getQuestAmount(_id); i++) {\n            for (uint z = 0; z < eventsData.getPlayerAmount(_id, i); z++) {\n                require(\n                    PublicAddr.pay(eventsData.getPlayerWallet(_id, i, z), eventsData.getPlayerTokens(_id, i, z)),\n                    \"revert bet\"\n                );\n            }\n        }\n        MPData[_id].reverted = true;\n        emit revertedEvent(_id, purpose);\n    }\n\n    function letsPayToCompanies(int _id) public {\n        require(msg.sender == owner, \"owner only\");\n        // pay to Development Fund\n        uint premDF = 0;\n        uint mintDF = getPercent(MPData[_id].tokenMinted, developFundPerc);\n        require( PublicAddr.mint(owner, mintDF), \"mint development fund\" );\n        if (eventsData.getPremiumAmount(_id) > 0) {\n            premDF = getPercent(eventsData.getPremiumAmount(_id), developFundPercPremim );\n            require(                \n                PublicAddr.payBTY(owner, premDF),\n                \"premium pay development fund\"\n            );\n        }\n        // pay to Community Marketing Fund\n        uint percentCMF = eventsData.getAdvisorAddr(_id) != address(0)\n                ? comMarketFundPerc\n                : comMarketFundPerc + extraHostPercMint + advisorPercMint;\n        uint mintCMF = getPercent(MPData[_id].tokenMinted, percentCMF);         \n        require(\n            PublicAddr.mint(comMarketFundWallet, mintCMF),\n            \"mint community marketing fund\"\n        );\n\n        uint mintMF = getPercent(MPData[_id].tokenMinted, moderatorsFundPerc);\n        // pay to Moderators Fund\n        require(\n            PublicAddr.mint(moderatorsFundWallet, mintMF),\n            \"mint moderators fund\"\n        );\n        emit payToHost(_id, premDF, mintDF, mintCMF, mintMF);\n    }\n\n    function letsPaytoHost(int _id) public {\n        require(msg.sender == owner, \"owner only\");\n        uint mintHost = 0;\n        uint payHost = 0;\n        uint mintAdv = 0;\n        uint payAdv = 0;\n        if (eventsData.getAdvisorAddr(_id) != address(0)) {\n            // pay minted tokens\n            mintHost = getPercent( MPData[_id].tokenMinted, hostPercMint + extraHostPercMint);\n            require(\n                PublicAddr.mint(eventsData.getHostAddr(_id), mintHost),\n                \"mint host with advisor\"\n            );\n            mintAdv = getPercent(MPData[_id].tokenMinted, advisorPercMint);\n            require(\n                PublicAddr.mint(eventsData.getAdvisorAddr(_id), mintAdv),\n                \"mint to advisor\"\n            );\n            // pay tokens\n            payHost = getPercent(eventsData.getPool(_id), hostPerc + extraHostPerc);\n            require(\n                PublicAddr.pay(eventsData.getHostAddr(_id), payHost),\n                \"pay to host with advisor\"\n            );\n            payAdv = getPercent(eventsData.getPool(_id), advisorPepc);\n            require(\n                PublicAddr.pay(eventsData.getAdvisorAddr(_id), payAdv),\n                \"pay to advisor\"\n            );\n        } else {\n            // mint to host\n            mintHost = getPercent(MPData[_id].tokenMinted, hostPercMint);\n            require(\n                PublicAddr.mint(eventsData.getHostAddr(_id), mintHost),\n                \"mint to host\"\n            );\n            payHost = getPercent(eventsData.getPool(_id), hostPerc);\n            // pay to host\n            require(\n                PublicAddr.pay(eventsData.getHostAddr(_id), payHost),\n                \"pay to host\"\n            );\n        }\n        emit payToExperts(_id, mintHost, payHost, mintAdv, payAdv);\n    }\n\n    function letsPayToExperts(int _id) public {\n        require(msg.sender == owner, \"owner only\");\n        uint percent = eventsData.getAdvisorAddr(_id) != address(0)\n                ? expertPerc\n                : expertPerc + expertExtraPerc;\n        uint correctAnswer = MPData[_id].correctAnswer;\n        int allReputation = calcReput(_id, correctAnswer);\n\n        for (uint i = 0; i < eventsData.getExpertAmount(_id, correctAnswer); i++ ) {\n            int reputation = eventsData.getExpertReput(_id, correctAnswer, i);\n            if (reputation >= 0) {\n                address payable expertWallet = eventsData.getExpertWallet(_id, correctAnswer, i);\n\n                // mint tokens\n                uint amountMint = (getPercent(MPData[_id].tokenMinted, expertPercMint) * uint(reputation)) / uint(allReputation);\n                require(PublicAddr.mint(expertWallet, amountMint), \"mint exp\");\n\n                // pay tokens\n                uint amount = (getPercent(eventsData.getPool(_id), percent) * uint(reputation)) / uint(allReputation);\n                require(PublicAddr.pay(expertWallet, amount), \"pay exp\");\n\n                // pay in premium events\n                if (eventsData.getPremiumAmount(_id) > 0) {\n                    uint premiumAmount = (getPercent(eventsData.getPremiumAmount(_id), expertPremiumPerc ) * uint(reputation)) / uint(allReputation);\n                    require(PublicAddr.payBTY(expertWallet, premiumAmount),\"prem pay exp\");\n                }\n       \n            }\n        }\n        emit payToPlayers(_id);\n    }\n    \n    function calcReput(int _id, uint correctAnswer) private view returns(int) { \n        int allReputation = 0;\n        for ( uint i = 0; i < eventsData.getExpertAmount(_id, correctAnswer); i++ ) {\n            if ( eventsData.getExpertReput(_id, correctAnswer, i) >= 0 ) {\n                allReputation = allReputation + eventsData.getExpertReput(_id, correctAnswer, i);\n            }\n        }\n        return allReputation;\n    }\n}\n",
  "sourcePath": "/Users/macbook/Documents/freelance/tokenominc/contracts/matic/events/PublicEvents/MiddlePayment.sol",
  "compiler": {
    "name": "solc",
    "version": "0.7.6+commit.7338295f.Linux.g++"
  },
  "schemaVersion": "3.3.4",
  "updatedAt": "2021-03-18T13:21:53.555Z",
  "devdoc": {
    "kind": "dev",
    "methods": {},
    "version": 1
  },
  "userdoc": {
    "kind": "user",
    "methods": {},
    "version": 1
  }
}