{
  "contractName": "MiddlePayment",
  "abi": [
    {
      "inputs": [
        {
          "internalType": "contract PublicEvents",
          "name": "_addr",
          "type": "address"
        }
      ],
      "stateMutability": "nonpayable",
      "type": "constructor"
    },
    {
      "anonymous": false,
      "inputs": [
        {
          "indexed": false,
          "internalType": "int256",
          "name": "id",
          "type": "int256"
        },
        {
          "indexed": false,
          "internalType": "uint256",
          "name": "tokens",
          "type": "uint256"
        },
        {
          "indexed": false,
          "internalType": "uint256",
          "name": "correctAnswer",
          "type": "uint256"
        }
      ],
      "name": "payToCompanies",
      "type": "event"
    },
    {
      "anonymous": false,
      "inputs": [
        {
          "indexed": false,
          "internalType": "int256",
          "name": "id",
          "type": "int256"
        },
        {
          "indexed": false,
          "internalType": "uint256",
          "name": "mintHost",
          "type": "uint256"
        },
        {
          "indexed": false,
          "internalType": "uint256",
          "name": "payHost",
          "type": "uint256"
        },
        {
          "indexed": false,
          "internalType": "uint256",
          "name": "mintAdv",
          "type": "uint256"
        },
        {
          "indexed": false,
          "internalType": "uint256",
          "name": "payAdv",
          "type": "uint256"
        }
      ],
      "name": "payToExperts",
      "type": "event"
    },
    {
      "anonymous": false,
      "inputs": [
        {
          "indexed": false,
          "internalType": "int256",
          "name": "id",
          "type": "int256"
        },
        {
          "indexed": false,
          "internalType": "uint256",
          "name": "premDF",
          "type": "uint256"
        },
        {
          "indexed": false,
          "internalType": "uint256",
          "name": "mintDF",
          "type": "uint256"
        },
        {
          "indexed": false,
          "internalType": "uint256",
          "name": "mintCMF",
          "type": "uint256"
        },
        {
          "indexed": false,
          "internalType": "uint256",
          "name": "mintMF",
          "type": "uint256"
        }
      ],
      "name": "payToHost",
      "type": "event"
    },
    {
      "anonymous": false,
      "inputs": [
        {
          "indexed": false,
          "internalType": "int256",
          "name": "id",
          "type": "int256"
        }
      ],
      "name": "payToPlayers",
      "type": "event"
    },
    {
      "anonymous": false,
      "inputs": [
        {
          "indexed": false,
          "internalType": "int256",
          "name": "id",
          "type": "int256"
        },
        {
          "indexed": false,
          "internalType": "string",
          "name": "purpose",
          "type": "string"
        }
      ],
      "name": "revertedEvent",
      "type": "event"
    },
    {
      "inputs": [],
      "name": "GFindex",
      "outputs": [
        {
          "internalType": "uint256",
          "name": "",
          "type": "uint256"
        }
      ],
      "stateMutability": "view",
      "type": "function"
    },
    {
      "inputs": [
        {
          "internalType": "int256",
          "name": "",
          "type": "int256"
        }
      ],
      "name": "MPData",
      "outputs": [
        {
          "internalType": "int256",
          "name": "id",
          "type": "int256"
        },
        {
          "internalType": "uint256",
          "name": "correctAnswer",
          "type": "uint256"
        },
        {
          "internalType": "uint256",
          "name": "loserPool",
          "type": "uint256"
        },
        {
          "internalType": "uint256",
          "name": "tokenMinted",
          "type": "uint256"
        },
        {
          "internalType": "bool",
          "name": "reverted",
          "type": "bool"
        },
        {
          "internalType": "bool",
          "name": "eventFinish",
          "type": "bool"
        }
      ],
      "stateMutability": "view",
      "type": "function"
    },
    {
      "inputs": [],
      "name": "advisorPepc",
      "outputs": [
        {
          "internalType": "uint256",
          "name": "",
          "type": "uint256"
        }
      ],
      "stateMutability": "view",
      "type": "function"
    },
    {
      "inputs": [],
      "name": "advisorPercMint",
      "outputs": [
        {
          "internalType": "uint256",
          "name": "",
          "type": "uint256"
        }
      ],
      "stateMutability": "view",
      "type": "function"
    },
    {
      "inputs": [
        {
          "internalType": "uint256",
          "name": "_activePlayers",
          "type": "uint256"
        },
        {
          "internalType": "uint256",
          "name": "_pool",
          "type": "uint256"
        },
        {
          "internalType": "uint256",
          "name": "_GFindex",
          "type": "uint256"
        }
      ],
      "name": "calcMintedTokens",
      "outputs": [
        {
          "internalType": "uint256",
          "name": "",
          "type": "uint256"
        }
      ],
      "stateMutability": "pure",
      "type": "function"
    },
    {
      "inputs": [
        {
          "internalType": "int256",
          "name": "_id",
          "type": "int256"
        }
      ],
      "name": "checkEventFinish",
      "outputs": [
        {
          "internalType": "bool",
          "name": "",
          "type": "bool"
        }
      ],
      "stateMutability": "view",
      "type": "function"
    },
    {
      "inputs": [
        {
          "internalType": "int256",
          "name": "_id",
          "type": "int256"
        }
      ],
      "name": "checkReverted",
      "outputs": [
        {
          "internalType": "bool",
          "name": "",
          "type": "bool"
        }
      ],
      "stateMutability": "view",
      "type": "function"
    },
    {
      "inputs": [],
      "name": "comMarketFundPerc",
      "outputs": [
        {
          "internalType": "uint256",
          "name": "",
          "type": "uint256"
        }
      ],
      "stateMutability": "view",
      "type": "function"
    },
    {
      "inputs": [],
      "name": "comMarketFundWallet",
      "outputs": [
        {
          "internalType": "address payable",
          "name": "",
          "type": "address"
        }
      ],
      "stateMutability": "view",
      "type": "function"
    },
    {
      "inputs": [],
      "name": "developFundPerc",
      "outputs": [
        {
          "internalType": "uint256",
          "name": "",
          "type": "uint256"
        }
      ],
      "stateMutability": "view",
      "type": "function"
    },
    {
      "inputs": [],
      "name": "developFundPercPremim",
      "outputs": [
        {
          "internalType": "uint256",
          "name": "",
          "type": "uint256"
        }
      ],
      "stateMutability": "view",
      "type": "function"
    },
    {
      "inputs": [],
      "name": "expertExtraPerc",
      "outputs": [
        {
          "internalType": "uint256",
          "name": "",
          "type": "uint256"
        }
      ],
      "stateMutability": "view",
      "type": "function"
    },
    {
      "inputs": [],
      "name": "expertPerc",
      "outputs": [
        {
          "internalType": "uint256",
          "name": "",
          "type": "uint256"
        }
      ],
      "stateMutability": "view",
      "type": "function"
    },
    {
      "inputs": [],
      "name": "expertPercMint",
      "outputs": [
        {
          "internalType": "uint256",
          "name": "",
          "type": "uint256"
        }
      ],
      "stateMutability": "view",
      "type": "function"
    },
    {
      "inputs": [],
      "name": "expertPremiumPerc",
      "outputs": [
        {
          "internalType": "uint256",
          "name": "",
          "type": "uint256"
        }
      ],
      "stateMutability": "view",
      "type": "function"
    },
    {
      "inputs": [],
      "name": "extraHostPerc",
      "outputs": [
        {
          "internalType": "uint256",
          "name": "",
          "type": "uint256"
        }
      ],
      "stateMutability": "view",
      "type": "function"
    },
    {
      "inputs": [],
      "name": "extraHostPercMint",
      "outputs": [
        {
          "internalType": "uint256",
          "name": "",
          "type": "uint256"
        }
      ],
      "stateMutability": "view",
      "type": "function"
    },
    {
      "inputs": [],
      "name": "getGFindex",
      "outputs": [
        {
          "internalType": "uint256",
          "name": "",
          "type": "uint256"
        }
      ],
      "stateMutability": "view",
      "type": "function"
    },
    {
      "inputs": [
        {
          "internalType": "uint256",
          "name": "_percent",
          "type": "uint256"
        },
        {
          "internalType": "uint256",
          "name": "_from",
          "type": "uint256"
        }
      ],
      "name": "getPercent",
      "outputs": [
        {
          "internalType": "uint256",
          "name": "",
          "type": "uint256"
        }
      ],
      "stateMutability": "pure",
      "type": "function"
    },
    {
      "inputs": [],
      "name": "hostPerc",
      "outputs": [
        {
          "internalType": "uint256",
          "name": "",
          "type": "uint256"
        }
      ],
      "stateMutability": "view",
      "type": "function"
    },
    {
      "inputs": [],
      "name": "hostPercMint",
      "outputs": [
        {
          "internalType": "uint256",
          "name": "",
          "type": "uint256"
        }
      ],
      "stateMutability": "view",
      "type": "function"
    },
    {
      "inputs": [],
      "name": "moderatorsFundPerc",
      "outputs": [
        {
          "internalType": "uint256",
          "name": "",
          "type": "uint256"
        }
      ],
      "stateMutability": "view",
      "type": "function"
    },
    {
      "inputs": [],
      "name": "moderatorsFundWallet",
      "outputs": [
        {
          "internalType": "address payable",
          "name": "",
          "type": "address"
        }
      ],
      "stateMutability": "view",
      "type": "function"
    },
    {
      "inputs": [
        {
          "internalType": "address payable",
          "name": "_wallet",
          "type": "address"
        }
      ],
      "name": "setComMarketFundWallet",
      "outputs": [],
      "stateMutability": "nonpayable",
      "type": "function"
    },
    {
      "inputs": [
        {
          "internalType": "uint256",
          "name": "_developFundPerc",
          "type": "uint256"
        }
      ],
      "name": "setDevelopFundPerc",
      "outputs": [],
      "stateMutability": "nonpayable",
      "type": "function"
    },
    {
      "inputs": [
        {
          "internalType": "uint256",
          "name": "_expertPerc",
          "type": "uint256"
        }
      ],
      "name": "setExpertPerc",
      "outputs": [],
      "stateMutability": "nonpayable",
      "type": "function"
    },
    {
      "inputs": [
        {
          "internalType": "uint256",
          "name": "_GFindex",
          "type": "uint256"
        }
      ],
      "name": "setGFindex",
      "outputs": [],
      "stateMutability": "nonpayable",
      "type": "function"
    },
    {
      "inputs": [
        {
          "internalType": "uint256",
          "name": "_hostPercMint",
          "type": "uint256"
        },
        {
          "internalType": "uint256",
          "name": "_hostPerc",
          "type": "uint256"
        }
      ],
      "name": "setHostPerc",
      "outputs": [],
      "stateMutability": "nonpayable",
      "type": "function"
    },
    {
      "inputs": [
        {
          "internalType": "address payable",
          "name": "_wallet",
          "type": "address"
        }
      ],
      "name": "setModeratorsFundWallet",
      "outputs": [],
      "stateMutability": "nonpayable",
      "type": "function"
    },
    {
      "inputs": [
        {
          "internalType": "int256",
          "name": "_id",
          "type": "int256"
        }
      ],
      "name": "setReverted",
      "outputs": [],
      "stateMutability": "nonpayable",
      "type": "function"
    },
    {
      "inputs": [
        {
          "internalType": "int256",
          "name": "_id",
          "type": "int256"
        }
      ],
      "name": "letsFindCorrectAnswer",
      "outputs": [],
      "stateMutability": "nonpayable",
      "type": "function"
    },
    {
      "inputs": [
        {
          "internalType": "int256",
          "name": "_id",
          "type": "int256"
        },
        {
          "internalType": "string",
          "name": "purpose",
          "type": "string"
        }
      ],
      "name": "revertedPayment",
      "outputs": [],
      "stateMutability": "nonpayable",
      "type": "function"
    },
    {
      "inputs": [
        {
          "internalType": "int256",
          "name": "_id",
          "type": "int256"
        }
      ],
      "name": "letsPayToCompanies",
      "outputs": [],
      "stateMutability": "nonpayable",
      "type": "function"
    },
    {
      "inputs": [
        {
          "internalType": "int256",
          "name": "_id",
          "type": "int256"
        }
      ],
      "name": "letsPaytoHost",
      "outputs": [],
      "stateMutability": "nonpayable",
      "type": "function"
    },
    {
      "inputs": [
        {
          "internalType": "int256",
          "name": "_id",
          "type": "int256"
        }
      ],
      "name": "letsPayToExperts",
      "outputs": [],
      "stateMutability": "nonpayable",
      "type": "function"
    }
  ],
  "bytecode": "0x6080604052600a600355600a600455600580556002600655600a600755600460085560016009556001600a55600a600b556004600c556002600d55600f600e556002600f556001601055606460115534801561005a57600080fd5b5060405162004818380380620048188339818101604052602081101561007f57600080fd5b8101908080519060200190929190505050336000806101000a81548173ffffffffffffffffffffffffffffffffffffffff021916908373ffffffffffffffffffffffffffffffffffffffff16021790555080601460006101000a81548173ffffffffffffffffffffffffffffffffffffffff021916908373ffffffffffffffffffffffffffffffffffffffff16021790555080601360006101000a81548173ffffffffffffffffffffffffffffffffffffffff021916908373ffffffffffffffffffffffffffffffffffffffff160217905550506146b580620001636000396000f3fe608060405234801561001057600080fd5b50600436106102115760003560e01c80638fc8bc4211610125578063c369085e116100ad578063dd3c22831161007c578063dd3c228314610830578063e1755c6a1461085e578063e1dcc4091461087c578063e79f365d1461089a578063f7ec5851146108c857610211565b8063c369085e14610782578063d343c1dc146107b0578063d70b4bb6146107f4578063dba8fe871461081257610211565b8063aaa3091e116100f4578063aaa3091e1461064f578063af9ace45146106a5578063b1642b50146106c3578063bdc90554146106fb578063c12c8c461461076457610211565b80638fc8bc4214610591578063903a19cf146105af5780639580de67146105f35780639ec2345a1461062157610211565b8063362e41b6116101a8578063786508c511610177578063786508c5146104d5578063802cc34c146104f3578063870d945014610527578063896aa7a4146105555780638a9dbda71461057357610211565b8063362e41b61461036257806355e84158146103a657806362219866146103c4578063769c48981461041057610211565b806324045aad116101e457806324045aad146102ae57806324beedd3146102f25780632c316d05146103105780633467f6971461032e57610211565b8063051e9ea71461021657806315cfe419146102445780631c408357146102625780631f36c48314610280575b600080fd5b6102426004803603602081101561022c57600080fd5b81019080803590602001909291905050506108e6565b005b61024c611925565b6040518082815260200191505060405180910390f35b61026a61192b565b6040518082815260200191505060405180910390f35b6102ac6004803603602081101561029657600080fd5b8101908080359060200190929190505050611931565b005b6102f0600480360360208110156102c457600080fd5b81019080803573ffffffffffffffffffffffffffffffffffffffff1690602001909291905050506122b1565b005b6102fa6123b6565b6040518082815260200191505060405180910390f35b6103186123bc565b6040518082815260200191505060405180910390f35b6103366123c2565b604051808273ffffffffffffffffffffffffffffffffffffffff16815260200191505060405180910390f35b61038e6004803603602081101561037857600080fd5b81019080803590602001909291905050506123e8565b60405180821515815260200191505060405180910390f35b6103ae612415565b6040518082815260200191505060405180910390f35b6103fa600480360360408110156103da57600080fd5b81019080803590602001909291908035906020019092919050505061241b565b6040518082815260200191505060405180910390f35b6104d36004803603604081101561042657600080fd5b81019080803590602001909291908035906020019064010000000081111561044d57600080fd5b82018360208201111561045f57600080fd5b8035906020019184600183028401116401000000008311171561048157600080fd5b91908080601f016020809104026020016040519081016040528093929190818152602001838380828437600081840152601f19601f820116905080830192505050505050509192919290505050612432565b005b6104dd612501565b6040518082815260200191505060405180910390f35b6104fb612507565b604051808273ffffffffffffffffffffffffffffffffffffffff16815260200191505060405180910390f35b6105536004803603602081101561053d57600080fd5b810190808035906020019092919050505061252d565b005b61055d612fdf565b6040518082815260200191505060405180910390f35b61057b612fe5565b6040518082815260200191505060405180910390f35b610599612feb565b6040518082815260200191505060405180910390f35b6105f1600480360360208110156105c557600080fd5b81019080803573ffffffffffffffffffffffffffffffffffffffff169060200190929190505050612ff1565b005b61061f6004803603602081101561060957600080fd5b81019080803590602001909291905050506130f6565b005b61064d6004803603602081101561063757600080fd5b81019080803590602001909291905050506131c1565b005b61068f6004803603606081101561066557600080fd5b810190808035906020019092919080359060200190929190803590602001909291905050506131f3565b6040518082815260200191505060405180910390f35b6106ad613227565b6040518082815260200191505060405180910390f35b6106f9600480360360408110156106d957600080fd5b81019080803590602001909291908035906020019092919050505061322d565b005b6107276004803603602081101561071157600080fd5b8101908080359060200190929190505050613300565b6040518087815260200186815260200185815260200184815260200183151581526020018215158152602001965050505050505060405180910390f35b61076c613356565b6040518082815260200191505060405180910390f35b6107ae6004803603602081101561079857600080fd5b810190808035906020019092919050505061335c565b005b6107dc600480360360208110156107c657600080fd5b8101908080359060200190929190505050613427565b60405180821515815260200191505060405180910390f35b6107fc613454565b6040518082815260200191505060405180910390f35b61081a61345e565b6040518082815260200191505060405180910390f35b61085c6004803603602081101561084657600080fd5b8101908080359060200190929190505050613464565b005b61086661352f565b6040518082815260200191505060405180910390f35b610884613535565b6040518082815260200191505060405180910390f35b6108c6600480360360208110156108b057600080fd5b810190808035906020019092919050505061353b565b005b6108d0613a67565b6040518082815260200191505060405180910390f35b60008054906101000a900473ffffffffffffffffffffffffffffffffffffffff1673ffffffffffffffffffffffffffffffffffffffff163373ffffffffffffffffffffffffffffffffffffffff16146109a7576040517f08c379a000000000000000000000000000000000000000000000000000000000815260040180806020018281038252600a8152602001807f6f776e6572206f6e6c790000000000000000000000000000000000000000000081525060200191505060405180910390fd5b600080600080600073ffffffffffffffffffffffffffffffffffffffff16601360009054906101000a900473ffffffffffffffffffffffffffffffffffffffff1673ffffffffffffffffffffffffffffffffffffffff166342f1bb8d876040518263ffffffff1660e01b81526004018082815260200191505060206040518083038186803b158015610a3857600080fd5b505afa158015610a4c573d6000803e3d6000fd5b505050506040513d6020811015610a6257600080fd5b810190808051906020019092919050505073ffffffffffffffffffffffffffffffffffffffff161461140d57610ab46012600087815260200190815260200160002060030154600a546007540161241b565b9350601460009054906101000a900473ffffffffffffffffffffffffffffffffffffffff1673ffffffffffffffffffffffffffffffffffffffff1663f7caf49f601360009054906101000a900473ffffffffffffffffffffffffffffffffffffffff1673ffffffffffffffffffffffffffffffffffffffff1663f438835c886040518263ffffffff1660e01b81526004018082815260200191505060206040518083038186803b158015610b6757600080fd5b505afa158015610b7b573d6000803e3d6000fd5b505050506040513d6020811015610b9157600080fd5b8101908080519060200190929190505050866040518363ffffffff1660e01b8152600401808373ffffffffffffffffffffffffffffffffffffffff16815260200182815260200192505050602060405180830381600087803b158015610bf657600080fd5b505af1158015610c0a573d6000803e3d6000fd5b505050506040513d6020811015610c2057600080fd5b8101908080519060200190929190505050610ca3576040517f08c379a00000000000000000000000000000000000000000000000000000000081526004018080602001828103825260168152602001807f6d696e7420686f737420776974682061647669736f720000000000000000000081525060200191505060405180910390fd5b610cc56012600087815260200190815260200160002060030154600f5461241b565b9150601460009054906101000a900473ffffffffffffffffffffffffffffffffffffffff1673ffffffffffffffffffffffffffffffffffffffff1663f7caf49f601360009054906101000a900473ffffffffffffffffffffffffffffffffffffffff1673ffffffffffffffffffffffffffffffffffffffff166342f1bb8d886040518263ffffffff1660e01b81526004018082815260200191505060206040518083038186803b158015610d7857600080fd5b505afa158015610d8c573d6000803e3d6000fd5b505050506040513d6020811015610da257600080fd5b8101908080519060200190929190505050846040518363ffffffff1660e01b8152600401808373ffffffffffffffffffffffffffffffffffffffff16815260200182815260200192505050602060405180830381600087803b158015610e0757600080fd5b505af1158015610e1b573d6000803e3d6000fd5b505050506040513d6020811015610e3157600080fd5b8101908080519060200190929190505050610eb4576040517f08c379a000000000000000000000000000000000000000000000000000000000815260040180806020018281038252600f8152602001807f6d696e7420746f2061647669736f72000000000000000000000000000000000081525060200191505060405180910390fd5b610f71601360009054906101000a900473ffffffffffffffffffffffffffffffffffffffff1673ffffffffffffffffffffffffffffffffffffffff166330286c37876040518263ffffffff1660e01b81526004018082815260200191505060206040518083038186803b158015610f2a57600080fd5b505afa158015610f3e573d6000803e3d6000fd5b505050506040513d6020811015610f5457600080fd5b81019080805190602001909291905050506009546008540161241b565b9250601460009054906101000a900473ffffffffffffffffffffffffffffffffffffffff1673ffffffffffffffffffffffffffffffffffffffff1663380f5bd7601360009054906101000a900473ffffffffffffffffffffffffffffffffffffffff1673ffffffffffffffffffffffffffffffffffffffff1663f438835c886040518263ffffffff1660e01b81526004018082815260200191505060206040518083038186803b15801561102457600080fd5b505afa158015611038573d6000803e3d6000fd5b505050506040513d602081101561104e57600080fd5b8101908080519060200190929190505050856040518363ffffffff1660e01b8152600401808373ffffffffffffffffffffffffffffffffffffffff16815260200182815260200192505050602060405180830381600087803b1580156110b357600080fd5b505af11580156110c7573d6000803e3d6000fd5b505050506040513d60208110156110dd57600080fd5b8101908080519060200190929190505050611160576040517f08c379a00000000000000000000000000000000000000000000000000000000081526004018080602001828103825260188152602001807f70617920746f20686f737420776974682061647669736f72000000000000000081525060200191505060405180910390fd5b611219601360009054906101000a900473ffffffffffffffffffffffffffffffffffffffff1673ffffffffffffffffffffffffffffffffffffffff166330286c37876040518263ffffffff1660e01b81526004018082815260200191505060206040518083038186803b1580156111d657600080fd5b505afa1580156111ea573d6000803e3d6000fd5b505050506040513d602081101561120057600080fd5b810190808051906020019092919050505060105461241b565b9050601460009054906101000a900473ffffffffffffffffffffffffffffffffffffffff1673ffffffffffffffffffffffffffffffffffffffff1663380f5bd7601360009054906101000a900473ffffffffffffffffffffffffffffffffffffffff1673ffffffffffffffffffffffffffffffffffffffff166342f1bb8d886040518263ffffffff1660e01b81526004018082815260200191505060206040518083038186803b1580156112cc57600080fd5b505afa1580156112e0573d6000803e3d6000fd5b505050506040513d60208110156112f657600080fd5b8101908080519060200190929190505050836040518363ffffffff1660e01b8152600401808373ffffffffffffffffffffffffffffffffffffffff16815260200182815260200192505050602060405180830381600087803b15801561135b57600080fd5b505af115801561136f573d6000803e3d6000fd5b505050506040513d602081101561138557600080fd5b8101908080519060200190929190505050611408576040517f08c379a000000000000000000000000000000000000000000000000000000000815260040180806020018281038252600e8152602001807f70617920746f2061647669736f7200000000000000000000000000000000000081525060200191505060405180910390fd5b6118c7565b61142f601260008781526020019081526020016000206003015460075461241b565b9350601460009054906101000a900473ffffffffffffffffffffffffffffffffffffffff1673ffffffffffffffffffffffffffffffffffffffff1663f7caf49f601360009054906101000a900473ffffffffffffffffffffffffffffffffffffffff1673ffffffffffffffffffffffffffffffffffffffff1663f438835c886040518263ffffffff1660e01b81526004018082815260200191505060206040518083038186803b1580156114e257600080fd5b505afa1580156114f6573d6000803e3d6000fd5b505050506040513d602081101561150c57600080fd5b8101908080519060200190929190505050866040518363ffffffff1660e01b8152600401808373ffffffffffffffffffffffffffffffffffffffff16815260200182815260200192505050602060405180830381600087803b15801561157157600080fd5b505af1158015611585573d6000803e3d6000fd5b505050506040513d602081101561159b57600080fd5b810190808051906020019092919050505061161e576040517f08c379a000000000000000000000000000000000000000000000000000000000815260040180806020018281038252600c8152602001807f6d696e7420746f20686f7374000000000000000000000000000000000000000081525060200191505060405180910390fd5b6116d7601360009054906101000a900473ffffffffffffffffffffffffffffffffffffffff1673ffffffffffffffffffffffffffffffffffffffff166330286c37876040518263ffffffff1660e01b81526004018082815260200191505060206040518083038186803b15801561169457600080fd5b505afa1580156116a8573d6000803e3d6000fd5b505050506040513d60208110156116be57600080fd5b810190808051906020019092919050505060085461241b565b9250601460009054906101000a900473ffffffffffffffffffffffffffffffffffffffff1673ffffffffffffffffffffffffffffffffffffffff1663380f5bd7601360009054906101000a900473ffffffffffffffffffffffffffffffffffffffff1673ffffffffffffffffffffffffffffffffffffffff1663f438835c886040518263ffffffff1660e01b81526004018082815260200191505060206040518083038186803b15801561178a57600080fd5b505afa15801561179e573d6000803e3d6000fd5b505050506040513d60208110156117b457600080fd5b8101908080519060200190929190505050856040518363ffffffff1660e01b8152600401808373ffffffffffffffffffffffffffffffffffffffff16815260200182815260200192505050602060405180830381600087803b15801561181957600080fd5b505af115801561182d573d6000803e3d6000fd5b505050506040513d602081101561184357600080fd5b81019080805190602001909291905050506118c6576040517f08c379a000000000000000000000000000000000000000000000000000000000815260040180806020018281038252600b8152602001807f70617920746f20686f737400000000000000000000000000000000000000000081525060200191505060405180910390fd5b5b7f8b25ea6050ae86d4a92f0105ec319f239c299ccb27723dcd9e04d02220d9f7fa8585858585604051808681526020018581526020018481526020018381526020018281526020019550505050505060405180910390a15050505050565b60115481565b60035481565b60008054906101000a900473ffffffffffffffffffffffffffffffffffffffff1673ffffffffffffffffffffffffffffffffffffffff163373ffffffffffffffffffffffffffffffffffffffff16146119f2576040517f08c379a000000000000000000000000000000000000000000000000000000000815260040180806020018281038252600a8152602001807f6f776e6572206f6e6c790000000000000000000000000000000000000000000081525060200191505060405180910390fd5b600080611a17601260008581526020019081526020016000206003015460035461241b565b9050601460009054906101000a900473ffffffffffffffffffffffffffffffffffffffff1673ffffffffffffffffffffffffffffffffffffffff1663f7caf49f60008054906101000a900473ffffffffffffffffffffffffffffffffffffffff16836040518363ffffffff1660e01b8152600401808373ffffffffffffffffffffffffffffffffffffffff16815260200182815260200192505050602060405180830381600087803b158015611acc57600080fd5b505af1158015611ae0573d6000803e3d6000fd5b505050506040513d6020811015611af657600080fd5b8101908080519060200190929190505050611b79576040517f08c379a00000000000000000000000000000000000000000000000000000000081526004018080602001828103825260158152602001807f6d696e7420646576656c6f706d656e742066756e64000000000000000000000081525060200191505060405180910390fd5b6000601360009054906101000a900473ffffffffffffffffffffffffffffffffffffffff1673ffffffffffffffffffffffffffffffffffffffff166380559173856040518263ffffffff1660e01b81526004018082815260200191505060206040518083038186803b158015611bee57600080fd5b505afa158015611c02573d6000803e3d6000fd5b505050506040513d6020811015611c1857600080fd5b81019080805190602001909291905050501115611e4b57611ce8601360009054906101000a900473ffffffffffffffffffffffffffffffffffffffff1673ffffffffffffffffffffffffffffffffffffffff166380559173856040518263ffffffff1660e01b81526004018082815260200191505060206040518083038186803b158015611ca557600080fd5b505afa158015611cb9573d6000803e3d6000fd5b505050506040513d6020811015611ccf57600080fd5b810190808051906020019092919050505060045461241b565b9150601460009054906101000a900473ffffffffffffffffffffffffffffffffffffffff1673ffffffffffffffffffffffffffffffffffffffff1663c56882b460008054906101000a900473ffffffffffffffffffffffffffffffffffffffff16846040518363ffffffff1660e01b8152600401808373ffffffffffffffffffffffffffffffffffffffff16815260200182815260200192505050602060405180830381600087803b158015611d9d57600080fd5b505af1158015611db1573d6000803e3d6000fd5b505050506040513d6020811015611dc757600080fd5b8101908080519060200190929190505050611e4a576040517f08c379a000000000000000000000000000000000000000000000000000000000815260040180806020018281038252601c8152602001807f7072656d69756d2070617920646576656c6f706d656e742066756e640000000081525060200191505060405180910390fd5b5b60008073ffffffffffffffffffffffffffffffffffffffff16601360009054906101000a900473ffffffffffffffffffffffffffffffffffffffff1673ffffffffffffffffffffffffffffffffffffffff166342f1bb8d866040518263ffffffff1660e01b81526004018082815260200191505060206040518083038186803b158015611ed757600080fd5b505afa158015611eeb573d6000803e3d6000fd5b505050506040513d6020811015611f0157600080fd5b810190808051906020019092919050505073ffffffffffffffffffffffffffffffffffffffff161415611f3e57600f54600a546005540101611f42565b6005545b90506000611f6660126000878152602001908152602001600020600301548361241b565b9050601460009054906101000a900473ffffffffffffffffffffffffffffffffffffffff1673ffffffffffffffffffffffffffffffffffffffff1663f7caf49f600160009054906101000a900473ffffffffffffffffffffffffffffffffffffffff16836040518363ffffffff1660e01b8152600401808373ffffffffffffffffffffffffffffffffffffffff16815260200182815260200192505050602060405180830381600087803b15801561201d57600080fd5b505af1158015612031573d6000803e3d6000fd5b505050506040513d602081101561204757600080fd5b81019080805190602001909291905050506120ca576040517f08c379a000000000000000000000000000000000000000000000000000000000815260040180806020018281038252601d8152602001807f6d696e7420636f6d6d756e697479206d61726b6574696e672066756e6400000081525060200191505060405180910390fd5b60006120ee601260008881526020019081526020016000206003015460065461241b565b9050601460009054906101000a900473ffffffffffffffffffffffffffffffffffffffff1673ffffffffffffffffffffffffffffffffffffffff1663f7caf49f600260009054906101000a900473ffffffffffffffffffffffffffffffffffffffff16836040518363ffffffff1660e01b8152600401808373ffffffffffffffffffffffffffffffffffffffff16815260200182815260200192505050602060405180830381600087803b1580156121a557600080fd5b505af11580156121b9573d6000803e3d6000fd5b505050506040513d60208110156121cf57600080fd5b8101908080519060200190929190505050612252576040517f08c379a00000000000000000000000000000000000000000000000000000000081526004018080602001828103825260148152602001807f6d696e74206d6f64657261746f72732066756e6400000000000000000000000081525060200191505060405180910390fd5b7f27650ccb91ed33fea2eb9b1f7cecf9d3db7cf69fe53e31fc832dcecd9f3178f38686868585604051808681526020018581526020018481526020018381526020018281526020019550505050505060405180910390a1505050505050565b60008054906101000a900473ffffffffffffffffffffffffffffffffffffffff1673ffffffffffffffffffffffffffffffffffffffff163373ffffffffffffffffffffffffffffffffffffffff1614612372576040517f08c379a000000000000000000000000000000000000000000000000000000000815260040180806020018281038252600a8152602001807f6f776e6572206f6e6c790000000000000000000000000000000000000000000081525060200191505060405180910390fd5b80600260006101000a81548173ffffffffffffffffffffffffffffffffffffffff021916908373ffffffffffffffffffffffffffffffffffffffff16021790555050565b60065481565b600d5481565b600260009054906101000a900473ffffffffffffffffffffffffffffffffffffffff1681565b60006012600083815260200190815260200160002060040160009054906101000a900460ff169050919050565b600a5481565b600060648383028161242957fe5b04905092915050565b60008054906101000a900473ffffffffffffffffffffffffffffffffffffffff1673ffffffffffffffffffffffffffffffffffffffff163373ffffffffffffffffffffffffffffffffffffffff16146124f3576040517f08c379a000000000000000000000000000000000000000000000000000000000815260040180806020018281038252600a8152602001807f6f776e6572206f6e6c790000000000000000000000000000000000000000000081525060200191505060405180910390fd5b6124fd8282613a6d565b5050565b60105481565b600160009054906101000a900473ffffffffffffffffffffffffffffffffffffffff1681565b60008054906101000a900473ffffffffffffffffffffffffffffffffffffffff1673ffffffffffffffffffffffffffffffffffffffff163373ffffffffffffffffffffffffffffffffffffffff16146125ee576040517f08c379a000000000000000000000000000000000000000000000000000000000815260040180806020018281038252600a8152602001807f6f776e6572206f6e6c790000000000000000000000000000000000000000000081525060200191505060405180910390fd5b60008073ffffffffffffffffffffffffffffffffffffffff16601360009054906101000a900473ffffffffffffffffffffffffffffffffffffffff1673ffffffffffffffffffffffffffffffffffffffff166342f1bb8d846040518263ffffffff1660e01b81526004018082815260200191505060206040518083038186803b15801561267a57600080fd5b505afa15801561268e573d6000803e3d6000fd5b505050506040513d60208110156126a457600080fd5b810190808051906020019092919050505073ffffffffffffffffffffffffffffffffffffffff1614156126dd57600d54600c54016126e1565b600c545b9050600060126000848152602001908152602001600020600101549050600061270a8483613f92565b905060005b601360009054906101000a900473ffffffffffffffffffffffffffffffffffffffff1673ffffffffffffffffffffffffffffffffffffffff166323c8778e86856040518363ffffffff1660e01b8152600401808381526020018281526020019250505060206040518083038186803b15801561278a57600080fd5b505afa15801561279e573d6000803e3d6000fd5b505050506040513d60208110156127b457600080fd5b8101908080519060200190929190505050811015612fa1576000601360009054906101000a900473ffffffffffffffffffffffffffffffffffffffff1673ffffffffffffffffffffffffffffffffffffffff16630569ae998786856040518463ffffffff1660e01b815260040180848152602001838152602001828152602001935050505060206040518083038186803b15801561285157600080fd5b505afa158015612865573d6000803e3d6000fd5b505050506040513d602081101561287b57600080fd5b8101908080519060200190929190505050905060008112612f93576000601360009054906101000a900473ffffffffffffffffffffffffffffffffffffffff1673ffffffffffffffffffffffffffffffffffffffff1663f46cf8388887866040518463ffffffff1660e01b815260040180848152602001838152602001828152602001935050505060206040518083038186803b15801561291b57600080fd5b505afa15801561292f573d6000803e3d6000fd5b505050506040513d602081101561294557600080fd5b810190808051906020019092919050505090506000848361297e601260008c815260200190815260200160002060030154600b5461241b565b028161298657fe5b049050601460009054906101000a900473ffffffffffffffffffffffffffffffffffffffff1673ffffffffffffffffffffffffffffffffffffffff1663f7caf49f83836040518363ffffffff1660e01b8152600401808373ffffffffffffffffffffffffffffffffffffffff16815260200182815260200192505050602060405180830381600087803b158015612a1c57600080fd5b505af1158015612a30573d6000803e3d6000fd5b505050506040513d6020811015612a4657600080fd5b8101908080519060200190929190505050612ac9576040517f08c379a00000000000000000000000000000000000000000000000000000000081526004018080602001828103825260088152602001807f6d696e742065787000000000000000000000000000000000000000000000000081525060200191505060405180910390fd5b60008584612b84601360009054906101000a900473ffffffffffffffffffffffffffffffffffffffff1673ffffffffffffffffffffffffffffffffffffffff166330286c378d6040518263ffffffff1660e01b81526004018082815260200191505060206040518083038186803b158015612b4357600080fd5b505afa158015612b57573d6000803e3d6000fd5b505050506040513d6020811015612b6d57600080fd5b81019080805190602001909291905050508b61241b565b0281612b8c57fe5b049050601460009054906101000a900473ffffffffffffffffffffffffffffffffffffffff1673ffffffffffffffffffffffffffffffffffffffff1663380f5bd784836040518363ffffffff1660e01b8152600401808373ffffffffffffffffffffffffffffffffffffffff16815260200182815260200192505050602060405180830381600087803b158015612c2257600080fd5b505af1158015612c36573d6000803e3d6000fd5b505050506040513d6020811015612c4c57600080fd5b8101908080519060200190929190505050612ccf576040517f08c379a00000000000000000000000000000000000000000000000000000000081526004018080602001828103825260078152602001807f706179206578700000000000000000000000000000000000000000000000000081525060200191505060405180910390fd5b6000601360009054906101000a900473ffffffffffffffffffffffffffffffffffffffff1673ffffffffffffffffffffffffffffffffffffffff1663805591738b6040518263ffffffff1660e01b81526004018082815260200191505060206040518083038186803b158015612d4457600080fd5b505afa158015612d58573d6000803e3d6000fd5b505050506040513d6020811015612d6e57600080fd5b81019080805190602001909291905050501115612f8f5760008685612e42601360009054906101000a900473ffffffffffffffffffffffffffffffffffffffff1673ffffffffffffffffffffffffffffffffffffffff1663805591738e6040518263ffffffff1660e01b81526004018082815260200191505060206040518083038186803b158015612dff57600080fd5b505afa158015612e13573d6000803e3d6000fd5b505050506040513d6020811015612e2957600080fd5b8101908080519060200190929190505050600e5461241b565b0281612e4a57fe5b049050601460009054906101000a900473ffffffffffffffffffffffffffffffffffffffff1673ffffffffffffffffffffffffffffffffffffffff1663c56882b485836040518363ffffffff1660e01b8152600401808373ffffffffffffffffffffffffffffffffffffffff16815260200182815260200192505050602060405180830381600087803b158015612ee057600080fd5b505af1158015612ef4573d6000803e3d6000fd5b505050506040513d6020811015612f0a57600080fd5b8101908080519060200190929190505050612f8d576040517f08c379a000000000000000000000000000000000000000000000000000000000815260040180806020018281038252600c8152602001807f7072656d2070617920657870000000000000000000000000000000000000000081525060200191505060405180910390fd5b505b5050505b50808060010191505061270f565b507f1e22c3f76c05a9a36262788cbb4f5ee1afd505e9a6b5a48f9b82249539202c1d846040518082815260200191505060405180910390a150505050565b600c5481565b60075481565b60085481565b60008054906101000a900473ffffffffffffffffffffffffffffffffffffffff1673ffffffffffffffffffffffffffffffffffffffff163373ffffffffffffffffffffffffffffffffffffffff16146130b2576040517f08c379a000000000000000000000000000000000000000000000000000000000815260040180806020018281038252600a8152602001807f6f776e6572206f6e6c790000000000000000000000000000000000000000000081525060200191505060405180910390fd5b80600160006101000a81548173ffffffffffffffffffffffffffffffffffffffff021916908373ffffffffffffffffffffffffffffffffffffffff16021790555050565b60008054906101000a900473ffffffffffffffffffffffffffffffffffffffff1673ffffffffffffffffffffffffffffffffffffffff163373ffffffffffffffffffffffffffffffffffffffff16146131b7576040517f08c379a000000000000000000000000000000000000000000000000000000000815260040180806020018281038252600a8152602001807f6f776e6572206f6e6c790000000000000000000000000000000000000000000081525060200191505060405180910390fd5b80600c8190555050565b60016012600083815260200190815260200160002060040160006101000a81548160ff02191690831515021790555050565b600080846064039050600085858161320757fe5b049050612710848388840202028161321b57fe5b04925050509392505050565b600b5481565b60008054906101000a900473ffffffffffffffffffffffffffffffffffffffff1673ffffffffffffffffffffffffffffffffffffffff163373ffffffffffffffffffffffffffffffffffffffff16146132ee576040517f08c379a000000000000000000000000000000000000000000000000000000000815260040180806020018281038252600a8152602001807f6f776e6572206f6e6c790000000000000000000000000000000000000000000081525060200191505060405180910390fd5b81600781905550806008819055505050565b60126020528060005260406000206000915090508060000154908060010154908060020154908060030154908060040160009054906101000a900460ff16908060040160019054906101000a900460ff16905086565b60095481565b60008054906101000a900473ffffffffffffffffffffffffffffffffffffffff1673ffffffffffffffffffffffffffffffffffffffff163373ffffffffffffffffffffffffffffffffffffffff161461341d576040517f08c379a000000000000000000000000000000000000000000000000000000000815260040180806020018281038252600a8152602001807f6f776e6572206f6e6c790000000000000000000000000000000000000000000081525060200191505060405180910390fd5b8060118190555050565b60006012600083815260200190815260200160002060040160019054906101000a900460ff169050919050565b6000601154905090565b600e5481565b60008054906101000a900473ffffffffffffffffffffffffffffffffffffffff1673ffffffffffffffffffffffffffffffffffffffff163373ffffffffffffffffffffffffffffffffffffffff1614613525576040517f08c379a000000000000000000000000000000000000000000000000000000000815260040180806020018281038252600a8152602001807f6f776e6572206f6e6c790000000000000000000000000000000000000000000081525060200191505060405180910390fd5b8060038190555050565b60055481565b60045481565b60008054906101000a900473ffffffffffffffffffffffffffffffffffffffff1673ffffffffffffffffffffffffffffffffffffffff163373ffffffffffffffffffffffffffffffffffffffff16146135fc576040517f08c379a000000000000000000000000000000000000000000000000000000000815260040180806020018281038252600a8152602001807f6f776e6572206f6e6c790000000000000000000000000000000000000000000081525060200191505060405180910390fd5b600080600080601360009054906101000a900473ffffffffffffffffffffffffffffffffffffffff1673ffffffffffffffffffffffffffffffffffffffff1663a96c2aea866040518263ffffffff1660e01b81526004018082815260200191505060206040518083038186803b15801561367557600080fd5b505afa158015613689573d6000803e3d6000fd5b505050506040513d602081101561369f57600080fd5b8101908080519060200190929190505050905060005b818110156139be5784601360009054906101000a900473ffffffffffffffffffffffffffffffffffffffff1673ffffffffffffffffffffffffffffffffffffffff166323c8778e88846040518363ffffffff1660e01b8152600401808381526020018281526020019250505060206040518083038186803b15801561373957600080fd5b505afa15801561374d573d6000803e3d6000fd5b505050506040513d602081101561376357600080fd5b8101908080519060200190929190505050111561383a57601360009054906101000a900473ffffffffffffffffffffffffffffffffffffffff1673ffffffffffffffffffffffffffffffffffffffff166323c8778e87836040518363ffffffff1660e01b8152600401808381526020018281526020019250505060206040518083038186803b1580156137f557600080fd5b505afa158015613809573d6000803e3d6000fd5b505050506040513d602081101561381f57600080fd5b810190808051906020019092919050505094508092506139b1565b84601360009054906101000a900473ffffffffffffffffffffffffffffffffffffffff1673ffffffffffffffffffffffffffffffffffffffff166323c8778e88846040518363ffffffff1660e01b8152600401808381526020018281526020019250505060206040518083038186803b1580156138b657600080fd5b505afa1580156138ca573d6000803e3d6000fd5b505050506040513d60208110156138e057600080fd5b810190808051906020019092919050505014156139b057601360009054906101000a900473ffffffffffffffffffffffffffffffffffffffff1673ffffffffffffffffffffffffffffffffffffffff166323c8778e87836040518363ffffffff1660e01b8152600401808381526020018281526020019250505060206040518083038186803b15801561397257600080fd5b505afa158015613986573d6000803e3d6000fd5b505050506040513d602081101561399c57600080fd5b810190808051906020019092919050505093505b5b80806001019150506136b5565b5083831415613a3a5760016012600087815260200190815260200160002060040160006101000a81548160ff021916908315150217905550613a35856040518060400160405280600f81526020017f6475706c69636174206578706572740000000000000000000000000000000000815250613a6d565b613a60565b816012600087815260200190815260200160002060010181905550613a5f82866141f9565b5b5050505050565b600f5481565b60005b601360009054906101000a900473ffffffffffffffffffffffffffffffffffffffff1673ffffffffffffffffffffffffffffffffffffffff1663a96c2aea846040518263ffffffff1660e01b81526004018082815260200191505060206040518083038186803b158015613ae357600080fd5b505afa158015613af7573d6000803e3d6000fd5b505050506040513d6020811015613b0d57600080fd5b8101908080519060200190929190505050811015613eba5760005b601360009054906101000a900473ffffffffffffffffffffffffffffffffffffffff1673ffffffffffffffffffffffffffffffffffffffff166371aee94585846040518363ffffffff1660e01b8152600401808381526020018281526020019250505060206040518083038186803b158015613ba357600080fd5b505afa158015613bb7573d6000803e3d6000fd5b505050506040513d6020811015613bcd57600080fd5b8101908080519060200190929190505050811015613eac57601460009054906101000a900473ffffffffffffffffffffffffffffffffffffffff1673ffffffffffffffffffffffffffffffffffffffff1663380f5bd7601360009054906101000a900473ffffffffffffffffffffffffffffffffffffffff1673ffffffffffffffffffffffffffffffffffffffff16637c997f678786866040518463ffffffff1660e01b815260040180848152602001838152602001828152602001935050505060206040518083038186803b158015613ca657600080fd5b505afa158015613cba573d6000803e3d6000fd5b505050506040513d6020811015613cd057600080fd5b8101908080519060200190929190505050601360009054906101000a900473ffffffffffffffffffffffffffffffffffffffff1673ffffffffffffffffffffffffffffffffffffffff1663859f0f6a8887876040518463ffffffff1660e01b815260040180848152602001838152602001828152602001935050505060206040518083038186803b158015613d6457600080fd5b505afa158015613d78573d6000803e3d6000fd5b505050506040513d6020811015613d8e57600080fd5b81019080805190602001909291905050506040518363ffffffff1660e01b8152600401808373ffffffffffffffffffffffffffffffffffffffff16815260200182815260200192505050602060405180830381600087803b158015613df257600080fd5b505af1158015613e06573d6000803e3d6000fd5b505050506040513d6020811015613e1c57600080fd5b8101908080519060200190929190505050613e9f576040517f08c379a000000000000000000000000000000000000000000000000000000000815260040180806020018281038252600a8152602001807f726576657274206265740000000000000000000000000000000000000000000081525060200191505060405180910390fd5b8080600101915050613b28565b508080600101915050613a70565b5060016012600084815260200190815260200160002060040160006101000a81548160ff0219169083151502179055507f847521552ad126e64c52b14640c804737bd67f2b6674309b332d1e5b17f857d182826040518083815260200180602001828103825283818151815260200191508051906020019080838360005b83811015613f53578082015181840152602081019050613f38565b50505050905090810190601f168015613f805780820380516001836020036101000a031916815260200191505b50935050505060405180910390a15050565b6000806000905060005b601360009054906101000a900473ffffffffffffffffffffffffffffffffffffffff1673ffffffffffffffffffffffffffffffffffffffff166323c8778e86866040518363ffffffff1660e01b8152600401808381526020018281526020019250505060206040518083038186803b15801561401757600080fd5b505afa15801561402b573d6000803e3d6000fd5b505050506040513d602081101561404157600080fd5b81019080805190602001909291905050508110156141ee576000601360009054906101000a900473ffffffffffffffffffffffffffffffffffffffff1673ffffffffffffffffffffffffffffffffffffffff16630569ae998787856040518463ffffffff1660e01b815260040180848152602001838152602001828152602001935050505060206040518083038186803b1580156140de57600080fd5b505afa1580156140f2573d6000803e3d6000fd5b505050506040513d602081101561410857600080fd5b8101908080519060200190929190505050126141e157601360009054906101000a900473ffffffffffffffffffffffffffffffffffffffff1673ffffffffffffffffffffffffffffffffffffffff16630569ae998686846040518463ffffffff1660e01b815260040180848152602001838152602001828152602001935050505060206040518083038186803b1580156141a157600080fd5b505afa1580156141b5573d6000803e3d6000fd5b505050506040513d60208110156141cb57600080fd5b8101908080519060200190929190505050820191505b8080600101915050613f9c565b508091505092915050565b600080600090505b601360009054906101000a900473ffffffffffffffffffffffffffffffffffffffff1673ffffffffffffffffffffffffffffffffffffffff166371aee94584866040518363ffffffff1660e01b8152600401808381526020018281526020019250505060206040518083038186803b15801561427c57600080fd5b505afa158015614290573d6000803e3d6000fd5b505050506040513d60208110156142a657600080fd5b810190808051906020019092919050505081101561438d57601360009054906101000a900473ffffffffffffffffffffffffffffffffffffffff1673ffffffffffffffffffffffffffffffffffffffff1663859f0f6a8486846040518463ffffffff1660e01b815260040180848152602001838152602001828152602001935050505060206040518083038186803b15801561434157600080fd5b505afa158015614355573d6000803e3d6000fd5b505050506040513d602081101561436b57600080fd5b8101908080519060200190929190505050820191508080600101915050614201565b50600081601360009054906101000a900473ffffffffffffffffffffffffffffffffffffffff1673ffffffffffffffffffffffffffffffffffffffff166330286c37856040518263ffffffff1660e01b81526004018082815260200191505060206040518083038186803b15801561440457600080fd5b505afa158015614418573d6000803e3d6000fd5b505050506040513d602081101561442e57600080fd5b8101908080519060200190929190505050039050600081141561448f5761448a836040518060400160405280601581526020017f706c61792063686f7365206f6e6520616e737765720000000000000000000000815250612432565b614679565b8060126000858152602001908152602001600020600201819055506000614613601360009054906101000a900473ffffffffffffffffffffffffffffffffffffffff1673ffffffffffffffffffffffffffffffffffffffff1663f946c207866040518263ffffffff1660e01b81526004018082815260200191505060206040518083038186803b15801561452257600080fd5b505afa158015614536573d6000803e3d6000fd5b505050506040513d602081101561454c57600080fd5b8101908080519060200190929190505050601360009054906101000a900473ffffffffffffffffffffffffffffffffffffffff1673ffffffffffffffffffffffffffffffffffffffff166330286c37876040518263ffffffff1660e01b81526004018082815260200191505060206040518083038186803b1580156145d057600080fd5b505afa1580156145e4573d6000803e3d6000fd5b505050506040513d60208110156145fa57600080fd5b81019080805190602001909291905050506011546131f3565b90508060126000868152602001908152602001600020600301819055507f379c6b224a7fe6850c58f9de93dac19c04862dd67059a1948f1f9d70a1fe0f9f84828760405180848152602001838152602001828152602001935050505060405180910390a1505b5050505056fea2646970667358221220b5d789162d7d5047237bb4a054703c90b9f0740cd7395c171e429fb44744165f64736f6c63430007060033",
  "immutableReferences": {},
  "source": "// SPDX-License-Identifier: MIT\npragma solidity >=0.4.22 <0.9.0;\nimport {PubStruct} from \"../../struct/PubStruct.sol\";\nimport {PublicEvents} from \"./PublicEvents.sol\";\nimport {MPStruct} from \"../../struct/MPStruct.sol\";\nimport {Libs} from \"./Libs.sol\";\nimport {MPConfig} from \"../../config/MPConfig.sol\";\n\ncontract MiddlePayment is Libs, MPConfig, MPStruct {\n    PubStruct eventsData;\n    PublicEvents PublicAddr;\n\n    event payToCompanies(int id, uint tokens, uint correctAnswer);\n    event payToHost(int id, uint premDF, uint mintDF, uint mintCMF, uint mintMF);\n    event payToExperts(int id, uint mintHost, uint payHost, uint mintAdv, uint payAdv);\n    event payToPlayers(int id);\n    event revertedEvent(int id, string purpose);\n\n    constructor(PublicEvents _addr) {\n        PublicAddr = _addr;\n        eventsData = PubStruct(_addr);\n    }\n\n    function letsFindCorrectAnswer(int _id) public {\n        require(msg.sender == owner, \"owner only\");\n        uint bigValue = 0;\n        uint candDub = 0;\n        uint correctAnswer;\n        uint questAmount = eventsData.getQuestAmount(_id);\n\n        // find correct answer\n        for (uint i = 0; i < questAmount; i++) {\n            if (eventsData.getExpertAmount(_id, i) > bigValue) {\n                bigValue = eventsData.getExpertAmount(_id, i);\n                correctAnswer = i;\n            } else if (eventsData.getExpertAmount(_id, i) == bigValue) {\n                candDub = eventsData.getExpertAmount(_id, i);\n            }\n        }\n\n        if (candDub == bigValue) {\n            MPData[_id].reverted = true;\n            revertPayment(_id, \"duplicat expert\");\n        } else {\n            MPData[_id].correctAnswer = correctAnswer;\n            findLosersPool(correctAnswer, _id);\n        }\n    }\n\n    function findLosersPool(uint correctAnswer, int _id) private {\n        uint B;\n        for (uint i = 0; i < eventsData.getPlayerAmount(_id, correctAnswer); i++) {\n            B = B + eventsData.getPlayerTokens(_id, correctAnswer, i);\n        }\n        uint lP = eventsData.getPool(_id) - B;\n        if (lP == 0) {\n            revertedPayment(_id, \"play chose one answer\");\n        } else {\n            MPData[_id].loserPool = lP;\n            // calculate minted tokens\n            uint tokens =\n                calcMintedTokens(\n                    eventsData.getActivePlayers(_id),\n                    eventsData.getPool(_id),\n                    GFindex\n                );\n            MPData[_id].tokenMinted = tokens;\n            emit payToCompanies(_id, tokens, correctAnswer);\n        }\n    }\n\n    function revertedPayment(int _id, string memory purpose)\n        public\n    {\n        require(msg.sender == owner, \"owner only\");\n        revertPayment(_id, purpose);\n    }\n\n    function revertPayment(int _id, string memory purpose) private {\n        for (uint i = 0; i < eventsData.getQuestAmount(_id); i++) {\n            for (uint z = 0; z < eventsData.getPlayerAmount(_id, i); z++) {\n                require(\n                    PublicAddr.payForMP(eventsData.getPlayerWallet(_id, i, z), eventsData.getPlayerTokens(_id, i, z)),\n                    \"revert bet\"\n                );\n            }\n        }\n        MPData[_id].reverted = true;\n        emit revertedEvent(_id, purpose);\n    }\n\n    function letsPayToCompanies(int _id) public {\n        require(msg.sender == owner, \"owner only\");\n        // pay to Development Fund\n        uint premDF = 0;\n        uint mintDF = getPercent(MPData[_id].tokenMinted, developFundPerc);\n        require( PublicAddr.mintForMP(owner, mintDF), \"mint development fund\" );\n        if (eventsData.getPremiumAmount(_id) > 0) {\n            premDF = getPercent(eventsData.getPremiumAmount(_id), developFundPercPremim );\n            require(                \n                PublicAddr.payBTYFroMP(owner, premDF),\n                \"premium pay development fund\"\n            );\n        }\n        // pay to Community Marketing Fund\n        uint percentCMF = eventsData.getAdvisorAddr(_id) != address(0)\n                ? comMarketFundPerc\n                : comMarketFundPerc + extraHostPercMint + advisorPercMint;\n        uint mintCMF = getPercent(MPData[_id].tokenMinted, percentCMF);         \n        require(\n            PublicAddr.mintForMP(comMarketFundWallet, mintCMF),\n            \"mint community marketing fund\"\n        );\n\n        uint mintMF = getPercent(MPData[_id].tokenMinted, moderatorsFundPerc);\n        // pay to Moderators Fund\n        require(\n            PublicAddr.mintForMP(moderatorsFundWallet, mintMF),\n            \"mint moderators fund\"\n        );\n        emit payToHost(_id, premDF, mintDF, mintCMF, mintMF);\n    }\n\n    function letsPaytoHost(int _id) public {\n        require(msg.sender == owner, \"owner only\");\n        uint mintHost = 0;\n        uint payHost = 0;\n        uint mintAdv = 0;\n        uint payAdv = 0;\n        if (eventsData.getAdvisorAddr(_id) != address(0)) {\n            // pay minted tokens\n            mintHost = getPercent( MPData[_id].tokenMinted, hostPercMint + extraHostPercMint);\n            require(\n                PublicAddr.mintForMP(eventsData.getHostAddr(_id), mintHost),\n                \"mint host with advisor\"\n            );\n            mintAdv = getPercent(MPData[_id].tokenMinted, advisorPercMint);\n            require(\n                PublicAddr.mintForMP(eventsData.getAdvisorAddr(_id), mintAdv),\n                \"mint to advisor\"\n            );\n            // pay not minted tokens\n            payHost = getPercent(eventsData.getPool(_id), hostPerc + extraHostPerc);\n            require(\n                PublicAddr.payForMP(eventsData.getHostAddr(_id), payHost),\n                \"pay to host with advisor\"\n            );\n            payAdv = getPercent(eventsData.getPool(_id), advisorPepc);\n            require(\n                PublicAddr.payForMP(eventsData.getAdvisorAddr(_id), payAdv),\n                \"pay to advisor\"\n            );\n        } else {\n            // mint to host\n            mintHost = getPercent(MPData[_id].tokenMinted, hostPercMint);\n            require(\n                PublicAddr.mintForMP(eventsData.getHostAddr(_id), mintHost),\n                \"mint to host\"\n            );\n            payHost = getPercent(eventsData.getPool(_id), hostPerc);\n            // pay to host\n            require(\n                PublicAddr.payForMP(eventsData.getHostAddr(_id), payHost),\n                \"pay to host\"\n            );\n        }\n        emit payToExperts(_id, mintHost, payHost, mintAdv, payAdv);\n    }\n\n    function letsPayToExperts(int _id) public {\n        require(msg.sender == owner, \"owner only\");\n        uint percent = eventsData.getAdvisorAddr(_id) != address(0)\n                ? expertPerc\n                : expertPerc + expertExtraPerc;\n        uint correctAnswer = MPData[_id].correctAnswer;\n        int allReputation = calcReput(_id, correctAnswer);\n\n        for (uint i = 0; i < eventsData.getExpertAmount(_id, correctAnswer); i++ ) {\n            int reputation = eventsData.getExpertReput(_id, correctAnswer, i);\n            if (reputation >= 0) {\n                address payable expertWallet = eventsData.getExpertWallet(_id, correctAnswer, i);\n\n                // mint tokens\n                uint amountMint = (getPercent(MPData[_id].tokenMinted, expertPercMint) * uint(reputation)) / uint(allReputation);\n                require(PublicAddr.mintForMP(expertWallet, amountMint), \"mint exp\");\n\n                // pay tokens\n                uint amount = (getPercent(eventsData.getPool(_id), percent) * uint(reputation)) / uint(allReputation);\n                require(PublicAddr.payForMP(expertWallet, amount), \"pay exp\");\n\n                // pay in premium events\n                if (eventsData.getPremiumAmount(_id) > 0) {\n                    uint premiumAmount = (getPercent(eventsData.getPremiumAmount(_id), expertPremiumPerc ) * uint(reputation)) / uint(allReputation);\n                    require(PublicAddr.payBTYFroMP(expertWallet, premiumAmount),\"prem pay exp\");\n                }\n       \n            }\n        }\n        emit payToPlayers(_id);\n    }\n    \n    function calcReput(int _id, uint correctAnswer) private view returns(int) { \n        int allReputation = 0;\n        for ( uint i = 0; i < eventsData.getExpertAmount(_id, correctAnswer); i++ ) {\n            if ( eventsData.getExpertReput(_id, correctAnswer, i) >= 0 ) {\n                allReputation = allReputation + eventsData.getExpertReput(_id, correctAnswer, i);\n            }\n        }\n        return allReputation;\n    }\n}\n",
  "sourcePath": "/Users/macbook/Documents/freelance/tokenominc/contracts/events/PublicEvents/MiddlePayment.sol",
  "compiler": {
    "name": "solc",
    "version": "0.7.6+commit.7338295f.Linux.g++"
  },
  "schemaVersion": "3.3.4",
  "updatedAt": "2021-03-12T13:15:32.058Z",
  "devdoc": {
    "kind": "dev",
    "methods": {},
    "version": 1
  },
  "userdoc": {
    "kind": "user",
    "methods": {},
    "version": 1
  }
}