{
  "contractName": "MiddlePayment",
  "abi": [
    {
      "inputs": [
        {
          "internalType": "contract PublicEvents",
          "name": "_addr",
          "type": "address"
        }
      ],
      "stateMutability": "nonpayable",
      "type": "constructor"
    },
    {
      "anonymous": false,
      "inputs": [
        {
          "indexed": false,
          "internalType": "int256",
          "name": "id",
          "type": "int256"
        },
        {
          "indexed": false,
          "internalType": "uint256",
          "name": "tokens",
          "type": "uint256"
        },
        {
          "indexed": false,
          "internalType": "uint256",
          "name": "correctAnswer",
          "type": "uint256"
        }
      ],
      "name": "payToCompanies",
      "type": "event"
    },
    {
      "anonymous": false,
      "inputs": [
        {
          "indexed": false,
          "internalType": "int256",
          "name": "id",
          "type": "int256"
        },
        {
          "indexed": false,
          "internalType": "uint256",
          "name": "mintHost",
          "type": "uint256"
        },
        {
          "indexed": false,
          "internalType": "uint256",
          "name": "payHost",
          "type": "uint256"
        },
        {
          "indexed": false,
          "internalType": "uint256",
          "name": "mintAdv",
          "type": "uint256"
        },
        {
          "indexed": false,
          "internalType": "uint256",
          "name": "payAdv",
          "type": "uint256"
        }
      ],
      "name": "payToExperts",
      "type": "event"
    },
    {
      "anonymous": false,
      "inputs": [
        {
          "indexed": false,
          "internalType": "int256",
          "name": "id",
          "type": "int256"
        },
        {
          "indexed": false,
          "internalType": "uint256",
          "name": "premDF",
          "type": "uint256"
        },
        {
          "indexed": false,
          "internalType": "uint256",
          "name": "mintDF",
          "type": "uint256"
        },
        {
          "indexed": false,
          "internalType": "uint256",
          "name": "mintCMF",
          "type": "uint256"
        },
        {
          "indexed": false,
          "internalType": "uint256",
          "name": "mintMF",
          "type": "uint256"
        }
      ],
      "name": "payToHost",
      "type": "event"
    },
    {
      "anonymous": false,
      "inputs": [
        {
          "indexed": false,
          "internalType": "int256",
          "name": "id",
          "type": "int256"
        }
      ],
      "name": "payToPlayers",
      "type": "event"
    },
    {
      "anonymous": false,
      "inputs": [
        {
          "indexed": false,
          "internalType": "int256",
          "name": "id",
          "type": "int256"
        },
        {
          "indexed": false,
          "internalType": "string",
          "name": "purpose",
          "type": "string"
        }
      ],
      "name": "revertedEvent",
      "type": "event"
    },
    {
      "inputs": [],
      "name": "GFindex",
      "outputs": [
        {
          "internalType": "uint256",
          "name": "",
          "type": "uint256"
        }
      ],
      "stateMutability": "view",
      "type": "function"
    },
    {
      "inputs": [
        {
          "internalType": "int256",
          "name": "",
          "type": "int256"
        }
      ],
      "name": "MPData",
      "outputs": [
        {
          "internalType": "int256",
          "name": "id",
          "type": "int256"
        },
        {
          "internalType": "uint256",
          "name": "correctAnswer",
          "type": "uint256"
        },
        {
          "internalType": "uint256",
          "name": "loserPool",
          "type": "uint256"
        },
        {
          "internalType": "uint256",
          "name": "tokenMinted",
          "type": "uint256"
        },
        {
          "internalType": "bool",
          "name": "reverted",
          "type": "bool"
        },
        {
          "internalType": "bool",
          "name": "eventFinish",
          "type": "bool"
        }
      ],
      "stateMutability": "view",
      "type": "function"
    },
    {
      "inputs": [],
      "name": "advisorPepc",
      "outputs": [
        {
          "internalType": "uint256",
          "name": "",
          "type": "uint256"
        }
      ],
      "stateMutability": "view",
      "type": "function"
    },
    {
      "inputs": [],
      "name": "advisorPercMint",
      "outputs": [
        {
          "internalType": "uint256",
          "name": "",
          "type": "uint256"
        }
      ],
      "stateMutability": "view",
      "type": "function"
    },
    {
      "inputs": [
        {
          "internalType": "uint256",
          "name": "_activePlayers",
          "type": "uint256"
        },
        {
          "internalType": "uint256",
          "name": "_pool",
          "type": "uint256"
        },
        {
          "internalType": "uint256",
          "name": "_GFindex",
          "type": "uint256"
        }
      ],
      "name": "calcMintedTokens",
      "outputs": [
        {
          "internalType": "uint256",
          "name": "",
          "type": "uint256"
        }
      ],
      "stateMutability": "pure",
      "type": "function"
    },
    {
      "inputs": [
        {
          "internalType": "int256",
          "name": "_id",
          "type": "int256"
        }
      ],
      "name": "checkEventFinish",
      "outputs": [
        {
          "internalType": "bool",
          "name": "",
          "type": "bool"
        }
      ],
      "stateMutability": "view",
      "type": "function"
    },
    {
      "inputs": [
        {
          "internalType": "int256",
          "name": "_id",
          "type": "int256"
        }
      ],
      "name": "checkReverted",
      "outputs": [
        {
          "internalType": "bool",
          "name": "",
          "type": "bool"
        }
      ],
      "stateMutability": "view",
      "type": "function"
    },
    {
      "inputs": [],
      "name": "comMarketFundPerc",
      "outputs": [
        {
          "internalType": "uint256",
          "name": "",
          "type": "uint256"
        }
      ],
      "stateMutability": "view",
      "type": "function"
    },
    {
      "inputs": [],
      "name": "comMarketFundWallet",
      "outputs": [
        {
          "internalType": "address payable",
          "name": "",
          "type": "address"
        }
      ],
      "stateMutability": "view",
      "type": "function"
    },
    {
      "inputs": [],
      "name": "developFundPerc",
      "outputs": [
        {
          "internalType": "uint256",
          "name": "",
          "type": "uint256"
        }
      ],
      "stateMutability": "view",
      "type": "function"
    },
    {
      "inputs": [],
      "name": "developFundPercPremim",
      "outputs": [
        {
          "internalType": "uint256",
          "name": "",
          "type": "uint256"
        }
      ],
      "stateMutability": "view",
      "type": "function"
    },
    {
      "inputs": [],
      "name": "expertExtraPerc",
      "outputs": [
        {
          "internalType": "uint256",
          "name": "",
          "type": "uint256"
        }
      ],
      "stateMutability": "view",
      "type": "function"
    },
    {
      "inputs": [],
      "name": "expertPerc",
      "outputs": [
        {
          "internalType": "uint256",
          "name": "",
          "type": "uint256"
        }
      ],
      "stateMutability": "view",
      "type": "function"
    },
    {
      "inputs": [],
      "name": "expertPercMint",
      "outputs": [
        {
          "internalType": "uint256",
          "name": "",
          "type": "uint256"
        }
      ],
      "stateMutability": "view",
      "type": "function"
    },
    {
      "inputs": [],
      "name": "expertPremiumPerc",
      "outputs": [
        {
          "internalType": "uint256",
          "name": "",
          "type": "uint256"
        }
      ],
      "stateMutability": "view",
      "type": "function"
    },
    {
      "inputs": [],
      "name": "extraHostPerc",
      "outputs": [
        {
          "internalType": "uint256",
          "name": "",
          "type": "uint256"
        }
      ],
      "stateMutability": "view",
      "type": "function"
    },
    {
      "inputs": [],
      "name": "extraHostPercMint",
      "outputs": [
        {
          "internalType": "uint256",
          "name": "",
          "type": "uint256"
        }
      ],
      "stateMutability": "view",
      "type": "function"
    },
    {
      "inputs": [
        {
          "internalType": "int256",
          "name": "_id",
          "type": "int256"
        }
      ],
      "name": "getCorrectAnswer",
      "outputs": [
        {
          "internalType": "uint256",
          "name": "",
          "type": "uint256"
        }
      ],
      "stateMutability": "view",
      "type": "function"
    },
    {
      "inputs": [],
      "name": "getGFindex",
      "outputs": [
        {
          "internalType": "uint256",
          "name": "",
          "type": "uint256"
        }
      ],
      "stateMutability": "view",
      "type": "function"
    },
    {
      "inputs": [
        {
          "internalType": "int256",
          "name": "_id",
          "type": "int256"
        }
      ],
      "name": "getLoserPool",
      "outputs": [
        {
          "internalType": "uint256",
          "name": "",
          "type": "uint256"
        }
      ],
      "stateMutability": "view",
      "type": "function"
    },
    {
      "inputs": [
        {
          "internalType": "uint256",
          "name": "_percent",
          "type": "uint256"
        },
        {
          "internalType": "uint256",
          "name": "_from",
          "type": "uint256"
        }
      ],
      "name": "getPercent",
      "outputs": [
        {
          "internalType": "uint256",
          "name": "",
          "type": "uint256"
        }
      ],
      "stateMutability": "pure",
      "type": "function"
    },
    {
      "inputs": [
        {
          "internalType": "int256",
          "name": "_id",
          "type": "int256"
        }
      ],
      "name": "getTokenMinted",
      "outputs": [
        {
          "internalType": "uint256",
          "name": "",
          "type": "uint256"
        }
      ],
      "stateMutability": "view",
      "type": "function"
    },
    {
      "inputs": [],
      "name": "hostPerc",
      "outputs": [
        {
          "internalType": "uint256",
          "name": "",
          "type": "uint256"
        }
      ],
      "stateMutability": "view",
      "type": "function"
    },
    {
      "inputs": [],
      "name": "hostPercMint",
      "outputs": [
        {
          "internalType": "uint256",
          "name": "",
          "type": "uint256"
        }
      ],
      "stateMutability": "view",
      "type": "function"
    },
    {
      "inputs": [],
      "name": "moderatorsFundPerc",
      "outputs": [
        {
          "internalType": "uint256",
          "name": "",
          "type": "uint256"
        }
      ],
      "stateMutability": "view",
      "type": "function"
    },
    {
      "inputs": [],
      "name": "moderatorsFundWallet",
      "outputs": [
        {
          "internalType": "address payable",
          "name": "",
          "type": "address"
        }
      ],
      "stateMutability": "view",
      "type": "function"
    },
    {
      "inputs": [
        {
          "internalType": "address",
          "name": "_ppaddr",
          "type": "address"
        }
      ],
      "name": "setAddresses",
      "outputs": [],
      "stateMutability": "nonpayable",
      "type": "function"
    },
    {
      "inputs": [
        {
          "internalType": "uint256",
          "name": "_adPercMint",
          "type": "uint256"
        },
        {
          "internalType": "uint256",
          "name": "_adPerc",
          "type": "uint256"
        }
      ],
      "name": "setAdvisorPerc",
      "outputs": [],
      "stateMutability": "nonpayable",
      "type": "function"
    },
    {
      "inputs": [
        {
          "internalType": "uint256",
          "name": "_ePercMint",
          "type": "uint256"
        },
        {
          "internalType": "uint256",
          "name": "_ePerc",
          "type": "uint256"
        },
        {
          "internalType": "uint256",
          "name": "_eExtraPerc",
          "type": "uint256"
        },
        {
          "internalType": "uint256",
          "name": "_ePremPerc",
          "type": "uint256"
        }
      ],
      "name": "setExpertPerc",
      "outputs": [],
      "stateMutability": "nonpayable",
      "type": "function"
    },
    {
      "inputs": [
        {
          "internalType": "int256",
          "name": "_id",
          "type": "int256"
        }
      ],
      "name": "setFinishEvent",
      "outputs": [],
      "stateMutability": "nonpayable",
      "type": "function"
    },
    {
      "inputs": [
        {
          "internalType": "uint256",
          "name": "_dFPerc",
          "type": "uint256"
        },
        {
          "internalType": "uint256",
          "name": "_dFPPremim",
          "type": "uint256"
        },
        {
          "internalType": "uint256",
          "name": "_cMFPerc",
          "type": "uint256"
        },
        {
          "internalType": "uint256",
          "name": "_mFPerc",
          "type": "uint256"
        }
      ],
      "name": "setFundPerc",
      "outputs": [],
      "stateMutability": "nonpayable",
      "type": "function"
    },
    {
      "inputs": [
        {
          "internalType": "address payable",
          "name": "_CMFWallet",
          "type": "address"
        },
        {
          "internalType": "address payable",
          "name": "_MFWallet",
          "type": "address"
        }
      ],
      "name": "setFundWallet",
      "outputs": [],
      "stateMutability": "nonpayable",
      "type": "function"
    },
    {
      "inputs": [
        {
          "internalType": "uint256",
          "name": "_GFindex",
          "type": "uint256"
        }
      ],
      "name": "setGFindex",
      "outputs": [],
      "stateMutability": "nonpayable",
      "type": "function"
    },
    {
      "inputs": [
        {
          "internalType": "uint256",
          "name": "_hostPercMint",
          "type": "uint256"
        },
        {
          "internalType": "uint256",
          "name": "_hostPerc",
          "type": "uint256"
        },
        {
          "internalType": "uint256",
          "name": "_eHPerc",
          "type": "uint256"
        },
        {
          "internalType": "uint256",
          "name": "_eHPMint",
          "type": "uint256"
        }
      ],
      "name": "setHostPerc",
      "outputs": [],
      "stateMutability": "nonpayable",
      "type": "function"
    },
    {
      "inputs": [
        {
          "internalType": "int256",
          "name": "_id",
          "type": "int256"
        }
      ],
      "name": "setReverted",
      "outputs": [],
      "stateMutability": "nonpayable",
      "type": "function"
    },
    {
      "inputs": [
        {
          "internalType": "int256",
          "name": "_id",
          "type": "int256"
        }
      ],
      "name": "letsFindCorrectAnswer",
      "outputs": [],
      "stateMutability": "nonpayable",
      "type": "function"
    },
    {
      "inputs": [
        {
          "internalType": "int256",
          "name": "_id",
          "type": "int256"
        },
        {
          "internalType": "string",
          "name": "purpose",
          "type": "string"
        }
      ],
      "name": "revertedPayment",
      "outputs": [],
      "stateMutability": "nonpayable",
      "type": "function"
    },
    {
      "inputs": [
        {
          "internalType": "int256",
          "name": "_id",
          "type": "int256"
        }
      ],
      "name": "letsPayToCompanies",
      "outputs": [],
      "stateMutability": "nonpayable",
      "type": "function"
    },
    {
      "inputs": [
        {
          "internalType": "int256",
          "name": "_id",
          "type": "int256"
        }
      ],
      "name": "letsPaytoHost",
      "outputs": [],
      "stateMutability": "nonpayable",
      "type": "function"
    },
    {
      "inputs": [
        {
          "internalType": "int256",
          "name": "_id",
          "type": "int256"
        }
      ],
      "name": "letsPayToExperts",
      "outputs": [],
      "stateMutability": "nonpayable",
      "type": "function"
    }
  ],
  "bytecode": "0x6080604052600a600355600a600455600580556002600655600a600755600460085560016009556001600a55600a600b556004600c556002600d55600f600e556002600f556001601055606460115534801561005a57600080fd5b5060405162004e4038038062004e408339818101604052602081101561007f57600080fd5b8101908080519060200190929190505050336000806101000a81548173ffffffffffffffffffffffffffffffffffffffff021916908373ffffffffffffffffffffffffffffffffffffffff16021790555033601260006101000a81548173ffffffffffffffffffffffffffffffffffffffff021916908373ffffffffffffffffffffffffffffffffffffffff16021790555080601760006101000a81548173ffffffffffffffffffffffffffffffffffffffff021916908373ffffffffffffffffffffffffffffffffffffffff16021790555080601860006101000a81548173ffffffffffffffffffffffffffffffffffffffff021916908373ffffffffffffffffffffffffffffffffffffffff16021790555080601660006101000a81548173ffffffffffffffffffffffffffffffffffffffff021916908373ffffffffffffffffffffffffffffffffffffffff16021790555050614c5b80620001e56000396000f3fe608060405234801561001057600080fd5b50600436106102485760003560e01c8063896aa7a41161013b578063c369085e116100b8578063e1755c6a1161007c578063e1755c6a146109e5578063e1dcc40914610a03578063e79f365d14610a21578063f7ec585114610a4f578063fab5102c14610a6d57610248565b8063c369085e146108eb578063cb95c20414610919578063d343c1dc14610965578063d70b4bb6146109a9578063dba8fe87146109c757610248565b8063aaa3091e116100ff578063aaa3091e146107ae578063af9ace4514610804578063bc26b10114610822578063bdc9055414610864578063c12c8c46146108cd57610248565b8063896aa7a4146106c25780638a571fcc146106e05780638a9dbda7146107445780638fc8bc42146107625780639ec2345a1461078057610248565b80633467f697116101c9578063769c48981161018d578063769c489814610539578063786508c5146105fe578063802cc34c1461061c57806381d3c43514610650578063870d94501461069457610248565b80633467f6971461040b578063362e41b61461043f57806355e841581461048357806362219866146104a1578063684a3247146104ed57610248565b80631f36c483116102105780631f36c4831461032757806324beedd3146103555780632819bd02146103735780632c316d05146103ab5780632c7d577e146103c957610248565b8063051e9ea71461024d5780630583e6ee1461027b57806305b442ee146102a957806315cfe419146102eb5780631c40835714610309575b600080fd5b6102796004803603602081101561026357600080fd5b8101908080359060200190929190505050610ab9565b005b6102a76004803603602081101561029157600080fd5b8101908080359060200190929190505050611af8565b005b6102d5600480360360208110156102bf57600080fd5b8101908080359060200190929190505050611bed565b6040518082815260200191505060405180910390f35b6102f3611c0d565b6040518082815260200191505060405180910390f35b610311611c13565b6040518082815260200191505060405180910390f35b6103536004803603602081101561033d57600080fd5b8101908080359060200190929190505050611c19565b005b61035d612599565b6040518082815260200191505060405180910390f35b6103a96004803603604081101561038957600080fd5b81019080803590602001909291908035906020019092919050505061259f565b005b6103b3612672565b6040518082815260200191505060405180910390f35b6103f5600480360360208110156103df57600080fd5b8101908080359060200190929190505050612678565b6040518082815260200191505060405180910390f35b610413612698565b604051808273ffffffffffffffffffffffffffffffffffffffff16815260200191505060405180910390f35b61046b6004803603602081101561045557600080fd5b81019080803590602001909291905050506126be565b60405180821515815260200191505060405180910390f35b61048b6126eb565b6040518082815260200191505060405180910390f35b6104d7600480360360408110156104b757600080fd5b8101908080359060200190929190803590602001909291905050506126f1565b6040518082815260200191505060405180910390f35b6105376004803603608081101561050357600080fd5b8101908080359060200190929190803590602001909291908035906020019092919080359060200190929190505050612708565b005b6105fc6004803603604081101561054f57600080fd5b81019080803590602001909291908035906020019064010000000081111561057657600080fd5b82018360208201111561058857600080fd5b803590602001918460018302840111640100000000831117156105aa57600080fd5b91908080601f016020809104026020016040519081016040528093929190818152602001838380828437600081840152601f19601f8201169050808301925050505050505091929192905050506127eb565b005b610606612912565b6040518082815260200191505060405180910390f35b610624612918565b604051808273ffffffffffffffffffffffffffffffffffffffff16815260200191505060405180910390f35b6106926004803603602081101561066657600080fd5b81019080803573ffffffffffffffffffffffffffffffffffffffff16906020019092919050505061293e565b005b6106c0600480360360208110156106aa57600080fd5b8101908080359060200190929190505050612a45565b005b6106ca6134f7565b6040518082815260200191505060405180910390f35b610742600480360360408110156106f657600080fd5b81019080803573ffffffffffffffffffffffffffffffffffffffff169060200190929190803573ffffffffffffffffffffffffffffffffffffffff1690602001909291905050506134fd565b005b61074c613644565b6040518082815260200191505060405180910390f35b61076a61364a565b6040518082815260200191505060405180910390f35b6107ac6004803603602081101561079657600080fd5b8101908080359060200190929190505050613650565b005b6107ee600480360360608110156107c457600080fd5b81019080803590602001909291908035906020019092919080359060200190929190505050613745565b6040518082815260200191505060405180910390f35b61080c613779565b6040518082815260200191505060405180910390f35b61084e6004803603602081101561083857600080fd5b810190808035906020019092919050505061377f565b6040518082815260200191505060405180910390f35b6108906004803603602081101561087a57600080fd5b810190808035906020019092919050505061379f565b6040518087815260200186815260200185815260200184815260200183151581526020018215158152602001965050505050505060405180910390f35b6108d56137f5565b6040518082815260200191505060405180910390f35b6109176004803603602081101561090157600080fd5b81019080803590602001909291905050506137fb565b005b6109636004803603608081101561092f57600080fd5b81019080803590602001909291908035906020019092919080359060200190929190803590602001909291905050506138c6565b005b6109916004803603602081101561097b57600080fd5b81019080803590602001909291905050506139a9565b60405180821515815260200191505060405180910390f35b6109b16139d6565b6040518082815260200191505060405180910390f35b6109cf6139e0565b6040518082815260200191505060405180910390f35b6109ed6139e6565b6040518082815260200191505060405180910390f35b610a0b6139ec565b6040518082815260200191505060405180910390f35b610a4d60048036036020811015610a3757600080fd5b81019080803590602001909291905050506139f2565b005b610a57613f1e565b6040518082815260200191505060405180910390f35b610ab760048036036080811015610a8357600080fd5b8101908080359060200190929190803590602001909291908035906020019092919080359060200190929190505050613f24565b005b60008054906101000a900473ffffffffffffffffffffffffffffffffffffffff1673ffffffffffffffffffffffffffffffffffffffff163373ffffffffffffffffffffffffffffffffffffffff1614610b7a576040517f08c379a000000000000000000000000000000000000000000000000000000000815260040180806020018281038252600a8152602001807f6f776e6572206f6e6c790000000000000000000000000000000000000000000081525060200191505060405180910390fd5b600080600080600073ffffffffffffffffffffffffffffffffffffffff16601660009054906101000a900473ffffffffffffffffffffffffffffffffffffffff1673ffffffffffffffffffffffffffffffffffffffff166342f1bb8d876040518263ffffffff1660e01b81526004018082815260200191505060206040518083038186803b158015610c0b57600080fd5b505afa158015610c1f573d6000803e3d6000fd5b505050506040513d6020811015610c3557600080fd5b810190808051906020019092919050505073ffffffffffffffffffffffffffffffffffffffff16146115e057610c876015600087815260200190815260200160002060030154600a54600754016126f1565b9350601760009054906101000a900473ffffffffffffffffffffffffffffffffffffffff1673ffffffffffffffffffffffffffffffffffffffff166340c10f19601660009054906101000a900473ffffffffffffffffffffffffffffffffffffffff1673ffffffffffffffffffffffffffffffffffffffff1663f438835c886040518263ffffffff1660e01b81526004018082815260200191505060206040518083038186803b158015610d3a57600080fd5b505afa158015610d4e573d6000803e3d6000fd5b505050506040513d6020811015610d6457600080fd5b8101908080519060200190929190505050866040518363ffffffff1660e01b8152600401808373ffffffffffffffffffffffffffffffffffffffff16815260200182815260200192505050602060405180830381600087803b158015610dc957600080fd5b505af1158015610ddd573d6000803e3d6000fd5b505050506040513d6020811015610df357600080fd5b8101908080519060200190929190505050610e76576040517f08c379a00000000000000000000000000000000000000000000000000000000081526004018080602001828103825260168152602001807f6d696e7420686f737420776974682061647669736f720000000000000000000081525060200191505060405180910390fd5b610e986015600087815260200190815260200160002060030154600f546126f1565b9150601760009054906101000a900473ffffffffffffffffffffffffffffffffffffffff1673ffffffffffffffffffffffffffffffffffffffff166340c10f19601660009054906101000a900473ffffffffffffffffffffffffffffffffffffffff1673ffffffffffffffffffffffffffffffffffffffff166342f1bb8d886040518263ffffffff1660e01b81526004018082815260200191505060206040518083038186803b158015610f4b57600080fd5b505afa158015610f5f573d6000803e3d6000fd5b505050506040513d6020811015610f7557600080fd5b8101908080519060200190929190505050846040518363ffffffff1660e01b8152600401808373ffffffffffffffffffffffffffffffffffffffff16815260200182815260200192505050602060405180830381600087803b158015610fda57600080fd5b505af1158015610fee573d6000803e3d6000fd5b505050506040513d602081101561100457600080fd5b8101908080519060200190929190505050611087576040517f08c379a000000000000000000000000000000000000000000000000000000000815260040180806020018281038252600f8152602001807f6d696e7420746f2061647669736f72000000000000000000000000000000000081525060200191505060405180910390fd5b611144601660009054906101000a900473ffffffffffffffffffffffffffffffffffffffff1673ffffffffffffffffffffffffffffffffffffffff166330286c37876040518263ffffffff1660e01b81526004018082815260200191505060206040518083038186803b1580156110fd57600080fd5b505afa158015611111573d6000803e3d6000fd5b505050506040513d602081101561112757600080fd5b8101908080519060200190929190505050600954600854016126f1565b9250601760009054906101000a900473ffffffffffffffffffffffffffffffffffffffff1673ffffffffffffffffffffffffffffffffffffffff1663c4076876601660009054906101000a900473ffffffffffffffffffffffffffffffffffffffff1673ffffffffffffffffffffffffffffffffffffffff1663f438835c886040518263ffffffff1660e01b81526004018082815260200191505060206040518083038186803b1580156111f757600080fd5b505afa15801561120b573d6000803e3d6000fd5b505050506040513d602081101561122157600080fd5b8101908080519060200190929190505050856040518363ffffffff1660e01b8152600401808373ffffffffffffffffffffffffffffffffffffffff16815260200182815260200192505050602060405180830381600087803b15801561128657600080fd5b505af115801561129a573d6000803e3d6000fd5b505050506040513d60208110156112b057600080fd5b8101908080519060200190929190505050611333576040517f08c379a00000000000000000000000000000000000000000000000000000000081526004018080602001828103825260188152602001807f70617920746f20686f737420776974682061647669736f72000000000000000081525060200191505060405180910390fd5b6113ec601660009054906101000a900473ffffffffffffffffffffffffffffffffffffffff1673ffffffffffffffffffffffffffffffffffffffff166330286c37876040518263ffffffff1660e01b81526004018082815260200191505060206040518083038186803b1580156113a957600080fd5b505afa1580156113bd573d6000803e3d6000fd5b505050506040513d60208110156113d357600080fd5b81019080805190602001909291905050506010546126f1565b9050601760009054906101000a900473ffffffffffffffffffffffffffffffffffffffff1673ffffffffffffffffffffffffffffffffffffffff1663c4076876601660009054906101000a900473ffffffffffffffffffffffffffffffffffffffff1673ffffffffffffffffffffffffffffffffffffffff166342f1bb8d886040518263ffffffff1660e01b81526004018082815260200191505060206040518083038186803b15801561149f57600080fd5b505afa1580156114b3573d6000803e3d6000fd5b505050506040513d60208110156114c957600080fd5b8101908080519060200190929190505050836040518363ffffffff1660e01b8152600401808373ffffffffffffffffffffffffffffffffffffffff16815260200182815260200192505050602060405180830381600087803b15801561152e57600080fd5b505af1158015611542573d6000803e3d6000fd5b505050506040513d602081101561155857600080fd5b81019080805190602001909291905050506115db576040517f08c379a000000000000000000000000000000000000000000000000000000000815260040180806020018281038252600e8152602001807f70617920746f2061647669736f7200000000000000000000000000000000000081525060200191505060405180910390fd5b611a9a565b61160260156000878152602001908152602001600020600301546007546126f1565b9350601760009054906101000a900473ffffffffffffffffffffffffffffffffffffffff1673ffffffffffffffffffffffffffffffffffffffff166340c10f19601660009054906101000a900473ffffffffffffffffffffffffffffffffffffffff1673ffffffffffffffffffffffffffffffffffffffff1663f438835c886040518263ffffffff1660e01b81526004018082815260200191505060206040518083038186803b1580156116b557600080fd5b505afa1580156116c9573d6000803e3d6000fd5b505050506040513d60208110156116df57600080fd5b8101908080519060200190929190505050866040518363ffffffff1660e01b8152600401808373ffffffffffffffffffffffffffffffffffffffff16815260200182815260200192505050602060405180830381600087803b15801561174457600080fd5b505af1158015611758573d6000803e3d6000fd5b505050506040513d602081101561176e57600080fd5b81019080805190602001909291905050506117f1576040517f08c379a000000000000000000000000000000000000000000000000000000000815260040180806020018281038252600c8152602001807f6d696e7420746f20686f7374000000000000000000000000000000000000000081525060200191505060405180910390fd5b6118aa601660009054906101000a900473ffffffffffffffffffffffffffffffffffffffff1673ffffffffffffffffffffffffffffffffffffffff166330286c37876040518263ffffffff1660e01b81526004018082815260200191505060206040518083038186803b15801561186757600080fd5b505afa15801561187b573d6000803e3d6000fd5b505050506040513d602081101561189157600080fd5b81019080805190602001909291905050506008546126f1565b9250601760009054906101000a900473ffffffffffffffffffffffffffffffffffffffff1673ffffffffffffffffffffffffffffffffffffffff1663c4076876601660009054906101000a900473ffffffffffffffffffffffffffffffffffffffff1673ffffffffffffffffffffffffffffffffffffffff1663f438835c886040518263ffffffff1660e01b81526004018082815260200191505060206040518083038186803b15801561195d57600080fd5b505afa158015611971573d6000803e3d6000fd5b505050506040513d602081101561198757600080fd5b8101908080519060200190929190505050856040518363ffffffff1660e01b8152600401808373ffffffffffffffffffffffffffffffffffffffff16815260200182815260200192505050602060405180830381600087803b1580156119ec57600080fd5b505af1158015611a00573d6000803e3d6000fd5b505050506040513d6020811015611a1657600080fd5b8101908080519060200190929190505050611a99576040517f08c379a000000000000000000000000000000000000000000000000000000000815260040180806020018281038252600b8152602001807f70617920746f20686f737400000000000000000000000000000000000000000081525060200191505060405180910390fd5b5b7f8b25ea6050ae86d4a92f0105ec319f239c299ccb27723dcd9e04d02220d9f7fa8585858585604051808681526020018581526020018481526020018381526020018281526020019550505050505060405180910390a15050505050565b601460009054906101000a900473ffffffffffffffffffffffffffffffffffffffff1673ffffffffffffffffffffffffffffffffffffffff163373ffffffffffffffffffffffffffffffffffffffff1614611bbb576040517f08c379a000000000000000000000000000000000000000000000000000000000815260040180806020018281038252600f8152602001807f7070436f6e7472616374206f6e6c79000000000000000000000000000000000081525060200191505060405180910390fd5b60016015600083815260200190815260200160002060040160016101000a81548160ff02191690831515021790555050565b600060156000838152602001908152602001600020600201549050919050565b60115481565b60035481565b60008054906101000a900473ffffffffffffffffffffffffffffffffffffffff1673ffffffffffffffffffffffffffffffffffffffff163373ffffffffffffffffffffffffffffffffffffffff1614611cda576040517f08c379a000000000000000000000000000000000000000000000000000000000815260040180806020018281038252600a8152602001807f6f776e6572206f6e6c790000000000000000000000000000000000000000000081525060200191505060405180910390fd5b600080611cff60156000858152602001908152602001600020600301546003546126f1565b9050601760009054906101000a900473ffffffffffffffffffffffffffffffffffffffff1673ffffffffffffffffffffffffffffffffffffffff166340c10f1960008054906101000a900473ffffffffffffffffffffffffffffffffffffffff16836040518363ffffffff1660e01b8152600401808373ffffffffffffffffffffffffffffffffffffffff16815260200182815260200192505050602060405180830381600087803b158015611db457600080fd5b505af1158015611dc8573d6000803e3d6000fd5b505050506040513d6020811015611dde57600080fd5b8101908080519060200190929190505050611e61576040517f08c379a00000000000000000000000000000000000000000000000000000000081526004018080602001828103825260158152602001807f6d696e7420646576656c6f706d656e742066756e64000000000000000000000081525060200191505060405180910390fd5b6000601660009054906101000a900473ffffffffffffffffffffffffffffffffffffffff1673ffffffffffffffffffffffffffffffffffffffff166380559173856040518263ffffffff1660e01b81526004018082815260200191505060206040518083038186803b158015611ed657600080fd5b505afa158015611eea573d6000803e3d6000fd5b505050506040513d6020811015611f0057600080fd5b8101908080519060200190929190505050111561213357611fd0601660009054906101000a900473ffffffffffffffffffffffffffffffffffffffff1673ffffffffffffffffffffffffffffffffffffffff166380559173856040518263ffffffff1660e01b81526004018082815260200191505060206040518083038186803b158015611f8d57600080fd5b505afa158015611fa1573d6000803e3d6000fd5b505050506040513d6020811015611fb757600080fd5b81019080805190602001909291905050506004546126f1565b9150601760009054906101000a900473ffffffffffffffffffffffffffffffffffffffff1673ffffffffffffffffffffffffffffffffffffffff1663458a807960008054906101000a900473ffffffffffffffffffffffffffffffffffffffff16846040518363ffffffff1660e01b8152600401808373ffffffffffffffffffffffffffffffffffffffff16815260200182815260200192505050602060405180830381600087803b15801561208557600080fd5b505af1158015612099573d6000803e3d6000fd5b505050506040513d60208110156120af57600080fd5b8101908080519060200190929190505050612132576040517f08c379a000000000000000000000000000000000000000000000000000000000815260040180806020018281038252601c8152602001807f7072656d69756d2070617920646576656c6f706d656e742066756e640000000081525060200191505060405180910390fd5b5b60008073ffffffffffffffffffffffffffffffffffffffff16601660009054906101000a900473ffffffffffffffffffffffffffffffffffffffff1673ffffffffffffffffffffffffffffffffffffffff166342f1bb8d866040518263ffffffff1660e01b81526004018082815260200191505060206040518083038186803b1580156121bf57600080fd5b505afa1580156121d3573d6000803e3d6000fd5b505050506040513d60208110156121e957600080fd5b810190808051906020019092919050505073ffffffffffffffffffffffffffffffffffffffff16141561222657600f54600a54600554010161222a565b6005545b9050600061224e6015600087815260200190815260200160002060030154836126f1565b9050601760009054906101000a900473ffffffffffffffffffffffffffffffffffffffff1673ffffffffffffffffffffffffffffffffffffffff166340c10f19600160009054906101000a900473ffffffffffffffffffffffffffffffffffffffff16836040518363ffffffff1660e01b8152600401808373ffffffffffffffffffffffffffffffffffffffff16815260200182815260200192505050602060405180830381600087803b15801561230557600080fd5b505af1158015612319573d6000803e3d6000fd5b505050506040513d602081101561232f57600080fd5b81019080805190602001909291905050506123b2576040517f08c379a000000000000000000000000000000000000000000000000000000000815260040180806020018281038252601d8152602001807f6d696e7420636f6d6d756e697479206d61726b6574696e672066756e6400000081525060200191505060405180910390fd5b60006123d660156000888152602001908152602001600020600301546006546126f1565b9050601760009054906101000a900473ffffffffffffffffffffffffffffffffffffffff1673ffffffffffffffffffffffffffffffffffffffff166340c10f19600260009054906101000a900473ffffffffffffffffffffffffffffffffffffffff16836040518363ffffffff1660e01b8152600401808373ffffffffffffffffffffffffffffffffffffffff16815260200182815260200192505050602060405180830381600087803b15801561248d57600080fd5b505af11580156124a1573d6000803e3d6000fd5b505050506040513d60208110156124b757600080fd5b810190808051906020019092919050505061253a576040517f08c379a00000000000000000000000000000000000000000000000000000000081526004018080602001828103825260148152602001807f6d696e74206d6f64657261746f72732066756e6400000000000000000000000081525060200191505060405180910390fd5b7f27650ccb91ed33fea2eb9b1f7cecf9d3db7cf69fe53e31fc832dcecd9f3178f38686868585604051808681526020018581526020018481526020018381526020018281526020019550505050505060405180910390a1505050505050565b60065481565b60008054906101000a900473ffffffffffffffffffffffffffffffffffffffff1673ffffffffffffffffffffffffffffffffffffffff163373ffffffffffffffffffffffffffffffffffffffff1614612660576040517f08c379a000000000000000000000000000000000000000000000000000000000815260040180806020018281038252600a8152602001807f6f776e6572206f6e6c790000000000000000000000000000000000000000000081525060200191505060405180910390fd5b81600f81905550806010819055505050565b600d5481565b600060156000838152602001908152602001600020600301549050919050565b600260009054906101000a900473ffffffffffffffffffffffffffffffffffffffff1681565b60006015600083815260200190815260200160002060040160009054906101000a900460ff169050919050565b600a5481565b60006064838302816126ff57fe5b04905092915050565b60008054906101000a900473ffffffffffffffffffffffffffffffffffffffff1673ffffffffffffffffffffffffffffffffffffffff163373ffffffffffffffffffffffffffffffffffffffff16146127c9576040517f08c379a000000000000000000000000000000000000000000000000000000000815260040180806020018281038252600a8152602001807f6f776e6572206f6e6c790000000000000000000000000000000000000000000081525060200191505060405180910390fd5b83600781905550826008819055508160098190555080600a8190555050505050565b60008054906101000a900473ffffffffffffffffffffffffffffffffffffffff1673ffffffffffffffffffffffffffffffffffffffff163373ffffffffffffffffffffffffffffffffffffffff1614806128925750601860009054906101000a900473ffffffffffffffffffffffffffffffffffffffff1673ffffffffffffffffffffffffffffffffffffffff163373ffffffffffffffffffffffffffffffffffffffff16145b612904576040517f08c379a000000000000000000000000000000000000000000000000000000000815260040180806020018281038252601b8152602001807f6f776e6572206f6e6c79206f72207075622061646472206f6e6c79000000000081525060200191505060405180910390fd5b61290e8282614007565b5050565b60105481565b600160009054906101000a900473ffffffffffffffffffffffffffffffffffffffff1681565b601260009054906101000a900473ffffffffffffffffffffffffffffffffffffffff1673ffffffffffffffffffffffffffffffffffffffff163373ffffffffffffffffffffffffffffffffffffffff1614612a01576040517f08c379a000000000000000000000000000000000000000000000000000000000815260040180806020018281038252600a8152602001807f6f776e6572206f6e6c790000000000000000000000000000000000000000000081525060200191505060405180910390fd5b80601460006101000a81548173ffffffffffffffffffffffffffffffffffffffff021916908373ffffffffffffffffffffffffffffffffffffffff16021790555050565b60008054906101000a900473ffffffffffffffffffffffffffffffffffffffff1673ffffffffffffffffffffffffffffffffffffffff163373ffffffffffffffffffffffffffffffffffffffff1614612b06576040517f08c379a000000000000000000000000000000000000000000000000000000000815260040180806020018281038252600a8152602001807f6f776e6572206f6e6c790000000000000000000000000000000000000000000081525060200191505060405180910390fd5b60008073ffffffffffffffffffffffffffffffffffffffff16601660009054906101000a900473ffffffffffffffffffffffffffffffffffffffff1673ffffffffffffffffffffffffffffffffffffffff166342f1bb8d846040518263ffffffff1660e01b81526004018082815260200191505060206040518083038186803b158015612b9257600080fd5b505afa158015612ba6573d6000803e3d6000fd5b505050506040513d6020811015612bbc57600080fd5b810190808051906020019092919050505073ffffffffffffffffffffffffffffffffffffffff161415612bf557600d54600c5401612bf9565b600c545b90506000601560008481526020019081526020016000206001015490506000612c22848361452c565b905060005b601660009054906101000a900473ffffffffffffffffffffffffffffffffffffffff1673ffffffffffffffffffffffffffffffffffffffff166323c8778e86856040518363ffffffff1660e01b8152600401808381526020018281526020019250505060206040518083038186803b158015612ca257600080fd5b505afa158015612cb6573d6000803e3d6000fd5b505050506040513d6020811015612ccc57600080fd5b81019080805190602001909291905050508110156134b9576000601660009054906101000a900473ffffffffffffffffffffffffffffffffffffffff1673ffffffffffffffffffffffffffffffffffffffff16630569ae998786856040518463ffffffff1660e01b815260040180848152602001838152602001828152602001935050505060206040518083038186803b158015612d6957600080fd5b505afa158015612d7d573d6000803e3d6000fd5b505050506040513d6020811015612d9357600080fd5b81019080805190602001909291905050509050600081126134ab576000601660009054906101000a900473ffffffffffffffffffffffffffffffffffffffff1673ffffffffffffffffffffffffffffffffffffffff1663f46cf8388887866040518463ffffffff1660e01b815260040180848152602001838152602001828152602001935050505060206040518083038186803b158015612e3357600080fd5b505afa158015612e47573d6000803e3d6000fd5b505050506040513d6020811015612e5d57600080fd5b8101908080519060200190929190505050905060008483612e96601560008c815260200190815260200160002060030154600b546126f1565b0281612e9e57fe5b049050601760009054906101000a900473ffffffffffffffffffffffffffffffffffffffff1673ffffffffffffffffffffffffffffffffffffffff166340c10f1983836040518363ffffffff1660e01b8152600401808373ffffffffffffffffffffffffffffffffffffffff16815260200182815260200192505050602060405180830381600087803b158015612f3457600080fd5b505af1158015612f48573d6000803e3d6000fd5b505050506040513d6020811015612f5e57600080fd5b8101908080519060200190929190505050612fe1576040517f08c379a00000000000000000000000000000000000000000000000000000000081526004018080602001828103825260088152602001807f6d696e742065787000000000000000000000000000000000000000000000000081525060200191505060405180910390fd5b6000858461309c601660009054906101000a900473ffffffffffffffffffffffffffffffffffffffff1673ffffffffffffffffffffffffffffffffffffffff166330286c378d6040518263ffffffff1660e01b81526004018082815260200191505060206040518083038186803b15801561305b57600080fd5b505afa15801561306f573d6000803e3d6000fd5b505050506040513d602081101561308557600080fd5b81019080805190602001909291905050508b6126f1565b02816130a457fe5b049050601760009054906101000a900473ffffffffffffffffffffffffffffffffffffffff1673ffffffffffffffffffffffffffffffffffffffff1663c407687684836040518363ffffffff1660e01b8152600401808373ffffffffffffffffffffffffffffffffffffffff16815260200182815260200192505050602060405180830381600087803b15801561313a57600080fd5b505af115801561314e573d6000803e3d6000fd5b505050506040513d602081101561316457600080fd5b81019080805190602001909291905050506131e7576040517f08c379a00000000000000000000000000000000000000000000000000000000081526004018080602001828103825260078152602001807f706179206578700000000000000000000000000000000000000000000000000081525060200191505060405180910390fd5b6000601660009054906101000a900473ffffffffffffffffffffffffffffffffffffffff1673ffffffffffffffffffffffffffffffffffffffff1663805591738b6040518263ffffffff1660e01b81526004018082815260200191505060206040518083038186803b15801561325c57600080fd5b505afa158015613270573d6000803e3d6000fd5b505050506040513d602081101561328657600080fd5b810190808051906020019092919050505011156134a7576000868561335a601660009054906101000a900473ffffffffffffffffffffffffffffffffffffffff1673ffffffffffffffffffffffffffffffffffffffff1663805591738e6040518263ffffffff1660e01b81526004018082815260200191505060206040518083038186803b15801561331757600080fd5b505afa15801561332b573d6000803e3d6000fd5b505050506040513d602081101561334157600080fd5b8101908080519060200190929190505050600e546126f1565b028161336257fe5b049050601760009054906101000a900473ffffffffffffffffffffffffffffffffffffffff1673ffffffffffffffffffffffffffffffffffffffff1663458a807985836040518363ffffffff1660e01b8152600401808373ffffffffffffffffffffffffffffffffffffffff16815260200182815260200192505050602060405180830381600087803b1580156133f857600080fd5b505af115801561340c573d6000803e3d6000fd5b505050506040513d602081101561342257600080fd5b81019080805190602001909291905050506134a5576040517f08c379a000000000000000000000000000000000000000000000000000000000815260040180806020018281038252600c8152602001807f7072656d2070617920657870000000000000000000000000000000000000000081525060200191505060405180910390fd5b505b5050505b508080600101915050612c27565b507f1e22c3f76c05a9a36262788cbb4f5ee1afd505e9a6b5a48f9b82249539202c1d846040518082815260200191505060405180910390a150505050565b600c5481565b60008054906101000a900473ffffffffffffffffffffffffffffffffffffffff1673ffffffffffffffffffffffffffffffffffffffff163373ffffffffffffffffffffffffffffffffffffffff16146135be576040517f08c379a000000000000000000000000000000000000000000000000000000000815260040180806020018281038252600a8152602001807f6f776e6572206f6e6c790000000000000000000000000000000000000000000081525060200191505060405180910390fd5b81600160006101000a81548173ffffffffffffffffffffffffffffffffffffffff021916908373ffffffffffffffffffffffffffffffffffffffff16021790555080600260006101000a81548173ffffffffffffffffffffffffffffffffffffffff021916908373ffffffffffffffffffffffffffffffffffffffff1602179055505050565b60075481565b60085481565b601460009054906101000a900473ffffffffffffffffffffffffffffffffffffffff1673ffffffffffffffffffffffffffffffffffffffff163373ffffffffffffffffffffffffffffffffffffffff1614613713576040517f08c379a000000000000000000000000000000000000000000000000000000000815260040180806020018281038252600f8152602001807f7070436f6e7472616374206f6e6c79000000000000000000000000000000000081525060200191505060405180910390fd5b60016015600083815260200190815260200160002060040160006101000a81548160ff02191690831515021790555050565b600080846064039050600085858161375957fe5b049050612710848388840202028161376d57fe5b04925050509392505050565b600b5481565b600060156000838152602001908152602001600020600101549050919050565b60156020528060005260406000206000915090508060000154908060010154908060020154908060030154908060040160009054906101000a900460ff16908060040160019054906101000a900460ff16905086565b60095481565b60008054906101000a900473ffffffffffffffffffffffffffffffffffffffff1673ffffffffffffffffffffffffffffffffffffffff163373ffffffffffffffffffffffffffffffffffffffff16146138bc576040517f08c379a000000000000000000000000000000000000000000000000000000000815260040180806020018281038252600a8152602001807f6f776e6572206f6e6c790000000000000000000000000000000000000000000081525060200191505060405180910390fd5b8060118190555050565b60008054906101000a900473ffffffffffffffffffffffffffffffffffffffff1673ffffffffffffffffffffffffffffffffffffffff163373ffffffffffffffffffffffffffffffffffffffff1614613987576040517f08c379a000000000000000000000000000000000000000000000000000000000815260040180806020018281038252600a8152602001807f6f776e6572206f6e6c790000000000000000000000000000000000000000000081525060200191505060405180910390fd5b8360038190555082600481905550816005819055508060068190555050505050565b60006015600083815260200190815260200160002060040160019054906101000a900460ff169050919050565b6000601154905090565b600e5481565b60055481565b60045481565b60008054906101000a900473ffffffffffffffffffffffffffffffffffffffff1673ffffffffffffffffffffffffffffffffffffffff163373ffffffffffffffffffffffffffffffffffffffff1614613ab3576040517f08c379a000000000000000000000000000000000000000000000000000000000815260040180806020018281038252600a8152602001807f6f776e6572206f6e6c790000000000000000000000000000000000000000000081525060200191505060405180910390fd5b600080600080601660009054906101000a900473ffffffffffffffffffffffffffffffffffffffff1673ffffffffffffffffffffffffffffffffffffffff1663a96c2aea866040518263ffffffff1660e01b81526004018082815260200191505060206040518083038186803b158015613b2c57600080fd5b505afa158015613b40573d6000803e3d6000fd5b505050506040513d6020811015613b5657600080fd5b8101908080519060200190929190505050905060005b81811015613e755784601660009054906101000a900473ffffffffffffffffffffffffffffffffffffffff1673ffffffffffffffffffffffffffffffffffffffff166323c8778e88846040518363ffffffff1660e01b8152600401808381526020018281526020019250505060206040518083038186803b158015613bf057600080fd5b505afa158015613c04573d6000803e3d6000fd5b505050506040513d6020811015613c1a57600080fd5b81019080805190602001909291905050501115613cf157601660009054906101000a900473ffffffffffffffffffffffffffffffffffffffff1673ffffffffffffffffffffffffffffffffffffffff166323c8778e87836040518363ffffffff1660e01b8152600401808381526020018281526020019250505060206040518083038186803b158015613cac57600080fd5b505afa158015613cc0573d6000803e3d6000fd5b505050506040513d6020811015613cd657600080fd5b81019080805190602001909291905050509450809250613e68565b84601660009054906101000a900473ffffffffffffffffffffffffffffffffffffffff1673ffffffffffffffffffffffffffffffffffffffff166323c8778e88846040518363ffffffff1660e01b8152600401808381526020018281526020019250505060206040518083038186803b158015613d6d57600080fd5b505afa158015613d81573d6000803e3d6000fd5b505050506040513d6020811015613d9757600080fd5b81019080805190602001909291905050501415613e6757601660009054906101000a900473ffffffffffffffffffffffffffffffffffffffff1673ffffffffffffffffffffffffffffffffffffffff166323c8778e87836040518363ffffffff1660e01b8152600401808381526020018281526020019250505060206040518083038186803b158015613e2957600080fd5b505afa158015613e3d573d6000803e3d6000fd5b505050506040513d6020811015613e5357600080fd5b810190808051906020019092919050505093505b5b8080600101915050613b6c565b5083831415613ef15760016015600087815260200190815260200160002060040160006101000a81548160ff021916908315150217905550613eec856040518060400160405280600f81526020017f6475706c69636174206578706572740000000000000000000000000000000000815250614007565b613f17565b816015600087815260200190815260200160002060010181905550613f168286614793565b5b5050505050565b600f5481565b60008054906101000a900473ffffffffffffffffffffffffffffffffffffffff1673ffffffffffffffffffffffffffffffffffffffff163373ffffffffffffffffffffffffffffffffffffffff1614613fe5576040517f08c379a000000000000000000000000000000000000000000000000000000000815260040180806020018281038252600a8152602001807f6f776e6572206f6e6c790000000000000000000000000000000000000000000081525060200191505060405180910390fd5b83600b8190555082600c8190555081600d8190555080600e8190555050505050565b60005b601660009054906101000a900473ffffffffffffffffffffffffffffffffffffffff1673ffffffffffffffffffffffffffffffffffffffff1663a96c2aea846040518263ffffffff1660e01b81526004018082815260200191505060206040518083038186803b15801561407d57600080fd5b505afa158015614091573d6000803e3d6000fd5b505050506040513d60208110156140a757600080fd5b81019080805190602001909291905050508110156144545760005b601660009054906101000a900473ffffffffffffffffffffffffffffffffffffffff1673ffffffffffffffffffffffffffffffffffffffff166371aee94585846040518363ffffffff1660e01b8152600401808381526020018281526020019250505060206040518083038186803b15801561413d57600080fd5b505afa158015614151573d6000803e3d6000fd5b505050506040513d602081101561416757600080fd5b810190808051906020019092919050505081101561444657601760009054906101000a900473ffffffffffffffffffffffffffffffffffffffff1673ffffffffffffffffffffffffffffffffffffffff1663c4076876601660009054906101000a900473ffffffffffffffffffffffffffffffffffffffff1673ffffffffffffffffffffffffffffffffffffffff16637c997f678786866040518463ffffffff1660e01b815260040180848152602001838152602001828152602001935050505060206040518083038186803b15801561424057600080fd5b505afa158015614254573d6000803e3d6000fd5b505050506040513d602081101561426a57600080fd5b8101908080519060200190929190505050601660009054906101000a900473ffffffffffffffffffffffffffffffffffffffff1673ffffffffffffffffffffffffffffffffffffffff1663859f0f6a8887876040518463ffffffff1660e01b815260040180848152602001838152602001828152602001935050505060206040518083038186803b1580156142fe57600080fd5b505afa158015614312573d6000803e3d6000fd5b505050506040513d602081101561432857600080fd5b81019080805190602001909291905050506040518363ffffffff1660e01b8152600401808373ffffffffffffffffffffffffffffffffffffffff16815260200182815260200192505050602060405180830381600087803b15801561438c57600080fd5b505af11580156143a0573d6000803e3d6000fd5b505050506040513d60208110156143b657600080fd5b8101908080519060200190929190505050614439576040517f08c379a000000000000000000000000000000000000000000000000000000000815260040180806020018281038252600a8152602001807f726576657274206265740000000000000000000000000000000000000000000081525060200191505060405180910390fd5b80806001019150506140c2565b50808060010191505061400a565b5060016015600084815260200190815260200160002060040160006101000a81548160ff0219169083151502179055507f847521552ad126e64c52b14640c804737bd67f2b6674309b332d1e5b17f857d182826040518083815260200180602001828103825283818151815260200191508051906020019080838360005b838110156144ed5780820151818401526020810190506144d2565b50505050905090810190601f16801561451a5780820380516001836020036101000a031916815260200191505b50935050505060405180910390a15050565b6000806000905060005b601660009054906101000a900473ffffffffffffffffffffffffffffffffffffffff1673ffffffffffffffffffffffffffffffffffffffff166323c8778e86866040518363ffffffff1660e01b8152600401808381526020018281526020019250505060206040518083038186803b1580156145b157600080fd5b505afa1580156145c5573d6000803e3d6000fd5b505050506040513d60208110156145db57600080fd5b8101908080519060200190929190505050811015614788576000601660009054906101000a900473ffffffffffffffffffffffffffffffffffffffff1673ffffffffffffffffffffffffffffffffffffffff16630569ae998787856040518463ffffffff1660e01b815260040180848152602001838152602001828152602001935050505060206040518083038186803b15801561467857600080fd5b505afa15801561468c573d6000803e3d6000fd5b505050506040513d60208110156146a257600080fd5b81019080805190602001909291905050501261477b57601660009054906101000a900473ffffffffffffffffffffffffffffffffffffffff1673ffffffffffffffffffffffffffffffffffffffff16630569ae998686846040518463ffffffff1660e01b815260040180848152602001838152602001828152602001935050505060206040518083038186803b15801561473b57600080fd5b505afa15801561474f573d6000803e3d6000fd5b505050506040513d602081101561476557600080fd5b8101908080519060200190929190505050820191505b8080600101915050614536565b508091505092915050565b600080600090505b601660009054906101000a900473ffffffffffffffffffffffffffffffffffffffff1673ffffffffffffffffffffffffffffffffffffffff166371aee94584866040518363ffffffff1660e01b8152600401808381526020018281526020019250505060206040518083038186803b15801561481657600080fd5b505afa15801561482a573d6000803e3d6000fd5b505050506040513d602081101561484057600080fd5b810190808051906020019092919050505081101561492757601660009054906101000a900473ffffffffffffffffffffffffffffffffffffffff1673ffffffffffffffffffffffffffffffffffffffff1663859f0f6a8486846040518463ffffffff1660e01b815260040180848152602001838152602001828152602001935050505060206040518083038186803b1580156148db57600080fd5b505afa1580156148ef573d6000803e3d6000fd5b505050506040513d602081101561490557600080fd5b810190808051906020019092919050505082019150808060010191505061479b565b50600081601660009054906101000a900473ffffffffffffffffffffffffffffffffffffffff1673ffffffffffffffffffffffffffffffffffffffff166330286c37856040518263ffffffff1660e01b81526004018082815260200191505060206040518083038186803b15801561499e57600080fd5b505afa1580156149b2573d6000803e3d6000fd5b505050506040513d60208110156149c857600080fd5b81019080805190602001909291905050500390506000811180156149ec5750600082115b15614bdf578060156000858152602001908152602001600020600201819055506000614b75601660009054906101000a900473ffffffffffffffffffffffffffffffffffffffff1673ffffffffffffffffffffffffffffffffffffffff1663f946c207866040518263ffffffff1660e01b81526004018082815260200191505060206040518083038186803b158015614a8457600080fd5b505afa158015614a98573d6000803e3d6000fd5b505050506040513d6020811015614aae57600080fd5b8101908080519060200190929190505050601660009054906101000a900473ffffffffffffffffffffffffffffffffffffffff1673ffffffffffffffffffffffffffffffffffffffff166330286c37876040518263ffffffff1660e01b81526004018082815260200191505060206040518083038186803b158015614b3257600080fd5b505afa158015614b46573d6000803e3d6000fd5b505050506040513d6020811015614b5c57600080fd5b8101908080519060200190929190505050601154613745565b90508060156000868152602001908152602001600020600301819055507f379c6b224a7fe6850c58f9de93dac19c04862dd67059a1948f1f9d70a1fe0f9f84828760405180848152602001838152602001828152602001935050505060405180910390a150614c1f565b614c1e836040518060400160405280601581526020017f706c61792063686f7365206f6e6520616e7377657200000000000000000000008152506127eb565b5b5050505056fea26469706673582212202334a8283c2b3ba972c7725a3da0419a78c58e58f482dd88d49ba3814de37d8c64736f6c63430007060033",
  "immutableReferences": {},
  "source": "// SPDX-License-Identifier: MIT\npragma solidity >=0.4.22 <0.9.0;\nimport {PubStruct} from \"../../struct/PubStruct.sol\";\nimport {PublicEvents} from \"./PublicEvents.sol\";\nimport {MPStruct} from \"../../struct/MPStruct.sol\";\nimport {Libs} from \"./Libs.sol\";\nimport {MPConfig} from \"../../config/MPConfig.sol\";\n\ncontract MiddlePayment is Libs, MPConfig, MPStruct {\n    PubStruct eventsData;\n    PublicEvents PublicAddr;\n    address pubAddr;\n\n    event payToCompanies(int id, uint tokens, uint correctAnswer);\n    event payToHost(int id, uint premDF, uint mintDF, uint mintCMF, uint mintMF);\n    event payToExperts(int id, uint mintHost, uint payHost, uint mintAdv, uint payAdv);\n    event payToPlayers(int id);\n    event revertedEvent(int id, string purpose);\n\n    constructor(PublicEvents _addr) {\n        PublicAddr = _addr;\n        pubAddr = address(_addr);\n        eventsData = PubStruct(_addr);\n    }\n\n    function letsFindCorrectAnswer(int _id) public {\n        require(msg.sender == owner, \"owner only\");\n        uint bigValue = 0;\n        uint candDub = 0;\n        uint correctAnswer;\n        uint questAmount = eventsData.getQuestAmount(_id);\n\n        // find correct answer\n        for (uint i = 0; i < questAmount; i++) {\n            if (eventsData.getExpertAmount(_id, i) > bigValue) {\n                bigValue = eventsData.getExpertAmount(_id, i);\n                correctAnswer = i;\n            } else if (eventsData.getExpertAmount(_id, i) == bigValue) {\n                candDub = eventsData.getExpertAmount(_id, i);\n            }\n        }\n\n        if (candDub == bigValue) {\n            MPData[_id].reverted = true;\n            revertPayment(_id, \"duplicat expert\");\n        } else {\n            MPData[_id].correctAnswer = correctAnswer;\n            findLosersPool(correctAnswer, _id);\n        }\n    }\n\n    function findLosersPool(uint correctAnswer, int _id) private {\n        uint B;\n        for (uint i = 0; i < eventsData.getPlayerAmount(_id, correctAnswer); i++) {\n            B = B + eventsData.getPlayerTokens(_id, correctAnswer, i);\n        }\n        \n        uint lP = eventsData.getPool(_id) - B;\n        // TODO TEST\n        if (lP > 0 && B > 0) {\n             MPData[_id].loserPool = lP;\n            // calculate minted tokens\n            uint tokens =\n                calcMintedTokens(\n                    eventsData.getActivePlayers(_id),\n                    eventsData.getPool(_id),\n                    GFindex\n                );\n            MPData[_id].tokenMinted = tokens;\n            emit payToCompanies(_id, tokens, correctAnswer);\n        } else {\n            revertedPayment(_id, \"play chose one answer\");\n        }\n    }\n\n    function revertedPayment(int _id, string memory purpose)\n        public\n    {\n        require(msg.sender == owner || msg.sender == pubAddr, \"owner only or pub addr only\");\n        revertPayment(_id, purpose);\n    }\n\n    function revertPayment(int _id, string memory purpose) private {\n        for (uint i = 0; i < eventsData.getQuestAmount(_id); i++) {\n            for (uint z = 0; z < eventsData.getPlayerAmount(_id, i); z++) {\n                require(\n                    PublicAddr.pay(eventsData.getPlayerWallet(_id, i, z), eventsData.getPlayerTokens(_id, i, z)),\n                    \"revert bet\"\n                );\n            }\n        }\n        MPData[_id].reverted = true;\n        emit revertedEvent(_id, purpose);\n    }\n\n    function letsPayToCompanies(int _id) public {\n        require(msg.sender == owner, \"owner only\");\n        // pay to Development Fund\n        uint premDF = 0;\n        uint mintDF = getPercent(MPData[_id].tokenMinted, developFundPerc);\n        require( PublicAddr.mint(owner, mintDF), \"mint development fund\" );\n        if (eventsData.getPremiumAmount(_id) > 0) {\n            premDF = getPercent(eventsData.getPremiumAmount(_id), developFundPercPremim );\n            require(                \n                PublicAddr.payBTY(owner, premDF),\n                \"premium pay development fund\"\n            );\n        }\n        // pay to Community Marketing Fund\n        uint percentCMF = eventsData.getAdvisorAddr(_id) != address(0)\n                ? comMarketFundPerc\n                : comMarketFundPerc + extraHostPercMint + advisorPercMint;\n        uint mintCMF = getPercent(MPData[_id].tokenMinted, percentCMF);         \n        require(\n            PublicAddr.mint(comMarketFundWallet, mintCMF),\n            \"mint community marketing fund\"\n        );\n\n        uint mintMF = getPercent(MPData[_id].tokenMinted, moderatorsFundPerc);\n        // pay to Moderators Fund\n        require(\n            PublicAddr.mint(moderatorsFundWallet, mintMF),\n            \"mint moderators fund\"\n        );\n        emit payToHost(_id, premDF, mintDF, mintCMF, mintMF);\n    }\n\n    function letsPaytoHost(int _id) public {\n        require(msg.sender == owner, \"owner only\");\n        uint mintHost = 0;\n        uint payHost = 0;\n        uint mintAdv = 0;\n        uint payAdv = 0;\n        if (eventsData.getAdvisorAddr(_id) != address(0)) {\n            // pay minted tokens\n            mintHost = getPercent( MPData[_id].tokenMinted, hostPercMint + extraHostPercMint);\n            require(\n                PublicAddr.mint(eventsData.getHostAddr(_id), mintHost),\n                \"mint host with advisor\"\n            );\n            mintAdv = getPercent(MPData[_id].tokenMinted, advisorPercMint);\n            require(\n                PublicAddr.mint(eventsData.getAdvisorAddr(_id), mintAdv),\n                \"mint to advisor\"\n            );\n            // pay tokens\n            payHost = getPercent(eventsData.getPool(_id), hostPerc + extraHostPerc);\n            require(\n                PublicAddr.pay(eventsData.getHostAddr(_id), payHost),\n                \"pay to host with advisor\"\n            );\n            payAdv = getPercent(eventsData.getPool(_id), advisorPepc);\n            require(\n                PublicAddr.pay(eventsData.getAdvisorAddr(_id), payAdv),\n                \"pay to advisor\"\n            );\n        } else {\n            // mint to host\n            mintHost = getPercent(MPData[_id].tokenMinted, hostPercMint);\n            require(\n                PublicAddr.mint(eventsData.getHostAddr(_id), mintHost),\n                \"mint to host\"\n            );\n            payHost = getPercent(eventsData.getPool(_id), hostPerc);\n            // pay to host\n            require(\n                PublicAddr.pay(eventsData.getHostAddr(_id), payHost),\n                \"pay to host\"\n            );\n        }\n        emit payToExperts(_id, mintHost, payHost, mintAdv, payAdv);\n    }\n\n    function letsPayToExperts(int _id) public {\n        require(msg.sender == owner, \"owner only\");\n        uint percent = eventsData.getAdvisorAddr(_id) != address(0)\n                ? expertPerc\n                : expertPerc + expertExtraPerc;\n        uint correctAnswer = MPData[_id].correctAnswer;\n        int allReputation = calcReput(_id, correctAnswer);\n\n        for (uint i = 0; i < eventsData.getExpertAmount(_id, correctAnswer); i++ ) {\n            int reputation = eventsData.getExpertReput(_id, correctAnswer, i);\n            if (reputation >= 0) {\n                address payable expertWallet = eventsData.getExpertWallet(_id, correctAnswer, i);\n\n                // mint tokens\n                uint amountMint = (getPercent(MPData[_id].tokenMinted, expertPercMint) * uint(reputation)) / uint(allReputation);\n                require(PublicAddr.mint(expertWallet, amountMint), \"mint exp\");\n\n                // pay tokens\n                uint amount = (getPercent(eventsData.getPool(_id), percent) * uint(reputation)) / uint(allReputation);\n                require(PublicAddr.pay(expertWallet, amount), \"pay exp\");\n\n                // pay in premium events\n                if (eventsData.getPremiumAmount(_id) > 0) {\n                    uint premiumAmount = (getPercent(eventsData.getPremiumAmount(_id), expertPremiumPerc ) * uint(reputation)) / uint(allReputation);\n                    require(PublicAddr.payBTY(expertWallet, premiumAmount),\"prem pay exp\");\n                }\n       \n            }\n        }\n        emit payToPlayers(_id);\n    }\n    \n    function calcReput(int _id, uint correctAnswer) private view returns(int) { \n        int allReputation = 0;\n        for ( uint i = 0; i < eventsData.getExpertAmount(_id, correctAnswer); i++ ) {\n            if ( eventsData.getExpertReput(_id, correctAnswer, i) >= 0 ) {\n                allReputation = allReputation + eventsData.getExpertReput(_id, correctAnswer, i);\n            }\n        }\n        return allReputation;\n    }\n}\n",
  "sourcePath": "/Users/macbook/Documents/freelance/tokenominc/contracts/matic/events/PublicEvents/MiddlePayment.sol",
  "compiler": {
    "name": "solc",
    "version": "0.7.6+commit.7338295f.Linux.g++"
  },
  "schemaVersion": "3.3.4",
  "updatedAt": "2021-03-17T16:24:36.884Z",
  "devdoc": {
    "kind": "dev",
    "methods": {},
    "version": 1
  },
  "userdoc": {
    "kind": "user",
    "methods": {},
    "version": 1
  }
}