{
  "contractName": "MPConfig",
  "abi": [
    {
      "inputs": [],
      "name": "advisorPepc",
      "outputs": [
        {
          "internalType": "uint256",
          "name": "",
          "type": "uint256"
        }
      ],
      "stateMutability": "view",
      "type": "function"
    },
    {
      "inputs": [],
      "name": "advisorPercMint",
      "outputs": [
        {
          "internalType": "uint256",
          "name": "",
          "type": "uint256"
        }
      ],
      "stateMutability": "view",
      "type": "function"
    },
    {
      "inputs": [],
      "name": "comMarketFundPerc",
      "outputs": [
        {
          "internalType": "uint256",
          "name": "",
          "type": "uint256"
        }
      ],
      "stateMutability": "view",
      "type": "function"
    },
    {
      "inputs": [],
      "name": "comMarketFundWallet",
      "outputs": [
        {
          "internalType": "address payable",
          "name": "",
          "type": "address"
        }
      ],
      "stateMutability": "view",
      "type": "function"
    },
    {
      "inputs": [],
      "name": "developFundPerc",
      "outputs": [
        {
          "internalType": "uint256",
          "name": "",
          "type": "uint256"
        }
      ],
      "stateMutability": "view",
      "type": "function"
    },
    {
      "inputs": [],
      "name": "developFundPercPremim",
      "outputs": [
        {
          "internalType": "uint256",
          "name": "",
          "type": "uint256"
        }
      ],
      "stateMutability": "view",
      "type": "function"
    },
    {
      "inputs": [],
      "name": "expertExtraPerc",
      "outputs": [
        {
          "internalType": "uint256",
          "name": "",
          "type": "uint256"
        }
      ],
      "stateMutability": "view",
      "type": "function"
    },
    {
      "inputs": [],
      "name": "expertPerc",
      "outputs": [
        {
          "internalType": "uint256",
          "name": "",
          "type": "uint256"
        }
      ],
      "stateMutability": "view",
      "type": "function"
    },
    {
      "inputs": [],
      "name": "expertPercMint",
      "outputs": [
        {
          "internalType": "uint256",
          "name": "",
          "type": "uint256"
        }
      ],
      "stateMutability": "view",
      "type": "function"
    },
    {
      "inputs": [],
      "name": "expertPremiumPerc",
      "outputs": [
        {
          "internalType": "uint256",
          "name": "",
          "type": "uint256"
        }
      ],
      "stateMutability": "view",
      "type": "function"
    },
    {
      "inputs": [],
      "name": "extraHostPerc",
      "outputs": [
        {
          "internalType": "uint256",
          "name": "",
          "type": "uint256"
        }
      ],
      "stateMutability": "view",
      "type": "function"
    },
    {
      "inputs": [],
      "name": "extraHostPercMint",
      "outputs": [
        {
          "internalType": "uint256",
          "name": "",
          "type": "uint256"
        }
      ],
      "stateMutability": "view",
      "type": "function"
    },
    {
      "inputs": [],
      "name": "hostPerc",
      "outputs": [
        {
          "internalType": "uint256",
          "name": "",
          "type": "uint256"
        }
      ],
      "stateMutability": "view",
      "type": "function"
    },
    {
      "inputs": [],
      "name": "hostPercMint",
      "outputs": [
        {
          "internalType": "uint256",
          "name": "",
          "type": "uint256"
        }
      ],
      "stateMutability": "view",
      "type": "function"
    },
    {
      "inputs": [],
      "name": "moderatorsFundPerc",
      "outputs": [
        {
          "internalType": "uint256",
          "name": "",
          "type": "uint256"
        }
      ],
      "stateMutability": "view",
      "type": "function"
    },
    {
      "inputs": [],
      "name": "moderatorsFundWallet",
      "outputs": [
        {
          "internalType": "address payable",
          "name": "",
          "type": "address"
        }
      ],
      "stateMutability": "view",
      "type": "function"
    },
    {
      "inputs": [
        {
          "internalType": "address payable",
          "name": "_CMFWallet",
          "type": "address"
        },
        {
          "internalType": "address payable",
          "name": "_MFWallet",
          "type": "address"
        }
      ],
      "name": "setFundWallet",
      "outputs": [],
      "stateMutability": "nonpayable",
      "type": "function"
    },
    {
      "inputs": [
        {
          "internalType": "uint256",
          "name": "_dFPerc",
          "type": "uint256"
        },
        {
          "internalType": "uint256",
          "name": "_dFPPremim",
          "type": "uint256"
        },
        {
          "internalType": "uint256",
          "name": "_cMFPerc",
          "type": "uint256"
        },
        {
          "internalType": "uint256",
          "name": "_mFPerc",
          "type": "uint256"
        }
      ],
      "name": "setFundPerc",
      "outputs": [],
      "stateMutability": "nonpayable",
      "type": "function"
    },
    {
      "inputs": [
        {
          "internalType": "uint256",
          "name": "_hostPercMint",
          "type": "uint256"
        },
        {
          "internalType": "uint256",
          "name": "_hostPerc",
          "type": "uint256"
        },
        {
          "internalType": "uint256",
          "name": "_eHPerc",
          "type": "uint256"
        },
        {
          "internalType": "uint256",
          "name": "_eHPMint",
          "type": "uint256"
        }
      ],
      "name": "setHostPerc",
      "outputs": [],
      "stateMutability": "nonpayable",
      "type": "function"
    },
    {
      "inputs": [
        {
          "internalType": "uint256",
          "name": "_ePercMint",
          "type": "uint256"
        },
        {
          "internalType": "uint256",
          "name": "_ePerc",
          "type": "uint256"
        },
        {
          "internalType": "uint256",
          "name": "_eExtraPerc",
          "type": "uint256"
        },
        {
          "internalType": "uint256",
          "name": "_ePremPerc",
          "type": "uint256"
        }
      ],
      "name": "setExpertPerc",
      "outputs": [],
      "stateMutability": "nonpayable",
      "type": "function"
    },
    {
      "inputs": [
        {
          "internalType": "uint256",
          "name": "_adPercMint",
          "type": "uint256"
        },
        {
          "internalType": "uint256",
          "name": "_adPerc",
          "type": "uint256"
        }
      ],
      "name": "setAdvisorPerc",
      "outputs": [],
      "stateMutability": "nonpayable",
      "type": "function"
    }
  ],
  "bytecode": "0x608060405234801561001057600080fd5b50610a6b806100206000396000f3fe608060405234801561001057600080fd5b50600436106101375760003560e01c80638a571fcc116100b8578063cb95c2041161007c578063cb95c204146103b8578063dba8fe8714610404578063e1755c6a14610422578063e1dcc40914610440578063f7ec58511461045e578063fab5102c1461047c57610137565b80638a571fcc146102dc5780638a9dbda7146103405780638fc8bc421461035e578063af9ace451461037c578063c12c8c461461039a57610137565b806355e84158116100ff57806355e8415814610202578063684a324714610220578063786508c51461026c578063802cc34c1461028a578063896aa7a4146102be57610137565b80631c4083571461013c57806324beedd31461015a5780632819bd02146101785780632c316d05146101b05780633467f697146101ce575b600080fd5b6101446104c8565b6040518082815260200191505060405180910390f35b6101626104ce565b6040518082815260200191505060405180910390f35b6101ae6004803603604081101561018e57600080fd5b8101908080359060200190929190803590602001909291905050506104d4565b005b6101b86105a9565b6040518082815260200191505060405180910390f35b6101d66105af565b604051808273ffffffffffffffffffffffffffffffffffffffff16815260200191505060405180910390f35b61020a6105d5565b6040518082815260200191505060405180910390f35b61026a6004803603608081101561023657600080fd5b81019080803590602001909291908035906020019092919080359060200190929190803590602001909291905050506105db565b005b6102746106c0565b6040518082815260200191505060405180910390f35b6102926106c6565b604051808273ffffffffffffffffffffffffffffffffffffffff16815260200191505060405180910390f35b6102c66106ec565b6040518082815260200191505060405180910390f35b61033e600480360360408110156102f257600080fd5b81019080803573ffffffffffffffffffffffffffffffffffffffff169060200190929190803573ffffffffffffffffffffffffffffffffffffffff1690602001909291905050506106f2565b005b61034861083b565b6040518082815260200191505060405180910390f35b610366610841565b6040518082815260200191505060405180910390f35b610384610847565b6040518082815260200191505060405180910390f35b6103a261084d565b6040518082815260200191505060405180910390f35b610402600480360360808110156103ce57600080fd5b8101908080359060200190929190803590602001909291908035906020019092919080359060200190929190505050610853565b005b61040c610938565b6040518082815260200191505060405180910390f35b61042a61093e565b6040518082815260200191505060405180910390f35b610448610944565b6040518082815260200191505060405180910390f35b61046661094a565b6040518082815260200191505060405180910390f35b6104c66004803603608081101561049257600080fd5b8101908080359060200190929190803590602001909291908035906020019092919080359060200190929190505050610950565b005b60035481565b60065481565b600060029054906101000a900473ffffffffffffffffffffffffffffffffffffffff1673ffffffffffffffffffffffffffffffffffffffff163373ffffffffffffffffffffffffffffffffffffffff1614610597576040517f08c379a000000000000000000000000000000000000000000000000000000000815260040180806020018281038252600a8152602001807f6f776e6572206f6e6c790000000000000000000000000000000000000000000081525060200191505060405180910390fd5b81600f81905550806010819055505050565b600d5481565b600260009054906101000a900473ffffffffffffffffffffffffffffffffffffffff1681565b600a5481565b600060029054906101000a900473ffffffffffffffffffffffffffffffffffffffff1673ffffffffffffffffffffffffffffffffffffffff163373ffffffffffffffffffffffffffffffffffffffff161461069e576040517f08c379a000000000000000000000000000000000000000000000000000000000815260040180806020018281038252600a8152602001807f6f776e6572206f6e6c790000000000000000000000000000000000000000000081525060200191505060405180910390fd5b83600781905550826008819055508160098190555080600a8190555050505050565b60105481565b600160009054906101000a900473ffffffffffffffffffffffffffffffffffffffff1681565b600c5481565b600060029054906101000a900473ffffffffffffffffffffffffffffffffffffffff1673ffffffffffffffffffffffffffffffffffffffff163373ffffffffffffffffffffffffffffffffffffffff16146107b5576040517f08c379a000000000000000000000000000000000000000000000000000000000815260040180806020018281038252600a8152602001807f6f776e6572206f6e6c790000000000000000000000000000000000000000000081525060200191505060405180910390fd5b81600160006101000a81548173ffffffffffffffffffffffffffffffffffffffff021916908373ffffffffffffffffffffffffffffffffffffffff16021790555080600260006101000a81548173ffffffffffffffffffffffffffffffffffffffff021916908373ffffffffffffffffffffffffffffffffffffffff1602179055505050565b60075481565b60085481565b600b5481565b60095481565b600060029054906101000a900473ffffffffffffffffffffffffffffffffffffffff1673ffffffffffffffffffffffffffffffffffffffff163373ffffffffffffffffffffffffffffffffffffffff1614610916576040517f08c379a000000000000000000000000000000000000000000000000000000000815260040180806020018281038252600a8152602001807f6f776e6572206f6e6c790000000000000000000000000000000000000000000081525060200191505060405180910390fd5b8360038190555082600481905550816005819055508060068190555050505050565b600e5481565b60055481565b60045481565b600f5481565b600060029054906101000a900473ffffffffffffffffffffffffffffffffffffffff1673ffffffffffffffffffffffffffffffffffffffff163373ffffffffffffffffffffffffffffffffffffffff1614610a13576040517f08c379a000000000000000000000000000000000000000000000000000000000815260040180806020018281038252600a8152602001807f6f776e6572206f6e6c790000000000000000000000000000000000000000000081525060200191505060405180910390fd5b83600b8190555082600c8190555081600d8190555080600e819055505050505056fea264697066735822122016f473cb191995e6ac7ec929c259bb01d04a4fea7e17fea39c047aa3e3a6136564736f6c63430007060033",
  "immutableReferences": {},
  "source": "// SPDX-License-Identifier: MIT\npragma solidity >=0.4.22 <0.9.0;\n\nimport \"@openzeppelin/contracts-upgradeable/proxy/Initializable.sol\";\n\ncontract MPConfig is Initializable {\n    address owner;\n    address payable public comMarketFundWallet; // Community Market Fund wallet\n    address payable public moderatorsFundWallet; // Moderators Fund wallet\n    uint256 public developFundPerc; // mint token percent for Development Fund\n    uint256 public developFundPercPremim; // pay token percent for Developement Fund in Premium events\n    uint256 public comMarketFundPerc; // 5 if advisor exist or comMarketFundPerc + advisorPercMint + extraHostPercMint = 8 if advisor not exist\n    uint256 public moderatorsFundPerc; // Moderators Fund percent to pay token\n    // HOST\n    uint256 public hostPercMint; // mint token percent for host\n    uint256 public hostPerc; // pay token percent for host\n    uint256 public extraHostPerc; // if advisor exist we add extra coins to host\n    uint256 public extraHostPercMint; // if advisor exist we add extra coins to host in mint token\n    // EXPERT\n    uint256 public expertPercMint; // mint token percent for expert\n    uint256 public expertPerc; // pay token percent for expert\n    uint256 public expertExtraPerc; // extra pay token parcent for expert if advisor not exist\n    uint256 public expertPremiumPerc; // bty percent in premium events for experts\n    // ADVISORS\n    uint256 public advisorPercMint; // mint token parcent for advisor\n    uint256 public advisorPepc; // pay token parcent for advisor\n\n    function setFundWallet(\n        address payable _CMFWallet,\n        address payable _MFWallet\n    ) public {\n        require(msg.sender == owner, \"owner only\");\n        comMarketFundWallet = _CMFWallet;\n        moderatorsFundWallet = _MFWallet;\n    }\n\n    function setFundPerc(\n        uint256 _dFPerc,\n        uint256 _dFPPremim,\n        uint256 _cMFPerc,\n        uint256 _mFPerc\n    ) public {\n        require(msg.sender == owner, \"owner only\");\n        developFundPerc = _dFPerc;\n        developFundPercPremim = _dFPPremim;\n        comMarketFundPerc = _cMFPerc;\n        moderatorsFundPerc = _mFPerc;\n    }\n\n    function setHostPerc(\n        uint256 _hostPercMint,\n        uint256 _hostPerc,\n        uint256 _eHPerc,\n        uint256 _eHPMint\n    ) public {\n        require(msg.sender == owner, \"owner only\");\n        hostPercMint = _hostPercMint;\n        hostPerc = _hostPerc;\n        extraHostPerc = _eHPerc;\n        extraHostPercMint = _eHPMint;\n    }\n\n    function setExpertPerc(\n        uint256 _ePercMint,\n        uint256 _ePerc,\n        uint256 _eExtraPerc,\n        uint256 _ePremPerc\n    ) public {\n        require(msg.sender == owner, \"owner only\");\n        expertPercMint = _ePercMint;\n        expertPerc = _ePerc;\n        expertExtraPerc = _eExtraPerc;\n        expertPremiumPerc = _ePremPerc;\n    }\n\n    function setAdvisorPerc(uint256 _adPercMint, uint256 _adPerc) public {\n        require(msg.sender == owner, \"owner only\");\n        advisorPercMint = _adPercMint;\n        advisorPepc = _adPerc;\n    }\n}\n",
  "sourcePath": "/Users/macbook/Documents/freelance/tokenominc/contracts/matic/config/MPConfig.sol",
  "compiler": {
    "name": "solc",
    "version": "0.7.6+commit.7338295f.Linux.g++"
  },
  "schemaVersion": "3.3.4",
  "updatedAt": "2021-03-24T15:56:14.390Z",
  "devdoc": {
    "kind": "dev",
    "methods": {},
    "version": 1
  },
  "userdoc": {
    "kind": "user",
    "methods": {},
    "version": 1
  }
}