{
  "contractName": "MPConfig",
  "abi": [
    {
      "inputs": [],
      "name": "advisorPepc",
      "outputs": [
        {
          "internalType": "uint256",
          "name": "",
          "type": "uint256"
        }
      ],
      "stateMutability": "view",
      "type": "function"
    },
    {
      "inputs": [],
      "name": "advisorPercMint",
      "outputs": [
        {
          "internalType": "uint256",
          "name": "",
          "type": "uint256"
        }
      ],
      "stateMutability": "view",
      "type": "function"
    },
    {
      "inputs": [],
      "name": "comMarketFundPerc",
      "outputs": [
        {
          "internalType": "uint256",
          "name": "",
          "type": "uint256"
        }
      ],
      "stateMutability": "view",
      "type": "function"
    },
    {
      "inputs": [],
      "name": "comMarketFundWallet",
      "outputs": [
        {
          "internalType": "address payable",
          "name": "",
          "type": "address"
        }
      ],
      "stateMutability": "view",
      "type": "function"
    },
    {
      "inputs": [],
      "name": "developFundPerc",
      "outputs": [
        {
          "internalType": "uint256",
          "name": "",
          "type": "uint256"
        }
      ],
      "stateMutability": "view",
      "type": "function"
    },
    {
      "inputs": [],
      "name": "developFundPercPremim",
      "outputs": [
        {
          "internalType": "uint256",
          "name": "",
          "type": "uint256"
        }
      ],
      "stateMutability": "view",
      "type": "function"
    },
    {
      "inputs": [],
      "name": "expertExtraPerc",
      "outputs": [
        {
          "internalType": "uint256",
          "name": "",
          "type": "uint256"
        }
      ],
      "stateMutability": "view",
      "type": "function"
    },
    {
      "inputs": [],
      "name": "expertPerc",
      "outputs": [
        {
          "internalType": "uint256",
          "name": "",
          "type": "uint256"
        }
      ],
      "stateMutability": "view",
      "type": "function"
    },
    {
      "inputs": [],
      "name": "expertPercMint",
      "outputs": [
        {
          "internalType": "uint256",
          "name": "",
          "type": "uint256"
        }
      ],
      "stateMutability": "view",
      "type": "function"
    },
    {
      "inputs": [],
      "name": "expertPremiumPerc",
      "outputs": [
        {
          "internalType": "uint256",
          "name": "",
          "type": "uint256"
        }
      ],
      "stateMutability": "view",
      "type": "function"
    },
    {
      "inputs": [],
      "name": "extraHostPerc",
      "outputs": [
        {
          "internalType": "uint256",
          "name": "",
          "type": "uint256"
        }
      ],
      "stateMutability": "view",
      "type": "function"
    },
    {
      "inputs": [],
      "name": "extraHostPercMint",
      "outputs": [
        {
          "internalType": "uint256",
          "name": "",
          "type": "uint256"
        }
      ],
      "stateMutability": "view",
      "type": "function"
    },
    {
      "inputs": [],
      "name": "hostPerc",
      "outputs": [
        {
          "internalType": "uint256",
          "name": "",
          "type": "uint256"
        }
      ],
      "stateMutability": "view",
      "type": "function"
    },
    {
      "inputs": [],
      "name": "hostPercMint",
      "outputs": [
        {
          "internalType": "uint256",
          "name": "",
          "type": "uint256"
        }
      ],
      "stateMutability": "view",
      "type": "function"
    },
    {
      "inputs": [],
      "name": "moderatorsFundPerc",
      "outputs": [
        {
          "internalType": "uint256",
          "name": "",
          "type": "uint256"
        }
      ],
      "stateMutability": "view",
      "type": "function"
    },
    {
      "inputs": [],
      "name": "moderatorsFundWallet",
      "outputs": [
        {
          "internalType": "address payable",
          "name": "",
          "type": "address"
        }
      ],
      "stateMutability": "view",
      "type": "function"
    },
    {
      "inputs": [],
      "name": "__MPConfig",
      "outputs": [],
      "stateMutability": "nonpayable",
      "type": "function"
    },
    {
      "inputs": [
        {
          "internalType": "address payable",
          "name": "_CMFWallet",
          "type": "address"
        },
        {
          "internalType": "address payable",
          "name": "_MFWallet",
          "type": "address"
        }
      ],
      "name": "setFundWallet",
      "outputs": [],
      "stateMutability": "nonpayable",
      "type": "function"
    },
    {
      "inputs": [
        {
          "internalType": "uint256",
          "name": "_dFPerc",
          "type": "uint256"
        },
        {
          "internalType": "uint256",
          "name": "_dFPPremim",
          "type": "uint256"
        },
        {
          "internalType": "uint256",
          "name": "_cMFPerc",
          "type": "uint256"
        },
        {
          "internalType": "uint256",
          "name": "_mFPerc",
          "type": "uint256"
        }
      ],
      "name": "setFundPerc",
      "outputs": [],
      "stateMutability": "nonpayable",
      "type": "function"
    },
    {
      "inputs": [
        {
          "internalType": "uint256",
          "name": "_hostPercMint",
          "type": "uint256"
        },
        {
          "internalType": "uint256",
          "name": "_hostPerc",
          "type": "uint256"
        },
        {
          "internalType": "uint256",
          "name": "_eHPerc",
          "type": "uint256"
        },
        {
          "internalType": "uint256",
          "name": "_eHPMint",
          "type": "uint256"
        }
      ],
      "name": "setHostPerc",
      "outputs": [],
      "stateMutability": "nonpayable",
      "type": "function"
    },
    {
      "inputs": [
        {
          "internalType": "uint256",
          "name": "_ePercMint",
          "type": "uint256"
        },
        {
          "internalType": "uint256",
          "name": "_ePerc",
          "type": "uint256"
        },
        {
          "internalType": "uint256",
          "name": "_eExtraPerc",
          "type": "uint256"
        },
        {
          "internalType": "uint256",
          "name": "_ePremPerc",
          "type": "uint256"
        }
      ],
      "name": "setExpertPerc",
      "outputs": [],
      "stateMutability": "nonpayable",
      "type": "function"
    },
    {
      "inputs": [
        {
          "internalType": "uint256",
          "name": "_adPercMint",
          "type": "uint256"
        },
        {
          "internalType": "uint256",
          "name": "_adPerc",
          "type": "uint256"
        }
      ],
      "name": "setAdvisorPerc",
      "outputs": [],
      "stateMutability": "nonpayable",
      "type": "function"
    }
  ],
  "bytecode": "0x608060405234801561001057600080fd5b50610c11806100206000396000f3fe608060405234801561001057600080fd5b50600436106101425760003560e01c80638a9dbda7116100b8578063cb95c2041161007c578063cb95c204146103cd578063dba8fe8714610419578063e1755c6a14610437578063e1dcc40914610455578063f7ec585114610473578063fab5102c1461049157610142565b80638a9dbda71461034b5780638fc8bc4214610369578063aef5671b14610387578063af9ace4514610391578063c12c8c46146103af57610142565b806355e841581161010a57806355e841581461020d578063684a32471461022b578063786508c514610277578063802cc34c14610295578063896aa7a4146102c95780638a571fcc146102e757610142565b80631c4083571461014757806324beedd3146101655780632819bd02146101835780632c316d05146101bb5780633467f697146101d9575b600080fd5b61014f6104dd565b6040518082815260200191505060405180910390f35b61016d6104e3565b6040518082815260200191505060405180910390f35b6101b96004803603604081101561019957600080fd5b8101908080359060200190929190803590602001909291905050506104e9565b005b6101c36105be565b6040518082815260200191505060405180910390f35b6101e16105c4565b604051808273ffffffffffffffffffffffffffffffffffffffff16815260200191505060405180910390f35b6102156105ea565b6040518082815260200191505060405180910390f35b6102756004803603608081101561024157600080fd5b81019080803590602001909291908035906020019092919080359060200190929190803590602001909291905050506105f0565b005b61027f6106d5565b6040518082815260200191505060405180910390f35b61029d6106db565b604051808273ffffffffffffffffffffffffffffffffffffffff16815260200191505060405180910390f35b6102d1610701565b6040518082815260200191505060405180910390f35b610349600480360360408110156102fd57600080fd5b81019080803573ffffffffffffffffffffffffffffffffffffffff169060200190929190803573ffffffffffffffffffffffffffffffffffffffff169060200190929190505050610707565b005b610353610850565b6040518082815260200191505060405180910390f35b610371610856565b6040518082815260200191505060405180910390f35b61038f61085c565b005b61039961099b565b6040518082815260200191505060405180910390f35b6103b76109a1565b6040518082815260200191505060405180910390f35b610417600480360360808110156103e357600080fd5b81019080803590602001909291908035906020019092919080359060200190929190803590602001909291905050506109a7565b005b610421610a8c565b6040518082815260200191505060405180910390f35b61043f610a92565b6040518082815260200191505060405180910390f35b61045d610a98565b6040518082815260200191505060405180910390f35b61047b610a9e565b6040518082815260200191505060405180910390f35b6104db600480360360808110156104a757600080fd5b8101908080359060200190929190803590602001909291908035906020019092919080359060200190929190505050610aa4565b005b60035481565b60065481565b600060029054906101000a900473ffffffffffffffffffffffffffffffffffffffff1673ffffffffffffffffffffffffffffffffffffffff163373ffffffffffffffffffffffffffffffffffffffff16146105ac576040517f08c379a000000000000000000000000000000000000000000000000000000000815260040180806020018281038252600a8152602001807f6f776e6572206f6e6c790000000000000000000000000000000000000000000081525060200191505060405180910390fd5b81600f81905550806010819055505050565b600d5481565b600260009054906101000a900473ffffffffffffffffffffffffffffffffffffffff1681565b600a5481565b600060029054906101000a900473ffffffffffffffffffffffffffffffffffffffff1673ffffffffffffffffffffffffffffffffffffffff163373ffffffffffffffffffffffffffffffffffffffff16146106b3576040517f08c379a000000000000000000000000000000000000000000000000000000000815260040180806020018281038252600a8152602001807f6f776e6572206f6e6c790000000000000000000000000000000000000000000081525060200191505060405180910390fd5b83600781905550826008819055508160098190555080600a8190555050505050565b60105481565b600160009054906101000a900473ffffffffffffffffffffffffffffffffffffffff1681565b600c5481565b600060029054906101000a900473ffffffffffffffffffffffffffffffffffffffff1673ffffffffffffffffffffffffffffffffffffffff163373ffffffffffffffffffffffffffffffffffffffff16146107ca576040517f08c379a000000000000000000000000000000000000000000000000000000000815260040180806020018281038252600a8152602001807f6f776e6572206f6e6c790000000000000000000000000000000000000000000081525060200191505060405180910390fd5b81600160006101000a81548173ffffffffffffffffffffffffffffffffffffffff021916908373ffffffffffffffffffffffffffffffffffffffff16021790555080600260006101000a81548173ffffffffffffffffffffffffffffffffffffffff021916908373ffffffffffffffffffffffffffffffffffffffff1602179055505050565b60075481565b60085481565b600060019054906101000a900460ff168061087b575061087a610b89565b5b80610891575060008054906101000a900460ff16155b6108e6576040517f08c379a000000000000000000000000000000000000000000000000000000000815260040180806020018281038252602e815260200180610bae602e913960400191505060405180910390fd5b60008060019054906101000a900460ff161590508015610936576001600060016101000a81548160ff02191690831515021790555060016000806101000a81548160ff0219169083151502179055505b33600060026101000a81548173ffffffffffffffffffffffffffffffffffffffff021916908373ffffffffffffffffffffffffffffffffffffffff16021790555080156109985760008060016101000a81548160ff0219169083151502179055505b50565b600b5481565b60095481565b600060029054906101000a900473ffffffffffffffffffffffffffffffffffffffff1673ffffffffffffffffffffffffffffffffffffffff163373ffffffffffffffffffffffffffffffffffffffff1614610a6a576040517f08c379a000000000000000000000000000000000000000000000000000000000815260040180806020018281038252600a8152602001807f6f776e6572206f6e6c790000000000000000000000000000000000000000000081525060200191505060405180910390fd5b8360038190555082600481905550816005819055508060068190555050505050565b600e5481565b60055481565b60045481565b600f5481565b600060029054906101000a900473ffffffffffffffffffffffffffffffffffffffff1673ffffffffffffffffffffffffffffffffffffffff163373ffffffffffffffffffffffffffffffffffffffff1614610b67576040517f08c379a000000000000000000000000000000000000000000000000000000000815260040180806020018281038252600a8152602001807f6f776e6572206f6e6c790000000000000000000000000000000000000000000081525060200191505060405180910390fd5b83600b8190555082600c8190555081600d8190555080600e8190555050505050565b6000610b9430610b9a565b15905090565b600080823b90506000811191505091905056fe496e697469616c697a61626c653a20636f6e747261637420697320616c726561647920696e697469616c697a6564a26469706673582212203dcaa9358bd8a6a81b2c73d171d74dbf9498e7939266c54e29882904618a5d2e64736f6c63430007060033",
  "immutableReferences": {},
  "source": "// SPDX-License-Identifier: MIT\npragma solidity >=0.4.22 <0.9.0;\n\nimport \"@openzeppelin/contracts-upgradeable/proxy/Initializable.sol\";\n\ncontract MPConfig is Initializable {\n    address owner;\n    address payable public comMarketFundWallet; // Community Market Fund wallet\n    address payable public moderatorsFundWallet; // Moderators Fund wallet\n    uint256 public developFundPerc; // mint token percent for Development Fund\n    uint256 public developFundPercPremim; // pay token percent for Developement Fund in Premium events\n    uint256 public comMarketFundPerc; // 5 if advisor exist or comMarketFundPerc + advisorPercMint + extraHostPercMint = 8 if advisor not exist\n    uint256 public moderatorsFundPerc; // Moderators Fund percent to pay token\n    // HOST\n    uint256 public hostPercMint; // mint token percent for host\n    uint256 public hostPerc; // pay token percent for host\n    uint256 public extraHostPerc; // if advisor exist we add extra coins to host\n    uint256 public extraHostPercMint; // if advisor exist we add extra coins to host in mint token\n    // EXPERT\n    uint256 public expertPercMint; // mint token percent for expert\n    uint256 public expertPerc; // pay token percent for expert\n    uint256 public expertExtraPerc; // extra pay token parcent for expert if advisor not exist\n    uint256 public expertPremiumPerc; // bty percent in premium events for experts\n    // ADVISORS\n    uint256 public advisorPercMint; // mint token parcent for advisor\n    uint256 public advisorPepc; // pay token parcent for advisor\n\n    function __MPConfig() public initializer{\n        owner = msg.sender;\n    }\n\n    function setFundWallet(\n        address payable _CMFWallet,\n        address payable _MFWallet\n    ) public {\n        require(msg.sender == owner, \"owner only\");\n        comMarketFundWallet = _CMFWallet;\n        moderatorsFundWallet = _MFWallet;\n    }\n\n    function setFundPerc(\n        uint256 _dFPerc,\n        uint256 _dFPPremim,\n        uint256 _cMFPerc,\n        uint256 _mFPerc\n    ) public {\n        require(msg.sender == owner, \"owner only\");\n        developFundPerc = _dFPerc;\n        developFundPercPremim = _dFPPremim;\n        comMarketFundPerc = _cMFPerc;\n        moderatorsFundPerc = _mFPerc;\n    }\n\n    function setHostPerc(\n        uint256 _hostPercMint,\n        uint256 _hostPerc,\n        uint256 _eHPerc,\n        uint256 _eHPMint\n    ) public {\n        require(msg.sender == owner, \"owner only\");\n        hostPercMint = _hostPercMint;\n        hostPerc = _hostPerc;\n        extraHostPerc = _eHPerc;\n        extraHostPercMint = _eHPMint;\n    }\n\n    function setExpertPerc(\n        uint256 _ePercMint,\n        uint256 _ePerc,\n        uint256 _eExtraPerc,\n        uint256 _ePremPerc\n    ) public {\n        require(msg.sender == owner, \"owner only\");\n        expertPercMint = _ePercMint;\n        expertPerc = _ePerc;\n        expertExtraPerc = _eExtraPerc;\n        expertPremiumPerc = _ePremPerc;\n    }\n\n    function setAdvisorPerc(uint256 _adPercMint, uint256 _adPerc) public {\n        require(msg.sender == owner, \"owner only\");\n        advisorPercMint = _adPercMint;\n        advisorPepc = _adPerc;\n    }\n}\n",
  "sourcePath": "/Users/macbook/Documents/freelance/tokenominc/contracts/matic/config/MPConfig.sol",
  "compiler": {
    "name": "solc",
    "version": "0.7.6+commit.7338295f.Linux.g++"
  },
  "schemaVersion": "3.3.4",
  "updatedAt": "2021-03-25T12:50:19.200Z",
  "devdoc": {
    "kind": "dev",
    "methods": {},
    "version": 1
  },
  "userdoc": {
    "kind": "user",
    "methods": {},
    "version": 1
  }
}