{
  "contractName": "MPConfig",
  "abi": [
    {
      "inputs": [],
      "stateMutability": "nonpayable",
      "type": "constructor"
    },
    {
      "inputs": [],
      "name": "GFindex",
      "outputs": [
        {
          "internalType": "uint256",
          "name": "",
          "type": "uint256"
        }
      ],
      "stateMutability": "view",
      "type": "function"
    },
    {
      "inputs": [],
      "name": "advisorPepc",
      "outputs": [
        {
          "internalType": "uint256",
          "name": "",
          "type": "uint256"
        }
      ],
      "stateMutability": "view",
      "type": "function"
    },
    {
      "inputs": [],
      "name": "advisorPercMint",
      "outputs": [
        {
          "internalType": "uint256",
          "name": "",
          "type": "uint256"
        }
      ],
      "stateMutability": "view",
      "type": "function"
    },
    {
      "inputs": [],
      "name": "comMarketFundPerc",
      "outputs": [
        {
          "internalType": "uint256",
          "name": "",
          "type": "uint256"
        }
      ],
      "stateMutability": "view",
      "type": "function"
    },
    {
      "inputs": [],
      "name": "comMarketFundWallet",
      "outputs": [
        {
          "internalType": "address payable",
          "name": "",
          "type": "address"
        }
      ],
      "stateMutability": "view",
      "type": "function"
    },
    {
      "inputs": [],
      "name": "developFundPerc",
      "outputs": [
        {
          "internalType": "uint256",
          "name": "",
          "type": "uint256"
        }
      ],
      "stateMutability": "view",
      "type": "function"
    },
    {
      "inputs": [],
      "name": "developFundPercPremim",
      "outputs": [
        {
          "internalType": "uint256",
          "name": "",
          "type": "uint256"
        }
      ],
      "stateMutability": "view",
      "type": "function"
    },
    {
      "inputs": [],
      "name": "expertExtraPerc",
      "outputs": [
        {
          "internalType": "uint256",
          "name": "",
          "type": "uint256"
        }
      ],
      "stateMutability": "view",
      "type": "function"
    },
    {
      "inputs": [],
      "name": "expertPerc",
      "outputs": [
        {
          "internalType": "uint256",
          "name": "",
          "type": "uint256"
        }
      ],
      "stateMutability": "view",
      "type": "function"
    },
    {
      "inputs": [],
      "name": "expertPercMint",
      "outputs": [
        {
          "internalType": "uint256",
          "name": "",
          "type": "uint256"
        }
      ],
      "stateMutability": "view",
      "type": "function"
    },
    {
      "inputs": [],
      "name": "expertPremiumPerc",
      "outputs": [
        {
          "internalType": "uint256",
          "name": "",
          "type": "uint256"
        }
      ],
      "stateMutability": "view",
      "type": "function"
    },
    {
      "inputs": [],
      "name": "extraHostPerc",
      "outputs": [
        {
          "internalType": "uint256",
          "name": "",
          "type": "uint256"
        }
      ],
      "stateMutability": "view",
      "type": "function"
    },
    {
      "inputs": [],
      "name": "extraHostPercMint",
      "outputs": [
        {
          "internalType": "uint256",
          "name": "",
          "type": "uint256"
        }
      ],
      "stateMutability": "view",
      "type": "function"
    },
    {
      "inputs": [],
      "name": "hostPerc",
      "outputs": [
        {
          "internalType": "uint256",
          "name": "",
          "type": "uint256"
        }
      ],
      "stateMutability": "view",
      "type": "function"
    },
    {
      "inputs": [],
      "name": "hostPercMint",
      "outputs": [
        {
          "internalType": "uint256",
          "name": "",
          "type": "uint256"
        }
      ],
      "stateMutability": "view",
      "type": "function"
    },
    {
      "inputs": [],
      "name": "moderatorsFundPerc",
      "outputs": [
        {
          "internalType": "uint256",
          "name": "",
          "type": "uint256"
        }
      ],
      "stateMutability": "view",
      "type": "function"
    },
    {
      "inputs": [],
      "name": "moderatorsFundWallet",
      "outputs": [
        {
          "internalType": "address payable",
          "name": "",
          "type": "address"
        }
      ],
      "stateMutability": "view",
      "type": "function"
    },
    {
      "inputs": [
        {
          "internalType": "address payable",
          "name": "_CMFWallet",
          "type": "address"
        },
        {
          "internalType": "address payable",
          "name": "_MFWallet",
          "type": "address"
        }
      ],
      "name": "setFundWallet",
      "outputs": [],
      "stateMutability": "nonpayable",
      "type": "function"
    },
    {
      "inputs": [
        {
          "internalType": "uint256",
          "name": "_dFPerc",
          "type": "uint256"
        },
        {
          "internalType": "uint256",
          "name": "_dFPPremim",
          "type": "uint256"
        },
        {
          "internalType": "uint256",
          "name": "_cMFPerc",
          "type": "uint256"
        },
        {
          "internalType": "uint256",
          "name": "_mFPerc",
          "type": "uint256"
        }
      ],
      "name": "setFundPerc",
      "outputs": [],
      "stateMutability": "nonpayable",
      "type": "function"
    },
    {
      "inputs": [
        {
          "internalType": "uint256",
          "name": "_hostPercMint",
          "type": "uint256"
        },
        {
          "internalType": "uint256",
          "name": "_hostPerc",
          "type": "uint256"
        },
        {
          "internalType": "uint256",
          "name": "_eHPerc",
          "type": "uint256"
        },
        {
          "internalType": "uint256",
          "name": "_eHPMint",
          "type": "uint256"
        }
      ],
      "name": "setHostPerc",
      "outputs": [],
      "stateMutability": "nonpayable",
      "type": "function"
    },
    {
      "inputs": [
        {
          "internalType": "uint256",
          "name": "_ePercMint",
          "type": "uint256"
        },
        {
          "internalType": "uint256",
          "name": "_ePerc",
          "type": "uint256"
        },
        {
          "internalType": "uint256",
          "name": "_eExtraPerc",
          "type": "uint256"
        },
        {
          "internalType": "uint256",
          "name": "_ePremPerc",
          "type": "uint256"
        }
      ],
      "name": "setExpertPerc",
      "outputs": [],
      "stateMutability": "nonpayable",
      "type": "function"
    },
    {
      "inputs": [
        {
          "internalType": "uint256",
          "name": "_adPercMint",
          "type": "uint256"
        },
        {
          "internalType": "uint256",
          "name": "_adPerc",
          "type": "uint256"
        }
      ],
      "name": "setAdvisorPerc",
      "outputs": [],
      "stateMutability": "nonpayable",
      "type": "function"
    },
    {
      "inputs": [
        {
          "internalType": "uint256",
          "name": "_GFindex",
          "type": "uint256"
        }
      ],
      "name": "setGFindex",
      "outputs": [],
      "stateMutability": "nonpayable",
      "type": "function"
    },
    {
      "inputs": [],
      "name": "getGFindex",
      "outputs": [
        {
          "internalType": "uint256",
          "name": "",
          "type": "uint256"
        }
      ],
      "stateMutability": "view",
      "type": "function"
    }
  ],
  "bytecode": "0x6080604052600a600355600a600455600580556002600655600a600755600460085560016009556001600a55600a600b556004600c556002600d55600f600e556002600f556001601055606460115534801561005a57600080fd5b50336000806101000a81548173ffffffffffffffffffffffffffffffffffffffff021916908373ffffffffffffffffffffffffffffffffffffffff160217905550610bc7806100aa6000396000f3fe608060405234801561001057600080fd5b50600436106101585760003560e01c80638a9dbda7116100c3578063d70b4bb61161007c578063d70b4bb614610471578063dba8fe871461048f578063e1755c6a146104ad578063e1dcc409146104cb578063f7ec5851146104e9578063fab5102c1461050757610158565b80638a9dbda71461037f5780638fc8bc421461039d578063af9ace45146103bb578063c12c8c46146103d9578063c369085e146103f7578063cb95c2041461042557610158565b806355e841581161011557806355e8415814610241578063684a32471461025f578063786508c5146102ab578063802cc34c146102c9578063896aa7a4146102fd5780638a571fcc1461031b57610158565b806315cfe4191461015d5780631c4083571461017b57806324beedd3146101995780632819bd02146101b75780632c316d05146101ef5780633467f6971461020d575b600080fd5b610165610553565b6040518082815260200191505060405180910390f35b610183610559565b6040518082815260200191505060405180910390f35b6101a161055f565b6040518082815260200191505060405180910390f35b6101ed600480360360408110156101cd57600080fd5b810190808035906020019092919080359060200190929190505050610565565b005b6101f7610638565b6040518082815260200191505060405180910390f35b61021561063e565b604051808273ffffffffffffffffffffffffffffffffffffffff16815260200191505060405180910390f35b610249610664565b6040518082815260200191505060405180910390f35b6102a96004803603608081101561027557600080fd5b810190808035906020019092919080359060200190929190803590602001909291908035906020019092919050505061066a565b005b6102b361074d565b6040518082815260200191505060405180910390f35b6102d1610753565b604051808273ffffffffffffffffffffffffffffffffffffffff16815260200191505060405180910390f35b610305610779565b6040518082815260200191505060405180910390f35b61037d6004803603604081101561033157600080fd5b81019080803573ffffffffffffffffffffffffffffffffffffffff169060200190929190803573ffffffffffffffffffffffffffffffffffffffff16906020019092919050505061077f565b005b6103876108c6565b6040518082815260200191505060405180910390f35b6103a56108cc565b6040518082815260200191505060405180910390f35b6103c36108d2565b6040518082815260200191505060405180910390f35b6103e16108d8565b6040518082815260200191505060405180910390f35b6104236004803603602081101561040d57600080fd5b81019080803590602001909291905050506108de565b005b61046f6004803603608081101561043b57600080fd5b81019080803590602001909291908035906020019092919080359060200190929190803590602001909291905050506109a9565b005b610479610a8c565b6040518082815260200191505060405180910390f35b610497610a96565b6040518082815260200191505060405180910390f35b6104b5610a9c565b6040518082815260200191505060405180910390f35b6104d3610aa2565b6040518082815260200191505060405180910390f35b6104f1610aa8565b6040518082815260200191505060405180910390f35b6105516004803603608081101561051d57600080fd5b8101908080359060200190929190803590602001909291908035906020019092919080359060200190929190505050610aae565b005b60115481565b60035481565b60065481565b60008054906101000a900473ffffffffffffffffffffffffffffffffffffffff1673ffffffffffffffffffffffffffffffffffffffff163373ffffffffffffffffffffffffffffffffffffffff1614610626576040517f08c379a000000000000000000000000000000000000000000000000000000000815260040180806020018281038252600a8152602001807f6f776e6572206f6e6c790000000000000000000000000000000000000000000081525060200191505060405180910390fd5b81600f81905550806010819055505050565b600d5481565b600260009054906101000a900473ffffffffffffffffffffffffffffffffffffffff1681565b600a5481565b60008054906101000a900473ffffffffffffffffffffffffffffffffffffffff1673ffffffffffffffffffffffffffffffffffffffff163373ffffffffffffffffffffffffffffffffffffffff161461072b576040517f08c379a000000000000000000000000000000000000000000000000000000000815260040180806020018281038252600a8152602001807f6f776e6572206f6e6c790000000000000000000000000000000000000000000081525060200191505060405180910390fd5b83600781905550826008819055508160098190555080600a8190555050505050565b60105481565b600160009054906101000a900473ffffffffffffffffffffffffffffffffffffffff1681565b600c5481565b60008054906101000a900473ffffffffffffffffffffffffffffffffffffffff1673ffffffffffffffffffffffffffffffffffffffff163373ffffffffffffffffffffffffffffffffffffffff1614610840576040517f08c379a000000000000000000000000000000000000000000000000000000000815260040180806020018281038252600a8152602001807f6f776e6572206f6e6c790000000000000000000000000000000000000000000081525060200191505060405180910390fd5b81600160006101000a81548173ffffffffffffffffffffffffffffffffffffffff021916908373ffffffffffffffffffffffffffffffffffffffff16021790555080600260006101000a81548173ffffffffffffffffffffffffffffffffffffffff021916908373ffffffffffffffffffffffffffffffffffffffff1602179055505050565b60075481565b60085481565b600b5481565b60095481565b60008054906101000a900473ffffffffffffffffffffffffffffffffffffffff1673ffffffffffffffffffffffffffffffffffffffff163373ffffffffffffffffffffffffffffffffffffffff161461099f576040517f08c379a000000000000000000000000000000000000000000000000000000000815260040180806020018281038252600a8152602001807f6f776e6572206f6e6c790000000000000000000000000000000000000000000081525060200191505060405180910390fd5b8060118190555050565b60008054906101000a900473ffffffffffffffffffffffffffffffffffffffff1673ffffffffffffffffffffffffffffffffffffffff163373ffffffffffffffffffffffffffffffffffffffff1614610a6a576040517f08c379a000000000000000000000000000000000000000000000000000000000815260040180806020018281038252600a8152602001807f6f776e6572206f6e6c790000000000000000000000000000000000000000000081525060200191505060405180910390fd5b8360038190555082600481905550816005819055508060068190555050505050565b6000601154905090565b600e5481565b60055481565b60045481565b600f5481565b60008054906101000a900473ffffffffffffffffffffffffffffffffffffffff1673ffffffffffffffffffffffffffffffffffffffff163373ffffffffffffffffffffffffffffffffffffffff1614610b6f576040517f08c379a000000000000000000000000000000000000000000000000000000000815260040180806020018281038252600a8152602001807f6f776e6572206f6e6c790000000000000000000000000000000000000000000081525060200191505060405180910390fd5b83600b8190555082600c8190555081600d8190555080600e819055505050505056fea26469706673582212204da39c54fce4ce4099e498efb992cf7ba78a6528bac9aa829cfa9484a82052a464736f6c63430007060033",
  "immutableReferences": {},
  "source": "// SPDX-License-Identifier: MIT\npragma solidity >=0.4.22 <0.9.0;\n\ncontract MPConfig {\n    address owner;\n    constructor() {\n        owner = msg.sender;\n    }\n\n    address payable public comMarketFundWallet; // Community Market Fund wallet\n    address payable public moderatorsFundWallet; // Moderators Fund wallet\n    uint public developFundPerc = 10; // mint token percent for Development Fund\n    uint public developFundPercPremim = 10; // pay token percent for Developement Fund in Premium events\n    uint public comMarketFundPerc = 5; // 5 if advisor exist or comMarketFundPerc + advisorPercMint + extraHostPercMint = 8 if advisor not exist\n    uint public moderatorsFundPerc = 2; // Moderators Fund percent to pay token\n        // HOST\n    uint public hostPercMint = 10; // mint token percent for host \n    uint public hostPerc = 4; // pay token percent for host\n    uint public extraHostPerc = 1; // if advisor exist we add extra coins to host\n    uint public extraHostPercMint = 1; // if advisor exist we add extra coins to host in mint token\n    // EXPERT\n    uint public expertPercMint = 10; // mint token percent for expert \n    uint public expertPerc = 4; // pay token percent for expert \n    uint public expertExtraPerc = 2; // extra pay token parcent for expert if advisor not exist\n    uint public expertPremiumPerc = 15; // bty percent in premium events for experts\n    // ADVISORS\n    uint public advisorPercMint = 2; // mint token parcent for advisor \n    uint public advisorPepc = 1;  // pay token parcent for advisor \n\n    uint public GFindex = 100;\n\n    function setFundWallet(address payable _CMFWallet, address payable _MFWallet) public {\n        require(msg.sender == owner, \"owner only\");\n        comMarketFundWallet = _CMFWallet;\n        moderatorsFundWallet = _MFWallet;\n    }\n\n    function setFundPerc(uint _dFPerc, uint _dFPPremim, uint _cMFPerc, uint _mFPerc) public {\n        require(msg.sender == owner, \"owner only\");\n        developFundPerc = _dFPerc;\n        developFundPercPremim = _dFPPremim;\n        comMarketFundPerc = _cMFPerc;\n        moderatorsFundPerc = _mFPerc;\n    }\n\n    function setHostPerc(uint _hostPercMint, uint _hostPerc, uint _eHPerc, uint _eHPMint) public {\n        require(msg.sender == owner, \"owner only\");\n        hostPercMint = _hostPercMint;\n        hostPerc = _hostPerc;\n        extraHostPerc = _eHPerc;\n        extraHostPercMint = _eHPMint;\n    }\n\n    function setExpertPerc(uint _ePercMint, uint _ePerc, uint _eExtraPerc, uint _ePremPerc) public {\n        require(msg.sender == owner, \"owner only\");\n        expertPercMint = _ePercMint;\n        expertPerc = _ePerc;\n        expertExtraPerc = _eExtraPerc;\n        expertPremiumPerc = _ePremPerc;\n    }\n\n    function setAdvisorPerc(uint _adPercMint, uint _adPerc) public {\n        require(msg.sender == owner, \"owner only\");\n        advisorPercMint = _adPercMint;\n        advisorPepc = _adPerc;\n    }\n    \n    function setGFindex(uint _GFindex) public{\n        require(msg.sender == owner, \"owner only\");\n        GFindex = _GFindex;\n    }\n\n    function getGFindex() public view returns(uint) {\n        return GFindex;\n    }\n}\n",
  "sourcePath": "/Users/macbook/Documents/freelance/tokenominc/contracts/matic/config/MPConfig.sol",
  "compiler": {
    "name": "solc",
    "version": "0.7.6+commit.7338295f.Linux.g++"
  },
  "schemaVersion": "3.3.4",
  "updatedAt": "2021-03-17T15:28:12.186Z",
  "devdoc": {
    "kind": "dev",
    "methods": {},
    "version": 1
  },
  "userdoc": {
    "kind": "user",
    "methods": {},
    "version": 1
  }
}