{
  "contractName": "MPConfig",
  "abi": [
    {
      "inputs": [],
      "name": "GFindex",
      "outputs": [
        {
          "internalType": "uint256",
          "name": "",
          "type": "uint256"
        }
      ],
      "stateMutability": "view",
      "type": "function"
    },
    {
      "inputs": [],
      "name": "advisorPepc",
      "outputs": [
        {
          "internalType": "uint256",
          "name": "",
          "type": "uint256"
        }
      ],
      "stateMutability": "view",
      "type": "function"
    },
    {
      "inputs": [],
      "name": "advisorPercMint",
      "outputs": [
        {
          "internalType": "uint256",
          "name": "",
          "type": "uint256"
        }
      ],
      "stateMutability": "view",
      "type": "function"
    },
    {
      "inputs": [],
      "name": "comMarketFundPerc",
      "outputs": [
        {
          "internalType": "uint256",
          "name": "",
          "type": "uint256"
        }
      ],
      "stateMutability": "view",
      "type": "function"
    },
    {
      "inputs": [],
      "name": "comMarketFundWallet",
      "outputs": [
        {
          "internalType": "address payable",
          "name": "",
          "type": "address"
        }
      ],
      "stateMutability": "view",
      "type": "function"
    },
    {
      "inputs": [],
      "name": "developFundPerc",
      "outputs": [
        {
          "internalType": "uint256",
          "name": "",
          "type": "uint256"
        }
      ],
      "stateMutability": "view",
      "type": "function"
    },
    {
      "inputs": [],
      "name": "developFundPercPremim",
      "outputs": [
        {
          "internalType": "uint256",
          "name": "",
          "type": "uint256"
        }
      ],
      "stateMutability": "view",
      "type": "function"
    },
    {
      "inputs": [],
      "name": "expertExtraPerc",
      "outputs": [
        {
          "internalType": "uint256",
          "name": "",
          "type": "uint256"
        }
      ],
      "stateMutability": "view",
      "type": "function"
    },
    {
      "inputs": [],
      "name": "expertPerc",
      "outputs": [
        {
          "internalType": "uint256",
          "name": "",
          "type": "uint256"
        }
      ],
      "stateMutability": "view",
      "type": "function"
    },
    {
      "inputs": [],
      "name": "expertPercMint",
      "outputs": [
        {
          "internalType": "uint256",
          "name": "",
          "type": "uint256"
        }
      ],
      "stateMutability": "view",
      "type": "function"
    },
    {
      "inputs": [],
      "name": "expertPremiumPerc",
      "outputs": [
        {
          "internalType": "uint256",
          "name": "",
          "type": "uint256"
        }
      ],
      "stateMutability": "view",
      "type": "function"
    },
    {
      "inputs": [],
      "name": "extraHostPerc",
      "outputs": [
        {
          "internalType": "uint256",
          "name": "",
          "type": "uint256"
        }
      ],
      "stateMutability": "view",
      "type": "function"
    },
    {
      "inputs": [],
      "name": "extraHostPercMint",
      "outputs": [
        {
          "internalType": "uint256",
          "name": "",
          "type": "uint256"
        }
      ],
      "stateMutability": "view",
      "type": "function"
    },
    {
      "inputs": [],
      "name": "hostPerc",
      "outputs": [
        {
          "internalType": "uint256",
          "name": "",
          "type": "uint256"
        }
      ],
      "stateMutability": "view",
      "type": "function"
    },
    {
      "inputs": [],
      "name": "hostPercMint",
      "outputs": [
        {
          "internalType": "uint256",
          "name": "",
          "type": "uint256"
        }
      ],
      "stateMutability": "view",
      "type": "function"
    },
    {
      "inputs": [],
      "name": "moderatorsFundPerc",
      "outputs": [
        {
          "internalType": "uint256",
          "name": "",
          "type": "uint256"
        }
      ],
      "stateMutability": "view",
      "type": "function"
    },
    {
      "inputs": [],
      "name": "moderatorsFundWallet",
      "outputs": [
        {
          "internalType": "address payable",
          "name": "",
          "type": "address"
        }
      ],
      "stateMutability": "view",
      "type": "function"
    },
    {
      "inputs": [
        {
          "internalType": "uint256",
          "name": "_developFundPerc",
          "type": "uint256"
        },
        {
          "internalType": "uint256",
          "name": "_developFundPercPremim",
          "type": "uint256"
        },
        {
          "internalType": "uint256",
          "name": "_comMarketFundPerc",
          "type": "uint256"
        },
        {
          "internalType": "uint256",
          "name": "_moderatorsFundPerc",
          "type": "uint256"
        },
        {
          "internalType": "uint256",
          "name": "_hostPercMint",
          "type": "uint256"
        },
        {
          "internalType": "uint256",
          "name": "_hostPerc",
          "type": "uint256"
        },
        {
          "internalType": "uint256",
          "name": "_extraHostPerc",
          "type": "uint256"
        },
        {
          "internalType": "uint256",
          "name": "_extraHostPercMint",
          "type": "uint256"
        },
        {
          "internalType": "uint256",
          "name": "_expertPercMint",
          "type": "uint256"
        },
        {
          "internalType": "uint256",
          "name": "_expertPerc",
          "type": "uint256"
        },
        {
          "internalType": "uint256",
          "name": "_expertExtraPerc",
          "type": "uint256"
        },
        {
          "internalType": "uint256",
          "name": "_expertPremiumPerc",
          "type": "uint256"
        },
        {
          "internalType": "uint256",
          "name": "_advisorPercMint",
          "type": "uint256"
        },
        {
          "internalType": "uint256",
          "name": "_advisorPepc",
          "type": "uint256"
        },
        {
          "internalType": "uint256",
          "name": "_GFindex",
          "type": "uint256"
        }
      ],
      "name": "__MPConfigInit",
      "outputs": [],
      "stateMutability": "nonpayable",
      "type": "function"
    },
    {
      "inputs": [
        {
          "internalType": "address payable",
          "name": "_CMFWallet",
          "type": "address"
        },
        {
          "internalType": "address payable",
          "name": "_MFWallet",
          "type": "address"
        }
      ],
      "name": "setFundWallet",
      "outputs": [],
      "stateMutability": "nonpayable",
      "type": "function"
    },
    {
      "inputs": [
        {
          "internalType": "uint256",
          "name": "_dFPerc",
          "type": "uint256"
        },
        {
          "internalType": "uint256",
          "name": "_dFPPremim",
          "type": "uint256"
        },
        {
          "internalType": "uint256",
          "name": "_cMFPerc",
          "type": "uint256"
        },
        {
          "internalType": "uint256",
          "name": "_mFPerc",
          "type": "uint256"
        }
      ],
      "name": "setFundPerc",
      "outputs": [],
      "stateMutability": "nonpayable",
      "type": "function"
    },
    {
      "inputs": [
        {
          "internalType": "uint256",
          "name": "_hostPercMint",
          "type": "uint256"
        },
        {
          "internalType": "uint256",
          "name": "_hostPerc",
          "type": "uint256"
        },
        {
          "internalType": "uint256",
          "name": "_eHPerc",
          "type": "uint256"
        },
        {
          "internalType": "uint256",
          "name": "_eHPMint",
          "type": "uint256"
        }
      ],
      "name": "setHostPerc",
      "outputs": [],
      "stateMutability": "nonpayable",
      "type": "function"
    },
    {
      "inputs": [
        {
          "internalType": "uint256",
          "name": "_ePercMint",
          "type": "uint256"
        },
        {
          "internalType": "uint256",
          "name": "_ePerc",
          "type": "uint256"
        },
        {
          "internalType": "uint256",
          "name": "_eExtraPerc",
          "type": "uint256"
        },
        {
          "internalType": "uint256",
          "name": "_ePremPerc",
          "type": "uint256"
        }
      ],
      "name": "setExpertPerc",
      "outputs": [],
      "stateMutability": "nonpayable",
      "type": "function"
    },
    {
      "inputs": [
        {
          "internalType": "uint256",
          "name": "_adPercMint",
          "type": "uint256"
        },
        {
          "internalType": "uint256",
          "name": "_adPerc",
          "type": "uint256"
        }
      ],
      "name": "setAdvisorPerc",
      "outputs": [],
      "stateMutability": "nonpayable",
      "type": "function"
    },
    {
      "inputs": [
        {
          "internalType": "uint256",
          "name": "_GFindex",
          "type": "uint256"
        }
      ],
      "name": "setGFindex",
      "outputs": [],
      "stateMutability": "nonpayable",
      "type": "function"
    },
    {
      "inputs": [],
      "name": "getGFindex",
      "outputs": [
        {
          "internalType": "uint256",
          "name": "",
          "type": "uint256"
        }
      ],
      "stateMutability": "view",
      "type": "function"
    }
  ],
  "bytecode": "0x608060405234801561001057600080fd5b50610eb2806100206000396000f3fe608060405234801561001057600080fd5b50600436106101735760003560e01c80638a571fcc116100de578063cb95c20411610097578063e1755c6a11610071578063e1755c6a14610583578063e1dcc409146105a1578063f7ec5851146105bf578063fab5102c146105dd57610173565b8063cb95c204146104fb578063d70b4bb614610547578063dba8fe871461056557610173565b80638a571fcc146103f15780638a9dbda7146104555780638fc8bc4214610473578063af9ace4514610491578063c12c8c46146104af578063c369085e146104cd57610173565b80633467f697116101305780633467f697146102e357806355e8415814610317578063684a324714610335578063786508c514610381578063802cc34c1461039f578063896aa7a4146103d357610173565b80630942f90a1461017857806315cfe419146102335780631c4083571461025157806324beedd31461026f5780632819bd021461028d5780632c316d05146102c5575b600080fd5b61023160048036036101e081101561018f57600080fd5b81019080803590602001909291908035906020019092919080359060200190929190803590602001909291908035906020019092919080359060200190929190803590602001909291908035906020019092919080359060200190929190803590602001909291908035906020019092919080359060200190929190803590602001909291908035906020019092919080359060200190929190505050610629565b005b61023b6107e0565b6040518082815260200191505060405180910390f35b6102596107e6565b6040518082815260200191505060405180910390f35b6102776107ec565b6040518082815260200191505060405180910390f35b6102c3600480360360408110156102a357600080fd5b8101908080359060200190929190803590602001909291905050506107f2565b005b6102cd6108c7565b6040518082815260200191505060405180910390f35b6102eb6108cd565b604051808273ffffffffffffffffffffffffffffffffffffffff16815260200191505060405180910390f35b61031f6108f3565b6040518082815260200191505060405180910390f35b61037f6004803603608081101561034b57600080fd5b81019080803590602001909291908035906020019092919080359060200190929190803590602001909291905050506108f9565b005b6103896109de565b6040518082815260200191505060405180910390f35b6103a76109e4565b604051808273ffffffffffffffffffffffffffffffffffffffff16815260200191505060405180910390f35b6103db610a0a565b6040518082815260200191505060405180910390f35b6104536004803603604081101561040757600080fd5b81019080803573ffffffffffffffffffffffffffffffffffffffff169060200190929190803573ffffffffffffffffffffffffffffffffffffffff169060200190929190505050610a10565b005b61045d610b59565b6040518082815260200191505060405180910390f35b61047b610b5f565b6040518082815260200191505060405180910390f35b610499610b65565b6040518082815260200191505060405180910390f35b6104b7610b6b565b6040518082815260200191505060405180910390f35b6104f9600480360360208110156104e357600080fd5b8101908080359060200190929190505050610b71565b005b6105456004803603608081101561051157600080fd5b8101908080359060200190929190803590602001909291908035906020019092919080359060200190929190505050610c3e565b005b61054f610d23565b6040518082815260200191505060405180910390f35b61056d610d2d565b6040518082815260200191505060405180910390f35b61058b610d33565b6040518082815260200191505060405180910390f35b6105a9610d39565b6040518082815260200191505060405180910390f35b6105c7610d3f565b6040518082815260200191505060405180910390f35b610627600480360360808110156105f357600080fd5b8101908080359060200190929190803590602001909291908035906020019092919080359060200190929190505050610d45565b005b600060019054906101000a900460ff16806106485750610647610e2a565b5b8061065e575060008054906101000a900460ff16155b6106b3576040517f08c379a000000000000000000000000000000000000000000000000000000000815260040180806020018281038252602e815260200180610e4f602e913960400191505060405180910390fd5b60008060019054906101000a900460ff161590508015610703576001600060016101000a81548160ff02191690831515021790555060016000806101000a81548160ff0219169083151502179055505b33600060026101000a81548173ffffffffffffffffffffffffffffffffffffffff021916908373ffffffffffffffffffffffffffffffffffffffff1602179055508f6003819055508e6004819055508d6005819055508c6006819055508b6007819055508a6008819055508960098190555088600a8190555087600b8190555086600c8190555085600d8190555084600e8190555083600f81905550826010819055508160118190555080156107ce5760008060016101000a81548160ff0219169083151502179055505b50505050505050505050505050505050565b60115481565b60035481565b60065481565b600060029054906101000a900473ffffffffffffffffffffffffffffffffffffffff1673ffffffffffffffffffffffffffffffffffffffff163373ffffffffffffffffffffffffffffffffffffffff16146108b5576040517f08c379a000000000000000000000000000000000000000000000000000000000815260040180806020018281038252600a8152602001807f6f776e6572206f6e6c790000000000000000000000000000000000000000000081525060200191505060405180910390fd5b81600f81905550806010819055505050565b600d5481565b600260009054906101000a900473ffffffffffffffffffffffffffffffffffffffff1681565b600a5481565b600060029054906101000a900473ffffffffffffffffffffffffffffffffffffffff1673ffffffffffffffffffffffffffffffffffffffff163373ffffffffffffffffffffffffffffffffffffffff16146109bc576040517f08c379a000000000000000000000000000000000000000000000000000000000815260040180806020018281038252600a8152602001807f6f776e6572206f6e6c790000000000000000000000000000000000000000000081525060200191505060405180910390fd5b83600781905550826008819055508160098190555080600a8190555050505050565b60105481565b600160009054906101000a900473ffffffffffffffffffffffffffffffffffffffff1681565b600c5481565b600060029054906101000a900473ffffffffffffffffffffffffffffffffffffffff1673ffffffffffffffffffffffffffffffffffffffff163373ffffffffffffffffffffffffffffffffffffffff1614610ad3576040517f08c379a000000000000000000000000000000000000000000000000000000000815260040180806020018281038252600a8152602001807f6f776e6572206f6e6c790000000000000000000000000000000000000000000081525060200191505060405180910390fd5b81600160006101000a81548173ffffffffffffffffffffffffffffffffffffffff021916908373ffffffffffffffffffffffffffffffffffffffff16021790555080600260006101000a81548173ffffffffffffffffffffffffffffffffffffffff021916908373ffffffffffffffffffffffffffffffffffffffff1602179055505050565b60075481565b60085481565b600b5481565b60095481565b600060029054906101000a900473ffffffffffffffffffffffffffffffffffffffff1673ffffffffffffffffffffffffffffffffffffffff163373ffffffffffffffffffffffffffffffffffffffff1614610c34576040517f08c379a000000000000000000000000000000000000000000000000000000000815260040180806020018281038252600a8152602001807f6f776e6572206f6e6c790000000000000000000000000000000000000000000081525060200191505060405180910390fd5b8060118190555050565b600060029054906101000a900473ffffffffffffffffffffffffffffffffffffffff1673ffffffffffffffffffffffffffffffffffffffff163373ffffffffffffffffffffffffffffffffffffffff1614610d01576040517f08c379a000000000000000000000000000000000000000000000000000000000815260040180806020018281038252600a8152602001807f6f776e6572206f6e6c790000000000000000000000000000000000000000000081525060200191505060405180910390fd5b8360038190555082600481905550816005819055508060068190555050505050565b6000601154905090565b600e5481565b60055481565b60045481565b600f5481565b600060029054906101000a900473ffffffffffffffffffffffffffffffffffffffff1673ffffffffffffffffffffffffffffffffffffffff163373ffffffffffffffffffffffffffffffffffffffff1614610e08576040517f08c379a000000000000000000000000000000000000000000000000000000000815260040180806020018281038252600a8152602001807f6f776e6572206f6e6c790000000000000000000000000000000000000000000081525060200191505060405180910390fd5b83600b8190555082600c8190555081600d8190555080600e8190555050505050565b6000610e3530610e3b565b15905090565b600080823b90506000811191505091905056fe496e697469616c697a61626c653a20636f6e747261637420697320616c726561647920696e697469616c697a6564a2646970667358221220ca6e897290efc9521e4137c61c1f5ce5ec2bff1837da134f2b5eed8836649c0d64736f6c63430007060033",
  "immutableReferences": {},
  "source": "// SPDX-License-Identifier: MIT\npragma solidity >=0.4.22 <0.9.0;\n\nimport \"@openzeppelin/contracts-upgradeable/proxy/Initializable.sol\";\n\ncontract MPConfig is Initializable {\n    address owner;\n    address payable public comMarketFundWallet; // Community Market Fund wallet\n    address payable public moderatorsFundWallet; // Moderators Fund wallet\n    uint256 public developFundPerc; // mint token percent for Development Fund\n    uint256 public developFundPercPremim; // pay token percent for Developement Fund in Premium events\n    uint256 public comMarketFundPerc; // 5 if advisor exist or comMarketFundPerc + advisorPercMint + extraHostPercMint = 8 if advisor not exist\n    uint256 public moderatorsFundPerc; // Moderators Fund percent to pay token\n    // HOST\n    uint256 public hostPercMint; // mint token percent for host\n    uint256 public hostPerc; // pay token percent for host\n    uint256 public extraHostPerc; // if advisor exist we add extra coins to host\n    uint256 public extraHostPercMint; // if advisor exist we add extra coins to host in mint token\n    // EXPERT\n    uint256 public expertPercMint; // mint token percent for expert\n    uint256 public expertPerc; // pay token percent for expert\n    uint256 public expertExtraPerc; // extra pay token parcent for expert if advisor not exist\n    uint256 public expertPremiumPerc; // bty percent in premium events for experts\n    // ADVISORS\n    uint256 public advisorPercMint; // mint token parcent for advisor\n    uint256 public advisorPepc; // pay token parcent for advisor\n\n    uint256 public GFindex;\n\n    function __MPConfigInit(\n        uint256 _developFundPerc,\n        uint256 _developFundPercPremim,\n        uint256 _comMarketFundPerc,\n        uint256 _moderatorsFundPerc,\n        uint256 _hostPercMint,\n        uint256 _hostPerc,\n        uint256 _extraHostPerc,\n        uint256 _extraHostPercMint,\n        uint256 _expertPercMint,\n        uint256 _expertPerc,\n        uint256 _expertExtraPerc,\n        uint256 _expertPremiumPerc,\n        uint256 _advisorPercMint,\n        uint256 _advisorPepc,\n        uint256 _GFindex\n    ) public initializer {\n        owner = msg.sender;\n        developFundPerc = _developFundPerc;\n        developFundPercPremim = _developFundPercPremim;\n        comMarketFundPerc = _comMarketFundPerc;\n        moderatorsFundPerc = _moderatorsFundPerc;\n        hostPercMint = _hostPercMint;\n        hostPerc = _hostPerc;\n        extraHostPerc = _extraHostPerc;\n        extraHostPercMint = _extraHostPercMint;\n        expertPercMint = _expertPercMint;\n        expertPerc = _expertPerc;\n        expertExtraPerc = _expertExtraPerc;\n        expertPremiumPerc = _expertPremiumPerc;\n        advisorPercMint = _advisorPercMint;\n        advisorPepc = _advisorPepc;\n        GFindex = _GFindex;\n    }\n\n    function setFundWallet(\n        address payable _CMFWallet,\n        address payable _MFWallet\n    ) public {\n        require(msg.sender == owner, \"owner only\");\n        comMarketFundWallet = _CMFWallet;\n        moderatorsFundWallet = _MFWallet;\n    }\n\n    function setFundPerc(\n        uint256 _dFPerc,\n        uint256 _dFPPremim,\n        uint256 _cMFPerc,\n        uint256 _mFPerc\n    ) public {\n        require(msg.sender == owner, \"owner only\");\n        developFundPerc = _dFPerc;\n        developFundPercPremim = _dFPPremim;\n        comMarketFundPerc = _cMFPerc;\n        moderatorsFundPerc = _mFPerc;\n    }\n\n    function setHostPerc(\n        uint256 _hostPercMint,\n        uint256 _hostPerc,\n        uint256 _eHPerc,\n        uint256 _eHPMint\n    ) public {\n        require(msg.sender == owner, \"owner only\");\n        hostPercMint = _hostPercMint;\n        hostPerc = _hostPerc;\n        extraHostPerc = _eHPerc;\n        extraHostPercMint = _eHPMint;\n    }\n\n    function setExpertPerc(\n        uint256 _ePercMint,\n        uint256 _ePerc,\n        uint256 _eExtraPerc,\n        uint256 _ePremPerc\n    ) public {\n        require(msg.sender == owner, \"owner only\");\n        expertPercMint = _ePercMint;\n        expertPerc = _ePerc;\n        expertExtraPerc = _eExtraPerc;\n        expertPremiumPerc = _ePremPerc;\n    }\n\n    function setAdvisorPerc(uint256 _adPercMint, uint256 _adPerc) public {\n        require(msg.sender == owner, \"owner only\");\n        advisorPercMint = _adPercMint;\n        advisorPepc = _adPerc;\n    }\n\n    function setGFindex(uint256 _GFindex) public {\n        require(msg.sender == owner, \"owner only\");\n        GFindex = _GFindex;\n    }\n\n    function getGFindex() public view returns (uint256) {\n        return GFindex;\n    }\n}\n",
  "sourcePath": "/Users/macbook/Documents/freelance/tokenominc/contracts/matic/config/MPConfig.sol",
  "compiler": {
    "name": "solc",
    "version": "0.7.6+commit.7338295f.Linux.g++"
  },
  "schemaVersion": "3.3.4",
  "updatedAt": "2021-03-22T15:08:23.533Z",
  "devdoc": {
    "kind": "dev",
    "methods": {},
    "version": 1
  },
  "userdoc": {
    "kind": "user",
    "methods": {},
    "version": 1
  }
}