{
  "contractName": "MPConfig",
  "abi": [
    {
      "inputs": [],
      "stateMutability": "nonpayable",
      "type": "constructor"
    },
    {
      "inputs": [],
      "name": "GFindex",
      "outputs": [
        {
          "internalType": "uint256",
          "name": "",
          "type": "uint256"
        }
      ],
      "stateMutability": "view",
      "type": "function"
    },
    {
      "inputs": [],
      "name": "advisorPepc",
      "outputs": [
        {
          "internalType": "uint256",
          "name": "",
          "type": "uint256"
        }
      ],
      "stateMutability": "view",
      "type": "function"
    },
    {
      "inputs": [],
      "name": "advisorPercMint",
      "outputs": [
        {
          "internalType": "uint256",
          "name": "",
          "type": "uint256"
        }
      ],
      "stateMutability": "view",
      "type": "function"
    },
    {
      "inputs": [],
      "name": "comMarketFundPerc",
      "outputs": [
        {
          "internalType": "uint256",
          "name": "",
          "type": "uint256"
        }
      ],
      "stateMutability": "view",
      "type": "function"
    },
    {
      "inputs": [],
      "name": "comMarketFundWallet",
      "outputs": [
        {
          "internalType": "address payable",
          "name": "",
          "type": "address"
        }
      ],
      "stateMutability": "view",
      "type": "function"
    },
    {
      "inputs": [],
      "name": "developFundPerc",
      "outputs": [
        {
          "internalType": "uint256",
          "name": "",
          "type": "uint256"
        }
      ],
      "stateMutability": "view",
      "type": "function"
    },
    {
      "inputs": [],
      "name": "developFundPercPremim",
      "outputs": [
        {
          "internalType": "uint256",
          "name": "",
          "type": "uint256"
        }
      ],
      "stateMutability": "view",
      "type": "function"
    },
    {
      "inputs": [],
      "name": "expertExtraPerc",
      "outputs": [
        {
          "internalType": "uint256",
          "name": "",
          "type": "uint256"
        }
      ],
      "stateMutability": "view",
      "type": "function"
    },
    {
      "inputs": [],
      "name": "expertPerc",
      "outputs": [
        {
          "internalType": "uint256",
          "name": "",
          "type": "uint256"
        }
      ],
      "stateMutability": "view",
      "type": "function"
    },
    {
      "inputs": [],
      "name": "expertPercMint",
      "outputs": [
        {
          "internalType": "uint256",
          "name": "",
          "type": "uint256"
        }
      ],
      "stateMutability": "view",
      "type": "function"
    },
    {
      "inputs": [],
      "name": "expertPremiumPerc",
      "outputs": [
        {
          "internalType": "uint256",
          "name": "",
          "type": "uint256"
        }
      ],
      "stateMutability": "view",
      "type": "function"
    },
    {
      "inputs": [],
      "name": "extraHostPerc",
      "outputs": [
        {
          "internalType": "uint256",
          "name": "",
          "type": "uint256"
        }
      ],
      "stateMutability": "view",
      "type": "function"
    },
    {
      "inputs": [],
      "name": "extraHostPercMint",
      "outputs": [
        {
          "internalType": "uint256",
          "name": "",
          "type": "uint256"
        }
      ],
      "stateMutability": "view",
      "type": "function"
    },
    {
      "inputs": [],
      "name": "hostPerc",
      "outputs": [
        {
          "internalType": "uint256",
          "name": "",
          "type": "uint256"
        }
      ],
      "stateMutability": "view",
      "type": "function"
    },
    {
      "inputs": [],
      "name": "hostPercMint",
      "outputs": [
        {
          "internalType": "uint256",
          "name": "",
          "type": "uint256"
        }
      ],
      "stateMutability": "view",
      "type": "function"
    },
    {
      "inputs": [],
      "name": "moderatorsFundPerc",
      "outputs": [
        {
          "internalType": "uint256",
          "name": "",
          "type": "uint256"
        }
      ],
      "stateMutability": "view",
      "type": "function"
    },
    {
      "inputs": [],
      "name": "moderatorsFundWallet",
      "outputs": [
        {
          "internalType": "address payable",
          "name": "",
          "type": "address"
        }
      ],
      "stateMutability": "view",
      "type": "function"
    },
    {
      "inputs": [
        {
          "internalType": "address payable",
          "name": "_wallet",
          "type": "address"
        }
      ],
      "name": "setComMarketFundWallet",
      "outputs": [],
      "stateMutability": "nonpayable",
      "type": "function"
    },
    {
      "inputs": [
        {
          "internalType": "address payable",
          "name": "_wallet",
          "type": "address"
        }
      ],
      "name": "setModeratorsFundWallet",
      "outputs": [],
      "stateMutability": "nonpayable",
      "type": "function"
    },
    {
      "inputs": [
        {
          "internalType": "uint256",
          "name": "_developFundPerc",
          "type": "uint256"
        }
      ],
      "name": "setDevelopFundPerc",
      "outputs": [],
      "stateMutability": "nonpayable",
      "type": "function"
    },
    {
      "inputs": [
        {
          "internalType": "uint256",
          "name": "_hostPercMint",
          "type": "uint256"
        },
        {
          "internalType": "uint256",
          "name": "_hostPerc",
          "type": "uint256"
        }
      ],
      "name": "setHostPerc",
      "outputs": [],
      "stateMutability": "nonpayable",
      "type": "function"
    },
    {
      "inputs": [
        {
          "internalType": "uint256",
          "name": "_expertPerc",
          "type": "uint256"
        }
      ],
      "name": "setExpertPerc",
      "outputs": [],
      "stateMutability": "nonpayable",
      "type": "function"
    },
    {
      "inputs": [
        {
          "internalType": "uint256",
          "name": "_GFindex",
          "type": "uint256"
        }
      ],
      "name": "setGFindex",
      "outputs": [],
      "stateMutability": "nonpayable",
      "type": "function"
    },
    {
      "inputs": [],
      "name": "getGFindex",
      "outputs": [
        {
          "internalType": "uint256",
          "name": "",
          "type": "uint256"
        }
      ],
      "stateMutability": "view",
      "type": "function"
    }
  ],
  "bytecode": "0x6080604052600a600355600a600455600580556002600655600a600755600460085560016009556001600a55600a600b556004600c556002600d55600f600e556002600f556001601055606460115534801561005a57600080fd5b50336000806101000a81548173ffffffffffffffffffffffffffffffffffffffff021916908373ffffffffffffffffffffffffffffffffffffffff160217905550610b13806100aa6000396000f3fe608060405234801561001057600080fd5b50600436106101585760003560e01c8063903a19cf116100c3578063d70b4bb61161007c578063d70b4bb61461042b578063dba8fe8714610449578063dd3c228314610467578063e1755c6a14610495578063e1dcc409146104b3578063f7ec5851146104d157610158565b8063903a19cf146103175780639580de671461035b578063af9ace4514610389578063b1642b50146103a7578063c12c8c46146103df578063c369085e146103fd57610158565b806355e841581161011557806355e841581461024d578063786508c51461026b578063802cc34c14610289578063896aa7a4146102bd5780638a9dbda7146102db5780638fc8bc42146102f957610158565b806315cfe4191461015d5780631c4083571461017b57806324045aad1461019957806324beedd3146101dd5780632c316d05146101fb5780633467f69714610219575b600080fd5b6101656104ef565b6040518082815260200191505060405180910390f35b6101836104f5565b6040518082815260200191505060405180910390f35b6101db600480360360208110156101af57600080fd5b81019080803573ffffffffffffffffffffffffffffffffffffffff1690602001909291905050506104fb565b005b6101e5610600565b6040518082815260200191505060405180910390f35b610203610606565b6040518082815260200191505060405180910390f35b61022161060c565b604051808273ffffffffffffffffffffffffffffffffffffffff16815260200191505060405180910390f35b610255610632565b6040518082815260200191505060405180910390f35b610273610638565b6040518082815260200191505060405180910390f35b61029161063e565b604051808273ffffffffffffffffffffffffffffffffffffffff16815260200191505060405180910390f35b6102c5610664565b6040518082815260200191505060405180910390f35b6102e361066a565b6040518082815260200191505060405180910390f35b610301610670565b6040518082815260200191505060405180910390f35b6103596004803603602081101561032d57600080fd5b81019080803573ffffffffffffffffffffffffffffffffffffffff169060200190929190505050610676565b005b6103876004803603602081101561037157600080fd5b810190808035906020019092919050505061077b565b005b610391610846565b6040518082815260200191505060405180910390f35b6103dd600480360360408110156103bd57600080fd5b81019080803590602001909291908035906020019092919050505061084c565b005b6103e761091f565b6040518082815260200191505060405180910390f35b6104296004803603602081101561041357600080fd5b8101908080359060200190929190505050610925565b005b6104336109f0565b6040518082815260200191505060405180910390f35b6104516109fa565b6040518082815260200191505060405180910390f35b6104936004803603602081101561047d57600080fd5b8101908080359060200190929190505050610a00565b005b61049d610acb565b6040518082815260200191505060405180910390f35b6104bb610ad1565b6040518082815260200191505060405180910390f35b6104d9610ad7565b6040518082815260200191505060405180910390f35b60115481565b60035481565b60008054906101000a900473ffffffffffffffffffffffffffffffffffffffff1673ffffffffffffffffffffffffffffffffffffffff163373ffffffffffffffffffffffffffffffffffffffff16146105bc576040517f08c379a000000000000000000000000000000000000000000000000000000000815260040180806020018281038252600a8152602001807f6f776e6572206f6e6c790000000000000000000000000000000000000000000081525060200191505060405180910390fd5b80600260006101000a81548173ffffffffffffffffffffffffffffffffffffffff021916908373ffffffffffffffffffffffffffffffffffffffff16021790555050565b60065481565b600d5481565b600260009054906101000a900473ffffffffffffffffffffffffffffffffffffffff1681565b600a5481565b60105481565b600160009054906101000a900473ffffffffffffffffffffffffffffffffffffffff1681565b600c5481565b60075481565b60085481565b60008054906101000a900473ffffffffffffffffffffffffffffffffffffffff1673ffffffffffffffffffffffffffffffffffffffff163373ffffffffffffffffffffffffffffffffffffffff1614610737576040517f08c379a000000000000000000000000000000000000000000000000000000000815260040180806020018281038252600a8152602001807f6f776e6572206f6e6c790000000000000000000000000000000000000000000081525060200191505060405180910390fd5b80600160006101000a81548173ffffffffffffffffffffffffffffffffffffffff021916908373ffffffffffffffffffffffffffffffffffffffff16021790555050565b60008054906101000a900473ffffffffffffffffffffffffffffffffffffffff1673ffffffffffffffffffffffffffffffffffffffff163373ffffffffffffffffffffffffffffffffffffffff161461083c576040517f08c379a000000000000000000000000000000000000000000000000000000000815260040180806020018281038252600a8152602001807f6f776e6572206f6e6c790000000000000000000000000000000000000000000081525060200191505060405180910390fd5b80600c8190555050565b600b5481565b60008054906101000a900473ffffffffffffffffffffffffffffffffffffffff1673ffffffffffffffffffffffffffffffffffffffff163373ffffffffffffffffffffffffffffffffffffffff161461090d576040517f08c379a000000000000000000000000000000000000000000000000000000000815260040180806020018281038252600a8152602001807f6f776e6572206f6e6c790000000000000000000000000000000000000000000081525060200191505060405180910390fd5b81600781905550806008819055505050565b60095481565b60008054906101000a900473ffffffffffffffffffffffffffffffffffffffff1673ffffffffffffffffffffffffffffffffffffffff163373ffffffffffffffffffffffffffffffffffffffff16146109e6576040517f08c379a000000000000000000000000000000000000000000000000000000000815260040180806020018281038252600a8152602001807f6f776e6572206f6e6c790000000000000000000000000000000000000000000081525060200191505060405180910390fd5b8060118190555050565b6000601154905090565b600e5481565b60008054906101000a900473ffffffffffffffffffffffffffffffffffffffff1673ffffffffffffffffffffffffffffffffffffffff163373ffffffffffffffffffffffffffffffffffffffff1614610ac1576040517f08c379a000000000000000000000000000000000000000000000000000000000815260040180806020018281038252600a8152602001807f6f776e6572206f6e6c790000000000000000000000000000000000000000000081525060200191505060405180910390fd5b8060038190555050565b60055481565b60045481565b600f548156fea2646970667358221220c3595af8364b87b179747eac0eeed2f0ac91f6490c4646e52f3705c8ad68a36864736f6c63430007060033",
  "immutableReferences": {},
  "source": "// SPDX-License-Identifier: MIT\npragma solidity >=0.4.22 <0.9.0;\n\ncontract MPConfig {\n    address owner;\n    constructor() {\n        owner = msg.sender;\n    }\n\n    address payable public comMarketFundWallet; // Community Market Fund wallet\n    address payable public moderatorsFundWallet; // Moderators Fund wallet\n    uint public developFundPerc = 10; // mint token percent for Development Fund\n    uint public developFundPercPremim = 10; // pay token percent for Developement Fund in Premium events\n    uint public comMarketFundPerc = 5; // 5 if advisor exist or comMarketFundPerc + advisorPercMint + extraHostPercMint = 8 if advisor not exist\n    uint public moderatorsFundPerc = 2; // Moderators Fund percent to pay token\n        // HOST\n    uint public hostPercMint = 10; // mint token percent for host \n    uint public hostPerc = 4; // pay token percent for host\n    uint public extraHostPerc = 1; // if advisor exist we add extra coins to host\n    uint public extraHostPercMint = 1; // if advisor exist we add extra coins to host in mint token\n    // EXPERT\n    uint public expertPercMint = 10; // mint token percent for expert \n    uint public expertPerc = 4; // pay token percent for expert \n    uint public expertExtraPerc = 2; // extra pay token parcent for expert if advisor not exist\n    uint public expertPremiumPerc = 15; // bty percent in premium events for experts\n    // ADVISORS\n    uint public advisorPercMint = 2; // mint token parcent for advisor \n    uint public advisorPepc = 1;  // pay token parcent for advisor \n\n    uint public GFindex = 100;\n\n    function setComMarketFundWallet(address payable _wallet) public {\n        require(msg.sender == owner, \"owner only\");\n        comMarketFundWallet = _wallet;\n    }\n\n    function setModeratorsFundWallet(address payable _wallet) public {\n        require(msg.sender == owner, \"owner only\");\n        moderatorsFundWallet = _wallet;\n    }\n\n    function setDevelopFundPerc(uint _developFundPerc) public {\n        require(msg.sender == owner, \"owner only\");\n        developFundPerc = _developFundPerc;\n    }\n\n    function setHostPerc(uint _hostPercMint, uint _hostPerc) public {\n        require(msg.sender == owner, \"owner only\");\n        hostPercMint = _hostPercMint;\n        hostPerc = _hostPerc;\n    }\n\n    function setExpertPerc(uint _expertPerc) public {\n        require(msg.sender == owner, \"owner only\");\n        expertPerc = _expertPerc;\n    }\n\n    function setGFindex(uint _GFindex) public{\n        require(msg.sender == owner, \"owner only\");\n        GFindex = _GFindex;\n    }\n\n    function getGFindex() public view returns(uint) {\n        return GFindex;\n    }\n}\n",
  "sourcePath": "/Users/macbook/Documents/freelance/tokenominc/contracts/config/MPConfig.sol",
  "compiler": {
    "name": "solc",
    "version": "0.7.6+commit.7338295f.Linux.g++"
  },
  "schemaVersion": "3.3.4",
  "updatedAt": "2021-03-12T11:04:19.703Z",
  "devdoc": {
    "kind": "dev",
    "methods": {},
    "version": 1
  },
  "userdoc": {
    "kind": "user",
    "methods": {},
    "version": 1
  }
}