{
  "contractName": "MPStruct",
  "abi": [
    {
      "inputs": [
        {
          "internalType": "int256",
          "name": "",
          "type": "int256"
        }
      ],
      "name": "MPData",
      "outputs": [
        {
          "internalType": "int256",
          "name": "id",
          "type": "int256"
        },
        {
          "internalType": "uint256",
          "name": "correctAnswer",
          "type": "uint256"
        },
        {
          "internalType": "uint256",
          "name": "loserPool",
          "type": "uint256"
        },
        {
          "internalType": "uint256",
          "name": "tokenMinted",
          "type": "uint256"
        },
        {
          "internalType": "bool",
          "name": "reverted",
          "type": "bool"
        },
        {
          "internalType": "bool",
          "name": "eventFinish",
          "type": "bool"
        }
      ],
      "stateMutability": "view",
      "type": "function"
    },
    {
      "inputs": [],
      "name": "__MPStructInit",
      "outputs": [],
      "stateMutability": "nonpayable",
      "type": "function"
    },
    {
      "inputs": [
        {
          "internalType": "address",
          "name": "_peaddr",
          "type": "address"
        },
        {
          "internalType": "address",
          "name": "_ppaddr",
          "type": "address"
        }
      ],
      "name": "setAddresses",
      "outputs": [],
      "stateMutability": "nonpayable",
      "type": "function"
    },
    {
      "inputs": [
        {
          "internalType": "int256",
          "name": "_id",
          "type": "int256"
        }
      ],
      "name": "checkReverted",
      "outputs": [
        {
          "internalType": "bool",
          "name": "",
          "type": "bool"
        }
      ],
      "stateMutability": "view",
      "type": "function"
    },
    {
      "inputs": [
        {
          "internalType": "int256",
          "name": "_id",
          "type": "int256"
        }
      ],
      "name": "checkEventFinish",
      "outputs": [
        {
          "internalType": "bool",
          "name": "",
          "type": "bool"
        }
      ],
      "stateMutability": "view",
      "type": "function"
    },
    {
      "inputs": [
        {
          "internalType": "int256",
          "name": "_id",
          "type": "int256"
        }
      ],
      "name": "setReverted",
      "outputs": [],
      "stateMutability": "nonpayable",
      "type": "function"
    },
    {
      "inputs": [
        {
          "internalType": "int256",
          "name": "_id",
          "type": "int256"
        }
      ],
      "name": "setFinishEvent",
      "outputs": [],
      "stateMutability": "nonpayable",
      "type": "function"
    },
    {
      "inputs": [
        {
          "internalType": "int256",
          "name": "_id",
          "type": "int256"
        }
      ],
      "name": "getCorrectAnswer",
      "outputs": [
        {
          "internalType": "uint256",
          "name": "",
          "type": "uint256"
        }
      ],
      "stateMutability": "view",
      "type": "function"
    },
    {
      "inputs": [
        {
          "internalType": "int256",
          "name": "_id",
          "type": "int256"
        }
      ],
      "name": "getTokenMinted",
      "outputs": [
        {
          "internalType": "uint256",
          "name": "",
          "type": "uint256"
        }
      ],
      "stateMutability": "view",
      "type": "function"
    },
    {
      "inputs": [
        {
          "internalType": "int256",
          "name": "_id",
          "type": "int256"
        }
      ],
      "name": "getLoserPool",
      "outputs": [
        {
          "internalType": "uint256",
          "name": "",
          "type": "uint256"
        }
      ],
      "stateMutability": "view",
      "type": "function"
    }
  ],
  "bytecode": "0x608060405234801561001057600080fd5b5061092e806100206000396000f3fe608060405234801561001057600080fd5b506004361061009e5760003560e01c80639ec2345a116100665780639ec2345a146101fd578063bc26b1011461022b578063bdc905541461026d578063bf2c691c146102d6578063d343c1dc146102e05761009e565b80630583e6ee146100a357806305b442ee146100d15780632c7d577e14610113578063362e41b61461015557806390107afe14610199575b600080fd5b6100cf600480360360208110156100b957600080fd5b8101908080359060200190929190505050610324565b005b6100fd600480360360208110156100e757600080fd5b8101908080359060200190929190505050610419565b6040518082815260200191505060405180910390f35b61013f6004803603602081101561012957600080fd5b8101908080359060200190929190505050610439565b6040518082815260200191505060405180910390f35b6101816004803603602081101561016b57600080fd5b8101908080359060200190929190505050610459565b60405180821515815260200191505060405180910390f35b6101fb600480360360408110156101af57600080fd5b81019080803573ffffffffffffffffffffffffffffffffffffffff169060200190929190803573ffffffffffffffffffffffffffffffffffffffff169060200190929190505050610486565b005b6102296004803603602081101561021357600080fd5b81019080803590602001909291905050506105cf565b005b6102576004803603602081101561024157600080fd5b81019080803590602001909291905050506106c4565b6040518082815260200191505060405180910390f35b6102996004803603602081101561028357600080fd5b81019080803590602001909291905050506106e4565b6040518087815260200186815260200185815260200184815260200183151581526020018215158152602001965050505050505060405180910390f35b6102de61073a565b005b61030c600480360360208110156102f657600080fd5b8101908080359060200190929190505050610879565b60405180821515815260200191505060405180910390f35b600260009054906101000a900473ffffffffffffffffffffffffffffffffffffffff1673ffffffffffffffffffffffffffffffffffffffff163373ffffffffffffffffffffffffffffffffffffffff16146103e7576040517f08c379a000000000000000000000000000000000000000000000000000000000815260040180806020018281038252600f8152602001807f7070436f6e7472616374206f6e6c79000000000000000000000000000000000081525060200191505060405180910390fd5b60016003600083815260200190815260200160002060040160016101000a81548160ff02191690831515021790555050565b600060036000838152602001908152602001600020600201549050919050565b600060036000838152602001908152602001600020600301549050919050565b60006003600083815260200190815260200160002060040160009054906101000a900460ff169050919050565b600060029054906101000a900473ffffffffffffffffffffffffffffffffffffffff1673ffffffffffffffffffffffffffffffffffffffff163373ffffffffffffffffffffffffffffffffffffffff1614610549576040517f08c379a000000000000000000000000000000000000000000000000000000000815260040180806020018281038252600a8152602001807f6f776e6572206f6e6c790000000000000000000000000000000000000000000081525060200191505060405180910390fd5b81600160006101000a81548173ffffffffffffffffffffffffffffffffffffffff021916908373ffffffffffffffffffffffffffffffffffffffff16021790555080600260006101000a81548173ffffffffffffffffffffffffffffffffffffffff021916908373ffffffffffffffffffffffffffffffffffffffff1602179055505050565b600160009054906101000a900473ffffffffffffffffffffffffffffffffffffffff1673ffffffffffffffffffffffffffffffffffffffff163373ffffffffffffffffffffffffffffffffffffffff1614610692576040517f08c379a000000000000000000000000000000000000000000000000000000000815260040180806020018281038252600f8152602001807f7065436f6e7472616374206f6e6c79000000000000000000000000000000000081525060200191505060405180910390fd5b60016003600083815260200190815260200160002060040160006101000a81548160ff02191690831515021790555050565b600060036000838152602001908152602001600020600101549050919050565b60036020528060005260406000206000915090508060000154908060010154908060020154908060030154908060040160009054906101000a900460ff16908060040160019054906101000a900460ff16905086565b600060019054906101000a900460ff168061075957506107586108a6565b5b8061076f575060008054906101000a900460ff16155b6107c4576040517f08c379a000000000000000000000000000000000000000000000000000000000815260040180806020018281038252602e8152602001806108cb602e913960400191505060405180910390fd5b60008060019054906101000a900460ff161590508015610814576001600060016101000a81548160ff02191690831515021790555060016000806101000a81548160ff0219169083151502179055505b33600060026101000a81548173ffffffffffffffffffffffffffffffffffffffff021916908373ffffffffffffffffffffffffffffffffffffffff16021790555080156108765760008060016101000a81548160ff0219169083151502179055505b50565b60006003600083815260200190815260200160002060040160019054906101000a900460ff169050919050565b60006108b1306108b7565b15905090565b600080823b90506000811191505091905056fe496e697469616c697a61626c653a20636f6e747261637420697320616c726561647920696e697469616c697a6564a2646970667358221220f9c79ccaa381e8af472b56a5c95709f541a24cd9af637b4bb51a79479fd48d9964736f6c63430007060033",
  "immutableReferences": {},
  "source": "// SPDX-License-Identifier: MIT\npragma solidity >=0.4.22 <0.9.0;\n\nimport \"@openzeppelin/contracts-upgradeable/proxy/Initializable.sol\";\n\ncontract MPStruct is Initializable {\n    address ownerAddr;\n    address PEContract;\n    address PPContract;\n\n    function __MPStructInit() public initializer {\n        ownerAddr = msg.sender;\n    }\n\n    struct MiddlePaymentStruct {\n        int256 id;\n        uint256 correctAnswer;\n        uint256 loserPool;\n        uint256 tokenMinted;\n        bool reverted;\n        bool eventFinish;\n    }\n\n    mapping(int256 => MiddlePaymentStruct) public MPData;\n\n    function setAddresses(address _peaddr, address _ppaddr) public {\n        require(msg.sender == ownerAddr, \"owner only\");\n        PEContract = _peaddr;\n        PPContract = _ppaddr;\n    }\n\n    function checkReverted(int256 _id) public view returns (bool) {\n        return MPData[_id].reverted;\n    }\n\n    function checkEventFinish(int256 _id) public view returns (bool) {\n        return MPData[_id].eventFinish;\n    }\n\n    function setReverted(int256 _id) public {\n        require(msg.sender == PEContract, \"peContract only\");\n        MPData[_id].reverted = true;\n    }\n\n    function setFinishEvent(int256 _id) public {\n        require(msg.sender == PPContract, \"ppContract only\");\n        MPData[_id].eventFinish = true;\n    }\n\n    function getCorrectAnswer(int256 _id) public view returns (uint256) {\n        return MPData[_id].correctAnswer;\n    }\n\n    function getTokenMinted(int256 _id) public view returns (uint256) {\n        return MPData[_id].tokenMinted;\n    }\n\n    function getLoserPool(int256 _id) public view returns (uint256) {\n        return MPData[_id].loserPool;\n    }\n}\n",
  "sourcePath": "/Users/macbook/Documents/freelance/tokenominc/contracts/matic/struct/MPStruct.sol",
  "compiler": {
    "name": "solc",
    "version": "0.7.6+commit.7338295f.Linux.g++"
  },
  "schemaVersion": "3.3.4",
  "updatedAt": "2021-03-24T16:58:56.052Z",
  "devdoc": {
    "kind": "dev",
    "methods": {},
    "version": 1
  },
  "userdoc": {
    "kind": "user",
    "methods": {},
    "version": 1
  }
}