{
  "contractName": "MPStruct",
  "abi": [
    {
      "inputs": [],
      "stateMutability": "nonpayable",
      "type": "constructor"
    },
    {
      "inputs": [
        {
          "internalType": "int256",
          "name": "",
          "type": "int256"
        }
      ],
      "name": "MPData",
      "outputs": [
        {
          "internalType": "int256",
          "name": "id",
          "type": "int256"
        },
        {
          "internalType": "uint256",
          "name": "correctAnswer",
          "type": "uint256"
        },
        {
          "internalType": "uint256",
          "name": "loserPool",
          "type": "uint256"
        },
        {
          "internalType": "uint256",
          "name": "tokenMinted",
          "type": "uint256"
        },
        {
          "internalType": "bool",
          "name": "reverted",
          "type": "bool"
        },
        {
          "internalType": "bool",
          "name": "eventFinish",
          "type": "bool"
        }
      ],
      "stateMutability": "view",
      "type": "function"
    },
    {
      "inputs": [
        {
          "internalType": "address",
          "name": "_ppaddr",
          "type": "address"
        }
      ],
      "name": "setAddresses",
      "outputs": [],
      "stateMutability": "nonpayable",
      "type": "function"
    },
    {
      "inputs": [
        {
          "internalType": "int256",
          "name": "_id",
          "type": "int256"
        }
      ],
      "name": "checkReverted",
      "outputs": [
        {
          "internalType": "bool",
          "name": "",
          "type": "bool"
        }
      ],
      "stateMutability": "view",
      "type": "function"
    },
    {
      "inputs": [
        {
          "internalType": "int256",
          "name": "_id",
          "type": "int256"
        }
      ],
      "name": "checkEventFinish",
      "outputs": [
        {
          "internalType": "bool",
          "name": "",
          "type": "bool"
        }
      ],
      "stateMutability": "view",
      "type": "function"
    },
    {
      "inputs": [
        {
          "internalType": "int256",
          "name": "_id",
          "type": "int256"
        }
      ],
      "name": "setReverted",
      "outputs": [],
      "stateMutability": "nonpayable",
      "type": "function"
    },
    {
      "inputs": [
        {
          "internalType": "int256",
          "name": "_id",
          "type": "int256"
        }
      ],
      "name": "setFinishEvent",
      "outputs": [],
      "stateMutability": "nonpayable",
      "type": "function"
    },
    {
      "inputs": [
        {
          "internalType": "int256",
          "name": "_id",
          "type": "int256"
        }
      ],
      "name": "getCorrectAnswer",
      "outputs": [
        {
          "internalType": "uint256",
          "name": "",
          "type": "uint256"
        }
      ],
      "stateMutability": "view",
      "type": "function"
    },
    {
      "inputs": [
        {
          "internalType": "int256",
          "name": "_id",
          "type": "int256"
        }
      ],
      "name": "getTokenMinted",
      "outputs": [
        {
          "internalType": "uint256",
          "name": "",
          "type": "uint256"
        }
      ],
      "stateMutability": "view",
      "type": "function"
    },
    {
      "inputs": [
        {
          "internalType": "int256",
          "name": "_id",
          "type": "int256"
        }
      ],
      "name": "getLoserPool",
      "outputs": [
        {
          "internalType": "uint256",
          "name": "",
          "type": "uint256"
        }
      ],
      "stateMutability": "view",
      "type": "function"
    }
  ],
  "bytecode": "0x608060405234801561001057600080fd5b50336000806101000a81548173ffffffffffffffffffffffffffffffffffffffff021916908373ffffffffffffffffffffffffffffffffffffffff160217905550610724806100606000396000f3fe608060405234801561001057600080fd5b50600436106100935760003560e01c806381d3c4351161006657806381d3c4351461018e5780639ec2345a146101d2578063bc26b10114610200578063bdc9055414610242578063d343c1dc146102ab57610093565b80630583e6ee1461009857806305b442ee146100c65780632c7d577e14610108578063362e41b61461014a575b600080fd5b6100c4600480360360208110156100ae57600080fd5b81019080803590602001909291905050506102ef565b005b6100f2600480360360208110156100dc57600080fd5b81019080803590602001909291905050506103e4565b6040518082815260200191505060405180910390f35b6101346004803603602081101561011e57600080fd5b8101908080359060200190929190505050610404565b6040518082815260200191505060405180910390f35b6101766004803603602081101561016057600080fd5b8101908080359060200190929190505050610424565b60405180821515815260200191505060405180910390f35b6101d0600480360360208110156101a457600080fd5b81019080803573ffffffffffffffffffffffffffffffffffffffff169060200190929190505050610451565b005b6101fe600480360360208110156101e857600080fd5b8101908080359060200190929190505050610556565b005b61022c6004803603602081101561021657600080fd5b810190808035906020019092919050505061064b565b6040518082815260200191505060405180910390f35b61026e6004803603602081101561025857600080fd5b810190808035906020019092919050505061066b565b6040518087815260200186815260200185815260200184815260200183151581526020018215158152602001965050505050505060405180910390f35b6102d7600480360360208110156102c157600080fd5b81019080803590602001909291905050506106c1565b60405180821515815260200191505060405180910390f35b600260009054906101000a900473ffffffffffffffffffffffffffffffffffffffff1673ffffffffffffffffffffffffffffffffffffffff163373ffffffffffffffffffffffffffffffffffffffff16146103b2576040517f08c379a000000000000000000000000000000000000000000000000000000000815260040180806020018281038252600f8152602001807f7070436f6e7472616374206f6e6c79000000000000000000000000000000000081525060200191505060405180910390fd5b60016003600083815260200190815260200160002060040160016101000a81548160ff02191690831515021790555050565b600060036000838152602001908152602001600020600201549050919050565b600060036000838152602001908152602001600020600301549050919050565b60006003600083815260200190815260200160002060040160009054906101000a900460ff169050919050565b60008054906101000a900473ffffffffffffffffffffffffffffffffffffffff1673ffffffffffffffffffffffffffffffffffffffff163373ffffffffffffffffffffffffffffffffffffffff1614610512576040517f08c379a000000000000000000000000000000000000000000000000000000000815260040180806020018281038252600a8152602001807f6f776e6572206f6e6c790000000000000000000000000000000000000000000081525060200191505060405180910390fd5b80600260006101000a81548173ffffffffffffffffffffffffffffffffffffffff021916908373ffffffffffffffffffffffffffffffffffffffff16021790555050565b600260009054906101000a900473ffffffffffffffffffffffffffffffffffffffff1673ffffffffffffffffffffffffffffffffffffffff163373ffffffffffffffffffffffffffffffffffffffff1614610619576040517f08c379a000000000000000000000000000000000000000000000000000000000815260040180806020018281038252600f8152602001807f7070436f6e7472616374206f6e6c79000000000000000000000000000000000081525060200191505060405180910390fd5b60016003600083815260200190815260200160002060040160006101000a81548160ff02191690831515021790555050565b600060036000838152602001908152602001600020600101549050919050565b60036020528060005260406000206000915090508060000154908060010154908060020154908060030154908060040160009054906101000a900460ff16908060040160019054906101000a900460ff16905086565b60006003600083815260200190815260200160002060040160019054906101000a900460ff16905091905056fea264697066735822122090356b4301676fb01dc4a074ee3f6785a65a6654a3a60e99c25cac3bb9de52ad64736f6c63430007060033",
  "immutableReferences": {},
  "source": "// SPDX-License-Identifier: MIT\npragma solidity >=0.4.22 <0.9.0;\n\ncontract MPStruct {\n    address ownerAddr;\n    address MPContract;\n    address PPContract;\n\n    constructor() {\n        ownerAddr = msg.sender;\n    }\n\n    struct MiddlePaymentStruct {\n        int256 id;\n        uint256 correctAnswer;\n        uint256 loserPool;\n        uint256 tokenMinted;\n        bool reverted;\n        bool eventFinish;\n    }\n\n    mapping(int256 => MiddlePaymentStruct) public MPData;\n\n    function setAddresses(address _ppaddr) public {\n        require(msg.sender == ownerAddr, \"owner only\");\n        PPContract = _ppaddr;\n    }\n\n    function checkReverted(int256 _id) public view returns (bool) {\n        return MPData[_id].reverted;\n    }\n\n    function checkEventFinish(int256 _id) public view returns (bool) {\n        return MPData[_id].eventFinish;\n    }\n\n    function setReverted(int256 _id) public {\n        require(msg.sender == PPContract, \"ppContract only\");\n        MPData[_id].reverted = true;\n    }\n\n    function setFinishEvent(int256 _id) public {\n        require(msg.sender == PPContract, \"ppContract only\");\n        MPData[_id].eventFinish = true;\n    }\n\n    function getCorrectAnswer(int256 _id) public view returns (uint256) {\n        return MPData[_id].correctAnswer;\n    }\n\n    function getTokenMinted(int256 _id) public view returns (uint256) {\n        return MPData[_id].tokenMinted;\n    }\n\n    function getLoserPool(int256 _id) public view returns (uint256) {\n        return MPData[_id].loserPool;\n    }\n}\n",
  "sourcePath": "/Users/macbook/Documents/freelance/tokenominc/contracts/struct/MPStruct.sol",
  "compiler": {
    "name": "solc",
    "version": "0.7.6+commit.7338295f.Linux.g++"
  },
  "schemaVersion": "3.3.4",
  "updatedAt": "2021-03-17T10:15:45.668Z",
  "devdoc": {
    "kind": "dev",
    "methods": {},
    "version": 1
  },
  "userdoc": {
    "kind": "user",
    "methods": {},
    "version": 1
  }
}