{
  "contractName": "Percentages",
  "abi": [
    {
      "inputs": [],
      "stateMutability": "nonpayable",
      "type": "constructor"
    },
    {
      "inputs": [
        {
          "internalType": "uint256",
          "name": "_companyPerc",
          "type": "uint256"
        }
      ],
      "name": "setCompanyPerc",
      "outputs": [],
      "stateMutability": "nonpayable",
      "type": "function"
    },
    {
      "inputs": [],
      "name": "getCompanyPerc",
      "outputs": [
        {
          "internalType": "uint256",
          "name": "",
          "type": "uint256"
        }
      ],
      "stateMutability": "view",
      "type": "function"
    },
    {
      "inputs": [
        {
          "internalType": "uint256",
          "name": "_hostPerc",
          "type": "uint256"
        }
      ],
      "name": "setHostPerc",
      "outputs": [],
      "stateMutability": "nonpayable",
      "type": "function"
    },
    {
      "inputs": [],
      "name": "setHostPerc",
      "outputs": [
        {
          "internalType": "uint256",
          "name": "",
          "type": "uint256"
        }
      ],
      "stateMutability": "view",
      "type": "function"
    },
    {
      "inputs": [
        {
          "internalType": "uint256",
          "name": "_expertPerc",
          "type": "uint256"
        }
      ],
      "name": "setExpertPerc",
      "outputs": [],
      "stateMutability": "nonpayable",
      "type": "function"
    },
    {
      "inputs": [],
      "name": "setExpertPerc",
      "outputs": [
        {
          "internalType": "uint256",
          "name": "",
          "type": "uint256"
        }
      ],
      "stateMutability": "view",
      "type": "function"
    },
    {
      "inputs": [],
      "name": "setPlayerPers",
      "outputs": [
        {
          "internalType": "uint256",
          "name": "",
          "type": "uint256"
        }
      ],
      "stateMutability": "view",
      "type": "function"
    },
    {
      "inputs": [
        {
          "internalType": "uint256",
          "name": "_playerPers",
          "type": "uint256"
        }
      ],
      "name": "setPlayerPers",
      "outputs": [],
      "stateMutability": "nonpayable",
      "type": "function"
    }
  ],
  "bytecode": "0x608060405234801561001057600080fd5b5033600460006101000a81548173ffffffffffffffffffffffffffffffffffffffff021916908373ffffffffffffffffffffffffffffffffffffffff16021790555061050b806100616000396000f3fe608060405234801561001057600080fd5b50600436106100885760003560e01c8063ac2564511161005b578063ac25645114610135578063b5de90c014610153578063ca2f2f7a14610171578063e1aea5231461018f57610088565b80630328ff4a1461008d57806324467c45146100bb5780639580de67146100e9578063a31b8ebf14610117575b600080fd5b6100b9600480360360208110156100a357600080fd5b81019080803590602001909291905050506101bd565b005b6100e7600480360360208110156100d157600080fd5b810190808035906020019092919050505061026d565b005b610115600480360360208110156100ff57600080fd5b810190808035906020019092919050505061031d565b005b61011f6103cd565b6040518082815260200191505060405180910390f35b61013d6103d7565b6040518082815260200191505060405180910390f35b61015b6103e1565b6040518082815260200191505060405180910390f35b6101796103eb565b6040518082815260200191505060405180910390f35b6101bb600480360360208110156101a557600080fd5b81019080803590602001909291905050506103f4565b005b600460009054906101000a900473ffffffffffffffffffffffffffffffffffffffff1673ffffffffffffffffffffffffffffffffffffffff163373ffffffffffffffffffffffffffffffffffffffff1614610263576040517f08c379a00000000000000000000000000000000000000000000000000000000081526004018080602001828103825260318152602001806104a56031913960400191505060405180910390fd5b8060018190555050565b600460009054906101000a900473ffffffffffffffffffffffffffffffffffffffff1673ffffffffffffffffffffffffffffffffffffffff163373ffffffffffffffffffffffffffffffffffffffff1614610313576040517f08c379a00000000000000000000000000000000000000000000000000000000081526004018080602001828103825260318152602001806104a56031913960400191505060405180910390fd5b8060008190555050565b600460009054906101000a900473ffffffffffffffffffffffffffffffffffffffff1673ffffffffffffffffffffffffffffffffffffffff163373ffffffffffffffffffffffffffffffffffffffff16146103c3576040517f08c379a00000000000000000000000000000000000000000000000000000000081526004018080602001828103825260318152602001806104a56031913960400191505060405180910390fd5b8060028190555050565b6000600254905090565b6000600154905090565b6000600354905090565b60008054905090565b600460009054906101000a900473ffffffffffffffffffffffffffffffffffffffff1673ffffffffffffffffffffffffffffffffffffffff163373ffffffffffffffffffffffffffffffffffffffff161461049a576040517f08c379a00000000000000000000000000000000000000000000000000000000081526004018080602001828103825260318152602001806104a56031913960400191505060405180910390fd5b806003819055505056fe546869732066756e6374696f6e20636f756c64206f6e6c7920626520657865637574656420627920746865206f776e6572a26469706673582212209fa44fe5c7533d60b3bd0776fa9827b93f6d18c04e2e93998a8f1ba9ae77ee2a64736f6c63430007060033",
  "immutableReferences": {},
  "source": "// SPDX-License-Identifier: MIT\npragma solidity >=0.4.22 <0.9.0;\n\ncontract Percentages {\n    uint256 private companyPerc;\n    uint256 private hostPerc;\n    uint256 private expertPerc;\n    uint256 private playerPers;\n    address private owner;\n\n    constructor() {\n        owner = msg.sender;\n    }\n\n    modifier ownerOnly() {\n        require(\n            msg.sender == owner,\n            \"This function could only be executed by the owner\"\n        );\n        _;\n    }\n\n    function setCompanyPerc(uint256 _companyPerc) public ownerOnly() {\n        companyPerc = _companyPerc;\n    }\n\n    function setHostPerc(uint256 _hostPerc) public ownerOnly() {\n        hostPerc = _hostPerc;\n    }\n\n    function setExpertPerc(uint256 _expertPerc) public ownerOnly() {\n        expertPerc = _expertPerc;\n    }\n\n    function setPlayerPers(uint256 _playerPers) public ownerOnly() {\n        playerPers = _playerPers;\n    }\n\n    function getCompanyPerc() public view returns(uint256) {\n        return companyPerc;\n    }\n\n    function setHostPerc() public view returns(uint256)  {\n        return hostPerc;\n    }\n\n    function setExpertPerc() public view returns(uint256)  {\n        return expertPerc;\n    }\n\n    function setPlayerPers() public view returns(uint256) {\n        return playerPers;\n    }\n}\n",
  "sourcePath": "/Users/macbook/Documents/freelance/tokenominc/contracts/config/Percentages.sol",
  "compiler": {
    "name": "solc",
    "version": "0.7.6+commit.7338295f.Linux.g++"
  },
  "schemaVersion": "3.2.2",
  "updatedAt": "2021-02-15T20:15:48.954Z",
  "devdoc": {
    "kind": "dev",
    "methods": {},
    "version": 1
  },
  "userdoc": {
    "kind": "user",
    "methods": {},
    "version": 1
  }
}