{
  "contractName": "PlayerPayment",
  "abi": [
    {
      "inputs": [
        {
          "internalType": "contract PublicEvents",
          "name": "_addr",
          "type": "address"
        },
        {
          "internalType": "address",
          "name": "_mpAddr",
          "type": "address"
        }
      ],
      "stateMutability": "nonpayable",
      "type": "constructor"
    },
    {
      "anonymous": false,
      "inputs": [
        {
          "indexed": false,
          "internalType": "int256",
          "name": "id",
          "type": "int256"
        }
      ],
      "name": "eventFinish",
      "type": "event"
    },
    {
      "anonymous": false,
      "inputs": [
        {
          "indexed": false,
          "internalType": "int256",
          "name": "id",
          "type": "int256"
        },
        {
          "indexed": false,
          "internalType": "uint256",
          "name": "avarageBet",
          "type": "uint256"
        },
        {
          "indexed": false,
          "internalType": "uint256",
          "name": "calcMintedToken",
          "type": "uint256"
        }
      ],
      "name": "payToLosers",
      "type": "event"
    },
    {
      "anonymous": false,
      "inputs": [
        {
          "indexed": false,
          "internalType": "int256",
          "name": "id",
          "type": "int256"
        }
      ],
      "name": "payToRefferers",
      "type": "event"
    },
    {
      "inputs": [
        {
          "internalType": "uint256",
          "name": "_activePlayers",
          "type": "uint256"
        },
        {
          "internalType": "uint256",
          "name": "_pool",
          "type": "uint256"
        },
        {
          "internalType": "uint256",
          "name": "_GFindex",
          "type": "uint256"
        }
      ],
      "name": "calcMintedTokens",
      "outputs": [
        {
          "internalType": "uint256",
          "name": "",
          "type": "uint256"
        }
      ],
      "stateMutability": "pure",
      "type": "function"
    },
    {
      "inputs": [],
      "name": "firstRefer",
      "outputs": [
        {
          "internalType": "uint256",
          "name": "",
          "type": "uint256"
        }
      ],
      "stateMutability": "view",
      "type": "function"
    },
    {
      "inputs": [
        {
          "internalType": "uint256",
          "name": "_percent",
          "type": "uint256"
        },
        {
          "internalType": "uint256",
          "name": "_from",
          "type": "uint256"
        }
      ],
      "name": "getPercent",
      "outputs": [
        {
          "internalType": "uint256",
          "name": "",
          "type": "uint256"
        }
      ],
      "stateMutability": "pure",
      "type": "function"
    },
    {
      "inputs": [],
      "name": "playersPers",
      "outputs": [
        {
          "internalType": "uint256",
          "name": "",
          "type": "uint256"
        }
      ],
      "stateMutability": "view",
      "type": "function"
    },
    {
      "inputs": [],
      "name": "playersPersMint",
      "outputs": [
        {
          "internalType": "uint256",
          "name": "",
          "type": "uint256"
        }
      ],
      "stateMutability": "view",
      "type": "function"
    },
    {
      "inputs": [],
      "name": "playersPersPremiun",
      "outputs": [
        {
          "internalType": "uint256",
          "name": "",
          "type": "uint256"
        }
      ],
      "stateMutability": "view",
      "type": "function"
    },
    {
      "inputs": [],
      "name": "secontRefer",
      "outputs": [
        {
          "internalType": "uint256",
          "name": "",
          "type": "uint256"
        }
      ],
      "stateMutability": "view",
      "type": "function"
    },
    {
      "inputs": [
        {
          "internalType": "uint256",
          "name": "_playersPersMint",
          "type": "uint256"
        },
        {
          "internalType": "uint256",
          "name": "_playersPers",
          "type": "uint256"
        },
        {
          "internalType": "uint256",
          "name": "_playersPersPremiun",
          "type": "uint256"
        }
      ],
      "name": "setPlayerPercMint",
      "outputs": [],
      "stateMutability": "nonpayable",
      "type": "function"
    },
    {
      "inputs": [
        {
          "internalType": "uint256",
          "name": "_firstRefer",
          "type": "uint256"
        },
        {
          "internalType": "uint256",
          "name": "_secontRefer",
          "type": "uint256"
        },
        {
          "internalType": "uint256",
          "name": "_thirdRefer",
          "type": "uint256"
        }
      ],
      "name": "setReferrersPerc",
      "outputs": [],
      "stateMutability": "nonpayable",
      "type": "function"
    },
    {
      "inputs": [],
      "name": "thirdRefer",
      "outputs": [
        {
          "internalType": "uint256",
          "name": "",
          "type": "uint256"
        }
      ],
      "stateMutability": "view",
      "type": "function"
    },
    {
      "inputs": [
        {
          "internalType": "int256",
          "name": "_id",
          "type": "int256"
        }
      ],
      "name": "letsPayToPlayers",
      "outputs": [],
      "stateMutability": "nonpayable",
      "type": "function"
    },
    {
      "inputs": [
        {
          "internalType": "int256",
          "name": "_id",
          "type": "int256"
        },
        {
          "internalType": "uint256",
          "name": "_avarageBet",
          "type": "uint256"
        },
        {
          "internalType": "uint256",
          "name": "_calcMintedToken",
          "type": "uint256"
        }
      ],
      "name": "letsPayToLoosers",
      "outputs": [],
      "stateMutability": "nonpayable",
      "type": "function"
    }
  ],
  "bytecode": "0x60806040526032600155605a600255604b600355600480556004600555600260065534801561002d57600080fd5b50604051611e11380380611e118339818101604052604081101561005057600080fd5b810190808051906020019092919080519060200190929190505050336000806101000a81548173ffffffffffffffffffffffffffffffffffffffff021916908373ffffffffffffffffffffffffffffffffffffffff16021790555081600960006101000a81548173ffffffffffffffffffffffffffffffffffffffff021916908373ffffffffffffffffffffffffffffffffffffffff16021790555081600860006101000a81548173ffffffffffffffffffffffffffffffffffffffff021916908373ffffffffffffffffffffffffffffffffffffffff16021790555080600760006101000a81548173ffffffffffffffffffffffffffffffffffffffff021916908373ffffffffffffffffffffffffffffffffffffffff1602179055505050611c928061017f6000396000f3fe608060405234801561001057600080fd5b50600436106100b45760003560e01c806372d6417a1161007157806372d6417a146101f357806373e258ac1461021157806379fdb1681461022f57806393494baa1461024d578063aaa3091e1461028f578063bd17ea48146102e5576100b4565b80630129f278146100b9578063134c3b07146100e757806327e5371714610105578063431e89e114610123578063622198661461016557806367e2a21b146101b1575b600080fd5b6100e5600480360360208110156100cf57600080fd5b8101908080359060200190929190505050610303565b005b6100ef61092e565b6040518082815260200191505060405180910390f35b61010d610934565b6040518082815260200191505060405180910390f35b6101636004803603606081101561013957600080fd5b8101908080359060200190929190803590602001909291908035906020019092919050505061093a565b005b61019b6004803603604081101561017b57600080fd5b810190808035906020019092919080359060200190929190505050610a15565b6040518082815260200191505060405180910390f35b6101f1600480360360608110156101c757600080fd5b81019080803590602001909291908035906020019092919080359060200190929190505050610a2c565b005b6101fb6111b7565b6040518082815260200191505060405180910390f35b6102196111bd565b6040518082815260200191505060405180910390f35b6102376111c3565b6040518082815260200191505060405180910390f35b61028d6004803603606081101561026357600080fd5b810190808035906020019092919080359060200190929190803590602001909291905050506111c9565b005b6102cf600480360360608110156102a557600080fd5b810190808035906020019092919080359060200190929190803590602001909291905050506112a4565b6040518082815260200191505060405180910390f35b6102ed6112d8565b6040518082815260200191505060405180910390f35b60008054906101000a900473ffffffffffffffffffffffffffffffffffffffff1673ffffffffffffffffffffffffffffffffffffffff163373ffffffffffffffffffffffffffffffffffffffff16146103c4576040517f08c379a000000000000000000000000000000000000000000000000000000000815260040180806020018281038252600a8152602001807f6f776e6572206f6e6c790000000000000000000000000000000000000000000081525060200191505060405180910390fd5b6000600860009054906101000a900473ffffffffffffffffffffffffffffffffffffffff1673ffffffffffffffffffffffffffffffffffffffff1663f946c207836040518263ffffffff1660e01b81526004018082815260200191505060206040518083038186803b15801561043957600080fd5b505afa15801561044d573d6000803e3d6000fd5b505050506040513d602081101561046357600080fd5b810190808051906020019092919050505090506000600860009054906101000a900473ffffffffffffffffffffffffffffffffffffffff1673ffffffffffffffffffffffffffffffffffffffff166371aee94584600760009054906101000a900473ffffffffffffffffffffffffffffffffffffffff1673ffffffffffffffffffffffffffffffffffffffff1663bc26b101876040518263ffffffff1660e01b81526004018082815260200191505060206040518083038186803b15801561052a57600080fd5b505afa15801561053e573d6000803e3d6000fd5b505050506040513d602081101561055457600080fd5b81019080805190602001909291905050506040518363ffffffff1660e01b8152600401808381526020018281526020019250505060206040518083038186803b1580156105a057600080fd5b505afa1580156105b4573d6000803e3d6000fd5b505050506040513d60208110156105ca57600080fd5b81019080805190602001909291905050509050600081610699600254600760009054906101000a900473ffffffffffffffffffffffffffffffffffffffff1673ffffffffffffffffffffffffffffffffffffffff166305b442ee886040518263ffffffff1660e01b81526004018082815260200191505060206040518083038186803b15801561065957600080fd5b505afa15801561066d573d6000803e3d6000fd5b505050506040513d602081101561068357600080fd5b8101908080519060200190929190505050610a15565b816106a057fe5b04905060006106af85846112de565b90506000805b8481101561083957600860009054906101000a900473ffffffffffffffffffffffffffffffffffffffff1673ffffffffffffffffffffffffffffffffffffffff1663859f0f6a88600760009054906101000a900473ffffffffffffffffffffffffffffffffffffffff1673ffffffffffffffffffffffffffffffffffffffff1663bc26b1018b6040518263ffffffff1660e01b81526004018082815260200191505060206040518083038186803b15801561076f57600080fd5b505afa158015610783573d6000803e3d6000fd5b505050506040513d602081101561079957600080fd5b8101908080519060200190929190505050846040518463ffffffff1660e01b815260040180848152602001838152602001828152602001935050505060206040518083038186803b1580156107ed57600080fd5b505afa158015610801573d6000803e3d6000fd5b505050506040513d602081101561081757600080fd5b81019080805190602001909291905050508201915080806001019150506106b5565b50600085828161084557fe5b049050600085838161085357fe5b0490506000610911600154600760009054906101000a900473ffffffffffffffffffffffffffffffffffffffff1673ffffffffffffffffffffffffffffffffffffffff166305b442ee8c6040518263ffffffff1660e01b81526004018082815260200191505060206040518083038186803b1580156108d157600080fd5b505afa1580156108e5573d6000803e3d6000fd5b505050506040513d60208110156108fb57600080fd5b8101908080519060200190929190505050610a15565b9050610923898885848c878c8c61146f565b505050505050505050565b60035481565b60025481565b60008054906101000a900473ffffffffffffffffffffffffffffffffffffffff1673ffffffffffffffffffffffffffffffffffffffff163373ffffffffffffffffffffffffffffffffffffffff16146109fb576040517f08c379a000000000000000000000000000000000000000000000000000000000815260040180806020018281038252600a8152602001807f6f776e6572206f6e6c790000000000000000000000000000000000000000000081525060200191505060405180910390fd5b826004819055508160058190555080600681905550505050565b6000606483830281610a2357fe5b04905092915050565b60008054906101000a900473ffffffffffffffffffffffffffffffffffffffff1673ffffffffffffffffffffffffffffffffffffffff163373ffffffffffffffffffffffffffffffffffffffff1614610aed576040517f08c379a000000000000000000000000000000000000000000000000000000000815260040180806020018281038252600a8152602001807f6f776e6572206f6e6c790000000000000000000000000000000000000000000081525060200191505060405180910390fd5b60005b600860009054906101000a900473ffffffffffffffffffffffffffffffffffffffff1673ffffffffffffffffffffffffffffffffffffffff1663a96c2aea856040518263ffffffff1660e01b81526004018082815260200191505060206040518083038186803b158015610b6357600080fd5b505afa158015610b77573d6000803e3d6000fd5b505050506040513d6020811015610b8d57600080fd5b810190808051906020019092919050505081101561117a5780600760009054906101000a900473ffffffffffffffffffffffffffffffffffffffff1673ffffffffffffffffffffffffffffffffffffffff1663bc26b101866040518263ffffffff1660e01b81526004018082815260200191505060206040518083038186803b158015610c1957600080fd5b505afa158015610c2d573d6000803e3d6000fd5b505050506040513d6020811015610c4357600080fd5b810190808051906020019092919050505014158015610d1857506000600860009054906101000a900473ffffffffffffffffffffffffffffffffffffffff1673ffffffffffffffffffffffffffffffffffffffff166371aee94586846040518363ffffffff1660e01b8152600401808381526020018281526020019250505060206040518083038186803b158015610cda57600080fd5b505afa158015610cee573d6000803e3d6000fd5b505050506040513d6020811015610d0457600080fd5b810190808051906020019092919050505014155b1561116d5760005b600860009054906101000a900473ffffffffffffffffffffffffffffffffffffffff1673ffffffffffffffffffffffffffffffffffffffff166371aee94586846040518363ffffffff1660e01b8152600401808381526020018281526020019250505060206040518083038186803b158015610d9b57600080fd5b505afa158015610daf573d6000803e3d6000fd5b505050506040513d6020811015610dc557600080fd5b810190808051906020019092919050505081101561116b576000600860009054906101000a900473ffffffffffffffffffffffffffffffffffffffff1673ffffffffffffffffffffffffffffffffffffffff1663f946c207876040518263ffffffff1660e01b81526004018082815260200191505060206040518083038186803b158015610e5257600080fd5b505afa158015610e66573d6000803e3d6000fd5b505050506040513d6020811015610e7c57600080fd5b81019080805190602001909291905050508481610e9557fe5b0485600860009054906101000a900473ffffffffffffffffffffffffffffffffffffffff1673ffffffffffffffffffffffffffffffffffffffff1663859f0f6a8987876040518463ffffffff1660e01b815260040180848152602001838152602001828152602001935050505060206040518083038186803b158015610f1a57600080fd5b505afa158015610f2e573d6000803e3d6000fd5b505050506040513d6020811015610f4457600080fd5b810190808051906020019092919050505081610f5c57fe5b04029050600960009054906101000a900473ffffffffffffffffffffffffffffffffffffffff1673ffffffffffffffffffffffffffffffffffffffff166340c10f19600860009054906101000a900473ffffffffffffffffffffffffffffffffffffffff1673ffffffffffffffffffffffffffffffffffffffff16637c997f678987876040518463ffffffff1660e01b815260040180848152602001838152602001828152602001935050505060206040518083038186803b15801561102157600080fd5b505afa158015611035573d6000803e3d6000fd5b505050506040513d602081101561104b57600080fd5b8101908080519060200190929190505050836040518363ffffffff1660e01b8152600401808373ffffffffffffffffffffffffffffffffffffffff16815260200182815260200192505050602060405180830381600087803b1580156110b057600080fd5b505af11580156110c4573d6000803e3d6000fd5b505050506040513d60208110156110da57600080fd5b810190808051906020019092919050505061115d576040517f08c379a000000000000000000000000000000000000000000000000000000000815260040180806020018281038252600d8152602001807f70617920746f206c6f736572730000000000000000000000000000000000000081525060200191505060405180910390fd5b508080600101915050610d20565b505b8080600101915050610af0565b507f64c3aa83886a5aedbc17fdd025481bdd45090d3af68e72f3dd4e3f17385122ff836040518082815260200191505060405180910390a1505050565b60055481565b60015481565b60045481565b60008054906101000a900473ffffffffffffffffffffffffffffffffffffffff1673ffffffffffffffffffffffffffffffffffffffff163373ffffffffffffffffffffffffffffffffffffffff161461128a576040517f08c379a000000000000000000000000000000000000000000000000000000000815260040180806020018281038252600a8152602001807f6f776e6572206f6e6c790000000000000000000000000000000000000000000081525060200191505060405180910390fd5b826001819055508160028190555080600381905550505050565b60008084606403905060008585816112b857fe5b04905061271084838884020202816112cc57fe5b04925050509392505050565b60065481565b600080600860009054906101000a900473ffffffffffffffffffffffffffffffffffffffff1673ffffffffffffffffffffffffffffffffffffffff166380559173856040518263ffffffff1660e01b81526004018082815260200191505060206040518083038186803b15801561135457600080fd5b505afa158015611368573d6000803e3d6000fd5b505050506040513d602081101561137e57600080fd5b81019080805190602001909291905050501115611464576000611450600354600860009054906101000a900473ffffffffffffffffffffffffffffffffffffffff1673ffffffffffffffffffffffffffffffffffffffff166380559173876040518263ffffffff1660e01b81526004018082815260200191505060206040518083038186803b15801561141057600080fd5b505afa158015611424573d6000803e3d6000fd5b505050506040513d602081101561143a57600080fd5b8101908080519060200190929190505050610a15565b905082818161145b57fe5b04915050611469565b600090505b92915050565b60005b87811015611c0a576000600860009054906101000a900473ffffffffffffffffffffffffffffffffffffffff1673ffffffffffffffffffffffffffffffffffffffff1663859f0f6a8b600760009054906101000a900473ffffffffffffffffffffffffffffffffffffffff1673ffffffffffffffffffffffffffffffffffffffff1663bc26b1018e6040518263ffffffff1660e01b81526004018082815260200191505060206040518083038186803b15801561152e57600080fd5b505afa158015611542573d6000803e3d6000fd5b505050506040513d602081101561155857600080fd5b8101908080519060200190929190505050856040518463ffffffff1660e01b815260040180848152602001838152602001828152602001935050505060206040518083038186803b1580156115ac57600080fd5b505afa1580156115c0573d6000803e3d6000fd5b505050506040513d60208110156115d657600080fd5b810190808051906020019092919050505090506000600860009054906101000a900473ffffffffffffffffffffffffffffffffffffffff1673ffffffffffffffffffffffffffffffffffffffff16637c997f678c600760009054906101000a900473ffffffffffffffffffffffffffffffffffffffff1673ffffffffffffffffffffffffffffffffffffffff1663bc26b1018f6040518263ffffffff1660e01b81526004018082815260200191505060206040518083038186803b15801561169d57600080fd5b505afa1580156116b1573d6000803e3d6000fd5b505050506040513d60208110156116c757600080fd5b8101908080519060200190929190505050866040518463ffffffff1660e01b815260040180848152602001838152602001828152602001935050505060206040518083038186803b15801561171b57600080fd5b505afa15801561172f573d6000803e3d6000fd5b505050506040513d602081101561174557600080fd5b81019080805190602001909291905050509050600960009054906101000a900473ffffffffffffffffffffffffffffffffffffffff1673ffffffffffffffffffffffffffffffffffffffff166340c10f1982898b816117a057fe5b048c86816117aa57fe5b04026040518363ffffffff1660e01b8152600401808373ffffffffffffffffffffffffffffffffffffffff16815260200182815260200192505050602060405180830381600087803b1580156117ff57600080fd5b505af1158015611813573d6000803e3d6000fd5b505050506040513d602081101561182957600080fd5b81019080805190602001909291905050506118ac576040517f08c379a000000000000000000000000000000000000000000000000000000000815260040180806020018281038252600c8152602001807f6d696e7420746f20706c6179000000000000000000000000000000000000000081525060200191505060405180910390fd5b600960009054906101000a900473ffffffffffffffffffffffffffffffffffffffff1673ffffffffffffffffffffffffffffffffffffffff1663c40768768284888a87816118f657fe5b0402016040518363ffffffff1660e01b8152600401808373ffffffffffffffffffffffffffffffffffffffff16815260200182815260200192505050602060405180830381600087803b15801561194c57600080fd5b505af1158015611960573d6000803e3d6000fd5b505050506040513d602081101561197657600080fd5b81019080805190602001909291905050506119f9576040517f08c379a000000000000000000000000000000000000000000000000000000000815260040180806020018281038252600b8152602001807f70617920746f20706c617900000000000000000000000000000000000000000081525060200191505060405180910390fd5b6000600860009054906101000a900473ffffffffffffffffffffffffffffffffffffffff1673ffffffffffffffffffffffffffffffffffffffff1663805591738d6040518263ffffffff1660e01b81526004018082815260200191505060206040518083038186803b158015611a6e57600080fd5b505afa158015611a82573d6000803e3d6000fd5b505050506040513d6020811015611a9857600080fd5b81019080805190602001909291905050501115611bfb57600960009054906101000a900473ffffffffffffffffffffffffffffffffffffffff1673ffffffffffffffffffffffffffffffffffffffff1663458a80798286898681611af857fe5b04026040518363ffffffff1660e01b8152600401808373ffffffffffffffffffffffffffffffffffffffff16815260200182815260200192505050602060405180830381600087803b158015611b4d57600080fd5b505af1158015611b61573d6000803e3d6000fd5b505050506040513d6020811015611b7757600080fd5b8101908080519060200190929190505050611bfa576040517f08c379a00000000000000000000000000000000000000000000000000000000081526004018080602001828103825260108152602001807f7072656d2070617920796f20706c61790000000000000000000000000000000081525060200191505060405180910390fd5b5b50508080600101915050611472565b507f3dab09e521e432fcf2c4241a48669ead87a2cb753a8c38ac04f33c85b42ddf3e88878760405180848152602001838152602001828152602001935050505060405180910390a1505050505050505056fea2646970667358221220bbf6e3dd2ca89191c100878976521326cafad4cf80cc76cd6572ee667117d7c564736f6c63430007060033",
  "immutableReferences": {},
  "source": "// SPDX-License-Identifier: MIT\npragma solidity >=0.4.22 <0.9.0;\nimport {PubStruct} from \"../../struct/PubStruct.sol\";\nimport {MPStruct} from \"../../struct/MPStruct.sol\";\nimport {Libs} from \"./Libs.sol\";\nimport {PPConfig} from \"../../config/PPConfig.sol\";\nimport {PublicEvents} from \"./PublicEvents.sol\";\n \ncontract PlayerPayment is Libs, PPConfig {\n    event payToLosers(int id, uint avarageBet, uint calcMintedToken);\n    event payToRefferers(int id);\n    event eventFinish(int id);\n    MPStruct mpData;\n    PubStruct eventsData;\n    PublicEvents PublicAddr;\n\n    constructor(PublicEvents _addr, address _mpAddr) {\n        PublicAddr = _addr;\n        eventsData = PubStruct(_addr);\n        mpData = MPStruct(_mpAddr);\n    }\n\n   function letsPayToPlayers(int _id) public {\n        require(msg.sender == owner, \"owner only\");\n        uint activePlay = eventsData.getActivePlayers(_id);\n        uint rightPlay = eventsData.getPlayerAmount(_id, mpData.getCorrectAnswer(_id));\n        uint winPool = getPercent(playersPers, mpData.getLoserPool(_id)) / rightPlay;\n        uint premimWin = calcPremiumWin(_id, rightPlay);\n        uint betAmount = 0;\n\n        for ( uint i = 0; i < rightPlay; i++ ) {\n            betAmount += eventsData.getPlayerTokens(_id, mpData.getCorrectAnswer(_id), i);\n        }\n\n        uint avarageBet = betAmount / activePlay;\n        uint avarageBetWin = betAmount / rightPlay;\n        uint calcMintedToken = getPercent(playersPersMint, mpData.getLoserPool(_id));\n        payToPlay(_id, rightPlay, avarageBet, calcMintedToken, activePlay, avarageBetWin, winPool, premimWin);\n    }\n\n    function payToPlay(int _id, uint rightPlay, uint avarageBet, uint calcMintedToken, uint activePlay, uint avarageBetWin, uint winPool, uint premimWin) private {\n       for ( uint i = 0; i < rightPlay; i++ ) {\n            // mint token to users\n            uint userBet = eventsData.getPlayerTokens(_id, mpData.getCorrectAnswer(_id), i);\n            address payable userWallet = eventsData.getPlayerWallet(_id, mpData.getCorrectAnswer(_id), i);\n            require(\n                PublicAddr.mint(userWallet, (userBet / avarageBet) * (calcMintedToken / activePlay)),\n                \"mint to play\"\n            );\n            // pay tokens to users\n            require(\n                PublicAddr.pay(userWallet, ((userBet / avarageBetWin) * winPool) + userBet),\n                \"pay to play\"\n            );\n            if (eventsData.getPremiumAmount(_id) > 0) {\n                // pay premium tokens to user\n                require(\n                    PublicAddr.payBTY(userWallet, (userBet / avarageBetWin) * premimWin),\n                    \"prem pay yo play\"\n                );\n            }\n        }\n        emit payToLosers(_id, avarageBet, calcMintedToken);\n    }\n\n    function calcPremiumWin(int _id, uint rightPlay) private view returns(uint){\n        if (eventsData.getPremiumAmount(_id) > 0) {\n            uint premiumToken = getPercent(playersPersPremiun, eventsData.getPremiumAmount(_id));\n            return premiumToken / rightPlay;\n        }else{\n            return 0;\n        }\n    }\n\n    function letsPayToLoosers(\n        int _id,\n        uint _avarageBet,\n        uint _calcMintedToken\n    ) public {\n        require(msg.sender == owner, \"owner only\");\n        for (uint i = 0; i < eventsData.getQuestAmount(_id); i++) {\n            if (mpData.getCorrectAnswer(_id) != i && eventsData.getPlayerAmount(_id, i) != 0) {\n                for (uint z = 0; z < eventsData.getPlayerAmount(_id, i); z++) {\n                    uint mintLost = (eventsData.getPlayerTokens(_id, i, z) / _avarageBet) * (_calcMintedToken / eventsData.getActivePlayers(_id));\n                    require(PublicAddr.mint(eventsData.getPlayerWallet(_id, i, z), mintLost), \"pay to losers\");\n                }\n            }\n        }\n       emit payToRefferers(_id);\n    }\n\n    function payToReff(int _id) private {\n        // TODO\n        mpData.setFinishEvent(_id);\n        emit eventFinish(\n            _id\n        );\n    }\n}    ",
  "sourcePath": "/Users/macbook/Documents/freelance/tokenominc/contracts/events/PublicEvents/PlayerPayment.sol",
  "compiler": {
    "name": "solc",
    "version": "0.7.6+commit.7338295f.Linux.g++"
  },
  "schemaVersion": "3.3.4",
  "updatedAt": "2021-03-15T14:48:37.176Z",
  "devdoc": {
    "kind": "dev",
    "methods": {},
    "version": 1
  },
  "userdoc": {
    "kind": "user",
    "methods": {},
    "version": 1
  }
}