{
  "contractName": "PlayerPayment",
  "abi": [
    {
      "inputs": [
        {
          "internalType": "contract PublicEvents",
          "name": "_addr",
          "type": "address"
        },
        {
          "internalType": "address",
          "name": "_mpAddr",
          "type": "address"
        }
      ],
      "stateMutability": "nonpayable",
      "type": "constructor"
    },
    {
      "anonymous": false,
      "inputs": [
        {
          "indexed": false,
          "internalType": "int256",
          "name": "id",
          "type": "int256"
        }
      ],
      "name": "eventFinish",
      "type": "event"
    },
    {
      "anonymous": false,
      "inputs": [
        {
          "indexed": false,
          "internalType": "int256",
          "name": "id",
          "type": "int256"
        },
        {
          "indexed": false,
          "internalType": "uint256",
          "name": "avarageBet",
          "type": "uint256"
        }
      ],
      "name": "payToLosers",
      "type": "event"
    },
    {
      "inputs": [
        {
          "internalType": "uint256",
          "name": "_activePlayers",
          "type": "uint256"
        },
        {
          "internalType": "uint256",
          "name": "_pool",
          "type": "uint256"
        },
        {
          "internalType": "uint256",
          "name": "_GFindex",
          "type": "uint256"
        }
      ],
      "name": "calcMintedTokens",
      "outputs": [
        {
          "internalType": "uint256",
          "name": "",
          "type": "uint256"
        }
      ],
      "stateMutability": "pure",
      "type": "function"
    },
    {
      "inputs": [],
      "name": "firstRefer",
      "outputs": [
        {
          "internalType": "uint256",
          "name": "",
          "type": "uint256"
        }
      ],
      "stateMutability": "view",
      "type": "function"
    },
    {
      "inputs": [
        {
          "internalType": "uint256",
          "name": "_percent",
          "type": "uint256"
        },
        {
          "internalType": "uint256",
          "name": "_from",
          "type": "uint256"
        }
      ],
      "name": "getPercent",
      "outputs": [
        {
          "internalType": "uint256",
          "name": "",
          "type": "uint256"
        }
      ],
      "stateMutability": "pure",
      "type": "function"
    },
    {
      "inputs": [],
      "name": "playersPers",
      "outputs": [
        {
          "internalType": "uint256",
          "name": "",
          "type": "uint256"
        }
      ],
      "stateMutability": "view",
      "type": "function"
    },
    {
      "inputs": [],
      "name": "playersPersMint",
      "outputs": [
        {
          "internalType": "uint256",
          "name": "",
          "type": "uint256"
        }
      ],
      "stateMutability": "view",
      "type": "function"
    },
    {
      "inputs": [],
      "name": "playersPersPremiun",
      "outputs": [
        {
          "internalType": "uint256",
          "name": "",
          "type": "uint256"
        }
      ],
      "stateMutability": "view",
      "type": "function"
    },
    {
      "inputs": [],
      "name": "secontRefer",
      "outputs": [
        {
          "internalType": "uint256",
          "name": "",
          "type": "uint256"
        }
      ],
      "stateMutability": "view",
      "type": "function"
    },
    {
      "inputs": [
        {
          "internalType": "uint256",
          "name": "_playersPersMint",
          "type": "uint256"
        },
        {
          "internalType": "uint256",
          "name": "_playersPers",
          "type": "uint256"
        },
        {
          "internalType": "uint256",
          "name": "_playersPersPremiun",
          "type": "uint256"
        }
      ],
      "name": "setPlayerPercMint",
      "outputs": [],
      "stateMutability": "nonpayable",
      "type": "function"
    },
    {
      "inputs": [
        {
          "internalType": "uint256",
          "name": "_firstRefer",
          "type": "uint256"
        },
        {
          "internalType": "uint256",
          "name": "_secontRefer",
          "type": "uint256"
        },
        {
          "internalType": "uint256",
          "name": "_thirdRefer",
          "type": "uint256"
        }
      ],
      "name": "setReferrersPerc",
      "outputs": [],
      "stateMutability": "nonpayable",
      "type": "function"
    },
    {
      "inputs": [],
      "name": "thirdRefer",
      "outputs": [
        {
          "internalType": "uint256",
          "name": "",
          "type": "uint256"
        }
      ],
      "stateMutability": "view",
      "type": "function"
    },
    {
      "inputs": [
        {
          "internalType": "int256",
          "name": "_id",
          "type": "int256"
        }
      ],
      "name": "letsPayToPlayers",
      "outputs": [],
      "stateMutability": "nonpayable",
      "type": "function"
    },
    {
      "inputs": [
        {
          "internalType": "int256",
          "name": "_id",
          "type": "int256"
        },
        {
          "internalType": "uint256",
          "name": "_avarageBet",
          "type": "uint256"
        }
      ],
      "name": "letsPayToLoosers",
      "outputs": [],
      "stateMutability": "nonpayable",
      "type": "function"
    }
  ],
  "bytecode": "0x60806040526032600155605a600255604b600355600480556004600555600260065534801561002d57600080fd5b50604051611f01380380611f018339818101604052604081101561005057600080fd5b810190808051906020019092919080519060200190929190505050336000806101000a81548173ffffffffffffffffffffffffffffffffffffffff021916908373ffffffffffffffffffffffffffffffffffffffff16021790555081600960006101000a81548173ffffffffffffffffffffffffffffffffffffffff021916908373ffffffffffffffffffffffffffffffffffffffff16021790555081600860006101000a81548173ffffffffffffffffffffffffffffffffffffffff021916908373ffffffffffffffffffffffffffffffffffffffff16021790555080600760006101000a81548173ffffffffffffffffffffffffffffffffffffffff021916908373ffffffffffffffffffffffffffffffffffffffff1602179055505050611d828061017f6000396000f3fe608060405234801561001057600080fd5b50600436106100b45760003560e01c806372d6417a1161007157806372d6417a146101e957806373e258ac1461020757806379fdb1681461022557806393494baa14610243578063aaa3091e14610285578063bd17ea48146102db576100b4565b80630129f278146100b9578063134c3b07146100e757806327e5371714610105578063416a58ff14610123578063431e89e11461015b578063622198661461019d575b600080fd5b6100e5600480360360208110156100cf57600080fd5b81019080803590602001909291905050506102f9565b005b6100ef611252565b6040518082815260200191505060405180910390f35b61010d611258565b6040518082815260200191505060405180910390f35b6101596004803603604081101561013957600080fd5b81019080803590602001909291908035906020019092919050505061125e565b005b61019b6004803603606081101561017157600080fd5b81019080803590602001909291908035906020019092919080359060200190929190505050611b33565b005b6101d3600480360360408110156101b357600080fd5b810190808035906020019092919080359060200190929190505050611c0e565b6040518082815260200191505060405180910390f35b6101f1611c25565b6040518082815260200191505060405180910390f35b61020f611c2b565b6040518082815260200191505060405180910390f35b61022d611c31565b6040518082815260200191505060405180910390f35b6102836004803603606081101561025957600080fd5b81019080803590602001909291908035906020019092919080359060200190929190505050611c37565b005b6102c56004803603606081101561029b57600080fd5b81019080803590602001909291908035906020019092919080359060200190929190505050611d12565b6040518082815260200191505060405180910390f35b6102e3611d46565b6040518082815260200191505060405180910390f35b60008054906101000a900473ffffffffffffffffffffffffffffffffffffffff1673ffffffffffffffffffffffffffffffffffffffff163373ffffffffffffffffffffffffffffffffffffffff16146103ba576040517f08c379a000000000000000000000000000000000000000000000000000000000815260040180806020018281038252600a8152602001807f6f776e6572206f6e6c790000000000000000000000000000000000000000000081525060200191505060405180910390fd5b6000600860009054906101000a900473ffffffffffffffffffffffffffffffffffffffff1673ffffffffffffffffffffffffffffffffffffffff1663f946c207836040518263ffffffff1660e01b81526004018082815260200191505060206040518083038186803b15801561042f57600080fd5b505afa158015610443573d6000803e3d6000fd5b505050506040513d602081101561045957600080fd5b81019080805190602001909291905050509050600081610528600254600760009054906101000a900473ffffffffffffffffffffffffffffffffffffffff1673ffffffffffffffffffffffffffffffffffffffff166305b442ee876040518263ffffffff1660e01b81526004018082815260200191505060206040518083038186803b1580156104e857600080fd5b505afa1580156104fc573d6000803e3d6000fd5b505050506040513d602081101561051257600080fd5b8101908080519060200190929190505050611c0e565b8161052f57fe5b0490506000600860009054906101000a900473ffffffffffffffffffffffffffffffffffffffff1673ffffffffffffffffffffffffffffffffffffffff166371aee94585600760009054906101000a900473ffffffffffffffffffffffffffffffffffffffff1673ffffffffffffffffffffffffffffffffffffffff1663bc26b101886040518263ffffffff1660e01b81526004018082815260200191505060206040518083038186803b1580156105e657600080fd5b505afa1580156105fa573d6000803e3d6000fd5b505050506040513d602081101561061057600080fd5b81019080805190602001909291905050506040518363ffffffff1660e01b8152600401808381526020018281526020019250505060206040518083038186803b15801561065c57600080fd5b505afa158015610670573d6000803e3d6000fd5b505050506040513d602081101561068657600080fd5b81019080805190602001909291905050509050600080600860009054906101000a900473ffffffffffffffffffffffffffffffffffffffff1673ffffffffffffffffffffffffffffffffffffffff166380559173876040518263ffffffff1660e01b81526004018082815260200191505060206040518083038186803b15801561070f57600080fd5b505afa158015610723573d6000803e3d6000fd5b505050506040513d602081101561073957600080fd5b8101908080519060200190929190505050111561081b57600061080b600354600860009054906101000a900473ffffffffffffffffffffffffffffffffffffffff1673ffffffffffffffffffffffffffffffffffffffff166380559173896040518263ffffffff1660e01b81526004018082815260200191505060206040518083038186803b1580156107cb57600080fd5b505afa1580156107df573d6000803e3d6000fd5b505050506040513d60208110156107f557600080fd5b8101908080519060200190929190505050611c0e565b905084818161081657fe5b049150505b6000805b838110156109a357600860009054906101000a900473ffffffffffffffffffffffffffffffffffffffff1673ffffffffffffffffffffffffffffffffffffffff1663859f0f6a88600760009054906101000a900473ffffffffffffffffffffffffffffffffffffffff1673ffffffffffffffffffffffffffffffffffffffff1663bc26b1018b6040518263ffffffff1660e01b81526004018082815260200191505060206040518083038186803b1580156108d957600080fd5b505afa1580156108ed573d6000803e3d6000fd5b505050506040513d602081101561090357600080fd5b8101908080519060200190929190505050846040518463ffffffff1660e01b815260040180848152602001838152602001828152602001935050505060206040518083038186803b15801561095757600080fd5b505afa15801561096b573d6000803e3d6000fd5b505050506040513d602081101561098157600080fd5b810190808051906020019092919050505082019150808060010191505061081f565b5060008582816109af57fe5b04905060005b84811015611209576000600860009054906101000a900473ffffffffffffffffffffffffffffffffffffffff1673ffffffffffffffffffffffffffffffffffffffff1663859f0f6a8a600760009054906101000a900473ffffffffffffffffffffffffffffffffffffffff1673ffffffffffffffffffffffffffffffffffffffff1663bc26b1018d6040518263ffffffff1660e01b81526004018082815260200191505060206040518083038186803b158015610a7157600080fd5b505afa158015610a85573d6000803e3d6000fd5b505050506040513d6020811015610a9b57600080fd5b8101908080519060200190929190505050856040518463ffffffff1660e01b815260040180848152602001838152602001828152602001935050505060206040518083038186803b158015610aef57600080fd5b505afa158015610b03573d6000803e3d6000fd5b505050506040513d6020811015610b1957600080fd5b810190808051906020019092919050505090506000600860009054906101000a900473ffffffffffffffffffffffffffffffffffffffff1673ffffffffffffffffffffffffffffffffffffffff16637c997f678b600760009054906101000a900473ffffffffffffffffffffffffffffffffffffffff1673ffffffffffffffffffffffffffffffffffffffff1663bc26b1018e6040518263ffffffff1660e01b81526004018082815260200191505060206040518083038186803b158015610be057600080fd5b505afa158015610bf4573d6000803e3d6000fd5b505050506040513d6020811015610c0a57600080fd5b8101908080519060200190929190505050866040518463ffffffff1660e01b815260040180848152602001838152602001828152602001935050505060206040518083038186803b158015610c5e57600080fd5b505afa158015610c72573d6000803e3d6000fd5b505050506040513d6020811015610c8857600080fd5b81019080805190602001909291905050509050600089610d57600154600760009054906101000a900473ffffffffffffffffffffffffffffffffffffffff1673ffffffffffffffffffffffffffffffffffffffff166305b442ee8f6040518263ffffffff1660e01b81526004018082815260200191505060206040518083038186803b158015610d1757600080fd5b505afa158015610d2b573d6000803e3d6000fd5b505050506040513d6020811015610d4157600080fd5b8101908080519060200190929190505050611c0e565b81610d5e57fe5b04858481610d6857fe5b04029050600960009054906101000a900473ffffffffffffffffffffffffffffffffffffffff1673ffffffffffffffffffffffffffffffffffffffff166340c10f1983836040518363ffffffff1660e01b8152600401808373ffffffffffffffffffffffffffffffffffffffff16815260200182815260200192505050602060405180830381600087803b158015610dff57600080fd5b505af1158015610e13573d6000803e3d6000fd5b505050506040513d6020811015610e2957600080fd5b8101908080519060200190929190505050610eac576040517f08c379a000000000000000000000000000000000000000000000000000000000815260040180806020018281038252600c8152602001807f6d696e7420746f20706c6179000000000000000000000000000000000000000081525060200191505060405180910390fd5b600960009054906101000a900473ffffffffffffffffffffffffffffffffffffffff1673ffffffffffffffffffffffffffffffffffffffff1663c4076876838b888781610ef557fe5b04026040518363ffffffff1660e01b8152600401808373ffffffffffffffffffffffffffffffffffffffff16815260200182815260200192505050602060405180830381600087803b158015610f4a57600080fd5b505af1158015610f5e573d6000803e3d6000fd5b505050506040513d6020811015610f7457600080fd5b8101908080519060200190929190505050610ff7576040517f08c379a000000000000000000000000000000000000000000000000000000000815260040180806020018281038252600b8152602001807f70617920746f20706c617900000000000000000000000000000000000000000081525060200191505060405180910390fd5b6000600860009054906101000a900473ffffffffffffffffffffffffffffffffffffffff1673ffffffffffffffffffffffffffffffffffffffff1663805591738d6040518263ffffffff1660e01b81526004018082815260200191505060206040518083038186803b15801561106c57600080fd5b505afa158015611080573d6000803e3d6000fd5b505050506040513d602081101561109657600080fd5b810190808051906020019092919050505011156111f957600960009054906101000a900473ffffffffffffffffffffffffffffffffffffffff1673ffffffffffffffffffffffffffffffffffffffff1663458a807983898887816110f657fe5b04026040518363ffffffff1660e01b8152600401808373ffffffffffffffffffffffffffffffffffffffff16815260200182815260200192505050602060405180830381600087803b15801561114b57600080fd5b505af115801561115f573d6000803e3d6000fd5b505050506040513d602081101561117557600080fd5b81019080805190602001909291905050506111f8576040517f08c379a00000000000000000000000000000000000000000000000000000000081526004018080602001828103825260108152602001807f7072656d2070617920796f20706c61790000000000000000000000000000000081525060200191505060405180910390fd5b5b50505080806001019150506109b5565b507f271c965965750adf5e2b081f7d48aaff1e5e7bb06106cb088a9c8c94aa79b5e58782604051808381526020018281526020019250505060405180910390a150505050505050565b60035481565b60025481565b60008054906101000a900473ffffffffffffffffffffffffffffffffffffffff1673ffffffffffffffffffffffffffffffffffffffff163373ffffffffffffffffffffffffffffffffffffffff161461131f576040517f08c379a000000000000000000000000000000000000000000000000000000000815260040180806020018281038252600a8152602001807f6f776e6572206f6e6c790000000000000000000000000000000000000000000081525060200191505060405180910390fd5b60006113da600154600760009054906101000a900473ffffffffffffffffffffffffffffffffffffffff1673ffffffffffffffffffffffffffffffffffffffff16632c7d577e866040518263ffffffff1660e01b81526004018082815260200191505060206040518083038186803b15801561139a57600080fd5b505afa1580156113ae573d6000803e3d6000fd5b505050506040513d60208110156113c457600080fd5b8101908080519060200190929190505050611c0e565b905060005b600860009054906101000a900473ffffffffffffffffffffffffffffffffffffffff1673ffffffffffffffffffffffffffffffffffffffff1663a96c2aea856040518263ffffffff1660e01b81526004018082815260200191505060206040518083038186803b15801561145257600080fd5b505afa158015611466573d6000803e3d6000fd5b505050506040513d602081101561147c57600080fd5b8101908080519060200190929190505050811015611a695780600760009054906101000a900473ffffffffffffffffffffffffffffffffffffffff1673ffffffffffffffffffffffffffffffffffffffff1663bc26b101866040518263ffffffff1660e01b81526004018082815260200191505060206040518083038186803b15801561150857600080fd5b505afa15801561151c573d6000803e3d6000fd5b505050506040513d602081101561153257600080fd5b81019080805190602001909291905050501415801561160757506000600860009054906101000a900473ffffffffffffffffffffffffffffffffffffffff1673ffffffffffffffffffffffffffffffffffffffff166371aee94586846040518363ffffffff1660e01b8152600401808381526020018281526020019250505060206040518083038186803b1580156115c957600080fd5b505afa1580156115dd573d6000803e3d6000fd5b505050506040513d60208110156115f357600080fd5b810190808051906020019092919050505014155b15611a5c5760005b600860009054906101000a900473ffffffffffffffffffffffffffffffffffffffff1673ffffffffffffffffffffffffffffffffffffffff166371aee94586846040518363ffffffff1660e01b8152600401808381526020018281526020019250505060206040518083038186803b15801561168a57600080fd5b505afa15801561169e573d6000803e3d6000fd5b505050506040513d60208110156116b457600080fd5b8101908080519060200190929190505050811015611a5a576000600860009054906101000a900473ffffffffffffffffffffffffffffffffffffffff1673ffffffffffffffffffffffffffffffffffffffff1663f946c207876040518263ffffffff1660e01b81526004018082815260200191505060206040518083038186803b15801561174157600080fd5b505afa158015611755573d6000803e3d6000fd5b505050506040513d602081101561176b57600080fd5b8101908080519060200190929190505050848161178457fe5b0485600860009054906101000a900473ffffffffffffffffffffffffffffffffffffffff1673ffffffffffffffffffffffffffffffffffffffff1663859f0f6a8987876040518463ffffffff1660e01b815260040180848152602001838152602001828152602001935050505060206040518083038186803b15801561180957600080fd5b505afa15801561181d573d6000803e3d6000fd5b505050506040513d602081101561183357600080fd5b81019080805190602001909291905050508161184b57fe5b04029050600960009054906101000a900473ffffffffffffffffffffffffffffffffffffffff1673ffffffffffffffffffffffffffffffffffffffff166340c10f19600860009054906101000a900473ffffffffffffffffffffffffffffffffffffffff1673ffffffffffffffffffffffffffffffffffffffff16637c997f678987876040518463ffffffff1660e01b815260040180848152602001838152602001828152602001935050505060206040518083038186803b15801561191057600080fd5b505afa158015611924573d6000803e3d6000fd5b505050506040513d602081101561193a57600080fd5b8101908080519060200190929190505050836040518363ffffffff1660e01b8152600401808373ffffffffffffffffffffffffffffffffffffffff16815260200182815260200192505050602060405180830381600087803b15801561199f57600080fd5b505af11580156119b3573d6000803e3d6000fd5b505050506040513d60208110156119c957600080fd5b8101908080519060200190929190505050611a4c576040517f08c379a000000000000000000000000000000000000000000000000000000000815260040180806020018281038252600d8152602001807f70617920746f206c6f736572730000000000000000000000000000000000000081525060200191505060405180910390fd5b50808060010191505061160f565b505b80806001019150506113df565b50600760009054906101000a900473ffffffffffffffffffffffffffffffffffffffff1673ffffffffffffffffffffffffffffffffffffffff16630583e6ee846040518263ffffffff1660e01b815260040180828152602001915050600060405180830381600087803b158015611adf57600080fd5b505af1158015611af3573d6000803e3d6000fd5b505050507f25da44ba4726d9f695af444bfab7e7216cbb2a722298eb04083ad9f507a7c996836040518082815260200191505060405180910390a1505050565b60008054906101000a900473ffffffffffffffffffffffffffffffffffffffff1673ffffffffffffffffffffffffffffffffffffffff163373ffffffffffffffffffffffffffffffffffffffff1614611bf4576040517f08c379a000000000000000000000000000000000000000000000000000000000815260040180806020018281038252600a8152602001807f6f776e6572206f6e6c790000000000000000000000000000000000000000000081525060200191505060405180910390fd5b826004819055508160058190555080600681905550505050565b6000606483830281611c1c57fe5b04905092915050565b60055481565b60015481565b60045481565b60008054906101000a900473ffffffffffffffffffffffffffffffffffffffff1673ffffffffffffffffffffffffffffffffffffffff163373ffffffffffffffffffffffffffffffffffffffff1614611cf8576040517f08c379a000000000000000000000000000000000000000000000000000000000815260040180806020018281038252600a8152602001807f6f776e6572206f6e6c790000000000000000000000000000000000000000000081525060200191505060405180910390fd5b826001819055508160028190555080600381905550505050565b6000808460640390506000858581611d2657fe5b0490506127108483888402020281611d3a57fe5b04925050509392505050565b6006548156fea264697066735822122049d4f914b9a1cf718ea60f863aa5357ef6be5f8e54e8db5f6eaff0dd697b9b2364736f6c63430007060033",
  "immutableReferences": {},
  "source": "// SPDX-License-Identifier: MIT\npragma solidity >=0.4.22 <0.9.0;\nimport {PubStruct} from \"../../struct/PubStruct.sol\";\nimport {MPStruct} from \"../../struct/MPStruct.sol\";\nimport {Libs} from \"./Libs.sol\";\nimport {PPConfig} from \"../../config/PPConfig.sol\";\nimport {PublicEvents} from \"./PublicEvents.sol\";\n \ncontract PlayerPayment is Libs, PPConfig {\n    event payToLosers(int id, uint avarageBet);\n    event eventFinish(int id);\n    MPStruct mpData;\n    PubStruct eventsData;\n    PublicEvents PublicAddr;\n\n    constructor(PublicEvents _addr, address _mpAddr) {\n        PublicAddr = _addr;\n        eventsData = PubStruct(_addr);\n        mpData = MPStruct(_mpAddr);\n    }\n\n   function letsPayToPlayers(int _id) public {\n        require(msg.sender == owner, \"owner only\");\n        uint activePlay = eventsData.getActivePlayers(_id);\n        uint winPool = getPercent(playersPers, mpData.getLoserPool(_id)) / activePlay;\n        uint rightPlay = eventsData.getPlayerAmount(_id, mpData.getCorrectAnswer(_id));\n\n        uint premimWin;\n        if (eventsData.getPremiumAmount(_id) > 0) {\n            uint premiumToken = getPercent(playersPersPremiun, eventsData.getPremiumAmount(_id));\n            premimWin = premiumToken / activePlay;\n        }\n        uint betAmount = 0;\n\n        for ( uint i = 0; i < rightPlay; i++ ) {\n            betAmount = betAmount + eventsData.getPlayerTokens(_id, mpData.getCorrectAnswer(_id), i);\n        }\n\n        uint avarageBet = betAmount / activePlay;\n\n        for ( uint i = 0; i < rightPlay; i++ ) {\n            // mint token to users\n            uint userBet = eventsData.getPlayerTokens(_id, mpData.getCorrectAnswer(_id), i);\n            address payable userWallet = eventsData.getPlayerWallet(_id, mpData.getCorrectAnswer(_id), i);\n            uint mintWin = (userBet / avarageBet) * (getPercent(playersPersMint, mpData.getLoserPool(_id)) / activePlay);\n            // TODO pay to referers\n            require(\n                PublicAddr.mint(userWallet, mintWin),\n                \"mint to play\"\n            );\n            // pay tokens to users\n            require(\n                PublicAddr.pay(userWallet, (userBet / avarageBet) * winPool),\n                \"pay to play\"\n            );\n            if (eventsData.getPremiumAmount(_id) > 0) {\n                // pay premium tokens to user\n                require(\n                    PublicAddr.payBTY(userWallet, (userBet / avarageBet) * premimWin),\n                    \"prem pay yo play\"\n                );\n            }\n        }\n        emit payToLosers(_id, avarageBet);\n    }\n\n    function letsPayToLoosers(\n        int _id,\n        uint _avarageBet\n    ) public {\n        require(msg.sender == owner, \"owner only\");\n        uint mintedTokens = getPercent(playersPersMint, mpData.getTokenMinted(_id));\n        for (uint i = 0; i < eventsData.getQuestAmount(_id); i++) {\n            if (mpData.getCorrectAnswer(_id) != i && eventsData.getPlayerAmount(_id, i) != 0) {\n                for (uint z = 0; z < eventsData.getPlayerAmount(_id, i); z++) {\n                    uint mintLost = (eventsData.getPlayerTokens(_id, i, z) / _avarageBet) * (mintedTokens / eventsData.getActivePlayers(_id));\n                    require(PublicAddr.mint(eventsData.getPlayerWallet(_id, i, z), mintLost), \"pay to losers\");\n                }\n            }\n        }\n        mpData.setFinishEvent(_id);\n        emit eventFinish(\n            _id\n        );\n    }\n}    ",
  "sourcePath": "/Users/macbook/Documents/freelance/tokenominc/contracts/events/PublicEvents/PlayerPayment.sol",
  "compiler": {
    "name": "solc",
    "version": "0.7.6+commit.7338295f.Linux.g++"
  },
  "schemaVersion": "3.3.4",
  "updatedAt": "2021-03-15T10:32:57.139Z",
  "devdoc": {
    "kind": "dev",
    "methods": {},
    "version": 1
  },
  "userdoc": {
    "kind": "user",
    "methods": {},
    "version": 1
  }
}