{
  "contractName": "PlayerPayment",
  "abi": [
    {
      "inputs": [
        {
          "internalType": "contract PublicEvents",
          "name": "_addr",
          "type": "address"
        },
        {
          "internalType": "address",
          "name": "_mpAddr",
          "type": "address"
        }
      ],
      "stateMutability": "nonpayable",
      "type": "constructor"
    },
    {
      "anonymous": false,
      "inputs": [
        {
          "indexed": false,
          "internalType": "int256",
          "name": "id",
          "type": "int256"
        }
      ],
      "name": "eventFinish",
      "type": "event"
    },
    {
      "anonymous": false,
      "inputs": [
        {
          "indexed": false,
          "internalType": "int256",
          "name": "id",
          "type": "int256"
        },
        {
          "indexed": false,
          "internalType": "uint256",
          "name": "avarageBet",
          "type": "uint256"
        }
      ],
      "name": "payToLosers",
      "type": "event"
    },
    {
      "inputs": [
        {
          "internalType": "uint256",
          "name": "_activePlayers",
          "type": "uint256"
        },
        {
          "internalType": "uint256",
          "name": "_pool",
          "type": "uint256"
        },
        {
          "internalType": "uint256",
          "name": "_GFindex",
          "type": "uint256"
        }
      ],
      "name": "calcMintedTokens",
      "outputs": [
        {
          "internalType": "uint256",
          "name": "",
          "type": "uint256"
        }
      ],
      "stateMutability": "pure",
      "type": "function"
    },
    {
      "inputs": [
        {
          "internalType": "uint256",
          "name": "_percent",
          "type": "uint256"
        },
        {
          "internalType": "uint256",
          "name": "_from",
          "type": "uint256"
        }
      ],
      "name": "getPercent",
      "outputs": [
        {
          "internalType": "uint256",
          "name": "",
          "type": "uint256"
        }
      ],
      "stateMutability": "pure",
      "type": "function"
    },
    {
      "inputs": [],
      "name": "playersPers",
      "outputs": [
        {
          "internalType": "uint256",
          "name": "",
          "type": "uint256"
        }
      ],
      "stateMutability": "view",
      "type": "function"
    },
    {
      "inputs": [],
      "name": "playersPersMint",
      "outputs": [
        {
          "internalType": "uint256",
          "name": "",
          "type": "uint256"
        }
      ],
      "stateMutability": "view",
      "type": "function"
    },
    {
      "inputs": [],
      "name": "playersPersPremiun",
      "outputs": [
        {
          "internalType": "uint256",
          "name": "",
          "type": "uint256"
        }
      ],
      "stateMutability": "view",
      "type": "function"
    },
    {
      "inputs": [
        {
          "internalType": "uint256",
          "name": "_playersPersMint",
          "type": "uint256"
        },
        {
          "internalType": "uint256",
          "name": "_playersPers",
          "type": "uint256"
        },
        {
          "internalType": "uint256",
          "name": "_playersPersPremiun",
          "type": "uint256"
        }
      ],
      "name": "setPlayerPersMint",
      "outputs": [],
      "stateMutability": "nonpayable",
      "type": "function"
    },
    {
      "inputs": [
        {
          "internalType": "int256",
          "name": "_id",
          "type": "int256"
        }
      ],
      "name": "letsPayToPlayers",
      "outputs": [],
      "stateMutability": "nonpayable",
      "type": "function"
    },
    {
      "inputs": [
        {
          "internalType": "int256",
          "name": "_id",
          "type": "int256"
        },
        {
          "internalType": "uint256",
          "name": "_avarageBet",
          "type": "uint256"
        }
      ],
      "name": "letsPayToLoosers",
      "outputs": [],
      "stateMutability": "nonpayable",
      "type": "function"
    }
  ],
  "bytecode": "0x60806040526032600155605a600255604b60035534801561001f57600080fd5b50604051611d3e380380611d3e8339818101604052604081101561004257600080fd5b810190808051906020019092919080519060200190929190505050336000806101000a81548173ffffffffffffffffffffffffffffffffffffffff021916908373ffffffffffffffffffffffffffffffffffffffff16021790555081600660006101000a81548173ffffffffffffffffffffffffffffffffffffffff021916908373ffffffffffffffffffffffffffffffffffffffff16021790555081600560006101000a81548173ffffffffffffffffffffffffffffffffffffffff021916908373ffffffffffffffffffffffffffffffffffffffff16021790555080600460006101000a81548173ffffffffffffffffffffffffffffffffffffffff021916908373ffffffffffffffffffffffffffffffffffffffff1602179055505050611bcd806101716000396000f3fe608060405234801561001057600080fd5b50600436106100885760003560e01c8063622198661161005b578063622198661461012f578063664fc5f21461017b57806373e258ac146101bd578063aaa3091e146101db57610088565b80630129f2781461008d578063134c3b07146100bb57806327e53717146100d9578063416a58ff146100f7575b600080fd5b6100b9600480360360208110156100a357600080fd5b8101908080359060200190929190505050610231565b005b6100c361118a565b6040518082815260200191505060405180910390f35b6100e1611190565b6040518082815260200191505060405180910390f35b61012d6004803603604081101561010d57600080fd5b810190808035906020019092919080359060200190929190505050611196565b005b6101656004803603604081101561014557600080fd5b810190808035906020019092919080359060200190929190505050611a6b565b6040518082815260200191505060405180910390f35b6101bb6004803603606081101561019157600080fd5b81019080803590602001909291908035906020019092919080359060200190929190505050611a82565b005b6101c5611b5d565b6040518082815260200191505060405180910390f35b61021b600480360360608110156101f157600080fd5b81019080803590602001909291908035906020019092919080359060200190929190505050611b63565b6040518082815260200191505060405180910390f35b60008054906101000a900473ffffffffffffffffffffffffffffffffffffffff1673ffffffffffffffffffffffffffffffffffffffff163373ffffffffffffffffffffffffffffffffffffffff16146102f2576040517f08c379a000000000000000000000000000000000000000000000000000000000815260040180806020018281038252600a8152602001807f6f776e6572206f6e6c790000000000000000000000000000000000000000000081525060200191505060405180910390fd5b6000600560009054906101000a900473ffffffffffffffffffffffffffffffffffffffff1673ffffffffffffffffffffffffffffffffffffffff1663f946c207836040518263ffffffff1660e01b81526004018082815260200191505060206040518083038186803b15801561036757600080fd5b505afa15801561037b573d6000803e3d6000fd5b505050506040513d602081101561039157600080fd5b81019080805190602001909291905050509050600081610460600254600460009054906101000a900473ffffffffffffffffffffffffffffffffffffffff1673ffffffffffffffffffffffffffffffffffffffff166305b442ee876040518263ffffffff1660e01b81526004018082815260200191505060206040518083038186803b15801561042057600080fd5b505afa158015610434573d6000803e3d6000fd5b505050506040513d602081101561044a57600080fd5b8101908080519060200190929190505050611a6b565b8161046757fe5b0490506000600560009054906101000a900473ffffffffffffffffffffffffffffffffffffffff1673ffffffffffffffffffffffffffffffffffffffff166371aee94585600460009054906101000a900473ffffffffffffffffffffffffffffffffffffffff1673ffffffffffffffffffffffffffffffffffffffff1663bc26b101886040518263ffffffff1660e01b81526004018082815260200191505060206040518083038186803b15801561051e57600080fd5b505afa158015610532573d6000803e3d6000fd5b505050506040513d602081101561054857600080fd5b81019080805190602001909291905050506040518363ffffffff1660e01b8152600401808381526020018281526020019250505060206040518083038186803b15801561059457600080fd5b505afa1580156105a8573d6000803e3d6000fd5b505050506040513d60208110156105be57600080fd5b81019080805190602001909291905050509050600080600560009054906101000a900473ffffffffffffffffffffffffffffffffffffffff1673ffffffffffffffffffffffffffffffffffffffff166380559173876040518263ffffffff1660e01b81526004018082815260200191505060206040518083038186803b15801561064757600080fd5b505afa15801561065b573d6000803e3d6000fd5b505050506040513d602081101561067157600080fd5b81019080805190602001909291905050501115610753576000610743600354600560009054906101000a900473ffffffffffffffffffffffffffffffffffffffff1673ffffffffffffffffffffffffffffffffffffffff166380559173896040518263ffffffff1660e01b81526004018082815260200191505060206040518083038186803b15801561070357600080fd5b505afa158015610717573d6000803e3d6000fd5b505050506040513d602081101561072d57600080fd5b8101908080519060200190929190505050611a6b565b905084818161074e57fe5b049150505b6000805b838110156108db57600560009054906101000a900473ffffffffffffffffffffffffffffffffffffffff1673ffffffffffffffffffffffffffffffffffffffff1663859f0f6a88600460009054906101000a900473ffffffffffffffffffffffffffffffffffffffff1673ffffffffffffffffffffffffffffffffffffffff1663bc26b1018b6040518263ffffffff1660e01b81526004018082815260200191505060206040518083038186803b15801561081157600080fd5b505afa158015610825573d6000803e3d6000fd5b505050506040513d602081101561083b57600080fd5b8101908080519060200190929190505050846040518463ffffffff1660e01b815260040180848152602001838152602001828152602001935050505060206040518083038186803b15801561088f57600080fd5b505afa1580156108a3573d6000803e3d6000fd5b505050506040513d60208110156108b957600080fd5b8101908080519060200190929190505050820191508080600101915050610757565b5060008582816108e757fe5b04905060005b84811015611141576000600560009054906101000a900473ffffffffffffffffffffffffffffffffffffffff1673ffffffffffffffffffffffffffffffffffffffff1663859f0f6a8a600460009054906101000a900473ffffffffffffffffffffffffffffffffffffffff1673ffffffffffffffffffffffffffffffffffffffff1663bc26b1018d6040518263ffffffff1660e01b81526004018082815260200191505060206040518083038186803b1580156109a957600080fd5b505afa1580156109bd573d6000803e3d6000fd5b505050506040513d60208110156109d357600080fd5b8101908080519060200190929190505050856040518463ffffffff1660e01b815260040180848152602001838152602001828152602001935050505060206040518083038186803b158015610a2757600080fd5b505afa158015610a3b573d6000803e3d6000fd5b505050506040513d6020811015610a5157600080fd5b810190808051906020019092919050505090506000600560009054906101000a900473ffffffffffffffffffffffffffffffffffffffff1673ffffffffffffffffffffffffffffffffffffffff16637c997f678b600460009054906101000a900473ffffffffffffffffffffffffffffffffffffffff1673ffffffffffffffffffffffffffffffffffffffff1663bc26b1018e6040518263ffffffff1660e01b81526004018082815260200191505060206040518083038186803b158015610b1857600080fd5b505afa158015610b2c573d6000803e3d6000fd5b505050506040513d6020811015610b4257600080fd5b8101908080519060200190929190505050866040518463ffffffff1660e01b815260040180848152602001838152602001828152602001935050505060206040518083038186803b158015610b9657600080fd5b505afa158015610baa573d6000803e3d6000fd5b505050506040513d6020811015610bc057600080fd5b81019080805190602001909291905050509050600089610c8f600154600460009054906101000a900473ffffffffffffffffffffffffffffffffffffffff1673ffffffffffffffffffffffffffffffffffffffff166305b442ee8f6040518263ffffffff1660e01b81526004018082815260200191505060206040518083038186803b158015610c4f57600080fd5b505afa158015610c63573d6000803e3d6000fd5b505050506040513d6020811015610c7957600080fd5b8101908080519060200190929190505050611a6b565b81610c9657fe5b04858481610ca057fe5b04029050600660009054906101000a900473ffffffffffffffffffffffffffffffffffffffff1673ffffffffffffffffffffffffffffffffffffffff166340c10f1983836040518363ffffffff1660e01b8152600401808373ffffffffffffffffffffffffffffffffffffffff16815260200182815260200192505050602060405180830381600087803b158015610d3757600080fd5b505af1158015610d4b573d6000803e3d6000fd5b505050506040513d6020811015610d6157600080fd5b8101908080519060200190929190505050610de4576040517f08c379a000000000000000000000000000000000000000000000000000000000815260040180806020018281038252600c8152602001807f6d696e7420746f20706c6179000000000000000000000000000000000000000081525060200191505060405180910390fd5b600660009054906101000a900473ffffffffffffffffffffffffffffffffffffffff1673ffffffffffffffffffffffffffffffffffffffff1663c4076876838b888781610e2d57fe5b04026040518363ffffffff1660e01b8152600401808373ffffffffffffffffffffffffffffffffffffffff16815260200182815260200192505050602060405180830381600087803b158015610e8257600080fd5b505af1158015610e96573d6000803e3d6000fd5b505050506040513d6020811015610eac57600080fd5b8101908080519060200190929190505050610f2f576040517f08c379a000000000000000000000000000000000000000000000000000000000815260040180806020018281038252600b8152602001807f70617920746f20706c617900000000000000000000000000000000000000000081525060200191505060405180910390fd5b6000600560009054906101000a900473ffffffffffffffffffffffffffffffffffffffff1673ffffffffffffffffffffffffffffffffffffffff1663805591738d6040518263ffffffff1660e01b81526004018082815260200191505060206040518083038186803b158015610fa457600080fd5b505afa158015610fb8573d6000803e3d6000fd5b505050506040513d6020811015610fce57600080fd5b8101908080519060200190929190505050111561113157600660009054906101000a900473ffffffffffffffffffffffffffffffffffffffff1673ffffffffffffffffffffffffffffffffffffffff1663458a8079838988878161102e57fe5b04026040518363ffffffff1660e01b8152600401808373ffffffffffffffffffffffffffffffffffffffff16815260200182815260200192505050602060405180830381600087803b15801561108357600080fd5b505af1158015611097573d6000803e3d6000fd5b505050506040513d60208110156110ad57600080fd5b8101908080519060200190929190505050611130576040517f08c379a00000000000000000000000000000000000000000000000000000000081526004018080602001828103825260108152602001807f7072656d2070617920796f20706c61790000000000000000000000000000000081525060200191505060405180910390fd5b5b50505080806001019150506108ed565b507f271c965965750adf5e2b081f7d48aaff1e5e7bb06106cb088a9c8c94aa79b5e58782604051808381526020018281526020019250505060405180910390a150505050505050565b60035481565b60025481565b60008054906101000a900473ffffffffffffffffffffffffffffffffffffffff1673ffffffffffffffffffffffffffffffffffffffff163373ffffffffffffffffffffffffffffffffffffffff1614611257576040517f08c379a000000000000000000000000000000000000000000000000000000000815260040180806020018281038252600a8152602001807f6f776e6572206f6e6c790000000000000000000000000000000000000000000081525060200191505060405180910390fd5b6000611312600154600460009054906101000a900473ffffffffffffffffffffffffffffffffffffffff1673ffffffffffffffffffffffffffffffffffffffff16632c7d577e866040518263ffffffff1660e01b81526004018082815260200191505060206040518083038186803b1580156112d257600080fd5b505afa1580156112e6573d6000803e3d6000fd5b505050506040513d60208110156112fc57600080fd5b8101908080519060200190929190505050611a6b565b905060005b600560009054906101000a900473ffffffffffffffffffffffffffffffffffffffff1673ffffffffffffffffffffffffffffffffffffffff1663a96c2aea856040518263ffffffff1660e01b81526004018082815260200191505060206040518083038186803b15801561138a57600080fd5b505afa15801561139e573d6000803e3d6000fd5b505050506040513d60208110156113b457600080fd5b81019080805190602001909291905050508110156119a15780600460009054906101000a900473ffffffffffffffffffffffffffffffffffffffff1673ffffffffffffffffffffffffffffffffffffffff1663bc26b101866040518263ffffffff1660e01b81526004018082815260200191505060206040518083038186803b15801561144057600080fd5b505afa158015611454573d6000803e3d6000fd5b505050506040513d602081101561146a57600080fd5b81019080805190602001909291905050501415801561153f57506000600560009054906101000a900473ffffffffffffffffffffffffffffffffffffffff1673ffffffffffffffffffffffffffffffffffffffff166371aee94586846040518363ffffffff1660e01b8152600401808381526020018281526020019250505060206040518083038186803b15801561150157600080fd5b505afa158015611515573d6000803e3d6000fd5b505050506040513d602081101561152b57600080fd5b810190808051906020019092919050505014155b156119945760005b600560009054906101000a900473ffffffffffffffffffffffffffffffffffffffff1673ffffffffffffffffffffffffffffffffffffffff166371aee94586846040518363ffffffff1660e01b8152600401808381526020018281526020019250505060206040518083038186803b1580156115c257600080fd5b505afa1580156115d6573d6000803e3d6000fd5b505050506040513d60208110156115ec57600080fd5b8101908080519060200190929190505050811015611992576000600560009054906101000a900473ffffffffffffffffffffffffffffffffffffffff1673ffffffffffffffffffffffffffffffffffffffff1663f946c207876040518263ffffffff1660e01b81526004018082815260200191505060206040518083038186803b15801561167957600080fd5b505afa15801561168d573d6000803e3d6000fd5b505050506040513d60208110156116a357600080fd5b810190808051906020019092919050505084816116bc57fe5b0485600560009054906101000a900473ffffffffffffffffffffffffffffffffffffffff1673ffffffffffffffffffffffffffffffffffffffff1663859f0f6a8987876040518463ffffffff1660e01b815260040180848152602001838152602001828152602001935050505060206040518083038186803b15801561174157600080fd5b505afa158015611755573d6000803e3d6000fd5b505050506040513d602081101561176b57600080fd5b81019080805190602001909291905050508161178357fe5b04029050600660009054906101000a900473ffffffffffffffffffffffffffffffffffffffff1673ffffffffffffffffffffffffffffffffffffffff166340c10f19600560009054906101000a900473ffffffffffffffffffffffffffffffffffffffff1673ffffffffffffffffffffffffffffffffffffffff16637c997f678987876040518463ffffffff1660e01b815260040180848152602001838152602001828152602001935050505060206040518083038186803b15801561184857600080fd5b505afa15801561185c573d6000803e3d6000fd5b505050506040513d602081101561187257600080fd5b8101908080519060200190929190505050836040518363ffffffff1660e01b8152600401808373ffffffffffffffffffffffffffffffffffffffff16815260200182815260200192505050602060405180830381600087803b1580156118d757600080fd5b505af11580156118eb573d6000803e3d6000fd5b505050506040513d602081101561190157600080fd5b8101908080519060200190929190505050611984576040517f08c379a000000000000000000000000000000000000000000000000000000000815260040180806020018281038252600d8152602001807f70617920746f206c6f736572730000000000000000000000000000000000000081525060200191505060405180910390fd5b508080600101915050611547565b505b8080600101915050611317565b50600460009054906101000a900473ffffffffffffffffffffffffffffffffffffffff1673ffffffffffffffffffffffffffffffffffffffff16630583e6ee846040518263ffffffff1660e01b815260040180828152602001915050600060405180830381600087803b158015611a1757600080fd5b505af1158015611a2b573d6000803e3d6000fd5b505050507f25da44ba4726d9f695af444bfab7e7216cbb2a722298eb04083ad9f507a7c996836040518082815260200191505060405180910390a1505050565b6000606483830281611a7957fe5b04905092915050565b60008054906101000a900473ffffffffffffffffffffffffffffffffffffffff1673ffffffffffffffffffffffffffffffffffffffff163373ffffffffffffffffffffffffffffffffffffffff1614611b43576040517f08c379a000000000000000000000000000000000000000000000000000000000815260040180806020018281038252600a8152602001807f6f776e6572206f6e6c790000000000000000000000000000000000000000000081525060200191505060405180910390fd5b826001819055508160028190555080600381905550505050565b60015481565b6000808460640390506000858581611b7757fe5b0490506127108483888402020281611b8b57fe5b0492505050939250505056fea2646970667358221220bcabad837923ac06096cbd2f0d21f55fa371994c4c061df42cf05ff6322d8e0d64736f6c63430007060033",
  "immutableReferences": {},
  "source": "// SPDX-License-Identifier: MIT\npragma solidity >=0.4.22 <0.9.0;\nimport {PubStruct} from \"../../struct/PubStruct.sol\";\nimport {MPStruct} from \"../../struct/MPStruct.sol\";\nimport {Libs} from \"./Libs.sol\";\nimport {PPConfig} from \"../../config/PPConfig.sol\";\nimport {PublicEvents} from \"./PublicEvents.sol\";\n \ncontract PlayerPayment is Libs, PPConfig {\n    event payToLosers(int id, uint avarageBet);\n    event eventFinish(int id);\n    MPStruct mpData;\n    PubStruct eventsData;\n    PublicEvents PublicAddr;\n\n    constructor(PublicEvents _addr, address _mpAddr) {\n        PublicAddr = _addr;\n        eventsData = PubStruct(_addr);\n        mpData = MPStruct(_mpAddr);\n    }\n\n   function letsPayToPlayers(int _id) public {\n        require(msg.sender == owner, \"owner only\");\n        uint activePlay = eventsData.getActivePlayers(_id);\n        uint winPool = getPercent(playersPers, mpData.getLoserPool(_id)) / activePlay;\n        uint rightPlay = eventsData.getPlayerAmount(_id, mpData.getCorrectAnswer(_id));\n\n        uint premimWin;\n        if (eventsData.getPremiumAmount(_id) > 0) {\n            uint premiumToken = getPercent(playersPersPremiun, eventsData.getPremiumAmount(_id));\n            premimWin = premiumToken / activePlay;\n        }\n        uint betAmount = 0;\n\n        for ( uint i = 0; i < rightPlay; i++ ) {\n            betAmount = betAmount + eventsData.getPlayerTokens(_id, mpData.getCorrectAnswer(_id), i);\n        }\n\n        uint avarageBet = betAmount / activePlay;\n\n        for ( uint i = 0; i < rightPlay; i++ ) {\n            // mint token to users\n            uint userBet = eventsData.getPlayerTokens(_id, mpData.getCorrectAnswer(_id), i);\n            address payable userWallet = eventsData.getPlayerWallet(_id, mpData.getCorrectAnswer(_id), i);\n            uint mintWin = (userBet / avarageBet) * (getPercent(playersPersMint, mpData.getLoserPool(_id)) / activePlay);\n            // TODO pay to referers\n            require(\n                PublicAddr.mint(userWallet, mintWin),\n                \"mint to play\"\n            );\n            // pay tokens to users\n            require(\n                PublicAddr.pay(userWallet, (userBet / avarageBet) * winPool),\n                \"pay to play\"\n            );\n            if (eventsData.getPremiumAmount(_id) > 0) {\n                // pay premium tokens to user\n                require(\n                    PublicAddr.payBTY(userWallet, (userBet / avarageBet) * premimWin),\n                    \"prem pay yo play\"\n                );\n            }\n        }\n        emit payToLosers(_id, avarageBet);\n    }\n\n    function letsPayToLoosers(\n        int _id,\n        uint _avarageBet\n    ) public {\n        require(msg.sender == owner, \"owner only\");\n        uint mintedTokens = getPercent(playersPersMint, mpData.getTokenMinted(_id));\n        for (uint i = 0; i < eventsData.getQuestAmount(_id); i++) {\n            if (mpData.getCorrectAnswer(_id) != i && eventsData.getPlayerAmount(_id, i) != 0) {\n                for (uint z = 0; z < eventsData.getPlayerAmount(_id, i); z++) {\n                    uint mintLost = (eventsData.getPlayerTokens(_id, i, z) / _avarageBet) * (mintedTokens / eventsData.getActivePlayers(_id));\n                    require(PublicAddr.mint(eventsData.getPlayerWallet(_id, i, z), mintLost), \"pay to losers\");\n                }\n            }\n        }\n        mpData.setFinishEvent(_id);\n        emit eventFinish(\n            _id\n        );\n    }\n}    ",
  "sourcePath": "/Users/macbook/Documents/freelance/tokenominc/contracts/events/PublicEvents/PlayerPayment.sol",
  "compiler": {
    "name": "solc",
    "version": "0.7.6+commit.7338295f.Linux.g++"
  },
  "schemaVersion": "3.3.4",
  "updatedAt": "2021-03-12T17:33:53.600Z",
  "devdoc": {
    "kind": "dev",
    "methods": {},
    "version": 1
  },
  "userdoc": {
    "kind": "user",
    "methods": {},
    "version": 1
  }
}