{
  "contractName": "PlayerPayment",
  "abi": [
    {
      "inputs": [
        {
          "internalType": "contract PublicEvents",
          "name": "_addr",
          "type": "address"
        },
        {
          "internalType": "address",
          "name": "_mpAddr",
          "type": "address"
        }
      ],
      "stateMutability": "nonpayable",
      "type": "constructor"
    },
    {
      "anonymous": false,
      "inputs": [
        {
          "indexed": false,
          "internalType": "int256",
          "name": "id",
          "type": "int256"
        }
      ],
      "name": "eventFinish",
      "type": "event"
    },
    {
      "anonymous": false,
      "inputs": [
        {
          "indexed": false,
          "internalType": "int256",
          "name": "id",
          "type": "int256"
        },
        {
          "indexed": false,
          "internalType": "uint256",
          "name": "avarageBet",
          "type": "uint256"
        },
        {
          "indexed": false,
          "internalType": "uint256",
          "name": "calcMintedToken",
          "type": "uint256"
        }
      ],
      "name": "payToLosers",
      "type": "event"
    },
    {
      "anonymous": false,
      "inputs": [
        {
          "indexed": false,
          "internalType": "int256",
          "name": "id",
          "type": "int256"
        }
      ],
      "name": "payToRefferers",
      "type": "event"
    },
    {
      "inputs": [
        {
          "internalType": "uint256",
          "name": "_GFindex",
          "type": "uint256"
        },
        {
          "internalType": "int256",
          "name": "_id",
          "type": "int256"
        },
        {
          "internalType": "contract PubStruct",
          "name": "eventsData",
          "type": "address"
        }
      ],
      "name": "calcMintedTokens",
      "outputs": [
        {
          "internalType": "uint256",
          "name": "",
          "type": "uint256"
        }
      ],
      "stateMutability": "view",
      "type": "function"
    },
    {
      "inputs": [],
      "name": "firstRefer",
      "outputs": [
        {
          "internalType": "uint256",
          "name": "",
          "type": "uint256"
        }
      ],
      "stateMutability": "view",
      "type": "function"
    },
    {
      "inputs": [
        {
          "internalType": "uint256",
          "name": "_percent",
          "type": "uint256"
        },
        {
          "internalType": "uint256",
          "name": "_from",
          "type": "uint256"
        }
      ],
      "name": "getPercent",
      "outputs": [
        {
          "internalType": "uint256",
          "name": "",
          "type": "uint256"
        }
      ],
      "stateMutability": "pure",
      "type": "function"
    },
    {
      "inputs": [],
      "name": "playersPers",
      "outputs": [
        {
          "internalType": "uint256",
          "name": "",
          "type": "uint256"
        }
      ],
      "stateMutability": "view",
      "type": "function"
    },
    {
      "inputs": [],
      "name": "playersPersMint",
      "outputs": [
        {
          "internalType": "uint256",
          "name": "",
          "type": "uint256"
        }
      ],
      "stateMutability": "view",
      "type": "function"
    },
    {
      "inputs": [],
      "name": "playersPersPremiun",
      "outputs": [
        {
          "internalType": "uint256",
          "name": "",
          "type": "uint256"
        }
      ],
      "stateMutability": "view",
      "type": "function"
    },
    {
      "inputs": [],
      "name": "secontRefer",
      "outputs": [
        {
          "internalType": "uint256",
          "name": "",
          "type": "uint256"
        }
      ],
      "stateMutability": "view",
      "type": "function"
    },
    {
      "inputs": [
        {
          "internalType": "address",
          "name": "_fake",
          "type": "address"
        }
      ],
      "name": "setFakeAddr",
      "outputs": [],
      "stateMutability": "nonpayable",
      "type": "function"
    },
    {
      "inputs": [
        {
          "internalType": "uint256",
          "name": "_playersPersMint",
          "type": "uint256"
        },
        {
          "internalType": "uint256",
          "name": "_playersPers",
          "type": "uint256"
        },
        {
          "internalType": "uint256",
          "name": "_playersPersPremiun",
          "type": "uint256"
        }
      ],
      "name": "setPlayerPercMint",
      "outputs": [],
      "stateMutability": "nonpayable",
      "type": "function"
    },
    {
      "inputs": [
        {
          "internalType": "uint256",
          "name": "_firstRefer",
          "type": "uint256"
        },
        {
          "internalType": "uint256",
          "name": "_secontRefer",
          "type": "uint256"
        },
        {
          "internalType": "uint256",
          "name": "_thirdRefer",
          "type": "uint256"
        }
      ],
      "name": "setReferrersPerc",
      "outputs": [],
      "stateMutability": "nonpayable",
      "type": "function"
    },
    {
      "inputs": [],
      "name": "thirdRefer",
      "outputs": [
        {
          "internalType": "uint256",
          "name": "",
          "type": "uint256"
        }
      ],
      "stateMutability": "view",
      "type": "function"
    },
    {
      "inputs": [
        {
          "internalType": "int256",
          "name": "_id",
          "type": "int256"
        }
      ],
      "name": "letsPayToPlayers",
      "outputs": [],
      "stateMutability": "nonpayable",
      "type": "function"
    },
    {
      "inputs": [
        {
          "internalType": "int256",
          "name": "_id",
          "type": "int256"
        },
        {
          "internalType": "uint256",
          "name": "_avarageBet",
          "type": "uint256"
        },
        {
          "internalType": "uint256",
          "name": "_calcMintedToken",
          "type": "uint256"
        }
      ],
      "name": "letsPayToLoosers",
      "outputs": [],
      "stateMutability": "nonpayable",
      "type": "function"
    },
    {
      "inputs": [
        {
          "internalType": "int256",
          "name": "_id",
          "type": "int256"
        },
        {
          "internalType": "address payable[]",
          "name": "_ref1",
          "type": "address[]"
        },
        {
          "internalType": "uint256[]",
          "name": "_amount1",
          "type": "uint256[]"
        },
        {
          "internalType": "address payable[]",
          "name": "_ref2",
          "type": "address[]"
        },
        {
          "internalType": "uint256[]",
          "name": "_amount2",
          "type": "uint256[]"
        },
        {
          "internalType": "address payable[]",
          "name": "_ref3",
          "type": "address[]"
        },
        {
          "internalType": "uint256[]",
          "name": "_amount3",
          "type": "uint256[]"
        }
      ],
      "name": "payToReff",
      "outputs": [],
      "stateMutability": "nonpayable",
      "type": "function"
    },
    {
      "inputs": [
        {
          "internalType": "int256",
          "name": "_id",
          "type": "int256"
        },
        {
          "internalType": "uint256",
          "name": "_amount",
          "type": "uint256"
        }
      ],
      "name": "payRefToComp",
      "outputs": [],
      "stateMutability": "nonpayable",
      "type": "function"
    }
  ],
  "bytecode": "0x60806040526032600155605a600255604b60035560048055600460055560026006557345e505a6e7e367288dc1796dffda0a68fb29cb0f600760006101000a81548173ffffffffffffffffffffffffffffffffffffffff021916908373ffffffffffffffffffffffffffffffffffffffff16021790555034801561008257600080fd5b506040516131e23803806131e2833981810160405260408110156100a557600080fd5b810190808051906020019092919080519060200190929190505050336000806101000a81548173ffffffffffffffffffffffffffffffffffffffff021916908373ffffffffffffffffffffffffffffffffffffffff16021790555081600a60006101000a81548173ffffffffffffffffffffffffffffffffffffffff021916908373ffffffffffffffffffffffffffffffffffffffff16021790555081600960006101000a81548173ffffffffffffffffffffffffffffffffffffffff021916908373ffffffffffffffffffffffffffffffffffffffff16021790555080600860006101000a81548173ffffffffffffffffffffffffffffffffffffffff021916908373ffffffffffffffffffffffffffffffffffffffff160217905550505061300e806101d46000396000f3fe608060405234801561001057600080fd5b50600436106100f55760003560e01c806372ca8e061161009757806393494baa1161006657806393494baa14610678578063b8a8eedb146106ba578063bd17ea48146106f2578063de6eb43914610710576100f5565b806372ca8e06146105da57806372d6417a1461061e57806373e258ac1461063c57806379fdb1681461065a576100f5565b806327e53717116100d357806327e53717146104ec578063431e89e11461050a578063622198661461054c57806367e2a21b14610598576100f5565b80630129f278146100fa578063134c3b0714610128578063237b2d4d14610146575b600080fd5b6101266004803603602081101561011057600080fd5b810190808035906020019092919050505061077c565b005b610130610da7565b6040518082815260200191505060405180910390f35b6104ea600480360360e081101561015c57600080fd5b81019080803590602001909291908035906020019064010000000081111561018357600080fd5b82018360208201111561019557600080fd5b803590602001918460208302840111640100000000831117156101b757600080fd5b919080806020026020016040519081016040528093929190818152602001838360200280828437600081840152601f19601f8201169050808301925050505050505091929192908035906020019064010000000081111561021757600080fd5b82018360208201111561022957600080fd5b8035906020019184602083028401116401000000008311171561024b57600080fd5b919080806020026020016040519081016040528093929190818152602001838360200280828437600081840152601f19601f820116905080830192505050505050509192919290803590602001906401000000008111156102ab57600080fd5b8201836020820111156102bd57600080fd5b803590602001918460208302840111640100000000831117156102df57600080fd5b919080806020026020016040519081016040528093929190818152602001838360200280828437600081840152601f19601f8201169050808301925050505050505091929192908035906020019064010000000081111561033f57600080fd5b82018360208201111561035157600080fd5b8035906020019184602083028401116401000000008311171561037357600080fd5b919080806020026020016040519081016040528093929190818152602001838360200280828437600081840152601f19601f820116905080830192505050505050509192919290803590602001906401000000008111156103d357600080fd5b8201836020820111156103e557600080fd5b8035906020019184602083028401116401000000008311171561040757600080fd5b919080806020026020016040519081016040528093929190818152602001838360200280828437600081840152601f19601f8201169050808301925050505050505091929192908035906020019064010000000081111561046757600080fd5b82018360208201111561047957600080fd5b8035906020019184602083028401116401000000008311171561049b57600080fd5b919080806020026020016040519081016040528093929190818152602001838360200280828437600081840152601f19601f820116905080830192505050505050509192919290505050610dad565b005b6104f461148f565b6040518082815260200191505060405180910390f35b61054a6004803603606081101561052057600080fd5b81019080803590602001909291908035906020019092919080359060200190929190505050611495565b005b6105826004803603604081101561056257600080fd5b810190808035906020019092919080359060200190929190505050611570565b6040518082815260200191505060405180910390f35b6105d8600480360360608110156105ae57600080fd5b81019080803590602001909291908035906020019092919080359060200190929190505050611587565b005b61061c600480360360208110156105f057600080fd5b81019080803573ffffffffffffffffffffffffffffffffffffffff169060200190929190505050611d12565b005b610626611e17565b6040518082815260200191505060405180910390f35b610644611e1d565b6040518082815260200191505060405180910390f35b610662611e23565b6040518082815260200191505060405180910390f35b6106b86004803603606081101561068e57600080fd5b81019080803590602001909291908035906020019092919080359060200190929190505050611e29565b005b6106f0600480360360408110156106d057600080fd5b810190808035906020019092919080359060200190929190505050611f04565b005b6106fa6121ed565b6040518082815260200191505060405180910390f35b6107666004803603606081101561072657600080fd5b810190808035906020019092919080359060200190929190803573ffffffffffffffffffffffffffffffffffffffff1690602001909291905050506121f3565b6040518082815260200191505060405180910390f35b60008054906101000a900473ffffffffffffffffffffffffffffffffffffffff1673ffffffffffffffffffffffffffffffffffffffff163373ffffffffffffffffffffffffffffffffffffffff161461083d576040517f08c379a000000000000000000000000000000000000000000000000000000000815260040180806020018281038252600a8152602001807f6f776e6572206f6e6c790000000000000000000000000000000000000000000081525060200191505060405180910390fd5b6000600960009054906101000a900473ffffffffffffffffffffffffffffffffffffffff1673ffffffffffffffffffffffffffffffffffffffff1663f946c207836040518263ffffffff1660e01b81526004018082815260200191505060206040518083038186803b1580156108b257600080fd5b505afa1580156108c6573d6000803e3d6000fd5b505050506040513d60208110156108dc57600080fd5b810190808051906020019092919050505090506000600960009054906101000a900473ffffffffffffffffffffffffffffffffffffffff1673ffffffffffffffffffffffffffffffffffffffff166371aee94584600860009054906101000a900473ffffffffffffffffffffffffffffffffffffffff1673ffffffffffffffffffffffffffffffffffffffff1663bc26b101876040518263ffffffff1660e01b81526004018082815260200191505060206040518083038186803b1580156109a357600080fd5b505afa1580156109b7573d6000803e3d6000fd5b505050506040513d60208110156109cd57600080fd5b81019080805190602001909291905050506040518363ffffffff1660e01b8152600401808381526020018281526020019250505060206040518083038186803b158015610a1957600080fd5b505afa158015610a2d573d6000803e3d6000fd5b505050506040513d6020811015610a4357600080fd5b81019080805190602001909291905050509050600081610b12600254600860009054906101000a900473ffffffffffffffffffffffffffffffffffffffff1673ffffffffffffffffffffffffffffffffffffffff166305b442ee886040518263ffffffff1660e01b81526004018082815260200191505060206040518083038186803b158015610ad257600080fd5b505afa158015610ae6573d6000803e3d6000fd5b505050506040513d6020811015610afc57600080fd5b8101908080519060200190929190505050611570565b81610b1957fe5b0490506000610b288584612650565b90506000805b84811015610cb257600960009054906101000a900473ffffffffffffffffffffffffffffffffffffffff1673ffffffffffffffffffffffffffffffffffffffff1663859f0f6a88600860009054906101000a900473ffffffffffffffffffffffffffffffffffffffff1673ffffffffffffffffffffffffffffffffffffffff1663bc26b1018b6040518263ffffffff1660e01b81526004018082815260200191505060206040518083038186803b158015610be857600080fd5b505afa158015610bfc573d6000803e3d6000fd5b505050506040513d6020811015610c1257600080fd5b8101908080519060200190929190505050846040518463ffffffff1660e01b815260040180848152602001838152602001828152602001935050505060206040518083038186803b158015610c6657600080fd5b505afa158015610c7a573d6000803e3d6000fd5b505050506040513d6020811015610c9057600080fd5b8101908080519060200190929190505050820191508080600101915050610b2e565b506000858281610cbe57fe5b0490506000858381610ccc57fe5b0490506000610d8a600154600860009054906101000a900473ffffffffffffffffffffffffffffffffffffffff1673ffffffffffffffffffffffffffffffffffffffff166305b442ee8c6040518263ffffffff1660e01b81526004018082815260200191505060206040518083038186803b158015610d4a57600080fd5b505afa158015610d5e573d6000803e3d6000fd5b505050506040513d6020811015610d7457600080fd5b8101908080519060200190929190505050611570565b9050610d9c898885848c878c8c6127e1565b505050505050505050565b60035481565b60008054906101000a900473ffffffffffffffffffffffffffffffffffffffff1673ffffffffffffffffffffffffffffffffffffffff163373ffffffffffffffffffffffffffffffffffffffff1614610e6e576040517f08c379a000000000000000000000000000000000000000000000000000000000815260040180806020018281038252600a8152602001807f6f776e6572206f6e6c790000000000000000000000000000000000000000000081525060200191505060405180910390fd5b60005b8651811015610fed57600a60009054906101000a900473ffffffffffffffffffffffffffffffffffffffff1673ffffffffffffffffffffffffffffffffffffffff166340c10f19888381518110610ec457fe5b6020026020010151888481518110610ed857fe5b60200260200101516040518363ffffffff1660e01b8152600401808373ffffffffffffffffffffffffffffffffffffffff16815260200182815260200192505050602060405180830381600087803b158015610f3357600080fd5b505af1158015610f47573d6000803e3d6000fd5b505050506040513d6020811015610f5d57600080fd5b8101908080519060200190929190505050610fe0576040517f08c379a00000000000000000000000000000000000000000000000000000000081526004018080602001828103825260098152602001807f6d696e742072656631000000000000000000000000000000000000000000000081525060200191505060405180910390fd5b8080600101915050610e71565b50600760009054906101000a900473ffffffffffffffffffffffffffffffffffffffff1673ffffffffffffffffffffffffffffffffffffffff168460008151811061103457fe5b602002602001015173ffffffffffffffffffffffffffffffffffffffff16146113c25760005b84518110156111d657600a60009054906101000a900473ffffffffffffffffffffffffffffffffffffffff1673ffffffffffffffffffffffffffffffffffffffff166340c10f198683815181106110ad57fe5b60200260200101518684815181106110c157fe5b60200260200101516040518363ffffffff1660e01b8152600401808373ffffffffffffffffffffffffffffffffffffffff16815260200182815260200192505050602060405180830381600087803b15801561111c57600080fd5b505af1158015611130573d6000803e3d6000fd5b505050506040513d602081101561114657600080fd5b81019080805190602001909291905050506111c9576040517f08c379a00000000000000000000000000000000000000000000000000000000081526004018080602001828103825260098152602001807f6d696e742072656632000000000000000000000000000000000000000000000081525060200191505060405180910390fd5b808060010191505061105a565b50600760009054906101000a900473ffffffffffffffffffffffffffffffffffffffff1673ffffffffffffffffffffffffffffffffffffffff168260008151811061121d57fe5b602002602001015173ffffffffffffffffffffffffffffffffffffffff16146113c15760005b82518110156113bf57600a60009054906101000a900473ffffffffffffffffffffffffffffffffffffffff1673ffffffffffffffffffffffffffffffffffffffff166340c10f1984838151811061129657fe5b60200260200101518484815181106112aa57fe5b60200260200101516040518363ffffffff1660e01b8152600401808373ffffffffffffffffffffffffffffffffffffffff16815260200182815260200192505050602060405180830381600087803b15801561130557600080fd5b505af1158015611319573d6000803e3d6000fd5b505050506040513d602081101561132f57600080fd5b81019080805190602001909291905050506113b2576040517f08c379a00000000000000000000000000000000000000000000000000000000081526004018080602001828103825260098152602001807f6d696e742072656632000000000000000000000000000000000000000000000081525060200191505060405180910390fd5b8080600101915050611243565b505b5b600860009054906101000a900473ffffffffffffffffffffffffffffffffffffffff1673ffffffffffffffffffffffffffffffffffffffff16630583e6ee886040518263ffffffff1660e01b815260040180828152602001915050600060405180830381600087803b15801561143757600080fd5b505af115801561144b573d6000803e3d6000fd5b505050507f25da44ba4726d9f695af444bfab7e7216cbb2a722298eb04083ad9f507a7c996876040518082815260200191505060405180910390a150505050505050565b60025481565b60008054906101000a900473ffffffffffffffffffffffffffffffffffffffff1673ffffffffffffffffffffffffffffffffffffffff163373ffffffffffffffffffffffffffffffffffffffff1614611556576040517f08c379a000000000000000000000000000000000000000000000000000000000815260040180806020018281038252600a8152602001807f6f776e6572206f6e6c790000000000000000000000000000000000000000000081525060200191505060405180910390fd5b826004819055508160058190555080600681905550505050565b600060648383028161157e57fe5b04905092915050565b60008054906101000a900473ffffffffffffffffffffffffffffffffffffffff1673ffffffffffffffffffffffffffffffffffffffff163373ffffffffffffffffffffffffffffffffffffffff1614611648576040517f08c379a000000000000000000000000000000000000000000000000000000000815260040180806020018281038252600a8152602001807f6f776e6572206f6e6c790000000000000000000000000000000000000000000081525060200191505060405180910390fd5b60005b600960009054906101000a900473ffffffffffffffffffffffffffffffffffffffff1673ffffffffffffffffffffffffffffffffffffffff1663a96c2aea856040518263ffffffff1660e01b81526004018082815260200191505060206040518083038186803b1580156116be57600080fd5b505afa1580156116d2573d6000803e3d6000fd5b505050506040513d60208110156116e857600080fd5b8101908080519060200190929190505050811015611cd55780600860009054906101000a900473ffffffffffffffffffffffffffffffffffffffff1673ffffffffffffffffffffffffffffffffffffffff1663bc26b101866040518263ffffffff1660e01b81526004018082815260200191505060206040518083038186803b15801561177457600080fd5b505afa158015611788573d6000803e3d6000fd5b505050506040513d602081101561179e57600080fd5b81019080805190602001909291905050501415801561187357506000600960009054906101000a900473ffffffffffffffffffffffffffffffffffffffff1673ffffffffffffffffffffffffffffffffffffffff166371aee94586846040518363ffffffff1660e01b8152600401808381526020018281526020019250505060206040518083038186803b15801561183557600080fd5b505afa158015611849573d6000803e3d6000fd5b505050506040513d602081101561185f57600080fd5b810190808051906020019092919050505014155b15611cc85760005b600960009054906101000a900473ffffffffffffffffffffffffffffffffffffffff1673ffffffffffffffffffffffffffffffffffffffff166371aee94586846040518363ffffffff1660e01b8152600401808381526020018281526020019250505060206040518083038186803b1580156118f657600080fd5b505afa15801561190a573d6000803e3d6000fd5b505050506040513d602081101561192057600080fd5b8101908080519060200190929190505050811015611cc6576000600960009054906101000a900473ffffffffffffffffffffffffffffffffffffffff1673ffffffffffffffffffffffffffffffffffffffff1663f946c207876040518263ffffffff1660e01b81526004018082815260200191505060206040518083038186803b1580156119ad57600080fd5b505afa1580156119c1573d6000803e3d6000fd5b505050506040513d60208110156119d757600080fd5b810190808051906020019092919050505084816119f057fe5b0485600960009054906101000a900473ffffffffffffffffffffffffffffffffffffffff1673ffffffffffffffffffffffffffffffffffffffff1663859f0f6a8987876040518463ffffffff1660e01b815260040180848152602001838152602001828152602001935050505060206040518083038186803b158015611a7557600080fd5b505afa158015611a89573d6000803e3d6000fd5b505050506040513d6020811015611a9f57600080fd5b810190808051906020019092919050505081611ab757fe5b04029050600a60009054906101000a900473ffffffffffffffffffffffffffffffffffffffff1673ffffffffffffffffffffffffffffffffffffffff166340c10f19600960009054906101000a900473ffffffffffffffffffffffffffffffffffffffff1673ffffffffffffffffffffffffffffffffffffffff16637c997f678987876040518463ffffffff1660e01b815260040180848152602001838152602001828152602001935050505060206040518083038186803b158015611b7c57600080fd5b505afa158015611b90573d6000803e3d6000fd5b505050506040513d6020811015611ba657600080fd5b8101908080519060200190929190505050836040518363ffffffff1660e01b8152600401808373ffffffffffffffffffffffffffffffffffffffff16815260200182815260200192505050602060405180830381600087803b158015611c0b57600080fd5b505af1158015611c1f573d6000803e3d6000fd5b505050506040513d6020811015611c3557600080fd5b8101908080519060200190929190505050611cb8576040517f08c379a000000000000000000000000000000000000000000000000000000000815260040180806020018281038252600d8152602001807f70617920746f206c6f736572730000000000000000000000000000000000000081525060200191505060405180910390fd5b50808060010191505061187b565b505b808060010191505061164b565b507f64c3aa83886a5aedbc17fdd025481bdd45090d3af68e72f3dd4e3f17385122ff836040518082815260200191505060405180910390a1505050565b60008054906101000a900473ffffffffffffffffffffffffffffffffffffffff1673ffffffffffffffffffffffffffffffffffffffff163373ffffffffffffffffffffffffffffffffffffffff1614611dd3576040517f08c379a000000000000000000000000000000000000000000000000000000000815260040180806020018281038252600a8152602001807f6f776e6572206f6e6c790000000000000000000000000000000000000000000081525060200191505060405180910390fd5b80600760006101000a81548173ffffffffffffffffffffffffffffffffffffffff021916908373ffffffffffffffffffffffffffffffffffffffff16021790555050565b60055481565b60015481565b60045481565b60008054906101000a900473ffffffffffffffffffffffffffffffffffffffff1673ffffffffffffffffffffffffffffffffffffffff163373ffffffffffffffffffffffffffffffffffffffff1614611eea576040517f08c379a000000000000000000000000000000000000000000000000000000000815260040180806020018281038252600a8152602001807f6f776e6572206f6e6c790000000000000000000000000000000000000000000081525060200191505060405180910390fd5b826001819055508160028190555080600381905550505050565b60008054906101000a900473ffffffffffffffffffffffffffffffffffffffff1673ffffffffffffffffffffffffffffffffffffffff163373ffffffffffffffffffffffffffffffffffffffff1614611fc5576040517f08c379a000000000000000000000000000000000000000000000000000000000815260040180806020018281038252600a8152602001807f6f776e6572206f6e6c790000000000000000000000000000000000000000000081525060200191505060405180910390fd5b600a60009054906101000a900473ffffffffffffffffffffffffffffffffffffffff1673ffffffffffffffffffffffffffffffffffffffff166340c10f1960008054906101000a900473ffffffffffffffffffffffffffffffffffffffff16836040518363ffffffff1660e01b8152600401808373ffffffffffffffffffffffffffffffffffffffff16815260200182815260200192505050602060405180830381600087803b15801561207857600080fd5b505af115801561208c573d6000803e3d6000fd5b505050506040513d60208110156120a257600080fd5b8101908080519060200190929190505050612125576040517f08c379a00000000000000000000000000000000000000000000000000000000081526004018080602001828103825260148152602001807f6d696e7420726566416c6c20746f206f776e657200000000000000000000000081525060200191505060405180910390fd5b600860009054906101000a900473ffffffffffffffffffffffffffffffffffffffff1673ffffffffffffffffffffffffffffffffffffffff16630583e6ee836040518263ffffffff1660e01b815260040180828152602001915050600060405180830381600087803b15801561219a57600080fd5b505af11580156121ae573d6000803e3d6000fd5b505050507f25da44ba4726d9f695af444bfab7e7216cbb2a722298eb04083ad9f507a7c996826040518082815260200191505060405180910390a15050565b60065481565b600080600090506000805b8473ffffffffffffffffffffffffffffffffffffffff1663a96c2aea876040518263ffffffff1660e01b81526004018082815260200191505060206040518083038186803b15801561224f57600080fd5b505afa158015612263573d6000803e3d6000fd5b505050506040513d602081101561227957600080fd5b810190808051906020019092919050505081101561247757828573ffffffffffffffffffffffffffffffffffffffff166371aee94588846040518363ffffffff1660e01b8152600401808381526020018281526020019250505060206040518083038186803b1580156122eb57600080fd5b505afa1580156122ff573d6000803e3d6000fd5b505050506040513d602081101561231557600080fd5b810190808051906020019092919050505011156123ca578291508473ffffffffffffffffffffffffffffffffffffffff166371aee94587836040518363ffffffff1660e01b8152600401808381526020018281526020019250505060206040518083038186803b15801561238857600080fd5b505afa15801561239c573d6000803e3d6000fd5b505050506040513d60208110156123b257600080fd5b8101908080519060200190929190505050925061246a565b818573ffffffffffffffffffffffffffffffffffffffff166371aee94588846040518363ffffffff1660e01b8152600401808381526020018281526020019250505060206040518083038186803b15801561242457600080fd5b505afa158015612438573d6000803e3d6000fd5b505050506040513d602081101561244e57600080fd5b81019080805190602001909291905050501115612469578291505b5b80806001019150506121fe565b506000828201606403905060008573ffffffffffffffffffffffffffffffffffffffff1663f946c207886040518263ffffffff1660e01b81526004018082815260200191505060206040518083038186803b1580156124d557600080fd5b505afa1580156124e9573d6000803e3d6000fd5b505050506040513d60208110156124ff57600080fd5b81019080805190602001909291905050508673ffffffffffffffffffffffffffffffffffffffff166330286c37896040518263ffffffff1660e01b81526004018082815260200191505060206040518083038186803b15801561256157600080fd5b505afa158015612575573d6000803e3d6000fd5b505050506040513d602081101561258b57600080fd5b8101908080519060200190929190505050816125a357fe5b04905061271088838873ffffffffffffffffffffffffffffffffffffffff1663f946c2078b6040518263ffffffff1660e01b81526004018082815260200191505060206040518083038186803b1580156125fc57600080fd5b505afa158015612610573d6000803e3d6000fd5b505050506040513d602081101561262657600080fd5b8101908080519060200190929190505050840202028161264257fe5b049450505050509392505050565b600080600960009054906101000a900473ffffffffffffffffffffffffffffffffffffffff1673ffffffffffffffffffffffffffffffffffffffff166380559173856040518263ffffffff1660e01b81526004018082815260200191505060206040518083038186803b1580156126c657600080fd5b505afa1580156126da573d6000803e3d6000fd5b505050506040513d60208110156126f057600080fd5b810190808051906020019092919050505011156127d65760006127c2600354600960009054906101000a900473ffffffffffffffffffffffffffffffffffffffff1673ffffffffffffffffffffffffffffffffffffffff166380559173876040518263ffffffff1660e01b81526004018082815260200191505060206040518083038186803b15801561278257600080fd5b505afa158015612796573d6000803e3d6000fd5b505050506040513d60208110156127ac57600080fd5b8101908080519060200190929190505050611570565b90508281816127cd57fe5b049150506127db565b600090505b92915050565b60005b87811015612f86576000600960009054906101000a900473ffffffffffffffffffffffffffffffffffffffff1673ffffffffffffffffffffffffffffffffffffffff1663859f0f6a8b600860009054906101000a900473ffffffffffffffffffffffffffffffffffffffff1673ffffffffffffffffffffffffffffffffffffffff1663bc26b1018e6040518263ffffffff1660e01b81526004018082815260200191505060206040518083038186803b1580156128a057600080fd5b505afa1580156128b4573d6000803e3d6000fd5b505050506040513d60208110156128ca57600080fd5b8101908080519060200190929190505050856040518463ffffffff1660e01b815260040180848152602001838152602001828152602001935050505060206040518083038186803b15801561291e57600080fd5b505afa158015612932573d6000803e3d6000fd5b505050506040513d602081101561294857600080fd5b810190808051906020019092919050505090506000600960009054906101000a900473ffffffffffffffffffffffffffffffffffffffff1673ffffffffffffffffffffffffffffffffffffffff16637c997f678c600860009054906101000a900473ffffffffffffffffffffffffffffffffffffffff1673ffffffffffffffffffffffffffffffffffffffff1663bc26b1018f6040518263ffffffff1660e01b81526004018082815260200191505060206040518083038186803b158015612a0f57600080fd5b505afa158015612a23573d6000803e3d6000fd5b505050506040513d6020811015612a3957600080fd5b8101908080519060200190929190505050866040518463ffffffff1660e01b815260040180848152602001838152602001828152602001935050505060206040518083038186803b158015612a8d57600080fd5b505afa158015612aa1573d6000803e3d6000fd5b505050506040513d6020811015612ab757600080fd5b81019080805190602001909291905050509050600a60009054906101000a900473ffffffffffffffffffffffffffffffffffffffff1673ffffffffffffffffffffffffffffffffffffffff166340c10f1982898b81612b1257fe5b048c8681612b1c57fe5b04026040518363ffffffff1660e01b8152600401808373ffffffffffffffffffffffffffffffffffffffff16815260200182815260200192505050602060405180830381600087803b158015612b7157600080fd5b505af1158015612b85573d6000803e3d6000fd5b505050506040513d6020811015612b9b57600080fd5b8101908080519060200190929190505050612c1e576040517f08c379a000000000000000000000000000000000000000000000000000000000815260040180806020018281038252600c8152602001807f6d696e7420746f20706c6179000000000000000000000000000000000000000081525060200191505060405180910390fd5b600a60009054906101000a900473ffffffffffffffffffffffffffffffffffffffff1673ffffffffffffffffffffffffffffffffffffffff1663c407687682612c68605a86611570565b888a8781612c7257fe5b0402016040518363ffffffff1660e01b8152600401808373ffffffffffffffffffffffffffffffffffffffff16815260200182815260200192505050602060405180830381600087803b158015612cc857600080fd5b505af1158015612cdc573d6000803e3d6000fd5b505050506040513d6020811015612cf257600080fd5b8101908080519060200190929190505050612d75576040517f08c379a000000000000000000000000000000000000000000000000000000000815260040180806020018281038252600b8152602001807f70617920746f20706c617900000000000000000000000000000000000000000081525060200191505060405180910390fd5b6000600960009054906101000a900473ffffffffffffffffffffffffffffffffffffffff1673ffffffffffffffffffffffffffffffffffffffff1663805591738d6040518263ffffffff1660e01b81526004018082815260200191505060206040518083038186803b158015612dea57600080fd5b505afa158015612dfe573d6000803e3d6000fd5b505050506040513d6020811015612e1457600080fd5b81019080805190602001909291905050501115612f7757600a60009054906101000a900473ffffffffffffffffffffffffffffffffffffffff1673ffffffffffffffffffffffffffffffffffffffff1663458a80798286898681612e7457fe5b04026040518363ffffffff1660e01b8152600401808373ffffffffffffffffffffffffffffffffffffffff16815260200182815260200192505050602060405180830381600087803b158015612ec957600080fd5b505af1158015612edd573d6000803e3d6000fd5b505050506040513d6020811015612ef357600080fd5b8101908080519060200190929190505050612f76576040517f08c379a00000000000000000000000000000000000000000000000000000000081526004018080602001828103825260108152602001807f7072656d2070617920796f20706c61790000000000000000000000000000000081525060200191505060405180910390fd5b5b505080806001019150506127e4565b507f3dab09e521e432fcf2c4241a48669ead87a2cb753a8c38ac04f33c85b42ddf3e88878760405180848152602001838152602001828152602001935050505060405180910390a1505050505050505056fea2646970667358221220fb4a30f92f64d77640ab61b0701327c2a3d9c9c829c16d9987907b89ba074b3464736f6c63430007060033",
  "immutableReferences": {},
  "source": "// SPDX-License-Identifier: MIT\npragma solidity >=0.4.22 <0.9.0;\nimport {PubStruct} from \"../../struct/PubStruct.sol\";\nimport {MPStruct} from \"../../struct/MPStruct.sol\";\nimport {Libs} from \"./Libs.sol\";\nimport {PPConfig} from \"../../config/PPConfig.sol\";\nimport {PublicEvents} from \"./PublicEvents.sol\";\n \ncontract PlayerPayment is Libs, PPConfig {\n    event payToLosers(int id, uint avarageBet, uint calcMintedToken);\n    event payToRefferers(int id);\n    event eventFinish(int id);\n    MPStruct mpData;\n    PubStruct eventsData;\n    PublicEvents PublicAddr;\n\n    constructor(PublicEvents _addr, address _mpAddr) {\n        PublicAddr = _addr;\n        eventsData = PubStruct(_addr);\n        mpData = MPStruct(_mpAddr);\n    }\n\n   function letsPayToPlayers(int _id) public {\n        require(msg.sender == owner, \"owner only\");\n        uint activePlay = eventsData.getActivePlayers(_id);\n        uint rightPlay = eventsData.getPlayerAmount(_id, mpData.getCorrectAnswer(_id));\n        uint winPool = getPercent(playersPers, mpData.getLoserPool(_id)) / rightPlay;\n        uint premimWin = calcPremiumWin(_id, rightPlay);\n        uint betAmount = 0;\n\n        for ( uint i = 0; i < rightPlay; i++ ) {\n            betAmount += eventsData.getPlayerTokens(_id, mpData.getCorrectAnswer(_id), i);\n        }\n\n        uint avarageBet = betAmount / activePlay;\n        uint avarageBetWin = betAmount / rightPlay;\n        uint calcMintedToken = getPercent(playersPersMint, mpData.getLoserPool(_id));\n        payToPlay(_id, rightPlay, avarageBet, calcMintedToken, activePlay, avarageBetWin, winPool, premimWin);\n    }\n\n    function payToPlay(int _id, uint rightPlay, uint avarageBet, uint calcMintedToken, uint activePlay, uint avarageBetWin, uint winPool, uint premimWin) private {\n       for ( uint i = 0; i < rightPlay; i++ ) {\n            // mint token to users\n            uint userBet = eventsData.getPlayerTokens(_id, mpData.getCorrectAnswer(_id), i);\n            address payable userWallet = eventsData.getPlayerWallet(_id, mpData.getCorrectAnswer(_id), i);\n            require(\n                PublicAddr.mint(userWallet, (userBet / avarageBet) * (calcMintedToken / activePlay)),\n                \"mint to play\"\n            );\n            // pay tokens to users\n            require(\n                PublicAddr.pay(userWallet, ((userBet / avarageBetWin) * winPool) + getPercent(90, userBet)),\n                \"pay to play\"\n            );\n            if (eventsData.getPremiumAmount(_id) > 0) {\n                // pay premium tokens to user\n                require(\n                    PublicAddr.payBTY(userWallet, (userBet / avarageBetWin) * premimWin),\n                    \"prem pay yo play\"\n                );\n            }\n        }\n        emit payToLosers(_id, avarageBet, calcMintedToken);\n    }\n\n    function calcPremiumWin(int _id, uint rightPlay) private view returns(uint){\n        if (eventsData.getPremiumAmount(_id) > 0) {\n            uint premiumToken = getPercent(playersPersPremiun, eventsData.getPremiumAmount(_id));\n            return premiumToken / rightPlay;\n        }else{\n            return 0;\n        }\n    }\n\n    function letsPayToLoosers(\n        int _id,\n        uint _avarageBet,\n        uint _calcMintedToken\n    ) public {\n        require(msg.sender == owner, \"owner only\");\n        for (uint i = 0; i < eventsData.getQuestAmount(_id); i++) {\n            if (mpData.getCorrectAnswer(_id) != i && eventsData.getPlayerAmount(_id, i) != 0) {\n                for (uint z = 0; z < eventsData.getPlayerAmount(_id, i); z++) {\n                    uint mintLost = (eventsData.getPlayerTokens(_id, i, z) / _avarageBet) * (_calcMintedToken / eventsData.getActivePlayers(_id));\n                    require(PublicAddr.mint(eventsData.getPlayerWallet(_id, i, z), mintLost), \"pay to losers\");\n                }\n            }\n        }\n       emit payToRefferers(_id);\n    }\n\n    function payToReff(int _id, address payable[] memory _ref1, uint[] memory _amount1, address payable[] memory _ref2, uint[] memory _amount2, address payable[] memory _ref3, uint[] memory _amount3 ) public {\n        require(msg.sender == owner, \"owner only\");        \n            for(uint i = 0; i < _ref1.length; i++){\n                require(PublicAddr.mint(_ref1[i], _amount1[i]), \"mint ref1\");\n            }\n            if(_ref2[0] != fakeAddr){\n                for(uint i = 0; i < _ref2.length; i++){\n                    require(PublicAddr.mint(_ref2[i], _amount2[i]), \"mint ref2\");\n                }\n            if(_ref3[0] != fakeAddr){\n                for(uint i = 0; i < _ref3.length; i++){\n                    require(PublicAddr.mint(_ref3[i], _amount3[i]), \"mint ref2\");\n                }\n            }\n        }\n        mpData.setFinishEvent(_id);\n        emit eventFinish(\n            _id\n        );\n    }\n\n    function payRefToComp(int _id, uint _amount) public {\n        require(msg.sender == owner, \"owner only\");        \n        require(PublicAddr.mint(owner, _amount), \"mint refAll to owner\");\n        mpData.setFinishEvent(_id);\n        emit eventFinish(\n            _id\n        );\n    }\n}    ",
  "sourcePath": "/Users/macbook/Documents/freelance/tokenominc/contracts/matic/events/PublicEvents/PlayerPayment.sol",
  "compiler": {
    "name": "solc",
    "version": "0.7.6+commit.7338295f.Linux.g++"
  },
  "schemaVersion": "3.3.4",
  "updatedAt": "2021-03-18T13:21:53.591Z",
  "devdoc": {
    "kind": "dev",
    "methods": {},
    "version": 1
  },
  "userdoc": {
    "kind": "user",
    "methods": {},
    "version": 1
  }
}