{
  "contractName": "PPConfig",
  "abi": [
    {
      "inputs": [],
      "stateMutability": "nonpayable",
      "type": "constructor"
    },
    {
      "inputs": [],
      "name": "playersPers",
      "outputs": [
        {
          "internalType": "uint256",
          "name": "",
          "type": "uint256"
        }
      ],
      "stateMutability": "view",
      "type": "function"
    },
    {
      "inputs": [],
      "name": "playersPersMint",
      "outputs": [
        {
          "internalType": "uint256",
          "name": "",
          "type": "uint256"
        }
      ],
      "stateMutability": "view",
      "type": "function"
    },
    {
      "inputs": [],
      "name": "playersPersPremiun",
      "outputs": [
        {
          "internalType": "uint256",
          "name": "",
          "type": "uint256"
        }
      ],
      "stateMutability": "view",
      "type": "function"
    },
    {
      "inputs": [
        {
          "internalType": "uint256",
          "name": "_playersPersMint",
          "type": "uint256"
        }
      ],
      "name": "setPlayerPersMint",
      "outputs": [],
      "stateMutability": "nonpayable",
      "type": "function"
    }
  ],
  "bytecode": "0x60806040526032600155605a600255604b60035534801561001f57600080fd5b50336000806101000a81548173ffffffffffffffffffffffffffffffffffffffff021916908373ffffffffffffffffffffffffffffffffffffffff1602179055506101ec8061006f6000396000f3fe608060405234801561001057600080fd5b506004361061004c5760003560e01c8063134c3b071461005157806327e537171461006f57806373e258ac1461008d5780639336e8fd146100ab575b600080fd5b6100596100d9565b6040518082815260200191505060405180910390f35b6100776100df565b6040518082815260200191505060405180910390f35b6100956100e5565b6040518082815260200191505060405180910390f35b6100d7600480360360208110156100c157600080fd5b81019080803590602001909291905050506100eb565b005b60035481565b60025481565b60015481565b60008054906101000a900473ffffffffffffffffffffffffffffffffffffffff1673ffffffffffffffffffffffffffffffffffffffff163373ffffffffffffffffffffffffffffffffffffffff16146101ac576040517f08c379a000000000000000000000000000000000000000000000000000000000815260040180806020018281038252600a8152602001807f6f776e6572206f6e6c790000000000000000000000000000000000000000000081525060200191505060405180910390fd5b806001819055505056fea26469706673582212207b3b893d7819d19d992cefe3ff7f34258874ff016f893ab303a71436ee34034264736f6c63430007060033",
  "immutableReferences": {},
  "source": "// SPDX-License-Identifier: MIT\npragma solidity >=0.4.22 <0.9.0;\n\ncontract PPConfig {\n    address owner;\n    constructor() {\n        owner = msg.sender;\n    }\n\n    // PLAYERS\n    uint public playersPersMint = 50; // mint token percent for players\n    uint public playersPers = 90; // pay token percent for players\n    uint public playersPersPremiun = 75; // pay token percent for players in Premium events\n\n    function setPlayerPersMint(uint _playersPersMint) public {\n        require(msg.sender == owner, \"owner only\");\n        playersPersMint = _playersPersMint;\n    }\n\n\n}",
  "sourcePath": "/Users/macbook/Documents/freelance/tokenominc/contracts/config/PPConfig.sol",
  "compiler": {
    "name": "solc",
    "version": "0.7.6+commit.7338295f.Linux.g++"
  },
  "schemaVersion": "3.3.4",
  "updatedAt": "2021-03-12T11:04:19.706Z",
  "devdoc": {
    "kind": "dev",
    "methods": {},
    "version": 1
  },
  "userdoc": {
    "kind": "user",
    "methods": {},
    "version": 1
  }
}