{
  "contractName": "PPConfig",
  "abi": [
    {
      "inputs": [],
      "stateMutability": "nonpayable",
      "type": "constructor"
    },
    {
      "inputs": [],
      "name": "firstRefer",
      "outputs": [
        {
          "internalType": "uint256",
          "name": "",
          "type": "uint256"
        }
      ],
      "stateMutability": "view",
      "type": "function"
    },
    {
      "inputs": [],
      "name": "playersPers",
      "outputs": [
        {
          "internalType": "uint256",
          "name": "",
          "type": "uint256"
        }
      ],
      "stateMutability": "view",
      "type": "function"
    },
    {
      "inputs": [],
      "name": "playersPersMint",
      "outputs": [
        {
          "internalType": "uint256",
          "name": "",
          "type": "uint256"
        }
      ],
      "stateMutability": "view",
      "type": "function"
    },
    {
      "inputs": [],
      "name": "playersPersPremiun",
      "outputs": [
        {
          "internalType": "uint256",
          "name": "",
          "type": "uint256"
        }
      ],
      "stateMutability": "view",
      "type": "function"
    },
    {
      "inputs": [],
      "name": "secontRefer",
      "outputs": [
        {
          "internalType": "uint256",
          "name": "",
          "type": "uint256"
        }
      ],
      "stateMutability": "view",
      "type": "function"
    },
    {
      "inputs": [],
      "name": "thirdRefer",
      "outputs": [
        {
          "internalType": "uint256",
          "name": "",
          "type": "uint256"
        }
      ],
      "stateMutability": "view",
      "type": "function"
    },
    {
      "inputs": [
        {
          "internalType": "uint256",
          "name": "_playersPersMint",
          "type": "uint256"
        },
        {
          "internalType": "uint256",
          "name": "_playersPers",
          "type": "uint256"
        },
        {
          "internalType": "uint256",
          "name": "_playersPersPremiun",
          "type": "uint256"
        }
      ],
      "name": "setPlayerPercMint",
      "outputs": [],
      "stateMutability": "nonpayable",
      "type": "function"
    },
    {
      "inputs": [
        {
          "internalType": "uint256",
          "name": "_firstRefer",
          "type": "uint256"
        },
        {
          "internalType": "uint256",
          "name": "_secontRefer",
          "type": "uint256"
        },
        {
          "internalType": "uint256",
          "name": "_thirdRefer",
          "type": "uint256"
        }
      ],
      "name": "setReferrersPerc",
      "outputs": [],
      "stateMutability": "nonpayable",
      "type": "function"
    }
  ],
  "bytecode": "0x60806040526032600155605a600255604b600355600480556004600555600260065534801561002d57600080fd5b50336000806101000a81548173ffffffffffffffffffffffffffffffffffffffff021916908373ffffffffffffffffffffffffffffffffffffffff1602179055506103d58061007d6000396000f3fe608060405234801561001057600080fd5b50600436106100885760003560e01c806373e258ac1161005b57806373e258ac1461012957806379fdb1681461014757806393494baa14610165578063bd17ea48146101a757610088565b8063134c3b071461008d57806327e53717146100ab578063431e89e1146100c957806372d6417a1461010b575b600080fd5b6100956101c5565b6040518082815260200191505060405180910390f35b6100b36101cb565b6040518082815260200191505060405180910390f35b610109600480360360608110156100df57600080fd5b810190808035906020019092919080359060200190929190803590602001909291905050506101d1565b005b6101136102ac565b6040518082815260200191505060405180910390f35b6101316102b2565b6040518082815260200191505060405180910390f35b61014f6102b8565b6040518082815260200191505060405180910390f35b6101a56004803603606081101561017b57600080fd5b810190808035906020019092919080359060200190929190803590602001909291905050506102be565b005b6101af610399565b6040518082815260200191505060405180910390f35b60035481565b60025481565b60008054906101000a900473ffffffffffffffffffffffffffffffffffffffff1673ffffffffffffffffffffffffffffffffffffffff163373ffffffffffffffffffffffffffffffffffffffff1614610292576040517f08c379a000000000000000000000000000000000000000000000000000000000815260040180806020018281038252600a8152602001807f6f776e6572206f6e6c790000000000000000000000000000000000000000000081525060200191505060405180910390fd5b826004819055508160058190555080600681905550505050565b60055481565b60015481565b60045481565b60008054906101000a900473ffffffffffffffffffffffffffffffffffffffff1673ffffffffffffffffffffffffffffffffffffffff163373ffffffffffffffffffffffffffffffffffffffff161461037f576040517f08c379a000000000000000000000000000000000000000000000000000000000815260040180806020018281038252600a8152602001807f6f776e6572206f6e6c790000000000000000000000000000000000000000000081525060200191505060405180910390fd5b826001819055508160028190555080600381905550505050565b6006548156fea2646970667358221220886566762609ca4a79c0e8dfa69709400e0069a08433ea298b72543077396dd364736f6c63430007060033",
  "immutableReferences": {},
  "source": "// SPDX-License-Identifier: MIT\npragma solidity >=0.4.22 <0.9.0;\n\ncontract PPConfig {\n    address owner;\n    constructor() {\n        owner = msg.sender;\n    }\n\n    // PLAYERS\n    uint public playersPersMint = 50; // mint token percent for players\n    uint public playersPers = 90; // pay token percent for players\n    uint public playersPersPremiun = 75; // pay token percent for players in Premium events\n    uint public firstRefer = 4; // first level of referrers;\n    uint public secontRefer = 4; // second level of referrers;\n    uint public thirdRefer = 2; // third level of referrers;\n\n    function setPlayerPercMint(uint _playersPersMint, uint _playersPers, uint _playersPersPremiun) public {\n        require(msg.sender == owner, \"owner only\");\n        playersPersMint = _playersPersMint;\n        playersPers = _playersPers;\n        playersPersPremiun = _playersPersPremiun;\n    }\n\n    function setReferrersPerc(uint _firstRefer, uint _secontRefer, uint _thirdRefer) public {\n        require(msg.sender == owner, \"owner only\");\n        firstRefer = _firstRefer;\n        secontRefer = _secontRefer;\n        thirdRefer = _thirdRefer;\n    }\n\n\n}",
  "sourcePath": "/Users/macbook/Documents/freelance/tokenominc/contracts/config/PPConfig.sol",
  "compiler": {
    "name": "solc",
    "version": "0.7.6+commit.7338295f.Linux.g++"
  },
  "schemaVersion": "3.3.4",
  "updatedAt": "2021-03-15T10:32:57.104Z",
  "devdoc": {
    "kind": "dev",
    "methods": {},
    "version": 1
  },
  "userdoc": {
    "kind": "user",
    "methods": {},
    "version": 1
  }
}