{
  "contractName": "PPConfig",
  "abi": [
    {
      "inputs": [],
      "name": "firstRefer",
      "outputs": [
        {
          "internalType": "uint256",
          "name": "",
          "type": "uint256"
        }
      ],
      "stateMutability": "view",
      "type": "function"
    },
    {
      "inputs": [],
      "name": "playersPers",
      "outputs": [
        {
          "internalType": "uint256",
          "name": "",
          "type": "uint256"
        }
      ],
      "stateMutability": "view",
      "type": "function"
    },
    {
      "inputs": [],
      "name": "playersPersMint",
      "outputs": [
        {
          "internalType": "uint256",
          "name": "",
          "type": "uint256"
        }
      ],
      "stateMutability": "view",
      "type": "function"
    },
    {
      "inputs": [],
      "name": "playersPersPremiun",
      "outputs": [
        {
          "internalType": "uint256",
          "name": "",
          "type": "uint256"
        }
      ],
      "stateMutability": "view",
      "type": "function"
    },
    {
      "inputs": [],
      "name": "secontRefer",
      "outputs": [
        {
          "internalType": "uint256",
          "name": "",
          "type": "uint256"
        }
      ],
      "stateMutability": "view",
      "type": "function"
    },
    {
      "inputs": [],
      "name": "thirdRefer",
      "outputs": [
        {
          "internalType": "uint256",
          "name": "",
          "type": "uint256"
        }
      ],
      "stateMutability": "view",
      "type": "function"
    },
    {
      "inputs": [
        {
          "internalType": "uint256",
          "name": "_playersPersMint",
          "type": "uint256"
        },
        {
          "internalType": "uint256",
          "name": "_playersPers",
          "type": "uint256"
        },
        {
          "internalType": "uint256",
          "name": "_playersPersPremiun",
          "type": "uint256"
        },
        {
          "internalType": "uint256",
          "name": "_firstRefer",
          "type": "uint256"
        },
        {
          "internalType": "uint256",
          "name": "_secontRefer",
          "type": "uint256"
        },
        {
          "internalType": "uint256",
          "name": "_thirdRefer",
          "type": "uint256"
        },
        {
          "internalType": "address",
          "name": "_fakeAddr",
          "type": "address"
        }
      ],
      "name": "__PPConfigInit",
      "outputs": [],
      "stateMutability": "nonpayable",
      "type": "function"
    },
    {
      "inputs": [
        {
          "internalType": "uint256",
          "name": "_playersPersMint",
          "type": "uint256"
        },
        {
          "internalType": "uint256",
          "name": "_playersPers",
          "type": "uint256"
        },
        {
          "internalType": "uint256",
          "name": "_playersPersPremiun",
          "type": "uint256"
        }
      ],
      "name": "setPlayerPercMint",
      "outputs": [],
      "stateMutability": "nonpayable",
      "type": "function"
    },
    {
      "inputs": [
        {
          "internalType": "uint256",
          "name": "_firstRefer",
          "type": "uint256"
        },
        {
          "internalType": "uint256",
          "name": "_secontRefer",
          "type": "uint256"
        },
        {
          "internalType": "uint256",
          "name": "_thirdRefer",
          "type": "uint256"
        }
      ],
      "name": "setReferrersPerc",
      "outputs": [],
      "stateMutability": "nonpayable",
      "type": "function"
    },
    {
      "inputs": [
        {
          "internalType": "address",
          "name": "_fake",
          "type": "address"
        }
      ],
      "name": "setFakeAddr",
      "outputs": [],
      "stateMutability": "nonpayable",
      "type": "function"
    }
  ],
  "bytecode": "0x608060405234801561001057600080fd5b506107bd806100206000396000f3fe608060405234801561001057600080fd5b506004361061009e5760003560e01c806373e258ac1161006657806373e258ac1461018357806379fdb168146101a157806393494baa146101bf578063bd17ea4814610201578063de6fe1081461021f5761009e565b8063134c3b07146100a357806327e53717146100c1578063431e89e1146100df57806372ca8e061461012157806372d6417a14610165575b600080fd5b6100ab61029f565b6040518082815260200191505060405180910390f35b6100c96102a5565b6040518082815260200191505060405180910390f35b61011f600480360360608110156100f557600080fd5b810190808035906020019092919080359060200190929190803590602001909291905050506102ab565b005b6101636004803603602081101561013757600080fd5b81019080803573ffffffffffffffffffffffffffffffffffffffff169060200190929190505050610388565b005b61016d61048f565b6040518082815260200191505060405180910390f35b61018b610495565b6040518082815260200191505060405180910390f35b6101a961049b565b6040518082815260200191505060405180910390f35b6101ff600480360360608110156101d557600080fd5b810190808035906020019092919080359060200190929190803590602001909291905050506104a1565b005b61020961057e565b6040518082815260200191505060405180910390f35b61029d600480360360e081101561023557600080fd5b81019080803590602001909291908035906020019092919080359060200190929190803590602001909291908035906020019092919080359060200190929190803573ffffffffffffffffffffffffffffffffffffffff169060200190929190505050610584565b005b60035481565b60025481565b600060029054906101000a900473ffffffffffffffffffffffffffffffffffffffff1673ffffffffffffffffffffffffffffffffffffffff163373ffffffffffffffffffffffffffffffffffffffff161461036e576040517f08c379a000000000000000000000000000000000000000000000000000000000815260040180806020018281038252600a8152602001807f6f776e6572206f6e6c790000000000000000000000000000000000000000000081525060200191505060405180910390fd5b826004819055508160058190555080600681905550505050565b600060029054906101000a900473ffffffffffffffffffffffffffffffffffffffff1673ffffffffffffffffffffffffffffffffffffffff163373ffffffffffffffffffffffffffffffffffffffff161461044b576040517f08c379a000000000000000000000000000000000000000000000000000000000815260040180806020018281038252600a8152602001807f6f776e6572206f6e6c790000000000000000000000000000000000000000000081525060200191505060405180910390fd5b80600760006101000a81548173ffffffffffffffffffffffffffffffffffffffff021916908373ffffffffffffffffffffffffffffffffffffffff16021790555050565b60055481565b60015481565b60045481565b600060029054906101000a900473ffffffffffffffffffffffffffffffffffffffff1673ffffffffffffffffffffffffffffffffffffffff163373ffffffffffffffffffffffffffffffffffffffff1614610564576040517f08c379a000000000000000000000000000000000000000000000000000000000815260040180806020018281038252600a8152602001807f6f776e6572206f6e6c790000000000000000000000000000000000000000000081525060200191505060405180910390fd5b826001819055508160028190555080600381905550505050565b60065481565b600060019054906101000a900460ff16806105a357506105a2610735565b5b806105b9575060008054906101000a900460ff16155b61060e576040517f08c379a000000000000000000000000000000000000000000000000000000000815260040180806020018281038252602e81526020018061075a602e913960400191505060405180910390fd5b60008060019054906101000a900460ff16159050801561065e576001600060016101000a81548160ff02191690831515021790555060016000806101000a81548160ff0219169083151502179055505b33600060026101000a81548173ffffffffffffffffffffffffffffffffffffffff021916908373ffffffffffffffffffffffffffffffffffffffff16021790555087600181905550866002819055508560038190555084600481905550836005819055508260068190555081600760006101000a81548173ffffffffffffffffffffffffffffffffffffffff021916908373ffffffffffffffffffffffffffffffffffffffff160217905550801561072b5760008060016101000a81548160ff0219169083151502179055505b5050505050505050565b600061074030610746565b15905090565b600080823b90506000811191505091905056fe496e697469616c697a61626c653a20636f6e747261637420697320616c726561647920696e697469616c697a6564a2646970667358221220def6894974b6c7217e106307cd1cabc4b7477e975c25c8864fb6a4c0ae6495c664736f6c63430007060033",
  "immutableReferences": {},
  "source": "// SPDX-License-Identifier: MIT\npragma solidity >=0.4.22 <0.9.0;\n\nimport \"@openzeppelin/contracts-upgradeable/proxy/Initializable.sol\";\n\ncontract PPConfig is Initializable {\n    address owner;\n    // PLAYERS\n    uint256 public playersPersMint; // mint token percent for players\n    uint256 public playersPers; // pay token percent for players\n    uint256 public playersPersPremiun; // pay token percent for players in Premium events\n    uint256 public firstRefer; // first level of referrers;\n    uint256 public secontRefer; // second level of referrers;\n    uint256 public thirdRefer; // third level of referrers;\n    address fakeAddr;\n\n    function __PPConfigInit(\n        uint256 _playersPersMint,\n        uint256 _playersPers,\n        uint256 _playersPersPremiun,\n        uint256 _firstRefer,\n        uint256 _secontRefer,\n        uint256 _thirdRefer,\n        address _fakeAddr\n    ) public initializer {\n        owner = msg.sender;\n        playersPersMint = _playersPersMint;\n        playersPers = _playersPers;\n        playersPersPremiun = _playersPersPremiun;\n        firstRefer = _firstRefer;\n        secontRefer = _secontRefer;\n        thirdRefer = _thirdRefer;\n        fakeAddr = _fakeAddr;\n    }\n\n    function setPlayerPercMint(\n        uint256 _playersPersMint,\n        uint256 _playersPers,\n        uint256 _playersPersPremiun\n    ) public {\n        require(msg.sender == owner, \"owner only\");\n        playersPersMint = _playersPersMint;\n        playersPers = _playersPers;\n        playersPersPremiun = _playersPersPremiun;\n    }\n\n    function setReferrersPerc(\n        uint256 _firstRefer,\n        uint256 _secontRefer,\n        uint256 _thirdRefer\n    ) public {\n        require(msg.sender == owner, \"owner only\");\n        firstRefer = _firstRefer;\n        secontRefer = _secontRefer;\n        thirdRefer = _thirdRefer;\n    }\n\n    function setFakeAddr(address _fake) public {\n        require(msg.sender == owner, \"owner only\");\n        fakeAddr = _fake;\n    }\n}\n",
  "sourcePath": "/Users/macbook/Documents/freelance/tokenominc/contracts/matic/config/PPConfig.sol",
  "compiler": {
    "name": "solc",
    "version": "0.7.6+commit.7338295f.Linux.g++"
  },
  "schemaVersion": "3.3.4",
  "updatedAt": "2021-03-24T17:21:19.411Z",
  "devdoc": {
    "kind": "dev",
    "methods": {},
    "version": 1
  },
  "userdoc": {
    "kind": "user",
    "methods": {},
    "version": 1
  }
}