{
  "contractName": "PPConfig",
  "abi": [
    {
      "inputs": [],
      "stateMutability": "nonpayable",
      "type": "constructor"
    },
    {
      "inputs": [],
      "name": "playersPers",
      "outputs": [
        {
          "internalType": "uint256",
          "name": "",
          "type": "uint256"
        }
      ],
      "stateMutability": "view",
      "type": "function"
    },
    {
      "inputs": [],
      "name": "playersPersMint",
      "outputs": [
        {
          "internalType": "uint256",
          "name": "",
          "type": "uint256"
        }
      ],
      "stateMutability": "view",
      "type": "function"
    },
    {
      "inputs": [],
      "name": "playersPersPremiun",
      "outputs": [
        {
          "internalType": "uint256",
          "name": "",
          "type": "uint256"
        }
      ],
      "stateMutability": "view",
      "type": "function"
    },
    {
      "inputs": [
        {
          "internalType": "uint256",
          "name": "_playersPersMint",
          "type": "uint256"
        },
        {
          "internalType": "uint256",
          "name": "_playersPers",
          "type": "uint256"
        },
        {
          "internalType": "uint256",
          "name": "_playersPersPremiun",
          "type": "uint256"
        }
      ],
      "name": "setPlayerPersMint",
      "outputs": [],
      "stateMutability": "nonpayable",
      "type": "function"
    }
  ],
  "bytecode": "0x60806040526032600155605a600255604b60035534801561001f57600080fd5b50336000806101000a81548173ffffffffffffffffffffffffffffffffffffffff021916908373ffffffffffffffffffffffffffffffffffffffff1602179055506102108061006f6000396000f3fe608060405234801561001057600080fd5b506004361061004c5760003560e01c8063134c3b071461005157806327e537171461006f578063664fc5f21461008d57806373e258ac146100cf575b600080fd5b6100596100ed565b6040518082815260200191505060405180910390f35b6100776100f3565b6040518082815260200191505060405180910390f35b6100cd600480360360608110156100a357600080fd5b810190808035906020019092919080359060200190929190803590602001909291905050506100f9565b005b6100d76101d4565b6040518082815260200191505060405180910390f35b60035481565b60025481565b60008054906101000a900473ffffffffffffffffffffffffffffffffffffffff1673ffffffffffffffffffffffffffffffffffffffff163373ffffffffffffffffffffffffffffffffffffffff16146101ba576040517f08c379a000000000000000000000000000000000000000000000000000000000815260040180806020018281038252600a8152602001807f6f776e6572206f6e6c790000000000000000000000000000000000000000000081525060200191505060405180910390fd5b826001819055508160028190555080600381905550505050565b6001548156fea2646970667358221220ef9d4bd996a474c7df3938c31945f19b056766bf95cc7bc6acf7c9a046fe72b364736f6c63430007060033",
  "immutableReferences": {},
  "source": "// SPDX-License-Identifier: MIT\npragma solidity >=0.4.22 <0.9.0;\n\ncontract PPConfig {\n    address owner;\n    constructor() {\n        owner = msg.sender;\n    }\n\n    // PLAYERS\n    uint public playersPersMint = 50; // mint token percent for players\n    uint public playersPers = 90; // pay token percent for players\n    uint public playersPersPremiun = 75; // pay token percent for players in Premium events\n\n    function setPlayerPersMint(uint _playersPersMint, uint _playersPers, uint _playersPersPremiun) public {\n        require(msg.sender == owner, \"owner only\");\n        playersPersMint = _playersPersMint;\n        playersPers = _playersPers;\n        playersPersPremiun = _playersPersPremiun;\n    }\n\n\n}",
  "sourcePath": "/Users/macbook/Documents/freelance/tokenominc/contracts/config/PPConfig.sol",
  "compiler": {
    "name": "solc",
    "version": "0.7.6+commit.7338295f.Linux.g++"
  },
  "schemaVersion": "3.3.4",
  "updatedAt": "2021-03-12T17:33:53.567Z",
  "devdoc": {
    "kind": "dev",
    "methods": {},
    "version": 1
  },
  "userdoc": {
    "kind": "user",
    "methods": {},
    "version": 1
  }
}