{
  "contractName": "PPConfig",
  "abi": [
    {
      "inputs": [],
      "stateMutability": "nonpayable",
      "type": "constructor"
    },
    {
      "inputs": [],
      "name": "firstRefer",
      "outputs": [
        {
          "internalType": "uint256",
          "name": "",
          "type": "uint256"
        }
      ],
      "stateMutability": "view",
      "type": "function"
    },
    {
      "inputs": [],
      "name": "playersPers",
      "outputs": [
        {
          "internalType": "uint256",
          "name": "",
          "type": "uint256"
        }
      ],
      "stateMutability": "view",
      "type": "function"
    },
    {
      "inputs": [],
      "name": "playersPersMint",
      "outputs": [
        {
          "internalType": "uint256",
          "name": "",
          "type": "uint256"
        }
      ],
      "stateMutability": "view",
      "type": "function"
    },
    {
      "inputs": [],
      "name": "playersPersPremiun",
      "outputs": [
        {
          "internalType": "uint256",
          "name": "",
          "type": "uint256"
        }
      ],
      "stateMutability": "view",
      "type": "function"
    },
    {
      "inputs": [],
      "name": "secontRefer",
      "outputs": [
        {
          "internalType": "uint256",
          "name": "",
          "type": "uint256"
        }
      ],
      "stateMutability": "view",
      "type": "function"
    },
    {
      "inputs": [],
      "name": "thirdRefer",
      "outputs": [
        {
          "internalType": "uint256",
          "name": "",
          "type": "uint256"
        }
      ],
      "stateMutability": "view",
      "type": "function"
    },
    {
      "inputs": [
        {
          "internalType": "uint256",
          "name": "_playersPersMint",
          "type": "uint256"
        },
        {
          "internalType": "uint256",
          "name": "_playersPers",
          "type": "uint256"
        },
        {
          "internalType": "uint256",
          "name": "_playersPersPremiun",
          "type": "uint256"
        }
      ],
      "name": "setPlayerPercMint",
      "outputs": [],
      "stateMutability": "nonpayable",
      "type": "function"
    },
    {
      "inputs": [
        {
          "internalType": "uint256",
          "name": "_firstRefer",
          "type": "uint256"
        },
        {
          "internalType": "uint256",
          "name": "_secontRefer",
          "type": "uint256"
        },
        {
          "internalType": "uint256",
          "name": "_thirdRefer",
          "type": "uint256"
        }
      ],
      "name": "setReferrersPerc",
      "outputs": [],
      "stateMutability": "nonpayable",
      "type": "function"
    },
    {
      "inputs": [
        {
          "internalType": "address",
          "name": "_fake",
          "type": "address"
        }
      ],
      "name": "setFakeAddr",
      "outputs": [],
      "stateMutability": "nonpayable",
      "type": "function"
    }
  ],
  "bytecode": "0x60806040526032600155605a600255604b60035560048055600460055560026006557345e505a6e7e367288dc1796dffda0a68fb29cb0f600760006101000a81548173ffffffffffffffffffffffffffffffffffffffff021916908373ffffffffffffffffffffffffffffffffffffffff16021790555034801561008257600080fd5b50336000806101000a81548173ffffffffffffffffffffffffffffffffffffffff021916908373ffffffffffffffffffffffffffffffffffffffff160217905550610529806100d26000396000f3fe608060405234801561001057600080fd5b50600436106100935760003560e01c806372d6417a1161006657806372d6417a1461015a57806373e258ac1461017857806379fdb1681461019657806393494baa146101b4578063bd17ea48146101f657610093565b8063134c3b071461009857806327e53717146100b6578063431e89e1146100d457806372ca8e0614610116575b600080fd5b6100a0610214565b6040518082815260200191505060405180910390f35b6100be61021a565b6040518082815260200191505060405180910390f35b610114600480360360608110156100ea57600080fd5b81019080803590602001909291908035906020019092919080359060200190929190505050610220565b005b6101586004803603602081101561012c57600080fd5b81019080803573ffffffffffffffffffffffffffffffffffffffff1690602001909291905050506102fb565b005b610162610400565b6040518082815260200191505060405180910390f35b610180610406565b6040518082815260200191505060405180910390f35b61019e61040c565b6040518082815260200191505060405180910390f35b6101f4600480360360608110156101ca57600080fd5b81019080803590602001909291908035906020019092919080359060200190929190505050610412565b005b6101fe6104ed565b6040518082815260200191505060405180910390f35b60035481565b60025481565b60008054906101000a900473ffffffffffffffffffffffffffffffffffffffff1673ffffffffffffffffffffffffffffffffffffffff163373ffffffffffffffffffffffffffffffffffffffff16146102e1576040517f08c379a000000000000000000000000000000000000000000000000000000000815260040180806020018281038252600a8152602001807f6f776e6572206f6e6c790000000000000000000000000000000000000000000081525060200191505060405180910390fd5b826004819055508160058190555080600681905550505050565b60008054906101000a900473ffffffffffffffffffffffffffffffffffffffff1673ffffffffffffffffffffffffffffffffffffffff163373ffffffffffffffffffffffffffffffffffffffff16146103bc576040517f08c379a000000000000000000000000000000000000000000000000000000000815260040180806020018281038252600a8152602001807f6f776e6572206f6e6c790000000000000000000000000000000000000000000081525060200191505060405180910390fd5b80600760006101000a81548173ffffffffffffffffffffffffffffffffffffffff021916908373ffffffffffffffffffffffffffffffffffffffff16021790555050565b60055481565b60015481565b60045481565b60008054906101000a900473ffffffffffffffffffffffffffffffffffffffff1673ffffffffffffffffffffffffffffffffffffffff163373ffffffffffffffffffffffffffffffffffffffff16146104d3576040517f08c379a000000000000000000000000000000000000000000000000000000000815260040180806020018281038252600a8152602001807f6f776e6572206f6e6c790000000000000000000000000000000000000000000081525060200191505060405180910390fd5b826001819055508160028190555080600381905550505050565b6006548156fea2646970667358221220cd5744ee0bd1bb0f3bcdc23b0a7eeb06791a12318b30f83c4ea31299b9a66e2064736f6c63430007060033",
  "immutableReferences": {},
  "source": "// SPDX-License-Identifier: MIT\npragma solidity >=0.4.22 <0.9.0;\n\ncontract PPConfig {\n    address owner;\n    constructor() {\n        owner = msg.sender;\n    }\n\n    // PLAYERS\n    uint public playersPersMint = 50; // mint token percent for players\n    uint public playersPers = 90; // pay token percent for players\n    uint public playersPersPremiun = 75; // pay token percent for players in Premium events\n    uint public firstRefer = 4; // first level of referrers;\n    uint public secontRefer = 4; // second level of referrers;\n    uint public thirdRefer = 2; // third level of referrers;\n\n    address fakeAddr = 0x45e505a6e7e367288Dc1796dFFdA0A68fb29CB0f;\n\n    function setPlayerPercMint(uint _playersPersMint, uint _playersPers, uint _playersPersPremiun) public {\n        require(msg.sender == owner, \"owner only\");\n        playersPersMint = _playersPersMint;\n        playersPers = _playersPers;\n        playersPersPremiun = _playersPersPremiun;\n    }\n\n    function setReferrersPerc(uint _firstRefer, uint _secontRefer, uint _thirdRefer) public {\n        require(msg.sender == owner, \"owner only\");\n        firstRefer = _firstRefer;\n        secontRefer = _secontRefer;\n        thirdRefer = _thirdRefer;\n    }\n\n    function setFakeAddr(address _fake) public{\n        require(msg.sender == owner, \"owner only\");\n        fakeAddr = _fake;\n    }\n}",
  "sourcePath": "/Users/macbook/Documents/freelance/tokenominc/contracts/config/PPConfig.sol",
  "compiler": {
    "name": "solc",
    "version": "0.7.6+commit.7338295f.Linux.g++"
  },
  "schemaVersion": "3.3.4",
  "updatedAt": "2021-03-17T10:15:45.528Z",
  "devdoc": {
    "kind": "dev",
    "methods": {},
    "version": 1
  },
  "userdoc": {
    "kind": "user",
    "methods": {},
    "version": 1
  }
}