{
  "contractName": "PrivateEvents",
  "abi": [
    {
      "inputs": [],
      "stateMutability": "nonpayable",
      "type": "constructor"
    },
    {
      "anonymous": false,
      "inputs": [
        {
          "indexed": false,
          "internalType": "int256",
          "name": "question_id",
          "type": "int256"
        },
        {
          "indexed": false,
          "internalType": "uint8",
          "name": "correctAnswer",
          "type": "uint8"
        }
      ],
      "name": "eventIsFinish",
      "type": "event"
    },
    {
      "inputs": [],
      "name": "GFindex",
      "outputs": [
        {
          "internalType": "uint256",
          "name": "",
          "type": "uint256"
        }
      ],
      "stateMutability": "view",
      "type": "function"
    },
    {
      "inputs": [],
      "name": "GFrewards",
      "outputs": [
        {
          "internalType": "uint256",
          "name": "",
          "type": "uint256"
        }
      ],
      "stateMutability": "view",
      "type": "function"
    },
    {
      "inputs": [],
      "name": "advisorPepc",
      "outputs": [
        {
          "internalType": "uint256",
          "name": "",
          "type": "uint256"
        }
      ],
      "stateMutability": "view",
      "type": "function"
    },
    {
      "inputs": [],
      "name": "advisorPercMint",
      "outputs": [
        {
          "internalType": "uint256",
          "name": "",
          "type": "uint256"
        }
      ],
      "stateMutability": "view",
      "type": "function"
    },
    {
      "inputs": [],
      "name": "comMarketFundPerc",
      "outputs": [
        {
          "internalType": "uint256",
          "name": "",
          "type": "uint256"
        }
      ],
      "stateMutability": "view",
      "type": "function"
    },
    {
      "inputs": [],
      "name": "comMarketFundWallet",
      "outputs": [
        {
          "internalType": "address payable",
          "name": "",
          "type": "address"
        }
      ],
      "stateMutability": "view",
      "type": "function"
    },
    {
      "inputs": [],
      "name": "developFundPerc",
      "outputs": [
        {
          "internalType": "uint256",
          "name": "",
          "type": "uint256"
        }
      ],
      "stateMutability": "view",
      "type": "function"
    },
    {
      "inputs": [],
      "name": "developFundPercPremim",
      "outputs": [
        {
          "internalType": "uint256",
          "name": "",
          "type": "uint256"
        }
      ],
      "stateMutability": "view",
      "type": "function"
    },
    {
      "inputs": [],
      "name": "expertExtraPerc",
      "outputs": [
        {
          "internalType": "uint256",
          "name": "",
          "type": "uint256"
        }
      ],
      "stateMutability": "view",
      "type": "function"
    },
    {
      "inputs": [],
      "name": "expertPerc",
      "outputs": [
        {
          "internalType": "uint256",
          "name": "",
          "type": "uint256"
        }
      ],
      "stateMutability": "view",
      "type": "function"
    },
    {
      "inputs": [],
      "name": "expertPercMint",
      "outputs": [
        {
          "internalType": "uint256",
          "name": "",
          "type": "uint256"
        }
      ],
      "stateMutability": "view",
      "type": "function"
    },
    {
      "inputs": [],
      "name": "expertPremiumPerc",
      "outputs": [
        {
          "internalType": "uint256",
          "name": "",
          "type": "uint256"
        }
      ],
      "stateMutability": "view",
      "type": "function"
    },
    {
      "inputs": [],
      "name": "extraHostPerc",
      "outputs": [
        {
          "internalType": "uint256",
          "name": "",
          "type": "uint256"
        }
      ],
      "stateMutability": "view",
      "type": "function"
    },
    {
      "inputs": [],
      "name": "extraHostPercMint",
      "outputs": [
        {
          "internalType": "uint256",
          "name": "",
          "type": "uint256"
        }
      ],
      "stateMutability": "view",
      "type": "function"
    },
    {
      "inputs": [],
      "name": "firstWithdrawIndex",
      "outputs": [
        {
          "internalType": "uint256",
          "name": "",
          "type": "uint256"
        }
      ],
      "stateMutability": "view",
      "type": "function"
    },
    {
      "inputs": [],
      "name": "getFirstWithdraw",
      "outputs": [
        {
          "internalType": "uint256",
          "name": "",
          "type": "uint256"
        }
      ],
      "stateMutability": "view",
      "type": "function"
    },
    {
      "inputs": [],
      "name": "hostPerc",
      "outputs": [
        {
          "internalType": "uint256",
          "name": "",
          "type": "uint256"
        }
      ],
      "stateMutability": "view",
      "type": "function"
    },
    {
      "inputs": [],
      "name": "hostPercMint",
      "outputs": [
        {
          "internalType": "uint256",
          "name": "",
          "type": "uint256"
        }
      ],
      "stateMutability": "view",
      "type": "function"
    },
    {
      "inputs": [],
      "name": "moderatorsFundPerc",
      "outputs": [
        {
          "internalType": "uint256",
          "name": "",
          "type": "uint256"
        }
      ],
      "stateMutability": "view",
      "type": "function"
    },
    {
      "inputs": [],
      "name": "moderatorsFundWallet",
      "outputs": [
        {
          "internalType": "address payable",
          "name": "",
          "type": "address"
        }
      ],
      "stateMutability": "view",
      "type": "function"
    },
    {
      "inputs": [],
      "name": "owner",
      "outputs": [
        {
          "internalType": "address payable",
          "name": "",
          "type": "address"
        }
      ],
      "stateMutability": "view",
      "type": "function"
    },
    {
      "inputs": [],
      "name": "playerPers",
      "outputs": [
        {
          "internalType": "uint256",
          "name": "",
          "type": "uint256"
        }
      ],
      "stateMutability": "view",
      "type": "function"
    },
    {
      "inputs": [
        {
          "internalType": "uint256",
          "name": "_developFundPerc",
          "type": "uint256"
        }
      ],
      "name": "setDevelopFundPerc",
      "outputs": [],
      "stateMutability": "nonpayable",
      "type": "function"
    },
    {
      "inputs": [
        {
          "internalType": "uint256",
          "name": "_expertPerc",
          "type": "uint256"
        }
      ],
      "name": "setExpertPerc",
      "outputs": [],
      "stateMutability": "nonpayable",
      "type": "function"
    },
    {
      "inputs": [
        {
          "internalType": "uint256",
          "name": "_firstWithdrawIndex",
          "type": "uint256"
        }
      ],
      "name": "setFirstWithdraw",
      "outputs": [],
      "stateMutability": "nonpayable",
      "type": "function"
    },
    {
      "inputs": [
        {
          "internalType": "uint256",
          "name": "_GFindex",
          "type": "uint256"
        }
      ],
      "name": "setGFindex",
      "outputs": [],
      "stateMutability": "nonpayable",
      "type": "function"
    },
    {
      "inputs": [
        {
          "internalType": "uint256",
          "name": "_GFrewards",
          "type": "uint256"
        }
      ],
      "name": "setGFrewards",
      "outputs": [],
      "stateMutability": "nonpayable",
      "type": "function"
    },
    {
      "inputs": [
        {
          "internalType": "uint256",
          "name": "_hostPercMint",
          "type": "uint256"
        },
        {
          "internalType": "uint256",
          "name": "_hostPerc",
          "type": "uint256"
        }
      ],
      "name": "setHostPerc",
      "outputs": [],
      "stateMutability": "nonpayable",
      "type": "function"
    },
    {
      "inputs": [
        {
          "internalType": "uint256",
          "name": "_playerPers",
          "type": "uint256"
        }
      ],
      "name": "setPlayerPers",
      "outputs": [],
      "stateMutability": "nonpayable",
      "type": "function"
    },
    {
      "inputs": [
        {
          "internalType": "uint256",
          "name": "_welcomeBTYTokens",
          "type": "uint256"
        }
      ],
      "name": "setWelcomeBTYTokens",
      "outputs": [],
      "stateMutability": "nonpayable",
      "type": "function"
    },
    {
      "inputs": [
        {
          "internalType": "uint256",
          "name": "_startTime",
          "type": "uint256"
        },
        {
          "internalType": "uint256",
          "name": "_endTime",
          "type": "uint256"
        }
      ],
      "name": "timeAnswer",
      "outputs": [
        {
          "internalType": "int8",
          "name": "",
          "type": "int8"
        }
      ],
      "stateMutability": "view",
      "type": "function"
    },
    {
      "inputs": [
        {
          "internalType": "uint256",
          "name": "_endTime",
          "type": "uint256"
        }
      ],
      "name": "timeValidate",
      "outputs": [
        {
          "internalType": "int8",
          "name": "",
          "type": "int8"
        }
      ],
      "stateMutability": "view",
      "type": "function"
    },
    {
      "inputs": [],
      "name": "welcomeBTYTokens",
      "outputs": [
        {
          "internalType": "uint256",
          "name": "",
          "type": "uint256"
        }
      ],
      "stateMutability": "view",
      "type": "function"
    },
    {
      "inputs": [
        {
          "internalType": "int256",
          "name": "_id",
          "type": "int256"
        },
        {
          "internalType": "uint256",
          "name": "_startTime",
          "type": "uint256"
        },
        {
          "internalType": "uint256",
          "name": "_endTime",
          "type": "uint256"
        },
        {
          "internalType": "uint8",
          "name": "_questionQuantity",
          "type": "uint8"
        },
        {
          "internalType": "address",
          "name": "_host",
          "type": "address"
        }
      ],
      "name": "createEvent",
      "outputs": [],
      "stateMutability": "nonpayable",
      "type": "function"
    },
    {
      "inputs": [
        {
          "internalType": "int256",
          "name": "_id",
          "type": "int256"
        },
        {
          "internalType": "address",
          "name": "_correctAnswerSetter",
          "type": "address"
        }
      ],
      "name": "setRoleOfAdmin",
      "outputs": [],
      "stateMutability": "nonpayable",
      "type": "function"
    },
    {
      "inputs": [
        {
          "internalType": "int256",
          "name": "_id",
          "type": "int256"
        },
        {
          "internalType": "uint8",
          "name": "_whichAnswer",
          "type": "uint8"
        },
        {
          "internalType": "address",
          "name": "_playerWallet",
          "type": "address"
        }
      ],
      "name": "setAnswer",
      "outputs": [],
      "stateMutability": "nonpayable",
      "type": "function"
    },
    {
      "inputs": [
        {
          "internalType": "int256",
          "name": "_id",
          "type": "int256"
        },
        {
          "internalType": "uint8",
          "name": "_correctAnswer",
          "type": "uint8"
        },
        {
          "internalType": "address",
          "name": "_expertWallet",
          "type": "address"
        }
      ],
      "name": "setCorrectAnswer",
      "outputs": [],
      "stateMutability": "nonpayable",
      "type": "function"
    }
  ],
  "bytecode": "0x6080604052600a600055600a600155600a6002556004600355600a60045560046005556002600655600f600755600260085560016009556001600a556001600b55600a600d5568056bc75e2d63100000600e556001600f55678ac7230489e800006010556005601355600260155534801561007957600080fd5b5033601160006101000a81548173ffffffffffffffffffffffffffffffffffffffff021916908373ffffffffffffffffffffffffffffffffffffffff1602179055506119c1806100ca6000396000f3fe608060405234801561001057600080fd5b50600436106102275760003560e01c80639b09434d11610130578063d7a86da7116100b8578063e1aea5231161007c578063e1aea523146107be578063e1dcc409146107ec578063e50ac3721461080a578063ef99e09914610865578063f7ec58511461088357610227565b8063d7a86da714610708578063dba8fe8714610736578063dd3c228314610754578063df18581714610782578063e1755c6a146107a057610227565b8063b2fba7e1116100ff578063b2fba7e114610611578063b44901e814610680578063c12c8c461461069e578063c369085e146106bc578063cd095085146106ea57610227565b80639b09434d1461053f578063a03c66971461058d578063af9ace45146105bb578063b1642b50146105d957610227565b806355e84158116101b3578063896aa7a411610182578063896aa7a4146104835780638a9dbda7146104a15780638da5cb5b146104bf5780638fc8bc42146104f35780639580de671461051157610227565b806355e84158146103b857806367c4877d146103d6578063786508c514610431578063802cc34c1461044f57610227565b806324beedd3116101fa57806324beedd3146102db5780632c316d05146102f95780632e63e452146103175780633467f6971461033557806354f6db741461036957610227565b806315cfe4191461022c57806319d6b7d81461024a5780631c40835714610278578063246fe64714610296575b600080fd5b6102346108a1565b6040518082815260200191505060405180910390f35b6102766004803603602081101561026057600080fd5b81019080803590602001909291905050506108a7565b005b610280610957565b6040518082815260200191505060405180910390f35b6102c2600480360360208110156102ac57600080fd5b810190808035906020019092919050505061095d565b604051808260000b815260200191505060405180910390f35b6102e361097b565b6040518082815260200191505060405180910390f35b610301610981565b6040518082815260200191505060405180910390f35b61031f610987565b6040518082815260200191505060405180910390f35b61033d61098d565b604051808273ffffffffffffffffffffffffffffffffffffffff16815260200191505060405180910390f35b61039f6004803603604081101561037f57600080fd5b8101908080359060200190929190803590602001909291905050506109b3565b604051808260000b815260200191505060405180910390f35b6103c06109e5565b6040518082815260200191505060405180910390f35b61042f600480360360608110156103ec57600080fd5b8101908080359060200190929190803560ff169060200190929190803573ffffffffffffffffffffffffffffffffffffffff1690602001909291905050506109eb565b005b610439610d98565b6040518082815260200191505060405180910390f35b610457610d9e565b604051808273ffffffffffffffffffffffffffffffffffffffff16815260200191505060405180910390f35b61048b610dc4565b6040518082815260200191505060405180910390f35b6104a9610dca565b6040518082815260200191505060405180910390f35b6104c7610dd0565b604051808273ffffffffffffffffffffffffffffffffffffffff16815260200191505060405180910390f35b6104fb610df6565b6040518082815260200191505060405180910390f35b61053d6004803603602081101561052757600080fd5b8101908080359060200190929190505050610dfc565b005b61058b6004803603604081101561055557600080fd5b8101908080359060200190929190803573ffffffffffffffffffffffffffffffffffffffff169060200190929190505050610eac565b005b6105b9600480360360208110156105a357600080fd5b8101908080359060200190929190505050610fab565b005b6105c361105b565b6040518082815260200191505060405180910390f35b61060f600480360360408110156105ef57600080fd5b810190808035906020019092919080359060200190929190505050611061565b005b61067e600480360360a081101561062757600080fd5b81019080803590602001909291908035906020019092919080359060200190929190803560ff169060200190929190803573ffffffffffffffffffffffffffffffffffffffff169060200190929190505050611119565b005b61068861129b565b6040518082815260200191505060405180910390f35b6106a66112a1565b6040518082815260200191505060405180910390f35b6106e8600480360360208110156106d257600080fd5b81019080803590602001909291905050506112a7565b005b6106f2611357565b6040518082815260200191505060405180910390f35b6107346004803603602081101561071e57600080fd5b810190808035906020019092919050505061135d565b005b61073e61140d565b6040518082815260200191505060405180910390f35b6107806004803603602081101561076a57600080fd5b8101908080359060200190929190505050611413565b005b61078a6114c3565b6040518082815260200191505060405180910390f35b6107a86114c9565b6040518082815260200191505060405180910390f35b6107ea600480360360208110156107d457600080fd5b81019080803590602001909291905050506114cf565b005b6107f461157f565b6040518082815260200191505060405180910390f35b6108636004803603606081101561082057600080fd5b8101908080359060200190929190803560ff169060200190929190803573ffffffffffffffffffffffffffffffffffffffff169060200190929190505050611585565b005b61086d6118d1565b6040518082815260200191505060405180910390f35b61088b6118df565b6040518082815260200191505060405180910390f35b600f5481565b601160009054906101000a900473ffffffffffffffffffffffffffffffffffffffff1673ffffffffffffffffffffffffffffffffffffffff163373ffffffffffffffffffffffffffffffffffffffff161461094d576040517f08c379a000000000000000000000000000000000000000000000000000000000815260040180806020018281038252603181526020018061195b6031913960400191505060405180910390fd5b8060108190555050565b60005481565b600080824203126109715760009050610976565b600190505b919050565b60155481565b60065481565b60105481565b601460009054906101000a900473ffffffffffffffffffffffffffffffffffffffff1681565b600080834203126109da576000428303126109d157600090506109df565b600290506109df565b600190505b92915050565b600b5481565b601160009054906101000a900473ffffffffffffffffffffffffffffffffffffffff1673ffffffffffffffffffffffffffffffffffffffff163373ffffffffffffffffffffffffffffffffffffffff1614610a91576040517f08c379a000000000000000000000000000000000000000000000000000000000815260040180806020018281038252603181526020018061195b6031913960400191505060405180910390fd5b600073ffffffffffffffffffffffffffffffffffffffff166016600085815260200190815260200160002060070160009054906101000a900473ffffffffffffffffffffffffffffffffffffffff1673ffffffffffffffffffffffffffffffffffffffff1614610bb6576016600084815260200190815260200160002060070160009054906101000a900473ffffffffffffffffffffffffffffffffffffffff1673ffffffffffffffffffffffffffffffffffffffff168173ffffffffffffffffffffffffffffffffffffffff1614610bb5576040517f08c379a000000000000000000000000000000000000000000000000000000000815260040180806020018281038252602b815260200180611930602b913960400191505060405180910390fd5b5b6002610bee601660008681526020019081526020016000206001015460166000878152602001908152602001600020600201546109b3565b60000b14610c64576040517f08c379a000000000000000000000000000000000000000000000000000000000815260040180806020018281038252601c8152602001807f54696d65206973206e6f742076616c696420666f72206578706572740000000081525060200191505060405180910390fd5b600115156016600085815260200190815260200160002060050160008373ffffffffffffffffffffffffffffffffffffffff1673ffffffffffffffffffffffffffffffffffffffff16815260200190815260200160002060009054906101000a900460ff1615151415610d22576040517f08c379a000000000000000000000000000000000000000000000000000000000815260040180806020018281038252602181526020018061190f6021913960400191505060405180910390fd5b816016600085815260200190815260200160002060030160006101000a81548160ff021916908360ff1602179055507ff5a70ce65e816e264ea92e606a76d4f13a670b9479aadd125199f7a3e42be5ff8383604051808381526020018260ff1681526020019250505060405180910390a1505050565b60095481565b601260009054906101000a900473ffffffffffffffffffffffffffffffffffffffff1681565b60055481565b60025481565b601160009054906101000a900473ffffffffffffffffffffffffffffffffffffffff1681565b60035481565b601160009054906101000a900473ffffffffffffffffffffffffffffffffffffffff1673ffffffffffffffffffffffffffffffffffffffff163373ffffffffffffffffffffffffffffffffffffffff1614610ea2576040517f08c379a000000000000000000000000000000000000000000000000000000000815260040180806020018281038252603181526020018061195b6031913960400191505060405180910390fd5b8060058190555050565b601160009054906101000a900473ffffffffffffffffffffffffffffffffffffffff1673ffffffffffffffffffffffffffffffffffffffff163373ffffffffffffffffffffffffffffffffffffffff1614610f52576040517f08c379a000000000000000000000000000000000000000000000000000000000815260040180806020018281038252603181526020018061195b6031913960400191505060405180910390fd5b806016600084815260200190815260200160002060070160006101000a81548173ffffffffffffffffffffffffffffffffffffffff021916908373ffffffffffffffffffffffffffffffffffffffff1602179055505050565b601160009054906101000a900473ffffffffffffffffffffffffffffffffffffffff1673ffffffffffffffffffffffffffffffffffffffff163373ffffffffffffffffffffffffffffffffffffffff1614611051576040517f08c379a000000000000000000000000000000000000000000000000000000000815260040180806020018281038252603181526020018061195b6031913960400191505060405180910390fd5b80600d8190555050565b60045481565b601160009054906101000a900473ffffffffffffffffffffffffffffffffffffffff1673ffffffffffffffffffffffffffffffffffffffff163373ffffffffffffffffffffffffffffffffffffffff1614611107576040517f08c379a000000000000000000000000000000000000000000000000000000000815260040180806020018281038252603181526020018061195b6031913960400191505060405180910390fd5b81600281905550806003819055505050565b601160009054906101000a900473ffffffffffffffffffffffffffffffffffffffff1673ffffffffffffffffffffffffffffffffffffffff163373ffffffffffffffffffffffffffffffffffffffff16146111bf576040517f08c379a000000000000000000000000000000000000000000000000000000000815260040180806020018281038252603181526020018061195b6031913960400191505060405180910390fd5b846016600087815260200190815260200160002060000181905550836016600087815260200190815260200160002060010181905550826016600087815260200190815260200160002060020181905550806016600087815260200190815260200160002060060160016101000a81548173ffffffffffffffffffffffffffffffffffffffff021916908373ffffffffffffffffffffffffffffffffffffffff160217905550816016600087815260200190815260200160002060060160006101000a81548160ff021916908360ff1602179055505050505050565b600d5481565b600a5481565b601160009054906101000a900473ffffffffffffffffffffffffffffffffffffffff1673ffffffffffffffffffffffffffffffffffffffff163373ffffffffffffffffffffffffffffffffffffffff161461134d576040517f08c379a000000000000000000000000000000000000000000000000000000000815260040180806020018281038252603181526020018061195b6031913960400191505060405180910390fd5b80600f8190555050565b600c5481565b601160009054906101000a900473ffffffffffffffffffffffffffffffffffffffff1673ffffffffffffffffffffffffffffffffffffffff163373ffffffffffffffffffffffffffffffffffffffff1614611403576040517f08c379a000000000000000000000000000000000000000000000000000000000815260040180806020018281038252603181526020018061195b6031913960400191505060405180910390fd5b80600e8190555050565b60075481565b601160009054906101000a900473ffffffffffffffffffffffffffffffffffffffff1673ffffffffffffffffffffffffffffffffffffffff163373ffffffffffffffffffffffffffffffffffffffff16146114b9576040517f08c379a000000000000000000000000000000000000000000000000000000000815260040180806020018281038252603181526020018061195b6031913960400191505060405180910390fd5b8060008190555050565b600e5481565b60135481565b601160009054906101000a900473ffffffffffffffffffffffffffffffffffffffff1673ffffffffffffffffffffffffffffffffffffffff163373ffffffffffffffffffffffffffffffffffffffff1614611575576040517f08c379a000000000000000000000000000000000000000000000000000000000815260040180806020018281038252603181526020018061195b6031913960400191505060405180910390fd5b80600c8190555050565b60015481565b601160009054906101000a900473ffffffffffffffffffffffffffffffffffffffff1673ffffffffffffffffffffffffffffffffffffffff163373ffffffffffffffffffffffffffffffffffffffff161461162b576040517f08c379a000000000000000000000000000000000000000000000000000000000815260040180806020018281038252603181526020018061195b6031913960400191505060405180910390fd5b6000611663601660008681526020019081526020016000206001015460166000878152602001908152602001600020600201546109b3565b60000b146116d9576040517f08c379a000000000000000000000000000000000000000000000000000000000815260040180806020018281038252601d8152602001807f54696d65206973206e6f742076616c696420666f7220706c617965727300000081525060200191505060405180910390fd5b600115156016600085815260200190815260200160002060050160008373ffffffffffffffffffffffffffffffffffffffff1673ffffffffffffffffffffffffffffffffffffffff16815260200190815260200160002060009054906101000a900460ff1615151415611797576040517f08c379a000000000000000000000000000000000000000000000000000000000815260040180806020018281038252602181526020018061190f6021913960400191505060405180910390fd5b61179f6118e5565b60405180602001604052808373ffffffffffffffffffffffffffffffffffffffff16815250905060016016600086815260200190815260200160002060050160008473ffffffffffffffffffffffffffffffffffffffff1673ffffffffffffffffffffffffffffffffffffffff16815260200190815260200160002060006101000a81548160ff0219169083151502179055506016600085815260200190815260200160002060040160008460ff168152602001908152602001600020819080600181540180825580915050600190039060005260206000200160009091909190915060008201518160000160006101000a81548173ffffffffffffffffffffffffffffffffffffffff021916908373ffffffffffffffffffffffffffffffffffffffff160217905550505050505050565b6000600d5460105402905090565b60085481565b6040518060200160405280600073ffffffffffffffffffffffffffffffffffffffff168152509056fe7573657220616c726561647920706172746963697061746520696e206576656e7457616c6c657420736574746572206f6620636f7265637420616e7377657220697320696e636f7272656374546869732066756e6374696f6e20636f756c64206f6e6c7920626520657865637574656420627920746865206f776e6572a26469706673582212201bd0ff4177170095dc35a2587903ad72e66622567c2e06782748f26c4e31319a64736f6c63430007060033",
  "immutableReferences": {},
  "source": "// SPDX-License-Identifier: MIT\npragma solidity >=0.4.22 <0.9.0;\n\nimport {PrivStruct} from \"../struct/PrivStruct.sol\";\nimport {TimeValidation} from \"../helpers/TimeValidation.sol\";\nimport {ConfigVariables} from \"../config/ConfigVariables.sol\";\n\ncontract PrivateEvents is TimeValidation, ConfigVariables {\n    constructor() {}\n\n    event eventIsFinish(int256 question_id, uint8 correctAnswer);\n    mapping(int256 => PrivStruct.EventData) events;\n\n    function createEvent(\n        int256 _id,\n        uint256 _startTime,\n        uint256 _endTime,\n        uint8 _questionQuantity,\n        address _host\n    ) public ownerOnly() {\n        events[_id].id = _id;\n        events[_id].startTime = _startTime;\n        events[_id].endTime = _endTime;\n        events[_id].host = _host;\n        events[_id].questionQuantity = _questionQuantity;\n    }\n\n    function setRoleOfAdmin(int256 _id, address _correctAnswerSetter)\n        public\n        ownerOnly()\n    {\n        events[_id].correctAnswerSetter = _correctAnswerSetter;\n    }\n\n    function setAnswer(\n        int256 _id,\n        uint8 _whichAnswer,\n        address _playerWallet\n    ) public ownerOnly() {\n        require(\n            timeAnswer(events[_id].startTime, events[_id].endTime) == 0,\n            \"Time is not valid for players\"\n        );\n        require(\n            events[_id].allPlayers[_playerWallet] != true,\n            \"user already participate in event\"\n        );\n\n        PrivStruct.Player memory play;\n        play = PrivStruct.Player(_playerWallet);\n        events[_id].allPlayers[_playerWallet] = true;\n        events[_id].player[_whichAnswer].push(play);\n    }\n\n    function setCorrectAnswer(\n        int256 _id,\n        uint8 _correctAnswer,\n        address _expertWallet\n    ) public ownerOnly() {\n        if (events[_id].correctAnswerSetter != address(0)) {\n            require(\n                _expertWallet == events[_id].correctAnswerSetter,\n                \"Wallet setter of corect answer is incorrect\"\n            );\n        }\n\n        require(\n            timeAnswer(events[_id].startTime, events[_id].endTime) == 2,\n            \"Time is not valid for expert\"\n        );\n        require(\n            events[_id].allPlayers[_expertWallet] != true,\n            \"user already participate in event\"\n        );\n        events[_id].correctAnswer = _correctAnswer;\n\n        emit eventIsFinish(_id, _correctAnswer);\n    }\n}\n",
  "sourcePath": "/Users/macbook/Documents/freelance/tokenominc/contracts/events/PrivateEvents.sol",
  "compiler": {
    "name": "solc",
    "version": "0.7.6+commit.7338295f.Linux.g++"
  },
  "schemaVersion": "3.2.2",
  "updatedAt": "2021-03-05T14:04:08.108Z",
  "devdoc": {
    "kind": "dev",
    "methods": {},
    "version": 1
  },
  "userdoc": {
    "kind": "user",
    "methods": {},
    "version": 1
  }
}