{
  "contractName": "PrivateEvents",
  "abi": [
    {
      "inputs": [],
      "stateMutability": "nonpayable",
      "type": "constructor"
    },
    {
      "anonymous": false,
      "inputs": [
        {
          "indexed": false,
          "internalType": "int256",
          "name": "question_id",
          "type": "int256"
        },
        {
          "indexed": false,
          "internalType": "uint8",
          "name": "correctAnswer",
          "type": "uint8"
        }
      ],
      "name": "eventIsFinish",
      "type": "event"
    },
    {
      "inputs": [],
      "name": "getCompanyPerc",
      "outputs": [
        {
          "internalType": "uint256",
          "name": "",
          "type": "uint256"
        }
      ],
      "stateMutability": "view",
      "type": "function"
    },
    {
      "inputs": [],
      "name": "getExpertPerc",
      "outputs": [
        {
          "internalType": "uint256",
          "name": "",
          "type": "uint256"
        }
      ],
      "stateMutability": "view",
      "type": "function"
    },
    {
      "inputs": [],
      "name": "getFirstWithdraw",
      "outputs": [
        {
          "internalType": "uint256",
          "name": "",
          "type": "uint256"
        }
      ],
      "stateMutability": "view",
      "type": "function"
    },
    {
      "inputs": [],
      "name": "getGFindex",
      "outputs": [
        {
          "internalType": "uint256",
          "name": "",
          "type": "uint256"
        }
      ],
      "stateMutability": "view",
      "type": "function"
    },
    {
      "inputs": [],
      "name": "getGFrewards",
      "outputs": [
        {
          "internalType": "uint256",
          "name": "",
          "type": "uint256"
        }
      ],
      "stateMutability": "view",
      "type": "function"
    },
    {
      "inputs": [],
      "name": "getHostPerc",
      "outputs": [
        {
          "internalType": "uint256",
          "name": "",
          "type": "uint256"
        }
      ],
      "stateMutability": "view",
      "type": "function"
    },
    {
      "inputs": [],
      "name": "getPlayerPers",
      "outputs": [
        {
          "internalType": "uint256",
          "name": "",
          "type": "uint256"
        }
      ],
      "stateMutability": "view",
      "type": "function"
    },
    {
      "inputs": [],
      "name": "getWelcomeBTYTokens",
      "outputs": [
        {
          "internalType": "uint256",
          "name": "",
          "type": "uint256"
        }
      ],
      "stateMutability": "view",
      "type": "function"
    },
    {
      "inputs": [
        {
          "internalType": "uint256",
          "name": "_companyPerc",
          "type": "uint256"
        }
      ],
      "name": "setCompanyPerc",
      "outputs": [],
      "stateMutability": "nonpayable",
      "type": "function"
    },
    {
      "inputs": [
        {
          "internalType": "uint256",
          "name": "_expertPerc",
          "type": "uint256"
        }
      ],
      "name": "setExpertPerc",
      "outputs": [],
      "stateMutability": "nonpayable",
      "type": "function"
    },
    {
      "inputs": [
        {
          "internalType": "uint256",
          "name": "_firstWithdrawIndex",
          "type": "uint256"
        }
      ],
      "name": "setFirstWithdraw",
      "outputs": [],
      "stateMutability": "nonpayable",
      "type": "function"
    },
    {
      "inputs": [
        {
          "internalType": "uint256",
          "name": "_GFindex",
          "type": "uint256"
        }
      ],
      "name": "setGFindex",
      "outputs": [],
      "stateMutability": "nonpayable",
      "type": "function"
    },
    {
      "inputs": [
        {
          "internalType": "uint256",
          "name": "_GFrewards",
          "type": "uint256"
        }
      ],
      "name": "setGFrewards",
      "outputs": [],
      "stateMutability": "nonpayable",
      "type": "function"
    },
    {
      "inputs": [
        {
          "internalType": "uint256",
          "name": "_hostPerc",
          "type": "uint256"
        }
      ],
      "name": "setHostPerc",
      "outputs": [],
      "stateMutability": "nonpayable",
      "type": "function"
    },
    {
      "inputs": [
        {
          "internalType": "uint256",
          "name": "_playerPers",
          "type": "uint256"
        }
      ],
      "name": "setPlayerPers",
      "outputs": [],
      "stateMutability": "nonpayable",
      "type": "function"
    },
    {
      "inputs": [
        {
          "internalType": "uint256",
          "name": "_welcomeBTYTokens",
          "type": "uint256"
        }
      ],
      "name": "setWelcomeBTYTokens",
      "outputs": [],
      "stateMutability": "nonpayable",
      "type": "function"
    },
    {
      "inputs": [
        {
          "internalType": "uint256",
          "name": "_startTime",
          "type": "uint256"
        },
        {
          "internalType": "uint256",
          "name": "_endTime",
          "type": "uint256"
        }
      ],
      "name": "timeAnswer",
      "outputs": [
        {
          "internalType": "int8",
          "name": "",
          "type": "int8"
        }
      ],
      "stateMutability": "view",
      "type": "function"
    },
    {
      "inputs": [
        {
          "internalType": "uint256",
          "name": "_endTime",
          "type": "uint256"
        }
      ],
      "name": "timeValidate",
      "outputs": [
        {
          "internalType": "int8",
          "name": "",
          "type": "int8"
        }
      ],
      "stateMutability": "view",
      "type": "function"
    },
    {
      "inputs": [
        {
          "internalType": "int256",
          "name": "_id",
          "type": "int256"
        },
        {
          "internalType": "uint256",
          "name": "_startTime",
          "type": "uint256"
        },
        {
          "internalType": "uint256",
          "name": "_endTime",
          "type": "uint256"
        },
        {
          "internalType": "uint8",
          "name": "_questionQuantity",
          "type": "uint8"
        },
        {
          "internalType": "address",
          "name": "_host",
          "type": "address"
        }
      ],
      "name": "createEvent",
      "outputs": [],
      "stateMutability": "nonpayable",
      "type": "function"
    },
    {
      "inputs": [
        {
          "internalType": "int256",
          "name": "_id",
          "type": "int256"
        },
        {
          "internalType": "address",
          "name": "_correctAnswerSetter",
          "type": "address"
        }
      ],
      "name": "setRoleOfAdmin",
      "outputs": [],
      "stateMutability": "nonpayable",
      "type": "function"
    },
    {
      "inputs": [
        {
          "internalType": "int256",
          "name": "_id",
          "type": "int256"
        },
        {
          "internalType": "uint8",
          "name": "_whichAnswer",
          "type": "uint8"
        },
        {
          "internalType": "address",
          "name": "_playerWallet",
          "type": "address"
        }
      ],
      "name": "setAnswer",
      "outputs": [],
      "stateMutability": "nonpayable",
      "type": "function"
    },
    {
      "inputs": [
        {
          "internalType": "int256",
          "name": "_id",
          "type": "int256"
        },
        {
          "internalType": "uint8",
          "name": "_correctAnswer",
          "type": "uint8"
        },
        {
          "internalType": "address",
          "name": "_expertWallet",
          "type": "address"
        }
      ],
      "name": "setCorrectAnswer",
      "outputs": [],
      "stateMutability": "nonpayable",
      "type": "function"
    }
  ],
  "bytecode": "0x6080604052600a60055568056bc75e2d631000006006556001600755678ac7230489e8000060085534801561003357600080fd5b5033600460006101000a81548173ffffffffffffffffffffffffffffffffffffffff021916908373ffffffffffffffffffffffffffffffffffffffff160217905550611627806100846000396000f3fe608060405234801561001057600080fd5b50600436106101425760003560e01c8063a03c6697116100b8578063d70b4bb61161007c578063d70b4bb61461049d578063d7a86da7146104bb578063e1aea523146104e9578063e50ac37214610517578063e640a53314610572578063ef99e0991461059057610142565b8063a03c669714610396578063b2fba7e1146103c4578063be8968aa14610433578063c369085e14610451578063ca2f2f7a1461047f57610142565b806354f6db741161010a57806354f6db741461023457806367c4877d14610283578063782f4a4f146102de5780639580de67146102fc578063997862cb1461032a5780639b09434d1461034857610142565b80630328ff4a1461014757806319d6b7d81461017557806324467c45146101a3578063246fe647146101d1578063282dc54614610216575b600080fd5b6101736004803603602081101561015d57600080fd5b81019080803590602001909291905050506105ae565b005b6101a16004803603602081101561018b57600080fd5b810190808035906020019092919050505061065e565b005b6101cf600480360360208110156101b957600080fd5b810190808035906020019092919050505061070e565b005b6101fd600480360360208110156101e757600080fd5b81019080803590602001909291905050506107be565b604051808260000b815260200191505060405180910390f35b61021e6107dc565b6040518082815260200191505060405180910390f35b61026a6004803603604081101561024a57600080fd5b8101908080359060200190929190803590602001909291905050506107e6565b604051808260000b815260200191505060405180910390f35b6102dc6004803603606081101561029957600080fd5b8101908080359060200190929190803560ff169060200190929190803573ffffffffffffffffffffffffffffffffffffffff169060200190929190505050610818565b005b6102e6610bc5565b6040518082815260200191505060405180910390f35b6103286004803603602081101561031257600080fd5b8101908080359060200190929190505050610bcf565b005b610332610c7f565b6040518082815260200191505060405180910390f35b6103946004803603604081101561035e57600080fd5b8101908080359060200190929190803573ffffffffffffffffffffffffffffffffffffffff169060200190929190505050610c89565b005b6103c2600480360360208110156103ac57600080fd5b8101908080359060200190929190505050610d88565b005b610431600480360360a08110156103da57600080fd5b81019080803590602001909291908035906020019092919080359060200190929190803560ff169060200190929190803573ffffffffffffffffffffffffffffffffffffffff169060200190929190505050610e38565b005b61043b610fba565b6040518082815260200191505060405180910390f35b61047d6004803603602081101561046757600080fd5b8101908080359060200190929190505050610fc4565b005b610487611074565b6040518082815260200191505060405180910390f35b6104a561107d565b6040518082815260200191505060405180910390f35b6104e7600480360360208110156104d157600080fd5b8101908080359060200190929190505050611087565b005b610515600480360360208110156104ff57600080fd5b8101908080359060200190929190505050611137565b005b6105706004803603606081101561052d57600080fd5b8101908080359060200190929190803560ff169060200190929190803573ffffffffffffffffffffffffffffffffffffffff1690602001909291905050506111e7565b005b61057a611533565b6040518082815260200191505060405180910390f35b61059861153d565b6040518082815260200191505060405180910390f35b600460009054906101000a900473ffffffffffffffffffffffffffffffffffffffff1673ffffffffffffffffffffffffffffffffffffffff163373ffffffffffffffffffffffffffffffffffffffff1614610654576040517f08c379a00000000000000000000000000000000000000000000000000000000081526004018080602001828103825260318152602001806115c16031913960400191505060405180910390fd5b8060018190555050565b600460009054906101000a900473ffffffffffffffffffffffffffffffffffffffff1673ffffffffffffffffffffffffffffffffffffffff163373ffffffffffffffffffffffffffffffffffffffff1614610704576040517f08c379a00000000000000000000000000000000000000000000000000000000081526004018080602001828103825260318152602001806115c16031913960400191505060405180910390fd5b8060088190555050565b600460009054906101000a900473ffffffffffffffffffffffffffffffffffffffff1673ffffffffffffffffffffffffffffffffffffffff163373ffffffffffffffffffffffffffffffffffffffff16146107b4576040517f08c379a00000000000000000000000000000000000000000000000000000000081526004018080602001828103825260318152602001806115c16031913960400191505060405180910390fd5b8060008190555050565b600080824203126107d257600090506107d7565b600190505b919050565b6000600854905090565b6000808342031261080d576000428303126108045760009050610812565b60029050610812565b600190505b92915050565b600460009054906101000a900473ffffffffffffffffffffffffffffffffffffffff1673ffffffffffffffffffffffffffffffffffffffff163373ffffffffffffffffffffffffffffffffffffffff16146108be576040517f08c379a00000000000000000000000000000000000000000000000000000000081526004018080602001828103825260318152602001806115c16031913960400191505060405180910390fd5b600073ffffffffffffffffffffffffffffffffffffffff166009600085815260200190815260200160002060070160009054906101000a900473ffffffffffffffffffffffffffffffffffffffff1673ffffffffffffffffffffffffffffffffffffffff16146109e3576009600084815260200190815260200160002060070160009054906101000a900473ffffffffffffffffffffffffffffffffffffffff1673ffffffffffffffffffffffffffffffffffffffff168173ffffffffffffffffffffffffffffffffffffffff16146109e2576040517f08c379a000000000000000000000000000000000000000000000000000000000815260040180806020018281038252602b815260200180611596602b913960400191505060405180910390fd5b5b6002610a1b600960008681526020019081526020016000206001015460096000878152602001908152602001600020600201546107e6565b60000b14610a91576040517f08c379a000000000000000000000000000000000000000000000000000000000815260040180806020018281038252601c8152602001807f54696d65206973206e6f742076616c696420666f72206578706572740000000081525060200191505060405180910390fd5b600115156009600085815260200190815260200160002060050160008373ffffffffffffffffffffffffffffffffffffffff1673ffffffffffffffffffffffffffffffffffffffff16815260200190815260200160002060009054906101000a900460ff1615151415610b4f576040517f08c379a00000000000000000000000000000000000000000000000000000000081526004018080602001828103825260218152602001806115756021913960400191505060405180910390fd5b816009600085815260200190815260200160002060030160006101000a81548160ff021916908360ff1602179055507ff5a70ce65e816e264ea92e606a76d4f13a670b9479aadd125199f7a3e42be5ff8383604051808381526020018260ff1681526020019250505060405180910390a1505050565b6000600654905090565b600460009054906101000a900473ffffffffffffffffffffffffffffffffffffffff1673ffffffffffffffffffffffffffffffffffffffff163373ffffffffffffffffffffffffffffffffffffffff1614610c75576040517f08c379a00000000000000000000000000000000000000000000000000000000081526004018080602001828103825260318152602001806115c16031913960400191505060405180910390fd5b8060028190555050565b6000600354905090565b600460009054906101000a900473ffffffffffffffffffffffffffffffffffffffff1673ffffffffffffffffffffffffffffffffffffffff163373ffffffffffffffffffffffffffffffffffffffff1614610d2f576040517f08c379a00000000000000000000000000000000000000000000000000000000081526004018080602001828103825260318152602001806115c16031913960400191505060405180910390fd5b806009600084815260200190815260200160002060070160006101000a81548173ffffffffffffffffffffffffffffffffffffffff021916908373ffffffffffffffffffffffffffffffffffffffff1602179055505050565b600460009054906101000a900473ffffffffffffffffffffffffffffffffffffffff1673ffffffffffffffffffffffffffffffffffffffff163373ffffffffffffffffffffffffffffffffffffffff1614610e2e576040517f08c379a00000000000000000000000000000000000000000000000000000000081526004018080602001828103825260318152602001806115c16031913960400191505060405180910390fd5b8060058190555050565b600460009054906101000a900473ffffffffffffffffffffffffffffffffffffffff1673ffffffffffffffffffffffffffffffffffffffff163373ffffffffffffffffffffffffffffffffffffffff1614610ede576040517f08c379a00000000000000000000000000000000000000000000000000000000081526004018080602001828103825260318152602001806115c16031913960400191505060405180910390fd5b846009600087815260200190815260200160002060000181905550836009600087815260200190815260200160002060010181905550826009600087815260200190815260200160002060020181905550806009600087815260200190815260200160002060060160016101000a81548173ffffffffffffffffffffffffffffffffffffffff021916908373ffffffffffffffffffffffffffffffffffffffff160217905550816009600087815260200190815260200160002060060160006101000a81548160ff021916908360ff1602179055505050505050565b6000600154905090565b600460009054906101000a900473ffffffffffffffffffffffffffffffffffffffff1673ffffffffffffffffffffffffffffffffffffffff163373ffffffffffffffffffffffffffffffffffffffff161461106a576040517f08c379a00000000000000000000000000000000000000000000000000000000081526004018080602001828103825260318152602001806115c16031913960400191505060405180910390fd5b8060078190555050565b60008054905090565b6000600754905090565b600460009054906101000a900473ffffffffffffffffffffffffffffffffffffffff1673ffffffffffffffffffffffffffffffffffffffff163373ffffffffffffffffffffffffffffffffffffffff161461112d576040517f08c379a00000000000000000000000000000000000000000000000000000000081526004018080602001828103825260318152602001806115c16031913960400191505060405180910390fd5b8060068190555050565b600460009054906101000a900473ffffffffffffffffffffffffffffffffffffffff1673ffffffffffffffffffffffffffffffffffffffff163373ffffffffffffffffffffffffffffffffffffffff16146111dd576040517f08c379a00000000000000000000000000000000000000000000000000000000081526004018080602001828103825260318152602001806115c16031913960400191505060405180910390fd5b8060038190555050565b600460009054906101000a900473ffffffffffffffffffffffffffffffffffffffff1673ffffffffffffffffffffffffffffffffffffffff163373ffffffffffffffffffffffffffffffffffffffff161461128d576040517f08c379a00000000000000000000000000000000000000000000000000000000081526004018080602001828103825260318152602001806115c16031913960400191505060405180910390fd5b60006112c5600960008681526020019081526020016000206001015460096000878152602001908152602001600020600201546107e6565b60000b1461133b576040517f08c379a000000000000000000000000000000000000000000000000000000000815260040180806020018281038252601d8152602001807f54696d65206973206e6f742076616c696420666f7220706c617965727300000081525060200191505060405180910390fd5b600115156009600085815260200190815260200160002060050160008373ffffffffffffffffffffffffffffffffffffffff1673ffffffffffffffffffffffffffffffffffffffff16815260200190815260200160002060009054906101000a900460ff16151514156113f9576040517f08c379a00000000000000000000000000000000000000000000000000000000081526004018080602001828103825260218152602001806115756021913960400191505060405180910390fd5b61140161154b565b60405180602001604052808373ffffffffffffffffffffffffffffffffffffffff16815250905060016009600086815260200190815260200160002060050160008473ffffffffffffffffffffffffffffffffffffffff1673ffffffffffffffffffffffffffffffffffffffff16815260200190815260200160002060006101000a81548160ff0219169083151502179055506009600085815260200190815260200160002060040160008460ff168152602001908152602001600020819080600181540180825580915050600190039060005260206000200160009091909190915060008201518160000160006101000a81548173ffffffffffffffffffffffffffffffffffffffff021916908373ffffffffffffffffffffffffffffffffffffffff160217905550505050505050565b6000600254905090565b600060055460085402905090565b6040518060200160405280600073ffffffffffffffffffffffffffffffffffffffff168152509056fe7573657220616c726561647920706172746963697061746520696e206576656e7457616c6c657420736574746572206f6620636f7265637420616e7377657220697320696e636f7272656374546869732066756e6374696f6e20636f756c64206f6e6c7920626520657865637574656420627920746865206f776e6572a264697066735822122072250519ac19518376e18d9e7fa6656b54c60c8fcb2e8cba9a0c101bd28e781e64736f6c63430007060033",
  "immutableReferences": {},
  "source": "// SPDX-License-Identifier: MIT\npragma solidity >=0.4.22 <0.9.0;\n\nimport {PrivStruct} from \"../struct/PrivStruct.sol\";\nimport {TimeValidation} from \"../helpers/TimeValidation.sol\";\nimport {ConfigVariables} from \"../config/ConfigVariables.sol\";\n\ncontract PrivateEvents is TimeValidation, ConfigVariables {\n    constructor() {}\n\n    event eventIsFinish(int256 question_id, uint8 correctAnswer);\n    mapping(int256 => PrivStruct.EventData) events;\n\n    function createEvent(\n        int256 _id,\n        uint256 _startTime,\n        uint256 _endTime,\n        uint8 _questionQuantity,\n        address _host\n    ) public ownerOnly() {\n        events[_id].id = _id;\n        events[_id].startTime = _startTime;\n        events[_id].endTime = _endTime;\n        events[_id].host = _host;\n        events[_id].questionQuantity = _questionQuantity;\n    }\n\n    function setRoleOfAdmin(int256 _id, address _correctAnswerSetter)\n        public\n        ownerOnly()\n    {\n        events[_id].correctAnswerSetter = _correctAnswerSetter;\n    }\n\n    function setAnswer(\n        int256 _id,\n        uint8 _whichAnswer,\n        address _playerWallet\n    ) public ownerOnly() {\n        require(\n            timeAnswer(events[_id].startTime, events[_id].endTime) == 0,\n            \"Time is not valid for players\"\n        );\n        require(\n            events[_id].allPlayers[_playerWallet] != true,\n            \"user already participate in event\"\n        );\n\n        PrivStruct.Player memory play;\n        play = PrivStruct.Player(_playerWallet);\n        events[_id].allPlayers[_playerWallet] = true;\n        events[_id].player[_whichAnswer].push(play);\n    }\n\n    function setCorrectAnswer(\n        int256 _id,\n        uint8 _correctAnswer,\n        address _expertWallet\n    ) public ownerOnly() {\n        if (events[_id].correctAnswerSetter != address(0)) {\n            require(\n                _expertWallet == events[_id].correctAnswerSetter,\n                \"Wallet setter of corect answer is incorrect\"\n            );\n        }\n\n        require(\n            timeAnswer(events[_id].startTime, events[_id].endTime) == 2,\n            \"Time is not valid for expert\"\n        );\n        require(\n            events[_id].allPlayers[_expertWallet] != true,\n            \"user already participate in event\"\n        );\n        events[_id].correctAnswer = _correctAnswer;\n\n        emit eventIsFinish(_id, _correctAnswer);\n    }\n}\n",
  "sourcePath": "/Users/macbook/Documents/freelance/tokenominc/contracts/events/PrivateEvents.sol",
  "compiler": {
    "name": "solc",
    "version": "0.7.6+commit.7338295f.Linux.g++"
  },
  "schemaVersion": "3.2.2",
  "updatedAt": "2021-02-23T12:00:59.024Z",
  "devdoc": {
    "kind": "dev",
    "methods": {},
    "version": 1
  },
  "userdoc": {
    "kind": "user",
    "methods": {},
    "version": 1
  }
}