{
  "contractName": "PrivateEvent",
  "abi": [
    {
      "inputs": [],
      "stateMutability": "nonpayable",
      "type": "constructor"
    },
    {
      "anonymous": false,
      "inputs": [
        {
          "indexed": false,
          "internalType": "int256",
          "name": "question_id",
          "type": "int256"
        },
        {
          "indexed": false,
          "internalType": "uint8",
          "name": "correctAnswer",
          "type": "uint8"
        }
      ],
      "name": "eventIsFinish",
      "type": "event"
    },
    {
      "inputs": [],
      "name": "getCompanyPerc",
      "outputs": [
        {
          "internalType": "uint256",
          "name": "",
          "type": "uint256"
        }
      ],
      "stateMutability": "view",
      "type": "function"
    },
    {
      "inputs": [],
      "name": "getExpertPerc",
      "outputs": [
        {
          "internalType": "uint256",
          "name": "",
          "type": "uint256"
        }
      ],
      "stateMutability": "view",
      "type": "function"
    },
    {
      "inputs": [],
      "name": "getFirstWithdraw",
      "outputs": [
        {
          "internalType": "uint256",
          "name": "",
          "type": "uint256"
        }
      ],
      "stateMutability": "view",
      "type": "function"
    },
    {
      "inputs": [],
      "name": "getGFindex",
      "outputs": [
        {
          "internalType": "uint256",
          "name": "",
          "type": "uint256"
        }
      ],
      "stateMutability": "view",
      "type": "function"
    },
    {
      "inputs": [],
      "name": "getGFrewards",
      "outputs": [
        {
          "internalType": "uint256",
          "name": "",
          "type": "uint256"
        }
      ],
      "stateMutability": "view",
      "type": "function"
    },
    {
      "inputs": [],
      "name": "getHostPerc",
      "outputs": [
        {
          "internalType": "uint256",
          "name": "",
          "type": "uint256"
        }
      ],
      "stateMutability": "view",
      "type": "function"
    },
    {
      "inputs": [],
      "name": "getPlayerPers",
      "outputs": [
        {
          "internalType": "uint256",
          "name": "",
          "type": "uint256"
        }
      ],
      "stateMutability": "view",
      "type": "function"
    },
    {
      "inputs": [
        {
          "internalType": "uint256",
          "name": "_companyPerc",
          "type": "uint256"
        }
      ],
      "name": "setCompanyPerc",
      "outputs": [],
      "stateMutability": "nonpayable",
      "type": "function"
    },
    {
      "inputs": [
        {
          "internalType": "uint256",
          "name": "_expertPerc",
          "type": "uint256"
        }
      ],
      "name": "setExpertPerc",
      "outputs": [],
      "stateMutability": "nonpayable",
      "type": "function"
    },
    {
      "inputs": [
        {
          "internalType": "uint256",
          "name": "_playerPers",
          "type": "uint256"
        }
      ],
      "name": "setFirstWithdraw",
      "outputs": [],
      "stateMutability": "nonpayable",
      "type": "function"
    },
    {
      "inputs": [
        {
          "internalType": "uint256",
          "name": "_GFindex",
          "type": "uint256"
        }
      ],
      "name": "setGFindex",
      "outputs": [],
      "stateMutability": "nonpayable",
      "type": "function"
    },
    {
      "inputs": [
        {
          "internalType": "uint256",
          "name": "_GFrewards",
          "type": "uint256"
        }
      ],
      "name": "setGFrewards",
      "outputs": [],
      "stateMutability": "nonpayable",
      "type": "function"
    },
    {
      "inputs": [
        {
          "internalType": "uint256",
          "name": "_hostPerc",
          "type": "uint256"
        }
      ],
      "name": "setHostPerc",
      "outputs": [],
      "stateMutability": "nonpayable",
      "type": "function"
    },
    {
      "inputs": [
        {
          "internalType": "uint256",
          "name": "_firstWithdraw",
          "type": "uint256"
        }
      ],
      "name": "setPlayerPers",
      "outputs": [],
      "stateMutability": "nonpayable",
      "type": "function"
    },
    {
      "inputs": [
        {
          "internalType": "uint256",
          "name": "_startTime",
          "type": "uint256"
        },
        {
          "internalType": "uint256",
          "name": "_endTime",
          "type": "uint256"
        }
      ],
      "name": "timeAnswer",
      "outputs": [
        {
          "internalType": "int8",
          "name": "",
          "type": "int8"
        }
      ],
      "stateMutability": "view",
      "type": "function"
    },
    {
      "inputs": [
        {
          "internalType": "uint256",
          "name": "_endTime",
          "type": "uint256"
        }
      ],
      "name": "timeValidate",
      "outputs": [
        {
          "internalType": "int8",
          "name": "",
          "type": "int8"
        }
      ],
      "stateMutability": "view",
      "type": "function"
    },
    {
      "inputs": [
        {
          "internalType": "int256",
          "name": "_id",
          "type": "int256"
        },
        {
          "internalType": "uint256",
          "name": "_startTime",
          "type": "uint256"
        },
        {
          "internalType": "uint256",
          "name": "_endTime",
          "type": "uint256"
        },
        {
          "internalType": "uint8",
          "name": "_questionQuantity",
          "type": "uint8"
        },
        {
          "internalType": "address",
          "name": "_correctAnswerSetter",
          "type": "address"
        },
        {
          "internalType": "address",
          "name": "_host",
          "type": "address"
        }
      ],
      "name": "createEvent",
      "outputs": [],
      "stateMutability": "nonpayable",
      "type": "function"
    },
    {
      "inputs": [
        {
          "internalType": "int256",
          "name": "_id",
          "type": "int256"
        },
        {
          "internalType": "address",
          "name": "_correctAnswerSetter",
          "type": "address"
        }
      ],
      "name": "setRoleOfAdmin",
      "outputs": [],
      "stateMutability": "nonpayable",
      "type": "function"
    },
    {
      "inputs": [
        {
          "internalType": "int256",
          "name": "_id",
          "type": "int256"
        },
        {
          "internalType": "uint8",
          "name": "_whichAnswer",
          "type": "uint8"
        },
        {
          "internalType": "address",
          "name": "playerWallet",
          "type": "address"
        }
      ],
      "name": "setAnswer",
      "outputs": [],
      "stateMutability": "nonpayable",
      "type": "function"
    },
    {
      "inputs": [
        {
          "internalType": "int256",
          "name": "_id",
          "type": "int256"
        },
        {
          "internalType": "uint8",
          "name": "_correctAnswer",
          "type": "uint8"
        },
        {
          "internalType": "address",
          "name": "expertWallet",
          "type": "address"
        }
      ],
      "name": "setCorrectAnswer",
      "outputs": [],
      "stateMutability": "nonpayable",
      "type": "function"
    }
  ],
  "bytecode": "0x608060405268056bc75e2d6310000060055568056bc75e2d63100000600655600160075534801561002f57600080fd5b5033600460006101000a81548173ffffffffffffffffffffffffffffffffffffffff021916908373ffffffffffffffffffffffffffffffffffffffff16021790555061136a806100806000396000f3fe608060405234801561001057600080fd5b506004361061012c5760003560e01c8063be8968aa116100ad578063e1aea52311610071578063e1aea52314610418578063e50ac37214610446578063e640a533146104a1578063ef99e099146104bf578063fda81350146104dd5761012c565b8063be8968aa14610362578063c369085e14610380578063ca2f2f7a146103ae578063d70b4bb6146103cc578063d7a86da7146103ea5761012c565b8063782f4a4f116100f4578063782f4a4f1461027c5780639580de671461029a578063997862cb146102c85780639b09434d146102e6578063a03c6697146103345761012c565b80630328ff4a1461013157806324467c451461015f578063246fe6471461018d57806354f6db74146101d257806367c4877d14610221575b600080fd5b61015d6004803603602081101561014757600080fd5b810190808035906020019092919050505061056c565b005b61018b6004803603602081101561017557600080fd5b810190808035906020019092919050505061061c565b005b6101b9600480360360208110156101a357600080fd5b81019080803590602001909291905050506106cc565b604051808260000b815260200191505060405180910390f35b610208600480360360408110156101e857600080fd5b8101908080359060200190929190803590602001909291905050506106ea565b604051808260000b815260200191505060405180910390f35b61027a6004803603606081101561023757600080fd5b8101908080359060200190929190803560ff169060200190929190803573ffffffffffffffffffffffffffffffffffffffff16906020019092919050505061071c565b005b610284610a0b565b6040518082815260200191505060405180910390f35b6102c6600480360360208110156102b057600080fd5b8101908080359060200190929190505050610a15565b005b6102d0610ac5565b6040518082815260200191505060405180910390f35b610332600480360360408110156102fc57600080fd5b8101908080359060200190929190803573ffffffffffffffffffffffffffffffffffffffff169060200190929190505050610acf565b005b6103606004803603602081101561034a57600080fd5b8101908080359060200190929190505050610bce565b005b61036a610c7e565b6040518082815260200191505060405180910390f35b6103ac6004803603602081101561039657600080fd5b8101908080359060200190929190505050610c88565b005b6103b6610d38565b6040518082815260200191505060405180910390f35b6103d4610d41565b6040518082815260200191505060405180910390f35b6104166004803603602081101561040057600080fd5b8101908080359060200190929190505050610d4b565b005b6104446004803603602081101561042e57600080fd5b8101908080359060200190929190505050610dfb565b005b61049f6004803603606081101561045c57600080fd5b8101908080359060200190929190803560ff169060200190929190803573ffffffffffffffffffffffffffffffffffffffff169060200190929190505050610eab565b005b6104a96110cd565b6040518082815260200191505060405180910390f35b6104c76110d7565b6040518082815260200191505060405180910390f35b61056a600480360360c08110156104f357600080fd5b81019080803590602001909291908035906020019092919080359060200190929190803560ff169060200190929190803573ffffffffffffffffffffffffffffffffffffffff169060200190929190803573ffffffffffffffffffffffffffffffffffffffff1690602001909291905050506110e1565b005b600460009054906101000a900473ffffffffffffffffffffffffffffffffffffffff1673ffffffffffffffffffffffffffffffffffffffff163373ffffffffffffffffffffffffffffffffffffffff1614610612576040517f08c379a00000000000000000000000000000000000000000000000000000000081526004018080602001828103825260318152602001806113046031913960400191505060405180910390fd5b8060018190555050565b600460009054906101000a900473ffffffffffffffffffffffffffffffffffffffff1673ffffffffffffffffffffffffffffffffffffffff163373ffffffffffffffffffffffffffffffffffffffff16146106c2576040517f08c379a00000000000000000000000000000000000000000000000000000000081526004018080602001828103825260318152602001806113046031913960400191505060405180910390fd5b8060008190555050565b600080824203126106e057600090506106e5565b600190505b919050565b60008083420312610711576000428303126107085760009050610716565b60029050610716565b600190505b92915050565b600460009054906101000a900473ffffffffffffffffffffffffffffffffffffffff1673ffffffffffffffffffffffffffffffffffffffff163373ffffffffffffffffffffffffffffffffffffffff16146107c2576040517f08c379a00000000000000000000000000000000000000000000000000000000081526004018080602001828103825260318152602001806113046031913960400191505060405180910390fd5b600073ffffffffffffffffffffffffffffffffffffffff166008600085815260200190815260200160002060060160009054906101000a900473ffffffffffffffffffffffffffffffffffffffff1673ffffffffffffffffffffffffffffffffffffffff16146108e7576008600084815260200190815260200160002060060160009054906101000a900473ffffffffffffffffffffffffffffffffffffffff1673ffffffffffffffffffffffffffffffffffffffff168173ffffffffffffffffffffffffffffffffffffffff16146108e6576040517f08c379a00000000000000000000000000000000000000000000000000000000081526004018080602001828103825260218152602001806112e36021913960400191505060405180910390fd5b5b600261091f600860008681526020019081526020016000206001015460086000878152602001908152602001600020600201546106ea565b60000b14610995576040517f08c379a00000000000000000000000000000000000000000000000000000000081526004018080602001828103825260118152602001807f54696d65206973206e6f742076616c696400000000000000000000000000000081525060200191505060405180910390fd5b816008600085815260200190815260200160002060030160006101000a81548160ff021916908360ff1602179055507ff5a70ce65e816e264ea92e606a76d4f13a670b9479aadd125199f7a3e42be5ff8383604051808381526020018260ff1681526020019250505060405180910390a1505050565b6000600654905090565b600460009054906101000a900473ffffffffffffffffffffffffffffffffffffffff1673ffffffffffffffffffffffffffffffffffffffff163373ffffffffffffffffffffffffffffffffffffffff1614610abb576040517f08c379a00000000000000000000000000000000000000000000000000000000081526004018080602001828103825260318152602001806113046031913960400191505060405180910390fd5b8060028190555050565b6000600354905090565b600460009054906101000a900473ffffffffffffffffffffffffffffffffffffffff1673ffffffffffffffffffffffffffffffffffffffff163373ffffffffffffffffffffffffffffffffffffffff1614610b75576040517f08c379a00000000000000000000000000000000000000000000000000000000081526004018080602001828103825260318152602001806113046031913960400191505060405180910390fd5b806008600084815260200190815260200160002060060160006101000a81548173ffffffffffffffffffffffffffffffffffffffff021916908373ffffffffffffffffffffffffffffffffffffffff1602179055505050565b600460009054906101000a900473ffffffffffffffffffffffffffffffffffffffff1673ffffffffffffffffffffffffffffffffffffffff163373ffffffffffffffffffffffffffffffffffffffff1614610c74576040517f08c379a00000000000000000000000000000000000000000000000000000000081526004018080602001828103825260318152602001806113046031913960400191505060405180910390fd5b8060038190555050565b6000600154905090565b600460009054906101000a900473ffffffffffffffffffffffffffffffffffffffff1673ffffffffffffffffffffffffffffffffffffffff163373ffffffffffffffffffffffffffffffffffffffff1614610d2e576040517f08c379a00000000000000000000000000000000000000000000000000000000081526004018080602001828103825260318152602001806113046031913960400191505060405180910390fd5b8060078190555050565b60008054905090565b6000600754905090565b600460009054906101000a900473ffffffffffffffffffffffffffffffffffffffff1673ffffffffffffffffffffffffffffffffffffffff163373ffffffffffffffffffffffffffffffffffffffff1614610df1576040517f08c379a00000000000000000000000000000000000000000000000000000000081526004018080602001828103825260318152602001806113046031913960400191505060405180910390fd5b8060068190555050565b600460009054906101000a900473ffffffffffffffffffffffffffffffffffffffff1673ffffffffffffffffffffffffffffffffffffffff163373ffffffffffffffffffffffffffffffffffffffff1614610ea1576040517f08c379a00000000000000000000000000000000000000000000000000000000081526004018080602001828103825260318152602001806113046031913960400191505060405180910390fd5b8060058190555050565b600460009054906101000a900473ffffffffffffffffffffffffffffffffffffffff1673ffffffffffffffffffffffffffffffffffffffff163373ffffffffffffffffffffffffffffffffffffffff1614610f51576040517f08c379a00000000000000000000000000000000000000000000000000000000081526004018080602001828103825260318152602001806113046031913960400191505060405180910390fd5b6000610f89600860008681526020019081526020016000206001015460086000878152602001908152602001600020600201546106ea565b60000b14610fff576040517f08c379a00000000000000000000000000000000000000000000000000000000081526004018080602001828103825260118152602001807f54696d65206973206e6f742076616c696400000000000000000000000000000081525060200191505060405180910390fd5b6110076112b9565b60405180602001604052808373ffffffffffffffffffffffffffffffffffffffff1681525090506008600085815260200190815260200160002060040160008460ff168152602001908152602001600020819080600181540180825580915050600190039060005260206000200160009091909190915060008201518160000160006101000a81548173ffffffffffffffffffffffffffffffffffffffff021916908373ffffffffffffffffffffffffffffffffffffffff160217905550505050505050565b6000600254905090565b6000600554905090565b600460009054906101000a900473ffffffffffffffffffffffffffffffffffffffff1673ffffffffffffffffffffffffffffffffffffffff163373ffffffffffffffffffffffffffffffffffffffff1614611187576040517f08c379a00000000000000000000000000000000000000000000000000000000081526004018080602001828103825260318152602001806113046031913960400191505060405180910390fd5b856008600088815260200190815260200160002060000181905550846008600088815260200190815260200160002060010181905550836008600088815260200190815260200160002060020181905550806008600088815260200190815260200160002060050160016101000a81548173ffffffffffffffffffffffffffffffffffffffff021916908373ffffffffffffffffffffffffffffffffffffffff160217905550816008600088815260200190815260200160002060060160006101000a81548173ffffffffffffffffffffffffffffffffffffffff021916908373ffffffffffffffffffffffffffffffffffffffff160217905550826008600088815260200190815260200160002060050160006101000a81548160ff021916908360ff160217905550505050505050565b6040518060200160405280600073ffffffffffffffffffffffffffffffffffffffff168152509056fe4f6e6c792061646d696e2063616e2073657420636f727265637420616e73776572546869732066756e6374696f6e20636f756c64206f6e6c7920626520657865637574656420627920746865206f776e6572a264697066735822122063d86ec816ab6f26ea2245261201af11ce010cffae8b6811950479000c972b4f64736f6c63430007060033",
  "immutableReferences": {},
  "source": "// SPDX-License-Identifier: MIT\npragma solidity >=0.4.22 <0.9.0;\n\nimport {PrivStruct} from \"../struct/PrivStruct.sol\";\nimport {TimeValidation} from \"../helpers/TimeValidation.sol\";\nimport {ConfigVariables} from \"../config/ConfigVariables.sol\";\n\ncontract PrivateEvent is TimeValidation, ConfigVariables {\n    constructor() {}\n\n    event eventIsFinish(int256 question_id, uint8 correctAnswer);\n    mapping(int256 => PrivStruct.EventData) events;\n\n    function createEvent(\n        int256 _id,\n        uint256 _startTime,\n        uint256 _endTime,\n        uint8 _questionQuantity,\n        address _correctAnswerSetter,\n        address _host\n    ) public ownerOnly() {\n        events[_id].id = _id;\n        events[_id].startTime = _startTime;\n        events[_id].endTime = _endTime;\n        events[_id].host = _host;\n        events[_id].correctAnswerSetter = _correctAnswerSetter;\n        events[_id].questionQuantity = _questionQuantity;\n    }\n\n    function setRoleOfAdmin(int256 _id, address _correctAnswerSetter)\n        public\n        ownerOnly()\n    {\n        events[_id].correctAnswerSetter = _correctAnswerSetter;\n    }\n\n    function setAnswer(\n        int256 _id,\n        uint8 _whichAnswer,\n        address playerWallet\n    ) public ownerOnly() {\n        require(\n            timeAnswer(events[_id].startTime, events[_id].endTime) == 0,\n            \"Time is not valid\"\n        );\n        PrivStruct.Player memory play;\n        play = PrivStruct.Player(playerWallet);\n        events[_id].player[_whichAnswer].push(play);\n    }\n\n    function setCorrectAnswer(\n        int256 _id,\n        uint8 _correctAnswer,\n        address expertWallet\n    ) public ownerOnly() {\n        if (events[_id].correctAnswerSetter != address(0)) {\n            require(\n                expertWallet == events[_id].correctAnswerSetter,\n                \"Only admin can set correct answer\"\n            );\n        }\n\n        require(\n            timeAnswer(events[_id].startTime, events[_id].endTime) == 2,\n            \"Time is not valid\"\n        );\n        events[_id].correctAnswer = _correctAnswer;\n\n        emit eventIsFinish(_id, _correctAnswer);\n    }\n}\n",
  "sourcePath": "/Users/macbook/Documents/freelance/tokenominc/contracts/events/PrivateEvents.sol",
  "compiler": {
    "name": "solc",
    "version": "0.7.6+commit.7338295f.Linux.g++"
  },
  "schemaVersion": "3.2.2",
  "updatedAt": "2021-02-17T15:37:06.316Z",
  "devdoc": {
    "kind": "dev",
    "methods": {},
    "version": 1
  },
  "userdoc": {
    "kind": "user",
    "methods": {},
    "version": 1
  }
}