{
  "contractName": "PrivateEvents",
  "abi": [
    {
      "anonymous": false,
      "inputs": [
        {
          "indexed": false,
          "internalType": "int256",
          "name": "question_id",
          "type": "int256"
        },
        {
          "indexed": false,
          "internalType": "uint8",
          "name": "correctAnswer",
          "type": "uint8"
        }
      ],
      "name": "eventIsFinish",
      "type": "event"
    },
    {
      "inputs": [],
      "name": "GFindex",
      "outputs": [
        {
          "internalType": "uint256",
          "name": "",
          "type": "uint256"
        }
      ],
      "stateMutability": "view",
      "type": "function"
    },
    {
      "inputs": [],
      "name": "GFrewards",
      "outputs": [
        {
          "internalType": "uint256",
          "name": "",
          "type": "uint256"
        }
      ],
      "stateMutability": "view",
      "type": "function"
    },
    {
      "inputs": [],
      "name": "advisorPepc",
      "outputs": [
        {
          "internalType": "uint256",
          "name": "",
          "type": "uint256"
        }
      ],
      "stateMutability": "view",
      "type": "function"
    },
    {
      "inputs": [],
      "name": "advisorPercMint",
      "outputs": [
        {
          "internalType": "uint256",
          "name": "",
          "type": "uint256"
        }
      ],
      "stateMutability": "view",
      "type": "function"
    },
    {
      "inputs": [],
      "name": "comMarketFundPerc",
      "outputs": [
        {
          "internalType": "uint256",
          "name": "",
          "type": "uint256"
        }
      ],
      "stateMutability": "view",
      "type": "function"
    },
    {
      "inputs": [],
      "name": "developFundPerc",
      "outputs": [
        {
          "internalType": "uint256",
          "name": "",
          "type": "uint256"
        }
      ],
      "stateMutability": "view",
      "type": "function"
    },
    {
      "inputs": [],
      "name": "developFundPercPremim",
      "outputs": [
        {
          "internalType": "uint256",
          "name": "",
          "type": "uint256"
        }
      ],
      "stateMutability": "view",
      "type": "function"
    },
    {
      "inputs": [],
      "name": "expertExtraPerc",
      "outputs": [
        {
          "internalType": "uint256",
          "name": "",
          "type": "uint256"
        }
      ],
      "stateMutability": "view",
      "type": "function"
    },
    {
      "inputs": [],
      "name": "expertPerc",
      "outputs": [
        {
          "internalType": "uint256",
          "name": "",
          "type": "uint256"
        }
      ],
      "stateMutability": "view",
      "type": "function"
    },
    {
      "inputs": [],
      "name": "expertPercMint",
      "outputs": [
        {
          "internalType": "uint256",
          "name": "",
          "type": "uint256"
        }
      ],
      "stateMutability": "view",
      "type": "function"
    },
    {
      "inputs": [],
      "name": "expertPremiumPerc",
      "outputs": [
        {
          "internalType": "uint256",
          "name": "",
          "type": "uint256"
        }
      ],
      "stateMutability": "view",
      "type": "function"
    },
    {
      "inputs": [],
      "name": "extraHostPerc",
      "outputs": [
        {
          "internalType": "uint256",
          "name": "",
          "type": "uint256"
        }
      ],
      "stateMutability": "view",
      "type": "function"
    },
    {
      "inputs": [],
      "name": "extraHostPercMint",
      "outputs": [
        {
          "internalType": "uint256",
          "name": "",
          "type": "uint256"
        }
      ],
      "stateMutability": "view",
      "type": "function"
    },
    {
      "inputs": [],
      "name": "firstWithdrawIndex",
      "outputs": [
        {
          "internalType": "uint256",
          "name": "",
          "type": "uint256"
        }
      ],
      "stateMutability": "view",
      "type": "function"
    },
    {
      "inputs": [],
      "name": "getFirstWithdraw",
      "outputs": [
        {
          "internalType": "uint256",
          "name": "",
          "type": "uint256"
        }
      ],
      "stateMutability": "view",
      "type": "function"
    },
    {
      "inputs": [],
      "name": "getGFindex",
      "outputs": [
        {
          "internalType": "uint256",
          "name": "",
          "type": "uint256"
        }
      ],
      "stateMutability": "view",
      "type": "function"
    },
    {
      "inputs": [],
      "name": "hostPerc",
      "outputs": [
        {
          "internalType": "uint256",
          "name": "",
          "type": "uint256"
        }
      ],
      "stateMutability": "view",
      "type": "function"
    },
    {
      "inputs": [],
      "name": "hostPercMint",
      "outputs": [
        {
          "internalType": "uint256",
          "name": "",
          "type": "uint256"
        }
      ],
      "stateMutability": "view",
      "type": "function"
    },
    {
      "inputs": [],
      "name": "moderatorsFundPerc",
      "outputs": [
        {
          "internalType": "uint256",
          "name": "",
          "type": "uint256"
        }
      ],
      "stateMutability": "view",
      "type": "function"
    },
    {
      "inputs": [],
      "name": "owner",
      "outputs": [
        {
          "internalType": "address payable",
          "name": "",
          "type": "address"
        }
      ],
      "stateMutability": "view",
      "type": "function"
    },
    {
      "inputs": [],
      "name": "playersPers",
      "outputs": [
        {
          "internalType": "uint256",
          "name": "",
          "type": "uint256"
        }
      ],
      "stateMutability": "view",
      "type": "function"
    },
    {
      "inputs": [],
      "name": "playersPersMint",
      "outputs": [
        {
          "internalType": "uint256",
          "name": "",
          "type": "uint256"
        }
      ],
      "stateMutability": "view",
      "type": "function"
    },
    {
      "inputs": [],
      "name": "playersPersPremiun",
      "outputs": [
        {
          "internalType": "uint256",
          "name": "",
          "type": "uint256"
        }
      ],
      "stateMutability": "view",
      "type": "function"
    },
    {
      "inputs": [
        {
          "internalType": "uint256",
          "name": "_developFundPerc",
          "type": "uint256"
        }
      ],
      "name": "setDevelopFundPerc",
      "outputs": [],
      "stateMutability": "nonpayable",
      "type": "function"
    },
    {
      "inputs": [
        {
          "internalType": "uint256",
          "name": "_expertPerc",
          "type": "uint256"
        }
      ],
      "name": "setExpertPerc",
      "outputs": [],
      "stateMutability": "nonpayable",
      "type": "function"
    },
    {
      "inputs": [
        {
          "internalType": "uint256",
          "name": "_firstWithdrawIndex",
          "type": "uint256"
        }
      ],
      "name": "setFirstWithdraw",
      "outputs": [],
      "stateMutability": "nonpayable",
      "type": "function"
    },
    {
      "inputs": [
        {
          "internalType": "uint256",
          "name": "_GFindex",
          "type": "uint256"
        }
      ],
      "name": "setGFindex",
      "outputs": [],
      "stateMutability": "nonpayable",
      "type": "function"
    },
    {
      "inputs": [
        {
          "internalType": "uint256",
          "name": "_GFrewards",
          "type": "uint256"
        }
      ],
      "name": "setGFrewards",
      "outputs": [],
      "stateMutability": "nonpayable",
      "type": "function"
    },
    {
      "inputs": [
        {
          "internalType": "uint256",
          "name": "_hostPercMint",
          "type": "uint256"
        },
        {
          "internalType": "uint256",
          "name": "_hostPerc",
          "type": "uint256"
        }
      ],
      "name": "setHostPerc",
      "outputs": [],
      "stateMutability": "nonpayable",
      "type": "function"
    },
    {
      "inputs": [
        {
          "internalType": "uint256",
          "name": "_playersPersMint",
          "type": "uint256"
        }
      ],
      "name": "setPlayerPersMint",
      "outputs": [],
      "stateMutability": "nonpayable",
      "type": "function"
    },
    {
      "inputs": [
        {
          "internalType": "uint256",
          "name": "_welcomeBTYTokens",
          "type": "uint256"
        }
      ],
      "name": "setWelcomeBTYTokens",
      "outputs": [],
      "stateMutability": "nonpayable",
      "type": "function"
    },
    {
      "inputs": [
        {
          "internalType": "uint256",
          "name": "_startTime",
          "type": "uint256"
        },
        {
          "internalType": "uint256",
          "name": "_endTime",
          "type": "uint256"
        }
      ],
      "name": "timeAnswer",
      "outputs": [
        {
          "internalType": "int8",
          "name": "",
          "type": "int8"
        }
      ],
      "stateMutability": "view",
      "type": "function"
    },
    {
      "inputs": [
        {
          "internalType": "uint256",
          "name": "_endTime",
          "type": "uint256"
        }
      ],
      "name": "timeValidate",
      "outputs": [
        {
          "internalType": "int8",
          "name": "",
          "type": "int8"
        }
      ],
      "stateMutability": "view",
      "type": "function"
    },
    {
      "inputs": [],
      "name": "welcomeBTYTokens",
      "outputs": [
        {
          "internalType": "uint256",
          "name": "",
          "type": "uint256"
        }
      ],
      "stateMutability": "view",
      "type": "function"
    },
    {
      "inputs": [
        {
          "internalType": "int256",
          "name": "_id",
          "type": "int256"
        },
        {
          "internalType": "uint256",
          "name": "_startTime",
          "type": "uint256"
        },
        {
          "internalType": "uint256",
          "name": "_endTime",
          "type": "uint256"
        },
        {
          "internalType": "uint8",
          "name": "_questionQuantity",
          "type": "uint8"
        },
        {
          "internalType": "address",
          "name": "_host",
          "type": "address"
        }
      ],
      "name": "createEvent",
      "outputs": [],
      "stateMutability": "nonpayable",
      "type": "function"
    },
    {
      "inputs": [
        {
          "internalType": "int256",
          "name": "_id",
          "type": "int256"
        },
        {
          "internalType": "address",
          "name": "_correctAnswerSetter",
          "type": "address"
        }
      ],
      "name": "setRoleOfAdmin",
      "outputs": [],
      "stateMutability": "nonpayable",
      "type": "function"
    },
    {
      "inputs": [
        {
          "internalType": "int256",
          "name": "_id",
          "type": "int256"
        },
        {
          "internalType": "uint8",
          "name": "_whichAnswer",
          "type": "uint8"
        },
        {
          "internalType": "address",
          "name": "_playerWallet",
          "type": "address"
        }
      ],
      "name": "setAnswer",
      "outputs": [],
      "stateMutability": "nonpayable",
      "type": "function"
    },
    {
      "inputs": [
        {
          "internalType": "int256",
          "name": "_id",
          "type": "int256"
        },
        {
          "internalType": "uint8",
          "name": "_correctAnswer",
          "type": "uint8"
        },
        {
          "internalType": "address",
          "name": "_expertWallet",
          "type": "address"
        }
      ],
      "name": "setCorrectAnswer",
      "outputs": [],
      "stateMutability": "nonpayable",
      "type": "function"
    }
  ],
  "bytecode": "0x6080604052600a600055600460015560016002556001600355600a60045560046005556002600655600f600755600260085560016009556032600a55605a600b55604b600c55600a600d5568056bc75e2d63100000600e556064600f55678ac7230489e80000601055600a601255600a6013556005601455600260155534801561008857600080fd5b5033601160006101000a81548173ffffffffffffffffffffffffffffffffffffffff021916908373ffffffffffffffffffffffffffffffffffffffff160217905550611a2e806100d96000396000f3fe608060405234801561001057600080fd5b50600436106102325760003560e01c80639580de6711610130578063d70b4bb6116100b8578063e1755c6a1161007c578063e1755c6a146107cb578063e1dcc409146107e9578063e50ac37214610807578063ef99e09914610862578063f7ec58511461088057610232565b8063d70b4bb614610715578063d7a86da714610733578063dba8fe8714610761578063dd3c22831461077f578063df185817146107ad57610232565b8063b1642b50116100ff578063b1642b5014610604578063b2fba7e11461063c578063b44901e8146106ab578063c12c8c46146106c9578063c369085e146106e757610232565b80639580de671461053c5780639b09434d1461056a578063a03c6697146105b8578063af9ace45146105e657610232565b806354f6db74116101be578063896aa7a411610182578063896aa7a4146104805780638a9dbda71461049e5780638da5cb5b146104bc5780638fc8bc42146104f05780639336e8fd1461050e57610232565b806354f6db741461037c57806355e84158146103cb57806367c4877d146103e957806373e258ac14610444578063786508c51461046257610232565b8063246fe64711610205578063246fe647146102bf57806324beedd31461030457806327e53717146103225780632c316d05146103405780632e63e4521461035e57610232565b8063134c3b071461023757806315cfe4191461025557806319d6b7d8146102735780631c408357146102a1575b600080fd5b61023f61089e565b6040518082815260200191505060405180910390f35b61025d6108a4565b6040518082815260200191505060405180910390f35b61029f6004803603602081101561028957600080fd5b81019080803590602001909291905050506108aa565b005b6102a961095a565b6040518082815260200191505060405180910390f35b6102eb600480360360208110156102d557600080fd5b8101908080359060200190929190505050610960565b604051808260000b815260200191505060405180910390f35b61030c61097e565b6040518082815260200191505060405180910390f35b61032a610984565b6040518082815260200191505060405180910390f35b61034861098a565b6040518082815260200191505060405180910390f35b610366610990565b6040518082815260200191505060405180910390f35b6103b26004803603604081101561039257600080fd5b810190808035906020019092919080359060200190929190505050610996565b604051808260000b815260200191505060405180910390f35b6103d36109c8565b6040518082815260200191505060405180910390f35b610442600480360360608110156103ff57600080fd5b8101908080359060200190929190803560ff169060200190929190803573ffffffffffffffffffffffffffffffffffffffff1690602001909291905050506109ce565b005b61044c610d7b565b6040518082815260200191505060405180910390f35b61046a610d81565b6040518082815260200191505060405180910390f35b610488610d87565b6040518082815260200191505060405180910390f35b6104a6610d8d565b6040518082815260200191505060405180910390f35b6104c4610d93565b604051808273ffffffffffffffffffffffffffffffffffffffff16815260200191505060405180910390f35b6104f8610db9565b6040518082815260200191505060405180910390f35b61053a6004803603602081101561052457600080fd5b8101908080359060200190929190505050610dbf565b005b6105686004803603602081101561055257600080fd5b8101908080359060200190929190505050610e6f565b005b6105b66004803603604081101561058057600080fd5b8101908080359060200190929190803573ffffffffffffffffffffffffffffffffffffffff169060200190929190505050610f1f565b005b6105e4600480360360208110156105ce57600080fd5b810190808035906020019092919050505061101e565b005b6105ee6110ce565b6040518082815260200191505060405180910390f35b61063a6004803603604081101561061a57600080fd5b8101908080359060200190929190803590602001909291905050506110d4565b005b6106a9600480360360a081101561065257600080fd5b81019080803590602001909291908035906020019092919080359060200190929190803560ff169060200190929190803573ffffffffffffffffffffffffffffffffffffffff16906020019092919050505061118c565b005b6106b361130e565b6040518082815260200191505060405180910390f35b6106d1611314565b6040518082815260200191505060405180910390f35b610713600480360360208110156106fd57600080fd5b810190808035906020019092919050505061131a565b005b61071d6113ca565b6040518082815260200191505060405180910390f35b61075f6004803603602081101561074957600080fd5b810190808035906020019092919050505061147a565b005b61076961152a565b6040518082815260200191505060405180910390f35b6107ab6004803603602081101561079557600080fd5b8101908080359060200190929190505050611530565b005b6107b56115e0565b6040518082815260200191505060405180910390f35b6107d36115e6565b6040518082815260200191505060405180910390f35b6107f16115ec565b6040518082815260200191505060405180910390f35b6108606004803603606081101561081d57600080fd5b8101908080359060200190929190803560ff169060200190929190803573ffffffffffffffffffffffffffffffffffffffff1690602001909291905050506115f2565b005b61086a61193e565b6040518082815260200191505060405180910390f35b61088861194c565b6040518082815260200191505060405180910390f35b600c5481565b600f5481565b601160009054906101000a900473ffffffffffffffffffffffffffffffffffffffff1673ffffffffffffffffffffffffffffffffffffffff163373ffffffffffffffffffffffffffffffffffffffff1614610950576040517f08c379a00000000000000000000000000000000000000000000000000000000081526004018080602001828103825260318152602001806119c86031913960400191505060405180910390fd5b8060108190555050565b60125481565b600080824203126109745760009050610979565b600190505b919050565b60155481565b600b5481565b60065481565b60105481565b600080834203126109bd576000428303126109b457600090506109c2565b600290506109c2565b600190505b92915050565b60035481565b601160009054906101000a900473ffffffffffffffffffffffffffffffffffffffff1673ffffffffffffffffffffffffffffffffffffffff163373ffffffffffffffffffffffffffffffffffffffff1614610a74576040517f08c379a00000000000000000000000000000000000000000000000000000000081526004018080602001828103825260318152602001806119c86031913960400191505060405180910390fd5b600073ffffffffffffffffffffffffffffffffffffffff166016600085815260200190815260200160002060070160009054906101000a900473ffffffffffffffffffffffffffffffffffffffff1673ffffffffffffffffffffffffffffffffffffffff1614610b99576016600084815260200190815260200160002060070160009054906101000a900473ffffffffffffffffffffffffffffffffffffffff1673ffffffffffffffffffffffffffffffffffffffff168173ffffffffffffffffffffffffffffffffffffffff1614610b98576040517f08c379a000000000000000000000000000000000000000000000000000000000815260040180806020018281038252602b81526020018061199d602b913960400191505060405180910390fd5b5b6002610bd160166000868152602001908152602001600020600101546016600087815260200190815260200160002060020154610996565b60000b14610c47576040517f08c379a000000000000000000000000000000000000000000000000000000000815260040180806020018281038252601c8152602001807f54696d65206973206e6f742076616c696420666f72206578706572740000000081525060200191505060405180910390fd5b600115156016600085815260200190815260200160002060050160008373ffffffffffffffffffffffffffffffffffffffff1673ffffffffffffffffffffffffffffffffffffffff16815260200190815260200160002060009054906101000a900460ff1615151415610d05576040517f08c379a000000000000000000000000000000000000000000000000000000000815260040180806020018281038252602181526020018061197c6021913960400191505060405180910390fd5b816016600085815260200190815260200160002060030160006101000a81548160ff021916908360ff1602179055507ff5a70ce65e816e264ea92e606a76d4f13a670b9479aadd125199f7a3e42be5ff8383604051808381526020018260ff1681526020019250505060405180910390a1505050565b600a5481565b60095481565b60055481565b60005481565b601160009054906101000a900473ffffffffffffffffffffffffffffffffffffffff1681565b60015481565b601160009054906101000a900473ffffffffffffffffffffffffffffffffffffffff1673ffffffffffffffffffffffffffffffffffffffff163373ffffffffffffffffffffffffffffffffffffffff1614610e65576040517f08c379a00000000000000000000000000000000000000000000000000000000081526004018080602001828103825260318152602001806119c86031913960400191505060405180910390fd5b80600a8190555050565b601160009054906101000a900473ffffffffffffffffffffffffffffffffffffffff1673ffffffffffffffffffffffffffffffffffffffff163373ffffffffffffffffffffffffffffffffffffffff1614610f15576040517f08c379a00000000000000000000000000000000000000000000000000000000081526004018080602001828103825260318152602001806119c86031913960400191505060405180910390fd5b8060058190555050565b601160009054906101000a900473ffffffffffffffffffffffffffffffffffffffff1673ffffffffffffffffffffffffffffffffffffffff163373ffffffffffffffffffffffffffffffffffffffff1614610fc5576040517f08c379a00000000000000000000000000000000000000000000000000000000081526004018080602001828103825260318152602001806119c86031913960400191505060405180910390fd5b806016600084815260200190815260200160002060070160006101000a81548173ffffffffffffffffffffffffffffffffffffffff021916908373ffffffffffffffffffffffffffffffffffffffff1602179055505050565b601160009054906101000a900473ffffffffffffffffffffffffffffffffffffffff1673ffffffffffffffffffffffffffffffffffffffff163373ffffffffffffffffffffffffffffffffffffffff16146110c4576040517f08c379a00000000000000000000000000000000000000000000000000000000081526004018080602001828103825260318152602001806119c86031913960400191505060405180910390fd5b80600d8190555050565b60045481565b601160009054906101000a900473ffffffffffffffffffffffffffffffffffffffff1673ffffffffffffffffffffffffffffffffffffffff163373ffffffffffffffffffffffffffffffffffffffff161461117a576040517f08c379a00000000000000000000000000000000000000000000000000000000081526004018080602001828103825260318152602001806119c86031913960400191505060405180910390fd5b81600081905550806001819055505050565b601160009054906101000a900473ffffffffffffffffffffffffffffffffffffffff1673ffffffffffffffffffffffffffffffffffffffff163373ffffffffffffffffffffffffffffffffffffffff1614611232576040517f08c379a00000000000000000000000000000000000000000000000000000000081526004018080602001828103825260318152602001806119c86031913960400191505060405180910390fd5b846016600087815260200190815260200160002060000181905550836016600087815260200190815260200160002060010181905550826016600087815260200190815260200160002060020181905550806016600087815260200190815260200160002060060160016101000a81548173ffffffffffffffffffffffffffffffffffffffff021916908373ffffffffffffffffffffffffffffffffffffffff160217905550816016600087815260200190815260200160002060060160006101000a81548160ff021916908360ff1602179055505050505050565b600d5481565b60025481565b601160009054906101000a900473ffffffffffffffffffffffffffffffffffffffff1673ffffffffffffffffffffffffffffffffffffffff163373ffffffffffffffffffffffffffffffffffffffff16146113c0576040517f08c379a00000000000000000000000000000000000000000000000000000000081526004018080602001828103825260318152602001806119c86031913960400191505060405180910390fd5b80600f8190555050565b6000601160009054906101000a900473ffffffffffffffffffffffffffffffffffffffff1673ffffffffffffffffffffffffffffffffffffffff163373ffffffffffffffffffffffffffffffffffffffff1614611472576040517f08c379a00000000000000000000000000000000000000000000000000000000081526004018080602001828103825260318152602001806119c86031913960400191505060405180910390fd5b600f54905090565b601160009054906101000a900473ffffffffffffffffffffffffffffffffffffffff1673ffffffffffffffffffffffffffffffffffffffff163373ffffffffffffffffffffffffffffffffffffffff1614611520576040517f08c379a00000000000000000000000000000000000000000000000000000000081526004018080602001828103825260318152602001806119c86031913960400191505060405180910390fd5b80600e8190555050565b60075481565b601160009054906101000a900473ffffffffffffffffffffffffffffffffffffffff1673ffffffffffffffffffffffffffffffffffffffff163373ffffffffffffffffffffffffffffffffffffffff16146115d6576040517f08c379a00000000000000000000000000000000000000000000000000000000081526004018080602001828103825260318152602001806119c86031913960400191505060405180910390fd5b8060128190555050565b600e5481565b60145481565b60135481565b601160009054906101000a900473ffffffffffffffffffffffffffffffffffffffff1673ffffffffffffffffffffffffffffffffffffffff163373ffffffffffffffffffffffffffffffffffffffff1614611698576040517f08c379a00000000000000000000000000000000000000000000000000000000081526004018080602001828103825260318152602001806119c86031913960400191505060405180910390fd5b60006116d060166000868152602001908152602001600020600101546016600087815260200190815260200160002060020154610996565b60000b14611746576040517f08c379a000000000000000000000000000000000000000000000000000000000815260040180806020018281038252601d8152602001807f54696d65206973206e6f742076616c696420666f7220706c617965727300000081525060200191505060405180910390fd5b600115156016600085815260200190815260200160002060050160008373ffffffffffffffffffffffffffffffffffffffff1673ffffffffffffffffffffffffffffffffffffffff16815260200190815260200160002060009054906101000a900460ff1615151415611804576040517f08c379a000000000000000000000000000000000000000000000000000000000815260040180806020018281038252602181526020018061197c6021913960400191505060405180910390fd5b61180c611952565b60405180602001604052808373ffffffffffffffffffffffffffffffffffffffff16815250905060016016600086815260200190815260200160002060050160008473ffffffffffffffffffffffffffffffffffffffff1673ffffffffffffffffffffffffffffffffffffffff16815260200190815260200160002060006101000a81548160ff0219169083151502179055506016600085815260200190815260200160002060040160008460ff168152602001908152602001600020819080600181540180825580915050600190039060005260206000200160009091909190915060008201518160000160006101000a81548173ffffffffffffffffffffffffffffffffffffffff021916908373ffffffffffffffffffffffffffffffffffffffff160217905550505050505050565b6000600d5460105402905090565b60085481565b6040518060200160405280600073ffffffffffffffffffffffffffffffffffffffff168152509056fe7573657220616c726561647920706172746963697061746520696e206576656e7457616c6c657420736574746572206f6620636f7265637420616e7377657220697320696e636f7272656374546869732066756e6374696f6e20636f756c64206f6e6c7920626520657865637574656420627920746865206f776e6572a2646970667358221220a6173a8fd04c0b19305027f28e4f23f1db520acbee327e4bfe51aa379416a5ce64736f6c63430007060033",
  "immutableReferences": {},
  "source": "// SPDX-License-Identifier: MIT\npragma solidity >=0.4.22 <0.9.0;\n\nimport {PrivStruct} from \"../struct/PrivStruct.sol\";\nimport {TimeValidation} from \"../helpers/TimeValidation.sol\";\nimport {ConfigVariables} from \"../config/ConfigVariables.sol\";\n\ncontract PrivateEvents is TimeValidation, ConfigVariables {\n    event eventIsFinish(int256 question_id, uint8 correctAnswer);\n    mapping(int256 => PrivStruct.EventData) events;\n\n    function createEvent(\n        int256 _id,\n        uint256 _startTime,\n        uint256 _endTime,\n        uint8 _questionQuantity,\n        address _host\n    ) public ownerOnly() {\n        events[_id].id = _id;\n        events[_id].startTime = _startTime;\n        events[_id].endTime = _endTime;\n        events[_id].host = _host;\n        events[_id].questionQuantity = _questionQuantity;\n    }\n\n    function setRoleOfAdmin(int256 _id, address _correctAnswerSetter)\n        public\n        ownerOnly()\n    {\n        events[_id].correctAnswerSetter = _correctAnswerSetter;\n    }\n\n    function setAnswer(\n        int256 _id,\n        uint8 _whichAnswer,\n        address _playerWallet\n    ) public ownerOnly() {\n        require(\n            timeAnswer(events[_id].startTime, events[_id].endTime) == 0,\n            \"Time is not valid for players\"\n        );\n        require(\n            events[_id].allPlayers[_playerWallet] != true,\n            \"user already participate in event\"\n        );\n\n        PrivStruct.Player memory play;\n        play = PrivStruct.Player(_playerWallet);\n        events[_id].allPlayers[_playerWallet] = true;\n        events[_id].player[_whichAnswer].push(play);\n    }\n\n    function setCorrectAnswer(\n        int256 _id,\n        uint8 _correctAnswer,\n        address _expertWallet\n    ) public ownerOnly() {\n        if (events[_id].correctAnswerSetter != address(0)) {\n            require(\n                _expertWallet == events[_id].correctAnswerSetter,\n                \"Wallet setter of corect answer is incorrect\"\n            );\n        }\n\n        require(\n            timeAnswer(events[_id].startTime, events[_id].endTime) == 2,\n            \"Time is not valid for expert\"\n        );\n        require(\n            events[_id].allPlayers[_expertWallet] != true,\n            \"user already participate in event\"\n        );\n        events[_id].correctAnswer = _correctAnswer;\n\n        emit eventIsFinish(_id, _correctAnswer);\n    }\n}\n",
  "sourcePath": "/Users/macbook/Documents/freelance/tokenominc/contracts/events/PrivateEvents.sol",
  "compiler": {
    "name": "solc",
    "version": "0.7.6+commit.7338295f.Linux.g++"
  },
  "schemaVersion": "3.3.4",
  "updatedAt": "2021-03-12T09:54:31.177Z",
  "devdoc": {
    "kind": "dev",
    "methods": {},
    "version": 1
  },
  "userdoc": {
    "kind": "user",
    "methods": {},
    "version": 1
  }
}