{
  "contractName": "PrivateEvents",
  "abi": [
    {
      "inputs": [],
      "stateMutability": "nonpayable",
      "type": "constructor"
    },
    {
      "anonymous": false,
      "inputs": [
        {
          "indexed": false,
          "internalType": "int256",
          "name": "question_id",
          "type": "int256"
        },
        {
          "indexed": false,
          "internalType": "uint8",
          "name": "correctAnswer",
          "type": "uint8"
        }
      ],
      "name": "eventIsFinish",
      "type": "event"
    },
    {
      "inputs": [
        {
          "internalType": "uint256",
          "name": "_startTime",
          "type": "uint256"
        },
        {
          "internalType": "uint256",
          "name": "_endTime",
          "type": "uint256"
        }
      ],
      "name": "timeAnswer",
      "outputs": [
        {
          "internalType": "int8",
          "name": "",
          "type": "int8"
        }
      ],
      "stateMutability": "view",
      "type": "function"
    },
    {
      "inputs": [
        {
          "internalType": "uint256",
          "name": "_endTime",
          "type": "uint256"
        }
      ],
      "name": "timeValidate",
      "outputs": [
        {
          "internalType": "int8",
          "name": "",
          "type": "int8"
        }
      ],
      "stateMutability": "view",
      "type": "function"
    },
    {
      "inputs": [
        {
          "internalType": "int256",
          "name": "_id",
          "type": "int256"
        },
        {
          "internalType": "uint256",
          "name": "_startTime",
          "type": "uint256"
        },
        {
          "internalType": "uint256",
          "name": "_endTime",
          "type": "uint256"
        },
        {
          "internalType": "uint8",
          "name": "_questionQuantity",
          "type": "uint8"
        },
        {
          "internalType": "address",
          "name": "_host",
          "type": "address"
        }
      ],
      "name": "createEvent",
      "outputs": [],
      "stateMutability": "nonpayable",
      "type": "function"
    },
    {
      "inputs": [
        {
          "internalType": "int256",
          "name": "_id",
          "type": "int256"
        },
        {
          "internalType": "address",
          "name": "_correctAnswerSetter",
          "type": "address"
        }
      ],
      "name": "setRoleOfAdmin",
      "outputs": [],
      "stateMutability": "nonpayable",
      "type": "function"
    },
    {
      "inputs": [
        {
          "internalType": "int256",
          "name": "_id",
          "type": "int256"
        },
        {
          "internalType": "uint8",
          "name": "_whichAnswer",
          "type": "uint8"
        },
        {
          "internalType": "address",
          "name": "_playerWallet",
          "type": "address"
        }
      ],
      "name": "setAnswer",
      "outputs": [],
      "stateMutability": "nonpayable",
      "type": "function"
    },
    {
      "inputs": [
        {
          "internalType": "int256",
          "name": "_id",
          "type": "int256"
        },
        {
          "internalType": "uint8",
          "name": "_correctAnswer",
          "type": "uint8"
        },
        {
          "internalType": "address",
          "name": "_expertWallet",
          "type": "address"
        }
      ],
      "name": "setCorrectAnswer",
      "outputs": [],
      "stateMutability": "nonpayable",
      "type": "function"
    }
  ],
  "bytecode": "0x608060405234801561001057600080fd5b5033600160006101000a81548173ffffffffffffffffffffffffffffffffffffffff021916908373ffffffffffffffffffffffffffffffffffffffff160217905550610d46806100616000396000f3fe608060405234801561001057600080fd5b50600436106100625760003560e01c8063246fe6471461006757806354f6db74146100ac57806367c4877d146100fb5780639b09434d14610156578063b2fba7e1146101a4578063e50ac37214610213575b600080fd5b6100936004803603602081101561007d57600080fd5b810190808035906020019092919050505061026e565b604051808260000b815260200191505060405180910390f35b6100e2600480360360408110156100c257600080fd5b81019080803590602001909291908035906020019092919050505061028c565b604051808260000b815260200191505060405180910390f35b6101546004803603606081101561011157600080fd5b8101908080359060200190929190803560ff169060200190929190803573ffffffffffffffffffffffffffffffffffffffff1690602001909291905050506102be565b005b6101a26004803603604081101561016c57600080fd5b8101908080359060200190929190803573ffffffffffffffffffffffffffffffffffffffff169060200190929190505050610682565b005b610211600480360360a08110156101ba57600080fd5b81019080803590602001909291908035906020019092919080359060200190929190803560ff169060200190929190803573ffffffffffffffffffffffffffffffffffffffff16906020019092919050505061079d565b005b61026c6004803603606081101561022957600080fd5b8101908080359060200190929190803560ff169060200190929190803573ffffffffffffffffffffffffffffffffffffffff169060200190929190505050610937565b005b600080824203126102825760009050610287565b600190505b919050565b600080834203126102b3576000428303126102aa57600090506102b8565b600290506102b8565b600190505b92915050565b600160009054906101000a900473ffffffffffffffffffffffffffffffffffffffff1673ffffffffffffffffffffffffffffffffffffffff163373ffffffffffffffffffffffffffffffffffffffff1614610381576040517f08c379a000000000000000000000000000000000000000000000000000000000815260040180806020018281038252600a8152602001807f6f776e6572206f6e6c790000000000000000000000000000000000000000000081525060200191505060405180910390fd5b600073ffffffffffffffffffffffffffffffffffffffff1660008085815260200190815260200160002060070160009054906101000a900473ffffffffffffffffffffffffffffffffffffffff1673ffffffffffffffffffffffffffffffffffffffff16146104a45760008084815260200190815260200160002060070160009054906101000a900473ffffffffffffffffffffffffffffffffffffffff1673ffffffffffffffffffffffffffffffffffffffff168173ffffffffffffffffffffffffffffffffffffffff16146104a3576040517f08c379a000000000000000000000000000000000000000000000000000000000815260040180806020018281038252602b815260200180610ce6602b913960400191505060405180910390fd5b5b60026104da600080868152602001908152602001600020600101546000808781526020019081526020016000206002015461028c565b60000b14610550576040517f08c379a000000000000000000000000000000000000000000000000000000000815260040180806020018281038252601c8152602001807f54696d65206973206e6f742076616c696420666f72206578706572740000000081525060200191505060405180910390fd5b6001151560008085815260200190815260200160002060050160008373ffffffffffffffffffffffffffffffffffffffff1673ffffffffffffffffffffffffffffffffffffffff16815260200190815260200160002060009054906101000a900460ff161515141561060d576040517f08c379a0000000000000000000000000000000000000000000000000000000008152600401808060200182810382526021815260200180610cc56021913960400191505060405180910390fd5b8160008085815260200190815260200160002060030160006101000a81548160ff021916908360ff1602179055507ff5a70ce65e816e264ea92e606a76d4f13a670b9479aadd125199f7a3e42be5ff8383604051808381526020018260ff1681526020019250505060405180910390a1505050565b600160009054906101000a900473ffffffffffffffffffffffffffffffffffffffff1673ffffffffffffffffffffffffffffffffffffffff163373ffffffffffffffffffffffffffffffffffffffff1614610745576040517f08c379a000000000000000000000000000000000000000000000000000000000815260040180806020018281038252600a8152602001807f6f776e6572206f6e6c790000000000000000000000000000000000000000000081525060200191505060405180910390fd5b8060008084815260200190815260200160002060070160006101000a81548173ffffffffffffffffffffffffffffffffffffffff021916908373ffffffffffffffffffffffffffffffffffffffff1602179055505050565b600160009054906101000a900473ffffffffffffffffffffffffffffffffffffffff1673ffffffffffffffffffffffffffffffffffffffff163373ffffffffffffffffffffffffffffffffffffffff1614610860576040517f08c379a000000000000000000000000000000000000000000000000000000000815260040180806020018281038252600a8152602001807f6f776e6572206f6e6c790000000000000000000000000000000000000000000081525060200191505060405180910390fd5b8460008087815260200190815260200160002060000181905550836000808781526020019081526020016000206001018190555082600080878152602001908152602001600020600201819055508060008087815260200190815260200160002060060160016101000a81548173ffffffffffffffffffffffffffffffffffffffff021916908373ffffffffffffffffffffffffffffffffffffffff1602179055508160008087815260200190815260200160002060060160006101000a81548160ff021916908360ff1602179055505050505050565b600160009054906101000a900473ffffffffffffffffffffffffffffffffffffffff1673ffffffffffffffffffffffffffffffffffffffff163373ffffffffffffffffffffffffffffffffffffffff16146109fa576040517f08c379a000000000000000000000000000000000000000000000000000000000815260040180806020018281038252600a8152602001807f6f776e6572206f6e6c790000000000000000000000000000000000000000000081525060200191505060405180910390fd5b6000610a30600080868152602001908152602001600020600101546000808781526020019081526020016000206002015461028c565b60000b14610aa6576040517f08c379a000000000000000000000000000000000000000000000000000000000815260040180806020018281038252601d8152602001807f54696d65206973206e6f742076616c696420666f7220706c617965727300000081525060200191505060405180910390fd5b6001151560008085815260200190815260200160002060050160008373ffffffffffffffffffffffffffffffffffffffff1673ffffffffffffffffffffffffffffffffffffffff16815260200190815260200160002060009054906101000a900460ff1615151415610b63576040517f08c379a0000000000000000000000000000000000000000000000000000000008152600401808060200182810382526021815260200180610cc56021913960400191505060405180910390fd5b610b6b610c9b565b60405180602001604052808373ffffffffffffffffffffffffffffffffffffffff168152509050600160008086815260200190815260200160002060050160008473ffffffffffffffffffffffffffffffffffffffff1673ffffffffffffffffffffffffffffffffffffffff16815260200190815260200160002060006101000a81548160ff02191690831515021790555060008085815260200190815260200160002060040160008460ff168152602001908152602001600020819080600181540180825580915050600190039060005260206000200160009091909190915060008201518160000160006101000a81548173ffffffffffffffffffffffffffffffffffffffff021916908373ffffffffffffffffffffffffffffffffffffffff160217905550505050505050565b6040518060200160405280600073ffffffffffffffffffffffffffffffffffffffff168152509056fe7573657220616c726561647920706172746963697061746520696e206576656e7457616c6c657420736574746572206f6620636f7265637420616e7377657220697320696e636f7272656374a2646970667358221220ef8b76502ddddadf493ba1f04171253f90bf6d8209c8cbba119de04213dd0dc664736f6c63430007060033",
  "immutableReferences": {},
  "source": "// SPDX-License-Identifier: MIT\npragma solidity >=0.4.22 <0.9.0;\n\nimport {PrivStruct} from \"../struct/PrivStruct.sol\";\nimport {TimeValidation} from \"../helpers/TimeValidation.sol\";\n\ncontract PrivateEvents is TimeValidation {\n    event eventIsFinish(int256 question_id, uint8 correctAnswer);\n    mapping(int256 => PrivStruct.EventData) events;\n    address owner;\n\n    constructor() {\n        owner = msg.sender;\n    }\n\n    function createEvent(\n        int256 _id,\n        uint256 _startTime,\n        uint256 _endTime,\n        uint8 _questionQuantity,\n        address _host\n    ) public {\n        require(msg.sender == owner, \"owner only\");\n        events[_id].id = _id;\n        events[_id].startTime = _startTime;\n        events[_id].endTime = _endTime;\n        events[_id].host = _host;\n        events[_id].questionQuantity = _questionQuantity;\n    }\n\n    function setRoleOfAdmin(int256 _id, address _correctAnswerSetter)\n        public\n    {\n        require(msg.sender == owner, \"owner only\");\n        events[_id].correctAnswerSetter = _correctAnswerSetter;\n    }\n\n    function setAnswer(\n        int256 _id,\n        uint8 _whichAnswer,\n        address _playerWallet\n    ) public {\n        require(msg.sender == owner, \"owner only\");\n        require(\n            timeAnswer(events[_id].startTime, events[_id].endTime) == 0,\n            \"Time is not valid for players\"\n        );\n        require(\n            events[_id].allPlayers[_playerWallet] != true,\n            \"user already participate in event\"\n        );\n\n        PrivStruct.Player memory play;\n        play = PrivStruct.Player(_playerWallet);\n        events[_id].allPlayers[_playerWallet] = true;\n        events[_id].player[_whichAnswer].push(play);\n    }\n\n    function setCorrectAnswer(\n        int256 _id,\n        uint8 _correctAnswer,\n        address _expertWallet\n    ) public {\n        require(msg.sender == owner, \"owner only\");\n        if (events[_id].correctAnswerSetter != address(0)) {\n            require(\n                _expertWallet == events[_id].correctAnswerSetter,\n                \"Wallet setter of corect answer is incorrect\"\n            );\n        }\n\n        require(\n            timeAnswer(events[_id].startTime, events[_id].endTime) == 2,\n            \"Time is not valid for expert\"\n        );\n        require(\n            events[_id].allPlayers[_expertWallet] != true,\n            \"user already participate in event\"\n        );\n        events[_id].correctAnswer = _correctAnswer;\n\n        emit eventIsFinish(_id, _correctAnswer);\n    }\n}\n",
  "sourcePath": "/Users/macbook/Documents/freelance/tokenominc/contracts/matic/events/PrivateEvents.sol",
  "compiler": {
    "name": "solc",
    "version": "0.7.6+commit.7338295f.Linux.g++"
  },
  "schemaVersion": "3.3.4",
  "updatedAt": "2021-03-17T15:28:12.213Z",
  "devdoc": {
    "kind": "dev",
    "methods": {},
    "version": 1
  },
  "userdoc": {
    "kind": "user",
    "methods": {},
    "version": 1
  }
}