{
  "contractName": "ProEvents",
  "abi": [
    {
      "inputs": [
        {
          "internalType": "contract BET",
          "name": "_betAddress",
          "type": "address"
        },
        {
          "internalType": "contract BTY",
          "name": "_btyAddress",
          "type": "address"
        }
      ],
      "stateMutability": "nonpayable",
      "type": "constructor"
    },
    {
      "inputs": [],
      "name": "getCompanyPerc",
      "outputs": [
        {
          "internalType": "uint256",
          "name": "",
          "type": "uint256"
        }
      ],
      "stateMutability": "view",
      "type": "function"
    },
    {
      "inputs": [],
      "name": "getExpertPerc",
      "outputs": [
        {
          "internalType": "uint256",
          "name": "",
          "type": "uint256"
        }
      ],
      "stateMutability": "view",
      "type": "function"
    },
    {
      "inputs": [],
      "name": "getFirstWithdraw",
      "outputs": [
        {
          "internalType": "uint256",
          "name": "",
          "type": "uint256"
        }
      ],
      "stateMutability": "view",
      "type": "function"
    },
    {
      "inputs": [],
      "name": "getGFindex",
      "outputs": [
        {
          "internalType": "uint256",
          "name": "",
          "type": "uint256"
        }
      ],
      "stateMutability": "view",
      "type": "function"
    },
    {
      "inputs": [],
      "name": "getGFrewards",
      "outputs": [
        {
          "internalType": "uint256",
          "name": "",
          "type": "uint256"
        }
      ],
      "stateMutability": "view",
      "type": "function"
    },
    {
      "inputs": [],
      "name": "getHostPerc",
      "outputs": [
        {
          "internalType": "uint256",
          "name": "",
          "type": "uint256"
        }
      ],
      "stateMutability": "view",
      "type": "function"
    },
    {
      "inputs": [],
      "name": "getPlayerPers",
      "outputs": [
        {
          "internalType": "uint256",
          "name": "",
          "type": "uint256"
        }
      ],
      "stateMutability": "view",
      "type": "function"
    },
    {
      "inputs": [],
      "name": "getWelcomeBTYTokens",
      "outputs": [
        {
          "internalType": "uint256",
          "name": "",
          "type": "uint256"
        }
      ],
      "stateMutability": "view",
      "type": "function"
    },
    {
      "inputs": [
        {
          "internalType": "uint256",
          "name": "_companyPerc",
          "type": "uint256"
        }
      ],
      "name": "setCompanyPerc",
      "outputs": [],
      "stateMutability": "nonpayable",
      "type": "function"
    },
    {
      "inputs": [
        {
          "internalType": "uint256",
          "name": "_expertPerc",
          "type": "uint256"
        }
      ],
      "name": "setExpertPerc",
      "outputs": [],
      "stateMutability": "nonpayable",
      "type": "function"
    },
    {
      "inputs": [
        {
          "internalType": "uint256",
          "name": "_firstWithdrawIndex",
          "type": "uint256"
        }
      ],
      "name": "setFirstWithdraw",
      "outputs": [],
      "stateMutability": "nonpayable",
      "type": "function"
    },
    {
      "inputs": [
        {
          "internalType": "uint256",
          "name": "_GFindex",
          "type": "uint256"
        }
      ],
      "name": "setGFindex",
      "outputs": [],
      "stateMutability": "nonpayable",
      "type": "function"
    },
    {
      "inputs": [
        {
          "internalType": "uint256",
          "name": "_GFrewards",
          "type": "uint256"
        }
      ],
      "name": "setGFrewards",
      "outputs": [],
      "stateMutability": "nonpayable",
      "type": "function"
    },
    {
      "inputs": [
        {
          "internalType": "uint256",
          "name": "_hostPerc",
          "type": "uint256"
        }
      ],
      "name": "setHostPerc",
      "outputs": [],
      "stateMutability": "nonpayable",
      "type": "function"
    },
    {
      "inputs": [
        {
          "internalType": "uint256",
          "name": "_playerPers",
          "type": "uint256"
        }
      ],
      "name": "setPlayerPers",
      "outputs": [],
      "stateMutability": "nonpayable",
      "type": "function"
    },
    {
      "inputs": [
        {
          "internalType": "uint256",
          "name": "_welcomeBTYTokens",
          "type": "uint256"
        }
      ],
      "name": "setWelcomeBTYTokens",
      "outputs": [],
      "stateMutability": "nonpayable",
      "type": "function"
    },
    {
      "inputs": [
        {
          "internalType": "uint256",
          "name": "_startTime",
          "type": "uint256"
        },
        {
          "internalType": "uint256",
          "name": "_endTime",
          "type": "uint256"
        }
      ],
      "name": "timeAnswer",
      "outputs": [
        {
          "internalType": "int8",
          "name": "",
          "type": "int8"
        }
      ],
      "stateMutability": "view",
      "type": "function"
    },
    {
      "inputs": [
        {
          "internalType": "uint256",
          "name": "_endTime",
          "type": "uint256"
        }
      ],
      "name": "timeValidate",
      "outputs": [
        {
          "internalType": "int8",
          "name": "",
          "type": "int8"
        }
      ],
      "stateMutability": "view",
      "type": "function"
    },
    {
      "inputs": [
        {
          "internalType": "int256",
          "name": "_id",
          "type": "int256"
        },
        {
          "internalType": "uint256",
          "name": "_startTime",
          "type": "uint256"
        },
        {
          "internalType": "uint256",
          "name": "_endTime",
          "type": "uint256"
        },
        {
          "internalType": "uint8",
          "name": "_questAmount",
          "type": "uint8"
        },
        {
          "internalType": "address payable",
          "name": "_host",
          "type": "address"
        },
        {
          "internalType": "uint256",
          "name": "_amount",
          "type": "uint256"
        }
      ],
      "name": "newEvent",
      "outputs": [],
      "stateMutability": "payable",
      "type": "function"
    },
    {
      "inputs": [
        {
          "internalType": "int256",
          "name": "_id",
          "type": "int256"
        },
        {
          "internalType": "uint8",
          "name": "_whichAnswer",
          "type": "uint8"
        },
        {
          "internalType": "uint256",
          "name": "_amount",
          "type": "uint256"
        },
        {
          "internalType": "address payable",
          "name": "_playerWallet",
          "type": "address"
        },
        {
          "internalType": "uint8",
          "name": "_reputation",
          "type": "uint8"
        }
      ],
      "name": "setAnswer",
      "outputs": [],
      "stateMutability": "payable",
      "type": "function"
    }
  ],
  "bytecode": "0x6080604052600a60055568056bc75e2d631000006006556001600755678ac7230489e8000060085534801561003357600080fd5b506040516119783803806119788339818101604052604081101561005657600080fd5b81019080805190602001909291908051906020019092919050505033600460006101000a81548173ffffffffffffffffffffffffffffffffffffffff021916908373ffffffffffffffffffffffffffffffffffffffff16021790555081600960006101000a81548173ffffffffffffffffffffffffffffffffffffffff021916908373ffffffffffffffffffffffffffffffffffffffff16021790555080600a60006101000a81548173ffffffffffffffffffffffffffffffffffffffff021916908373ffffffffffffffffffffffffffffffffffffffff1602179055505050611833806101456000396000f3fe60806040526004361061011f5760003560e01c8063997862cb116100a0578063d70b4bb611610064578063d70b4bb6146104f6578063d7a86da714610521578063e1aea5231461055c578063e640a53314610597578063ef99e099146105c25761011f565b8063997862cb146103ff578063a03c66971461042a578063be8968aa14610465578063c369085e14610490578063ca2f2f7a146104cb5761011f565b80633e634bdf116100e75780633e634bdf1461025257806354f6db74146102cb578063782f4a4f146103275780638995c4f4146103525780639580de67146103c45761011f565b80630328ff4a1461012457806319d6b7d81461015f57806324467c451461019a578063246fe647146101d5578063282dc54614610227575b600080fd5b34801561013057600080fd5b5061015d6004803603602081101561014757600080fd5b81019080803590602001909291905050506105ed565b005b34801561016b57600080fd5b506101986004803603602081101561018257600080fd5b810190808035906020019092919050505061069d565b005b3480156101a657600080fd5b506101d3600480360360208110156101bd57600080fd5b810190808035906020019092919050505061074d565b005b3480156101e157600080fd5b5061020e600480360360208110156101f857600080fd5b81019080803590602001909291905050506107fd565b604051808260000b815260200191505060405180910390f35b34801561023357600080fd5b5061023c61081b565b6040518082815260200191505060405180910390f35b6102c9600480360360c081101561026857600080fd5b81019080803590602001909291908035906020019092919080359060200190929190803560ff169060200190929190803573ffffffffffffffffffffffffffffffffffffffff16906020019092919080359060200190929190505050610825565b005b3480156102d757600080fd5b5061030e600480360360408110156102ee57600080fd5b810190808035906020019092919080359060200190929190505050610c40565b604051808260000b815260200191505060405180910390f35b34801561033357600080fd5b5061033c610c72565b6040518082815260200191505060405180910390f35b6103c2600480360360a081101561036857600080fd5b8101908080359060200190929190803560ff16906020019092919080359060200190929190803573ffffffffffffffffffffffffffffffffffffffff169060200190929190803560ff169060200190929190505050610c7c565b005b3480156103d057600080fd5b506103fd600480360360208110156103e757600080fd5b810190808035906020019092919050505061139b565b005b34801561040b57600080fd5b5061041461144b565b6040518082815260200191505060405180910390f35b34801561043657600080fd5b506104636004803603602081101561044d57600080fd5b8101908080359060200190929190505050611455565b005b34801561047157600080fd5b5061047a611505565b6040518082815260200191505060405180910390f35b34801561049c57600080fd5b506104c9600480360360208110156104b357600080fd5b810190808035906020019092919050505061150f565b005b3480156104d757600080fd5b506104e06115bf565b6040518082815260200191505060405180910390f35b34801561050257600080fd5b5061050b6115c8565b6040518082815260200191505060405180910390f35b34801561052d57600080fd5b5061055a6004803603602081101561054457600080fd5b81019080803590602001909291905050506115d2565b005b34801561056857600080fd5b506105956004803603602081101561057f57600080fd5b8101908080359060200190929190505050611682565b005b3480156105a357600080fd5b506105ac611732565b6040518082815260200191505060405180910390f35b3480156105ce57600080fd5b506105d761173c565b6040518082815260200191505060405180910390f35b600460009054906101000a900473ffffffffffffffffffffffffffffffffffffffff1673ffffffffffffffffffffffffffffffffffffffff163373ffffffffffffffffffffffffffffffffffffffff1614610693576040517f08c379a00000000000000000000000000000000000000000000000000000000081526004018080602001828103825260318152602001806117cd6031913960400191505060405180910390fd5b8060018190555050565b600460009054906101000a900473ffffffffffffffffffffffffffffffffffffffff1673ffffffffffffffffffffffffffffffffffffffff163373ffffffffffffffffffffffffffffffffffffffff1614610743576040517f08c379a00000000000000000000000000000000000000000000000000000000081526004018080602001828103825260318152602001806117cd6031913960400191505060405180910390fd5b8060088190555050565b600460009054906101000a900473ffffffffffffffffffffffffffffffffffffffff1673ffffffffffffffffffffffffffffffffffffffff163373ffffffffffffffffffffffffffffffffffffffff16146107f3576040517f08c379a00000000000000000000000000000000000000000000000000000000081526004018080602001828103825260318152602001806117cd6031913960400191505060405180910390fd5b8060008190555050565b600080824203126108115760009050610816565b600190505b919050565b6000600854905090565b600460009054906101000a900473ffffffffffffffffffffffffffffffffffffffff1673ffffffffffffffffffffffffffffffffffffffff163373ffffffffffffffffffffffffffffffffffffffff16146108cb576040517f08c379a00000000000000000000000000000000000000000000000000000000081526004018080602001828103825260318152602001806117cd6031913960400191505060405180910390fd5b85600b60008881526020019081526020016000206000018190555084600b60008881526020019081526020016000206002018190555083600b60008881526020019081526020016000206003018190555082600b600088815260200190815260200160002060040160006101000a81548160ff021916908360ff16021790555081600b600088815260200190815260200160002060010160006101000a81548173ffffffffffffffffffffffffffffffffffffffff021916908373ffffffffffffffffffffffffffffffffffffffff16021790555080600a60009054906101000a900473ffffffffffffffffffffffffffffffffffffffff1673ffffffffffffffffffffffffffffffffffffffff1663dd62ed3e84306040518363ffffffff1660e01b8152600401808373ffffffffffffffffffffffffffffffffffffffff1681526020018273ffffffffffffffffffffffffffffffffffffffff1681526020019250505060206040518083038186803b158015610a4857600080fd5b505afa158015610a5c573d6000803e3d6000fd5b505050506040513d6020811015610a7257600080fd5b81019080805190602001909291905050501015610af7576040517f08c379a000000000000000000000000000000000000000000000000000000000815260040180806020018281038252600f8152602001807f416c6c6f77616e6365206572726f72000000000000000000000000000000000081525060200191505060405180910390fd5b600a60009054906101000a900473ffffffffffffffffffffffffffffffffffffffff1673ffffffffffffffffffffffffffffffffffffffff166323b872dd8330846040518463ffffffff1660e01b8152600401808473ffffffffffffffffffffffffffffffffffffffff1681526020018373ffffffffffffffffffffffffffffffffffffffff1681526020018281526020019350505050602060405180830381600087803b158015610ba857600080fd5b505af1158015610bbc573d6000803e3d6000fd5b505050506040513d6020811015610bd257600080fd5b8101908080519060200190929190505050610c38576040517f08c379a00000000000000000000000000000000000000000000000000000000081526004018080602001828103825260278152602001806117856027913960400191505060405180910390fd5b505050505050565b60008083420312610c6757600042830312610c5e5760009050610c6c565b60029050610c6c565b600190505b92915050565b6000600654905090565b600460009054906101000a900473ffffffffffffffffffffffffffffffffffffffff1673ffffffffffffffffffffffffffffffffffffffff163373ffffffffffffffffffffffffffffffffffffffff1614610d22576040517f08c379a00000000000000000000000000000000000000000000000000000000081526004018080602001828103825260318152602001806117cd6031913960400191505060405180910390fd5b6000610d5a600b600088815260200190815260200160002060020154600b600089815260200190815260200160002060030154610c40565b60000b14610dd0576040517f08c379a00000000000000000000000000000000000000000000000000000000081526004018080602001828103825260118152602001807f54696d65206973206e6f742076616c696400000000000000000000000000000081525060200191505060405180910390fd5b600b600086815260200190815260200160002060090160009054906101000a900460ff16610e66576040517f08c379a000000000000000000000000000000000000000000000000000000000815260040180806020018281038252600f8152602001807f6576656e742069732066696e697368000000000000000000000000000000000081525060200191505060405180910390fd5b60011515600b600087815260200190815260200160002060070160008473ffffffffffffffffffffffffffffffffffffffff1673ffffffffffffffffffffffffffffffffffffffff16815260200190815260200160002060009054906101000a900460ff16151514610f23576040517f08c379a00000000000000000000000000000000000000000000000000000000081526004018080602001828103825260218152602001806117ac6021913960400191505060405180910390fd5b610f2b61174a565b60405180606001604052808473ffffffffffffffffffffffffffffffffffffffff1681526020018581526020018360ff168152509050600b600087815260200190815260200160002060060160008660ff16815260200190815260200160002081908060018154018082558091505060019003906000526020600020906003020160009091909190915060008201518160000160006101000a81548173ffffffffffffffffffffffffffffffffffffffff021916908373ffffffffffffffffffffffffffffffffffffffff1602179055506020820151816001015560408201518160020160006101000a81548160ff021916908360ff16021790555050506001600b600088815260200190815260200160002060070160008573ffffffffffffffffffffffffffffffffffffffff1673ffffffffffffffffffffffffffffffffffffffff16815260200190815260200160002060006101000a81548160ff0219169083151502179055506001600b60008881526020019081526020016000206008016000828254019250508190555083600b6000888152602001908152602001600020600a016000828254019250508190555083600960009054906101000a900473ffffffffffffffffffffffffffffffffffffffff1673ffffffffffffffffffffffffffffffffffffffff1663dd62ed3e85306040518363ffffffff1660e01b8152600401808373ffffffffffffffffffffffffffffffffffffffff1681526020018273ffffffffffffffffffffffffffffffffffffffff1681526020019250505060206040518083038186803b15801561118657600080fd5b505afa15801561119a573d6000803e3d6000fd5b505050506040513d60208110156111b057600080fd5b81019080805190602001909291905050501015611235576040517f08c379a000000000000000000000000000000000000000000000000000000000815260040180806020018281038252600f8152602001807f416c6c6f77616e6365206572726f72000000000000000000000000000000000081525060200191505060405180910390fd5b600960009054906101000a900473ffffffffffffffffffffffffffffffffffffffff1673ffffffffffffffffffffffffffffffffffffffff166323b872dd8430876040518463ffffffff1660e01b8152600401808473ffffffffffffffffffffffffffffffffffffffff1681526020018373ffffffffffffffffffffffffffffffffffffffff1681526020018281526020019350505050602060405180830381600087803b1580156112e657600080fd5b505af11580156112fa573d6000803e3d6000fd5b505050506040513d602081101561131057600080fd5b8101908080519060200190929190505050611393576040517f08c379a000000000000000000000000000000000000000000000000000000000815260040180806020018281038252601f8152602001807f5472616e73666572204254592066726f6d20706c6179657273206572726f720081525060200191505060405180910390fd5b505050505050565b600460009054906101000a900473ffffffffffffffffffffffffffffffffffffffff1673ffffffffffffffffffffffffffffffffffffffff163373ffffffffffffffffffffffffffffffffffffffff1614611441576040517f08c379a00000000000000000000000000000000000000000000000000000000081526004018080602001828103825260318152602001806117cd6031913960400191505060405180910390fd5b8060028190555050565b6000600354905090565b600460009054906101000a900473ffffffffffffffffffffffffffffffffffffffff1673ffffffffffffffffffffffffffffffffffffffff163373ffffffffffffffffffffffffffffffffffffffff16146114fb576040517f08c379a00000000000000000000000000000000000000000000000000000000081526004018080602001828103825260318152602001806117cd6031913960400191505060405180910390fd5b8060058190555050565b6000600154905090565b600460009054906101000a900473ffffffffffffffffffffffffffffffffffffffff1673ffffffffffffffffffffffffffffffffffffffff163373ffffffffffffffffffffffffffffffffffffffff16146115b5576040517f08c379a00000000000000000000000000000000000000000000000000000000081526004018080602001828103825260318152602001806117cd6031913960400191505060405180910390fd5b8060078190555050565b60008054905090565b6000600754905090565b600460009054906101000a900473ffffffffffffffffffffffffffffffffffffffff1673ffffffffffffffffffffffffffffffffffffffff163373ffffffffffffffffffffffffffffffffffffffff1614611678576040517f08c379a00000000000000000000000000000000000000000000000000000000081526004018080602001828103825260318152602001806117cd6031913960400191505060405180910390fd5b8060068190555050565b600460009054906101000a900473ffffffffffffffffffffffffffffffffffffffff1673ffffffffffffffffffffffffffffffffffffffff163373ffffffffffffffffffffffffffffffffffffffff1614611728576040517f08c379a00000000000000000000000000000000000000000000000000000000081526004018080602001828103825260318152602001806117cd6031913960400191505060405180910390fd5b8060038190555050565b6000600254905090565b600060055460085402905090565b6040518060600160405280600073ffffffffffffffffffffffffffffffffffffffff16815260200160008152602001600060ff168152509056fe5472616e736665722042545920746f6b656e7320666f722050524f206576656e74206572726f727573657220616c726561647920706172746963697061746520696e206576656e74546869732066756e6374696f6e20636f756c64206f6e6c7920626520657865637574656420627920746865206f776e6572a2646970667358221220b3950f74b6b9cd7f606fbce4011fe0b4a397e725dc613b6fcce734a0bceb5e5b64736f6c63430007060033",
  "immutableReferences": {},
  "source": "// SPDX-License-Identifier: MIT\npragma solidity >=0.4.22 <0.9.0;\n\nimport {ProStruct} from \"../struct/ProStruct.sol\";\nimport {TimeValidation} from \"../helpers/TimeValidation.sol\";\nimport {ConfigVariables} from \"../config/ConfigVariables.sol\";\nimport {BET} from \"../tokens/BET.sol\";\nimport {BTY} from \"../tokens/BTY.sol\";\n\ncontract ProEvents is TimeValidation, ConfigVariables {\n    BET private betToken;\n    BTY private btyToken;\n\n    mapping(int256 => ProStruct.EventData) events;\n\n    constructor(BET _betAddress, BTY _btyAddress) {\n        betToken = _betAddress;\n        btyToken = _btyAddress;\n    }\n\n    function newEvent(\n        int256 _id,\n        uint256 _startTime,\n        uint256 _endTime,\n        uint8 _questAmount,\n        address payable _host,\n        uint256 _amount\n    ) public payable ownerOnly() {\n        events[_id].id = _id;\n        events[_id].startTime = _startTime;\n        events[_id].endTime = _endTime;\n        events[_id].questAmount = _questAmount;\n        events[_id].host = _host;\n\n        require(\n            btyToken.allowance(_host, address(this)) >= _amount,\n            \"Allowance error\"\n        );\n        require(\n            btyToken.transferFrom(_host, address(this), _amount),\n            \"Transfer BTY tokens for PRO event error\"\n        );\n    }\n\n    function setAnswer(\n        int256 _id,\n        uint8 _whichAnswer,\n        uint256 _amount,\n        address payable _playerWallet,\n        uint8 _reputation\n    ) public payable ownerOnly() {\n        require(\n            timeAnswer(events[_id].startTime, events[_id].endTime) == 0,\n            \"Time is not valid\"\n        );\n        require(events[_id].eventFinish, \"event is finish\");\n        require(\n            events[_id].allPlayers[_playerWallet] == true,\n            \"user already participate in event\"\n        );\n\n        ProStruct.Player memory player;\n        player = ProStruct.Player(_playerWallet, _amount, _reputation);\n        events[_id].player[_whichAnswer].push(player);\n        events[_id].allPlayers[_playerWallet] = true;\n        events[_id].activePlayers += 1;\n        events[_id].pool += _amount;\n\n        require(\n            betToken.allowance(_playerWallet, address(this)) >= _amount,\n            \"Allowance error\"\n        );\n        require(\n            betToken.transferFrom(_playerWallet, address(this), _amount),\n            \"Transfer BTY from players error\"\n        );\n    }\n\n    //TODO add event finish logic\n\n\n}\n",
  "sourcePath": "/Users/macbook/Documents/freelance/tokenominc/contracts/events/ProEvents.sol",
  "compiler": {
    "name": "solc",
    "version": "0.7.6+commit.7338295f.Linux.g++"
  },
  "schemaVersion": "3.2.2",
  "updatedAt": "2021-02-23T12:00:59.030Z",
  "devdoc": {
    "kind": "dev",
    "methods": {},
    "version": 1
  },
  "userdoc": {
    "kind": "user",
    "methods": {},
    "version": 1
  }
}