{
  "contractName": "ProEvents",
  "abi": [
    {
      "inputs": [
        {
          "internalType": "contract BET",
          "name": "_betAddress",
          "type": "address"
        },
        {
          "internalType": "contract BTY",
          "name": "_btyAddress",
          "type": "address"
        }
      ],
      "stateMutability": "nonpayable",
      "type": "constructor"
    },
    {
      "inputs": [],
      "name": "GFindex",
      "outputs": [
        {
          "internalType": "uint256",
          "name": "",
          "type": "uint256"
        }
      ],
      "stateMutability": "view",
      "type": "function"
    },
    {
      "inputs": [],
      "name": "GFrewards",
      "outputs": [
        {
          "internalType": "uint256",
          "name": "",
          "type": "uint256"
        }
      ],
      "stateMutability": "view",
      "type": "function"
    },
    {
      "inputs": [],
      "name": "communityMarketingFund",
      "outputs": [
        {
          "internalType": "uint256",
          "name": "",
          "type": "uint256"
        }
      ],
      "stateMutability": "view",
      "type": "function"
    },
    {
      "inputs": [],
      "name": "companyPerc",
      "outputs": [
        {
          "internalType": "uint256",
          "name": "",
          "type": "uint256"
        }
      ],
      "stateMutability": "view",
      "type": "function"
    },
    {
      "inputs": [],
      "name": "expertPerc",
      "outputs": [
        {
          "internalType": "uint256",
          "name": "",
          "type": "uint256"
        }
      ],
      "stateMutability": "view",
      "type": "function"
    },
    {
      "inputs": [],
      "name": "firstWithdrawIndex",
      "outputs": [
        {
          "internalType": "uint256",
          "name": "",
          "type": "uint256"
        }
      ],
      "stateMutability": "view",
      "type": "function"
    },
    {
      "inputs": [],
      "name": "getFirstWithdraw",
      "outputs": [
        {
          "internalType": "uint256",
          "name": "",
          "type": "uint256"
        }
      ],
      "stateMutability": "view",
      "type": "function"
    },
    {
      "inputs": [],
      "name": "hostPerc",
      "outputs": [
        {
          "internalType": "uint256",
          "name": "",
          "type": "uint256"
        }
      ],
      "stateMutability": "view",
      "type": "function"
    },
    {
      "inputs": [],
      "name": "owner",
      "outputs": [
        {
          "internalType": "address",
          "name": "",
          "type": "address"
        }
      ],
      "stateMutability": "view",
      "type": "function"
    },
    {
      "inputs": [],
      "name": "playerPers",
      "outputs": [
        {
          "internalType": "uint256",
          "name": "",
          "type": "uint256"
        }
      ],
      "stateMutability": "view",
      "type": "function"
    },
    {
      "inputs": [
        {
          "internalType": "uint256",
          "name": "_companyPerc",
          "type": "uint256"
        }
      ],
      "name": "setCompanyPerc",
      "outputs": [],
      "stateMutability": "nonpayable",
      "type": "function"
    },
    {
      "inputs": [
        {
          "internalType": "uint256",
          "name": "_expertPerc",
          "type": "uint256"
        }
      ],
      "name": "setExpertPerc",
      "outputs": [],
      "stateMutability": "nonpayable",
      "type": "function"
    },
    {
      "inputs": [
        {
          "internalType": "uint256",
          "name": "_firstWithdrawIndex",
          "type": "uint256"
        }
      ],
      "name": "setFirstWithdraw",
      "outputs": [],
      "stateMutability": "nonpayable",
      "type": "function"
    },
    {
      "inputs": [
        {
          "internalType": "uint256",
          "name": "_GFindex",
          "type": "uint256"
        }
      ],
      "name": "setGFindex",
      "outputs": [],
      "stateMutability": "nonpayable",
      "type": "function"
    },
    {
      "inputs": [
        {
          "internalType": "uint256",
          "name": "_GFrewards",
          "type": "uint256"
        }
      ],
      "name": "setGFrewards",
      "outputs": [],
      "stateMutability": "nonpayable",
      "type": "function"
    },
    {
      "inputs": [
        {
          "internalType": "uint256",
          "name": "_hostPerc",
          "type": "uint256"
        }
      ],
      "name": "setHostPerc",
      "outputs": [],
      "stateMutability": "nonpayable",
      "type": "function"
    },
    {
      "inputs": [
        {
          "internalType": "uint256",
          "name": "_playerPers",
          "type": "uint256"
        }
      ],
      "name": "setPlayerPers",
      "outputs": [],
      "stateMutability": "nonpayable",
      "type": "function"
    },
    {
      "inputs": [
        {
          "internalType": "uint256",
          "name": "_welcomeBTYTokens",
          "type": "uint256"
        }
      ],
      "name": "setWelcomeBTYTokens",
      "outputs": [],
      "stateMutability": "nonpayable",
      "type": "function"
    },
    {
      "inputs": [
        {
          "internalType": "uint256",
          "name": "_startTime",
          "type": "uint256"
        },
        {
          "internalType": "uint256",
          "name": "_endTime",
          "type": "uint256"
        }
      ],
      "name": "timeAnswer",
      "outputs": [
        {
          "internalType": "int8",
          "name": "",
          "type": "int8"
        }
      ],
      "stateMutability": "view",
      "type": "function"
    },
    {
      "inputs": [
        {
          "internalType": "uint256",
          "name": "_endTime",
          "type": "uint256"
        }
      ],
      "name": "timeValidate",
      "outputs": [
        {
          "internalType": "int8",
          "name": "",
          "type": "int8"
        }
      ],
      "stateMutability": "view",
      "type": "function"
    },
    {
      "inputs": [],
      "name": "welcomeBTYTokens",
      "outputs": [
        {
          "internalType": "uint256",
          "name": "",
          "type": "uint256"
        }
      ],
      "stateMutability": "view",
      "type": "function"
    },
    {
      "inputs": [
        {
          "internalType": "int256",
          "name": "_id",
          "type": "int256"
        },
        {
          "internalType": "uint256",
          "name": "_startTime",
          "type": "uint256"
        },
        {
          "internalType": "uint256",
          "name": "_endTime",
          "type": "uint256"
        },
        {
          "internalType": "uint8",
          "name": "_questAmount",
          "type": "uint8"
        },
        {
          "internalType": "address payable",
          "name": "_host",
          "type": "address"
        },
        {
          "internalType": "uint256",
          "name": "_prizeAmount",
          "type": "uint256"
        },
        {
          "internalType": "bool",
          "name": "_eventFinishWay",
          "type": "bool"
        },
        {
          "internalType": "uint256",
          "name": "_playersNeeded",
          "type": "uint256"
        }
      ],
      "name": "newEvent",
      "outputs": [],
      "stateMutability": "payable",
      "type": "function"
    },
    {
      "inputs": [
        {
          "internalType": "int256",
          "name": "_id",
          "type": "int256"
        },
        {
          "internalType": "uint8",
          "name": "_whichAnswer",
          "type": "uint8"
        },
        {
          "internalType": "address payable",
          "name": "_playerWallet",
          "type": "address"
        },
        {
          "internalType": "uint8",
          "name": "_reputation",
          "type": "uint8"
        }
      ],
      "name": "setAnswer",
      "outputs": [],
      "stateMutability": "payable",
      "type": "function"
    }
  ],
  "bytecode": "0x6080604052600a600155600a600255600a600355600a60065568056bc75e2d631000006007556001600855678ac7230489e8000060095534801561004257600080fd5b506040516117d43803806117d48339818101604052604081101561006557600080fd5b81019080805190602001909291908051906020019092919050505033600560006101000a81548173ffffffffffffffffffffffffffffffffffffffff021916908373ffffffffffffffffffffffffffffffffffffffff16021790555081600a60006101000a81548173ffffffffffffffffffffffffffffffffffffffff021916908373ffffffffffffffffffffffffffffffffffffffff16021790555080600b60006101000a81548173ffffffffffffffffffffffffffffffffffffffff021916908373ffffffffffffffffffffffffffffffffffffffff1602179055505050611680806101546000396000f3fe6080604052600436106101405760003560e01c8063896aa7a4116100b6578063c369085e1161006f578063c369085e14610580578063cd095085146105bb578063d7a86da7146105e6578063df18581714610621578063e1aea5231461064c578063ef99e0991461068757610140565b8063896aa7a4146104485780638da5cb5b146104735780638fc8bc42146104b45780639580de67146104df578063a03c66971461051a578063b44901e81461055557610140565b8063279a839b11610108578063279a839b146102735780632d0e277c146102db5780632e63e4521461030657806354f6db74146103315780636afd7b7f1461038d5780637378be2f146103b857610140565b80630328ff4a1461014557806315cfe4191461018057806319d6b7d8146101ab57806324467c45146101e6578063246fe64714610221575b600080fd5b34801561015157600080fd5b5061017e6004803603602081101561016857600080fd5b81019080803590602001909291905050506106b2565b005b34801561018c57600080fd5b50610195610762565b6040518082815260200191505060405180910390f35b3480156101b757600080fd5b506101e4600480360360208110156101ce57600080fd5b8101908080359060200190929190505050610768565b005b3480156101f257600080fd5b5061021f6004803603602081101561020957600080fd5b8101908080359060200190929190505050610818565b005b34801561022d57600080fd5b5061025a6004803603602081101561024457600080fd5b81019080803590602001909291905050506108c8565b604051808260000b815260200191505060405180910390f35b6102d96004803603608081101561028957600080fd5b8101908080359060200190929190803560ff169060200190929190803573ffffffffffffffffffffffffffffffffffffffff169060200190929190803560ff1690602001909291905050506108e6565b005b3480156102e757600080fd5b506102f0610d17565b6040518082815260200191505060405180910390f35b34801561031257600080fd5b5061031b610d1d565b6040518082815260200191505060405180910390f35b34801561033d57600080fd5b506103746004803603604081101561035457600080fd5b810190808035906020019092919080359060200190929190505050610d23565b604051808260000b815260200191505060405180910390f35b34801561039957600080fd5b506103a2610d55565b6040518082815260200191505060405180910390f35b61044660048036036101008110156103cf57600080fd5b81019080803590602001909291908035906020019092919080359060200190929190803560ff169060200190929190803573ffffffffffffffffffffffffffffffffffffffff1690602001909291908035906020019092919080351515906020019092919080359060200190929190505050610d5b565b005b34801561045457600080fd5b5061045d6111dc565b6040518082815260200191505060405180910390f35b34801561047f57600080fd5b506104886111e2565b604051808273ffffffffffffffffffffffffffffffffffffffff16815260200191505060405180910390f35b3480156104c057600080fd5b506104c9611208565b6040518082815260200191505060405180910390f35b3480156104eb57600080fd5b506105186004803603602081101561050257600080fd5b810190808035906020019092919050505061120e565b005b34801561052657600080fd5b506105536004803603602081101561053d57600080fd5b81019080803590602001909291905050506112be565b005b34801561056157600080fd5b5061056a61136e565b6040518082815260200191505060405180910390f35b34801561058c57600080fd5b506105b9600480360360208110156105a357600080fd5b8101908080359060200190929190505050611374565b005b3480156105c757600080fd5b506105d0611424565b6040518082815260200191505060405180910390f35b3480156105f257600080fd5b5061061f6004803603602081101561060957600080fd5b810190808035906020019092919050505061142a565b005b34801561062d57600080fd5b506106366114da565b6040518082815260200191505060405180910390f35b34801561065857600080fd5b506106856004803603602081101561066f57600080fd5b81019080803590602001909291905050506114e0565b005b34801561069357600080fd5b5061069c611590565b6040518082815260200191505060405180910390f35b600560009054906101000a900473ffffffffffffffffffffffffffffffffffffffff1673ffffffffffffffffffffffffffffffffffffffff163373ffffffffffffffffffffffffffffffffffffffff1614610758576040517f08c379a000000000000000000000000000000000000000000000000000000000815260040180806020018281038252603181526020018061161a6031913960400191505060405180910390fd5b8060028190555050565b60085481565b600560009054906101000a900473ffffffffffffffffffffffffffffffffffffffff1673ffffffffffffffffffffffffffffffffffffffff163373ffffffffffffffffffffffffffffffffffffffff161461080e576040517f08c379a000000000000000000000000000000000000000000000000000000000815260040180806020018281038252603181526020018061161a6031913960400191505060405180910390fd5b8060098190555050565b600560009054906101000a900473ffffffffffffffffffffffffffffffffffffffff1673ffffffffffffffffffffffffffffffffffffffff163373ffffffffffffffffffffffffffffffffffffffff16146108be576040517f08c379a000000000000000000000000000000000000000000000000000000000815260040180806020018281038252603181526020018061161a6031913960400191505060405180910390fd5b8060018190555050565b600080824203126108dc57600090506108e1565b600190505b919050565b600560009054906101000a900473ffffffffffffffffffffffffffffffffffffffff1673ffffffffffffffffffffffffffffffffffffffff163373ffffffffffffffffffffffffffffffffffffffff161461098c576040517f08c379a000000000000000000000000000000000000000000000000000000000815260040180806020018281038252603181526020018061161a6031913960400191505060405180910390fd5b60006109c4600c600087815260200190815260200160002060020154600c600088815260200190815260200160002060030154610d23565b60000b14610a3a576040517f08c379a00000000000000000000000000000000000000000000000000000000081526004018080602001828103825260118152602001807f54696d65206973206e6f742076616c696400000000000000000000000000000081525060200191505060405180910390fd5b600c6000858152602001908152602001600020600c0160009054906101000a900460ff16610ad0576040517f08c379a000000000000000000000000000000000000000000000000000000000815260040180806020018281038252600f8152602001807f6576656e742069732066696e697368000000000000000000000000000000000081525060200191505060405180910390fd5b60011515600c600086815260200190815260200160002060070160008473ffffffffffffffffffffffffffffffffffffffff1673ffffffffffffffffffffffffffffffffffffffff16815260200190815260200160002060009054906101000a900460ff16151514610b8d576040517f08c379a00000000000000000000000000000000000000000000000000000000081526004018080602001828103825260218152602001806115f96021913960400191505060405180910390fd5b610b9561159e565b60405180604001604052808473ffffffffffffffffffffffffffffffffffffffff1681526020018360ff168152509050600c600086815260200190815260200160002060060160008560ff168152602001908152602001600020819080600181540180825580915050600190039060005260206000200160009091909190915060008201518160000160006101000a81548173ffffffffffffffffffffffffffffffffffffffff021916908373ffffffffffffffffffffffffffffffffffffffff16021790555060208201518160000160146101000a81548160ff021916908360ff16021790555050506001600c600087815260200190815260200160002060070160008573ffffffffffffffffffffffffffffffffffffffff1673ffffffffffffffffffffffffffffffffffffffff16815260200190815260200160002060006101000a81548160ff0219169083151502179055506001600c6000878152602001908152602001600020600801600082825401925050819055505050505050565b60005481565b60095481565b60008083420312610d4a57600042830312610d415760009050610d4f565b60029050610d4f565b600190505b92915050565b60015481565b600560009054906101000a900473ffffffffffffffffffffffffffffffffffffffff1673ffffffffffffffffffffffffffffffffffffffff163373ffffffffffffffffffffffffffffffffffffffff1614610e01576040517f08c379a000000000000000000000000000000000000000000000000000000000815260040180806020018281038252603181526020018061161a6031913960400191505060405180910390fd5b87600c60008a81526020019081526020016000206000018190555086600c60008a81526020019081526020016000206002018190555085600c60008a81526020019081526020016000206003018190555084600c60008a815260200190815260200160002060040160006101000a81548160ff021916908360ff16021790555083600c60008a815260200190815260200160002060010160006101000a81548173ffffffffffffffffffffffffffffffffffffffff021916908373ffffffffffffffffffffffffffffffffffffffff16021790555082600c60008a81526020019081526020016000206005018190555081600c60008a8152602001908152602001600020600c0160016101000a81548160ff02191690831515021790555080600c60008a8152602001908152602001600020600a018190555082600b60009054906101000a900473ffffffffffffffffffffffffffffffffffffffff1673ffffffffffffffffffffffffffffffffffffffff1663dd62ed3e86306040518363ffffffff1660e01b8152600401808373ffffffffffffffffffffffffffffffffffffffff1681526020018273ffffffffffffffffffffffffffffffffffffffff1681526020019250505060206040518083038186803b158015610fe257600080fd5b505afa158015610ff6573d6000803e3d6000fd5b505050506040513d602081101561100c57600080fd5b81019080805190602001909291905050501015611091576040517f08c379a000000000000000000000000000000000000000000000000000000000815260040180806020018281038252600f8152602001807f416c6c6f77616e6365206572726f72000000000000000000000000000000000081525060200191505060405180910390fd5b600b60009054906101000a900473ffffffffffffffffffffffffffffffffffffffff1673ffffffffffffffffffffffffffffffffffffffff166323b872dd8530866040518463ffffffff1660e01b8152600401808473ffffffffffffffffffffffffffffffffffffffff1681526020018373ffffffffffffffffffffffffffffffffffffffff1681526020018281526020019350505050602060405180830381600087803b15801561114257600080fd5b505af1158015611156573d6000803e3d6000fd5b505050506040513d602081101561116c57600080fd5b81019080805190602001909291905050506111d2576040517f08c379a00000000000000000000000000000000000000000000000000000000081526004018080602001828103825260278152602001806115d26027913960400191505060405180910390fd5b5050505050505050565b60035481565b600560009054906101000a900473ffffffffffffffffffffffffffffffffffffffff1681565b60025481565b600560009054906101000a900473ffffffffffffffffffffffffffffffffffffffff1673ffffffffffffffffffffffffffffffffffffffff163373ffffffffffffffffffffffffffffffffffffffff16146112b4576040517f08c379a000000000000000000000000000000000000000000000000000000000815260040180806020018281038252603181526020018061161a6031913960400191505060405180910390fd5b8060038190555050565b600560009054906101000a900473ffffffffffffffffffffffffffffffffffffffff1673ffffffffffffffffffffffffffffffffffffffff163373ffffffffffffffffffffffffffffffffffffffff1614611364576040517f08c379a000000000000000000000000000000000000000000000000000000000815260040180806020018281038252603181526020018061161a6031913960400191505060405180910390fd5b8060068190555050565b60065481565b600560009054906101000a900473ffffffffffffffffffffffffffffffffffffffff1673ffffffffffffffffffffffffffffffffffffffff163373ffffffffffffffffffffffffffffffffffffffff161461141a576040517f08c379a000000000000000000000000000000000000000000000000000000000815260040180806020018281038252603181526020018061161a6031913960400191505060405180910390fd5b8060088190555050565b60045481565b600560009054906101000a900473ffffffffffffffffffffffffffffffffffffffff1673ffffffffffffffffffffffffffffffffffffffff163373ffffffffffffffffffffffffffffffffffffffff16146114d0576040517f08c379a000000000000000000000000000000000000000000000000000000000815260040180806020018281038252603181526020018061161a6031913960400191505060405180910390fd5b8060078190555050565b60075481565b600560009054906101000a900473ffffffffffffffffffffffffffffffffffffffff1673ffffffffffffffffffffffffffffffffffffffff163373ffffffffffffffffffffffffffffffffffffffff1614611586576040517f08c379a000000000000000000000000000000000000000000000000000000000815260040180806020018281038252603181526020018061161a6031913960400191505060405180910390fd5b8060048190555050565b600060065460095402905090565b6040518060400160405280600073ffffffffffffffffffffffffffffffffffffffff168152602001600060ff168152509056fe5472616e736665722042545920746f6b656e7320666f722050524f206576656e74206572726f727573657220616c726561647920706172746963697061746520696e206576656e74546869732066756e6374696f6e20636f756c64206f6e6c7920626520657865637574656420627920746865206f776e6572a264697066735822122067a7c74c85f8743523e752ee74218009d6d623c223ef706b565931ebce72678e64736f6c63430007060033",
  "immutableReferences": {},
  "source": "// SPDX-License-Identifier: MIT\npragma solidity >=0.4.22 <0.9.0;\n\nimport {ProStruct} from \"../struct/ProStruct.sol\";\nimport {TimeValidation} from \"../helpers/TimeValidation.sol\";\nimport {ConfigVariables} from \"../config/ConfigVariables.sol\";\nimport {BET} from \"../tokens/BET.sol\";\nimport {BTY} from \"../tokens/BTY.sol\";\n\ncontract ProEvents is TimeValidation, ConfigVariables {\n    BET private betToken;\n    BTY private btyToken;\n\n    mapping(int256 => ProStruct.EventData) events;\n\n    constructor(BET _betAddress, BTY _btyAddress) {\n        betToken = _betAddress;\n        btyToken = _btyAddress;\n    }\n\n    function newEvent(\n        int256 _id,\n        uint256 _startTime,\n        uint256 _endTime,\n        uint8 _questAmount,\n        address payable _host,\n        uint256 _prizeAmount,\n        bool _eventFinishWay,\n        uint256 _playersNeeded\n    ) public payable ownerOnly() {\n        events[_id].id = _id;\n        events[_id].startTime = _startTime;\n        events[_id].endTime = _endTime;\n        events[_id].questAmount = _questAmount;\n        events[_id].host = _host;\n        events[_id].prizeAmount = _prizeAmount;\n        events[_id].eventFinishWay = _eventFinishWay;\n        events[_id].playersNeeded = _playersNeeded;\n\n        require(\n            btyToken.allowance(_host, address(this)) >= _prizeAmount,\n            \"Allowance error\"\n        );\n        require(\n            btyToken.transferFrom(_host, address(this), _prizeAmount),\n            \"Transfer BTY tokens for PRO event error\"\n        );\n    }\n\n    function setAnswer(\n        int256 _id,\n        uint8 _whichAnswer,\n        address payable _playerWallet,\n        uint8 _reputation\n    ) public payable ownerOnly() {\n        require(\n            timeAnswer(events[_id].startTime, events[_id].endTime) == 0,\n            \"Time is not valid\"\n        );\n        require(events[_id].eventFinish, \"event is finish\");\n        require(\n            events[_id].allPlayers[_playerWallet] == true,\n            \"user already participate in event\"\n        );\n\n        ProStruct.Player memory player;\n        player = ProStruct.Player(_playerWallet, _reputation);\n        events[_id].player[_whichAnswer].push(player);\n        events[_id].allPlayers[_playerWallet] = true;\n        events[_id].activePlayers += 1;\n\n    }\n\n    //TODO add event finish logic\n\n\n}\n",
  "sourcePath": "/Users/macbook/Documents/freelance/tokenominc/contracts/events/ProEvents.sol",
  "compiler": {
    "name": "solc",
    "version": "0.7.6+commit.7338295f.Linux.g++"
  },
  "schemaVersion": "3.2.2",
  "updatedAt": "2021-03-01T13:44:40.690Z",
  "devdoc": {
    "kind": "dev",
    "methods": {},
    "version": 1
  },
  "userdoc": {
    "kind": "user",
    "methods": {},
    "version": 1
  }
}