{
  "contractName": "ProEvents",
  "abi": [
    {
      "inputs": [
        {
          "internalType": "contract BET",
          "name": "_betAddress",
          "type": "address"
        },
        {
          "internalType": "contract BTY",
          "name": "_btyAddress",
          "type": "address"
        }
      ],
      "stateMutability": "nonpayable",
      "type": "constructor"
    },
    {
      "inputs": [],
      "name": "GFindex",
      "outputs": [
        {
          "internalType": "uint256",
          "name": "",
          "type": "uint256"
        }
      ],
      "stateMutability": "view",
      "type": "function"
    },
    {
      "inputs": [],
      "name": "GFrewards",
      "outputs": [
        {
          "internalType": "uint256",
          "name": "",
          "type": "uint256"
        }
      ],
      "stateMutability": "view",
      "type": "function"
    },
    {
      "inputs": [],
      "name": "advisorPepc",
      "outputs": [
        {
          "internalType": "uint256",
          "name": "",
          "type": "uint256"
        }
      ],
      "stateMutability": "view",
      "type": "function"
    },
    {
      "inputs": [],
      "name": "advisorPercMint",
      "outputs": [
        {
          "internalType": "uint256",
          "name": "",
          "type": "uint256"
        }
      ],
      "stateMutability": "view",
      "type": "function"
    },
    {
      "inputs": [],
      "name": "communityMarketingFund",
      "outputs": [
        {
          "internalType": "uint256",
          "name": "",
          "type": "uint256"
        }
      ],
      "stateMutability": "view",
      "type": "function"
    },
    {
      "inputs": [],
      "name": "companyPerc",
      "outputs": [
        {
          "internalType": "uint256",
          "name": "",
          "type": "uint256"
        }
      ],
      "stateMutability": "view",
      "type": "function"
    },
    {
      "inputs": [],
      "name": "expertExptraPerc",
      "outputs": [
        {
          "internalType": "uint256",
          "name": "",
          "type": "uint256"
        }
      ],
      "stateMutability": "view",
      "type": "function"
    },
    {
      "inputs": [],
      "name": "expertPerc",
      "outputs": [
        {
          "internalType": "uint256",
          "name": "",
          "type": "uint256"
        }
      ],
      "stateMutability": "view",
      "type": "function"
    },
    {
      "inputs": [],
      "name": "expertPercMint",
      "outputs": [
        {
          "internalType": "uint256",
          "name": "",
          "type": "uint256"
        }
      ],
      "stateMutability": "view",
      "type": "function"
    },
    {
      "inputs": [],
      "name": "firstWithdrawIndex",
      "outputs": [
        {
          "internalType": "uint256",
          "name": "",
          "type": "uint256"
        }
      ],
      "stateMutability": "view",
      "type": "function"
    },
    {
      "inputs": [],
      "name": "getFirstWithdraw",
      "outputs": [
        {
          "internalType": "uint256",
          "name": "",
          "type": "uint256"
        }
      ],
      "stateMutability": "view",
      "type": "function"
    },
    {
      "inputs": [],
      "name": "hostPerc",
      "outputs": [
        {
          "internalType": "uint256",
          "name": "",
          "type": "uint256"
        }
      ],
      "stateMutability": "view",
      "type": "function"
    },
    {
      "inputs": [],
      "name": "hostPercMint",
      "outputs": [
        {
          "internalType": "uint256",
          "name": "",
          "type": "uint256"
        }
      ],
      "stateMutability": "view",
      "type": "function"
    },
    {
      "inputs": [],
      "name": "owner",
      "outputs": [
        {
          "internalType": "address",
          "name": "",
          "type": "address"
        }
      ],
      "stateMutability": "view",
      "type": "function"
    },
    {
      "inputs": [],
      "name": "playerPers",
      "outputs": [
        {
          "internalType": "uint256",
          "name": "",
          "type": "uint256"
        }
      ],
      "stateMutability": "view",
      "type": "function"
    },
    {
      "inputs": [
        {
          "internalType": "uint256",
          "name": "_companyPerc",
          "type": "uint256"
        }
      ],
      "name": "setCompanyPerc",
      "outputs": [],
      "stateMutability": "nonpayable",
      "type": "function"
    },
    {
      "inputs": [
        {
          "internalType": "uint256",
          "name": "_expertPerc",
          "type": "uint256"
        }
      ],
      "name": "setExpertPerc",
      "outputs": [],
      "stateMutability": "nonpayable",
      "type": "function"
    },
    {
      "inputs": [
        {
          "internalType": "uint256",
          "name": "_firstWithdrawIndex",
          "type": "uint256"
        }
      ],
      "name": "setFirstWithdraw",
      "outputs": [],
      "stateMutability": "nonpayable",
      "type": "function"
    },
    {
      "inputs": [
        {
          "internalType": "uint256",
          "name": "_GFindex",
          "type": "uint256"
        }
      ],
      "name": "setGFindex",
      "outputs": [],
      "stateMutability": "nonpayable",
      "type": "function"
    },
    {
      "inputs": [
        {
          "internalType": "uint256",
          "name": "_GFrewards",
          "type": "uint256"
        }
      ],
      "name": "setGFrewards",
      "outputs": [],
      "stateMutability": "nonpayable",
      "type": "function"
    },
    {
      "inputs": [
        {
          "internalType": "uint256",
          "name": "_hostPercMint",
          "type": "uint256"
        },
        {
          "internalType": "uint256",
          "name": "_hostPerc",
          "type": "uint256"
        }
      ],
      "name": "setHostPerc",
      "outputs": [],
      "stateMutability": "nonpayable",
      "type": "function"
    },
    {
      "inputs": [
        {
          "internalType": "uint256",
          "name": "_playerPers",
          "type": "uint256"
        }
      ],
      "name": "setPlayerPers",
      "outputs": [],
      "stateMutability": "nonpayable",
      "type": "function"
    },
    {
      "inputs": [
        {
          "internalType": "uint256",
          "name": "_welcomeBTYTokens",
          "type": "uint256"
        }
      ],
      "name": "setWelcomeBTYTokens",
      "outputs": [],
      "stateMutability": "nonpayable",
      "type": "function"
    },
    {
      "inputs": [
        {
          "internalType": "uint256",
          "name": "_startTime",
          "type": "uint256"
        },
        {
          "internalType": "uint256",
          "name": "_endTime",
          "type": "uint256"
        }
      ],
      "name": "timeAnswer",
      "outputs": [
        {
          "internalType": "int8",
          "name": "",
          "type": "int8"
        }
      ],
      "stateMutability": "view",
      "type": "function"
    },
    {
      "inputs": [
        {
          "internalType": "uint256",
          "name": "_endTime",
          "type": "uint256"
        }
      ],
      "name": "timeValidate",
      "outputs": [
        {
          "internalType": "int8",
          "name": "",
          "type": "int8"
        }
      ],
      "stateMutability": "view",
      "type": "function"
    },
    {
      "inputs": [],
      "name": "welcomeBTYTokens",
      "outputs": [
        {
          "internalType": "uint256",
          "name": "",
          "type": "uint256"
        }
      ],
      "stateMutability": "view",
      "type": "function"
    },
    {
      "inputs": [
        {
          "internalType": "int256",
          "name": "_id",
          "type": "int256"
        },
        {
          "internalType": "uint256",
          "name": "_startTime",
          "type": "uint256"
        },
        {
          "internalType": "uint256",
          "name": "_endTime",
          "type": "uint256"
        },
        {
          "internalType": "uint8",
          "name": "_questAmount",
          "type": "uint8"
        },
        {
          "internalType": "address payable",
          "name": "_host",
          "type": "address"
        },
        {
          "internalType": "uint256",
          "name": "_prizeAmount",
          "type": "uint256"
        },
        {
          "internalType": "bool",
          "name": "_eventFinishWay",
          "type": "bool"
        },
        {
          "internalType": "uint256",
          "name": "_playersNeeded",
          "type": "uint256"
        }
      ],
      "name": "newEvent",
      "outputs": [],
      "stateMutability": "payable",
      "type": "function"
    },
    {
      "inputs": [
        {
          "internalType": "int256",
          "name": "_id",
          "type": "int256"
        },
        {
          "internalType": "uint8",
          "name": "_whichAnswer",
          "type": "uint8"
        },
        {
          "internalType": "address payable",
          "name": "_playerWallet",
          "type": "address"
        },
        {
          "internalType": "uint8",
          "name": "_reputation",
          "type": "uint8"
        }
      ],
      "name": "setAnswer",
      "outputs": [],
      "stateMutability": "payable",
      "type": "function"
    }
  ],
  "bytecode": "0x6080604052600a600155600a6002556004600355600a6004556004600555600260065560026007556001600855600a600b5568056bc75e2d63100000600c556001600d55678ac7230489e80000600e5534801561005b57600080fd5b5060405161196b38038061196b8339818101604052604081101561007e57600080fd5b81019080805190602001909291908051906020019092919050505033600a60006101000a81548173ffffffffffffffffffffffffffffffffffffffff021916908373ffffffffffffffffffffffffffffffffffffffff16021790555081600f60006101000a81548173ffffffffffffffffffffffffffffffffffffffff021916908373ffffffffffffffffffffffffffffffffffffffff16021790555080601060006101000a81548173ffffffffffffffffffffffffffffffffffffffff021916908373ffffffffffffffffffffffffffffffffffffffff16021790555050506117fe8061016d6000396000f3fe6080604052600436106101b75760003560e01c80638da5cb5b116100ec578063c369085e1161008a578063df18581711610064578063df1858171461074e578063e1aea52314610779578063ef99e099146107b4578063f7ec5851146107df576101b7565b8063c369085e146106ad578063cd095085146106e8578063d7a86da714610713576101b7565b8063a03c6697116100c6578063a03c6697146105d7578063af9ace4514610612578063b1642b501461063d578063b44901e814610682576101b7565b80638da5cb5b146105305780638fc8bc42146105715780639580de671461059c576101b7565b806354f6db74116101595780637378be2f116101335780637378be2f1461041f578063786508c5146104af578063896aa7a4146104da5780638a9dbda714610505576101b7565b806354f6db741461036d578063671f3b94146103c95780636afd7b7f146103f4576101b7565b8063246fe64711610195578063246fe6471461025d578063279a839b146102af5780632d0e277c146103175780632e63e45214610342576101b7565b806315cfe419146101bc57806319d6b7d8146101e757806324467c4514610222575b600080fd5b3480156101c857600080fd5b506101d161080a565b6040518082815260200191505060405180910390f35b3480156101f357600080fd5b506102206004803603602081101561020a57600080fd5b8101908080359060200190929190505050610810565b005b34801561022e57600080fd5b5061025b6004803603602081101561024557600080fd5b81019080803590602001909291905050506108c0565b005b34801561026957600080fd5b506102966004803603602081101561028057600080fd5b8101908080359060200190929190505050610970565b604051808260000b815260200191505060405180910390f35b610315600480360360808110156102c557600080fd5b8101908080359060200190929190803560ff169060200190929190803573ffffffffffffffffffffffffffffffffffffffff169060200190929190803560ff16906020019092919050505061098e565b005b34801561032357600080fd5b5061032c610dbf565b6040518082815260200191505060405180910390f35b34801561034e57600080fd5b50610357610dc5565b6040518082815260200191505060405180910390f35b34801561037957600080fd5b506103b06004803603604081101561039057600080fd5b810190808035906020019092919080359060200190929190505050610dcb565b604051808260000b815260200191505060405180910390f35b3480156103d557600080fd5b506103de610dfd565b6040518082815260200191505060405180910390f35b34801561040057600080fd5b50610409610e03565b6040518082815260200191505060405180910390f35b6104ad600480360361010081101561043657600080fd5b81019080803590602001909291908035906020019092919080359060200190929190803560ff169060200190929190803573ffffffffffffffffffffffffffffffffffffffff1690602001909291908035906020019092919080351515906020019092919080359060200190929190505050610e09565b005b3480156104bb57600080fd5b506104c461128a565b6040518082815260200191505060405180910390f35b3480156104e657600080fd5b506104ef611290565b6040518082815260200191505060405180910390f35b34801561051157600080fd5b5061051a611296565b6040518082815260200191505060405180910390f35b34801561053c57600080fd5b5061054561129c565b604051808273ffffffffffffffffffffffffffffffffffffffff16815260200191505060405180910390f35b34801561057d57600080fd5b506105866112c2565b6040518082815260200191505060405180910390f35b3480156105a857600080fd5b506105d5600480360360208110156105bf57600080fd5b81019080803590602001909291905050506112c8565b005b3480156105e357600080fd5b50610610600480360360208110156105fa57600080fd5b8101908080359060200190929190505050611378565b005b34801561061e57600080fd5b50610627611428565b6040518082815260200191505060405180910390f35b34801561064957600080fd5b506106806004803603604081101561066057600080fd5b81019080803590602001909291908035906020019092919050505061142e565b005b34801561068e57600080fd5b506106976114e6565b6040518082815260200191505060405180910390f35b3480156106b957600080fd5b506106e6600480360360208110156106d057600080fd5b81019080803590602001909291905050506114ec565b005b3480156106f457600080fd5b506106fd61159c565b6040518082815260200191505060405180910390f35b34801561071f57600080fd5b5061074c6004803603602081101561073657600080fd5b81019080803590602001909291905050506115a2565b005b34801561075a57600080fd5b50610763611652565b6040518082815260200191505060405180910390f35b34801561078557600080fd5b506107b26004803603602081101561079c57600080fd5b8101908080359060200190929190505050611658565b005b3480156107c057600080fd5b506107c9611708565b6040518082815260200191505060405180910390f35b3480156107eb57600080fd5b506107f4611716565b6040518082815260200191505060405180910390f35b600d5481565b600a60009054906101000a900473ffffffffffffffffffffffffffffffffffffffff1673ffffffffffffffffffffffffffffffffffffffff163373ffffffffffffffffffffffffffffffffffffffff16146108b6576040517f08c379a00000000000000000000000000000000000000000000000000000000081526004018080602001828103825260318152602001806117986031913960400191505060405180910390fd5b80600e8190555050565b600a60009054906101000a900473ffffffffffffffffffffffffffffffffffffffff1673ffffffffffffffffffffffffffffffffffffffff163373ffffffffffffffffffffffffffffffffffffffff1614610966576040517f08c379a00000000000000000000000000000000000000000000000000000000081526004018080602001828103825260318152602001806117986031913960400191505060405180910390fd5b8060018190555050565b600080824203126109845760009050610989565b600190505b919050565b600a60009054906101000a900473ffffffffffffffffffffffffffffffffffffffff1673ffffffffffffffffffffffffffffffffffffffff163373ffffffffffffffffffffffffffffffffffffffff1614610a34576040517f08c379a00000000000000000000000000000000000000000000000000000000081526004018080602001828103825260318152602001806117986031913960400191505060405180910390fd5b6000610a6c60116000878152602001908152602001600020600201546011600088815260200190815260200160002060030154610dcb565b60000b14610ae2576040517f08c379a00000000000000000000000000000000000000000000000000000000081526004018080602001828103825260118152602001807f54696d65206973206e6f742076616c696400000000000000000000000000000081525060200191505060405180910390fd5b60116000858152602001908152602001600020600c0160009054906101000a900460ff16610b78576040517f08c379a000000000000000000000000000000000000000000000000000000000815260040180806020018281038252600f8152602001807f6576656e742069732066696e697368000000000000000000000000000000000081525060200191505060405180910390fd5b600115156011600086815260200190815260200160002060070160008473ffffffffffffffffffffffffffffffffffffffff1673ffffffffffffffffffffffffffffffffffffffff16815260200190815260200160002060009054906101000a900460ff16151514610c35576040517f08c379a00000000000000000000000000000000000000000000000000000000081526004018080602001828103825260218152602001806117776021913960400191505060405180910390fd5b610c3d61171c565b60405180604001604052808473ffffffffffffffffffffffffffffffffffffffff1681526020018360ff1681525090506011600086815260200190815260200160002060060160008560ff168152602001908152602001600020819080600181540180825580915050600190039060005260206000200160009091909190915060008201518160000160006101000a81548173ffffffffffffffffffffffffffffffffffffffff021916908373ffffffffffffffffffffffffffffffffffffffff16021790555060208201518160000160146101000a81548160ff021916908360ff160217905550505060016011600087815260200190815260200160002060070160008573ffffffffffffffffffffffffffffffffffffffff1673ffffffffffffffffffffffffffffffffffffffff16815260200190815260200160002060006101000a81548160ff021916908315150217905550600160116000878152602001908152602001600020600801600082825401925050819055505050505050565b60005481565b600e5481565b60008083420312610df257600042830312610de95760009050610df7565b60029050610df7565b600190505b92915050565b60065481565b60015481565b600a60009054906101000a900473ffffffffffffffffffffffffffffffffffffffff1673ffffffffffffffffffffffffffffffffffffffff163373ffffffffffffffffffffffffffffffffffffffff1614610eaf576040517f08c379a00000000000000000000000000000000000000000000000000000000081526004018080602001828103825260318152602001806117986031913960400191505060405180910390fd5b87601160008a81526020019081526020016000206000018190555086601160008a81526020019081526020016000206002018190555085601160008a81526020019081526020016000206003018190555084601160008a815260200190815260200160002060040160006101000a81548160ff021916908360ff16021790555083601160008a815260200190815260200160002060010160006101000a81548173ffffffffffffffffffffffffffffffffffffffff021916908373ffffffffffffffffffffffffffffffffffffffff16021790555082601160008a81526020019081526020016000206005018190555081601160008a8152602001908152602001600020600c0160016101000a81548160ff02191690831515021790555080601160008a8152602001908152602001600020600a018190555082601060009054906101000a900473ffffffffffffffffffffffffffffffffffffffff1673ffffffffffffffffffffffffffffffffffffffff1663dd62ed3e86306040518363ffffffff1660e01b8152600401808373ffffffffffffffffffffffffffffffffffffffff1681526020018273ffffffffffffffffffffffffffffffffffffffff1681526020019250505060206040518083038186803b15801561109057600080fd5b505afa1580156110a4573d6000803e3d6000fd5b505050506040513d60208110156110ba57600080fd5b8101908080519060200190929190505050101561113f576040517f08c379a000000000000000000000000000000000000000000000000000000000815260040180806020018281038252600f8152602001807f416c6c6f77616e6365206572726f72000000000000000000000000000000000081525060200191505060405180910390fd5b601060009054906101000a900473ffffffffffffffffffffffffffffffffffffffff1673ffffffffffffffffffffffffffffffffffffffff166323b872dd8530866040518463ffffffff1660e01b8152600401808473ffffffffffffffffffffffffffffffffffffffff1681526020018373ffffffffffffffffffffffffffffffffffffffff1681526020018281526020019350505050602060405180830381600087803b1580156111f057600080fd5b505af1158015611204573d6000803e3d6000fd5b505050506040513d602081101561121a57600080fd5b8101908080519060200190929190505050611280576040517f08c379a00000000000000000000000000000000000000000000000000000000081526004018080602001828103825260278152602001806117506027913960400191505060405180910390fd5b5050505050505050565b60085481565b60055481565b60025481565b600a60009054906101000a900473ffffffffffffffffffffffffffffffffffffffff1681565b60035481565b600a60009054906101000a900473ffffffffffffffffffffffffffffffffffffffff1673ffffffffffffffffffffffffffffffffffffffff163373ffffffffffffffffffffffffffffffffffffffff161461136e576040517f08c379a00000000000000000000000000000000000000000000000000000000081526004018080602001828103825260318152602001806117986031913960400191505060405180910390fd5b8060058190555050565b600a60009054906101000a900473ffffffffffffffffffffffffffffffffffffffff1673ffffffffffffffffffffffffffffffffffffffff163373ffffffffffffffffffffffffffffffffffffffff161461141e576040517f08c379a00000000000000000000000000000000000000000000000000000000081526004018080602001828103825260318152602001806117986031913960400191505060405180910390fd5b80600b8190555050565b60045481565b600a60009054906101000a900473ffffffffffffffffffffffffffffffffffffffff1673ffffffffffffffffffffffffffffffffffffffff163373ffffffffffffffffffffffffffffffffffffffff16146114d4576040517f08c379a00000000000000000000000000000000000000000000000000000000081526004018080602001828103825260318152602001806117986031913960400191505060405180910390fd5b81600281905550806003819055505050565b600b5481565b600a60009054906101000a900473ffffffffffffffffffffffffffffffffffffffff1673ffffffffffffffffffffffffffffffffffffffff163373ffffffffffffffffffffffffffffffffffffffff1614611592576040517f08c379a00000000000000000000000000000000000000000000000000000000081526004018080602001828103825260318152602001806117986031913960400191505060405180910390fd5b80600d8190555050565b60095481565b600a60009054906101000a900473ffffffffffffffffffffffffffffffffffffffff1673ffffffffffffffffffffffffffffffffffffffff163373ffffffffffffffffffffffffffffffffffffffff1614611648576040517f08c379a00000000000000000000000000000000000000000000000000000000081526004018080602001828103825260318152602001806117986031913960400191505060405180910390fd5b80600c8190555050565b600c5481565b600a60009054906101000a900473ffffffffffffffffffffffffffffffffffffffff1673ffffffffffffffffffffffffffffffffffffffff163373ffffffffffffffffffffffffffffffffffffffff16146116fe576040517f08c379a00000000000000000000000000000000000000000000000000000000081526004018080602001828103825260318152602001806117986031913960400191505060405180910390fd5b8060098190555050565b6000600b54600e5402905090565b60075481565b6040518060400160405280600073ffffffffffffffffffffffffffffffffffffffff168152602001600060ff168152509056fe5472616e736665722042545920746f6b656e7320666f722050524f206576656e74206572726f727573657220616c726561647920706172746963697061746520696e206576656e74546869732066756e6374696f6e20636f756c64206f6e6c7920626520657865637574656420627920746865206f776e6572a2646970667358221220947cc7f742ccdd347dc550e2dfef5a71217286c8d0336d7449d4a9cb521496d664736f6c63430007060033",
  "immutableReferences": {},
  "source": "// SPDX-License-Identifier: MIT\npragma solidity >=0.4.22 <0.9.0;\n\nimport {ProStruct} from \"../struct/ProStruct.sol\";\nimport {TimeValidation} from \"../helpers/TimeValidation.sol\";\nimport {ConfigVariables} from \"../config/ConfigVariables.sol\";\nimport {BET} from \"../tokens/BET.sol\";\nimport {BTY} from \"../tokens/BTY.sol\";\n\ncontract ProEvents is TimeValidation, ConfigVariables {\n    BET private betToken;\n    BTY private btyToken;\n\n    mapping(int256 => ProStruct.EventData) events;\n\n    constructor(BET _betAddress, BTY _btyAddress) {\n        betToken = _betAddress;\n        btyToken = _btyAddress;\n    }\n\n    function newEvent(\n        int256 _id,\n        uint256 _startTime,\n        uint256 _endTime,\n        uint8 _questAmount,\n        address payable _host,\n        uint256 _prizeAmount,\n        bool _eventFinishWay,\n        uint256 _playersNeeded\n    ) public payable ownerOnly() {\n        events[_id].id = _id;\n        events[_id].startTime = _startTime;\n        events[_id].endTime = _endTime;\n        events[_id].questAmount = _questAmount;\n        events[_id].host = _host;\n        events[_id].prizeAmount = _prizeAmount;\n        events[_id].eventFinishWay = _eventFinishWay;\n        events[_id].playersNeeded = _playersNeeded;\n\n        require(\n            btyToken.allowance(_host, address(this)) >= _prizeAmount,\n            \"Allowance error\"\n        );\n        require(\n            btyToken.transferFrom(_host, address(this), _prizeAmount),\n            \"Transfer BTY tokens for PRO event error\"\n        );\n    }\n\n    function setAnswer(\n        int256 _id,\n        uint8 _whichAnswer,\n        address payable _playerWallet,\n        uint8 _reputation\n    ) public payable ownerOnly() {\n        require(\n            timeAnswer(events[_id].startTime, events[_id].endTime) == 0,\n            \"Time is not valid\"\n        );\n        require(events[_id].eventFinish, \"event is finish\");\n        require(\n            events[_id].allPlayers[_playerWallet] == true,\n            \"user already participate in event\"\n        );\n\n        ProStruct.Player memory player;\n        player = ProStruct.Player(_playerWallet, _reputation);\n        events[_id].player[_whichAnswer].push(player);\n        events[_id].allPlayers[_playerWallet] = true;\n        events[_id].activePlayers += 1;\n\n    }\n\n    //TODO add event finish logic\n\n\n}\n",
  "sourcePath": "/Users/macbook/Documents/freelance/tokenominc/contracts/events/ProEvents.sol",
  "compiler": {
    "name": "solc",
    "version": "0.7.6+commit.7338295f.Linux.g++"
  },
  "schemaVersion": "3.2.2",
  "updatedAt": "2021-03-01T15:22:53.980Z",
  "devdoc": {
    "kind": "dev",
    "methods": {},
    "version": 1
  },
  "userdoc": {
    "kind": "user",
    "methods": {},
    "version": 1
  }
}