{
  "contractName": "ProEvents",
  "abi": [
    {
      "inputs": [
        {
          "internalType": "contract BET",
          "name": "_betAddress",
          "type": "address"
        },
        {
          "internalType": "contract BTY",
          "name": "_btyAddress",
          "type": "address"
        }
      ],
      "stateMutability": "nonpayable",
      "type": "constructor"
    },
    {
      "inputs": [],
      "name": "GFindex",
      "outputs": [
        {
          "internalType": "uint256",
          "name": "",
          "type": "uint256"
        }
      ],
      "stateMutability": "view",
      "type": "function"
    },
    {
      "inputs": [],
      "name": "GFrewards",
      "outputs": [
        {
          "internalType": "uint256",
          "name": "",
          "type": "uint256"
        }
      ],
      "stateMutability": "view",
      "type": "function"
    },
    {
      "inputs": [],
      "name": "advisorPepc",
      "outputs": [
        {
          "internalType": "uint256",
          "name": "",
          "type": "uint256"
        }
      ],
      "stateMutability": "view",
      "type": "function"
    },
    {
      "inputs": [],
      "name": "advisorPercMint",
      "outputs": [
        {
          "internalType": "uint256",
          "name": "",
          "type": "uint256"
        }
      ],
      "stateMutability": "view",
      "type": "function"
    },
    {
      "inputs": [],
      "name": "comMarketFundPerc",
      "outputs": [
        {
          "internalType": "uint256",
          "name": "",
          "type": "uint256"
        }
      ],
      "stateMutability": "view",
      "type": "function"
    },
    {
      "inputs": [],
      "name": "comMarketFundWallet",
      "outputs": [
        {
          "internalType": "address payable",
          "name": "",
          "type": "address"
        }
      ],
      "stateMutability": "view",
      "type": "function"
    },
    {
      "inputs": [],
      "name": "developFundPerc",
      "outputs": [
        {
          "internalType": "uint256",
          "name": "",
          "type": "uint256"
        }
      ],
      "stateMutability": "view",
      "type": "function"
    },
    {
      "inputs": [],
      "name": "developFundPercPremim",
      "outputs": [
        {
          "internalType": "uint256",
          "name": "",
          "type": "uint256"
        }
      ],
      "stateMutability": "view",
      "type": "function"
    },
    {
      "inputs": [],
      "name": "expertExtraPerc",
      "outputs": [
        {
          "internalType": "uint256",
          "name": "",
          "type": "uint256"
        }
      ],
      "stateMutability": "view",
      "type": "function"
    },
    {
      "inputs": [],
      "name": "expertPerc",
      "outputs": [
        {
          "internalType": "uint256",
          "name": "",
          "type": "uint256"
        }
      ],
      "stateMutability": "view",
      "type": "function"
    },
    {
      "inputs": [],
      "name": "expertPercMint",
      "outputs": [
        {
          "internalType": "uint256",
          "name": "",
          "type": "uint256"
        }
      ],
      "stateMutability": "view",
      "type": "function"
    },
    {
      "inputs": [],
      "name": "expertPremiumPerc",
      "outputs": [
        {
          "internalType": "uint256",
          "name": "",
          "type": "uint256"
        }
      ],
      "stateMutability": "view",
      "type": "function"
    },
    {
      "inputs": [],
      "name": "extraHostPerc",
      "outputs": [
        {
          "internalType": "uint256",
          "name": "",
          "type": "uint256"
        }
      ],
      "stateMutability": "view",
      "type": "function"
    },
    {
      "inputs": [],
      "name": "extraHostPercMint",
      "outputs": [
        {
          "internalType": "uint256",
          "name": "",
          "type": "uint256"
        }
      ],
      "stateMutability": "view",
      "type": "function"
    },
    {
      "inputs": [],
      "name": "firstWithdrawIndex",
      "outputs": [
        {
          "internalType": "uint256",
          "name": "",
          "type": "uint256"
        }
      ],
      "stateMutability": "view",
      "type": "function"
    },
    {
      "inputs": [],
      "name": "getFirstWithdraw",
      "outputs": [
        {
          "internalType": "uint256",
          "name": "",
          "type": "uint256"
        }
      ],
      "stateMutability": "view",
      "type": "function"
    },
    {
      "inputs": [],
      "name": "hostPerc",
      "outputs": [
        {
          "internalType": "uint256",
          "name": "",
          "type": "uint256"
        }
      ],
      "stateMutability": "view",
      "type": "function"
    },
    {
      "inputs": [],
      "name": "hostPercMint",
      "outputs": [
        {
          "internalType": "uint256",
          "name": "",
          "type": "uint256"
        }
      ],
      "stateMutability": "view",
      "type": "function"
    },
    {
      "inputs": [],
      "name": "moderatorsFundPerc",
      "outputs": [
        {
          "internalType": "uint256",
          "name": "",
          "type": "uint256"
        }
      ],
      "stateMutability": "view",
      "type": "function"
    },
    {
      "inputs": [],
      "name": "moderatorsFundWallet",
      "outputs": [
        {
          "internalType": "address payable",
          "name": "",
          "type": "address"
        }
      ],
      "stateMutability": "view",
      "type": "function"
    },
    {
      "inputs": [],
      "name": "owner",
      "outputs": [
        {
          "internalType": "address payable",
          "name": "",
          "type": "address"
        }
      ],
      "stateMutability": "view",
      "type": "function"
    },
    {
      "inputs": [],
      "name": "playerPers",
      "outputs": [
        {
          "internalType": "uint256",
          "name": "",
          "type": "uint256"
        }
      ],
      "stateMutability": "view",
      "type": "function"
    },
    {
      "inputs": [
        {
          "internalType": "uint256",
          "name": "_developFundPerc",
          "type": "uint256"
        }
      ],
      "name": "setDevelopFundPerc",
      "outputs": [],
      "stateMutability": "nonpayable",
      "type": "function"
    },
    {
      "inputs": [
        {
          "internalType": "uint256",
          "name": "_expertPerc",
          "type": "uint256"
        }
      ],
      "name": "setExpertPerc",
      "outputs": [],
      "stateMutability": "nonpayable",
      "type": "function"
    },
    {
      "inputs": [
        {
          "internalType": "uint256",
          "name": "_firstWithdrawIndex",
          "type": "uint256"
        }
      ],
      "name": "setFirstWithdraw",
      "outputs": [],
      "stateMutability": "nonpayable",
      "type": "function"
    },
    {
      "inputs": [
        {
          "internalType": "uint256",
          "name": "_GFindex",
          "type": "uint256"
        }
      ],
      "name": "setGFindex",
      "outputs": [],
      "stateMutability": "nonpayable",
      "type": "function"
    },
    {
      "inputs": [
        {
          "internalType": "uint256",
          "name": "_GFrewards",
          "type": "uint256"
        }
      ],
      "name": "setGFrewards",
      "outputs": [],
      "stateMutability": "nonpayable",
      "type": "function"
    },
    {
      "inputs": [
        {
          "internalType": "uint256",
          "name": "_hostPercMint",
          "type": "uint256"
        },
        {
          "internalType": "uint256",
          "name": "_hostPerc",
          "type": "uint256"
        }
      ],
      "name": "setHostPerc",
      "outputs": [],
      "stateMutability": "nonpayable",
      "type": "function"
    },
    {
      "inputs": [
        {
          "internalType": "uint256",
          "name": "_playerPers",
          "type": "uint256"
        }
      ],
      "name": "setPlayerPers",
      "outputs": [],
      "stateMutability": "nonpayable",
      "type": "function"
    },
    {
      "inputs": [
        {
          "internalType": "uint256",
          "name": "_welcomeBTYTokens",
          "type": "uint256"
        }
      ],
      "name": "setWelcomeBTYTokens",
      "outputs": [],
      "stateMutability": "nonpayable",
      "type": "function"
    },
    {
      "inputs": [
        {
          "internalType": "uint256",
          "name": "_startTime",
          "type": "uint256"
        },
        {
          "internalType": "uint256",
          "name": "_endTime",
          "type": "uint256"
        }
      ],
      "name": "timeAnswer",
      "outputs": [
        {
          "internalType": "int8",
          "name": "",
          "type": "int8"
        }
      ],
      "stateMutability": "view",
      "type": "function"
    },
    {
      "inputs": [
        {
          "internalType": "uint256",
          "name": "_endTime",
          "type": "uint256"
        }
      ],
      "name": "timeValidate",
      "outputs": [
        {
          "internalType": "int8",
          "name": "",
          "type": "int8"
        }
      ],
      "stateMutability": "view",
      "type": "function"
    },
    {
      "inputs": [],
      "name": "welcomeBTYTokens",
      "outputs": [
        {
          "internalType": "uint256",
          "name": "",
          "type": "uint256"
        }
      ],
      "stateMutability": "view",
      "type": "function"
    },
    {
      "inputs": [
        {
          "internalType": "int256",
          "name": "_id",
          "type": "int256"
        },
        {
          "internalType": "uint256",
          "name": "_startTime",
          "type": "uint256"
        },
        {
          "internalType": "uint256",
          "name": "_endTime",
          "type": "uint256"
        },
        {
          "internalType": "uint8",
          "name": "_questAmount",
          "type": "uint8"
        },
        {
          "internalType": "address payable",
          "name": "_host",
          "type": "address"
        },
        {
          "internalType": "uint256",
          "name": "_prizeAmount",
          "type": "uint256"
        },
        {
          "internalType": "bool",
          "name": "_eventFinishWay",
          "type": "bool"
        },
        {
          "internalType": "uint256",
          "name": "_playersNeeded",
          "type": "uint256"
        }
      ],
      "name": "newEvent",
      "outputs": [],
      "stateMutability": "payable",
      "type": "function"
    },
    {
      "inputs": [
        {
          "internalType": "int256",
          "name": "_id",
          "type": "int256"
        },
        {
          "internalType": "uint8",
          "name": "_whichAnswer",
          "type": "uint8"
        },
        {
          "internalType": "address payable",
          "name": "_playerWallet",
          "type": "address"
        },
        {
          "internalType": "uint8",
          "name": "_reputation",
          "type": "uint8"
        }
      ],
      "name": "setAnswer",
      "outputs": [],
      "stateMutability": "payable",
      "type": "function"
    }
  ],
  "bytecode": "0x6080604052600a600055600a600155600a6002556004600355600a60045560046005556002600655600f600755600260085560016009556001600a556001600b55600a600d5568056bc75e2d63100000600e556001600f55678ac7230489e800006010556005601355600260155534801561007957600080fd5b50604051611b99380380611b998339818101604052604081101561009c57600080fd5b81019080805190602001909291908051906020019092919050505033601160006101000a81548173ffffffffffffffffffffffffffffffffffffffff021916908373ffffffffffffffffffffffffffffffffffffffff16021790555081601660006101000a81548173ffffffffffffffffffffffffffffffffffffffff021916908373ffffffffffffffffffffffffffffffffffffffff16021790555080601760006101000a81548173ffffffffffffffffffffffffffffffffffffffff021916908373ffffffffffffffffffffffffffffffffffffffff1602179055505050611a0e8061018b6000396000f3fe6080604052600436106102045760003560e01c80638fc8bc4211610118578063d7a86da7116100a0578063e1755c6a1161006f578063e1755c6a146108c9578063e1aea523146108f4578063e1dcc4091461092f578063ef99e0991461095a578063f7ec58511461098557610204565b8063d7a86da7146107fd578063dba8fe8714610838578063dd3c228314610863578063df1858171461089e57610204565b8063b1642b50116100e7578063b1642b50146106fc578063b44901e814610741578063c12c8c461461076c578063c369085e14610797578063cd095085146107d257610204565b80638fc8bc42146106305780639580de671461065b578063a03c669714610696578063af9ace45146106d157610204565b80633467f6971161019b578063786508c51161016a578063786508c51461052d578063802cc34c14610558578063896aa7a4146105995780638a9dbda7146105c45780638da5cb5b146105ef57610204565b80633467f697146103d557806354f6db741461041657806355e84158146104725780637378be2f1461049d57610204565b806324beedd3116101d757806324beedd3146102ec578063279a839b146103175780632c316d051461037f5780632e63e452146103aa57610204565b806315cfe4191461020957806319d6b7d8146102345780631c4083571461026f578063246fe6471461029a575b600080fd5b34801561021557600080fd5b5061021e6109b0565b6040518082815260200191505060405180910390f35b34801561024057600080fd5b5061026d6004803603602081101561025757600080fd5b81019080803590602001909291905050506109b6565b005b34801561027b57600080fd5b50610284610a66565b6040518082815260200191505060405180910390f35b3480156102a657600080fd5b506102d3600480360360208110156102bd57600080fd5b8101908080359060200190929190505050610a6c565b604051808260000b815260200191505060405180910390f35b3480156102f857600080fd5b50610301610a8a565b6040518082815260200191505060405180910390f35b61037d6004803603608081101561032d57600080fd5b8101908080359060200190929190803560ff169060200190929190803573ffffffffffffffffffffffffffffffffffffffff169060200190929190803560ff169060200190929190505050610a90565b005b34801561038b57600080fd5b50610394610ec1565b6040518082815260200191505060405180910390f35b3480156103b657600080fd5b506103bf610ec7565b6040518082815260200191505060405180910390f35b3480156103e157600080fd5b506103ea610ecd565b604051808273ffffffffffffffffffffffffffffffffffffffff16815260200191505060405180910390f35b34801561042257600080fd5b506104596004803603604081101561043957600080fd5b810190808035906020019092919080359060200190929190505050610ef3565b604051808260000b815260200191505060405180910390f35b34801561047e57600080fd5b50610487610f25565b6040518082815260200191505060405180910390f35b61052b60048036036101008110156104b457600080fd5b81019080803590602001909291908035906020019092919080359060200190929190803560ff169060200190929190803573ffffffffffffffffffffffffffffffffffffffff1690602001909291908035906020019092919080351515906020019092919080359060200190929190505050610f2b565b005b34801561053957600080fd5b506105426113ac565b6040518082815260200191505060405180910390f35b34801561056457600080fd5b5061056d6113b2565b604051808273ffffffffffffffffffffffffffffffffffffffff16815260200191505060405180910390f35b3480156105a557600080fd5b506105ae6113d8565b6040518082815260200191505060405180910390f35b3480156105d057600080fd5b506105d96113de565b6040518082815260200191505060405180910390f35b3480156105fb57600080fd5b506106046113e4565b604051808273ffffffffffffffffffffffffffffffffffffffff16815260200191505060405180910390f35b34801561063c57600080fd5b5061064561140a565b6040518082815260200191505060405180910390f35b34801561066757600080fd5b506106946004803603602081101561067e57600080fd5b8101908080359060200190929190505050611410565b005b3480156106a257600080fd5b506106cf600480360360208110156106b957600080fd5b81019080803590602001909291905050506114c0565b005b3480156106dd57600080fd5b506106e6611570565b6040518082815260200191505060405180910390f35b34801561070857600080fd5b5061073f6004803603604081101561071f57600080fd5b810190808035906020019092919080359060200190929190505050611576565b005b34801561074d57600080fd5b5061075661162e565b6040518082815260200191505060405180910390f35b34801561077857600080fd5b50610781611634565b6040518082815260200191505060405180910390f35b3480156107a357600080fd5b506107d0600480360360208110156107ba57600080fd5b810190808035906020019092919050505061163a565b005b3480156107de57600080fd5b506107e76116ea565b6040518082815260200191505060405180910390f35b34801561080957600080fd5b506108366004803603602081101561082057600080fd5b81019080803590602001909291905050506116f0565b005b34801561084457600080fd5b5061084d6117a0565b6040518082815260200191505060405180910390f35b34801561086f57600080fd5b5061089c6004803603602081101561088657600080fd5b81019080803590602001909291905050506117a6565b005b3480156108aa57600080fd5b506108b3611856565b6040518082815260200191505060405180910390f35b3480156108d557600080fd5b506108de61185c565b6040518082815260200191505060405180910390f35b34801561090057600080fd5b5061092d6004803603602081101561091757600080fd5b8101908080359060200190929190505050611862565b005b34801561093b57600080fd5b50610944611912565b6040518082815260200191505060405180910390f35b34801561096657600080fd5b5061096f611918565b6040518082815260200191505060405180910390f35b34801561099157600080fd5b5061099a611926565b6040518082815260200191505060405180910390f35b600f5481565b601160009054906101000a900473ffffffffffffffffffffffffffffffffffffffff1673ffffffffffffffffffffffffffffffffffffffff163373ffffffffffffffffffffffffffffffffffffffff1614610a5c576040517f08c379a00000000000000000000000000000000000000000000000000000000081526004018080602001828103825260318152602001806119a86031913960400191505060405180910390fd5b8060108190555050565b60005481565b60008082420312610a805760009050610a85565b600190505b919050565b60155481565b601160009054906101000a900473ffffffffffffffffffffffffffffffffffffffff1673ffffffffffffffffffffffffffffffffffffffff163373ffffffffffffffffffffffffffffffffffffffff1614610b36576040517f08c379a00000000000000000000000000000000000000000000000000000000081526004018080602001828103825260318152602001806119a86031913960400191505060405180910390fd5b6000610b6e60186000878152602001908152602001600020600201546018600088815260200190815260200160002060030154610ef3565b60000b14610be4576040517f08c379a00000000000000000000000000000000000000000000000000000000081526004018080602001828103825260118152602001807f54696d65206973206e6f742076616c696400000000000000000000000000000081525060200191505060405180910390fd5b60186000858152602001908152602001600020600c0160009054906101000a900460ff16610c7a576040517f08c379a000000000000000000000000000000000000000000000000000000000815260040180806020018281038252600f8152602001807f6576656e742069732066696e697368000000000000000000000000000000000081525060200191505060405180910390fd5b600115156018600086815260200190815260200160002060070160008473ffffffffffffffffffffffffffffffffffffffff1673ffffffffffffffffffffffffffffffffffffffff16815260200190815260200160002060009054906101000a900460ff16151514610d37576040517f08c379a00000000000000000000000000000000000000000000000000000000081526004018080602001828103825260218152602001806119876021913960400191505060405180910390fd5b610d3f61192c565b60405180604001604052808473ffffffffffffffffffffffffffffffffffffffff1681526020018360ff1681525090506018600086815260200190815260200160002060060160008560ff168152602001908152602001600020819080600181540180825580915050600190039060005260206000200160009091909190915060008201518160000160006101000a81548173ffffffffffffffffffffffffffffffffffffffff021916908373ffffffffffffffffffffffffffffffffffffffff16021790555060208201518160000160146101000a81548160ff021916908360ff160217905550505060016018600087815260200190815260200160002060070160008573ffffffffffffffffffffffffffffffffffffffff1673ffffffffffffffffffffffffffffffffffffffff16815260200190815260200160002060006101000a81548160ff021916908315150217905550600160186000878152602001908152602001600020600801600082825401925050819055505050505050565b60065481565b60105481565b601460009054906101000a900473ffffffffffffffffffffffffffffffffffffffff1681565b60008083420312610f1a57600042830312610f115760009050610f1f565b60029050610f1f565b600190505b92915050565b600b5481565b601160009054906101000a900473ffffffffffffffffffffffffffffffffffffffff1673ffffffffffffffffffffffffffffffffffffffff163373ffffffffffffffffffffffffffffffffffffffff1614610fd1576040517f08c379a00000000000000000000000000000000000000000000000000000000081526004018080602001828103825260318152602001806119a86031913960400191505060405180910390fd5b87601860008a81526020019081526020016000206000018190555086601860008a81526020019081526020016000206002018190555085601860008a81526020019081526020016000206003018190555084601860008a815260200190815260200160002060040160006101000a81548160ff021916908360ff16021790555083601860008a815260200190815260200160002060010160006101000a81548173ffffffffffffffffffffffffffffffffffffffff021916908373ffffffffffffffffffffffffffffffffffffffff16021790555082601860008a81526020019081526020016000206005018190555081601860008a8152602001908152602001600020600c0160016101000a81548160ff02191690831515021790555080601860008a8152602001908152602001600020600a018190555082601760009054906101000a900473ffffffffffffffffffffffffffffffffffffffff1673ffffffffffffffffffffffffffffffffffffffff1663dd62ed3e86306040518363ffffffff1660e01b8152600401808373ffffffffffffffffffffffffffffffffffffffff1681526020018273ffffffffffffffffffffffffffffffffffffffff1681526020019250505060206040518083038186803b1580156111b257600080fd5b505afa1580156111c6573d6000803e3d6000fd5b505050506040513d60208110156111dc57600080fd5b81019080805190602001909291905050501015611261576040517f08c379a000000000000000000000000000000000000000000000000000000000815260040180806020018281038252600f8152602001807f416c6c6f77616e6365206572726f72000000000000000000000000000000000081525060200191505060405180910390fd5b601760009054906101000a900473ffffffffffffffffffffffffffffffffffffffff1673ffffffffffffffffffffffffffffffffffffffff166323b872dd8530866040518463ffffffff1660e01b8152600401808473ffffffffffffffffffffffffffffffffffffffff1681526020018373ffffffffffffffffffffffffffffffffffffffff1681526020018281526020019350505050602060405180830381600087803b15801561131257600080fd5b505af1158015611326573d6000803e3d6000fd5b505050506040513d602081101561133c57600080fd5b81019080805190602001909291905050506113a2576040517f08c379a00000000000000000000000000000000000000000000000000000000081526004018080602001828103825260278152602001806119606027913960400191505060405180910390fd5b5050505050505050565b60095481565b601260009054906101000a900473ffffffffffffffffffffffffffffffffffffffff1681565b60055481565b60025481565b601160009054906101000a900473ffffffffffffffffffffffffffffffffffffffff1681565b60035481565b601160009054906101000a900473ffffffffffffffffffffffffffffffffffffffff1673ffffffffffffffffffffffffffffffffffffffff163373ffffffffffffffffffffffffffffffffffffffff16146114b6576040517f08c379a00000000000000000000000000000000000000000000000000000000081526004018080602001828103825260318152602001806119a86031913960400191505060405180910390fd5b8060058190555050565b601160009054906101000a900473ffffffffffffffffffffffffffffffffffffffff1673ffffffffffffffffffffffffffffffffffffffff163373ffffffffffffffffffffffffffffffffffffffff1614611566576040517f08c379a00000000000000000000000000000000000000000000000000000000081526004018080602001828103825260318152602001806119a86031913960400191505060405180910390fd5b80600d8190555050565b60045481565b601160009054906101000a900473ffffffffffffffffffffffffffffffffffffffff1673ffffffffffffffffffffffffffffffffffffffff163373ffffffffffffffffffffffffffffffffffffffff161461161c576040517f08c379a00000000000000000000000000000000000000000000000000000000081526004018080602001828103825260318152602001806119a86031913960400191505060405180910390fd5b81600281905550806003819055505050565b600d5481565b600a5481565b601160009054906101000a900473ffffffffffffffffffffffffffffffffffffffff1673ffffffffffffffffffffffffffffffffffffffff163373ffffffffffffffffffffffffffffffffffffffff16146116e0576040517f08c379a00000000000000000000000000000000000000000000000000000000081526004018080602001828103825260318152602001806119a86031913960400191505060405180910390fd5b80600f8190555050565b600c5481565b601160009054906101000a900473ffffffffffffffffffffffffffffffffffffffff1673ffffffffffffffffffffffffffffffffffffffff163373ffffffffffffffffffffffffffffffffffffffff1614611796576040517f08c379a00000000000000000000000000000000000000000000000000000000081526004018080602001828103825260318152602001806119a86031913960400191505060405180910390fd5b80600e8190555050565b60075481565b601160009054906101000a900473ffffffffffffffffffffffffffffffffffffffff1673ffffffffffffffffffffffffffffffffffffffff163373ffffffffffffffffffffffffffffffffffffffff161461184c576040517f08c379a00000000000000000000000000000000000000000000000000000000081526004018080602001828103825260318152602001806119a86031913960400191505060405180910390fd5b8060008190555050565b600e5481565b60135481565b601160009054906101000a900473ffffffffffffffffffffffffffffffffffffffff1673ffffffffffffffffffffffffffffffffffffffff163373ffffffffffffffffffffffffffffffffffffffff1614611908576040517f08c379a00000000000000000000000000000000000000000000000000000000081526004018080602001828103825260318152602001806119a86031913960400191505060405180910390fd5b80600c8190555050565b60015481565b6000600d5460105402905090565b60085481565b6040518060400160405280600073ffffffffffffffffffffffffffffffffffffffff168152602001600060ff168152509056fe5472616e736665722042545920746f6b656e7320666f722050524f206576656e74206572726f727573657220616c726561647920706172746963697061746520696e206576656e74546869732066756e6374696f6e20636f756c64206f6e6c7920626520657865637574656420627920746865206f776e6572a264697066735822122018caf9e93654aa58d051003f2e98332a1eca8d0f2b4530429e7feae22e4b128564736f6c63430007060033",
  "immutableReferences": {},
  "source": "// SPDX-License-Identifier: MIT\npragma solidity >=0.4.22 <0.9.0;\n\nimport {ProStruct} from \"../struct/ProStruct.sol\";\nimport {TimeValidation} from \"../helpers/TimeValidation.sol\";\nimport {ConfigVariables} from \"../config/ConfigVariables.sol\";\nimport {BET} from \"../tokens/BET.sol\";\nimport {BTY} from \"../tokens/BTY.sol\";\n\ncontract ProEvents is TimeValidation, ConfigVariables {\n    BET private betToken;\n    BTY private btyToken;\n\n    mapping(int256 => ProStruct.EventData) events;\n\n    constructor(BET _betAddress, BTY _btyAddress) {\n        betToken = _betAddress;\n        btyToken = _btyAddress;\n    }\n\n    function newEvent(\n        int256 _id,\n        uint256 _startTime,\n        uint256 _endTime,\n        uint8 _questAmount,\n        address payable _host,\n        uint256 _prizeAmount,\n        bool _eventFinishWay,\n        uint256 _playersNeeded\n    ) public payable ownerOnly() {\n        events[_id].id = _id;\n        events[_id].startTime = _startTime;\n        events[_id].endTime = _endTime;\n        events[_id].questAmount = _questAmount;\n        events[_id].host = _host;\n        events[_id].prizeAmount = _prizeAmount;\n        events[_id].eventFinishWay = _eventFinishWay;\n        events[_id].playersNeeded = _playersNeeded;\n\n        require(\n            btyToken.allowance(_host, address(this)) >= _prizeAmount,\n            \"Allowance error\"\n        );\n        require(\n            btyToken.transferFrom(_host, address(this), _prizeAmount),\n            \"Transfer BTY tokens for PRO event error\"\n        );\n    }\n\n    function setAnswer(\n        int256 _id,\n        uint8 _whichAnswer,\n        address payable _playerWallet,\n        uint8 _reputation\n    ) public payable ownerOnly() {\n        require(\n            timeAnswer(events[_id].startTime, events[_id].endTime) == 0,\n            \"Time is not valid\"\n        );\n        require(events[_id].eventFinish, \"event is finish\");\n        require(\n            events[_id].allPlayers[_playerWallet] == true,\n            \"user already participate in event\"\n        );\n\n        ProStruct.Player memory player;\n        player = ProStruct.Player(_playerWallet, _reputation);\n        events[_id].player[_whichAnswer].push(player);\n        events[_id].allPlayers[_playerWallet] = true;\n        events[_id].activePlayers += 1;\n\n    }\n\n    //TODO add event finish logic\n\n\n}\n",
  "sourcePath": "/Users/macbook/Documents/freelance/tokenominc/contracts/events/ProEvents.sol",
  "compiler": {
    "name": "solc",
    "version": "0.7.6+commit.7338295f.Linux.g++"
  },
  "schemaVersion": "3.2.2",
  "updatedAt": "2021-03-05T14:04:08.116Z",
  "devdoc": {
    "kind": "dev",
    "methods": {},
    "version": 1
  },
  "userdoc": {
    "kind": "user",
    "methods": {},
    "version": 1
  }
}