{
  "contractName": "PublicEvents",
  "abi": [
    {
      "anonymous": false,
      "inputs": [
        {
          "indexed": false,
          "internalType": "int256",
          "name": "id",
          "type": "int256"
        },
        {
          "indexed": false,
          "internalType": "uint256",
          "name": "activePlayers",
          "type": "uint256"
        }
      ],
      "name": "calculateExpert",
      "type": "event"
    },
    {
      "anonymous": false,
      "inputs": [
        {
          "indexed": false,
          "internalType": "int256",
          "name": "id",
          "type": "int256"
        }
      ],
      "name": "findCorrectAnswer",
      "type": "event"
    },
    {
      "anonymous": false,
      "inputs": [
        {
          "indexed": false,
          "internalType": "int256",
          "name": "id",
          "type": "int256"
        },
        {
          "indexed": false,
          "internalType": "string",
          "name": "purpose",
          "type": "string"
        }
      ],
      "name": "revertedEvent",
      "type": "event"
    },
    {
      "inputs": [],
      "name": "betToken",
      "outputs": [
        {
          "internalType": "contract BET",
          "name": "",
          "type": "address"
        }
      ],
      "stateMutability": "view",
      "type": "function"
    },
    {
      "inputs": [],
      "name": "btyToken",
      "outputs": [
        {
          "internalType": "contract BTY",
          "name": "",
          "type": "address"
        }
      ],
      "stateMutability": "view",
      "type": "function"
    },
    {
      "inputs": [
        {
          "internalType": "int256",
          "name": "",
          "type": "int256"
        }
      ],
      "name": "events",
      "outputs": [
        {
          "internalType": "int256",
          "name": "id",
          "type": "int256"
        },
        {
          "internalType": "uint256",
          "name": "startTime",
          "type": "uint256"
        },
        {
          "internalType": "uint256",
          "name": "endTime",
          "type": "uint256"
        },
        {
          "internalType": "uint256",
          "name": "questAmount",
          "type": "uint256"
        },
        {
          "internalType": "uint256",
          "name": "activePlayers",
          "type": "uint256"
        },
        {
          "internalType": "uint256",
          "name": "activeExperts",
          "type": "uint256"
        },
        {
          "internalType": "uint256",
          "name": "amountExperts",
          "type": "uint256"
        },
        {
          "internalType": "bool",
          "name": "calculateExperts",
          "type": "bool"
        },
        {
          "internalType": "address payable",
          "name": "host",
          "type": "address"
        },
        {
          "internalType": "address payable",
          "name": "advisor",
          "type": "address"
        },
        {
          "internalType": "uint256",
          "name": "pool",
          "type": "uint256"
        },
        {
          "internalType": "uint256",
          "name": "premiumAmount",
          "type": "uint256"
        }
      ],
      "stateMutability": "view",
      "type": "function"
    },
    {
      "inputs": [
        {
          "internalType": "int256",
          "name": "_id",
          "type": "int256"
        }
      ],
      "name": "getActivePlayers",
      "outputs": [
        {
          "internalType": "uint256",
          "name": "",
          "type": "uint256"
        }
      ],
      "stateMutability": "view",
      "type": "function"
    },
    {
      "inputs": [
        {
          "internalType": "int256",
          "name": "_id",
          "type": "int256"
        }
      ],
      "name": "getAdvisorAddr",
      "outputs": [
        {
          "internalType": "address",
          "name": "",
          "type": "address"
        }
      ],
      "stateMutability": "view",
      "type": "function"
    },
    {
      "inputs": [
        {
          "internalType": "int256",
          "name": "_id",
          "type": "int256"
        },
        {
          "internalType": "uint256",
          "name": "i",
          "type": "uint256"
        }
      ],
      "name": "getExpertAmount",
      "outputs": [
        {
          "internalType": "uint256",
          "name": "",
          "type": "uint256"
        }
      ],
      "stateMutability": "view",
      "type": "function"
    },
    {
      "inputs": [
        {
          "internalType": "int256",
          "name": "_id",
          "type": "int256"
        },
        {
          "internalType": "uint256",
          "name": "i",
          "type": "uint256"
        },
        {
          "internalType": "uint256",
          "name": "z",
          "type": "uint256"
        }
      ],
      "name": "getExpertReput",
      "outputs": [
        {
          "internalType": "int256",
          "name": "",
          "type": "int256"
        }
      ],
      "stateMutability": "view",
      "type": "function"
    },
    {
      "inputs": [
        {
          "internalType": "int256",
          "name": "_id",
          "type": "int256"
        },
        {
          "internalType": "uint256",
          "name": "i",
          "type": "uint256"
        },
        {
          "internalType": "uint256",
          "name": "z",
          "type": "uint256"
        }
      ],
      "name": "getExpertWallet",
      "outputs": [
        {
          "internalType": "address payable",
          "name": "",
          "type": "address"
        }
      ],
      "stateMutability": "view",
      "type": "function"
    },
    {
      "inputs": [
        {
          "internalType": "int256",
          "name": "_id",
          "type": "int256"
        }
      ],
      "name": "getHostAddr",
      "outputs": [
        {
          "internalType": "address",
          "name": "",
          "type": "address"
        }
      ],
      "stateMutability": "view",
      "type": "function"
    },
    {
      "inputs": [
        {
          "internalType": "int256",
          "name": "_id",
          "type": "int256"
        },
        {
          "internalType": "uint256",
          "name": "i",
          "type": "uint256"
        }
      ],
      "name": "getPlayerAmount",
      "outputs": [
        {
          "internalType": "uint256",
          "name": "",
          "type": "uint256"
        }
      ],
      "stateMutability": "view",
      "type": "function"
    },
    {
      "inputs": [
        {
          "internalType": "int256",
          "name": "_id",
          "type": "int256"
        },
        {
          "internalType": "uint256",
          "name": "i",
          "type": "uint256"
        },
        {
          "internalType": "uint256",
          "name": "z",
          "type": "uint256"
        }
      ],
      "name": "getPlayerTokens",
      "outputs": [
        {
          "internalType": "uint256",
          "name": "",
          "type": "uint256"
        }
      ],
      "stateMutability": "view",
      "type": "function"
    },
    {
      "inputs": [
        {
          "internalType": "int256",
          "name": "_id",
          "type": "int256"
        },
        {
          "internalType": "uint256",
          "name": "i",
          "type": "uint256"
        },
        {
          "internalType": "uint256",
          "name": "z",
          "type": "uint256"
        }
      ],
      "name": "getPlayerWallet",
      "outputs": [
        {
          "internalType": "address payable",
          "name": "",
          "type": "address"
        }
      ],
      "stateMutability": "view",
      "type": "function"
    },
    {
      "inputs": [
        {
          "internalType": "int256",
          "name": "_id",
          "type": "int256"
        }
      ],
      "name": "getPool",
      "outputs": [
        {
          "internalType": "uint256",
          "name": "",
          "type": "uint256"
        }
      ],
      "stateMutability": "view",
      "type": "function"
    },
    {
      "inputs": [
        {
          "internalType": "int256",
          "name": "_id",
          "type": "int256"
        }
      ],
      "name": "getPremiumAmount",
      "outputs": [
        {
          "internalType": "uint256",
          "name": "",
          "type": "uint256"
        }
      ],
      "stateMutability": "view",
      "type": "function"
    },
    {
      "inputs": [
        {
          "internalType": "int256",
          "name": "_id",
          "type": "int256"
        }
      ],
      "name": "getQuestAmount",
      "outputs": [
        {
          "internalType": "uint256",
          "name": "",
          "type": "uint256"
        }
      ],
      "stateMutability": "view",
      "type": "function"
    },
    {
      "inputs": [
        {
          "internalType": "uint256",
          "name": "_startTime",
          "type": "uint256"
        },
        {
          "internalType": "uint256",
          "name": "_endTime",
          "type": "uint256"
        }
      ],
      "name": "timeAnswer",
      "outputs": [
        {
          "internalType": "int8",
          "name": "",
          "type": "int8"
        }
      ],
      "stateMutability": "view",
      "type": "function"
    },
    {
      "inputs": [
        {
          "internalType": "uint256",
          "name": "_endTime",
          "type": "uint256"
        }
      ],
      "name": "timeValidate",
      "outputs": [
        {
          "internalType": "int8",
          "name": "",
          "type": "int8"
        }
      ],
      "stateMutability": "view",
      "type": "function"
    },
    {
      "inputs": [
        {
          "internalType": "contract BET",
          "name": "_betAddress",
          "type": "address"
        },
        {
          "internalType": "contract BTY",
          "name": "_btyAddress",
          "type": "address"
        }
      ],
      "name": "__PublicEventsInit",
      "outputs": [],
      "stateMutability": "nonpayable",
      "type": "function"
    },
    {
      "inputs": [
        {
          "internalType": "address",
          "name": "_mpaddr",
          "type": "address"
        },
        {
          "internalType": "address",
          "name": "_ppaddr",
          "type": "address"
        }
      ],
      "name": "setAddresses",
      "outputs": [],
      "stateMutability": "nonpayable",
      "type": "function"
    },
    {
      "inputs": [
        {
          "internalType": "int256",
          "name": "_id",
          "type": "int256"
        },
        {
          "internalType": "uint256",
          "name": "_sT",
          "type": "uint256"
        },
        {
          "internalType": "uint256",
          "name": "_eT",
          "type": "uint256"
        },
        {
          "internalType": "uint256",
          "name": "_questAmount",
          "type": "uint256"
        },
        {
          "internalType": "uint256",
          "name": "_amountExp",
          "type": "uint256"
        },
        {
          "internalType": "bool",
          "name": "_calcExp",
          "type": "bool"
        },
        {
          "internalType": "address payable",
          "name": "_host",
          "type": "address"
        },
        {
          "internalType": "uint256",
          "name": "_amountPrem",
          "type": "uint256"
        }
      ],
      "name": "newEvent",
      "outputs": [],
      "stateMutability": "payable",
      "type": "function"
    },
    {
      "inputs": [
        {
          "internalType": "address payable",
          "name": "_advisor",
          "type": "address"
        },
        {
          "internalType": "int256",
          "name": "_id",
          "type": "int256"
        }
      ],
      "name": "addAdvisor",
      "outputs": [],
      "stateMutability": "nonpayable",
      "type": "function"
    },
    {
      "inputs": [
        {
          "internalType": "int256",
          "name": "_id",
          "type": "int256"
        },
        {
          "internalType": "uint256",
          "name": "_answer",
          "type": "uint256"
        },
        {
          "internalType": "uint256",
          "name": "_amount",
          "type": "uint256"
        },
        {
          "internalType": "address payable",
          "name": "_pWallet",
          "type": "address"
        }
      ],
      "name": "setAnswer",
      "outputs": [],
      "stateMutability": "payable",
      "type": "function"
    },
    {
      "inputs": [
        {
          "internalType": "int256",
          "name": "_id",
          "type": "int256"
        },
        {
          "internalType": "uint256",
          "name": "_answer",
          "type": "uint256"
        },
        {
          "internalType": "address payable",
          "name": "_eWallet",
          "type": "address"
        },
        {
          "internalType": "int256",
          "name": "_reput",
          "type": "int256"
        }
      ],
      "name": "setValidator",
      "outputs": [],
      "stateMutability": "payable",
      "type": "function"
    },
    {
      "inputs": [
        {
          "internalType": "uint256",
          "name": "_amount",
          "type": "uint256"
        },
        {
          "internalType": "int256",
          "name": "_id",
          "type": "int256"
        }
      ],
      "name": "setActiveExpertsFromOracl",
      "outputs": [],
      "stateMutability": "nonpayable",
      "type": "function"
    },
    {
      "inputs": [
        {
          "internalType": "address",
          "name": "_addr",
          "type": "address"
        },
        {
          "internalType": "uint256",
          "name": "_amount",
          "type": "uint256"
        }
      ],
      "name": "mint",
      "outputs": [
        {
          "internalType": "bool",
          "name": "",
          "type": "bool"
        }
      ],
      "stateMutability": "nonpayable",
      "type": "function"
    },
    {
      "inputs": [
        {
          "internalType": "address",
          "name": "_addr",
          "type": "address"
        },
        {
          "internalType": "uint256",
          "name": "_amount",
          "type": "uint256"
        }
      ],
      "name": "pay",
      "outputs": [
        {
          "internalType": "bool",
          "name": "",
          "type": "bool"
        }
      ],
      "stateMutability": "nonpayable",
      "type": "function"
    },
    {
      "inputs": [
        {
          "internalType": "address",
          "name": "_addr",
          "type": "address"
        },
        {
          "internalType": "uint256",
          "name": "_amount",
          "type": "uint256"
        }
      ],
      "name": "payBTY",
      "outputs": [
        {
          "internalType": "bool",
          "name": "",
          "type": "bool"
        }
      ],
      "stateMutability": "nonpayable",
      "type": "function"
    }
  ],
  "bytecode": "0x6080604052662386f26fc1000060025534801561001b57600080fd5b506134c88061002b6000396000f3fe60806040526004361061019c5760003560e01c8063730f3d14116100ec578063a7f21b681161008a578063f438835c11610064578063f438835c14610a93578063f46cf83814610af8578063f946c20714610b71578063faa98bbd14610bc05761019c565b8063a7f21b6814610971578063a96c2aea146109d3578063c407687614610a225761019c565b806380559173116100c657806380559173146107ec578063859f0f6a1461083b57806390107afe1461089e5780639147f0171461090f5761019c565b8063730f3d14146106a557806378691f16146107325780637c997f67146107735761019c565b8063458a807911610159578063506d05cf11610133578063506d05cf1461055457806353bdb0621461059557806354f6db74146105f057806371aee9451461064c5761019c565b8063458a8079146103d45780634a30062b146104455780634c30a15a1461048a5761019c565b80630569ae99146101a157806323c8778e14610204578063246fe6471461025d57806330286c37146102af57806340c10f19146102fe57806342f1bb8d1461036f575b600080fd5b3480156101ad57600080fd5b506101ee600480360360608110156101c457600080fd5b81019080803590602001909291908035906020019092919080359060200190929190505050610c31565b6040518082815260200191505060405180910390f35b34801561021057600080fd5b506102476004803603604081101561022757600080fd5b810190808035906020019092919080359060200190929190505050610c7f565b6040518082815260200191505060405180910390f35b34801561026957600080fd5b506102966004803603602081101561028057600080fd5b8101908080359060200190929190505050610cb3565b604051808260000b815260200191505060405180910390f35b3480156102bb57600080fd5b506102e8600480360360208110156102d257600080fd5b8101908080359060200190929190505050610cd1565b6040518082815260200191505060405180910390f35b34801561030a57600080fd5b506103576004803603604081101561032157600080fd5b81019080803573ffffffffffffffffffffffffffffffffffffffff16906020019092919080359060200190929190505050610cf0565b60405180821515815260200191505060405180910390f35b34801561037b57600080fd5b506103a86004803603602081101561039257600080fd5b8101908080359060200190929190505050610f57565b604051808273ffffffffffffffffffffffffffffffffffffffff16815260200191505060405180910390f35b3480156103e057600080fd5b5061042d600480360360408110156103f757600080fd5b81019080803573ffffffffffffffffffffffffffffffffffffffff16906020019092919080359060200190929190505050610f96565b60405180821515815260200191505060405180910390f35b34801561045157600080fd5b506104886004803603604081101561046857600080fd5b8101908080359060200190929190803590602001909291905050506111fd565b005b34801561049657600080fd5b506104c3600480360360208110156104ad57600080fd5b81019080803590602001909291905050506112de565b604051808d81526020018c81526020018b81526020018a815260200189815260200188815260200187815260200186151581526020018573ffffffffffffffffffffffffffffffffffffffff1681526020018473ffffffffffffffffffffffffffffffffffffffff1681526020018381526020018281526020019c5050505050505050505050505060405180910390f35b34801561056057600080fd5b5061056961138b565b604051808273ffffffffffffffffffffffffffffffffffffffff16815260200191505060405180910390f35b3480156105a157600080fd5b506105ee600480360360408110156105b857600080fd5b81019080803573ffffffffffffffffffffffffffffffffffffffff169060200190929190803590602001909291905050506113b1565b005b3480156105fc57600080fd5b506106336004803603604081101561061357600080fd5b8101908080359060200190929190803590602001909291905050506114cc565b604051808260000b815260200191505060405180910390f35b34801561065857600080fd5b5061068f6004803603604081101561066f57600080fd5b8101908080359060200190929190803590602001909291905050506114fe565b6040518082815260200191505060405180910390f35b61073060048036036101008110156106bc57600080fd5b810190808035906020019092919080359060200190929190803590602001909291908035906020019092919080359060200190929190803515159060200190929190803573ffffffffffffffffffffffffffffffffffffffff16906020019092919080359060200190929190505050611532565b005b34801561073e57600080fd5b506107476119db565b604051808273ffffffffffffffffffffffffffffffffffffffff16815260200191505060405180910390f35b34801561077f57600080fd5b506107c06004803603606081101561079657600080fd5b81019080803590602001909291908035906020019092919080359060200190929190505050611a01565b604051808273ffffffffffffffffffffffffffffffffffffffff16815260200191505060405180910390f35b3480156107f857600080fd5b506108256004803603602081101561080f57600080fd5b8101908080359060200190929190505050611a6f565b6040518082815260200191505060405180910390f35b34801561084757600080fd5b506108886004803603606081101561085e57600080fd5b81019080803590602001909291908035906020019092919080359060200190929190505050611a8e565b6040518082815260200191505060405180910390f35b3480156108aa57600080fd5b5061090d600480360360408110156108c157600080fd5b81019080803573ffffffffffffffffffffffffffffffffffffffff169060200190929190803573ffffffffffffffffffffffffffffffffffffffff169060200190929190505050611adc565b005b61096f6004803603608081101561092557600080fd5b810190808035906020019092919080359060200190929190803573ffffffffffffffffffffffffffffffffffffffff16906020019092919080359060200190929190505050611ca7565b005b6109d16004803603608081101561098757600080fd5b81019080803590602001909291908035906020019092919080359060200190929190803573ffffffffffffffffffffffffffffffffffffffff16906020019092919050505061255e565b005b3480156109df57600080fd5b50610a0c600480360360208110156109f657600080fd5b8101908080359060200190929190505050612e7b565b6040518082815260200191505060405180910390f35b348015610a2e57600080fd5b50610a7b60048036036040811015610a4557600080fd5b81019080803573ffffffffffffffffffffffffffffffffffffffff16906020019092919080359060200190929190505050612e9a565b60405180821515815260200191505060405180910390f35b348015610a9f57600080fd5b50610acc60048036036020811015610ab657600080fd5b8101908080359060200190929190505050613101565b604051808273ffffffffffffffffffffffffffffffffffffffff16815260200191505060405180910390f35b348015610b0457600080fd5b50610b4560048036036060811015610b1b57600080fd5b81019080803590602001909291908035906020019092919080359060200190929190505050613140565b604051808273ffffffffffffffffffffffffffffffffffffffff16815260200191505060405180910390f35b348015610b7d57600080fd5b50610baa60048036036020811015610b9457600080fd5b81019080803590602001909291905050506131ae565b6040518082815260200191505060405180910390f35b348015610bcc57600080fd5b50610c2f60048036036040811015610be357600080fd5b81019080803573ffffffffffffffffffffffffffffffffffffffff169060200190929190803573ffffffffffffffffffffffffffffffffffffffff1690602001909291905050506131cd565b005b600080600085815260200190815260200160002060070160008481526020019081526020016000208281548110610c6457fe5b90600052602060002090600202016001015490509392505050565b6000806000848152602001908152602001600020600701600083815260200190815260200160002080549050905092915050565b60008082420312610cc75760009050610ccc565b600190505b919050565b6000806000838152602001908152602001600020600c01549050919050565b6000600860009054906101000a900473ffffffffffffffffffffffffffffffffffffffff1673ffffffffffffffffffffffffffffffffffffffff163373ffffffffffffffffffffffffffffffffffffffff161480610d9b5750600960009054906101000a900473ffffffffffffffffffffffffffffffffffffffff1673ffffffffffffffffffffffffffffffffffffffff163373ffffffffffffffffffffffffffffffffffffffff16145b610e0d576040517f08c379a000000000000000000000000000000000000000000000000000000000815260040180806020018281038252600a8152602001807f6f776e6572206f6e6c790000000000000000000000000000000000000000000081525060200191505060405180910390fd5b600360009054906101000a900473ffffffffffffffffffffffffffffffffffffffff1673ffffffffffffffffffffffffffffffffffffffff1663341ce1fc84846040518363ffffffff1660e01b8152600401808373ffffffffffffffffffffffffffffffffffffffff16815260200182815260200192505050602060405180830381600087803b158015610ea057600080fd5b505af1158015610eb4573d6000803e3d6000fd5b505050506040513d6020811015610eca57600080fd5b8101908080519060200190929190505050610f4d576040517f08c379a00000000000000000000000000000000000000000000000000000000081526004018080602001828103825260078152602001807f706179206572720000000000000000000000000000000000000000000000000081525060200191505060405180910390fd5b6001905092915050565b6000806000838152602001908152602001600020600b0160009054906101000a900473ffffffffffffffffffffffffffffffffffffffff169050919050565b6000600860009054906101000a900473ffffffffffffffffffffffffffffffffffffffff1673ffffffffffffffffffffffffffffffffffffffff163373ffffffffffffffffffffffffffffffffffffffff1614806110415750600960009054906101000a900473ffffffffffffffffffffffffffffffffffffffff1673ffffffffffffffffffffffffffffffffffffffff163373ffffffffffffffffffffffffffffffffffffffff16145b6110b3576040517f08c379a000000000000000000000000000000000000000000000000000000000815260040180806020018281038252600a8152602001807f6f776e6572206f6e6c790000000000000000000000000000000000000000000081525060200191505060405180910390fd5b600460009054906101000a900473ffffffffffffffffffffffffffffffffffffffff1673ffffffffffffffffffffffffffffffffffffffff1663a9059cbb84846040518363ffffffff1660e01b8152600401808373ffffffffffffffffffffffffffffffffffffffff16815260200182815260200192505050602060405180830381600087803b15801561114657600080fd5b505af115801561115a573d6000803e3d6000fd5b505050506040513d602081101561117057600080fd5b81019080805190602001909291905050506111f3576040517f08c379a00000000000000000000000000000000000000000000000000000000081526004018080602001828103825260088152602001807f6d696e742065727200000000000000000000000000000000000000000000000081525060200191505060405180910390fd5b6001905092915050565b600760009054906101000a900473ffffffffffffffffffffffffffffffffffffffff1673ffffffffffffffffffffffffffffffffffffffff163373ffffffffffffffffffffffffffffffffffffffff16146112c0576040517f08c379a000000000000000000000000000000000000000000000000000000000815260040180806020018281038252600a8152602001807f6f776e6572206f6e6c790000000000000000000000000000000000000000000081525060200191505060405180910390fd5b81600080838152602001908152602001600020600901819055505050565b600060205280600052604060002060009150905080600001549080600101549080600201549080600301549080600601549080600801549080600901549080600a0160009054906101000a900460ff169080600a0160019054906101000a900473ffffffffffffffffffffffffffffffffffffffff169080600b0160009054906101000a900473ffffffffffffffffffffffffffffffffffffffff169080600c01549080600d015490508c565b600460009054906101000a900473ffffffffffffffffffffffffffffffffffffffff1681565b600760009054906101000a900473ffffffffffffffffffffffffffffffffffffffff1673ffffffffffffffffffffffffffffffffffffffff163373ffffffffffffffffffffffffffffffffffffffff1614611474576040517f08c379a000000000000000000000000000000000000000000000000000000000815260040180806020018281038252600a8152602001807f6f776e6572206f6e6c790000000000000000000000000000000000000000000081525060200191505060405180910390fd5b81600080838152602001908152602001600020600b0160006101000a81548173ffffffffffffffffffffffffffffffffffffffff021916908373ffffffffffffffffffffffffffffffffffffffff1602179055505050565b600080834203126114f3576000428303126114ea57600090506114f8565b600290506114f8565b600190505b92915050565b6000806000848152602001908152602001600020600401600083815260200190815260200160002080549050905092915050565b600760009054906101000a900473ffffffffffffffffffffffffffffffffffffffff1673ffffffffffffffffffffffffffffffffffffffff163373ffffffffffffffffffffffffffffffffffffffff16146115f5576040517f08c379a000000000000000000000000000000000000000000000000000000000815260040180806020018281038252600a8152602001807f6f776e6572206f6e6c790000000000000000000000000000000000000000000081525060200191505060405180910390fd5b876000808a815260200190815260200160002060000181905550866000808a815260200190815260200160002060010181905550856000808a815260200190815260200160002060020181905550846000808a815260200190815260200160002060030181905550836000808a815260200190815260200160002060090181905550816000808a8152602001908152602001600020600a0160016101000a81548173ffffffffffffffffffffffffffffffffffffffff021916908373ffffffffffffffffffffffffffffffffffffffff160217905550826000808a8152602001908152602001600020600a0160006101000a81548160ff02191690831515021790555060008111156119d157806000808a8152602001908152602001600020600d018190555080600460009054906101000a900473ffffffffffffffffffffffffffffffffffffffff1673ffffffffffffffffffffffffffffffffffffffff1663dd62ed3e84306040518363ffffffff1660e01b8152600401808373ffffffffffffffffffffffffffffffffffffffff1681526020018273ffffffffffffffffffffffffffffffffffffffff1681526020019250505060206040518083038186803b1580156117c357600080fd5b505afa1580156117d7573d6000803e3d6000fd5b505050506040513d60208110156117ed57600080fd5b81019080805190602001909291905050501015611872576040517f08c379a00000000000000000000000000000000000000000000000000000000081526004018080602001828103825260098152602001807f416c6c6f77616e6365000000000000000000000000000000000000000000000081525060200191505060405180910390fd5b600460009054906101000a900473ffffffffffffffffffffffffffffffffffffffff1673ffffffffffffffffffffffffffffffffffffffff166323b872dd8330846040518463ffffffff1660e01b8152600401808473ffffffffffffffffffffffffffffffffffffffff1681526020018373ffffffffffffffffffffffffffffffffffffffff1681526020018281526020019350505050602060405180830381600087803b15801561192357600080fd5b505af1158015611937573d6000803e3d6000fd5b505050506040513d602081101561194d57600080fd5b81019080805190602001909291905050506119d0576040517f08c379a000000000000000000000000000000000000000000000000000000000815260040180806020018281038252600d8152602001807f4254592050524f206576656e740000000000000000000000000000000000000081525060200191505060405180910390fd5b5b5050505050505050565b600360009054906101000a900473ffffffffffffffffffffffffffffffffffffffff1681565b600080600085815260200190815260200160002060040160008481526020019081526020016000208281548110611a3457fe5b906000526020600020906002020160000160009054906101000a900473ffffffffffffffffffffffffffffffffffffffff1690509392505050565b6000806000838152602001908152602001600020600d01549050919050565b600080600085815260200190815260200160002060040160008481526020019081526020016000208281548110611ac157fe5b90600052602060002090600202016001015490509392505050565b600760009054906101000a900473ffffffffffffffffffffffffffffffffffffffff1673ffffffffffffffffffffffffffffffffffffffff163373ffffffffffffffffffffffffffffffffffffffff1614611b9f576040517f08c379a000000000000000000000000000000000000000000000000000000000815260040180806020018281038252600a8152602001807f6f776e6572206f6e6c790000000000000000000000000000000000000000000081525060200191505060405180910390fd5b81600560006101000a81548173ffffffffffffffffffffffffffffffffffffffff021916908373ffffffffffffffffffffffffffffffffffffffff16021790555081600660006101000a81548173ffffffffffffffffffffffffffffffffffffffff021916908373ffffffffffffffffffffffffffffffffffffffff16021790555081600860006101000a81548173ffffffffffffffffffffffffffffffffffffffff021916908373ffffffffffffffffffffffffffffffffffffffff16021790555080600960006101000a81548173ffffffffffffffffffffffffffffffffffffffff021916908373ffffffffffffffffffffffffffffffffffffffff1602179055505050565b600760009054906101000a900473ffffffffffffffffffffffffffffffffffffffff1673ffffffffffffffffffffffffffffffffffffffff163373ffffffffffffffffffffffffffffffffffffffff1614611d6a576040517f08c379a000000000000000000000000000000000000000000000000000000000815260040180806020018281038252600a8152602001807f6f776e6572206f6e6c790000000000000000000000000000000000000000000081525060200191505060405180910390fd5b6000611d8a60008087815260200190815260200160002060020154610cb3565b60000b14611e00576040517f08c379a000000000000000000000000000000000000000000000000000000000815260040180806020018281038252600e8152602001807f6e6f742076616c69642074696d6500000000000000000000000000000000000081525060200191505060405180910390fd5b60008085815260200190815260200160002060050160008373ffffffffffffffffffffffffffffffffffffffff1673ffffffffffffffffffffffffffffffffffffffff16815260200190815260200160002060009054906101000a900460ff1615611ed3576040517f08c379a00000000000000000000000000000000000000000000000000000000081526004018080602001828103825260108152602001807f757365722070617274696369706174650000000000000000000000000000000081525060200191505060405180910390fd5b60011515600560009054906101000a900473ffffffffffffffffffffffffffffffffffffffff1673ffffffffffffffffffffffffffffffffffffffff1663362e41b6866040518263ffffffff1660e01b81526004018082815260200191505060206040518083038186803b158015611f4a57600080fd5b505afa158015611f5e573d6000803e3d6000fd5b505050506040513d6020811015611f7457600080fd5b810190808051906020019092919050505015151415611ffb576040517f08c379a00000000000000000000000000000000000000000000000000000000081526004018080602001828103825260118152602001807f6576656e7420697320726576657274656400000000000000000000000000000081525060200191505060405180910390fd5b60011515600560009054906101000a900473ffffffffffffffffffffffffffffffffffffffff1673ffffffffffffffffffffffffffffffffffffffff1663d343c1dc866040518263ffffffff1660e01b81526004018082815260200191505060206040518083038186803b15801561207257600080fd5b505afa158015612086573d6000803e3d6000fd5b505050506040513d602081101561209c57600080fd5b810190808051906020019092919050505015151415612123576040517f08c379a000000000000000000000000000000000000000000000000000000000815260040180806020018281038252600f8152602001807f6576656e742069732066696e697368000000000000000000000000000000000081525060200191505060405180910390fd5b6001600080868152602001908152602001600020600601541161232c57600560009054906101000a900473ffffffffffffffffffffffffffffffffffffffff1673ffffffffffffffffffffffffffffffffffffffff16639ec2345a856040518263ffffffff1660e01b815260040180828152602001915050600060405180830381600087803b1580156121b557600080fd5b505af11580156121c9573d6000803e3d6000fd5b505050506000806000868152602001908152602001600020600601541415612260577f847521552ad126e64c52b14640c804737bd67f2b6674309b332d1e5b17f857d1846040518082815260200180602001828103825260138152602001807f646f206e6f74206861766520706c6179657273000000000000000000000000008152506020019250505060405180910390a1612327565b600660009054906101000a900473ffffffffffffffffffffffffffffffffffffffff1673ffffffffffffffffffffffffffffffffffffffff1663769c4898856040518263ffffffff1660e01b81526004018082815260200180602001828103825260188152602001807f6f6e6c79206f6e6520706c61796572206f6e206576656e74000000000000000081525060200192505050600060405180830381600087803b15801561230e57600080fd5b505af1158015612322573d6000803e3d6000fd5b505050505b612558565b600080858152602001908152602001600020600a0160009054906101000a900460ff1680156123705750600080600086815260200190815260200160002060090154145b156123ce577f7d056f7ad1cec2447e1046080437b34a925f7ddd6099486d01c4e0e01bd51a8c8460008087815260200190815260200160002060060154604051808381526020018281526020019250505060405180910390a1612557565b6123d66133b2565b60405180604001604052808473ffffffffffffffffffffffffffffffffffffffff168152602001838152509050600080868152602001908152602001600020600701600085815260200190815260200160002081908060018154018082558091505060019003906000526020600020906002020160009091909190915060008201518160000160006101000a81548173ffffffffffffffffffffffffffffffffffffffff021916908373ffffffffffffffffffffffffffffffffffffffff16021790555060208201518160010155505060016000808781526020019081526020016000206008016000828254019250508190555060008086815260200190815260200160002060090154600080878152602001908152602001600020600801541480156125185750600080600087815260200190815260200160002060090154115b15612555577fa41def8a44f88925e3e009abe2bb54653ea68faeeccd9a6a45ff94bb19f040d7856040518082815260200191505060405180910390a15b505b5b50505050565b600760009054906101000a900473ffffffffffffffffffffffffffffffffffffffff1673ffffffffffffffffffffffffffffffffffffffff163373ffffffffffffffffffffffffffffffffffffffff1614612621576040517f08c379a000000000000000000000000000000000000000000000000000000000815260040180806020018281038252600a8152602001807f6f776e6572206f6e6c790000000000000000000000000000000000000000000081525060200191505060405180910390fd5b600061265760008087815260200190815260200160002060010154600080888152602001908152602001600020600201546114cc565b60000b146126cd576040517f08c379a00000000000000000000000000000000000000000000000000000000081526004018080602001828103825260118152602001807f54696d65206973206e6f742076616c696400000000000000000000000000000081525060200191505060405180910390fd5b60011515600560009054906101000a900473ffffffffffffffffffffffffffffffffffffffff1673ffffffffffffffffffffffffffffffffffffffff1663362e41b6866040518263ffffffff1660e01b81526004018082815260200191505060206040518083038186803b15801561274457600080fd5b505afa158015612758573d6000803e3d6000fd5b505050506040513d602081101561276e57600080fd5b8101908080519060200190929190505050151514156127f5576040517f08c379a00000000000000000000000000000000000000000000000000000000081526004018080602001828103825260118152602001807f6576656e7420697320726576657274656400000000000000000000000000000081525060200191505060405180910390fd5b60011515600560009054906101000a900473ffffffffffffffffffffffffffffffffffffffff1673ffffffffffffffffffffffffffffffffffffffff1663d343c1dc866040518263ffffffff1660e01b81526004018082815260200191505060206040518083038186803b15801561286c57600080fd5b505afa158015612880573d6000803e3d6000fd5b505050506040513d602081101561289657600080fd5b81019080805190602001909291905050501515141561291d576040517f08c379a000000000000000000000000000000000000000000000000000000000815260040180806020018281038252600f8152602001807f6576656e742069732066696e697368000000000000000000000000000000000081525060200191505060405180910390fd5b6001151560008086815260200190815260200160002060050160008373ffffffffffffffffffffffffffffffffffffffff1673ffffffffffffffffffffffffffffffffffffffff16815260200190815260200160002060009054906101000a900460ff16151514156129da576040517f08c379a00000000000000000000000000000000000000000000000000000000081526004018080602001828103825260218152602001806134136021913960400191505060405180910390fd5b600254821015612a35576040517f08c379a00000000000000000000000000000000000000000000000000000000081526004018080602001828103825260318152602001806134626031913960400191505060405180910390fd5b612a3d6133e2565b60405180604001604052808373ffffffffffffffffffffffffffffffffffffffff168152602001848152509050600080868152602001908152602001600020600401600085815260200190815260200160002081908060018154018082558091505060019003906000526020600020906002020160009091909190915060008201518160000160006101000a81548173ffffffffffffffffffffffffffffffffffffffff021916908373ffffffffffffffffffffffffffffffffffffffff160217905550602082015181600101555050600160008087815260200190815260200160002060050160008473ffffffffffffffffffffffffffffffffffffffff1673ffffffffffffffffffffffffffffffffffffffff16815260200190815260200160002060006101000a81548160ff02191690831515021790555060016000808781526020019081526020016000206006016000828254019250508190555082600080878152602001908152602001600020600c016000828254019250508190555082600360009054906101000a900473ffffffffffffffffffffffffffffffffffffffff1673ffffffffffffffffffffffffffffffffffffffff1663dd62ed3e84306040518363ffffffff1660e01b8152600401808373ffffffffffffffffffffffffffffffffffffffff1681526020018273ffffffffffffffffffffffffffffffffffffffff1681526020019250505060206040518083038186803b158015612c6757600080fd5b505afa158015612c7b573d6000803e3d6000fd5b505050506040513d6020811015612c9157600080fd5b81019080805190602001909291905050501015612d16576040517f08c379a000000000000000000000000000000000000000000000000000000000815260040180806020018281038252600f8152602001807f416c6c6f77616e6365206572726f72000000000000000000000000000000000081525060200191505060405180910390fd5b600360009054906101000a900473ffffffffffffffffffffffffffffffffffffffff1673ffffffffffffffffffffffffffffffffffffffff166323b872dd8330866040518463ffffffff1660e01b8152600401808473ffffffffffffffffffffffffffffffffffffffff1681526020018373ffffffffffffffffffffffffffffffffffffffff1681526020018281526020019350505050602060405180830381600087803b158015612dc757600080fd5b505af1158015612ddb573d6000803e3d6000fd5b505050506040513d6020811015612df157600080fd5b8101908080519060200190929190505050612e74576040517f08c379a000000000000000000000000000000000000000000000000000000000815260040180806020018281038252601f8152602001807f5472616e73666572204245542066726f6d20706c6179657273206572726f720081525060200191505060405180910390fd5b5050505050565b6000806000838152602001908152602001600020600301549050919050565b6000600860009054906101000a900473ffffffffffffffffffffffffffffffffffffffff1673ffffffffffffffffffffffffffffffffffffffff163373ffffffffffffffffffffffffffffffffffffffff161480612f455750600960009054906101000a900473ffffffffffffffffffffffffffffffffffffffff1673ffffffffffffffffffffffffffffffffffffffff163373ffffffffffffffffffffffffffffffffffffffff16145b612fb7576040517f08c379a000000000000000000000000000000000000000000000000000000000815260040180806020018281038252600a8152602001807f6f776e6572206f6e6c790000000000000000000000000000000000000000000081525060200191505060405180910390fd5b600360009054906101000a900473ffffffffffffffffffffffffffffffffffffffff1673ffffffffffffffffffffffffffffffffffffffff1663a9059cbb84846040518363ffffffff1660e01b8152600401808373ffffffffffffffffffffffffffffffffffffffff16815260200182815260200192505050602060405180830381600087803b15801561304a57600080fd5b505af115801561305e573d6000803e3d6000fd5b505050506040513d602081101561307457600080fd5b81019080805190602001909291905050506130f7576040517f08c379a00000000000000000000000000000000000000000000000000000000081526004018080602001828103825260088152602001807f6d696e742065727200000000000000000000000000000000000000000000000081525060200191505060405180910390fd5b6001905092915050565b6000806000838152602001908152602001600020600a0160019054906101000a900473ffffffffffffffffffffffffffffffffffffffff169050919050565b60008060008581526020019081526020016000206007016000848152602001908152602001600020828154811061317357fe5b906000526020600020906002020160000160009054906101000a900473ffffffffffffffffffffffffffffffffffffffff1690509392505050565b6000806000838152602001908152602001600020600601549050919050565b60018054906101000a900460ff16806131ea57506131e961338e565b5b806132025750600160009054906101000a900460ff16155b613257576040517f08c379a000000000000000000000000000000000000000000000000000000000815260040180806020018281038252602e815260200180613434602e913960400191505060405180910390fd5b600060018054906101000a900460ff1615905080156132a55760018060016101000a81548160ff02191690831515021790555060018060006101000a81548160ff0219169083151502179055505b82600360006101000a81548173ffffffffffffffffffffffffffffffffffffffff021916908373ffffffffffffffffffffffffffffffffffffffff16021790555081600460006101000a81548173ffffffffffffffffffffffffffffffffffffffff021916908373ffffffffffffffffffffffffffffffffffffffff16021790555033600760006101000a81548173ffffffffffffffffffffffffffffffffffffffff021916908373ffffffffffffffffffffffffffffffffffffffff16021790555080156133895760006001806101000a81548160ff0219169083151502179055505b505050565b60006133993061339f565b15905090565b600080823b905060008111915050919050565b6040518060400160405280600073ffffffffffffffffffffffffffffffffffffffff168152602001600081525090565b6040518060400160405280600073ffffffffffffffffffffffffffffffffffffffff16815260200160008152509056fe7573657220616c726561647920706172746963697061746520696e206576656e74496e697469616c697a61626c653a20636f6e747261637420697320616c726561647920696e697469616c697a656462657420616d6f756e74206d75737420626520626967676572206f7220657175616c20746f20302e303120746f6b656e73a26469706673582212203f9dc852b456dc5684c375f2dd97ddc9636730b6739f070d1adbe03af5ae8c0d64736f6c63430007060033",
  "immutableReferences": {},
  "source": "// SPDX-License-Identifier: MIT\npragma solidity >=0.4.22 <0.9.0;\n\nimport {TimeValidation} from \"../../helpers/TimeValidation.sol\";\nimport {BET} from \"../../tokens/BET.sol\";\nimport {BTY} from \"../../tokens/BTY.sol\";\nimport {PubStruct} from \"../../struct/PubStruct.sol\";\nimport {MPStruct} from \"../../struct/MPStruct.sol\";\nimport {MiddlePayment} from \"./MiddlePayment.sol\";\n\nimport \"@openzeppelin/contracts-upgradeable/proxy/Initializable.sol\";\n\ncontract PublicEvents is\n    TimeValidation,\n    PubStruct,\n    Initializable\n{\n    event calculateExpert(int id, uint activePlayers);\n    event findCorrectAnswer(int id);\n    event revertedEvent(int id, string purpose);\n\n    uint minBet = 10000000000000000;\n    BET public betToken;\n    BTY public btyToken;\n    MPStruct mpData;\n    MiddlePayment mpContract;\n    address owner;\n    address MPContract;\n    address PPContract;\n    \n    function __PublicEventsInit(BET _betAddress, BTY _btyAddress) public initializer {\n        betToken = _betAddress;\n        btyToken = _btyAddress;\n        owner = msg.sender;\n    }\n\n    function setAddresses(address _mpaddr, address _ppaddr) public {\n        require( msg.sender == owner, \"owner only\");\n        mpData = MPStruct(_mpaddr);\n        mpContract = MiddlePayment(_mpaddr);\n        MPContract = _mpaddr;\n        PPContract = _ppaddr;\n    }\n\n    function newEvent(\n        int _id,\n        uint _sT,\n        uint _eT,\n        uint _questAmount,\n        uint _amountExp,\n        bool _calcExp,\n        address payable _host,\n        uint _amountPrem\n    ) public payable {\n        require( msg.sender == owner, \"owner only\");\n        events[_id].id = _id;\n        events[_id].startTime = _sT;\n        events[_id].endTime = _eT;\n        events[_id].questAmount = _questAmount;\n        events[_id].amountExperts = _amountExp;\n        events[_id].host = _host;\n        events[_id].calculateExperts = _calcExp;\n        if (_amountPrem > 0) {\n            events[_id].premiumAmount = _amountPrem;\n            require( btyToken.allowance(_host, address(this)) >= _amountPrem, \"Allowance\" );\n            require( btyToken.transferFrom(_host, address(this), _amountPrem), \"BTY PRO event\" );\n        }\n    }\n\n    function addAdvisor(address payable _advisor, int _id) public{\n        require( msg.sender == owner, \"owner only\");\n        events[_id].advisor = _advisor;\n    }\n\n    function setAnswer(\n        int _id,\n        uint _answer,\n        uint _amount,\n        address payable _pWallet\n    ) public payable {\n        require( msg.sender == owner, \"owner only\");\n         require(\n             timeAnswer(events[_id].startTime, events[_id].endTime) == 0,\n             \"Time is not valid\"\n         );\n         require(mpData.checkReverted(_id) != true, \"event is reverted\");\n         require(mpData.checkEventFinish(_id) != true, \"event is finish\");\n         require(\n             events[_id].allPlayers[_pWallet] != true,\n             \"user already participate in event\"\n         );\n         require(_amount >= minBet, \"bet amount must be bigger or equal to 0.01 tokens\" );\n\n        PubStruct.Player memory player;\n        player = PubStruct.Player(_pWallet, _amount);\n        events[_id].players[_answer].push(player);\n        events[_id].allPlayers[_pWallet] = true;\n        events[_id].activePlayers += 1;\n        events[_id].pool += _amount;\n\n         require(\n             betToken.allowance(_pWallet, address(this)) >= _amount,\n             \"Allowance error\"\n         );\n         require(\n             betToken.transferFrom(_pWallet, address(this), _amount),\n             \"Transfer BET from players error\"\n         );\n    }\n\n    function setValidator(\n        int _id,\n        uint _answer,\n        address payable _eWallet,\n        int _reput\n    ) public payable {\n        require( msg.sender == owner, \"owner only\");\n        require(timeValidate(events[_id].endTime) == 0, \"not valid time\"); \n        require(\n            !events[_id].allPlayers[_eWallet],\n            \"user participate\"\n        );\n        require(mpData.checkReverted(_id) != true, \"event is reverted\");\n        require(mpData.checkEventFinish(_id) != true, \"event is finish\");\n\n        if (events[_id].activePlayers <= 1) {\n            mpData.setReverted(_id);\n            if(events[_id].activePlayers == 0){\n                emit revertedEvent(_id, \"do not have players\");\n            }else{\n                mpContract.revertedPayment(_id, \"only one player on event\");\n            }\n        } else {\n            if (\n                events[_id].calculateExperts && events[_id].amountExperts == 0\n            ) {\n                emit calculateExpert(_id, events[_id].activePlayers);\n            } else {\n                PubStruct.Expert memory expert;\n                expert = PubStruct.Expert(_eWallet, _reput);\n                events[_id].expert[_answer].push(expert);\n                events[_id].activeExperts += 1;\n\n                if (events[_id].activeExperts == events[_id].amountExperts && events[_id].amountExperts > 0) {\n                    emit findCorrectAnswer(_id);\n                }\n            }\n        }\n    }\n\n    function setActiveExpertsFromOracl(uint _amount, int _id) public {\n        require( msg.sender == owner, \"owner only\");\n        events[_id].amountExperts = _amount;\n    }\n\n    function mint(address _addr, uint _amount) public returns(bool) {\n        require( msg.sender == MPContract || msg.sender == PPContract, \"owner only\");\n        require(betToken.mintFromPublicContract(_addr, _amount),\"pay err\");\n        return true;\n    }\n\n    function pay(address _addr, uint _amount) public returns(bool) {\n        require( msg.sender == MPContract || msg.sender == PPContract, \"owner only\");\n        require(betToken.transfer(_addr, _amount),\"mint err\");\n        return true;\n    }\n\n    function payBTY(address _addr, uint _amount) public returns(bool) {\n        require( msg.sender == MPContract || msg.sender == PPContract, \"owner only\");\n        require(btyToken.transfer(_addr, _amount),\"mint err\");\n        return true;\n    }\n\n}\n",
  "sourcePath": "/Users/macbook/Documents/freelance/tokenominc/contracts/matic/events/PublicEvents/PublicEvents.sol",
  "compiler": {
    "name": "solc",
    "version": "0.7.6+commit.7338295f.Linux.g++"
  },
  "schemaVersion": "3.3.4",
  "updatedAt": "2021-03-22T15:08:23.603Z",
  "devdoc": {
    "kind": "dev",
    "methods": {},
    "version": 1
  },
  "userdoc": {
    "kind": "user",
    "methods": {},
    "version": 1
  }
}