{
  "contractName": "PublicEvents",
  "abi": [
    {
      "inputs": [
        {
          "internalType": "contract BET",
          "name": "_betAddress",
          "type": "address"
        },
        {
          "internalType": "contract BTY",
          "name": "_btyAddress",
          "type": "address"
        }
      ],
      "stateMutability": "nonpayable",
      "type": "constructor"
    },
    {
      "anonymous": false,
      "inputs": [
        {
          "indexed": false,
          "internalType": "int256",
          "name": "id",
          "type": "int256"
        }
      ],
      "name": "calculateExpert",
      "type": "event"
    },
    {
      "anonymous": false,
      "inputs": [
        {
          "indexed": false,
          "internalType": "int256",
          "name": "id",
          "type": "int256"
        },
        {
          "indexed": false,
          "internalType": "string",
          "name": "purpose",
          "type": "string"
        }
      ],
      "name": "revertedEvent",
      "type": "event"
    },
    {
      "inputs": [],
      "name": "betToken",
      "outputs": [
        {
          "internalType": "contract BET",
          "name": "",
          "type": "address"
        }
      ],
      "stateMutability": "view",
      "type": "function"
    },
    {
      "inputs": [],
      "name": "btyToken",
      "outputs": [
        {
          "internalType": "contract BTY",
          "name": "",
          "type": "address"
        }
      ],
      "stateMutability": "view",
      "type": "function"
    },
    {
      "inputs": [],
      "name": "getCompanyPerc",
      "outputs": [
        {
          "internalType": "uint256",
          "name": "",
          "type": "uint256"
        }
      ],
      "stateMutability": "view",
      "type": "function"
    },
    {
      "inputs": [],
      "name": "getExpertPerc",
      "outputs": [
        {
          "internalType": "uint256",
          "name": "",
          "type": "uint256"
        }
      ],
      "stateMutability": "view",
      "type": "function"
    },
    {
      "inputs": [],
      "name": "getFirstWithdraw",
      "outputs": [
        {
          "internalType": "uint256",
          "name": "",
          "type": "uint256"
        }
      ],
      "stateMutability": "view",
      "type": "function"
    },
    {
      "inputs": [],
      "name": "getGFindex",
      "outputs": [
        {
          "internalType": "uint256",
          "name": "",
          "type": "uint256"
        }
      ],
      "stateMutability": "view",
      "type": "function"
    },
    {
      "inputs": [],
      "name": "getGFrewards",
      "outputs": [
        {
          "internalType": "uint256",
          "name": "",
          "type": "uint256"
        }
      ],
      "stateMutability": "view",
      "type": "function"
    },
    {
      "inputs": [],
      "name": "getHostPerc",
      "outputs": [
        {
          "internalType": "uint256",
          "name": "",
          "type": "uint256"
        }
      ],
      "stateMutability": "view",
      "type": "function"
    },
    {
      "inputs": [
        {
          "internalType": "uint256",
          "name": "_percent",
          "type": "uint256"
        },
        {
          "internalType": "uint256",
          "name": "_from",
          "type": "uint256"
        }
      ],
      "name": "getPersent",
      "outputs": [
        {
          "internalType": "uint256",
          "name": "",
          "type": "uint256"
        }
      ],
      "stateMutability": "pure",
      "type": "function"
    },
    {
      "inputs": [],
      "name": "getPlayerPers",
      "outputs": [
        {
          "internalType": "uint256",
          "name": "",
          "type": "uint256"
        }
      ],
      "stateMutability": "view",
      "type": "function"
    },
    {
      "inputs": [],
      "name": "getWelcomeBTYTokens",
      "outputs": [
        {
          "internalType": "uint256",
          "name": "",
          "type": "uint256"
        }
      ],
      "stateMutability": "view",
      "type": "function"
    },
    {
      "inputs": [
        {
          "internalType": "int256",
          "name": "_id",
          "type": "int256"
        }
      ],
      "name": "letsFindCorrectAnswer",
      "outputs": [],
      "stateMutability": "nonpayable",
      "type": "function"
    },
    {
      "inputs": [
        {
          "internalType": "int256",
          "name": "_id",
          "type": "int256"
        },
        {
          "internalType": "string",
          "name": "purpose",
          "type": "string"
        }
      ],
      "name": "revertedPayment",
      "outputs": [],
      "stateMutability": "nonpayable",
      "type": "function"
    },
    {
      "inputs": [
        {
          "internalType": "uint256",
          "name": "_companyPerc",
          "type": "uint256"
        }
      ],
      "name": "setCompanyPerc",
      "outputs": [],
      "stateMutability": "nonpayable",
      "type": "function"
    },
    {
      "inputs": [
        {
          "internalType": "uint256",
          "name": "_expertPerc",
          "type": "uint256"
        }
      ],
      "name": "setExpertPerc",
      "outputs": [],
      "stateMutability": "nonpayable",
      "type": "function"
    },
    {
      "inputs": [
        {
          "internalType": "uint256",
          "name": "_firstWithdrawIndex",
          "type": "uint256"
        }
      ],
      "name": "setFirstWithdraw",
      "outputs": [],
      "stateMutability": "nonpayable",
      "type": "function"
    },
    {
      "inputs": [
        {
          "internalType": "uint256",
          "name": "_GFindex",
          "type": "uint256"
        }
      ],
      "name": "setGFindex",
      "outputs": [],
      "stateMutability": "nonpayable",
      "type": "function"
    },
    {
      "inputs": [
        {
          "internalType": "uint256",
          "name": "_GFrewards",
          "type": "uint256"
        }
      ],
      "name": "setGFrewards",
      "outputs": [],
      "stateMutability": "nonpayable",
      "type": "function"
    },
    {
      "inputs": [
        {
          "internalType": "uint256",
          "name": "_hostPerc",
          "type": "uint256"
        }
      ],
      "name": "setHostPerc",
      "outputs": [],
      "stateMutability": "nonpayable",
      "type": "function"
    },
    {
      "inputs": [
        {
          "internalType": "uint256",
          "name": "_playerPers",
          "type": "uint256"
        }
      ],
      "name": "setPlayerPers",
      "outputs": [],
      "stateMutability": "nonpayable",
      "type": "function"
    },
    {
      "inputs": [
        {
          "internalType": "uint256[]",
          "name": "_data",
          "type": "uint256[]"
        }
      ],
      "name": "setSort",
      "outputs": [],
      "stateMutability": "nonpayable",
      "type": "function"
    },
    {
      "inputs": [
        {
          "internalType": "uint256",
          "name": "_welcomeBTYTokens",
          "type": "uint256"
        }
      ],
      "name": "setWelcomeBTYTokens",
      "outputs": [],
      "stateMutability": "nonpayable",
      "type": "function"
    },
    {
      "inputs": [],
      "name": "sort",
      "outputs": [],
      "stateMutability": "nonpayable",
      "type": "function"
    },
    {
      "inputs": [
        {
          "internalType": "uint256",
          "name": "",
          "type": "uint256"
        }
      ],
      "name": "sortedArray",
      "outputs": [
        {
          "internalType": "uint256",
          "name": "",
          "type": "uint256"
        }
      ],
      "stateMutability": "view",
      "type": "function"
    },
    {
      "inputs": [
        {
          "internalType": "uint256",
          "name": "_startTime",
          "type": "uint256"
        },
        {
          "internalType": "uint256",
          "name": "_endTime",
          "type": "uint256"
        }
      ],
      "name": "timeAnswer",
      "outputs": [
        {
          "internalType": "int8",
          "name": "",
          "type": "int8"
        }
      ],
      "stateMutability": "view",
      "type": "function"
    },
    {
      "inputs": [
        {
          "internalType": "uint256",
          "name": "_endTime",
          "type": "uint256"
        }
      ],
      "name": "timeValidate",
      "outputs": [
        {
          "internalType": "int8",
          "name": "",
          "type": "int8"
        }
      ],
      "stateMutability": "view",
      "type": "function"
    },
    {
      "inputs": [
        {
          "internalType": "int256",
          "name": "_id",
          "type": "int256"
        },
        {
          "internalType": "uint256",
          "name": "_startTime",
          "type": "uint256"
        },
        {
          "internalType": "uint256",
          "name": "_endTime",
          "type": "uint256"
        },
        {
          "internalType": "uint8",
          "name": "_questAmount",
          "type": "uint8"
        },
        {
          "internalType": "uint256",
          "name": "_amountExperts",
          "type": "uint256"
        },
        {
          "internalType": "bool",
          "name": "_calculateExperts",
          "type": "bool"
        },
        {
          "internalType": "address payable",
          "name": "_host",
          "type": "address"
        },
        {
          "internalType": "bool",
          "name": "_premium",
          "type": "bool"
        },
        {
          "internalType": "uint256",
          "name": "_amountPremiumEvent",
          "type": "uint256"
        }
      ],
      "name": "newEvent",
      "outputs": [],
      "stateMutability": "payable",
      "type": "function"
    },
    {
      "inputs": [
        {
          "internalType": "int256",
          "name": "_id",
          "type": "int256"
        },
        {
          "internalType": "uint8",
          "name": "_whichAnswer",
          "type": "uint8"
        },
        {
          "internalType": "uint256",
          "name": "_amount",
          "type": "uint256"
        },
        {
          "internalType": "address payable",
          "name": "_playerWallet",
          "type": "address"
        }
      ],
      "name": "setAnswer",
      "outputs": [],
      "stateMutability": "payable",
      "type": "function"
    },
    {
      "inputs": [
        {
          "internalType": "int256",
          "name": "_id",
          "type": "int256"
        },
        {
          "internalType": "uint8",
          "name": "_whichAnswer",
          "type": "uint8"
        },
        {
          "internalType": "address payable",
          "name": "_expertWallet",
          "type": "address"
        },
        {
          "internalType": "int256",
          "name": "rating",
          "type": "int256"
        }
      ],
      "name": "setValidator",
      "outputs": [],
      "stateMutability": "payable",
      "type": "function"
    },
    {
      "inputs": [
        {
          "internalType": "uint256",
          "name": "_amount",
          "type": "uint256"
        },
        {
          "internalType": "int256",
          "name": "_id",
          "type": "int256"
        }
      ],
      "name": "setActivePlayersFromOracl",
      "outputs": [],
      "stateMutability": "nonpayable",
      "type": "function"
    }
  ],
  "bytecode": "0x6080604052600a60075568056bc75e2d631000006008556001600955678ac7230489e80000600a5534801561003357600080fd5b50604051612f9b380380612f9b8339818101604052604081101561005657600080fd5b810190808051906020019092919080519060200190929190505050818133600660006101000a81548173ffffffffffffffffffffffffffffffffffffffff021916908373ffffffffffffffffffffffffffffffffffffffff16021790555081600b60006101000a81548173ffffffffffffffffffffffffffffffffffffffff021916908373ffffffffffffffffffffffffffffffffffffffff16021790555080600c60006101000a81548173ffffffffffffffffffffffffffffffffffffffff021916908373ffffffffffffffffffffffffffffffffffffffff160217905550505033600d60006101000a81548173ffffffffffffffffffffffffffffffffffffffff021916908373ffffffffffffffffffffffffffffffffffffffff1602179055505050612e118061018a6000396000f3fe6080604052600436106101cd5760003560e01c80638cdc86a6116100f7578063d70b4bb611610095578063e640a53311610064578063e640a53314610984578063e7872183146109af578063e79f365d14610a08578063ef99e09914610a43576101cd565b8063d70b4bb614610894578063d7a86da7146108bf578063e1aea523146108fa578063e2d914f214610935576101cd565b8063a03c6697116100d1578063a03c6697146107c8578063be8968aa14610803578063c369085e1461082e578063ca2f2f7a14610869576101cd565b80638cdc86a61461074b5780639580de6714610762578063997862cb1461079d576101cd565b8063506d05cf1161016f57806378691f161161013e57806378691f16146105c4578063792e146e146106055780637dbb9dfa1461064a57806388d9dd49146106e6576101cd565b8063506d05cf1461042a57806354f6db741461046b578063769c4898146104c7578063782f4a4f14610599576101cd565b806324467c45116101ab57806324467c45146102ad578063246fe647146102e8578063282dc5461461033a5780633b97b5d614610365576101cd565b80630328ff4a146101d25780630bf94f981461020d57806319d6b7d814610272575b600080fd5b3480156101de57600080fd5b5061020b600480360360208110156101f557600080fd5b8101908080359060200190929190505050610a6e565b005b6102706004803603608081101561022357600080fd5b8101908080359060200190929190803560ff16906020019092919080359060200190929190803573ffffffffffffffffffffffffffffffffffffffff169060200190929190505050610b1e565b005b34801561027e57600080fd5b506102ab6004803603602081101561029557600080fd5b810190808035906020019092919050505061129f565b005b3480156102b957600080fd5b506102e6600480360360208110156102d057600080fd5b810190808035906020019092919050505061134f565b005b3480156102f457600080fd5b506103216004803603602081101561030b57600080fd5b81019080803590602001909291905050506113ff565b604051808260000b815260200191505060405180910390f35b34801561034657600080fd5b5061034f61141d565b6040518082815260200191505060405180910390f35b34801561037157600080fd5b506104286004803603602081101561038857600080fd5b81019080803590602001906401000000008111156103a557600080fd5b8201836020820111156103b757600080fd5b803590602001918460208302840111640100000000831117156103d957600080fd5b919080806020026020016040519081016040528093929190818152602001838360200280828437600081840152601f19601f820116905080830192505050505050509192919290505050611427565b005b34801561043657600080fd5b5061043f611441565b604051808273ffffffffffffffffffffffffffffffffffffffff16815260200191505060405180910390f35b34801561047757600080fd5b506104ae6004803603604081101561048e57600080fd5b810190808035906020019092919080359060200190929190505050611467565b604051808260000b815260200191505060405180910390f35b3480156104d357600080fd5b50610597600480360360408110156104ea57600080fd5b81019080803590602001909291908035906020019064010000000081111561051157600080fd5b82018360208201111561052357600080fd5b8035906020019184600183028401116401000000008311171561054557600080fd5b91908080601f016020809104026020016040519081016040528093929190818152602001838380828437600081840152601f19601f820116905080830192505050505050509192919290505050611499565b005b3480156105a557600080fd5b506105ae61154d565b6040518082815260200191505060405180910390f35b3480156105d057600080fd5b506105d9611557565b604051808273ffffffffffffffffffffffffffffffffffffffff16815260200191505060405180910390f35b34801561061157600080fd5b506106486004803603604081101561062857600080fd5b81019080803590602001909291908035906020019092919050505061157d565b005b6106e4600480360361012081101561066157600080fd5b81019080803590602001909291908035906020019092919080359060200190929190803560ff16906020019092919080359060200190929190803515159060200190929190803573ffffffffffffffffffffffffffffffffffffffff16906020019092919080351515906020019092919080359060200190929190505050611641565b005b610749600480360360808110156106fc57600080fd5b8101908080359060200190929190803560ff169060200190929190803573ffffffffffffffffffffffffffffffffffffffff16906020019092919080359060200190929190505050611ad5565b005b34801561075757600080fd5b506107606120a1565b005b34801561076e57600080fd5b5061079b6004803603602081101561078557600080fd5b81019080803590602001909291905050506120cb565b005b3480156107a957600080fd5b506107b261217b565b6040518082815260200191505060405180910390f35b3480156107d457600080fd5b50610801600480360360208110156107eb57600080fd5b8101908080359060200190929190505050612185565b005b34801561080f57600080fd5b50610818612235565b6040518082815260200191505060405180910390f35b34801561083a57600080fd5b506108676004803603602081101561085157600080fd5b810190808035906020019092919050505061223f565b005b34801561087557600080fd5b5061087e6122ef565b6040518082815260200191505060405180910390f35b3480156108a057600080fd5b506108a96122f9565b6040518082815260200191505060405180910390f35b3480156108cb57600080fd5b506108f8600480360360208110156108e257600080fd5b8101908080359060200190929190505050612303565b005b34801561090657600080fd5b506109336004803603602081101561091d57600080fd5b81019080803590602001909291905050506123b3565b005b34801561094157600080fd5b5061096e6004803603602081101561095857600080fd5b8101908080359060200190929190505050612463565b6040518082815260200191505060405180910390f35b34801561099057600080fd5b50610999612487565b6040518082815260200191505060405180910390f35b3480156109bb57600080fd5b506109f2600480360360408110156109d257600080fd5b810190808035906020019092919080359060200190929190505050612491565b6040518082815260200191505060405180910390f35b348015610a1457600080fd5b50610a4160048036036020811015610a2b57600080fd5b81019080803590602001909291905050506124a8565b005b348015610a4f57600080fd5b50610a5861258c565b6040518082815260200191505060405180910390f35b600660009054906101000a900473ffffffffffffffffffffffffffffffffffffffff1673ffffffffffffffffffffffffffffffffffffffff163373ffffffffffffffffffffffffffffffffffffffff1614610b14576040517f08c379a0000000000000000000000000000000000000000000000000000000008152600401808060200182810382526031815260200180612dab6031913960400191505060405180910390fd5b8060038190555050565b600660009054906101000a900473ffffffffffffffffffffffffffffffffffffffff1673ffffffffffffffffffffffffffffffffffffffff163373ffffffffffffffffffffffffffffffffffffffff1614610bc4576040517f08c379a0000000000000000000000000000000000000000000000000000000008152600401808060200182810382526031815260200180612dab6031913960400191505060405180910390fd5b6000610bfa6000808781526020019081526020016000206001015460008088815260200190815260200160002060020154611467565b60000b14610c70576040517f08c379a00000000000000000000000000000000000000000000000000000000081526004018080602001828103825260118152602001807f54696d65206973206e6f742076616c696400000000000000000000000000000081525060200191505060405180910390fd5b600080858152602001908152602001600020600d0160009054906101000a900460ff16610d05576040517f08c379a00000000000000000000000000000000000000000000000000000000081526004018080602001828103825260118152602001807f6576656e7420697320726576657274656400000000000000000000000000000081525060200191505060405180910390fd5b600080858152602001908152602001600020600f0160009054906101000a900460ff16610d9a576040517f08c379a000000000000000000000000000000000000000000000000000000000815260040180806020018281038252600f8152602001807f6576656e742069732066696e697368000000000000000000000000000000000081525060200191505060405180910390fd5b6001151560008086815260200190815260200160002060050160008373ffffffffffffffffffffffffffffffffffffffff1673ffffffffffffffffffffffffffffffffffffffff16815260200190815260200160002060009054906101000a900460ff16151514610e56576040517f08c379a0000000000000000000000000000000000000000000000000000000008152600401808060200182810382526021815260200180612d666021913960400191505060405180910390fd5b610e5e612c74565b60405180604001604052808373ffffffffffffffffffffffffffffffffffffffff16815260200184815250905060008086815260200190815260200160002060040160008560ff16815260200190815260200160002081908060018154018082558091505060019003906000526020600020906002020160009091909190915060008201518160000160006101000a81548173ffffffffffffffffffffffffffffffffffffffff021916908373ffffffffffffffffffffffffffffffffffffffff160217905550602082015181600101555050600160008087815260200190815260200160002060050160008473ffffffffffffffffffffffffffffffffffffffff1673ffffffffffffffffffffffffffffffffffffffff16815260200190815260200160002060006101000a81548160ff02191690831515021790555060016000808781526020019081526020016000206006016000828254019250508190555082600080878152602001908152602001600020600c016000828254019250508190555082600b60009054906101000a900473ffffffffffffffffffffffffffffffffffffffff1673ffffffffffffffffffffffffffffffffffffffff1663dd62ed3e84306040518363ffffffff1660e01b8152600401808373ffffffffffffffffffffffffffffffffffffffff1681526020018273ffffffffffffffffffffffffffffffffffffffff1681526020019250505060206040518083038186803b15801561108b57600080fd5b505afa15801561109f573d6000803e3d6000fd5b505050506040513d60208110156110b557600080fd5b8101908080519060200190929190505050101561113a576040517f08c379a000000000000000000000000000000000000000000000000000000000815260040180806020018281038252600f8152602001807f416c6c6f77616e6365206572726f72000000000000000000000000000000000081525060200191505060405180910390fd5b600b60009054906101000a900473ffffffffffffffffffffffffffffffffffffffff1673ffffffffffffffffffffffffffffffffffffffff166323b872dd8330866040518463ffffffff1660e01b8152600401808473ffffffffffffffffffffffffffffffffffffffff1681526020018373ffffffffffffffffffffffffffffffffffffffff1681526020018281526020019350505050602060405180830381600087803b1580156111eb57600080fd5b505af11580156111ff573d6000803e3d6000fd5b505050506040513d602081101561121557600080fd5b8101908080519060200190929190505050611298576040517f08c379a000000000000000000000000000000000000000000000000000000000815260040180806020018281038252601f8152602001807f5472616e73666572204254592066726f6d20706c6179657273206572726f720081525060200191505060405180910390fd5b5050505050565b600660009054906101000a900473ffffffffffffffffffffffffffffffffffffffff1673ffffffffffffffffffffffffffffffffffffffff163373ffffffffffffffffffffffffffffffffffffffff1614611345576040517f08c379a0000000000000000000000000000000000000000000000000000000008152600401808060200182810382526031815260200180612dab6031913960400191505060405180910390fd5b80600a8190555050565b600660009054906101000a900473ffffffffffffffffffffffffffffffffffffffff1673ffffffffffffffffffffffffffffffffffffffff163373ffffffffffffffffffffffffffffffffffffffff16146113f5576040517f08c379a0000000000000000000000000000000000000000000000000000000008152600401808060200182810382526031815260200180612dab6031913960400191505060405180910390fd5b8060028190555050565b600080824203126114135760009050611418565b600190505b919050565b6000600a54905090565b806001908051906020019061143d929190612ca4565b5050565b600c60009054906101000a900473ffffffffffffffffffffffffffffffffffffffff1681565b6000808342031261148e576000428303126114855760009050611493565b60029050611493565b600190505b92915050565b600660009054906101000a900473ffffffffffffffffffffffffffffffffffffffff1673ffffffffffffffffffffffffffffffffffffffff163373ffffffffffffffffffffffffffffffffffffffff161461153f576040517f08c379a0000000000000000000000000000000000000000000000000000000008152600401808060200182810382526031815260200180612dab6031913960400191505060405180910390fd5b611549828261259a565b5050565b6000600854905090565b600b60009054906101000a900473ffffffffffffffffffffffffffffffffffffffff1681565b600660009054906101000a900473ffffffffffffffffffffffffffffffffffffffff1673ffffffffffffffffffffffffffffffffffffffff163373ffffffffffffffffffffffffffffffffffffffff1614611623576040517f08c379a0000000000000000000000000000000000000000000000000000000008152600401808060200182810382526031815260200180612dab6031913960400191505060405180910390fd5b81600080838152602001908152602001600020600901819055505050565b600660009054906101000a900473ffffffffffffffffffffffffffffffffffffffff1673ffffffffffffffffffffffffffffffffffffffff163373ffffffffffffffffffffffffffffffffffffffff16146116e7576040517f08c379a0000000000000000000000000000000000000000000000000000000008152600401808060200182810382526031815260200180612dab6031913960400191505060405180910390fd5b886000808b815260200190815260200160002060000181905550876000808b815260200190815260200160002060010181905550866000808b815260200190815260200160002060020181905550856000808b815260200190815260200160002060030160006101000a81548160ff021916908360ff160217905550846000808b815260200190815260200160002060090181905550826000808b8152602001908152602001600020600a0160016101000a81548173ffffffffffffffffffffffffffffffffffffffff021916908373ffffffffffffffffffffffffffffffffffffffff160217905550836000808b8152602001908152602001600020600a0160006101000a81548160ff021916908315150217905550816000808b8152602001908152602001600020600d0160016101000a81548160ff0219169083151502179055508115611aca5780600c60009054906101000a900473ffffffffffffffffffffffffffffffffffffffff1673ffffffffffffffffffffffffffffffffffffffff1663dd62ed3e85306040518363ffffffff1660e01b8152600401808373ffffffffffffffffffffffffffffffffffffffff1681526020018273ffffffffffffffffffffffffffffffffffffffff1681526020019250505060206040518083038186803b1580156118d957600080fd5b505afa1580156118ed573d6000803e3d6000fd5b505050506040513d602081101561190357600080fd5b81019080805190602001909291905050501015611988576040517f08c379a000000000000000000000000000000000000000000000000000000000815260040180806020018281038252600f8152602001807f416c6c6f77616e6365206572726f72000000000000000000000000000000000081525060200191505060405180910390fd5b600c60009054906101000a900473ffffffffffffffffffffffffffffffffffffffff1673ffffffffffffffffffffffffffffffffffffffff166323b872dd8430846040518463ffffffff1660e01b8152600401808473ffffffffffffffffffffffffffffffffffffffff1681526020018373ffffffffffffffffffffffffffffffffffffffff1681526020018281526020019350505050602060405180830381600087803b158015611a3957600080fd5b505af1158015611a4d573d6000803e3d6000fd5b505050506040513d6020811015611a6357600080fd5b8101908080519060200190929190505050611ac9576040517f08c379a0000000000000000000000000000000000000000000000000000000008152600401808060200182810382526027815260200180612d3f6027913960400191505060405180910390fd5b5b505050505050505050565b600660009054906101000a900473ffffffffffffffffffffffffffffffffffffffff1673ffffffffffffffffffffffffffffffffffffffff163373ffffffffffffffffffffffffffffffffffffffff1614611b7b576040517f08c379a0000000000000000000000000000000000000000000000000000000008152600401808060200182810382526031815260200180612dab6031913960400191505060405180910390fd5b6000611b9b600080878152602001908152602001600020600201546113ff565b60000b14611c11576040517f08c379a00000000000000000000000000000000000000000000000000000000081526004018080602001828103825260118152602001807f54696d65206973206e6f742076616c696400000000000000000000000000000081525060200191505060405180910390fd5b6001151560008086815260200190815260200160002060050160008473ffffffffffffffffffffffffffffffffffffffff1673ffffffffffffffffffffffffffffffffffffffff16815260200190815260200160002060009054906101000a900460ff16151514611ccd576040517f08c379a0000000000000000000000000000000000000000000000000000000008152600401808060200182810382526021815260200180612d666021913960400191505060405180910390fd5b600080858152602001908152602001600020600d0160009054906101000a900460ff16611d62576040517f08c379a00000000000000000000000000000000000000000000000000000000081526004018080602001828103825260118152602001807f6576656e7420697320726576657274656400000000000000000000000000000081525060200191505060405180910390fd5b600080858152602001908152602001600020600f0160009054906101000a900460ff16611df7576040517f08c379a000000000000000000000000000000000000000000000000000000000815260040180806020018281038252600f8152602001807f6576656e742069732066696e697368000000000000000000000000000000000081525060200191505060405180910390fd5b6000806000868152602001908152602001600020600601541415611eb8576001600080868152602001908152602001600020600d0160006101000a81548160ff0219169083151502179055507f847521552ad126e64c52b14640c804737bd67f2b6674309b332d1e5b17f857d18460405180828152602001806020018281038252601c8152602001807f646f206e6f74206861766520706c6179657273206f6e206576656e74000000008152506020019250505060405180910390a161209b565b600080858152602001908152602001600020600a0160009054906101000a900460ff168015611efc5750600080600086815260200190815260200160002060090154145b15611f3d577f3d8ff09a59b3725fa4462d27117756a86a87401fb53bec01f31ca27e92976505846040518082815260200191505060405180910390a161209a565b611f45612cf1565b60405180604001604052808473ffffffffffffffffffffffffffffffffffffffff16815260200183815250905060008086815260200190815260200160002060070160008560ff16815260200190815260200160002081908060018154018082558091505060019003906000526020600020906002020160009091909190915060008201518160000160006101000a81548173ffffffffffffffffffffffffffffffffffffffff021916908373ffffffffffffffffffffffffffffffffffffffff1602179055506020820151816001015550506000600160008088815260200190815260200160002060080154019050806000808881526020019081526020016000206008018190555060008087815260200190815260200160002060090154811480156120885750600080600088815260200190815260200160002060090154115b1561209757612096866124a8565b5b50505b5b50505050565b600060018054905014156120b4576120c9565b6120c86001600060018080549050036128cc565b5b565b600660009054906101000a900473ffffffffffffffffffffffffffffffffffffffff1673ffffffffffffffffffffffffffffffffffffffff163373ffffffffffffffffffffffffffffffffffffffff1614612171576040517f08c379a0000000000000000000000000000000000000000000000000000000008152600401808060200182810382526031815260200180612dab6031913960400191505060405180910390fd5b8060048190555050565b6000600554905090565b600660009054906101000a900473ffffffffffffffffffffffffffffffffffffffff1673ffffffffffffffffffffffffffffffffffffffff163373ffffffffffffffffffffffffffffffffffffffff161461222b576040517f08c379a0000000000000000000000000000000000000000000000000000000008152600401808060200182810382526031815260200180612dab6031913960400191505060405180910390fd5b8060078190555050565b6000600354905090565b600660009054906101000a900473ffffffffffffffffffffffffffffffffffffffff1673ffffffffffffffffffffffffffffffffffffffff163373ffffffffffffffffffffffffffffffffffffffff16146122e5576040517f08c379a0000000000000000000000000000000000000000000000000000000008152600401808060200182810382526031815260200180612dab6031913960400191505060405180910390fd5b8060098190555050565b6000600254905090565b6000600954905090565b600660009054906101000a900473ffffffffffffffffffffffffffffffffffffffff1673ffffffffffffffffffffffffffffffffffffffff163373ffffffffffffffffffffffffffffffffffffffff16146123a9576040517f08c379a0000000000000000000000000000000000000000000000000000000008152600401808060200182810382526031815260200180612dab6031913960400191505060405180910390fd5b8060088190555050565b600660009054906101000a900473ffffffffffffffffffffffffffffffffffffffff1673ffffffffffffffffffffffffffffffffffffffff163373ffffffffffffffffffffffffffffffffffffffff1614612459576040517f08c379a0000000000000000000000000000000000000000000000000000000008152600401808060200182810382526031815260200180612dab6031913960400191505060405180910390fd5b8060058190555050565b6001818154811061247357600080fd5b906000526020600020016000915090505481565b6000600454905090565b600060648383028161249f57fe5b04905092915050565b60008080600090505b60008085815260200190815260200160002060030160009054906101000a900460ff1660ff168160ff161015612558578260008086815260200190815260200160002060070160008360ff16815260200190815260200160002080549050111561254b5760008085815260200190815260200160002060070160008260ff1681526020019081526020016000208054905092508060ff1691505b80806001019150506124b1565b5061258781838560008088815260200190815260200160002060030160009054906101000a900460ff16612a18565b505050565b6000600754600a5402905090565b60005b60008084815260200190815260200160002060030160009054906101000a900460ff1660ff168160ff1610156127f55760005b60008085815260200190815260200160002060040160008360ff168152602001908152602001600020805490508160ff1610156127e757600b60009054906101000a900473ffffffffffffffffffffffffffffffffffffffff1673ffffffffffffffffffffffffffffffffffffffff1663a9059cbb60008087815260200190815260200160002060040160008560ff1681526020019081526020016000208360ff168154811061267c57fe5b906000526020600020906002020160000160009054906101000a900473ffffffffffffffffffffffffffffffffffffffff1660008088815260200190815260200160002060040160008660ff1681526020019081526020016000208460ff16815481106126e557fe5b9060005260206000209060020201600101546040518363ffffffff1660e01b8152600401808373ffffffffffffffffffffffffffffffffffffffff16815260200182815260200192505050602060405180830381600087803b15801561274a57600080fd5b505af115801561275e573d6000803e3d6000fd5b505050506040513d602081101561277457600080fd5b81019080805190602001909291905050506127da576040517f08c379a0000000000000000000000000000000000000000000000000000000008152600401808060200182810382526024815260200180612d876024913960400191505060405180910390fd5b80806001019150506125d0565b50808060010191505061259d565b506001600080848152602001908152602001600020600d0160006101000a81548160ff0219169083151502179055507f847521552ad126e64c52b14640c804737bd67f2b6674309b332d1e5b17f857d182826040518083815260200180602001828103825283818151815260200191508051906020019080838360005b8381101561288d578082015181840152602081019050612872565b50505050905090810190601f1680156128ba5780820380516001836020036101000a031916815260200191505b50935050505060405180910390a15050565b600082905060008290506000856002868603816128e557fe5b048601815481106128f257fe5b906000526020600020015490505b8183116129e8575b8086848154811061291557fe5b90600052602060002001541015612933578280600101935050612908565b5b85828154811061294057fe5b906000526020600020015481101561296057818060019003925050612934565b8183116129e35785828154811061297357fe5b906000526020600020015486848154811061298a57fe5b90600052602060002001548785815481106129a157fe5b9060005260206000200160008986815481106129b957fe5b90600052602060002001600084919050558391905055505082806001019350508180600190039250505b612900565b818510156129fc576129fb8686846128cc565b5b83831015612a1057612a0f8684866128cc565b5b505050505050565b6001600080848152602001908152602001600020600801541115612c47576000808260ff1667ffffffffffffffff81118015612a5357600080fd5b50604051908082528060200260200182016040528015612a825781602001602082028036833780820191505090505b50905060005b8360ff168160ff161015612aeb5760008086815260200190815260200160002060070160008260ff16815260200190815260200160002080549050828260ff1681518110612ad257fe5b6020026020010181815250508080600101915050612a88565b50612af581611427565b612afd6120a1565b60005b60018080549050038160ff161015612b9d576001805490506001820160ff161015612b905760018160ff1681548110612b3557fe5b9060005260206000200154600180830160ff1681548110612b5257fe5b90600052602060002001541415612b8f5760018160ff1681548110612b7357fe5b9060005260206000200154861415612b8e5782806001019350505b5b5b8080600101915050612b00565b5060008260ff161115612c1c576001600080868152602001908152602001600020600d0160006101000a81548160ff021916908315150217905550612c17846040518060400160405280601581526020017f6475706c6963617465732076616c696461746f7273000000000000000000000081525061259a565b612c40565b85600080868152602001908152602001600020600b0181905550612c3f84612c71565b5b5050612c6b565b83600080848152602001908152602001600020600b0181905550612c6a82612c71565b5b50505050565b50565b6040518060400160405280600073ffffffffffffffffffffffffffffffffffffffff168152602001600081525090565b828054828255906000526020600020908101928215612ce0579160200282015b82811115612cdf578251825591602001919060010190612cc4565b5b509050612ced9190612d21565b5090565b6040518060400160405280600073ffffffffffffffffffffffffffffffffffffffff168152602001600081525090565b5b80821115612d3a576000816000905550600101612d22565b509056fe5472616e736665722042545920746f6b656e7320666f722050524f206576656e74206572726f727573657220616c726561647920706172746963697061746520696e206576656e745265766572742042455420746f6b656e20746f20706c6179657273206973206572726f72546869732066756e6374696f6e20636f756c64206f6e6c7920626520657865637574656420627920746865206f776e6572a26469706673582212206f3bddf8862c2a9408d6a2dc9b4b5c44a9327f715687282c55ee1e8049e5967664736f6c63430007060033",
  "immutableReferences": {},
  "source": "// SPDX-License-Identifier: MIT\npragma solidity >=0.4.22 <0.9.0;\n\nimport {PubStruct} from \"../../struct/PubStruct.sol\";\nimport {TimeValidation} from \"../../helpers/TimeValidation.sol\";\nimport {BET} from \"../../tokens/BET.sol\";\nimport {BTY} from \"../../tokens/BTY.sol\";\nimport {FinishEvent} from \"./FinishEvent.sol\";\n\ncontract PublicEvents is\n    TimeValidation,\n    PubStruct,\n    FinishEvent\n{\n    address payable owner;\n\n    event calculateExpert(int256 id);\n\n    constructor(BET _betAddress, BTY _btyAddress) FinishEvent(_betAddress, _btyAddress)\n    {\n        owner = msg.sender;\n    }\n\n    function newEvent(\n        int256 _id,\n        uint256 _startTime,\n        uint256 _endTime,\n        uint8 _questAmount,\n        uint256 _amountExperts,\n        bool _calculateExperts,\n        address payable _host,\n        bool _premium,\n        uint256 _amountPremiumEvent\n    ) public payable ownerOnly() {\n        events[_id].id = _id;\n        events[_id].startTime = _startTime;\n        events[_id].endTime = _endTime;\n        events[_id].questAmount = _questAmount;\n        events[_id].amountExperts = _amountExperts;\n        events[_id].host = _host;\n        events[_id].calculateExperts = _calculateExperts;\n        events[_id].premium = _premium;\n\n        // TODO add Advisor\n        if (_premium) {\n            require(\n                btyToken.allowance(_host, address(this)) >= _amountPremiumEvent,\n                \"Allowance error\"\n            );\n            require(\n                btyToken.transferFrom(\n                    _host,\n                    address(this),\n                    _amountPremiumEvent\n                ),\n                \"Transfer BTY tokens for PRO event error\"\n            );\n        }\n    }\n\n    function setAnswer(\n        int256 _id,\n        uint8 _whichAnswer,\n        uint256 _amount,\n        address payable _playerWallet\n    ) public payable ownerOnly() {\n        require(\n            timeAnswer(events[_id].startTime, events[_id].endTime) == 0,\n            \"Time is not valid\"\n        );\n        require(events[_id].reverted, \"event is reverted\");\n        require(events[_id].eventFinish, \"event is finish\");\n        require(\n            events[_id].allPlayers[_playerWallet] == true,\n            \"user already participate in event\"\n        );\n\n        PubStruct.Player memory player;\n        // TODO add Referrers\n        player = PubStruct.Player(_playerWallet, _amount);\n        events[_id].players[_whichAnswer].push(player);\n        events[_id].allPlayers[_playerWallet] = true;\n        events[_id].activePlayers += 1;\n        events[_id].pool += _amount;\n\n        require(\n            betToken.allowance(_playerWallet, address(this)) >= _amount,\n            \"Allowance error\"\n        );\n        require(\n            betToken.transferFrom(_playerWallet, address(this), _amount),\n            \"Transfer BTY from players error\"\n        );\n    }\n\n    function setValidator(\n        int256 _id,\n        uint8 _whichAnswer,\n        address payable _expertWallet,\n        int256 rating\n    ) public payable ownerOnly() {\n        require(timeValidate(events[_id].endTime) == 0, \"Time is not valid\");\n        require(\n            events[_id].allPlayers[_expertWallet] == true,\n            \"user already participate in event\"\n        );\n        require(events[_id].reverted, \"event is reverted\");\n        require(events[_id].eventFinish, \"event is finish\");\n\n        if (events[_id].activePlayers == 0) {\n            events[_id].reverted = true;\n            emit revertedEvent(_id, \"do not have players on event\");\n        } else {\n            if (\n                events[_id].calculateExperts && events[_id].amountExperts == 0\n            ) {\n                emit calculateExpert(_id);\n            } else {\n                PubStruct.Expert memory expert;\n                expert = PubStruct.Expert(_expertWallet, rating);\n                events[_id].expert[_whichAnswer].push(expert);\n                uint256 active = events[_id].activeExperts + 1;\n                events[_id].activeExperts = active;\n\n                if (active == events[_id].amountExperts && events[_id].amountExperts > 0) {\n                    letsFindCorrectAnswer(_id);\n                }\n            }\n        }\n    }\n\n    function setActivePlayersFromOracl(uint256 _amount, int256 _id) public ownerOnly {\n        events[_id].amountExperts = _amount;\n    }\n\n}\n",
  "sourcePath": "/Users/macbook/Documents/freelance/tokenominc/contracts/events/PublicEvents/PublicEvents.sol",
  "compiler": {
    "name": "solc",
    "version": "0.7.6+commit.7338295f.Linux.g++"
  },
  "schemaVersion": "3.2.2",
  "updatedAt": "2021-02-24T17:07:32.426Z",
  "devdoc": {
    "kind": "dev",
    "methods": {},
    "version": 1
  },
  "userdoc": {
    "kind": "user",
    "methods": {},
    "version": 1
  }
}