{
  "contractName": "PublicEvents",
  "abi": [
    {
      "inputs": [
        {
          "internalType": "contract BET",
          "name": "_betAddress",
          "type": "address"
        },
        {
          "internalType": "contract BTY",
          "name": "_btyAddress",
          "type": "address"
        }
      ],
      "stateMutability": "nonpayable",
      "type": "constructor"
    },
    {
      "anonymous": false,
      "inputs": [
        {
          "indexed": false,
          "internalType": "int256",
          "name": "id",
          "type": "int256"
        },
        {
          "indexed": false,
          "internalType": "uint256",
          "name": "activePlayers",
          "type": "uint256"
        }
      ],
      "name": "calculateExpert",
      "type": "event"
    },
    {
      "anonymous": false,
      "inputs": [
        {
          "indexed": false,
          "internalType": "int256",
          "name": "id",
          "type": "int256"
        },
        {
          "indexed": false,
          "internalType": "uint256",
          "name": "tokens",
          "type": "uint256"
        },
        {
          "indexed": false,
          "internalType": "uint256",
          "name": "correctAnswer",
          "type": "uint256"
        }
      ],
      "name": "eventFinish",
      "type": "event"
    },
    {
      "anonymous": false,
      "inputs": [
        {
          "indexed": false,
          "internalType": "int256",
          "name": "id",
          "type": "int256"
        },
        {
          "indexed": false,
          "internalType": "string",
          "name": "purpose",
          "type": "string"
        }
      ],
      "name": "revertedEvent",
      "type": "event"
    },
    {
      "inputs": [],
      "name": "GFindex",
      "outputs": [
        {
          "internalType": "uint256",
          "name": "",
          "type": "uint256"
        }
      ],
      "stateMutability": "view",
      "type": "function"
    },
    {
      "inputs": [],
      "name": "GFrewards",
      "outputs": [
        {
          "internalType": "uint256",
          "name": "",
          "type": "uint256"
        }
      ],
      "stateMutability": "view",
      "type": "function"
    },
    {
      "inputs": [],
      "name": "advisorPepc",
      "outputs": [
        {
          "internalType": "uint256",
          "name": "",
          "type": "uint256"
        }
      ],
      "stateMutability": "view",
      "type": "function"
    },
    {
      "inputs": [],
      "name": "advisorPercMint",
      "outputs": [
        {
          "internalType": "uint256",
          "name": "",
          "type": "uint256"
        }
      ],
      "stateMutability": "view",
      "type": "function"
    },
    {
      "inputs": [],
      "name": "betToken",
      "outputs": [
        {
          "internalType": "contract BET",
          "name": "",
          "type": "address"
        }
      ],
      "stateMutability": "view",
      "type": "function"
    },
    {
      "inputs": [],
      "name": "btyToken",
      "outputs": [
        {
          "internalType": "contract BTY",
          "name": "",
          "type": "address"
        }
      ],
      "stateMutability": "view",
      "type": "function"
    },
    {
      "inputs": [],
      "name": "comMarketFundPerc",
      "outputs": [
        {
          "internalType": "uint256",
          "name": "",
          "type": "uint256"
        }
      ],
      "stateMutability": "view",
      "type": "function"
    },
    {
      "inputs": [],
      "name": "comMarketFundWallet",
      "outputs": [
        {
          "internalType": "address payable",
          "name": "",
          "type": "address"
        }
      ],
      "stateMutability": "view",
      "type": "function"
    },
    {
      "inputs": [],
      "name": "developFundPerc",
      "outputs": [
        {
          "internalType": "uint256",
          "name": "",
          "type": "uint256"
        }
      ],
      "stateMutability": "view",
      "type": "function"
    },
    {
      "inputs": [],
      "name": "developFundPercPremim",
      "outputs": [
        {
          "internalType": "uint256",
          "name": "",
          "type": "uint256"
        }
      ],
      "stateMutability": "view",
      "type": "function"
    },
    {
      "inputs": [],
      "name": "expertExtraPerc",
      "outputs": [
        {
          "internalType": "uint256",
          "name": "",
          "type": "uint256"
        }
      ],
      "stateMutability": "view",
      "type": "function"
    },
    {
      "inputs": [],
      "name": "expertPerc",
      "outputs": [
        {
          "internalType": "uint256",
          "name": "",
          "type": "uint256"
        }
      ],
      "stateMutability": "view",
      "type": "function"
    },
    {
      "inputs": [],
      "name": "expertPercMint",
      "outputs": [
        {
          "internalType": "uint256",
          "name": "",
          "type": "uint256"
        }
      ],
      "stateMutability": "view",
      "type": "function"
    },
    {
      "inputs": [],
      "name": "expertPremiumPerc",
      "outputs": [
        {
          "internalType": "uint256",
          "name": "",
          "type": "uint256"
        }
      ],
      "stateMutability": "view",
      "type": "function"
    },
    {
      "inputs": [],
      "name": "extraHostPerc",
      "outputs": [
        {
          "internalType": "uint256",
          "name": "",
          "type": "uint256"
        }
      ],
      "stateMutability": "view",
      "type": "function"
    },
    {
      "inputs": [],
      "name": "extraHostPercMint",
      "outputs": [
        {
          "internalType": "uint256",
          "name": "",
          "type": "uint256"
        }
      ],
      "stateMutability": "view",
      "type": "function"
    },
    {
      "inputs": [],
      "name": "firstWithdrawIndex",
      "outputs": [
        {
          "internalType": "uint256",
          "name": "",
          "type": "uint256"
        }
      ],
      "stateMutability": "view",
      "type": "function"
    },
    {
      "inputs": [],
      "name": "getFirstWithdraw",
      "outputs": [
        {
          "internalType": "uint256",
          "name": "",
          "type": "uint256"
        }
      ],
      "stateMutability": "view",
      "type": "function"
    },
    {
      "inputs": [
        {
          "internalType": "uint256",
          "name": "_percent",
          "type": "uint256"
        },
        {
          "internalType": "uint256",
          "name": "_from",
          "type": "uint256"
        }
      ],
      "name": "getPercent",
      "outputs": [
        {
          "internalType": "uint256",
          "name": "",
          "type": "uint256"
        }
      ],
      "stateMutability": "pure",
      "type": "function"
    },
    {
      "inputs": [],
      "name": "hostPerc",
      "outputs": [
        {
          "internalType": "uint256",
          "name": "",
          "type": "uint256"
        }
      ],
      "stateMutability": "view",
      "type": "function"
    },
    {
      "inputs": [],
      "name": "hostPercMint",
      "outputs": [
        {
          "internalType": "uint256",
          "name": "",
          "type": "uint256"
        }
      ],
      "stateMutability": "view",
      "type": "function"
    },
    {
      "inputs": [
        {
          "internalType": "int256",
          "name": "_id",
          "type": "int256"
        }
      ],
      "name": "letsFindCorrectAnswer",
      "outputs": [],
      "stateMutability": "nonpayable",
      "type": "function"
    },
    {
      "inputs": [
        {
          "internalType": "int256",
          "name": "_id",
          "type": "int256"
        },
        {
          "internalType": "uint256",
          "name": "_tokens",
          "type": "uint256"
        }
      ],
      "name": "letsFinishEvent",
      "outputs": [],
      "stateMutability": "nonpayable",
      "type": "function"
    },
    {
      "inputs": [],
      "name": "moderatorsFundPerc",
      "outputs": [
        {
          "internalType": "uint256",
          "name": "",
          "type": "uint256"
        }
      ],
      "stateMutability": "view",
      "type": "function"
    },
    {
      "inputs": [],
      "name": "moderatorsFundWallet",
      "outputs": [
        {
          "internalType": "address payable",
          "name": "",
          "type": "address"
        }
      ],
      "stateMutability": "view",
      "type": "function"
    },
    {
      "inputs": [],
      "name": "owner",
      "outputs": [
        {
          "internalType": "address payable",
          "name": "",
          "type": "address"
        }
      ],
      "stateMutability": "view",
      "type": "function"
    },
    {
      "inputs": [],
      "name": "playerPers",
      "outputs": [
        {
          "internalType": "uint256",
          "name": "",
          "type": "uint256"
        }
      ],
      "stateMutability": "view",
      "type": "function"
    },
    {
      "inputs": [
        {
          "internalType": "int256",
          "name": "_id",
          "type": "int256"
        },
        {
          "internalType": "string",
          "name": "purpose",
          "type": "string"
        }
      ],
      "name": "revertedPayment",
      "outputs": [],
      "stateMutability": "nonpayable",
      "type": "function"
    },
    {
      "inputs": [
        {
          "internalType": "uint256",
          "name": "_developFundPerc",
          "type": "uint256"
        }
      ],
      "name": "setDevelopFundPerc",
      "outputs": [],
      "stateMutability": "nonpayable",
      "type": "function"
    },
    {
      "inputs": [
        {
          "internalType": "uint256",
          "name": "_expertPerc",
          "type": "uint256"
        }
      ],
      "name": "setExpertPerc",
      "outputs": [],
      "stateMutability": "nonpayable",
      "type": "function"
    },
    {
      "inputs": [
        {
          "internalType": "uint256",
          "name": "_firstWithdrawIndex",
          "type": "uint256"
        }
      ],
      "name": "setFirstWithdraw",
      "outputs": [],
      "stateMutability": "nonpayable",
      "type": "function"
    },
    {
      "inputs": [
        {
          "internalType": "uint256",
          "name": "_GFindex",
          "type": "uint256"
        }
      ],
      "name": "setGFindex",
      "outputs": [],
      "stateMutability": "nonpayable",
      "type": "function"
    },
    {
      "inputs": [
        {
          "internalType": "uint256",
          "name": "_GFrewards",
          "type": "uint256"
        }
      ],
      "name": "setGFrewards",
      "outputs": [],
      "stateMutability": "nonpayable",
      "type": "function"
    },
    {
      "inputs": [
        {
          "internalType": "uint256",
          "name": "_hostPercMint",
          "type": "uint256"
        },
        {
          "internalType": "uint256",
          "name": "_hostPerc",
          "type": "uint256"
        }
      ],
      "name": "setHostPerc",
      "outputs": [],
      "stateMutability": "nonpayable",
      "type": "function"
    },
    {
      "inputs": [
        {
          "internalType": "uint256",
          "name": "_playerPers",
          "type": "uint256"
        }
      ],
      "name": "setPlayerPers",
      "outputs": [],
      "stateMutability": "nonpayable",
      "type": "function"
    },
    {
      "inputs": [
        {
          "internalType": "uint256",
          "name": "_welcomeBTYTokens",
          "type": "uint256"
        }
      ],
      "name": "setWelcomeBTYTokens",
      "outputs": [],
      "stateMutability": "nonpayable",
      "type": "function"
    },
    {
      "inputs": [
        {
          "internalType": "uint256",
          "name": "_startTime",
          "type": "uint256"
        },
        {
          "internalType": "uint256",
          "name": "_endTime",
          "type": "uint256"
        }
      ],
      "name": "timeAnswer",
      "outputs": [
        {
          "internalType": "int8",
          "name": "",
          "type": "int8"
        }
      ],
      "stateMutability": "view",
      "type": "function"
    },
    {
      "inputs": [
        {
          "internalType": "uint256",
          "name": "_endTime",
          "type": "uint256"
        }
      ],
      "name": "timeValidate",
      "outputs": [
        {
          "internalType": "int8",
          "name": "",
          "type": "int8"
        }
      ],
      "stateMutability": "view",
      "type": "function"
    },
    {
      "inputs": [],
      "name": "welcomeBTYTokens",
      "outputs": [
        {
          "internalType": "uint256",
          "name": "",
          "type": "uint256"
        }
      ],
      "stateMutability": "view",
      "type": "function"
    },
    {
      "inputs": [
        {
          "internalType": "int256",
          "name": "_id",
          "type": "int256"
        },
        {
          "internalType": "uint256",
          "name": "_startTime",
          "type": "uint256"
        },
        {
          "internalType": "uint256",
          "name": "_endTime",
          "type": "uint256"
        },
        {
          "internalType": "uint8",
          "name": "_questAmount",
          "type": "uint8"
        },
        {
          "internalType": "uint256",
          "name": "_amountExperts",
          "type": "uint256"
        },
        {
          "internalType": "bool",
          "name": "_calculateExperts",
          "type": "bool"
        },
        {
          "internalType": "address payable",
          "name": "_host",
          "type": "address"
        },
        {
          "internalType": "bool",
          "name": "_premium",
          "type": "bool"
        },
        {
          "internalType": "uint256",
          "name": "_amountPremiumEvent",
          "type": "uint256"
        }
      ],
      "name": "newEvent",
      "outputs": [],
      "stateMutability": "payable",
      "type": "function"
    },
    {
      "inputs": [
        {
          "internalType": "address payable",
          "name": "_advisor",
          "type": "address"
        },
        {
          "internalType": "int256",
          "name": "_id",
          "type": "int256"
        }
      ],
      "name": "addAdvisor",
      "outputs": [],
      "stateMutability": "nonpayable",
      "type": "function"
    },
    {
      "inputs": [
        {
          "internalType": "int256",
          "name": "_id",
          "type": "int256"
        },
        {
          "internalType": "uint8",
          "name": "_whichAnswer",
          "type": "uint8"
        },
        {
          "internalType": "uint256",
          "name": "_amount",
          "type": "uint256"
        },
        {
          "internalType": "address payable",
          "name": "_playerWallet",
          "type": "address"
        },
        {
          "internalType": "int256",
          "name": "_playerId",
          "type": "int256"
        },
        {
          "internalType": "uint8",
          "name": "_referrersDeep",
          "type": "uint8"
        }
      ],
      "name": "setAnswer",
      "outputs": [],
      "stateMutability": "payable",
      "type": "function"
    },
    {
      "inputs": [
        {
          "internalType": "string",
          "name": "_key",
          "type": "string"
        },
        {
          "internalType": "address payable[]",
          "name": "_referrers",
          "type": "address[]"
        }
      ],
      "name": "setReferrers",
      "outputs": [],
      "stateMutability": "nonpayable",
      "type": "function"
    },
    {
      "inputs": [
        {
          "internalType": "int256",
          "name": "_id",
          "type": "int256"
        },
        {
          "internalType": "uint8",
          "name": "_whichAnswer",
          "type": "uint8"
        },
        {
          "internalType": "address payable",
          "name": "_expertWallet",
          "type": "address"
        },
        {
          "internalType": "int256",
          "name": "_reputation",
          "type": "int256"
        }
      ],
      "name": "setValidator",
      "outputs": [],
      "stateMutability": "payable",
      "type": "function"
    },
    {
      "inputs": [
        {
          "internalType": "uint256",
          "name": "_amount",
          "type": "uint256"
        },
        {
          "internalType": "int256",
          "name": "_id",
          "type": "int256"
        }
      ],
      "name": "setActiveExpertsFromOracl",
      "outputs": [],
      "stateMutability": "nonpayable",
      "type": "function"
    }
  ],
  "bytecode": "0x6080604052600a600255600a600355600a6004556004600555600a60065560046007556002600855600f6009556002600a556001600b556001600c556001600d55600a600f5568056bc75e2d631000006010556001601155678ac7230489e8000060125560056015556002601755662386f26fc10000601a5534801561008457600080fd5b5060405162004f0738038062004f07833981810160405260408110156100a957600080fd5b810190808051906020019092919080519060200190929190505050818133601360006101000a81548173ffffffffffffffffffffffffffffffffffffffff021916908373ffffffffffffffffffffffffffffffffffffffff16021790555081601860006101000a81548173ffffffffffffffffffffffffffffffffffffffff021916908373ffffffffffffffffffffffffffffffffffffffff16021790555080601960006101000a81548173ffffffffffffffffffffffffffffffffffffffff021916908373ffffffffffffffffffffffffffffffffffffffff16021790555050505050614d6a806200019d6000396000f3fe6080604052600436106102725760003560e01c80638bd6aefb1161014f578063ce44553c116100c1578063e1aea5231161007a578063e1aea52314610d3d578063e1dcc40914610d78578063e787218314610da3578063e79f365d14610dfc578063ef99e09914610e37578063f7ec585114610e6257610272565b8063ce44553c14610c01578063d7a86da714610c46578063dba8fe8714610c81578063dd3c228314610cac578063df18581714610ce7578063e1755c6a14610d1257610272565b8063af9ace4511610113578063af9ace4514610ad5578063b1642b5014610b00578063b44901e814610b45578063c12c8c4614610b70578063c369085e14610b9b578063cd09508514610bd657610272565b80638bd6aefb146109775780638da5cb5b146109f35780638fc8bc4214610a345780639580de6714610a5f578063a03c669714610a9a57610272565b806353bdb062116101e857806378691f16116101ac57806378691f161461079e5780637dbb9dfa146107df578063802cc34c1461087b57806388d9dd49146108bc578063896aa7a4146109215780638a9dbda71461094c57610272565b806353bdb062146105bf57806354f6db741461061a57806355e8415814610676578063769c4898146106a1578063786508c51461077357610272565b806324beedd31161023a57806324beedd3146104775780632c316d05146104a25780632e63e452146104cd5780633467f697146104f85780634a30062b14610539578063506d05cf1461057e57610272565b806315cfe419146102775780631882efe0146102a257806319d6b7d8146103bf5780631c408357146103fa578063246fe64714610425575b600080fd5b34801561028357600080fd5b5061028c610e8d565b6040518082815260200191505060405180910390f35b3480156102ae57600080fd5b506103bd600480360360408110156102c557600080fd5b81019080803590602001906401000000008111156102e257600080fd5b8201836020820111156102f457600080fd5b8035906020019184600183028401116401000000008311171561031657600080fd5b91908080601f016020809104026020016040519081016040528093929190818152602001838380828437600081840152601f19601f8201169050808301925050505050505091929192908035906020019064010000000081111561037957600080fd5b82018360208201111561038b57600080fd5b803590602001918460208302840111640100000000831117156103ad57600080fd5b9091929391929390505050610e93565b005b3480156103cb57600080fd5b506103f8600480360360208110156103e257600080fd5b8101908080359060200190929190505050610fba565b005b34801561040657600080fd5b5061040f61106a565b6040518082815260200191505060405180910390f35b34801561043157600080fd5b5061045e6004803603602081101561044857600080fd5b8101908080359060200190929190505050611070565b604051808260000b815260200191505060405180910390f35b34801561048357600080fd5b5061048c61108e565b6040518082815260200191505060405180910390f35b3480156104ae57600080fd5b506104b7611094565b6040518082815260200191505060405180910390f35b3480156104d957600080fd5b506104e261109a565b6040518082815260200191505060405180910390f35b34801561050457600080fd5b5061050d6110a0565b604051808273ffffffffffffffffffffffffffffffffffffffff16815260200191505060405180910390f35b34801561054557600080fd5b5061057c6004803603604081101561055c57600080fd5b8101908080359060200190929190803590602001909291905050506110c6565b005b34801561058a57600080fd5b5061059361118a565b604051808273ffffffffffffffffffffffffffffffffffffffff16815260200191505060405180910390f35b3480156105cb57600080fd5b50610618600480360360408110156105e257600080fd5b81019080803573ffffffffffffffffffffffffffffffffffffffff169060200190929190803590602001909291905050506111b0565b005b34801561062657600080fd5b5061065d6004803603604081101561063d57600080fd5b8101908080359060200190929190803590602001909291905050506112ae565b604051808260000b815260200191505060405180910390f35b34801561068257600080fd5b5061068b6112e0565b6040518082815260200191505060405180910390f35b3480156106ad57600080fd5b50610771600480360360408110156106c457600080fd5b8101908080359060200190929190803590602001906401000000008111156106eb57600080fd5b8201836020820111156106fd57600080fd5b8035906020019184600183028401116401000000008311171561071f57600080fd5b91908080601f016020809104026020016040519081016040528093929190818152602001838380828437600081840152601f19601f8201169050808301925050505050505091929192905050506112e6565b005b34801561077f57600080fd5b5061078861139a565b6040518082815260200191505060405180910390f35b3480156107aa57600080fd5b506107b36113a0565b604051808273ffffffffffffffffffffffffffffffffffffffff16815260200191505060405180910390f35b61087960048036036101208110156107f657600080fd5b81019080803590602001909291908035906020019092919080359060200190929190803560ff16906020019092919080359060200190929190803515159060200190929190803573ffffffffffffffffffffffffffffffffffffffff169060200190929190803515159060200190929190803590602001909291905050506113c6565b005b34801561088757600080fd5b5061089061185a565b604051808273ffffffffffffffffffffffffffffffffffffffff16815260200191505060405180910390f35b61091f600480360360808110156108d257600080fd5b8101908080359060200190929190803560ff169060200190929190803573ffffffffffffffffffffffffffffffffffffffff16906020019092919080359060200190929190505050611880565b005b34801561092d57600080fd5b50610936611e7a565b6040518082815260200191505060405180910390f35b34801561095857600080fd5b50610961611e80565b6040518082815260200191505060405180910390f35b6109f1600480360360c081101561098d57600080fd5b8101908080359060200190929190803560ff16906020019092919080359060200190929190803573ffffffffffffffffffffffffffffffffffffffff16906020019092919080359060200190929190803560ff169060200190929190505050611e86565b005b3480156109ff57600080fd5b50610a086126af565b604051808273ffffffffffffffffffffffffffffffffffffffff16815260200191505060405180910390f35b348015610a4057600080fd5b50610a496126d5565b6040518082815260200191505060405180910390f35b348015610a6b57600080fd5b50610a9860048036036020811015610a8257600080fd5b81019080803590602001909291905050506126db565b005b348015610aa657600080fd5b50610ad360048036036020811015610abd57600080fd5b810190808035906020019092919050505061278b565b005b348015610ae157600080fd5b50610aea61283b565b6040518082815260200191505060405180910390f35b348015610b0c57600080fd5b50610b4360048036036040811015610b2357600080fd5b810190808035906020019092919080359060200190929190505050612841565b005b348015610b5157600080fd5b50610b5a6128f9565b6040518082815260200191505060405180910390f35b348015610b7c57600080fd5b50610b856128ff565b6040518082815260200191505060405180910390f35b348015610ba757600080fd5b50610bd460048036036020811015610bbe57600080fd5b8101908080359060200190929190505050612905565b005b348015610be257600080fd5b50610beb6129b5565b6040518082815260200191505060405180910390f35b348015610c0d57600080fd5b50610c4460048036036040811015610c2457600080fd5b8101908080359060200190929190803590602001909291905050506129bb565b005b348015610c5257600080fd5b50610c7f60048036036020811015610c6957600080fd5b81019080803590602001909291905050506130d8565b005b348015610c8d57600080fd5b50610c96613188565b6040518082815260200191505060405180910390f35b348015610cb857600080fd5b50610ce560048036036020811015610ccf57600080fd5b810190808035906020019092919050505061318e565b005b348015610cf357600080fd5b50610cfc61323e565b6040518082815260200191505060405180910390f35b348015610d1e57600080fd5b50610d27613244565b6040518082815260200191505060405180910390f35b348015610d4957600080fd5b50610d7660048036036020811015610d6057600080fd5b810190808035906020019092919050505061324a565b005b348015610d8457600080fd5b50610d8d6132fa565b6040518082815260200191505060405180910390f35b348015610daf57600080fd5b50610de660048036036040811015610dc657600080fd5b810190808035906020019092919080359060200190929190505050613300565b6040518082815260200191505060405180910390f35b348015610e0857600080fd5b50610e3560048036036020811015610e1f57600080fd5b8101908080359060200190929190505050613317565b005b348015610e4357600080fd5b50610e4c6134d8565b6040518082815260200191505060405180910390f35b348015610e6e57600080fd5b50610e776134e6565b6040518082815260200191505060405180910390f35b60115481565b601360009054906101000a900473ffffffffffffffffffffffffffffffffffffffff1673ffffffffffffffffffffffffffffffffffffffff163373ffffffffffffffffffffffffffffffffffffffff1614610f39576040517f08c379a0000000000000000000000000000000000000000000000000000000008152600401808060200182810382526031815260200180614d046031913960400191505060405180910390fd5b81816001856040518082805190602001908083835b60208310610f715780518252602082019150602081019050602083039250610f4e565b6001836020036101000a03801982511681845116808217855250505050505090500191505090815260200160405180910390206000019190610fb4929190614ac3565b50505050565b601360009054906101000a900473ffffffffffffffffffffffffffffffffffffffff1673ffffffffffffffffffffffffffffffffffffffff163373ffffffffffffffffffffffffffffffffffffffff1614611060576040517f08c379a0000000000000000000000000000000000000000000000000000000008152600401808060200182810382526031815260200180614d046031913960400191505060405180910390fd5b8060128190555050565b60025481565b600080824203126110845760009050611089565b600190505b919050565b60175481565b60085481565b60125481565b601660009054906101000a900473ffffffffffffffffffffffffffffffffffffffff1681565b601360009054906101000a900473ffffffffffffffffffffffffffffffffffffffff1673ffffffffffffffffffffffffffffffffffffffff163373ffffffffffffffffffffffffffffffffffffffff161461116c576040517f08c379a0000000000000000000000000000000000000000000000000000000008152600401808060200182810382526031815260200180614d046031913960400191505060405180910390fd5b81600080838152602001908152602001600020600901819055505050565b601960009054906101000a900473ffffffffffffffffffffffffffffffffffffffff1681565b601360009054906101000a900473ffffffffffffffffffffffffffffffffffffffff1673ffffffffffffffffffffffffffffffffffffffff163373ffffffffffffffffffffffffffffffffffffffff1614611256576040517f08c379a0000000000000000000000000000000000000000000000000000000008152600401808060200182810382526031815260200180614d046031913960400191505060405180910390fd5b81600080838152602001908152602001600020600b0160006101000a81548173ffffffffffffffffffffffffffffffffffffffff021916908373ffffffffffffffffffffffffffffffffffffffff1602179055505050565b600080834203126112d5576000428303126112cc57600090506112da565b600290506112da565b600190505b92915050565b600d5481565b601360009054906101000a900473ffffffffffffffffffffffffffffffffffffffff1673ffffffffffffffffffffffffffffffffffffffff163373ffffffffffffffffffffffffffffffffffffffff161461138c576040517f08c379a0000000000000000000000000000000000000000000000000000000008152600401808060200182810382526031815260200180614d046031913960400191505060405180910390fd5b61139682826134ec565b5050565b600b5481565b601860009054906101000a900473ffffffffffffffffffffffffffffffffffffffff1681565b601360009054906101000a900473ffffffffffffffffffffffffffffffffffffffff1673ffffffffffffffffffffffffffffffffffffffff163373ffffffffffffffffffffffffffffffffffffffff161461146c576040517f08c379a0000000000000000000000000000000000000000000000000000000008152600401808060200182810382526031815260200180614d046031913960400191505060405180910390fd5b886000808b815260200190815260200160002060000181905550876000808b815260200190815260200160002060010181905550866000808b815260200190815260200160002060020181905550856000808b815260200190815260200160002060030160006101000a81548160ff021916908360ff160217905550846000808b815260200190815260200160002060090181905550826000808b8152602001908152602001600020600a0160016101000a81548173ffffffffffffffffffffffffffffffffffffffff021916908373ffffffffffffffffffffffffffffffffffffffff160217905550836000808b8152602001908152602001600020600a0160006101000a81548160ff021916908315150217905550816000808b8152602001908152602001600020600f0160016101000a81548160ff021916908315150217905550811561184f5780601960009054906101000a900473ffffffffffffffffffffffffffffffffffffffff1673ffffffffffffffffffffffffffffffffffffffff1663dd62ed3e85306040518363ffffffff1660e01b8152600401808373ffffffffffffffffffffffffffffffffffffffff1681526020018273ffffffffffffffffffffffffffffffffffffffff1681526020019250505060206040518083038186803b15801561165e57600080fd5b505afa158015611672573d6000803e3d6000fd5b505050506040513d602081101561168857600080fd5b8101908080519060200190929190505050101561170d576040517f08c379a000000000000000000000000000000000000000000000000000000000815260040180806020018281038252600f8152602001807f416c6c6f77616e6365206572726f72000000000000000000000000000000000081525060200191505060405180910390fd5b601960009054906101000a900473ffffffffffffffffffffffffffffffffffffffff1673ffffffffffffffffffffffffffffffffffffffff166323b872dd8430846040518463ffffffff1660e01b8152600401808473ffffffffffffffffffffffffffffffffffffffff1681526020018373ffffffffffffffffffffffffffffffffffffffff1681526020018281526020019350505050602060405180830381600087803b1580156117be57600080fd5b505af11580156117d2573d6000803e3d6000fd5b505050506040513d60208110156117e857600080fd5b810190808051906020019092919050505061184e576040517f08c379a0000000000000000000000000000000000000000000000000000000008152600401808060200182810382526027815260200180614bf26027913960400191505060405180910390fd5b5b505050505050505050565b601460009054906101000a900473ffffffffffffffffffffffffffffffffffffffff1681565b601360009054906101000a900473ffffffffffffffffffffffffffffffffffffffff1673ffffffffffffffffffffffffffffffffffffffff163373ffffffffffffffffffffffffffffffffffffffff1614611926576040517f08c379a0000000000000000000000000000000000000000000000000000000008152600401808060200182810382526031815260200180614d046031913960400191505060405180910390fd5b600061194660008087815260200190815260200160002060020154611070565b60000b146119bc576040517f08c379a00000000000000000000000000000000000000000000000000000000081526004018080602001828103825260118152602001807f54696d65206973206e6f742076616c696400000000000000000000000000000081525060200191505060405180910390fd5b6001151560008086815260200190815260200160002060050160008473ffffffffffffffffffffffffffffffffffffffff1673ffffffffffffffffffffffffffffffffffffffff16815260200190815260200160002060009054906101000a900460ff1615151415611a79576040517f08c379a0000000000000000000000000000000000000000000000000000000008152600401808060200182810382526021815260200180614c196021913960400191505060405180910390fd5b60011515600080868152602001908152602001600020600f0160009054906101000a900460ff1615151415611b16576040517f08c379a00000000000000000000000000000000000000000000000000000000081526004018080602001828103825260118152602001807f6576656e7420697320726576657274656400000000000000000000000000000081525060200191505060405180910390fd5b6001151560008086815260200190815260200160002060110160009054906101000a900460ff1615151415611bb3576040517f08c379a000000000000000000000000000000000000000000000000000000000815260040180806020018281038252600f8152602001807f6576656e742069732066696e697368000000000000000000000000000000000081525060200191505060405180910390fd5b6000806000868152602001908152602001600020600601541415611c74576001600080868152602001908152602001600020600f0160006101000a81548160ff0219169083151502179055507f847521552ad126e64c52b14640c804737bd67f2b6674309b332d1e5b17f857d18460405180828152602001806020018281038252601c8152602001807f646f206e6f74206861766520706c6179657273206f6e206576656e74000000008152506020019250505060405180910390a1611e74565b600080858152602001908152602001600020600a0160009054906101000a900460ff168015611cb85750600080600086815260200190815260200160002060090154145b15611d16577f7d056f7ad1cec2447e1046080437b34a925f7ddd6099486d01c4e0e01bd51a8c8460008087815260200190815260200160002060060154604051808381526020018281526020019250505060405180910390a1611e73565b611d1e614b63565b60405180604001604052808473ffffffffffffffffffffffffffffffffffffffff16815260200183815250905060008086815260200190815260200160002060070160008560ff16815260200190815260200160002081908060018154018082558091505060019003906000526020600020906002020160009091909190915060008201518160000160006101000a81548173ffffffffffffffffffffffffffffffffffffffff021916908373ffffffffffffffffffffffffffffffffffffffff160217905550602082015181600101555050600060016000808881526020019081526020016000206008015401905080600080888152602001908152602001600020600801819055506000808781526020019081526020016000206009015481148015611e615750600080600088815260200190815260200160002060090154115b15611e7057611e6f86613317565b5b50505b5b50505050565b60075481565b60045481565b601360009054906101000a900473ffffffffffffffffffffffffffffffffffffffff1673ffffffffffffffffffffffffffffffffffffffff163373ffffffffffffffffffffffffffffffffffffffff1614611f2c576040517f08c379a0000000000000000000000000000000000000000000000000000000008152600401808060200182810382526031815260200180614d046031913960400191505060405180910390fd5b6000611f62600080898152602001908152602001600020600101546000808a8152602001908152602001600020600201546112ae565b60000b14611fd8576040517f08c379a00000000000000000000000000000000000000000000000000000000081526004018080602001828103825260118152602001807f54696d65206973206e6f742076616c696400000000000000000000000000000081525060200191505060405180910390fd5b60011515600080888152602001908152602001600020600f0160009054906101000a900460ff1615151415612075576040517f08c379a00000000000000000000000000000000000000000000000000000000081526004018080602001828103825260118152602001807f6576656e7420697320726576657274656400000000000000000000000000000081525060200191505060405180910390fd5b6001151560008088815260200190815260200160002060110160009054906101000a900460ff1615151415612112576040517f08c379a000000000000000000000000000000000000000000000000000000000815260040180806020018281038252600f8152602001807f6576656e742069732066696e697368000000000000000000000000000000000081525060200191505060405180910390fd5b6001151560008088815260200190815260200160002060050160008573ffffffffffffffffffffffffffffffffffffffff1673ffffffffffffffffffffffffffffffffffffffff16815260200190815260200160002060009054906101000a900460ff16151514156121cf576040517f08c379a0000000000000000000000000000000000000000000000000000000008152600401808060200182810382526021815260200180614c196021913960400191505060405180910390fd5b601a5484101561222a576040517f08c379a0000000000000000000000000000000000000000000000000000000008152600401808060200182810382526031815260200180614c836031913960400191505060405180910390fd5b612232614b93565b60405180608001604052808481526020018573ffffffffffffffffffffffffffffffffffffffff1681526020018681526020018360ff16815250905060008088815260200190815260200160002060040160008760ff1681526020019081526020016000208190806001815401808255809150506001900390600052602060002090600402016000909190919091506000820151816000015560208201518160010160006101000a81548173ffffffffffffffffffffffffffffffffffffffff021916908373ffffffffffffffffffffffffffffffffffffffff1602179055506040820151816002015560608201518160030160006101000a81548160ff021916908360ff1602179055505050600160008089815260200190815260200160002060050160008673ffffffffffffffffffffffffffffffffffffffff1673ffffffffffffffffffffffffffffffffffffffff16815260200190815260200160002060006101000a81548160ff02191690831515021790555060016000808981526020019081526020016000206006016000828254019250508190555084600080898152602001908152602001600020600d016000828254019250508190555084601860009054906101000a900473ffffffffffffffffffffffffffffffffffffffff1673ffffffffffffffffffffffffffffffffffffffff1663dd62ed3e86306040518363ffffffff1660e01b8152600401808373ffffffffffffffffffffffffffffffffffffffff1681526020018273ffffffffffffffffffffffffffffffffffffffff1681526020019250505060206040518083038186803b15801561249957600080fd5b505afa1580156124ad573d6000803e3d6000fd5b505050506040513d60208110156124c357600080fd5b81019080805190602001909291905050501015612548576040517f08c379a000000000000000000000000000000000000000000000000000000000815260040180806020018281038252600f8152602001807f416c6c6f77616e6365206572726f72000000000000000000000000000000000081525060200191505060405180910390fd5b601860009054906101000a900473ffffffffffffffffffffffffffffffffffffffff1673ffffffffffffffffffffffffffffffffffffffff166323b872dd8530886040518463ffffffff1660e01b8152600401808473ffffffffffffffffffffffffffffffffffffffff1681526020018373ffffffffffffffffffffffffffffffffffffffff1681526020018281526020019350505050602060405180830381600087803b1580156125f957600080fd5b505af115801561260d573d6000803e3d6000fd5b505050506040513d602081101561262357600080fd5b81019080805190602001909291905050506126a6576040517f08c379a000000000000000000000000000000000000000000000000000000000815260040180806020018281038252601f8152602001807f5472616e73666572204254592066726f6d20706c6179657273206572726f720081525060200191505060405180910390fd5b50505050505050565b601360009054906101000a900473ffffffffffffffffffffffffffffffffffffffff1681565b60055481565b601360009054906101000a900473ffffffffffffffffffffffffffffffffffffffff1673ffffffffffffffffffffffffffffffffffffffff163373ffffffffffffffffffffffffffffffffffffffff1614612781576040517f08c379a0000000000000000000000000000000000000000000000000000000008152600401808060200182810382526031815260200180614d046031913960400191505060405180910390fd5b8060078190555050565b601360009054906101000a900473ffffffffffffffffffffffffffffffffffffffff1673ffffffffffffffffffffffffffffffffffffffff163373ffffffffffffffffffffffffffffffffffffffff1614612831576040517f08c379a0000000000000000000000000000000000000000000000000000000008152600401808060200182810382526031815260200180614d046031913960400191505060405180910390fd5b80600f8190555050565b60065481565b601360009054906101000a900473ffffffffffffffffffffffffffffffffffffffff1673ffffffffffffffffffffffffffffffffffffffff163373ffffffffffffffffffffffffffffffffffffffff16146128e7576040517f08c379a0000000000000000000000000000000000000000000000000000000008152600401808060200182810382526031815260200180614d046031913960400191505060405180910390fd5b81600481905550806005819055505050565b600f5481565b600c5481565b601360009054906101000a900473ffffffffffffffffffffffffffffffffffffffff1673ffffffffffffffffffffffffffffffffffffffff163373ffffffffffffffffffffffffffffffffffffffff16146129ab576040517f08c379a0000000000000000000000000000000000000000000000000000000008152600401808060200182810382526031815260200180614d046031913960400191505060405180910390fd5b8060118190555050565b600e5481565b601360009054906101000a900473ffffffffffffffffffffffffffffffffffffffff1673ffffffffffffffffffffffffffffffffffffffff163373ffffffffffffffffffffffffffffffffffffffff1614612a61576040517f08c379a0000000000000000000000000000000000000000000000000000000008152600401808060200182810382526031815260200180614d046031913960400191505060405180910390fd5b80600080848152602001908152602001600020600e01819055506000612a8982600254613300565b9050601860009054906101000a900473ffffffffffffffffffffffffffffffffffffffff1673ffffffffffffffffffffffffffffffffffffffff1663341ce1fc601360009054906101000a900473ffffffffffffffffffffffffffffffffffffffff16836040518363ffffffff1660e01b8152600401808373ffffffffffffffffffffffffffffffffffffffff16815260200182815260200192505050602060405180830381600087803b158015612b4057600080fd5b505af1158015612b54573d6000803e3d6000fd5b505050506040513d6020811015612b6a57600080fd5b8101908080519060200190929190505050612bed576040517f08c379a000000000000000000000000000000000000000000000000000000000815260040180806020018281038252601e8152602001807f4d696e7420746f20446576656c6f706d656e742046756e64206572726f72000081525060200191505060405180910390fd5b600080848152602001908152602001600020600f0160019054906101000a900460ff1615612d81576000612c3860008086815260200190815260200160002060100154600354613300565b9050601960009054906101000a900473ffffffffffffffffffffffffffffffffffffffff1673ffffffffffffffffffffffffffffffffffffffff1663a9059cbb601360009054906101000a900473ffffffffffffffffffffffffffffffffffffffff16836040518363ffffffff1660e01b8152600401808373ffffffffffffffffffffffffffffffffffffffff16815260200182815260200192505050602060405180830381600087803b158015612cef57600080fd5b505af1158015612d03573d6000803e3d6000fd5b505050506040513d6020811015612d1957600080fd5b8101908080519060200190929190505050612d7f576040517f08c379a000000000000000000000000000000000000000000000000000000000815260040180806020018281038252602c815260200180614cd8602c913960400191505060405180910390fd5b505b60008073ffffffffffffffffffffffffffffffffffffffff16600080868152602001908152602001600020600b0160009054906101000a900473ffffffffffffffffffffffffffffffffffffffff1673ffffffffffffffffffffffffffffffffffffffff161415612dfc57600a54600d546015540101612e00565b6015545b90506000612e0e8483613300565b9050601860009054906101000a900473ffffffffffffffffffffffffffffffffffffffff1673ffffffffffffffffffffffffffffffffffffffff1663341ce1fc601460009054906101000a900473ffffffffffffffffffffffffffffffffffffffff16836040518363ffffffff1660e01b8152600401808373ffffffffffffffffffffffffffffffffffffffff16815260200182815260200192505050602060405180830381600087803b158015612ec557600080fd5b505af1158015612ed9573d6000803e3d6000fd5b505050506040513d6020811015612eef57600080fd5b8101908080519060200190929190505050612f55576040517f08c379a0000000000000000000000000000000000000000000000000000000008152600401808060200182810382526026815260200180614c5d6026913960400191505060405180910390fd5b6000612f6385601754613300565b9050601860009054906101000a900473ffffffffffffffffffffffffffffffffffffffff1673ffffffffffffffffffffffffffffffffffffffff1663341ce1fc601660009054906101000a900473ffffffffffffffffffffffffffffffffffffffff16836040518363ffffffff1660e01b8152600401808373ffffffffffffffffffffffffffffffffffffffff16815260200182815260200192505050602060405180830381600087803b15801561301a57600080fd5b505af115801561302e573d6000803e3d6000fd5b505050506040513d602081101561304457600080fd5b81019080805190602001909291905050506130c7576040517f08c379a00000000000000000000000000000000000000000000000000000000081526004018080602001828103825260168152602001807f4d696e20746f204d6f64657261746f72732046756e640000000000000000000081525060200191505060405180910390fd5b6130d08661381e565b505050505050565b601360009054906101000a900473ffffffffffffffffffffffffffffffffffffffff1673ffffffffffffffffffffffffffffffffffffffff163373ffffffffffffffffffffffffffffffffffffffff161461317e576040517f08c379a0000000000000000000000000000000000000000000000000000000008152600401808060200182810382526031815260200180614d046031913960400191505060405180910390fd5b8060108190555050565b60095481565b601360009054906101000a900473ffffffffffffffffffffffffffffffffffffffff1673ffffffffffffffffffffffffffffffffffffffff163373ffffffffffffffffffffffffffffffffffffffff1614613234576040517f08c379a0000000000000000000000000000000000000000000000000000000008152600401808060200182810382526031815260200180614d046031913960400191505060405180910390fd5b8060028190555050565b60105481565b60155481565b601360009054906101000a900473ffffffffffffffffffffffffffffffffffffffff1673ffffffffffffffffffffffffffffffffffffffff163373ffffffffffffffffffffffffffffffffffffffff16146132f0576040517f08c379a0000000000000000000000000000000000000000000000000000000008152600401808060200182810382526031815260200180614d046031913960400191505060405180910390fd5b80600e8190555050565b60035481565b600060648383028161330e57fe5b04905092915050565b600080600080600090505b60008086815260200190815260200160002060030160009054906101000a900460ff1660ff168160ff161015613432578360008087815260200190815260200160002060070160008360ff1681526020019081526020016000208054905011156133c05760008086815260200190815260200160002060070160008260ff1681526020019081526020016000208054905093508060ff169150613425565b8360008087815260200190815260200160002060070160008360ff1681526020019081526020016000208054905014156134245760008086815260200190815260200160002060070160008260ff1681526020019081526020016000208054905092505b5b8080600101915050613322565b50828214156134ad576001600080868152602001908152602001600020600f0160006101000a81548160ff0219169083151502179055506134a8846040518060400160405280601581526020017f6475706c6963617465732076616c696461746f727300000000000000000000008152506134ec565b6134d2565b80600080868152602001908152602001600020600c01819055506134d18185614243565b5b50505050565b6000600f5460125402905090565b600a5481565b60005b60008084815260200190815260200160002060030160009054906101000a900460ff1660ff168160ff1610156137475760005b60008085815260200190815260200160002060040160008360ff168152602001908152602001600020805490508160ff16101561373957601860009054906101000a900473ffffffffffffffffffffffffffffffffffffffff1673ffffffffffffffffffffffffffffffffffffffff1663a9059cbb60008087815260200190815260200160002060040160008560ff1681526020019081526020016000208360ff16815481106135ce57fe5b906000526020600020906004020160010160009054906101000a900473ffffffffffffffffffffffffffffffffffffffff1660008088815260200190815260200160002060040160008660ff1681526020019081526020016000208460ff168154811061363757fe5b9060005260206000209060040201600201546040518363ffffffff1660e01b8152600401808373ffffffffffffffffffffffffffffffffffffffff16815260200182815260200192505050602060405180830381600087803b15801561369c57600080fd5b505af11580156136b0573d6000803e3d6000fd5b505050506040513d60208110156136c657600080fd5b810190808051906020019092919050505061372c576040517f08c379a0000000000000000000000000000000000000000000000000000000008152600401808060200182810382526024815260200180614cb46024913960400191505060405180910390fd5b8080600101915050613522565b5080806001019150506134ef565b506001600080848152602001908152602001600020600f0160006101000a81548160ff0219169083151502179055507f847521552ad126e64c52b14640c804737bd67f2b6674309b332d1e5b17f857d182826040518083815260200180602001828103825283818151815260200191508051906020019080838360005b838110156137df5780820151818401526020810190506137c4565b50505050905090810190601f16801561380c5780820380516001836020036101000a031916815260200191505b50935050505060405180910390a15050565b600073ffffffffffffffffffffffffffffffffffffffff16600080838152602001908152602001600020600b0160009054906101000a900473ffffffffffffffffffffffffffffffffffffffff1673ffffffffffffffffffffffffffffffffffffffff1614613f005760006138ae600080848152602001908152602001600020600e0154600d5460045401613300565b9050601860009054906101000a900473ffffffffffffffffffffffffffffffffffffffff1673ffffffffffffffffffffffffffffffffffffffff1663341ce1fc600080858152602001908152602001600020600a0160019054906101000a900473ffffffffffffffffffffffffffffffffffffffff16836040518363ffffffff1660e01b8152600401808373ffffffffffffffffffffffffffffffffffffffff16815260200182815260200192505050602060405180830381600087803b15801561397857600080fd5b505af115801561398c573d6000803e3d6000fd5b505050506040513d60208110156139a257600080fd5b8101908080519060200190929190505050613a25576040517f08c379a000000000000000000000000000000000000000000000000000000000815260040180806020018281038252601e8152602001807f4d696e20746f20486f737420776974682061647669736f72206572726f72000081525060200191505060405180910390fd5b6000613a48600080858152602001908152602001600020600e0154600a54613300565b9050601860009054906101000a900473ffffffffffffffffffffffffffffffffffffffff1673ffffffffffffffffffffffffffffffffffffffff1663341ce1fc600080868152602001908152602001600020600b0160009054906101000a900473ffffffffffffffffffffffffffffffffffffffff16836040518363ffffffff1660e01b8152600401808373ffffffffffffffffffffffffffffffffffffffff16815260200182815260200192505050602060405180830381600087803b158015613b1257600080fd5b505af1158015613b26573d6000803e3d6000fd5b505050506040513d6020811015613b3c57600080fd5b8101908080519060200190929190505050613bbf576040517f08c379a00000000000000000000000000000000000000000000000000000000081526004018080602001828103825260158152602001807f4d696e7420746f2041647669736f72206572726f72000000000000000000000081525060200191505060405180910390fd5b6000613be6600080868152602001908152602001600020600d0154600c5460055401613300565b9050601860009054906101000a900473ffffffffffffffffffffffffffffffffffffffff1673ffffffffffffffffffffffffffffffffffffffff1663a9059cbb600080878152602001908152602001600020600a0160019054906101000a900473ffffffffffffffffffffffffffffffffffffffff16836040518363ffffffff1660e01b8152600401808373ffffffffffffffffffffffffffffffffffffffff16815260200182815260200192505050602060405180830381600087803b158015613cb057600080fd5b505af1158015613cc4573d6000803e3d6000fd5b505050506040513d6020811015613cda57600080fd5b8101908080519060200190929190505050613d5d576040517f08c379a000000000000000000000000000000000000000000000000000000000815260040180806020018281038252601e8152602001807f50617920746f20486f737420776974682061647669736f72206572726f72000081525060200191505060405180910390fd5b6000613d80600080878152602001908152602001600020600d0154600b54613300565b9050601860009054906101000a900473ffffffffffffffffffffffffffffffffffffffff1673ffffffffffffffffffffffffffffffffffffffff1663a9059cbb600080888152602001908152602001600020600b0160009054906101000a900473ffffffffffffffffffffffffffffffffffffffff16836040518363ffffffff1660e01b8152600401808373ffffffffffffffffffffffffffffffffffffffff16815260200182815260200192505050602060405180830381600087803b158015613e4a57600080fd5b505af1158015613e5e573d6000803e3d6000fd5b505050506040513d6020811015613e7457600080fd5b8101908080519060200190929190505050613ef7576040517f08c379a00000000000000000000000000000000000000000000000000000000081526004018080602001828103825260148152602001807f50617920746f2041647669736f72206572726f7200000000000000000000000081525060200191505060405180910390fd5b50505050614237565b6000613f23600080848152602001908152602001600020600e0154600454613300565b9050601860009054906101000a900473ffffffffffffffffffffffffffffffffffffffff1673ffffffffffffffffffffffffffffffffffffffff1663341ce1fc600080858152602001908152602001600020600a0160019054906101000a900473ffffffffffffffffffffffffffffffffffffffff16836040518363ffffffff1660e01b8152600401808373ffffffffffffffffffffffffffffffffffffffff16815260200182815260200192505050602060405180830381600087803b158015613fed57600080fd5b505af1158015614001573d6000803e3d6000fd5b505050506040513d602081101561401757600080fd5b810190808051906020019092919050505061409a576040517f08c379a00000000000000000000000000000000000000000000000000000000081526004018080602001828103825260128152602001807f4d696e7420746f20486f7374206572726f72000000000000000000000000000081525060200191505060405180910390fd5b60006140bd600080858152602001908152602001600020600d0154600554613300565b9050601860009054906101000a900473ffffffffffffffffffffffffffffffffffffffff1673ffffffffffffffffffffffffffffffffffffffff1663a9059cbb600080868152602001908152602001600020600a0160019054906101000a900473ffffffffffffffffffffffffffffffffffffffff16836040518363ffffffff1660e01b8152600401808373ffffffffffffffffffffffffffffffffffffffff16815260200182815260200192505050602060405180830381600087803b15801561418757600080fd5b505af115801561419b573d6000803e3d6000fd5b505050506040513d60208110156141b157600080fd5b8101908080519060200190929190505050614234576040517f08c379a00000000000000000000000000000000000000000000000000000000081526004018080602001828103825260118152602001807f50617920746f20486f7374206572726f7200000000000000000000000000000081525060200191505060405180910390fd5b50505b61424081614405565b50565b600080600080848152602001908152602001600020600401600085815260200190815260200160002080549050905060005b818160ff1610156142d75760008085815260200190815260200160002060040160008681526020019081526020016000208160ff16815481106142b457fe5b906000526020600020906004020160020154830192508080600101915050614275565b50600082600080868152602001908152602001600020600d015403905060008114156143415761433c846040518060400160405280601d81526020017f706c61796572732063686f7365206f6e6c79206f6e6520616e737765720000008152506112e6565b6143fe565b60006064600080878152602001908152602001600020600601546064038161436557fe5b049050600080600087815260200190815260200160002060060154600080888152602001908152602001600020600d01548161439d57fe5b04905060006064670de0b6b3a7640000601154856000808c8152602001908152602001600020600601548602020202816143d357fe5b04905080600080898152602001908152602001600020600e01819055506143fa87826129bb565b5050505b5050505050565b6000806000838152602001908152602001600020600c01549050600080600073ffffffffffffffffffffffffffffffffffffffff16600080868152602001908152602001600020600b0160009054906101000a900473ffffffffffffffffffffffffffffffffffffffff1673ffffffffffffffffffffffffffffffffffffffff161415614498576008546007540161449c565b6007545b905060005b6000808681526020019081526020016000206007016000858152602001908152602001600020805490508160ff16101561453c57600080600087815260200190815260200160002060070160008681526020019081526020016000208260ff168154811061450b57fe5b9060005260206000209060020201600101549050600081131561452e5780840193505b5080806001019150506144a1565b5060005b6000808681526020019081526020016000206007016000858152602001908152602001600020805490508160ff161015614ab057600080600087815260200190815260200160002060070160008681526020019081526020016000208260ff16815481106145aa57fe5b9060005260206000209060020201600101549050600080600088815260200190815260200160002060070160008781526020019081526020016000208360ff16815481106145f457fe5b906000526020600020906002020160000160009054906101000a900473ffffffffffffffffffffffffffffffffffffffff1690506000821315614aa15760006146546000808a8152602001908152602001600020600e0154600654613300565b90506000868483028161466357fe5b049050601860009054906101000a900473ffffffffffffffffffffffffffffffffffffffff1673ffffffffffffffffffffffffffffffffffffffff1663341ce1fc84836040518363ffffffff1660e01b8152600401808373ffffffffffffffffffffffffffffffffffffffff16815260200182815260200192505050602060405180830381600087803b1580156146f957600080fd5b505af115801561470d573d6000803e3d6000fd5b505050506040513d602081101561472357600080fd5b81019080805190602001909291905050506147a6576040517f08c379a00000000000000000000000000000000000000000000000000000000081526004018080602001828103825260158152602001807f4d696e7420746f2045787065727473206572726f72000000000000000000000081525060200191505060405180910390fd5b60006147c76000808c8152602001908152602001600020600d015488613300565b9050600088868302816147d657fe5b049050601860009054906101000a900473ffffffffffffffffffffffffffffffffffffffff1673ffffffffffffffffffffffffffffffffffffffff1663a9059cbb86836040518363ffffffff1660e01b8152600401808373ffffffffffffffffffffffffffffffffffffffff16815260200182815260200192505050602060405180830381600087803b15801561486c57600080fd5b505af1158015614880573d6000803e3d6000fd5b505050506040513d602081101561489657600080fd5b8101908080519060200190929190505050614919576040517f08c379a00000000000000000000000000000000000000000000000000000000081526004018080602001828103825260148152602001807f50617920746f2045787065727473206572726f7200000000000000000000000081525060200191505060405180910390fd5b6000808c8152602001908152602001600020600f0160019054906101000a900460ff1615614a9c5760006149646000808e815260200190815260200160002060100154600954613300565b905060008a8883028161497357fe5b049050601960009054906101000a900473ffffffffffffffffffffffffffffffffffffffff1673ffffffffffffffffffffffffffffffffffffffff1663a9059cbb88836040518363ffffffff1660e01b8152600401808373ffffffffffffffffffffffffffffffffffffffff16815260200182815260200192505050602060405180830381600087803b158015614a0957600080fd5b505af1158015614a1d573d6000803e3d6000fd5b505050506040513d6020811015614a3357600080fd5b8101908080519060200190929190505050614a99576040517f08c379a0000000000000000000000000000000000000000000000000000000008152600401808060200182810382526023815260200180614c3a6023913960400191505060405180910390fd5b50505b505050505b50508080600101915050614540565b50614aba84614ac0565b50505050565b50565b828054828255906000526020600020908101928215614b52579160200282015b82811115614b5157823573ffffffffffffffffffffffffffffffffffffffff168260006101000a81548173ffffffffffffffffffffffffffffffffffffffff021916908373ffffffffffffffffffffffffffffffffffffffff16021790555091602001919060010190614ae3565b5b509050614b5f9190614bd4565b5090565b6040518060400160405280600073ffffffffffffffffffffffffffffffffffffffff168152602001600081525090565b604051806080016040528060008152602001600073ffffffffffffffffffffffffffffffffffffffff16815260200160008152602001600060ff1681525090565b5b80821115614bed576000816000905550600101614bd5565b509056fe5472616e736665722042545920746f6b656e7320666f722050524f206576656e74206572726f727573657220616c726561647920706172746963697061746520696e206576656e74506179207072656d69756d20746f6b656e7320746f2045787065727473206572726f724d696e7420746f20436f6d6d756e697479204d61726b6574696e672046756e64206572726f7262657420616d6f756e74206d75737420626520626967676572206f7220657175616c20746f20302e303120746f6b656e735265766572742042455420746f6b656e20746f20706c6179657273206973206572726f72506179207072656d69756d20746f6b656e7320746f20446576656c6f706d656e742046756e64206572726f72546869732066756e6374696f6e20636f756c64206f6e6c7920626520657865637574656420627920746865206f776e6572a2646970667358221220e294163e2260b61a230edd749d0478c1e9bcce9be2ed51c46acc6fbd72a27f8364736f6c63430007060033",
  "immutableReferences": {},
  "source": "// SPDX-License-Identifier: MIT\npragma solidity >=0.4.22 <0.9.0;\n\nimport {PubStruct} from \"../../struct/PubStruct.sol\";\nimport {TimeValidation} from \"../../helpers/TimeValidation.sol\";\nimport {BET} from \"../../tokens/BET.sol\";\nimport {BTY} from \"../../tokens/BTY.sol\";\nimport {FinishEvent} from \"./FinishEvent.sol\";\n\ncontract PublicEvents is\n    TimeValidation,\n    PubStruct,\n    FinishEvent\n{\n    event calculateExpert(int256 id, uint256 activePlayers);\n    constructor(BET _betAddress, BTY _btyAddress) FinishEvent(_betAddress, _btyAddress){}\n    uint256 minBet = 10000000000000000;\n\n    function newEvent(\n        int256 _id,\n        uint256 _startTime,\n        uint256 _endTime,\n        uint8 _questAmount,\n        uint256 _amountExperts,\n        bool _calculateExperts,\n        address payable _host,\n        bool _premium,\n        uint256 _amountPremiumEvent\n    ) public payable ownerOnly() {\n        events[_id].id = _id;\n        events[_id].startTime = _startTime;\n        events[_id].endTime = _endTime;\n        events[_id].questAmount = _questAmount;\n        events[_id].amountExperts = _amountExperts;\n        events[_id].host = _host;\n        events[_id].calculateExperts = _calculateExperts;\n        events[_id].premium = _premium;\n        if (_premium) {\n            require(\n                btyToken.allowance(_host, address(this)) >= _amountPremiumEvent,\n                \"Allowance error\"\n            );\n            require(\n                btyToken.transferFrom(\n                    _host,\n                    address(this),\n                    _amountPremiumEvent\n                ),\n                \"Transfer BTY tokens for PRO event error\"\n            );\n        }\n    }\n\n    function addAdvisor(address payable _advisor, int256 _id) public ownerOnly(){\n          events[_id].advisor = _advisor;\n    }\n\n    function setAnswer(\n        int256 _id,\n        uint8 _whichAnswer,\n        uint256 _amount,\n        address payable _playerWallet,\n        int256 _playerId,\n        uint8 _referrersDeep\n    ) public payable ownerOnly() {\n        require(\n            timeAnswer(events[_id].startTime, events[_id].endTime) == 0,\n            \"Time is not valid\"\n        );\n        require(events[_id].reverted != true, \"event is reverted\");\n        require(events[_id].eventFinish != true, \"event is finish\");\n        require(\n            events[_id].allPlayers[_playerWallet] != true,\n            \"user already participate in event\"\n        );\n        require(_amount >= minBet, \"bet amount must be bigger or equal to 0.01 tokens\" );\n\n        PubStruct.Player memory player;\n        player = PubStruct.Player(_playerId, _playerWallet, _amount, _referrersDeep);\n        events[_id].players[_whichAnswer].push(player);\n        events[_id].allPlayers[_playerWallet] = true;\n        events[_id].activePlayers += 1;\n        events[_id].pool += _amount;\n\n        require(\n            betToken.allowance(_playerWallet, address(this)) >= _amount,\n            \"Allowance error\"\n        );\n        require(\n            betToken.transferFrom(_playerWallet, address(this), _amount),\n            \"Transfer BTY from players error\"\n        );\n    }\n\n    function setReferrers(string memory _key, address payable[] calldata _referrers) public ownerOnly(){\n        referrers[_key].referrer = _referrers;\n    }\n\n    function setValidator(\n        int256 _id,\n        uint8 _whichAnswer,\n        address payable _expertWallet,\n        int256 _reputation\n    ) public payable ownerOnly() {\n        require(timeValidate(events[_id].endTime) == 0, \"Time is not valid\");\n        require(\n            events[_id].allPlayers[_expertWallet] != true,\n            \"user already participate in event\"\n        );\n        require(events[_id].reverted != true, \"event is reverted\");\n        require(events[_id].eventFinish != true, \"event is finish\");\n\n        if (events[_id].activePlayers == 0) {\n            events[_id].reverted = true;\n            emit revertedEvent(_id, \"do not have players on event\");\n        } else {\n            if (\n                events[_id].calculateExperts && events[_id].amountExperts == 0\n            ) {\n                emit calculateExpert(_id, events[_id].activePlayers);\n            } else {\n                PubStruct.Expert memory expert;\n                expert = PubStruct.Expert(_expertWallet, _reputation);\n                events[_id].expert[_whichAnswer].push(expert);\n                uint256 active = events[_id].activeExperts + 1;\n                events[_id].activeExperts = active;\n\n                if (active == events[_id].amountExperts && events[_id].amountExperts > 0) {\n                    letsFindCorrectAnswer(_id);\n                }\n            }\n        }\n    }\n\n    function setActiveExpertsFromOracl(uint256 _amount, int256 _id) public ownerOnly {\n        events[_id].amountExperts = _amount;\n    }\n\n}\n",
  "sourcePath": "/Users/macbook/Documents/freelance/tokenominc/contracts/events/PublicEvents/PublicEvents.sol",
  "compiler": {
    "name": "solc",
    "version": "0.7.6+commit.7338295f.Linux.g++"
  },
  "schemaVersion": "3.2.2",
  "updatedAt": "2021-03-05T14:04:08.151Z",
  "devdoc": {
    "kind": "dev",
    "methods": {},
    "version": 1
  },
  "userdoc": {
    "kind": "user",
    "methods": {},
    "version": 1
  }
}