{
  "contractName": "PublicEvents",
  "abi": [
    {
      "inputs": [
        {
          "internalType": "contract BET",
          "name": "_betAddress",
          "type": "address"
        },
        {
          "internalType": "contract BTY",
          "name": "_btyAddress",
          "type": "address"
        }
      ],
      "stateMutability": "nonpayable",
      "type": "constructor"
    },
    {
      "anonymous": false,
      "inputs": [
        {
          "indexed": false,
          "internalType": "int256",
          "name": "id",
          "type": "int256"
        },
        {
          "indexed": false,
          "internalType": "uint256",
          "name": "activePlayers",
          "type": "uint256"
        }
      ],
      "name": "calculateExpert",
      "type": "event"
    },
    {
      "anonymous": false,
      "inputs": [
        {
          "indexed": false,
          "internalType": "int256",
          "name": "id",
          "type": "int256"
        }
      ],
      "name": "findCorrectAnswer",
      "type": "event"
    },
    {
      "anonymous": false,
      "inputs": [
        {
          "indexed": false,
          "internalType": "int256",
          "name": "id",
          "type": "int256"
        },
        {
          "indexed": false,
          "internalType": "string",
          "name": "purpose",
          "type": "string"
        }
      ],
      "name": "revertedEvent",
      "type": "event"
    },
    {
      "inputs": [],
      "name": "betToken",
      "outputs": [
        {
          "internalType": "contract BET",
          "name": "",
          "type": "address"
        }
      ],
      "stateMutability": "view",
      "type": "function"
    },
    {
      "inputs": [],
      "name": "btyToken",
      "outputs": [
        {
          "internalType": "contract BTY",
          "name": "",
          "type": "address"
        }
      ],
      "stateMutability": "view",
      "type": "function"
    },
    {
      "inputs": [
        {
          "internalType": "int256",
          "name": "",
          "type": "int256"
        }
      ],
      "name": "events",
      "outputs": [
        {
          "internalType": "int256",
          "name": "id",
          "type": "int256"
        },
        {
          "internalType": "uint256",
          "name": "startTime",
          "type": "uint256"
        },
        {
          "internalType": "uint256",
          "name": "endTime",
          "type": "uint256"
        },
        {
          "internalType": "uint256",
          "name": "questAmount",
          "type": "uint256"
        },
        {
          "internalType": "uint256",
          "name": "activePlayers",
          "type": "uint256"
        },
        {
          "internalType": "uint256",
          "name": "activeExperts",
          "type": "uint256"
        },
        {
          "internalType": "uint256",
          "name": "amountExperts",
          "type": "uint256"
        },
        {
          "internalType": "bool",
          "name": "calculateExperts",
          "type": "bool"
        },
        {
          "internalType": "address payable",
          "name": "host",
          "type": "address"
        },
        {
          "internalType": "address payable",
          "name": "advisor",
          "type": "address"
        },
        {
          "internalType": "uint256",
          "name": "pool",
          "type": "uint256"
        },
        {
          "internalType": "uint256",
          "name": "premiumAmount",
          "type": "uint256"
        }
      ],
      "stateMutability": "view",
      "type": "function"
    },
    {
      "inputs": [
        {
          "internalType": "int256",
          "name": "_id",
          "type": "int256"
        }
      ],
      "name": "getActivePlayers",
      "outputs": [
        {
          "internalType": "uint256",
          "name": "",
          "type": "uint256"
        }
      ],
      "stateMutability": "view",
      "type": "function"
    },
    {
      "inputs": [
        {
          "internalType": "int256",
          "name": "_id",
          "type": "int256"
        }
      ],
      "name": "getAdvisorAddr",
      "outputs": [
        {
          "internalType": "address",
          "name": "",
          "type": "address"
        }
      ],
      "stateMutability": "view",
      "type": "function"
    },
    {
      "inputs": [
        {
          "internalType": "int256",
          "name": "_id",
          "type": "int256"
        },
        {
          "internalType": "uint256",
          "name": "i",
          "type": "uint256"
        }
      ],
      "name": "getExpertAmount",
      "outputs": [
        {
          "internalType": "uint256",
          "name": "",
          "type": "uint256"
        }
      ],
      "stateMutability": "view",
      "type": "function"
    },
    {
      "inputs": [
        {
          "internalType": "int256",
          "name": "_id",
          "type": "int256"
        },
        {
          "internalType": "uint256",
          "name": "i",
          "type": "uint256"
        },
        {
          "internalType": "uint256",
          "name": "z",
          "type": "uint256"
        }
      ],
      "name": "getExpertReput",
      "outputs": [
        {
          "internalType": "int256",
          "name": "",
          "type": "int256"
        }
      ],
      "stateMutability": "view",
      "type": "function"
    },
    {
      "inputs": [
        {
          "internalType": "int256",
          "name": "_id",
          "type": "int256"
        },
        {
          "internalType": "uint256",
          "name": "i",
          "type": "uint256"
        },
        {
          "internalType": "uint256",
          "name": "z",
          "type": "uint256"
        }
      ],
      "name": "getExpertWallet",
      "outputs": [
        {
          "internalType": "address payable",
          "name": "",
          "type": "address"
        }
      ],
      "stateMutability": "view",
      "type": "function"
    },
    {
      "inputs": [
        {
          "internalType": "int256",
          "name": "_id",
          "type": "int256"
        }
      ],
      "name": "getHostAddr",
      "outputs": [
        {
          "internalType": "address",
          "name": "",
          "type": "address"
        }
      ],
      "stateMutability": "view",
      "type": "function"
    },
    {
      "inputs": [
        {
          "internalType": "int256",
          "name": "_id",
          "type": "int256"
        },
        {
          "internalType": "uint256",
          "name": "i",
          "type": "uint256"
        }
      ],
      "name": "getPlayerAmount",
      "outputs": [
        {
          "internalType": "uint256",
          "name": "",
          "type": "uint256"
        }
      ],
      "stateMutability": "view",
      "type": "function"
    },
    {
      "inputs": [
        {
          "internalType": "int256",
          "name": "_id",
          "type": "int256"
        },
        {
          "internalType": "uint256",
          "name": "i",
          "type": "uint256"
        },
        {
          "internalType": "uint256",
          "name": "z",
          "type": "uint256"
        }
      ],
      "name": "getPlayerTokens",
      "outputs": [
        {
          "internalType": "uint256",
          "name": "",
          "type": "uint256"
        }
      ],
      "stateMutability": "view",
      "type": "function"
    },
    {
      "inputs": [
        {
          "internalType": "int256",
          "name": "_id",
          "type": "int256"
        },
        {
          "internalType": "uint256",
          "name": "i",
          "type": "uint256"
        },
        {
          "internalType": "uint256",
          "name": "z",
          "type": "uint256"
        }
      ],
      "name": "getPlayerWallet",
      "outputs": [
        {
          "internalType": "address payable",
          "name": "",
          "type": "address"
        }
      ],
      "stateMutability": "view",
      "type": "function"
    },
    {
      "inputs": [
        {
          "internalType": "int256",
          "name": "_id",
          "type": "int256"
        }
      ],
      "name": "getPool",
      "outputs": [
        {
          "internalType": "uint256",
          "name": "",
          "type": "uint256"
        }
      ],
      "stateMutability": "view",
      "type": "function"
    },
    {
      "inputs": [
        {
          "internalType": "int256",
          "name": "_id",
          "type": "int256"
        }
      ],
      "name": "getPremiumAmount",
      "outputs": [
        {
          "internalType": "uint256",
          "name": "",
          "type": "uint256"
        }
      ],
      "stateMutability": "view",
      "type": "function"
    },
    {
      "inputs": [
        {
          "internalType": "int256",
          "name": "_id",
          "type": "int256"
        }
      ],
      "name": "getQuestAmount",
      "outputs": [
        {
          "internalType": "uint256",
          "name": "",
          "type": "uint256"
        }
      ],
      "stateMutability": "view",
      "type": "function"
    },
    {
      "inputs": [
        {
          "internalType": "uint256",
          "name": "_startTime",
          "type": "uint256"
        },
        {
          "internalType": "uint256",
          "name": "_endTime",
          "type": "uint256"
        }
      ],
      "name": "timeAnswer",
      "outputs": [
        {
          "internalType": "int8",
          "name": "",
          "type": "int8"
        }
      ],
      "stateMutability": "view",
      "type": "function"
    },
    {
      "inputs": [
        {
          "internalType": "uint256",
          "name": "_endTime",
          "type": "uint256"
        }
      ],
      "name": "timeValidate",
      "outputs": [
        {
          "internalType": "int8",
          "name": "",
          "type": "int8"
        }
      ],
      "stateMutability": "view",
      "type": "function"
    },
    {
      "inputs": [
        {
          "internalType": "address",
          "name": "_mpaddr",
          "type": "address"
        },
        {
          "internalType": "address",
          "name": "_ppaddr",
          "type": "address"
        }
      ],
      "name": "setAddresses",
      "outputs": [],
      "stateMutability": "nonpayable",
      "type": "function"
    },
    {
      "inputs": [
        {
          "internalType": "int256",
          "name": "_id",
          "type": "int256"
        },
        {
          "internalType": "uint256",
          "name": "_sT",
          "type": "uint256"
        },
        {
          "internalType": "uint256",
          "name": "_eT",
          "type": "uint256"
        },
        {
          "internalType": "uint256",
          "name": "_questAmount",
          "type": "uint256"
        },
        {
          "internalType": "uint256",
          "name": "_amountExp",
          "type": "uint256"
        },
        {
          "internalType": "bool",
          "name": "_calcExp",
          "type": "bool"
        },
        {
          "internalType": "address payable",
          "name": "_host",
          "type": "address"
        },
        {
          "internalType": "uint256",
          "name": "_amountPrem",
          "type": "uint256"
        }
      ],
      "name": "newEvent",
      "outputs": [],
      "stateMutability": "payable",
      "type": "function"
    },
    {
      "inputs": [
        {
          "internalType": "address payable",
          "name": "_advisor",
          "type": "address"
        },
        {
          "internalType": "int256",
          "name": "_id",
          "type": "int256"
        }
      ],
      "name": "addAdvisor",
      "outputs": [],
      "stateMutability": "nonpayable",
      "type": "function"
    },
    {
      "inputs": [
        {
          "internalType": "int256",
          "name": "_id",
          "type": "int256"
        },
        {
          "internalType": "uint256",
          "name": "_answer",
          "type": "uint256"
        },
        {
          "internalType": "uint256",
          "name": "_amount",
          "type": "uint256"
        },
        {
          "internalType": "address payable",
          "name": "_pWallet",
          "type": "address"
        }
      ],
      "name": "setAnswer",
      "outputs": [],
      "stateMutability": "payable",
      "type": "function"
    },
    {
      "inputs": [
        {
          "internalType": "int256",
          "name": "_id",
          "type": "int256"
        },
        {
          "internalType": "uint256",
          "name": "_answer",
          "type": "uint256"
        },
        {
          "internalType": "address payable",
          "name": "_eWallet",
          "type": "address"
        },
        {
          "internalType": "int256",
          "name": "_reput",
          "type": "int256"
        }
      ],
      "name": "setValidator",
      "outputs": [],
      "stateMutability": "payable",
      "type": "function"
    },
    {
      "inputs": [
        {
          "internalType": "uint256",
          "name": "_amount",
          "type": "uint256"
        },
        {
          "internalType": "int256",
          "name": "_id",
          "type": "int256"
        }
      ],
      "name": "setActiveExpertsFromOracl",
      "outputs": [],
      "stateMutability": "nonpayable",
      "type": "function"
    },
    {
      "inputs": [
        {
          "internalType": "address",
          "name": "_addr",
          "type": "address"
        },
        {
          "internalType": "uint256",
          "name": "_amount",
          "type": "uint256"
        }
      ],
      "name": "mint",
      "outputs": [
        {
          "internalType": "bool",
          "name": "",
          "type": "bool"
        }
      ],
      "stateMutability": "nonpayable",
      "type": "function"
    },
    {
      "inputs": [
        {
          "internalType": "address",
          "name": "_addr",
          "type": "address"
        },
        {
          "internalType": "uint256",
          "name": "_amount",
          "type": "uint256"
        }
      ],
      "name": "pay",
      "outputs": [
        {
          "internalType": "bool",
          "name": "",
          "type": "bool"
        }
      ],
      "stateMutability": "nonpayable",
      "type": "function"
    },
    {
      "inputs": [
        {
          "internalType": "address",
          "name": "_addr",
          "type": "address"
        },
        {
          "internalType": "uint256",
          "name": "_amount",
          "type": "uint256"
        }
      ],
      "name": "payBTY",
      "outputs": [
        {
          "internalType": "bool",
          "name": "",
          "type": "bool"
        }
      ],
      "stateMutability": "nonpayable",
      "type": "function"
    }
  ],
  "bytecode": "0x6080604052662386f26fc1000060015534801561001b57600080fd5b506040516133563803806133568339818101604052604081101561003e57600080fd5b81019080805190602001909291908051906020019092919050505081600260006101000a81548173ffffffffffffffffffffffffffffffffffffffff021916908373ffffffffffffffffffffffffffffffffffffffff16021790555080600360006101000a81548173ffffffffffffffffffffffffffffffffffffffff021916908373ffffffffffffffffffffffffffffffffffffffff16021790555033600660006101000a81548173ffffffffffffffffffffffffffffffffffffffff021916908373ffffffffffffffffffffffffffffffffffffffff16021790555050506132298061012d6000396000f3fe6080604052600436106101815760003560e01c8063730f3d14116100d15780639147f0171161008a578063c407687611610064578063c407687614610a07578063f438835c14610a78578063f46cf83814610add578063f946c20714610b5657610181565b80639147f017146108f4578063a7f21b6814610956578063a96c2aea146109b857610181565b8063730f3d141461068a57806378691f16146107175780637c997f671461075857806380559173146107d1578063859f0f6a1461082057806390107afe1461088357610181565b8063458a80791161013e578063506d05cf11610118578063506d05cf1461053957806353bdb0621461057a57806354f6db74146105d557806371aee9451461063157610181565b8063458a8079146103b95780634a30062b1461042a5780634c30a15a1461046f57610181565b80630569ae991461018657806323c8778e146101e9578063246fe6471461024257806330286c371461029457806340c10f19146102e357806342f1bb8d14610354575b600080fd5b34801561019257600080fd5b506101d3600480360360608110156101a957600080fd5b81019080803590602001909291908035906020019092919080359060200190929190505050610ba5565b6040518082815260200191505060405180910390f35b3480156101f557600080fd5b5061022c6004803603604081101561020c57600080fd5b810190808035906020019092919080359060200190929190505050610bf3565b6040518082815260200191505060405180910390f35b34801561024e57600080fd5b5061027b6004803603602081101561026557600080fd5b8101908080359060200190929190505050610c27565b604051808260000b815260200191505060405180910390f35b3480156102a057600080fd5b506102cd600480360360208110156102b757600080fd5b8101908080359060200190929190505050610c45565b6040518082815260200191505060405180910390f35b3480156102ef57600080fd5b5061033c6004803603604081101561030657600080fd5b81019080803573ffffffffffffffffffffffffffffffffffffffff16906020019092919080359060200190929190505050610c64565b60405180821515815260200191505060405180910390f35b34801561036057600080fd5b5061038d6004803603602081101561037757600080fd5b8101908080359060200190929190505050610ecb565b604051808273ffffffffffffffffffffffffffffffffffffffff16815260200191505060405180910390f35b3480156103c557600080fd5b50610412600480360360408110156103dc57600080fd5b81019080803573ffffffffffffffffffffffffffffffffffffffff16906020019092919080359060200190929190505050610f0a565b60405180821515815260200191505060405180910390f35b34801561043657600080fd5b5061046d6004803603604081101561044d57600080fd5b810190808035906020019092919080359060200190929190505050611171565b005b34801561047b57600080fd5b506104a86004803603602081101561049257600080fd5b8101908080359060200190929190505050611252565b604051808d81526020018c81526020018b81526020018a815260200189815260200188815260200187815260200186151581526020018573ffffffffffffffffffffffffffffffffffffffff1681526020018473ffffffffffffffffffffffffffffffffffffffff1681526020018381526020018281526020019c5050505050505050505050505060405180910390f35b34801561054557600080fd5b5061054e6112ff565b604051808273ffffffffffffffffffffffffffffffffffffffff16815260200191505060405180910390f35b34801561058657600080fd5b506105d36004803603604081101561059d57600080fd5b81019080803573ffffffffffffffffffffffffffffffffffffffff16906020019092919080359060200190929190505050611325565b005b3480156105e157600080fd5b50610618600480360360408110156105f857600080fd5b810190808035906020019092919080359060200190929190505050611440565b604051808260000b815260200191505060405180910390f35b34801561063d57600080fd5b506106746004803603604081101561065457600080fd5b810190808035906020019092919080359060200190929190505050611472565b6040518082815260200191505060405180910390f35b61071560048036036101008110156106a157600080fd5b810190808035906020019092919080359060200190929190803590602001909291908035906020019092919080359060200190929190803515159060200190929190803573ffffffffffffffffffffffffffffffffffffffff169060200190929190803590602001909291905050506114a6565b005b34801561072357600080fd5b5061072c61194f565b604051808273ffffffffffffffffffffffffffffffffffffffff16815260200191505060405180910390f35b34801561076457600080fd5b506107a56004803603606081101561077b57600080fd5b81019080803590602001909291908035906020019092919080359060200190929190505050611975565b604051808273ffffffffffffffffffffffffffffffffffffffff16815260200191505060405180910390f35b3480156107dd57600080fd5b5061080a600480360360208110156107f457600080fd5b81019080803590602001909291905050506119e3565b6040518082815260200191505060405180910390f35b34801561082c57600080fd5b5061086d6004803603606081101561084357600080fd5b81019080803590602001909291908035906020019092919080359060200190929190505050611a02565b6040518082815260200191505060405180910390f35b34801561088f57600080fd5b506108f2600480360360408110156108a657600080fd5b81019080803573ffffffffffffffffffffffffffffffffffffffff169060200190929190803573ffffffffffffffffffffffffffffffffffffffff169060200190929190505050611a50565b005b6109546004803603608081101561090a57600080fd5b810190808035906020019092919080359060200190929190803573ffffffffffffffffffffffffffffffffffffffff16906020019092919080359060200190929190505050611c1b565b005b6109b66004803603608081101561096c57600080fd5b81019080803590602001909291908035906020019092919080359060200190929190803573ffffffffffffffffffffffffffffffffffffffff1690602001909291905050506124d2565b005b3480156109c457600080fd5b506109f1600480360360208110156109db57600080fd5b8101908080359060200190929190505050612def565b6040518082815260200191505060405180910390f35b348015610a1357600080fd5b50610a6060048036036040811015610a2a57600080fd5b81019080803573ffffffffffffffffffffffffffffffffffffffff16906020019092919080359060200190929190505050612e0e565b60405180821515815260200191505060405180910390f35b348015610a8457600080fd5b50610ab160048036036020811015610a9b57600080fd5b8101908080359060200190929190505050613075565b604051808273ffffffffffffffffffffffffffffffffffffffff16815260200191505060405180910390f35b348015610ae957600080fd5b50610b2a60048036036060811015610b0057600080fd5b810190808035906020019092919080359060200190929190803590602001909291905050506130b4565b604051808273ffffffffffffffffffffffffffffffffffffffff16815260200191505060405180910390f35b348015610b6257600080fd5b50610b8f60048036036020811015610b7957600080fd5b8101908080359060200190929190505050613122565b6040518082815260200191505060405180910390f35b600080600085815260200190815260200160002060070160008481526020019081526020016000208281548110610bd857fe5b90600052602060002090600202016001015490509392505050565b6000806000848152602001908152602001600020600701600083815260200190815260200160002080549050905092915050565b60008082420312610c3b5760009050610c40565b600190505b919050565b6000806000838152602001908152602001600020600c01549050919050565b6000600760009054906101000a900473ffffffffffffffffffffffffffffffffffffffff1673ffffffffffffffffffffffffffffffffffffffff163373ffffffffffffffffffffffffffffffffffffffff161480610d0f5750600860009054906101000a900473ffffffffffffffffffffffffffffffffffffffff1673ffffffffffffffffffffffffffffffffffffffff163373ffffffffffffffffffffffffffffffffffffffff16145b610d81576040517f08c379a000000000000000000000000000000000000000000000000000000000815260040180806020018281038252600a8152602001807f6f776e6572206f6e6c790000000000000000000000000000000000000000000081525060200191505060405180910390fd5b600260009054906101000a900473ffffffffffffffffffffffffffffffffffffffff1673ffffffffffffffffffffffffffffffffffffffff1663341ce1fc84846040518363ffffffff1660e01b8152600401808373ffffffffffffffffffffffffffffffffffffffff16815260200182815260200192505050602060405180830381600087803b158015610e1457600080fd5b505af1158015610e28573d6000803e3d6000fd5b505050506040513d6020811015610e3e57600080fd5b8101908080519060200190929190505050610ec1576040517f08c379a00000000000000000000000000000000000000000000000000000000081526004018080602001828103825260078152602001807f706179206572720000000000000000000000000000000000000000000000000081525060200191505060405180910390fd5b6001905092915050565b6000806000838152602001908152602001600020600b0160009054906101000a900473ffffffffffffffffffffffffffffffffffffffff169050919050565b6000600760009054906101000a900473ffffffffffffffffffffffffffffffffffffffff1673ffffffffffffffffffffffffffffffffffffffff163373ffffffffffffffffffffffffffffffffffffffff161480610fb55750600860009054906101000a900473ffffffffffffffffffffffffffffffffffffffff1673ffffffffffffffffffffffffffffffffffffffff163373ffffffffffffffffffffffffffffffffffffffff16145b611027576040517f08c379a000000000000000000000000000000000000000000000000000000000815260040180806020018281038252600a8152602001807f6f776e6572206f6e6c790000000000000000000000000000000000000000000081525060200191505060405180910390fd5b600360009054906101000a900473ffffffffffffffffffffffffffffffffffffffff1673ffffffffffffffffffffffffffffffffffffffff1663a9059cbb84846040518363ffffffff1660e01b8152600401808373ffffffffffffffffffffffffffffffffffffffff16815260200182815260200192505050602060405180830381600087803b1580156110ba57600080fd5b505af11580156110ce573d6000803e3d6000fd5b505050506040513d60208110156110e457600080fd5b8101908080519060200190929190505050611167576040517f08c379a00000000000000000000000000000000000000000000000000000000081526004018080602001828103825260088152602001807f6d696e742065727200000000000000000000000000000000000000000000000081525060200191505060405180910390fd5b6001905092915050565b600660009054906101000a900473ffffffffffffffffffffffffffffffffffffffff1673ffffffffffffffffffffffffffffffffffffffff163373ffffffffffffffffffffffffffffffffffffffff1614611234576040517f08c379a000000000000000000000000000000000000000000000000000000000815260040180806020018281038252600a8152602001807f6f776e6572206f6e6c790000000000000000000000000000000000000000000081525060200191505060405180910390fd5b81600080838152602001908152602001600020600901819055505050565b600060205280600052604060002060009150905080600001549080600101549080600201549080600301549080600601549080600801549080600901549080600a0160009054906101000a900460ff169080600a0160019054906101000a900473ffffffffffffffffffffffffffffffffffffffff169080600b0160009054906101000a900473ffffffffffffffffffffffffffffffffffffffff169080600c01549080600d015490508c565b600360009054906101000a900473ffffffffffffffffffffffffffffffffffffffff1681565b600660009054906101000a900473ffffffffffffffffffffffffffffffffffffffff1673ffffffffffffffffffffffffffffffffffffffff163373ffffffffffffffffffffffffffffffffffffffff16146113e8576040517f08c379a000000000000000000000000000000000000000000000000000000000815260040180806020018281038252600a8152602001807f6f776e6572206f6e6c790000000000000000000000000000000000000000000081525060200191505060405180910390fd5b81600080838152602001908152602001600020600b0160006101000a81548173ffffffffffffffffffffffffffffffffffffffff021916908373ffffffffffffffffffffffffffffffffffffffff1602179055505050565b600080834203126114675760004283031261145e576000905061146c565b6002905061146c565b600190505b92915050565b6000806000848152602001908152602001600020600401600083815260200190815260200160002080549050905092915050565b600660009054906101000a900473ffffffffffffffffffffffffffffffffffffffff1673ffffffffffffffffffffffffffffffffffffffff163373ffffffffffffffffffffffffffffffffffffffff1614611569576040517f08c379a000000000000000000000000000000000000000000000000000000000815260040180806020018281038252600a8152602001807f6f776e6572206f6e6c790000000000000000000000000000000000000000000081525060200191505060405180910390fd5b876000808a815260200190815260200160002060000181905550866000808a815260200190815260200160002060010181905550856000808a815260200190815260200160002060020181905550846000808a815260200190815260200160002060030181905550836000808a815260200190815260200160002060090181905550816000808a8152602001908152602001600020600a0160016101000a81548173ffffffffffffffffffffffffffffffffffffffff021916908373ffffffffffffffffffffffffffffffffffffffff160217905550826000808a8152602001908152602001600020600a0160006101000a81548160ff021916908315150217905550600081111561194557806000808a8152602001908152602001600020600d018190555080600360009054906101000a900473ffffffffffffffffffffffffffffffffffffffff1673ffffffffffffffffffffffffffffffffffffffff1663dd62ed3e84306040518363ffffffff1660e01b8152600401808373ffffffffffffffffffffffffffffffffffffffff1681526020018273ffffffffffffffffffffffffffffffffffffffff1681526020019250505060206040518083038186803b15801561173757600080fd5b505afa15801561174b573d6000803e3d6000fd5b505050506040513d602081101561176157600080fd5b810190808051906020019092919050505010156117e6576040517f08c379a00000000000000000000000000000000000000000000000000000000081526004018080602001828103825260098152602001807f416c6c6f77616e6365000000000000000000000000000000000000000000000081525060200191505060405180910390fd5b600360009054906101000a900473ffffffffffffffffffffffffffffffffffffffff1673ffffffffffffffffffffffffffffffffffffffff166323b872dd8330846040518463ffffffff1660e01b8152600401808473ffffffffffffffffffffffffffffffffffffffff1681526020018373ffffffffffffffffffffffffffffffffffffffff1681526020018281526020019350505050602060405180830381600087803b15801561189757600080fd5b505af11580156118ab573d6000803e3d6000fd5b505050506040513d60208110156118c157600080fd5b8101908080519060200190929190505050611944576040517f08c379a000000000000000000000000000000000000000000000000000000000815260040180806020018281038252600d8152602001807f4254592050524f206576656e740000000000000000000000000000000000000081525060200191505060405180910390fd5b5b5050505050505050565b600260009054906101000a900473ffffffffffffffffffffffffffffffffffffffff1681565b6000806000858152602001908152602001600020600401600084815260200190815260200160002082815481106119a857fe5b906000526020600020906002020160000160009054906101000a900473ffffffffffffffffffffffffffffffffffffffff1690509392505050565b6000806000838152602001908152602001600020600d01549050919050565b600080600085815260200190815260200160002060040160008481526020019081526020016000208281548110611a3557fe5b90600052602060002090600202016001015490509392505050565b600660009054906101000a900473ffffffffffffffffffffffffffffffffffffffff1673ffffffffffffffffffffffffffffffffffffffff163373ffffffffffffffffffffffffffffffffffffffff1614611b13576040517f08c379a000000000000000000000000000000000000000000000000000000000815260040180806020018281038252600a8152602001807f6f776e6572206f6e6c790000000000000000000000000000000000000000000081525060200191505060405180910390fd5b81600460006101000a81548173ffffffffffffffffffffffffffffffffffffffff021916908373ffffffffffffffffffffffffffffffffffffffff16021790555081600560006101000a81548173ffffffffffffffffffffffffffffffffffffffff021916908373ffffffffffffffffffffffffffffffffffffffff16021790555081600760006101000a81548173ffffffffffffffffffffffffffffffffffffffff021916908373ffffffffffffffffffffffffffffffffffffffff16021790555080600860006101000a81548173ffffffffffffffffffffffffffffffffffffffff021916908373ffffffffffffffffffffffffffffffffffffffff1602179055505050565b600660009054906101000a900473ffffffffffffffffffffffffffffffffffffffff1673ffffffffffffffffffffffffffffffffffffffff163373ffffffffffffffffffffffffffffffffffffffff1614611cde576040517f08c379a000000000000000000000000000000000000000000000000000000000815260040180806020018281038252600a8152602001807f6f776e6572206f6e6c790000000000000000000000000000000000000000000081525060200191505060405180910390fd5b6000611cfe60008087815260200190815260200160002060020154610c27565b60000b14611d74576040517f08c379a000000000000000000000000000000000000000000000000000000000815260040180806020018281038252600e8152602001807f6e6f742076616c69642074696d6500000000000000000000000000000000000081525060200191505060405180910390fd5b60008085815260200190815260200160002060050160008373ffffffffffffffffffffffffffffffffffffffff1673ffffffffffffffffffffffffffffffffffffffff16815260200190815260200160002060009054906101000a900460ff1615611e47576040517f08c379a00000000000000000000000000000000000000000000000000000000081526004018080602001828103825260108152602001807f757365722070617274696369706174650000000000000000000000000000000081525060200191505060405180910390fd5b60011515600460009054906101000a900473ffffffffffffffffffffffffffffffffffffffff1673ffffffffffffffffffffffffffffffffffffffff1663362e41b6866040518263ffffffff1660e01b81526004018082815260200191505060206040518083038186803b158015611ebe57600080fd5b505afa158015611ed2573d6000803e3d6000fd5b505050506040513d6020811015611ee857600080fd5b810190808051906020019092919050505015151415611f6f576040517f08c379a00000000000000000000000000000000000000000000000000000000081526004018080602001828103825260118152602001807f6576656e7420697320726576657274656400000000000000000000000000000081525060200191505060405180910390fd5b60011515600460009054906101000a900473ffffffffffffffffffffffffffffffffffffffff1673ffffffffffffffffffffffffffffffffffffffff1663d343c1dc866040518263ffffffff1660e01b81526004018082815260200191505060206040518083038186803b158015611fe657600080fd5b505afa158015611ffa573d6000803e3d6000fd5b505050506040513d602081101561201057600080fd5b810190808051906020019092919050505015151415612097576040517f08c379a000000000000000000000000000000000000000000000000000000000815260040180806020018281038252600f8152602001807f6576656e742069732066696e697368000000000000000000000000000000000081525060200191505060405180910390fd5b600160008086815260200190815260200160002060060154116122a057600460009054906101000a900473ffffffffffffffffffffffffffffffffffffffff1673ffffffffffffffffffffffffffffffffffffffff16639ec2345a856040518263ffffffff1660e01b815260040180828152602001915050600060405180830381600087803b15801561212957600080fd5b505af115801561213d573d6000803e3d6000fd5b5050505060008060008681526020019081526020016000206006015414156121d4577f847521552ad126e64c52b14640c804737bd67f2b6674309b332d1e5b17f857d1846040518082815260200180602001828103825260138152602001807f646f206e6f74206861766520706c6179657273000000000000000000000000008152506020019250505060405180910390a161229b565b600560009054906101000a900473ffffffffffffffffffffffffffffffffffffffff1673ffffffffffffffffffffffffffffffffffffffff1663769c4898856040518263ffffffff1660e01b81526004018082815260200180602001828103825260188152602001807f6f6e6c79206f6e6520706c61796572206f6e206576656e74000000000000000081525060200192505050600060405180830381600087803b15801561228257600080fd5b505af1158015612296573d6000803e3d6000fd5b505050505b6124cc565b600080858152602001908152602001600020600a0160009054906101000a900460ff1680156122e45750600080600086815260200190815260200160002060090154145b15612342577f7d056f7ad1cec2447e1046080437b34a925f7ddd6099486d01c4e0e01bd51a8c8460008087815260200190815260200160002060060154604051808381526020018281526020019250505060405180910390a16124cb565b61234a613141565b60405180604001604052808473ffffffffffffffffffffffffffffffffffffffff168152602001838152509050600080868152602001908152602001600020600701600085815260200190815260200160002081908060018154018082558091505060019003906000526020600020906002020160009091909190915060008201518160000160006101000a81548173ffffffffffffffffffffffffffffffffffffffff021916908373ffffffffffffffffffffffffffffffffffffffff160217905550602082015181600101555050600160008087815260200190815260200160002060080160008282540192505081905550600080868152602001908152602001600020600901546000808781526020019081526020016000206008015414801561248c5750600080600087815260200190815260200160002060090154115b156124c9577fa41def8a44f88925e3e009abe2bb54653ea68faeeccd9a6a45ff94bb19f040d7856040518082815260200191505060405180910390a15b505b5b50505050565b600660009054906101000a900473ffffffffffffffffffffffffffffffffffffffff1673ffffffffffffffffffffffffffffffffffffffff163373ffffffffffffffffffffffffffffffffffffffff1614612595576040517f08c379a000000000000000000000000000000000000000000000000000000000815260040180806020018281038252600a8152602001807f6f776e6572206f6e6c790000000000000000000000000000000000000000000081525060200191505060405180910390fd5b60006125cb6000808781526020019081526020016000206001015460008088815260200190815260200160002060020154611440565b60000b14612641576040517f08c379a00000000000000000000000000000000000000000000000000000000081526004018080602001828103825260118152602001807f54696d65206973206e6f742076616c696400000000000000000000000000000081525060200191505060405180910390fd5b60011515600460009054906101000a900473ffffffffffffffffffffffffffffffffffffffff1673ffffffffffffffffffffffffffffffffffffffff1663362e41b6866040518263ffffffff1660e01b81526004018082815260200191505060206040518083038186803b1580156126b857600080fd5b505afa1580156126cc573d6000803e3d6000fd5b505050506040513d60208110156126e257600080fd5b810190808051906020019092919050505015151415612769576040517f08c379a00000000000000000000000000000000000000000000000000000000081526004018080602001828103825260118152602001807f6576656e7420697320726576657274656400000000000000000000000000000081525060200191505060405180910390fd5b60011515600460009054906101000a900473ffffffffffffffffffffffffffffffffffffffff1673ffffffffffffffffffffffffffffffffffffffff1663d343c1dc866040518263ffffffff1660e01b81526004018082815260200191505060206040518083038186803b1580156127e057600080fd5b505afa1580156127f4573d6000803e3d6000fd5b505050506040513d602081101561280a57600080fd5b810190808051906020019092919050505015151415612891576040517f08c379a000000000000000000000000000000000000000000000000000000000815260040180806020018281038252600f8152602001807f6576656e742069732066696e697368000000000000000000000000000000000081525060200191505060405180910390fd5b6001151560008086815260200190815260200160002060050160008373ffffffffffffffffffffffffffffffffffffffff1673ffffffffffffffffffffffffffffffffffffffff16815260200190815260200160002060009054906101000a900460ff161515141561294e576040517f08c379a00000000000000000000000000000000000000000000000000000000081526004018080602001828103825260218152602001806131a26021913960400191505060405180910390fd5b6001548210156129a9576040517f08c379a00000000000000000000000000000000000000000000000000000000081526004018080602001828103825260318152602001806131c36031913960400191505060405180910390fd5b6129b1613171565b60405180604001604052808373ffffffffffffffffffffffffffffffffffffffff168152602001848152509050600080868152602001908152602001600020600401600085815260200190815260200160002081908060018154018082558091505060019003906000526020600020906002020160009091909190915060008201518160000160006101000a81548173ffffffffffffffffffffffffffffffffffffffff021916908373ffffffffffffffffffffffffffffffffffffffff160217905550602082015181600101555050600160008087815260200190815260200160002060050160008473ffffffffffffffffffffffffffffffffffffffff1673ffffffffffffffffffffffffffffffffffffffff16815260200190815260200160002060006101000a81548160ff02191690831515021790555060016000808781526020019081526020016000206006016000828254019250508190555082600080878152602001908152602001600020600c016000828254019250508190555082600260009054906101000a900473ffffffffffffffffffffffffffffffffffffffff1673ffffffffffffffffffffffffffffffffffffffff1663dd62ed3e84306040518363ffffffff1660e01b8152600401808373ffffffffffffffffffffffffffffffffffffffff1681526020018273ffffffffffffffffffffffffffffffffffffffff1681526020019250505060206040518083038186803b158015612bdb57600080fd5b505afa158015612bef573d6000803e3d6000fd5b505050506040513d6020811015612c0557600080fd5b81019080805190602001909291905050501015612c8a576040517f08c379a000000000000000000000000000000000000000000000000000000000815260040180806020018281038252600f8152602001807f416c6c6f77616e6365206572726f72000000000000000000000000000000000081525060200191505060405180910390fd5b600260009054906101000a900473ffffffffffffffffffffffffffffffffffffffff1673ffffffffffffffffffffffffffffffffffffffff166323b872dd8330866040518463ffffffff1660e01b8152600401808473ffffffffffffffffffffffffffffffffffffffff1681526020018373ffffffffffffffffffffffffffffffffffffffff1681526020018281526020019350505050602060405180830381600087803b158015612d3b57600080fd5b505af1158015612d4f573d6000803e3d6000fd5b505050506040513d6020811015612d6557600080fd5b8101908080519060200190929190505050612de8576040517f08c379a000000000000000000000000000000000000000000000000000000000815260040180806020018281038252601f8152602001807f5472616e73666572204245542066726f6d20706c6179657273206572726f720081525060200191505060405180910390fd5b5050505050565b6000806000838152602001908152602001600020600301549050919050565b6000600760009054906101000a900473ffffffffffffffffffffffffffffffffffffffff1673ffffffffffffffffffffffffffffffffffffffff163373ffffffffffffffffffffffffffffffffffffffff161480612eb95750600860009054906101000a900473ffffffffffffffffffffffffffffffffffffffff1673ffffffffffffffffffffffffffffffffffffffff163373ffffffffffffffffffffffffffffffffffffffff16145b612f2b576040517f08c379a000000000000000000000000000000000000000000000000000000000815260040180806020018281038252600a8152602001807f6f776e6572206f6e6c790000000000000000000000000000000000000000000081525060200191505060405180910390fd5b600260009054906101000a900473ffffffffffffffffffffffffffffffffffffffff1673ffffffffffffffffffffffffffffffffffffffff1663a9059cbb84846040518363ffffffff1660e01b8152600401808373ffffffffffffffffffffffffffffffffffffffff16815260200182815260200192505050602060405180830381600087803b158015612fbe57600080fd5b505af1158015612fd2573d6000803e3d6000fd5b505050506040513d6020811015612fe857600080fd5b810190808051906020019092919050505061306b576040517f08c379a00000000000000000000000000000000000000000000000000000000081526004018080602001828103825260088152602001807f6d696e742065727200000000000000000000000000000000000000000000000081525060200191505060405180910390fd5b6001905092915050565b6000806000838152602001908152602001600020600a0160019054906101000a900473ffffffffffffffffffffffffffffffffffffffff169050919050565b6000806000858152602001908152602001600020600701600084815260200190815260200160002082815481106130e757fe5b906000526020600020906002020160000160009054906101000a900473ffffffffffffffffffffffffffffffffffffffff1690509392505050565b6000806000838152602001908152602001600020600601549050919050565b6040518060400160405280600073ffffffffffffffffffffffffffffffffffffffff168152602001600081525090565b6040518060400160405280600073ffffffffffffffffffffffffffffffffffffffff16815260200160008152509056fe7573657220616c726561647920706172746963697061746520696e206576656e7462657420616d6f756e74206d75737420626520626967676572206f7220657175616c20746f20302e303120746f6b656e73a2646970667358221220f502ef6b0f2c406e37d7d0629be85eadb02cfcd148e6ac5c3d64aa874894252564736f6c63430007060033",
  "immutableReferences": {},
  "source": "// SPDX-License-Identifier: MIT\npragma solidity >=0.4.22 <0.9.0;\n\nimport {TimeValidation} from \"../../helpers/TimeValidation.sol\";\nimport {BET} from \"../../tokens/BET.sol\";\nimport {BTY} from \"../../tokens/BTY.sol\";\nimport {PubStruct} from \"../../struct/PubStruct.sol\";\nimport {MPStruct} from \"../../struct/MPStruct.sol\";\nimport {MiddlePayment} from \"./MiddlePayment.sol\";\n\ncontract PublicEvents is\n    TimeValidation,\n    PubStruct\n{\n    event calculateExpert(int256 id, uint256 activePlayers);\n    event findCorrectAnswer(int256 id);\n    event revertedEvent(int256 id, string purpose);\n\n    uint minBet = 10000000000000000;\n    BET public betToken;\n    BTY public btyToken;\n    MPStruct mpData;\n    MiddlePayment mpContract;\n    address owner;\n    address MPContract;\n    address PPContract;\n    \n    constructor(BET _betAddress, BTY _btyAddress){\n        betToken = _betAddress;\n        btyToken = _btyAddress;\n        owner = msg.sender;\n    }\n\n    function setAddresses(address _mpaddr, address _ppaddr) public {\n        require( msg.sender == owner, \"owner only\");\n        mpData = MPStruct(_mpaddr);\n        mpContract = MiddlePayment(_mpaddr);\n        MPContract = _mpaddr;\n        PPContract = _ppaddr;\n    }\n\n    function newEvent(\n        int _id,\n        uint _sT,\n        uint _eT,\n        uint _questAmount,\n        uint _amountExp,\n        bool _calcExp,\n        address payable _host,\n        uint _amountPrem\n    ) public payable {\n        require( msg.sender == owner, \"owner only\");\n        events[_id].id = _id;\n        events[_id].startTime = _sT;\n        events[_id].endTime = _eT;\n        events[_id].questAmount = _questAmount;\n        events[_id].amountExperts = _amountExp;\n        events[_id].host = _host;\n        events[_id].calculateExperts = _calcExp;\n        if (_amountPrem > 0) {\n            events[_id].premiumAmount = _amountPrem;\n            require( btyToken.allowance(_host, address(this)) >= _amountPrem, \"Allowance\" );\n            require( btyToken.transferFrom(_host, address(this), _amountPrem), \"BTY PRO event\" );\n        }\n    }\n\n    function addAdvisor(address payable _advisor, int256 _id) public{\n        require( msg.sender == owner, \"owner only\");\n        events[_id].advisor = _advisor;\n    }\n\n    function setAnswer(\n        int _id,\n        uint _answer,\n        uint _amount,\n        address payable _pWallet\n    ) public payable {\n        require( msg.sender == owner, \"owner only\");\n         require(\n             timeAnswer(events[_id].startTime, events[_id].endTime) == 0,\n             \"Time is not valid\"\n         );\n         require(mpData.checkReverted(_id) != true, \"event is reverted\");\n         require(mpData.checkEventFinish(_id) != true, \"event is finish\");\n         require(\n             events[_id].allPlayers[_pWallet] != true,\n             \"user already participate in event\"\n         );\n         require(_amount >= minBet, \"bet amount must be bigger or equal to 0.01 tokens\" );\n\n        PubStruct.Player memory player;\n        player = PubStruct.Player(_pWallet, _amount);\n        events[_id].players[_answer].push(player);\n        events[_id].allPlayers[_pWallet] = true;\n        events[_id].activePlayers += 1;\n        events[_id].pool += _amount;\n\n         require(\n             betToken.allowance(_pWallet, address(this)) >= _amount,\n             \"Allowance error\"\n         );\n         require(\n             betToken.transferFrom(_pWallet, address(this), _amount),\n             \"Transfer BET from players error\"\n         );\n    }\n\n    function setValidator(\n        int _id,\n        uint _answer,\n        address payable _eWallet,\n        int _reput\n    ) public payable {\n        require( msg.sender == owner, \"owner only\");\n        require(timeValidate(events[_id].endTime) == 0, \"not valid time\"); \n        require(\n            !events[_id].allPlayers[_eWallet],\n            \"user participate\"\n        );\n        require(mpData.checkReverted(_id) != true, \"event is reverted\");\n        require(mpData.checkEventFinish(_id) != true, \"event is finish\");\n\n        if (events[_id].activePlayers <= 1) {\n            mpData.setReverted(_id);\n            if(events[_id].activePlayers == 0){\n                emit revertedEvent(_id, \"do not have players\");\n            }else{\n                mpContract.revertedPayment(_id, \"only one player on event\");\n            }\n        } else {\n            if (\n                events[_id].calculateExperts && events[_id].amountExperts == 0\n            ) {\n                emit calculateExpert(_id, events[_id].activePlayers);\n            } else {\n                PubStruct.Expert memory expert;\n                expert = PubStruct.Expert(_eWallet, _reput);\n                events[_id].expert[_answer].push(expert);\n                events[_id].activeExperts += 1;\n\n                if (events[_id].activeExperts == events[_id].amountExperts && events[_id].amountExperts > 0) {\n                    emit findCorrectAnswer(_id);\n                }\n            }\n        }\n    }\n\n    function setActiveExpertsFromOracl(uint _amount, int _id) public {\n        require( msg.sender == owner, \"owner only\");\n        events[_id].amountExperts = _amount;\n    }\n\n    function mint(address _addr, uint _amount) public returns(bool) {\n        require( msg.sender == MPContract || msg.sender == PPContract, \"owner only\");\n        require(betToken.mintFromPublicContract(_addr, _amount),\"pay err\");\n        return true;\n    }\n\n    function pay(address _addr, uint _amount) public returns(bool) {\n        require( msg.sender == MPContract || msg.sender == PPContract, \"owner only\");\n        require(betToken.transfer(_addr, _amount),\"mint err\");\n        return true;\n    }\n\n    function payBTY(address _addr, uint _amount) public returns(bool) {\n        require( msg.sender == MPContract || msg.sender == PPContract, \"owner only\");\n        require(btyToken.transfer(_addr, _amount),\"mint err\");\n        return true;\n    }\n\n}\n",
  "sourcePath": "/Users/macbook/Documents/freelance/tokenominc/contracts/matic/events/PublicEvents/PublicEvents.sol",
  "compiler": {
    "name": "solc",
    "version": "0.7.6+commit.7338295f.Linux.g++"
  },
  "schemaVersion": "3.3.4",
  "updatedAt": "2021-03-17T16:24:36.949Z",
  "devdoc": {
    "kind": "dev",
    "methods": {},
    "version": 1
  },
  "userdoc": {
    "kind": "user",
    "methods": {},
    "version": 1
  }
}