{
  "contractName": "PublicEvents",
  "abi": [
    {
      "inputs": [
        {
          "internalType": "contract BET",
          "name": "_betAdres",
          "type": "address"
        },
        {
          "internalType": "contract BTY",
          "name": "_btyAdres",
          "type": "address"
        }
      ],
      "stateMutability": "nonpayable",
      "type": "constructor"
    },
    {
      "anonymous": false,
      "inputs": [
        {
          "indexed": false,
          "internalType": "int256",
          "name": "id",
          "type": "int256"
        },
        {
          "indexed": false,
          "internalType": "uint256",
          "name": "activePlayers",
          "type": "uint256"
        }
      ],
      "name": "calculateExpert",
      "type": "event"
    },
    {
      "anonymous": false,
      "inputs": [
        {
          "indexed": false,
          "internalType": "int256",
          "name": "id",
          "type": "int256"
        },
        {
          "indexed": false,
          "internalType": "uint256",
          "name": "tokens",
          "type": "uint256"
        },
        {
          "indexed": false,
          "internalType": "uint256",
          "name": "correctAnswer",
          "type": "uint256"
        }
      ],
      "name": "eventFinish",
      "type": "event"
    },
    {
      "anonymous": false,
      "inputs": [
        {
          "indexed": false,
          "internalType": "int256",
          "name": "id",
          "type": "int256"
        }
      ],
      "name": "findCorrectAnswer",
      "type": "event"
    },
    {
      "anonymous": false,
      "inputs": [
        {
          "indexed": false,
          "internalType": "int256",
          "name": "id",
          "type": "int256"
        },
        {
          "indexed": false,
          "internalType": "uint256",
          "name": "tokens",
          "type": "uint256"
        }
      ],
      "name": "payToCompanies",
      "type": "event"
    },
    {
      "anonymous": false,
      "inputs": [
        {
          "indexed": false,
          "internalType": "int256",
          "name": "id",
          "type": "int256"
        }
      ],
      "name": "payToExperts",
      "type": "event"
    },
    {
      "anonymous": false,
      "inputs": [
        {
          "indexed": false,
          "internalType": "int256",
          "name": "id",
          "type": "int256"
        },
        {
          "indexed": false,
          "internalType": "uint256",
          "name": "avarageBet",
          "type": "uint256"
        },
        {
          "indexed": false,
          "internalType": "uint256",
          "name": "mintedTokens",
          "type": "uint256"
        }
      ],
      "name": "payToLosers",
      "type": "event"
    },
    {
      "anonymous": false,
      "inputs": [
        {
          "indexed": false,
          "internalType": "int256",
          "name": "id",
          "type": "int256"
        }
      ],
      "name": "payToPlayers",
      "type": "event"
    },
    {
      "anonymous": false,
      "inputs": [
        {
          "indexed": false,
          "internalType": "int256",
          "name": "id",
          "type": "int256"
        },
        {
          "indexed": false,
          "internalType": "string",
          "name": "purpose",
          "type": "string"
        }
      ],
      "name": "revertedEvent",
      "type": "event"
    },
    {
      "inputs": [],
      "name": "GFindex",
      "outputs": [
        {
          "internalType": "uint256",
          "name": "",
          "type": "uint256"
        }
      ],
      "stateMutability": "view",
      "type": "function"
    },
    {
      "inputs": [],
      "name": "GFrewards",
      "outputs": [
        {
          "internalType": "uint256",
          "name": "",
          "type": "uint256"
        }
      ],
      "stateMutability": "view",
      "type": "function"
    },
    {
      "inputs": [],
      "name": "advisorPepc",
      "outputs": [
        {
          "internalType": "uint256",
          "name": "",
          "type": "uint256"
        }
      ],
      "stateMutability": "view",
      "type": "function"
    },
    {
      "inputs": [],
      "name": "advisorPercMint",
      "outputs": [
        {
          "internalType": "uint256",
          "name": "",
          "type": "uint256"
        }
      ],
      "stateMutability": "view",
      "type": "function"
    },
    {
      "inputs": [],
      "name": "betToken",
      "outputs": [
        {
          "internalType": "contract BET",
          "name": "",
          "type": "address"
        }
      ],
      "stateMutability": "view",
      "type": "function"
    },
    {
      "inputs": [],
      "name": "btyToken",
      "outputs": [
        {
          "internalType": "contract BTY",
          "name": "",
          "type": "address"
        }
      ],
      "stateMutability": "view",
      "type": "function"
    },
    {
      "inputs": [
        {
          "internalType": "uint256",
          "name": "_activePlayers",
          "type": "uint256"
        },
        {
          "internalType": "uint256",
          "name": "_pool",
          "type": "uint256"
        },
        {
          "internalType": "uint256",
          "name": "_GFindex",
          "type": "uint256"
        }
      ],
      "name": "calcMintedTokens",
      "outputs": [
        {
          "internalType": "uint256",
          "name": "",
          "type": "uint256"
        }
      ],
      "stateMutability": "pure",
      "type": "function"
    },
    {
      "inputs": [],
      "name": "comMarketFundPerc",
      "outputs": [
        {
          "internalType": "uint256",
          "name": "",
          "type": "uint256"
        }
      ],
      "stateMutability": "view",
      "type": "function"
    },
    {
      "inputs": [],
      "name": "comMarketFundWallet",
      "outputs": [
        {
          "internalType": "address payable",
          "name": "",
          "type": "address"
        }
      ],
      "stateMutability": "view",
      "type": "function"
    },
    {
      "inputs": [],
      "name": "developFundPerc",
      "outputs": [
        {
          "internalType": "uint256",
          "name": "",
          "type": "uint256"
        }
      ],
      "stateMutability": "view",
      "type": "function"
    },
    {
      "inputs": [],
      "name": "developFundPercPremim",
      "outputs": [
        {
          "internalType": "uint256",
          "name": "",
          "type": "uint256"
        }
      ],
      "stateMutability": "view",
      "type": "function"
    },
    {
      "inputs": [],
      "name": "expertExtraPerc",
      "outputs": [
        {
          "internalType": "uint256",
          "name": "",
          "type": "uint256"
        }
      ],
      "stateMutability": "view",
      "type": "function"
    },
    {
      "inputs": [],
      "name": "expertPerc",
      "outputs": [
        {
          "internalType": "uint256",
          "name": "",
          "type": "uint256"
        }
      ],
      "stateMutability": "view",
      "type": "function"
    },
    {
      "inputs": [],
      "name": "expertPercMint",
      "outputs": [
        {
          "internalType": "uint256",
          "name": "",
          "type": "uint256"
        }
      ],
      "stateMutability": "view",
      "type": "function"
    },
    {
      "inputs": [],
      "name": "expertPremiumPerc",
      "outputs": [
        {
          "internalType": "uint256",
          "name": "",
          "type": "uint256"
        }
      ],
      "stateMutability": "view",
      "type": "function"
    },
    {
      "inputs": [],
      "name": "extraHostPerc",
      "outputs": [
        {
          "internalType": "uint256",
          "name": "",
          "type": "uint256"
        }
      ],
      "stateMutability": "view",
      "type": "function"
    },
    {
      "inputs": [],
      "name": "extraHostPercMint",
      "outputs": [
        {
          "internalType": "uint256",
          "name": "",
          "type": "uint256"
        }
      ],
      "stateMutability": "view",
      "type": "function"
    },
    {
      "inputs": [],
      "name": "firstWithdrawIndex",
      "outputs": [
        {
          "internalType": "uint256",
          "name": "",
          "type": "uint256"
        }
      ],
      "stateMutability": "view",
      "type": "function"
    },
    {
      "inputs": [],
      "name": "getFirstWithdraw",
      "outputs": [
        {
          "internalType": "uint256",
          "name": "",
          "type": "uint256"
        }
      ],
      "stateMutability": "view",
      "type": "function"
    },
    {
      "inputs": [
        {
          "internalType": "uint256",
          "name": "_percent",
          "type": "uint256"
        },
        {
          "internalType": "uint256",
          "name": "_from",
          "type": "uint256"
        }
      ],
      "name": "getPercent",
      "outputs": [
        {
          "internalType": "uint256",
          "name": "",
          "type": "uint256"
        }
      ],
      "stateMutability": "pure",
      "type": "function"
    },
    {
      "inputs": [],
      "name": "hostPerc",
      "outputs": [
        {
          "internalType": "uint256",
          "name": "",
          "type": "uint256"
        }
      ],
      "stateMutability": "view",
      "type": "function"
    },
    {
      "inputs": [],
      "name": "hostPercMint",
      "outputs": [
        {
          "internalType": "uint256",
          "name": "",
          "type": "uint256"
        }
      ],
      "stateMutability": "view",
      "type": "function"
    },
    {
      "inputs": [
        {
          "internalType": "int256",
          "name": "_id",
          "type": "int256"
        }
      ],
      "name": "letsFindCorrectAnswer",
      "outputs": [],
      "stateMutability": "nonpayable",
      "type": "function"
    },
    {
      "inputs": [
        {
          "internalType": "int256",
          "name": "_id",
          "type": "int256"
        }
      ],
      "name": "letsPayToCompanies",
      "outputs": [],
      "stateMutability": "nonpayable",
      "type": "function"
    },
    {
      "inputs": [
        {
          "internalType": "int256",
          "name": "_id",
          "type": "int256"
        }
      ],
      "name": "letsPayToExperts",
      "outputs": [],
      "stateMutability": "nonpayable",
      "type": "function"
    },
    {
      "inputs": [
        {
          "internalType": "int256",
          "name": "_id",
          "type": "int256"
        },
        {
          "internalType": "uint256",
          "name": "_avarageBet",
          "type": "uint256"
        },
        {
          "internalType": "uint256",
          "name": "_mintedTokens",
          "type": "uint256"
        }
      ],
      "name": "letsPayToLoosers",
      "outputs": [],
      "stateMutability": "nonpayable",
      "type": "function"
    },
    {
      "inputs": [
        {
          "internalType": "int256",
          "name": "_id",
          "type": "int256"
        }
      ],
      "name": "letsPayToPlayers",
      "outputs": [],
      "stateMutability": "nonpayable",
      "type": "function"
    },
    {
      "inputs": [],
      "name": "moderatorsFundPerc",
      "outputs": [
        {
          "internalType": "uint256",
          "name": "",
          "type": "uint256"
        }
      ],
      "stateMutability": "view",
      "type": "function"
    },
    {
      "inputs": [],
      "name": "moderatorsFundWallet",
      "outputs": [
        {
          "internalType": "address payable",
          "name": "",
          "type": "address"
        }
      ],
      "stateMutability": "view",
      "type": "function"
    },
    {
      "inputs": [],
      "name": "owner",
      "outputs": [
        {
          "internalType": "address payable",
          "name": "",
          "type": "address"
        }
      ],
      "stateMutability": "view",
      "type": "function"
    },
    {
      "inputs": [],
      "name": "playersPers",
      "outputs": [
        {
          "internalType": "uint256",
          "name": "",
          "type": "uint256"
        }
      ],
      "stateMutability": "view",
      "type": "function"
    },
    {
      "inputs": [],
      "name": "playersPersMint",
      "outputs": [
        {
          "internalType": "uint256",
          "name": "",
          "type": "uint256"
        }
      ],
      "stateMutability": "view",
      "type": "function"
    },
    {
      "inputs": [],
      "name": "playersPersPremiun",
      "outputs": [
        {
          "internalType": "uint256",
          "name": "",
          "type": "uint256"
        }
      ],
      "stateMutability": "view",
      "type": "function"
    },
    {
      "inputs": [
        {
          "internalType": "int256",
          "name": "_id",
          "type": "int256"
        },
        {
          "internalType": "string",
          "name": "purpose",
          "type": "string"
        }
      ],
      "name": "revertedPayment",
      "outputs": [],
      "stateMutability": "nonpayable",
      "type": "function"
    },
    {
      "inputs": [
        {
          "internalType": "address payable",
          "name": "_wallet",
          "type": "address"
        }
      ],
      "name": "setComMarketFundWallet",
      "outputs": [],
      "stateMutability": "nonpayable",
      "type": "function"
    },
    {
      "inputs": [
        {
          "internalType": "uint256",
          "name": "_developFundPerc",
          "type": "uint256"
        }
      ],
      "name": "setDevelopFundPerc",
      "outputs": [],
      "stateMutability": "nonpayable",
      "type": "function"
    },
    {
      "inputs": [
        {
          "internalType": "uint256",
          "name": "_expertPerc",
          "type": "uint256"
        }
      ],
      "name": "setExpertPerc",
      "outputs": [],
      "stateMutability": "nonpayable",
      "type": "function"
    },
    {
      "inputs": [
        {
          "internalType": "uint256",
          "name": "_firstWithdrawIndex",
          "type": "uint256"
        }
      ],
      "name": "setFirstWithdraw",
      "outputs": [],
      "stateMutability": "nonpayable",
      "type": "function"
    },
    {
      "inputs": [
        {
          "internalType": "uint256",
          "name": "_GFindex",
          "type": "uint256"
        }
      ],
      "name": "setGFindex",
      "outputs": [],
      "stateMutability": "nonpayable",
      "type": "function"
    },
    {
      "inputs": [
        {
          "internalType": "uint256",
          "name": "_GFrewards",
          "type": "uint256"
        }
      ],
      "name": "setGFrewards",
      "outputs": [],
      "stateMutability": "nonpayable",
      "type": "function"
    },
    {
      "inputs": [
        {
          "internalType": "uint256",
          "name": "_hostPercMint",
          "type": "uint256"
        },
        {
          "internalType": "uint256",
          "name": "_hostPerc",
          "type": "uint256"
        }
      ],
      "name": "setHostPerc",
      "outputs": [],
      "stateMutability": "nonpayable",
      "type": "function"
    },
    {
      "inputs": [
        {
          "internalType": "address payable",
          "name": "_wallet",
          "type": "address"
        }
      ],
      "name": "setModeratorsFundWallet",
      "outputs": [],
      "stateMutability": "nonpayable",
      "type": "function"
    },
    {
      "inputs": [
        {
          "internalType": "uint256",
          "name": "_playersPersMint",
          "type": "uint256"
        }
      ],
      "name": "setPlayerPersMint",
      "outputs": [],
      "stateMutability": "nonpayable",
      "type": "function"
    },
    {
      "inputs": [
        {
          "internalType": "uint256",
          "name": "_welcomeBTYTokens",
          "type": "uint256"
        }
      ],
      "name": "setWelcomeBTYTokens",
      "outputs": [],
      "stateMutability": "nonpayable",
      "type": "function"
    },
    {
      "inputs": [
        {
          "internalType": "uint256",
          "name": "_startTime",
          "type": "uint256"
        },
        {
          "internalType": "uint256",
          "name": "_endTime",
          "type": "uint256"
        }
      ],
      "name": "timeAnswer",
      "outputs": [
        {
          "internalType": "int8",
          "name": "",
          "type": "int8"
        }
      ],
      "stateMutability": "view",
      "type": "function"
    },
    {
      "inputs": [
        {
          "internalType": "uint256",
          "name": "_endTime",
          "type": "uint256"
        }
      ],
      "name": "timeValidate",
      "outputs": [
        {
          "internalType": "int8",
          "name": "",
          "type": "int8"
        }
      ],
      "stateMutability": "view",
      "type": "function"
    },
    {
      "inputs": [],
      "name": "welcomeBTYTokens",
      "outputs": [
        {
          "internalType": "uint256",
          "name": "",
          "type": "uint256"
        }
      ],
      "stateMutability": "view",
      "type": "function"
    },
    {
      "inputs": [
        {
          "internalType": "int256",
          "name": "_id",
          "type": "int256"
        },
        {
          "internalType": "uint256",
          "name": "_sT",
          "type": "uint256"
        },
        {
          "internalType": "uint256",
          "name": "_eT",
          "type": "uint256"
        },
        {
          "internalType": "uint8",
          "name": "_questAmount",
          "type": "uint8"
        },
        {
          "internalType": "uint256",
          "name": "_amountExp",
          "type": "uint256"
        },
        {
          "internalType": "bool",
          "name": "_calcExp",
          "type": "bool"
        },
        {
          "internalType": "address payable",
          "name": "_host",
          "type": "address"
        },
        {
          "internalType": "bool",
          "name": "_premium",
          "type": "bool"
        },
        {
          "internalType": "uint256",
          "name": "_amountPrem",
          "type": "uint256"
        }
      ],
      "name": "newEvent",
      "outputs": [],
      "stateMutability": "payable",
      "type": "function"
    },
    {
      "inputs": [
        {
          "internalType": "address payable",
          "name": "_advisor",
          "type": "address"
        },
        {
          "internalType": "int256",
          "name": "_id",
          "type": "int256"
        }
      ],
      "name": "addAdvisor",
      "outputs": [],
      "stateMutability": "nonpayable",
      "type": "function"
    },
    {
      "inputs": [
        {
          "internalType": "int256",
          "name": "_id",
          "type": "int256"
        },
        {
          "internalType": "uint8",
          "name": "_answer",
          "type": "uint8"
        },
        {
          "internalType": "uint256",
          "name": "_amount",
          "type": "uint256"
        },
        {
          "internalType": "address payable",
          "name": "_pWallet",
          "type": "address"
        },
        {
          "internalType": "int256",
          "name": "_playerId",
          "type": "int256"
        },
        {
          "internalType": "uint8",
          "name": "_refDeep",
          "type": "uint8"
        }
      ],
      "name": "setAnswer",
      "outputs": [],
      "stateMutability": "payable",
      "type": "function"
    },
    {
      "inputs": [
        {
          "internalType": "string",
          "name": "_key",
          "type": "string"
        },
        {
          "internalType": "address payable[]",
          "name": "_referrers",
          "type": "address[]"
        }
      ],
      "name": "setReferrers",
      "outputs": [],
      "stateMutability": "nonpayable",
      "type": "function"
    },
    {
      "inputs": [
        {
          "internalType": "int256",
          "name": "_id",
          "type": "int256"
        },
        {
          "internalType": "uint8",
          "name": "_answer",
          "type": "uint8"
        },
        {
          "internalType": "address payable",
          "name": "_eWallet",
          "type": "address"
        },
        {
          "internalType": "int256",
          "name": "_reput",
          "type": "int256"
        }
      ],
      "name": "setValidator",
      "outputs": [],
      "stateMutability": "payable",
      "type": "function"
    },
    {
      "inputs": [
        {
          "internalType": "uint256",
          "name": "_amount",
          "type": "uint256"
        },
        {
          "internalType": "int256",
          "name": "_id",
          "type": "int256"
        }
      ],
      "name": "setActiveExpertsFromOracl",
      "outputs": [],
      "stateMutability": "nonpayable",
      "type": "function"
    }
  ],
  "bytecode": "0x6080604052600a600255600460035560016004556001600555600a60065560046007556002600855600f6009556002600a556001600b556032600c55605a600d55604b600e55600a600f5568056bc75e2d631000006010556001601155678ac7230489e80000601255600a601455600a60155560056017556002601955662386f26fc10000601c553480156200009457600080fd5b50604051620062693803806200626983398181016040526040811015620000ba57600080fd5b810190808051906020019092919080519060200190929190505050818133601360006101000a81548173ffffffffffffffffffffffffffffffffffffffff021916908373ffffffffffffffffffffffffffffffffffffffff16021790555081601a60006101000a81548173ffffffffffffffffffffffffffffffffffffffff021916908373ffffffffffffffffffffffffffffffffffffffff16021790555080601b60006101000a81548173ffffffffffffffffffffffffffffffffffffffff021916908373ffffffffffffffffffffffffffffffffffffffff160217905550505050506160bb80620001ae6000396000f3fe60806040526004361061031a5760003560e01c8063802cc34c116101ab578063af9ace45116100f7578063dd3c228311610095578063e1dcc4091161006f578063e1dcc4091461108f578063e79f365d146110ba578063ef99e099146110f5578063f7ec5851146111205761031a565b8063dd3c228314610ffe578063df18581714611039578063e1755c6a146110645761031a565b8063c12c8c46116100d1578063c12c8c4614610f32578063c369085e14610f5d578063d7a86da714610f98578063dba8fe8714610fd35761031a565b8063af9ace4514610e97578063b1642b5014610ec2578063b44901e814610f075761031a565b80638da5cb5b116101645780639336e8fd1161013e5780639336e8fd14610d835780639580de6714610dbe578063a03c669714610df9578063aaa3091e14610e345761031a565b80638da5cb5b14610cc65780638fc8bc4214610d07578063903a19cf14610d325761031a565b8063802cc34c14610b13578063870d945014610b5457806388d9dd4914610b8f578063896aa7a414610bf45780638a9dbda714610c1f5780638bd6aefb14610c4a5761031a565b80633467f6971161026a5780636221986611610223578063769c4898116101fd578063769c489814610939578063786508c514610a0b57806378691f1614610a365780637dbb9dfa14610a775761031a565b8063622198661461086657806367e2a21b146108bf57806373e258ac1461090e5761031a565b80633467f697146106bd5780634a30062b146106fe578063506d05cf1461074357806353bdb0621461078457806354f6db74146107df57806355e841581461083b5761031a565b80631f36c483116102d757806324beedd3116102b157806324beedd31461061157806327e537171461063c5780632c316d05146106675780632e63e452146106925761031a565b80631f36c4831461053357806324045aad1461056e578063246fe647146105bf5761031a565b80630129f2781461031f578063134c3b071461035a57806315cfe419146103855780631882efe0146103b057806319d6b7d8146104cd5780631c40835714610508575b600080fd5b34801561032b57600080fd5b506103586004803603602081101561034257600080fd5b810190808035906020019092919050505061114b565b005b34801561036657600080fd5b5061036f611971565b6040518082815260200191505060405180910390f35b34801561039157600080fd5b5061039a611977565b6040518082815260200191505060405180910390f35b3480156103bc57600080fd5b506104cb600480360360408110156103d357600080fd5b81019080803590602001906401000000008111156103f057600080fd5b82018360208201111561040257600080fd5b8035906020019184600183028401116401000000008311171561042457600080fd5b91908080601f016020809104026020016040519081016040528093929190818152602001838380828437600081840152601f19601f8201169050808301925050505050505091929192908035906020019064010000000081111561048757600080fd5b82018360208201111561049957600080fd5b803590602001918460208302840111640100000000831117156104bb57600080fd5b909192939192939050505061197d565b005b3480156104d957600080fd5b50610506600480360360208110156104f057600080fd5b8101908080359060200190929190505050611aa4565b005b34801561051457600080fd5b5061051d611b54565b6040518082815260200191505060405180910390f35b34801561053f57600080fd5b5061056c6004803603602081101561055657600080fd5b8101908080359060200190929190505050611b5a565b005b34801561057a57600080fd5b506105bd6004803603602081101561059157600080fd5b81019080803573ffffffffffffffffffffffffffffffffffffffff1690602001909291905050506122bd565b005b3480156105cb57600080fd5b506105f8600480360360208110156105e257600080fd5b81019080803590602001909291905050506123a7565b604051808260000b815260200191505060405180910390f35b34801561061d57600080fd5b506106266123c5565b6040518082815260200191505060405180910390f35b34801561064857600080fd5b506106516123cb565b6040518082815260200191505060405180910390f35b34801561067357600080fd5b5061067c6123d1565b6040518082815260200191505060405180910390f35b34801561069e57600080fd5b506106a76123d7565b6040518082815260200191505060405180910390f35b3480156106c957600080fd5b506106d26123dd565b604051808273ffffffffffffffffffffffffffffffffffffffff16815260200191505060405180910390f35b34801561070a57600080fd5b506107416004803603604081101561072157600080fd5b810190808035906020019092919080359060200190929190505050612403565b005b34801561074f57600080fd5b506107586124c7565b604051808273ffffffffffffffffffffffffffffffffffffffff16815260200191505060405180910390f35b34801561079057600080fd5b506107dd600480360360408110156107a757600080fd5b81019080803573ffffffffffffffffffffffffffffffffffffffff169060200190929190803590602001909291905050506124ed565b005b3480156107eb57600080fd5b506108226004803603604081101561080257600080fd5b8101908080359060200190929190803590602001909291905050506125eb565b604051808260000b815260200191505060405180910390f35b34801561084757600080fd5b5061085061261d565b6040518082815260200191505060405180910390f35b34801561087257600080fd5b506108a96004803603604081101561088957600080fd5b810190808035906020019092919080359060200190929190505050612623565b6040518082815260200191505060405180910390f35b3480156108cb57600080fd5b5061090c600480360360608110156108e257600080fd5b8101908080359060200190929190803590602001909291908035906020019092919050505061263a565b005b34801561091a57600080fd5b50610923612a87565b6040518082815260200191505060405180910390f35b34801561094557600080fd5b50610a096004803603604081101561095c57600080fd5b81019080803590602001909291908035906020019064010000000081111561098357600080fd5b82018360208201111561099557600080fd5b803590602001918460018302840111640100000000831117156109b757600080fd5b91908080601f016020809104026020016040519081016040528093929190818152602001838380828437600081840152601f19601f820116905080830192505050505050509192919290505050612a8d565b005b348015610a1757600080fd5b50610a20612b41565b6040518082815260200191505060405180910390f35b348015610a4257600080fd5b50610a4b612b47565b604051808273ffffffffffffffffffffffffffffffffffffffff16815260200191505060405180910390f35b610b116004803603610120811015610a8e57600080fd5b81019080803590602001909291908035906020019092919080359060200190929190803560ff16906020019092919080359060200190929190803515159060200190929190803573ffffffffffffffffffffffffffffffffffffffff16906020019092919080351515906020019092919080359060200190929190505050612b6d565b005b348015610b1f57600080fd5b50610b2861301e565b604051808273ffffffffffffffffffffffffffffffffffffffff16815260200191505060405180910390f35b348015610b6057600080fd5b50610b8d60048036036020811015610b7757600080fd5b8101908080359060200190929190505050613044565b005b610bf260048036036080811015610ba557600080fd5b8101908080359060200190929190803560ff169060200190929190803573ffffffffffffffffffffffffffffffffffffffff1690602001909291908035906020019092919050505061387e565b005b348015610c0057600080fd5b50610c09613eb5565b6040518082815260200191505060405180910390f35b348015610c2b57600080fd5b50610c34613ebb565b6040518082815260200191505060405180910390f35b610cc4600480360360c0811015610c6057600080fd5b8101908080359060200190929190803560ff16906020019092919080359060200190929190803573ffffffffffffffffffffffffffffffffffffffff16906020019092919080359060200190929190803560ff169060200190929190505050613ec1565b005b348015610cd257600080fd5b50610cdb61478a565b604051808273ffffffffffffffffffffffffffffffffffffffff16815260200191505060405180910390f35b348015610d1357600080fd5b50610d1c6147b0565b6040518082815260200191505060405180910390f35b348015610d3e57600080fd5b50610d8160048036036020811015610d5557600080fd5b81019080803573ffffffffffffffffffffffffffffffffffffffff1690602001909291905050506147b6565b005b348015610d8f57600080fd5b50610dbc60048036036020811015610da657600080fd5b81019080803590602001909291905050506148a0565b005b348015610dca57600080fd5b50610df760048036036020811015610de157600080fd5b8101908080359060200190929190505050614950565b005b348015610e0557600080fd5b50610e3260048036036020811015610e1c57600080fd5b8101908080359060200190929190505050614a00565b005b348015610e4057600080fd5b50610e8160048036036060811015610e5757600080fd5b81019080803590602001909291908035906020019092919080359060200190929190505050614ab0565b6040518082815260200191505060405180910390f35b348015610ea357600080fd5b50610eac614af7565b6040518082815260200191505060405180910390f35b348015610ece57600080fd5b50610f0560048036036040811015610ee557600080fd5b810190808035906020019092919080359060200190929190505050614afd565b005b348015610f1357600080fd5b50610f1c614bb5565b6040518082815260200191505060405180910390f35b348015610f3e57600080fd5b50610f47614bbb565b6040518082815260200191505060405180910390f35b348015610f6957600080fd5b50610f9660048036036020811015610f8057600080fd5b8101908080359060200190929190505050614bc1565b005b348015610fa457600080fd5b50610fd160048036036020811015610fbb57600080fd5b8101908080359060200190929190505050614c71565b005b348015610fdf57600080fd5b50610fe8614d21565b6040518082815260200191505060405180910390f35b34801561100a57600080fd5b506110376004803603602081101561102157600080fd5b8101908080359060200190929190505050614d27565b005b34801561104557600080fd5b5061104e614dd7565b6040518082815260200191505060405180910390f35b34801561107057600080fd5b50611079614ddd565b6040518082815260200191505060405180910390f35b34801561109b57600080fd5b506110a4614de3565b6040518082815260200191505060405180910390f35b3480156110c657600080fd5b506110f3600480360360208110156110dd57600080fd5b8101908080359060200190929190505050614de9565b005b34801561110157600080fd5b5061110a615050565b6040518082815260200191505060405180910390f35b34801561112c57600080fd5b5061113561505e565b6040518082815260200191505060405180910390f35b601360009054906101000a900473ffffffffffffffffffffffffffffffffffffffff1673ffffffffffffffffffffffffffffffffffffffff163373ffffffffffffffffffffffffffffffffffffffff16146111f1576040517f08c379a00000000000000000000000000000000000000000000000000000000081526004018080602001828103825260318152602001806160556031913960400191505060405180910390fd5b6000611214600c54600080858152602001908152602001600020600f0154612623565b90506000611239600d54600080868152602001908152602001600020600e0154612623565b9050600080600085815260200190815260200160002060060154828161125b57fe5b049050600080600086815260200190815260200160002060100160019054906101000a900460ff16156112d05760006112ab600e5460008089815260200190815260200160002060110154612623565b90506000808781526020019081526020016000206006015481816112cb57fe5b049150505b6000805b60008088815260200190815260200160002060040160008060008a8152602001908152602001600020600c01548152602001908152602001600020805490508160ff1610156113895760008088815260200190815260200160002060040160008060008a8152602001908152602001600020600c015481526020019081526020016000208160ff168154811061136657fe5b9060005260206000209060040201600201548201915080806001019150506112d4565b5060008060008881526020019081526020016000206006015482816113aa57fe5b04905060005b60008089815260200190815260200160002060040160008060008b8152602001908152602001600020600c01548152602001908152602001600020805490508160ff1610156119205760008060008a815260200190815260200160002060040160008060008c8152602001908152602001600020600c015481526020019081526020016000208260ff168154811061144457fe5b906000526020600020906004020160020154905060008060008b815260200190815260200160002060040160008060008d8152602001908152602001600020600c015481526020019081526020016000208360ff16815481106114a357fe5b906000526020600020906004020160010160009054906101000a900473ffffffffffffffffffffffffffffffffffffffff16905060008060008c8152602001908152602001600020600601548a816114f757fe5b0485848161150157fe5b04029050601a60009054906101000a900473ffffffffffffffffffffffffffffffffffffffff1673ffffffffffffffffffffffffffffffffffffffff1663341ce1fc83836040518363ffffffff1660e01b8152600401808373ffffffffffffffffffffffffffffffffffffffff16815260200182815260200192505050602060405180830381600087803b15801561159857600080fd5b505af11580156115ac573d6000803e3d6000fd5b505050506040513d60208110156115c257600080fd5b8101908080519060200190929190505050611645576040517f08c379a00000000000000000000000000000000000000000000000000000000081526004018080602001828103825260068152602001807f4d20506c6179000000000000000000000000000000000000000000000000000081525060200191505060405180910390fd5b60008886858161165157fe5b04029050601a60009054906101000a900473ffffffffffffffffffffffffffffffffffffffff1673ffffffffffffffffffffffffffffffffffffffff1663a9059cbb84836040518363ffffffff1660e01b8152600401808373ffffffffffffffffffffffffffffffffffffffff16815260200182815260200192505050602060405180830381600087803b1580156116e857600080fd5b505af11580156116fc573d6000803e3d6000fd5b505050506040513d602081101561171257600080fd5b8101908080519060200190929190505050611795576040517f08c379a00000000000000000000000000000000000000000000000000000000081526004018080602001828103825260068152602001807f5020506c6179000000000000000000000000000000000000000000000000000081525060200191505060405180910390fd5b6000808d815260200190815260200160002060100160019054906101000a900460ff161561190f576000888786816117c957fe5b04029050601b60009054906101000a900473ffffffffffffffffffffffffffffffffffffffff1673ffffffffffffffffffffffffffffffffffffffff1663a9059cbb85836040518363ffffffff1660e01b8152600401808373ffffffffffffffffffffffffffffffffffffffff16815260200182815260200192505050602060405180830381600087803b15801561186057600080fd5b505af1158015611874573d6000803e3d6000fd5b505050506040513d602081101561188a57600080fd5b810190808051906020019092919050505061190d576040517f08c379a000000000000000000000000000000000000000000000000000000000815260040180806020018281038252600b8152602001807f5072656d207020506c617900000000000000000000000000000000000000000081525060200191505060405180910390fd5b505b5050505080806001019150506113b0565b507f3dab09e521e432fcf2c4241a48669ead87a2cb753a8c38ac04f33c85b42ddf3e87828860405180848152602001838152602001828152602001935050505060405180910390a150505050505050565b600e5481565b60115481565b601360009054906101000a900473ffffffffffffffffffffffffffffffffffffffff1673ffffffffffffffffffffffffffffffffffffffff163373ffffffffffffffffffffffffffffffffffffffff1614611a23576040517f08c379a00000000000000000000000000000000000000000000000000000000081526004018080602001828103825260318152602001806160556031913960400191505060405180910390fd5b81816001856040518082805190602001908083835b60208310611a5b5780518252602082019150602081019050602083039250611a38565b6001836020036101000a03801982511681845116808217855250505050505090500191505090815260200160405180910390206000019190611a9e929190615f97565b50505050565b601360009054906101000a900473ffffffffffffffffffffffffffffffffffffffff1673ffffffffffffffffffffffffffffffffffffffff163373ffffffffffffffffffffffffffffffffffffffff1614611b4a576040517f08c379a00000000000000000000000000000000000000000000000000000000081526004018080602001828103825260318152602001806160556031913960400191505060405180910390fd5b8060128190555050565b60145481565b601360009054906101000a900473ffffffffffffffffffffffffffffffffffffffff1673ffffffffffffffffffffffffffffffffffffffff163373ffffffffffffffffffffffffffffffffffffffff1614611c00576040517f08c379a00000000000000000000000000000000000000000000000000000000081526004018080602001828103825260318152602001806160556031913960400191505060405180910390fd5b601a60009054906101000a900473ffffffffffffffffffffffffffffffffffffffff1673ffffffffffffffffffffffffffffffffffffffff1663341ce1fc601360009054906101000a900473ffffffffffffffffffffffffffffffffffffffff16611c82600080868152602001908152602001600020600f0154601454612623565b6040518363ffffffff1660e01b8152600401808373ffffffffffffffffffffffffffffffffffffffff16815260200182815260200192505050602060405180830381600087803b158015611cd557600080fd5b505af1158015611ce9573d6000803e3d6000fd5b505050506040513d6020811015611cff57600080fd5b8101908080519060200190929190505050611d82576040517f08c379a00000000000000000000000000000000000000000000000000000000081526004018080602001828103825260048152602001807f4d2044460000000000000000000000000000000000000000000000000000000081525060200191505060405180910390fd5b60008082815260200190815260200160002060100160019054906101000a900460ff1615611f2d57601b60009054906101000a900473ffffffffffffffffffffffffffffffffffffffff1673ffffffffffffffffffffffffffffffffffffffff1663a9059cbb601360009054906101000a900473ffffffffffffffffffffffffffffffffffffffff16611e2c60008086815260200190815260200160002060110154601554612623565b6040518363ffffffff1660e01b8152600401808373ffffffffffffffffffffffffffffffffffffffff16815260200182815260200192505050602060405180830381600087803b158015611e7f57600080fd5b505af1158015611e93573d6000803e3d6000fd5b505050506040513d6020811015611ea957600080fd5b8101908080519060200190929190505050611f2c576040517f08c379a00000000000000000000000000000000000000000000000000000000081526004018080602001828103825260088152602001807f507265207020444600000000000000000000000000000000000000000000000081525060200191505060405180910390fd5b5b60008073ffffffffffffffffffffffffffffffffffffffff16600080848152602001908152602001600020600b0160009054906101000a900473ffffffffffffffffffffffffffffffffffffffff1673ffffffffffffffffffffffffffffffffffffffff161415611fa857600a546005546017540101611fac565b6017545b9050601a60009054906101000a900473ffffffffffffffffffffffffffffffffffffffff1673ffffffffffffffffffffffffffffffffffffffff1663341ce1fc601660009054906101000a900473ffffffffffffffffffffffffffffffffffffffff1661202e600080878152602001908152602001600020600f015485612623565b6040518363ffffffff1660e01b8152600401808373ffffffffffffffffffffffffffffffffffffffff16815260200182815260200192505050602060405180830381600087803b15801561208157600080fd5b505af1158015612095573d6000803e3d6000fd5b505050506040513d60208110156120ab57600080fd5b810190808051906020019092919050505061212e576040517f08c379a00000000000000000000000000000000000000000000000000000000081526004018080602001828103825260058152602001807f4d20434d4600000000000000000000000000000000000000000000000000000081525060200191505060405180910390fd5b601a60009054906101000a900473ffffffffffffffffffffffffffffffffffffffff1673ffffffffffffffffffffffffffffffffffffffff1663341ce1fc601860009054906101000a900473ffffffffffffffffffffffffffffffffffffffff166121b0600080878152602001908152602001600020600f0154601954612623565b6040518363ffffffff1660e01b8152600401808373ffffffffffffffffffffffffffffffffffffffff16815260200182815260200192505050602060405180830381600087803b15801561220357600080fd5b505af1158015612217573d6000803e3d6000fd5b505050506040513d602081101561222d57600080fd5b81019080805190602001909291905050506122b0576040517f08c379a00000000000000000000000000000000000000000000000000000000081526004018080602001828103825260048152602001807f4d204d460000000000000000000000000000000000000000000000000000000081525060200191505060405180910390fd5b6122b982615064565b5050565b601360009054906101000a900473ffffffffffffffffffffffffffffffffffffffff1673ffffffffffffffffffffffffffffffffffffffff163373ffffffffffffffffffffffffffffffffffffffff1614612363576040517f08c379a00000000000000000000000000000000000000000000000000000000081526004018080602001828103825260318152602001806160556031913960400191505060405180910390fd5b80601860006101000a81548173ffffffffffffffffffffffffffffffffffffffff021916908373ffffffffffffffffffffffffffffffffffffffff16021790555050565b600080824203126123bb57600090506123c0565b600190505b919050565b60195481565b600d5481565b60085481565b60125481565b601860009054906101000a900473ffffffffffffffffffffffffffffffffffffffff1681565b601360009054906101000a900473ffffffffffffffffffffffffffffffffffffffff1673ffffffffffffffffffffffffffffffffffffffff163373ffffffffffffffffffffffffffffffffffffffff16146124a9576040517f08c379a00000000000000000000000000000000000000000000000000000000081526004018080602001828103825260318152602001806160556031913960400191505060405180910390fd5b81600080838152602001908152602001600020600901819055505050565b601b60009054906101000a900473ffffffffffffffffffffffffffffffffffffffff1681565b601360009054906101000a900473ffffffffffffffffffffffffffffffffffffffff1673ffffffffffffffffffffffffffffffffffffffff163373ffffffffffffffffffffffffffffffffffffffff1614612593576040517f08c379a00000000000000000000000000000000000000000000000000000000081526004018080602001828103825260318152602001806160556031913960400191505060405180910390fd5b81600080838152602001908152602001600020600b0160006101000a81548173ffffffffffffffffffffffffffffffffffffffff021916908373ffffffffffffffffffffffffffffffffffffffff1602179055505050565b60008083420312612612576000428303126126095760009050612617565b60029050612617565b600190505b92915050565b60055481565b600060648383028161263157fe5b04905092915050565b601360009054906101000a900473ffffffffffffffffffffffffffffffffffffffff1673ffffffffffffffffffffffffffffffffffffffff163373ffffffffffffffffffffffffffffffffffffffff16146126e0576040517f08c379a00000000000000000000000000000000000000000000000000000000081526004018080602001828103825260318152602001806160556031913960400191505060405180910390fd5b60005b60008085815260200190815260200160002060030160009054906101000a900460ff1660ff168160ff1610156129e2578060ff16600080868152602001908152602001600020600c0154141580156127685750600080600086815260200190815260200160002060040160008360ff1681526020019081526020016000208054905014155b156129d55760005b60008086815260200190815260200160002060040160008360ff168152602001908152602001600020805490508160ff1610156129d35760008060008781526020019081526020016000206006015484816127c757fe5b048560008089815260200190815260200160002060040160008660ff1681526020019081526020016000208460ff168154811061280057fe5b9060005260206000209060040201600201548161281957fe5b04029050601a60009054906101000a900473ffffffffffffffffffffffffffffffffffffffff1673ffffffffffffffffffffffffffffffffffffffff1663341ce1fc60008089815260200190815260200160002060040160008660ff1681526020019081526020016000208460ff168154811061289257fe5b906000526020600020906004020160010160009054906101000a900473ffffffffffffffffffffffffffffffffffffffff16836040518363ffffffff1660e01b8152600401808373ffffffffffffffffffffffffffffffffffffffff16815260200182815260200192505050602060405180830381600087803b15801561291857600080fd5b505af115801561292c573d6000803e3d6000fd5b505050506040513d602081101561294257600080fd5b81019080805190602001909291905050506129c5576040517f08c379a00000000000000000000000000000000000000000000000000000000081526004018080602001828103825260088152602001807f50206c6f7365727300000000000000000000000000000000000000000000000081525060200191505060405180910390fd5b508080600101915050612770565b505b80806001019150506126e3565b50600160008085815260200190815260200160002060120160006101000a81548160ff0219169083151502179055507f77259c2197fdb6e5ec1a797cb26a9e940c2ffb127130eee76de7c6b82acd869783600080868152602001908152602001600020600f0154600080878152602001908152602001600020600c015460405180848152602001838152602001828152602001935050505060405180910390a1505050565b600c5481565b601360009054906101000a900473ffffffffffffffffffffffffffffffffffffffff1673ffffffffffffffffffffffffffffffffffffffff163373ffffffffffffffffffffffffffffffffffffffff1614612b33576040517f08c379a00000000000000000000000000000000000000000000000000000000081526004018080602001828103825260318152602001806160556031913960400191505060405180910390fd5b612b3d8282615a93565b5050565b600b5481565b601a60009054906101000a900473ffffffffffffffffffffffffffffffffffffffff1681565b601360009054906101000a900473ffffffffffffffffffffffffffffffffffffffff1673ffffffffffffffffffffffffffffffffffffffff163373ffffffffffffffffffffffffffffffffffffffff1614612c13576040517f08c379a00000000000000000000000000000000000000000000000000000000081526004018080602001828103825260318152602001806160556031913960400191505060405180910390fd5b886000808b815260200190815260200160002060000181905550876000808b815260200190815260200160002060010181905550866000808b815260200190815260200160002060020181905550856000808b815260200190815260200160002060030160006101000a81548160ff021916908360ff160217905550846000808b815260200190815260200160002060090181905550826000808b8152602001908152602001600020600a0160016101000a81548173ffffffffffffffffffffffffffffffffffffffff021916908373ffffffffffffffffffffffffffffffffffffffff160217905550836000808b8152602001908152602001600020600a0160006101000a81548160ff021916908315150217905550816000808b815260200190815260200160002060100160016101000a81548160ff02191690831515021790555081156130135780601b60009054906101000a900473ffffffffffffffffffffffffffffffffffffffff1673ffffffffffffffffffffffffffffffffffffffff1663dd62ed3e85306040518363ffffffff1660e01b8152600401808373ffffffffffffffffffffffffffffffffffffffff1681526020018273ffffffffffffffffffffffffffffffffffffffff1681526020019250505060206040518083038186803b158015612e0557600080fd5b505afa158015612e19573d6000803e3d6000fd5b505050506040513d6020811015612e2f57600080fd5b81019080805190602001909291905050501015612eb4576040517f08c379a00000000000000000000000000000000000000000000000000000000081526004018080602001828103825260028152602001807f414500000000000000000000000000000000000000000000000000000000000081525060200191505060405180910390fd5b601b60009054906101000a900473ffffffffffffffffffffffffffffffffffffffff1673ffffffffffffffffffffffffffffffffffffffff166323b872dd8430846040518463ffffffff1660e01b8152600401808473ffffffffffffffffffffffffffffffffffffffff1681526020018373ffffffffffffffffffffffffffffffffffffffff1681526020018281526020019350505050602060405180830381600087803b158015612f6557600080fd5b505af1158015612f79573d6000803e3d6000fd5b505050506040513d6020811015612f8f57600080fd5b8101908080519060200190929190505050613012576040517f08c379a000000000000000000000000000000000000000000000000000000000815260040180806020018281038252600d8152602001807f4254592050524f206576656e740000000000000000000000000000000000000081525060200191505060405180910390fd5b5b505050505050505050565b601660009054906101000a900473ffffffffffffffffffffffffffffffffffffffff1681565b601360009054906101000a900473ffffffffffffffffffffffffffffffffffffffff1673ffffffffffffffffffffffffffffffffffffffff163373ffffffffffffffffffffffffffffffffffffffff16146130ea576040517f08c379a00000000000000000000000000000000000000000000000000000000081526004018080602001828103825260318152602001806160556031913960400191505060405180910390fd5b600080600073ffffffffffffffffffffffffffffffffffffffff16600080858152602001908152602001600020600b0160009054906101000a900473ffffffffffffffffffffffffffffffffffffffff1673ffffffffffffffffffffffffffffffffffffffff1614156131635760085460075401613167565b6007545b905060005b6000808581526020019081526020016000206007016000806000878152602001908152602001600020600c01548152602001908152602001600020805490508160ff1610156132845760008060008681526020019081526020016000206007016000806000888152602001908152602001600020600c015481526020019081526020016000208260ff168154811061320057fe5b90600052602060002090600202016001015412613277576000808581526020019081526020016000206007016000806000878152602001908152602001600020600c015481526020019081526020016000208160ff168154811061326057fe5b906000526020600020906002020160010154830192505b808060010191505061316c565b5060005b6000808581526020019081526020016000206007016000806000878152602001908152602001600020600c01548152602001908152602001600020805490508160ff1610156138415760008060008681526020019081526020016000206007016000806000888152602001908152602001600020600c015481526020019081526020016000208260ff168154811061331c57fe5b906000526020600020906002020160010154905060008060008781526020019081526020016000206007016000806000898152602001908152602001600020600c015481526020019081526020016000208360ff168154811061337b57fe5b906000526020600020906002020160000160009054906101000a900473ffffffffffffffffffffffffffffffffffffffff1690506000821261383257600085836133dc6000808b8152602001908152602001600020600f0154600654612623565b02816133e457fe5b049050601a60009054906101000a900473ffffffffffffffffffffffffffffffffffffffff1673ffffffffffffffffffffffffffffffffffffffff1663341ce1fc83836040518363ffffffff1660e01b8152600401808373ffffffffffffffffffffffffffffffffffffffff16815260200182815260200192505050602060405180830381600087803b15801561347a57600080fd5b505af115801561348e573d6000803e3d6000fd5b505050506040513d60208110156134a457600080fd5b8101908080519060200190929190505050613527576040517f08c379a00000000000000000000000000000000000000000000000000000000081526004018080602001828103825260058152602001807f4d2045787000000000000000000000000000000000000000000000000000000081525060200191505060405180910390fd5b6000868461354a6000808c8152602001908152602001600020600d015489612623565b028161355257fe5b049050601a60009054906101000a900473ffffffffffffffffffffffffffffffffffffffff1673ffffffffffffffffffffffffffffffffffffffff1663a9059cbb84836040518363ffffffff1660e01b8152600401808373ffffffffffffffffffffffffffffffffffffffff16815260200182815260200192505050602060405180830381600087803b1580156135e857600080fd5b505af11580156135fc573d6000803e3d6000fd5b505050506040513d602081101561361257600080fd5b8101908080519060200190929190505050613695576040517f08c379a00000000000000000000000000000000000000000000000000000000081526004018080602001828103825260058152602001807f502045787000000000000000000000000000000000000000000000000000000081525060200191505060405180910390fd5b60008089815260200190815260200160002060100160019054906101000a900460ff161561382f57600087856136e26000808d815260200190815260200160002060110154600954612623565b02816136ea57fe5b049050601b60009054906101000a900473ffffffffffffffffffffffffffffffffffffffff1673ffffffffffffffffffffffffffffffffffffffff1663a9059cbb85836040518363ffffffff1660e01b8152600401808373ffffffffffffffffffffffffffffffffffffffff16815260200182815260200192505050602060405180830381600087803b15801561378057600080fd5b505af1158015613794573d6000803e3d6000fd5b505050506040513d60208110156137aa57600080fd5b810190808051906020019092919050505061382d576040517f08c379a000000000000000000000000000000000000000000000000000000000815260040180806020018281038252600a8152602001807f5072656d2070204578700000000000000000000000000000000000000000000081525060200191505060405180910390fd5b505b50505b50508080600101915050613288565b507f1e22c3f76c05a9a36262788cbb4f5ee1afd505e9a6b5a48f9b82249539202c1d836040518082815260200191505060405180910390a1505050565b601360009054906101000a900473ffffffffffffffffffffffffffffffffffffffff1673ffffffffffffffffffffffffffffffffffffffff163373ffffffffffffffffffffffffffffffffffffffff1614613924576040517f08c379a00000000000000000000000000000000000000000000000000000000081526004018080602001828103825260318152602001806160556031913960400191505060405180910390fd5b6000613944600080878152602001908152602001600020600201546123a7565b60000b146139ba576040517f08c379a00000000000000000000000000000000000000000000000000000000081526004018080602001828103825260038152602001807f4e5654000000000000000000000000000000000000000000000000000000000081525060200191505060405180910390fd5b60008085815260200190815260200160002060050160008373ffffffffffffffffffffffffffffffffffffffff1673ffffffffffffffffffffffffffffffffffffffff16815260200190815260200160002060009054906101000a900460ff1615613a8d576040517f08c379a00000000000000000000000000000000000000000000000000000000081526004018080602001828103825260108152602001807f757365722070617274696369706174650000000000000000000000000000000081525060200191505060405180910390fd5b60008085815260200190815260200160002060100160009054906101000a900460ff1615613b23576040517f08c379a00000000000000000000000000000000000000000000000000000000081526004018080602001828103825260088152602001807f726576657274656400000000000000000000000000000000000000000000000081525060200191505060405180910390fd5b60008085815260200190815260200160002060120160009054906101000a900460ff1615613bb9576040517f08c379a00000000000000000000000000000000000000000000000000000000081526004018080602001828103825260088152602001807f66696e697368656400000000000000000000000000000000000000000000000081525060200191505060405180910390fd5b6000806000868152602001908152602001600020600601541415613c7a57600160008086815260200190815260200160002060100160006101000a81548160ff0219169083151502179055507f847521552ad126e64c52b14640c804737bd67f2b6674309b332d1e5b17f857d1846040518082815260200180602001828103825260138152602001807f646f206e6f74206861766520706c6179657273000000000000000000000000008152506020019250505060405180910390a1613eaf565b600080858152602001908152602001600020600a0160009054906101000a900460ff168015613cbe5750600080600086815260200190815260200160002060090154145b15613d1c577f7d056f7ad1cec2447e1046080437b34a925f7ddd6099486d01c4e0e01bd51a8c8460008087815260200190815260200160002060060154604051808381526020018281526020019250505060405180910390a1613eae565b60008060008681526020019081526020016000206008015490508260008087815260200190815260200160002060070160008660ff1681526020019081526020016000208281548110613d6b57fe5b906000526020600020906002020160000160006101000a81548173ffffffffffffffffffffffffffffffffffffffff021916908373ffffffffffffffffffffffffffffffffffffffff1602179055508160008087815260200190815260200160002060070160008660ff1681526020019081526020016000208281548110613def57fe5b90600052602060002090600202016001018190555060018101600080878152602001908152602001600020600801819055506000808681526020019081526020016000206009015460008087815260200190815260200160002060080154148015613e6f5750600080600087815260200190815260200160002060090154115b15613eac577fa41def8a44f88925e3e009abe2bb54653ea68faeeccd9a6a45ff94bb19f040d7856040518082815260200191505060405180910390a15b505b5b50505050565b60075481565b60025481565b601360009054906101000a900473ffffffffffffffffffffffffffffffffffffffff1673ffffffffffffffffffffffffffffffffffffffff163373ffffffffffffffffffffffffffffffffffffffff1614613f67576040517f08c379a00000000000000000000000000000000000000000000000000000000081526004018080602001828103825260318152602001806160556031913960400191505060405180910390fd5b6000613f9d600080898152602001908152602001600020600101546000808a8152602001908152602001600020600201546125eb565b60000b14614013576040517f08c379a00000000000000000000000000000000000000000000000000000000081526004018080602001828103825260038152602001807f4e5654000000000000000000000000000000000000000000000000000000000081525060200191505060405180910390fd5b60008087815260200190815260200160002060100160009054906101000a900460ff16156140a9576040517f08c379a00000000000000000000000000000000000000000000000000000000081526004018080602001828103825260088152602001807f726576657274656400000000000000000000000000000000000000000000000081525060200191505060405180910390fd5b60008087815260200190815260200160002060120160009054906101000a900460ff161561413f576040517f08c379a00000000000000000000000000000000000000000000000000000000081526004018080602001828103825260088152602001807f66696e697368656400000000000000000000000000000000000000000000000081525060200191505060405180910390fd5b60008087815260200190815260200160002060050160008473ffffffffffffffffffffffffffffffffffffffff1673ffffffffffffffffffffffffffffffffffffffff16815260200190815260200160002060009054906101000a900460ff1615614212576040517f08c379a000000000000000000000000000000000000000000000000000000000815260040180806020018281038252600a8152602001807f757365722065786973740000000000000000000000000000000000000000000081525060200191505060405180910390fd5b601c5484101561428a576040517f08c379a00000000000000000000000000000000000000000000000000000000081526004018080602001828103825260068152602001807f616d6f756e74000000000000000000000000000000000000000000000000000081525060200191505060405180910390fd5b60008060008881526020019081526020016000206006015490508260008089815260200190815260200160002060040160008860ff16815260200190815260200160002082815481106142d957fe5b9060005260206000209060040201600001819055508360008089815260200190815260200160002060040160008860ff168152602001908152602001600020828154811061432357fe5b906000526020600020906004020160010160006101000a81548173ffffffffffffffffffffffffffffffffffffffff021916908373ffffffffffffffffffffffffffffffffffffffff1602179055508460008089815260200190815260200160002060040160008860ff16815260200190815260200160002082815481106143a757fe5b9060005260206000209060040201600201819055508160008089815260200190815260200160002060040160008860ff16815260200190815260200160002082815481106143f157fe5b906000526020600020906004020160030160006101000a81548160ff021916908360ff160217905550600160008089815260200190815260200160002060050160008673ffffffffffffffffffffffffffffffffffffffff1673ffffffffffffffffffffffffffffffffffffffff16815260200190815260200160002060006101000a81548160ff02191690831515021790555060016000808981526020019081526020016000206006016000828254019250508190555084600080898152602001908152602001600020600d016000828254019250508190555084601a60009054906101000a900473ffffffffffffffffffffffffffffffffffffffff1673ffffffffffffffffffffffffffffffffffffffff1663dd62ed3e86306040518363ffffffff1660e01b8152600401808373ffffffffffffffffffffffffffffffffffffffff1681526020018273ffffffffffffffffffffffffffffffffffffffff1681526020019250505060206040518083038186803b15801561457457600080fd5b505afa158015614588573d6000803e3d6000fd5b505050506040513d602081101561459e57600080fd5b81019080805190602001909291905050501015614623576040517f08c379a00000000000000000000000000000000000000000000000000000000081526004018080602001828103825260028152602001807f414500000000000000000000000000000000000000000000000000000000000081525060200191505060405180910390fd5b601a60009054906101000a900473ffffffffffffffffffffffffffffffffffffffff1673ffffffffffffffffffffffffffffffffffffffff166323b872dd8530886040518463ffffffff1660e01b8152600401808473ffffffffffffffffffffffffffffffffffffffff1681526020018373ffffffffffffffffffffffffffffffffffffffff1681526020018281526020019350505050602060405180830381600087803b1580156146d457600080fd5b505af11580156146e8573d6000803e3d6000fd5b505050506040513d60208110156146fe57600080fd5b8101908080519060200190929190505050614781576040517f08c379a000000000000000000000000000000000000000000000000000000000815260040180806020018281038252600b8152602001807f42545920706c617965727300000000000000000000000000000000000000000081525060200191505060405180910390fd5b50505050505050565b601360009054906101000a900473ffffffffffffffffffffffffffffffffffffffff1681565b60035481565b601360009054906101000a900473ffffffffffffffffffffffffffffffffffffffff1673ffffffffffffffffffffffffffffffffffffffff163373ffffffffffffffffffffffffffffffffffffffff161461485c576040517f08c379a00000000000000000000000000000000000000000000000000000000081526004018080602001828103825260318152602001806160556031913960400191505060405180910390fd5b80601660006101000a81548173ffffffffffffffffffffffffffffffffffffffff021916908373ffffffffffffffffffffffffffffffffffffffff16021790555050565b601360009054906101000a900473ffffffffffffffffffffffffffffffffffffffff1673ffffffffffffffffffffffffffffffffffffffff163373ffffffffffffffffffffffffffffffffffffffff1614614946576040517f08c379a00000000000000000000000000000000000000000000000000000000081526004018080602001828103825260318152602001806160556031913960400191505060405180910390fd5b80600c8190555050565b601360009054906101000a900473ffffffffffffffffffffffffffffffffffffffff1673ffffffffffffffffffffffffffffffffffffffff163373ffffffffffffffffffffffffffffffffffffffff16146149f6576040517f08c379a00000000000000000000000000000000000000000000000000000000081526004018080602001828103825260318152602001806160556031913960400191505060405180910390fd5b8060078190555050565b601360009054906101000a900473ffffffffffffffffffffffffffffffffffffffff1673ffffffffffffffffffffffffffffffffffffffff163373ffffffffffffffffffffffffffffffffffffffff1614614aa6576040517f08c379a00000000000000000000000000000000000000000000000000000000081526004018080602001828103825260318152602001806160556031913960400191505060405180910390fd5b80600f8190555050565b60008060648560640381614ac057fe5b0490506000858581614ace57fe5b0490506064670de0b6b3a7640000858489850202020281614aeb57fe5b04925050509392505050565b60065481565b601360009054906101000a900473ffffffffffffffffffffffffffffffffffffffff1673ffffffffffffffffffffffffffffffffffffffff163373ffffffffffffffffffffffffffffffffffffffff1614614ba3576040517f08c379a00000000000000000000000000000000000000000000000000000000081526004018080602001828103825260318152602001806160556031913960400191505060405180910390fd5b81600281905550806003819055505050565b600f5481565b60045481565b601360009054906101000a900473ffffffffffffffffffffffffffffffffffffffff1673ffffffffffffffffffffffffffffffffffffffff163373ffffffffffffffffffffffffffffffffffffffff1614614c67576040517f08c379a00000000000000000000000000000000000000000000000000000000081526004018080602001828103825260318152602001806160556031913960400191505060405180910390fd5b8060118190555050565b601360009054906101000a900473ffffffffffffffffffffffffffffffffffffffff1673ffffffffffffffffffffffffffffffffffffffff163373ffffffffffffffffffffffffffffffffffffffff1614614d17576040517f08c379a00000000000000000000000000000000000000000000000000000000081526004018080602001828103825260318152602001806160556031913960400191505060405180910390fd5b8060108190555050565b60095481565b601360009054906101000a900473ffffffffffffffffffffffffffffffffffffffff1673ffffffffffffffffffffffffffffffffffffffff163373ffffffffffffffffffffffffffffffffffffffff1614614dcd576040517f08c379a00000000000000000000000000000000000000000000000000000000081526004018080602001828103825260318152602001806160556031913960400191505060405180910390fd5b8060148190555050565b60105481565b60175481565b60155481565b601360009054906101000a900473ffffffffffffffffffffffffffffffffffffffff1673ffffffffffffffffffffffffffffffffffffffff163373ffffffffffffffffffffffffffffffffffffffff1614614e8f576040517f08c379a00000000000000000000000000000000000000000000000000000000081526004018080602001828103825260318152602001806160556031913960400191505060405180910390fd5b600080600080600090505b60008086815260200190815260200160002060030160009054906101000a900460ff1660ff168160ff161015614faa578360008087815260200190815260200160002060070160008360ff168152602001908152602001600020805490501115614f385760008086815260200190815260200160002060070160008260ff1681526020019081526020016000208054905093508060ff169150614f9d565b8360008087815260200190815260200160002060070160008360ff168152602001908152602001600020805490501415614f9c5760008086815260200190815260200160002060070160008260ff1681526020019081526020016000208054905092505b5b8080600101915050614e9a565b508282141561502557600160008086815260200190815260200160002060100160006101000a81548160ff021916908315150217905550615020846040518060400160405280600f81526020017f6475706c69636174206578706572740000000000000000000000000000000000815250615a93565b61504a565b80600080868152602001908152602001600020600c01819055506150498185615de2565b5b50505050565b6000600f5460125402905090565b600a5481565b600073ffffffffffffffffffffffffffffffffffffffff16600080838152602001908152602001600020600b0160009054906101000a900473ffffffffffffffffffffffffffffffffffffffff1673ffffffffffffffffffffffffffffffffffffffff161461572e57601a60009054906101000a900473ffffffffffffffffffffffffffffffffffffffff1673ffffffffffffffffffffffffffffffffffffffff1663341ce1fc600080848152602001908152602001600020600a0160019054906101000a900473ffffffffffffffffffffffffffffffffffffffff16615166600080868152602001908152602001600020600f015460055460025401612623565b6040518363ffffffff1660e01b8152600401808373ffffffffffffffffffffffffffffffffffffffff16815260200182815260200192505050602060405180830381600087803b1580156151b957600080fd5b505af11580156151cd573d6000803e3d6000fd5b505050506040513d60208110156151e357600080fd5b8101908080519060200190929190505050615266576040517f08c379a000000000000000000000000000000000000000000000000000000000815260040180806020018281038252600f8152602001807f4d20486f7374207769746820616476000000000000000000000000000000000081525060200191505060405180910390fd5b601a60009054906101000a900473ffffffffffffffffffffffffffffffffffffffff1673ffffffffffffffffffffffffffffffffffffffff1663341ce1fc600080848152602001908152602001600020600b0160009054906101000a900473ffffffffffffffffffffffffffffffffffffffff166152fb600080868152602001908152602001600020600f0154600a54612623565b6040518363ffffffff1660e01b8152600401808373ffffffffffffffffffffffffffffffffffffffff16815260200182815260200192505050602060405180830381600087803b15801561534e57600080fd5b505af1158015615362573d6000803e3d6000fd5b505050506040513d602081101561537857600080fd5b81019080805190602001909291905050506153fb576040517f08c379a00000000000000000000000000000000000000000000000000000000081526004018080602001828103825260088152602001807f4d20746f2041647600000000000000000000000000000000000000000000000081525060200191505060405180910390fd5b601a60009054906101000a900473ffffffffffffffffffffffffffffffffffffffff1673ffffffffffffffffffffffffffffffffffffffff1663a9059cbb600080848152602001908152602001600020600a0160019054906101000a900473ffffffffffffffffffffffffffffffffffffffff16615494600080868152602001908152602001600020600d015460045460035401612623565b6040518363ffffffff1660e01b8152600401808373ffffffffffffffffffffffffffffffffffffffff16815260200182815260200192505050602060405180830381600087803b1580156154e757600080fd5b505af11580156154fb573d6000803e3d6000fd5b505050506040513d602081101561551157600080fd5b8101908080519060200190929190505050615594576040517f08c379a000000000000000000000000000000000000000000000000000000000815260040180806020018281038252600f8152602001807f5020486f7374207769746820616476000000000000000000000000000000000081525060200191505060405180910390fd5b601a60009054906101000a900473ffffffffffffffffffffffffffffffffffffffff1673ffffffffffffffffffffffffffffffffffffffff1663a9059cbb600080848152602001908152602001600020600b0160009054906101000a900473ffffffffffffffffffffffffffffffffffffffff16615629600080868152602001908152602001600020600d0154600b54612623565b6040518363ffffffff1660e01b8152600401808373ffffffffffffffffffffffffffffffffffffffff16815260200182815260200192505050602060405180830381600087803b15801561567c57600080fd5b505af1158015615690573d6000803e3d6000fd5b505050506040513d60208110156156a657600080fd5b8101908080519060200190929190505050615729576040517f08c379a00000000000000000000000000000000000000000000000000000000081526004018080602001828103825260058152602001807f502041647600000000000000000000000000000000000000000000000000000081525060200191505060405180910390fd5b615a59565b601a60009054906101000a900473ffffffffffffffffffffffffffffffffffffffff1673ffffffffffffffffffffffffffffffffffffffff1663341ce1fc600080848152602001908152602001600020600a0160019054906101000a900473ffffffffffffffffffffffffffffffffffffffff166157c3600080868152602001908152602001600020600f0154600254612623565b6040518363ffffffff1660e01b8152600401808373ffffffffffffffffffffffffffffffffffffffff16815260200182815260200192505050602060405180830381600087803b15801561581657600080fd5b505af115801561582a573d6000803e3d6000fd5b505050506040513d602081101561584057600080fd5b81019080805190602001909291905050506158c3576040517f08c379a00000000000000000000000000000000000000000000000000000000081526004018080602001828103825260068152602001807f4d20486f7374000000000000000000000000000000000000000000000000000081525060200191505060405180910390fd5b601a60009054906101000a900473ffffffffffffffffffffffffffffffffffffffff1673ffffffffffffffffffffffffffffffffffffffff1663a9059cbb600080848152602001908152602001600020600a0160019054906101000a900473ffffffffffffffffffffffffffffffffffffffff16615958600080868152602001908152602001600020600d0154600354612623565b6040518363ffffffff1660e01b8152600401808373ffffffffffffffffffffffffffffffffffffffff16815260200182815260200192505050602060405180830381600087803b1580156159ab57600080fd5b505af11580156159bf573d6000803e3d6000fd5b505050506040513d60208110156159d557600080fd5b8101908080519060200190929190505050615a58576040517f08c379a00000000000000000000000000000000000000000000000000000000081526004018080602001828103825260068152602001807f5020486f7374000000000000000000000000000000000000000000000000000081525060200191505060405180910390fd5b5b7f6a4809373725ad75f8703de0bd9b197e5729e64a7b655552880c405200fbc6f5816040518082815260200191505060405180910390a150565b60005b60008084815260200190815260200160002060030160009054906101000a900460ff1660ff168160ff161015615d0b5760005b60008085815260200190815260200160002060040160008360ff168152602001908152602001600020805490508160ff161015615cfd57601a60009054906101000a900473ffffffffffffffffffffffffffffffffffffffff1673ffffffffffffffffffffffffffffffffffffffff1663a9059cbb60008087815260200190815260200160002060040160008560ff1681526020019081526020016000208360ff1681548110615b7557fe5b906000526020600020906004020160010160009054906101000a900473ffffffffffffffffffffffffffffffffffffffff1660008088815260200190815260200160002060040160008660ff1681526020019081526020016000208460ff1681548110615bde57fe5b9060005260206000209060040201600201546040518363ffffffff1660e01b8152600401808373ffffffffffffffffffffffffffffffffffffffff16815260200182815260200192505050602060405180830381600087803b158015615c4357600080fd5b505af1158015615c57573d6000803e3d6000fd5b505050506040513d6020811015615c6d57600080fd5b8101908080519060200190929190505050615cf0576040517f08c379a000000000000000000000000000000000000000000000000000000000815260040180806020018281038252600a8152602001807f526576657274204245540000000000000000000000000000000000000000000081525060200191505060405180910390fd5b8080600101915050615ac9565b508080600101915050615a96565b50600160008084815260200190815260200160002060100160006101000a81548160ff0219169083151502179055507f847521552ad126e64c52b14640c804737bd67f2b6674309b332d1e5b17f857d182826040518083815260200180602001828103825283818151815260200191508051906020019080838360005b83811015615da3578082015181840152602081019050615d88565b50505050905090810190601f168015615dd05780820380516001836020036101000a031916815260200191505b50935050505060405180910390a15050565b600080600080848152602001908152602001600020600401600085815260200190815260200160002080549050905060005b818160ff161015615e765760008085815260200190815260200160002060040160008681526020019081526020016000208160ff1681548110615e5357fe5b906000526020600020906004020160020154830192508080600101915050615e14565b50600082600080868152602001908152602001600020600d01540390506000811415615ee057615edb846040518060400160405280601581526020017f706c61792063686f7365206f6e6520616e737765720000000000000000000000815250612a8d565b615f90565b80600080868152602001908152602001600020600e01819055506000615f3360008087815260200190815260200160002060060154600080888152602001908152602001600020600d0154601154614ab0565b905080600080878152602001908152602001600020600f01819055507f7a04c0b307090afdeb88b7e577bb5761258941e4195fb1bd4127545cce370bd98582604051808381526020018281526020019250505060405180910390a1505b5050505050565b828054828255906000526020600020908101928215616026579160200282015b8281111561602557823573ffffffffffffffffffffffffffffffffffffffff168260006101000a81548173ffffffffffffffffffffffffffffffffffffffff021916908373ffffffffffffffffffffffffffffffffffffffff16021790555091602001919060010190615fb7565b5b5090506160339190616037565b5090565b5b80821115616050576000816000905550600101616038565b509056fe546869732066756e6374696f6e20636f756c64206f6e6c7920626520657865637574656420627920746865206f776e6572a26469706673582212201c669cb7d36770a1bc7cc6ec1b906460a1a031d638125d7bae3136b7cc66f84564736f6c63430007060033",
  "immutableReferences": {},
  "source": "// SPDX-License-Identifier: MIT\npragma solidity >=0.4.22 <0.9.0;\n\nimport {TimeValidation} from \"../../helpers/TimeValidation.sol\";\nimport {FinishEvent} from \"./FinishEvent.sol\";\nimport {BET} from \"../../tokens/BET.sol\";\nimport {BTY} from \"../../tokens/BTY.sol\";\n\ncontract PublicEvents is\n    TimeValidation,\n    FinishEvent\n{\n    event calculateExpert(int256 id, uint256 activePlayers);\n    event findCorrectAnswer(int256 id);\n    \n    constructor(BET _betAdres, BTY _btyAdres) FinishEvent(_betAdres, _btyAdres){}\n    uint256 minBet = 10000000000000000;\n\n    function newEvent(\n        int256 _id,\n        uint256 _sT,\n        uint256 _eT,\n        uint8 _questAmount,\n        uint256 _amountExp,\n        bool _calcExp,\n        address payable _host,\n        bool _premium,\n        uint256 _amountPrem\n    ) public payable ownerOnly() {\n        events[_id].id = _id;\n        events[_id].startTime = _sT;\n        events[_id].endTime = _eT;\n        events[_id].questAmount = _questAmount;\n        events[_id].amountExperts = _amountExp;\n        events[_id].host = _host;\n        events[_id].calculateExperts = _calcExp;\n        events[_id].premium = _premium;\n        if (_premium) {\n            require(\n                btyToken.allowance(_host, address(this)) >= _amountPrem,\n                \"AE\" // Allowance error\n            );\n            require(\n                btyToken.transferFrom(\n                    _host,\n                    address(this),\n                    _amountPrem\n                ),\n                \"BTY PRO event\"\n            );\n        }\n    }\n\n    function addAdvisor(address payable _advisor, int256 _id) public ownerOnly(){\n          events[_id].advisor = _advisor;\n    }\n\n    function setAnswer(\n        int256 _id,\n        uint8 _answer,\n        uint256 _amount,\n        address payable _pWallet,\n        int256 _playerId,\n        uint8 _refDeep\n    ) public payable ownerOnly() {\n        require(\n            timeAnswer(events[_id].startTime, events[_id].endTime) == 0,\n            \"NVT\" // not valid time\n        );\n        require(!events[_id].reverted, \"reverted\");\n        require(!events[_id].eventFinish, \"finished\");\n        require(\n            !events[_id].allPlayers[_pWallet],\n            \"user exist\"\n        );\n        require(_amount >= minBet, \"amount\" );\n        uint256 ap = events[_id].activePlayers;\n        events[_id].players[_answer][ap].playerId = _playerId;\n        events[_id].players[_answer][ap].player = _pWallet;\n        events[_id].players[_answer][ap].amount = _amount;\n        events[_id].players[_answer][ap].referrersDeep = _refDeep;\n        events[_id].allPlayers[_pWallet] = true;\n        events[_id].activePlayers += 1;\n        events[_id].pool += _amount;\n\n        require(\n            betToken.allowance(_pWallet, address(this)) >= _amount,\n            \"AE\"\n        );\n        require(\n            betToken.transferFrom(_pWallet, address(this), _amount),\n            \"BTY players\"\n        );\n    }\n\n    function setReferrers(string memory _key, address payable[] calldata _referrers) public ownerOnly(){\n        referrers[_key].referrer = _referrers;\n    }\n\n    function setValidator(\n        int256 _id,\n        uint8 _answer,\n        address payable _eWallet,\n        int256 _reput\n    ) public payable ownerOnly() {\n        require(timeValidate(events[_id].endTime) == 0, \"NVT\"); // Not valid time\n        require(\n            !events[_id].allPlayers[_eWallet],\n            \"user participate\"\n        );\n        require(!events[_id].reverted, \"reverted\");\n        require(!events[_id].eventFinish, \"finished\");\n\n        if (events[_id].activePlayers == 0) {\n            events[_id].reverted = true;\n            emit revertedEvent(_id, \"do not have players\");\n        } else {\n            if (\n                events[_id].calculateExperts && events[_id].amountExperts == 0\n            ) {\n                emit calculateExpert(_id, events[_id].activePlayers);\n            } else {\n                uint256 ae = events[_id].activeExperts;\n                events[_id].expert[_answer][ae].expert = _eWallet;\n                events[_id].expert[_answer][ae].reputation = _reput;\n                events[_id].activeExperts = ae + 1;\n\n                if (events[_id].activeExperts == events[_id].amountExperts && events[_id].amountExperts > 0) {\n                    emit findCorrectAnswer(_id);\n                }\n            }\n        }\n    }\n\n    function setActiveExpertsFromOracl(uint256 _amount, int256 _id) public ownerOnly {\n        events[_id].amountExperts = _amount;\n    }\n\n}\n",
  "sourcePath": "/Users/macbook/Documents/freelance/tokenominc/contracts/events/PublicEvents/PublicEvents.sol",
  "compiler": {
    "name": "solc",
    "version": "0.7.6+commit.7338295f.Linux.g++"
  },
  "schemaVersion": "3.2.2",
  "updatedAt": "2021-03-11T08:23:38.667Z",
  "devdoc": {
    "kind": "dev",
    "methods": {},
    "version": 1
  },
  "userdoc": {
    "kind": "user",
    "methods": {},
    "version": 1
  }
}