{
  "contractName": "PublicEvents",
  "abi": [
    {
      "inputs": [
        {
          "internalType": "contract BET",
          "name": "_betAddress",
          "type": "address"
        },
        {
          "internalType": "contract BTY",
          "name": "_btyAddress",
          "type": "address"
        }
      ],
      "stateMutability": "nonpayable",
      "type": "constructor"
    },
    {
      "anonymous": false,
      "inputs": [
        {
          "indexed": false,
          "internalType": "int256",
          "name": "id",
          "type": "int256"
        },
        {
          "indexed": false,
          "internalType": "uint256",
          "name": "activePlayers",
          "type": "uint256"
        }
      ],
      "name": "calculateExpert",
      "type": "event"
    },
    {
      "anonymous": false,
      "inputs": [
        {
          "indexed": false,
          "internalType": "int256",
          "name": "id",
          "type": "int256"
        },
        {
          "indexed": false,
          "internalType": "uint256",
          "name": "activePlayers",
          "type": "uint256"
        },
        {
          "indexed": false,
          "internalType": "uint256",
          "name": "pool",
          "type": "uint256"
        },
        {
          "indexed": false,
          "internalType": "uint256",
          "name": "GFindex",
          "type": "uint256"
        }
      ],
      "name": "calculateTokensAmount",
      "type": "event"
    },
    {
      "anonymous": false,
      "inputs": [
        {
          "indexed": false,
          "internalType": "int256",
          "name": "id",
          "type": "int256"
        },
        {
          "indexed": false,
          "internalType": "string",
          "name": "purpose",
          "type": "string"
        }
      ],
      "name": "revertedEvent",
      "type": "event"
    },
    {
      "inputs": [],
      "name": "GFindex",
      "outputs": [
        {
          "internalType": "uint256",
          "name": "",
          "type": "uint256"
        }
      ],
      "stateMutability": "view",
      "type": "function",
      "constant": true
    },
    {
      "inputs": [],
      "name": "GFrewards",
      "outputs": [
        {
          "internalType": "uint256",
          "name": "",
          "type": "uint256"
        }
      ],
      "stateMutability": "view",
      "type": "function",
      "constant": true
    },
    {
      "inputs": [],
      "name": "advisorPepc",
      "outputs": [
        {
          "internalType": "uint256",
          "name": "",
          "type": "uint256"
        }
      ],
      "stateMutability": "view",
      "type": "function",
      "constant": true
    },
    {
      "inputs": [],
      "name": "advisorPercMint",
      "outputs": [
        {
          "internalType": "uint256",
          "name": "",
          "type": "uint256"
        }
      ],
      "stateMutability": "view",
      "type": "function",
      "constant": true
    },
    {
      "inputs": [],
      "name": "betToken",
      "outputs": [
        {
          "internalType": "contract BET",
          "name": "",
          "type": "address"
        }
      ],
      "stateMutability": "view",
      "type": "function",
      "constant": true
    },
    {
      "inputs": [],
      "name": "btyToken",
      "outputs": [
        {
          "internalType": "contract BTY",
          "name": "",
          "type": "address"
        }
      ],
      "stateMutability": "view",
      "type": "function",
      "constant": true
    },
    {
      "inputs": [],
      "name": "communityMarketingFund",
      "outputs": [
        {
          "internalType": "uint256",
          "name": "",
          "type": "uint256"
        }
      ],
      "stateMutability": "view",
      "type": "function",
      "constant": true
    },
    {
      "inputs": [],
      "name": "companyPerc",
      "outputs": [
        {
          "internalType": "uint256",
          "name": "",
          "type": "uint256"
        }
      ],
      "stateMutability": "view",
      "type": "function",
      "constant": true
    },
    {
      "inputs": [],
      "name": "expertExptraPerc",
      "outputs": [
        {
          "internalType": "uint256",
          "name": "",
          "type": "uint256"
        }
      ],
      "stateMutability": "view",
      "type": "function",
      "constant": true
    },
    {
      "inputs": [],
      "name": "expertPerc",
      "outputs": [
        {
          "internalType": "uint256",
          "name": "",
          "type": "uint256"
        }
      ],
      "stateMutability": "view",
      "type": "function",
      "constant": true
    },
    {
      "inputs": [],
      "name": "expertPercMint",
      "outputs": [
        {
          "internalType": "uint256",
          "name": "",
          "type": "uint256"
        }
      ],
      "stateMutability": "view",
      "type": "function",
      "constant": true
    },
    {
      "inputs": [],
      "name": "firstWithdrawIndex",
      "outputs": [
        {
          "internalType": "uint256",
          "name": "",
          "type": "uint256"
        }
      ],
      "stateMutability": "view",
      "type": "function",
      "constant": true
    },
    {
      "inputs": [],
      "name": "getFirstWithdraw",
      "outputs": [
        {
          "internalType": "uint256",
          "name": "",
          "type": "uint256"
        }
      ],
      "stateMutability": "view",
      "type": "function",
      "constant": true
    },
    {
      "inputs": [
        {
          "internalType": "uint256",
          "name": "_percent",
          "type": "uint256"
        },
        {
          "internalType": "uint256",
          "name": "_from",
          "type": "uint256"
        }
      ],
      "name": "getPersent",
      "outputs": [
        {
          "internalType": "uint256",
          "name": "",
          "type": "uint256"
        }
      ],
      "stateMutability": "pure",
      "type": "function",
      "constant": true
    },
    {
      "inputs": [],
      "name": "hostPerc",
      "outputs": [
        {
          "internalType": "uint256",
          "name": "",
          "type": "uint256"
        }
      ],
      "stateMutability": "view",
      "type": "function",
      "constant": true
    },
    {
      "inputs": [],
      "name": "hostPercMint",
      "outputs": [
        {
          "internalType": "uint256",
          "name": "",
          "type": "uint256"
        }
      ],
      "stateMutability": "view",
      "type": "function",
      "constant": true
    },
    {
      "inputs": [
        {
          "internalType": "int256",
          "name": "_id",
          "type": "int256"
        }
      ],
      "name": "letsFindCorrectAnswer",
      "outputs": [],
      "stateMutability": "nonpayable",
      "type": "function"
    },
    {
      "inputs": [
        {
          "internalType": "int256",
          "name": "_id",
          "type": "int256"
        },
        {
          "internalType": "uint256",
          "name": "_tokens",
          "type": "uint256"
        }
      ],
      "name": "letsFinishEvent",
      "outputs": [],
      "stateMutability": "nonpayable",
      "type": "function"
    },
    {
      "inputs": [],
      "name": "owner",
      "outputs": [
        {
          "internalType": "address",
          "name": "",
          "type": "address"
        }
      ],
      "stateMutability": "view",
      "type": "function",
      "constant": true
    },
    {
      "inputs": [],
      "name": "playerPers",
      "outputs": [
        {
          "internalType": "uint256",
          "name": "",
          "type": "uint256"
        }
      ],
      "stateMutability": "view",
      "type": "function",
      "constant": true
    },
    {
      "inputs": [
        {
          "internalType": "int256",
          "name": "_id",
          "type": "int256"
        },
        {
          "internalType": "string",
          "name": "purpose",
          "type": "string"
        }
      ],
      "name": "revertedPayment",
      "outputs": [],
      "stateMutability": "nonpayable",
      "type": "function"
    },
    {
      "inputs": [
        {
          "internalType": "uint256",
          "name": "_companyPerc",
          "type": "uint256"
        }
      ],
      "name": "setCompanyPerc",
      "outputs": [],
      "stateMutability": "nonpayable",
      "type": "function"
    },
    {
      "inputs": [
        {
          "internalType": "uint256",
          "name": "_expertPerc",
          "type": "uint256"
        }
      ],
      "name": "setExpertPerc",
      "outputs": [],
      "stateMutability": "nonpayable",
      "type": "function"
    },
    {
      "inputs": [
        {
          "internalType": "uint256",
          "name": "_firstWithdrawIndex",
          "type": "uint256"
        }
      ],
      "name": "setFirstWithdraw",
      "outputs": [],
      "stateMutability": "nonpayable",
      "type": "function"
    },
    {
      "inputs": [
        {
          "internalType": "uint256",
          "name": "_GFindex",
          "type": "uint256"
        }
      ],
      "name": "setGFindex",
      "outputs": [],
      "stateMutability": "nonpayable",
      "type": "function"
    },
    {
      "inputs": [
        {
          "internalType": "uint256",
          "name": "_GFrewards",
          "type": "uint256"
        }
      ],
      "name": "setGFrewards",
      "outputs": [],
      "stateMutability": "nonpayable",
      "type": "function"
    },
    {
      "inputs": [
        {
          "internalType": "uint256",
          "name": "_hostPercMint",
          "type": "uint256"
        },
        {
          "internalType": "uint256",
          "name": "_hostPerc",
          "type": "uint256"
        }
      ],
      "name": "setHostPerc",
      "outputs": [],
      "stateMutability": "nonpayable",
      "type": "function"
    },
    {
      "inputs": [
        {
          "internalType": "uint256",
          "name": "_playerPers",
          "type": "uint256"
        }
      ],
      "name": "setPlayerPers",
      "outputs": [],
      "stateMutability": "nonpayable",
      "type": "function"
    },
    {
      "inputs": [
        {
          "internalType": "uint256[]",
          "name": "_data",
          "type": "uint256[]"
        }
      ],
      "name": "setSort",
      "outputs": [],
      "stateMutability": "nonpayable",
      "type": "function"
    },
    {
      "inputs": [
        {
          "internalType": "uint256",
          "name": "_welcomeBTYTokens",
          "type": "uint256"
        }
      ],
      "name": "setWelcomeBTYTokens",
      "outputs": [],
      "stateMutability": "nonpayable",
      "type": "function"
    },
    {
      "inputs": [],
      "name": "sort",
      "outputs": [],
      "stateMutability": "nonpayable",
      "type": "function"
    },
    {
      "inputs": [
        {
          "internalType": "uint256",
          "name": "",
          "type": "uint256"
        }
      ],
      "name": "sortedArray",
      "outputs": [
        {
          "internalType": "uint256",
          "name": "",
          "type": "uint256"
        }
      ],
      "stateMutability": "view",
      "type": "function",
      "constant": true
    },
    {
      "inputs": [
        {
          "internalType": "uint256",
          "name": "_startTime",
          "type": "uint256"
        },
        {
          "internalType": "uint256",
          "name": "_endTime",
          "type": "uint256"
        }
      ],
      "name": "timeAnswer",
      "outputs": [
        {
          "internalType": "int8",
          "name": "",
          "type": "int8"
        }
      ],
      "stateMutability": "view",
      "type": "function",
      "constant": true
    },
    {
      "inputs": [
        {
          "internalType": "uint256",
          "name": "_endTime",
          "type": "uint256"
        }
      ],
      "name": "timeValidate",
      "outputs": [
        {
          "internalType": "int8",
          "name": "",
          "type": "int8"
        }
      ],
      "stateMutability": "view",
      "type": "function",
      "constant": true
    },
    {
      "inputs": [],
      "name": "welcomeBTYTokens",
      "outputs": [
        {
          "internalType": "uint256",
          "name": "",
          "type": "uint256"
        }
      ],
      "stateMutability": "view",
      "type": "function",
      "constant": true
    },
    {
      "inputs": [
        {
          "internalType": "int256",
          "name": "_id",
          "type": "int256"
        },
        {
          "internalType": "uint256",
          "name": "_startTime",
          "type": "uint256"
        },
        {
          "internalType": "uint256",
          "name": "_endTime",
          "type": "uint256"
        },
        {
          "internalType": "uint8",
          "name": "_questAmount",
          "type": "uint8"
        },
        {
          "internalType": "uint256",
          "name": "_amountExperts",
          "type": "uint256"
        },
        {
          "internalType": "bool",
          "name": "_calculateExperts",
          "type": "bool"
        },
        {
          "internalType": "address payable",
          "name": "_host",
          "type": "address"
        },
        {
          "internalType": "bool",
          "name": "_premium",
          "type": "bool"
        },
        {
          "internalType": "uint256",
          "name": "_amountPremiumEvent",
          "type": "uint256"
        }
      ],
      "name": "newEvent",
      "outputs": [],
      "stateMutability": "payable",
      "type": "function",
      "payable": true
    },
    {
      "inputs": [
        {
          "internalType": "address payable",
          "name": "_advisor",
          "type": "address"
        },
        {
          "internalType": "int256",
          "name": "_id",
          "type": "int256"
        }
      ],
      "name": "addAdvisor",
      "outputs": [],
      "stateMutability": "nonpayable",
      "type": "function"
    },
    {
      "inputs": [
        {
          "internalType": "int256",
          "name": "_id",
          "type": "int256"
        },
        {
          "internalType": "uint8",
          "name": "_whichAnswer",
          "type": "uint8"
        },
        {
          "internalType": "uint256",
          "name": "_amount",
          "type": "uint256"
        },
        {
          "internalType": "address payable",
          "name": "_playerWallet",
          "type": "address"
        },
        {
          "internalType": "int256",
          "name": "_playerId",
          "type": "int256"
        },
        {
          "internalType": "uint8",
          "name": "_referrersDeep",
          "type": "uint8"
        }
      ],
      "name": "setAnswer",
      "outputs": [],
      "stateMutability": "payable",
      "type": "function",
      "payable": true
    },
    {
      "inputs": [
        {
          "internalType": "string",
          "name": "_key",
          "type": "string"
        },
        {
          "internalType": "address payable[]",
          "name": "_referrers",
          "type": "address[]"
        }
      ],
      "name": "setReferrers",
      "outputs": [],
      "stateMutability": "nonpayable",
      "type": "function"
    },
    {
      "inputs": [
        {
          "internalType": "int256",
          "name": "_id",
          "type": "int256"
        },
        {
          "internalType": "uint8",
          "name": "_whichAnswer",
          "type": "uint8"
        },
        {
          "internalType": "address payable",
          "name": "_expertWallet",
          "type": "address"
        },
        {
          "internalType": "uint256",
          "name": "_reputation",
          "type": "uint256"
        }
      ],
      "name": "setValidator",
      "outputs": [],
      "stateMutability": "payable",
      "type": "function",
      "payable": true
    },
    {
      "inputs": [
        {
          "internalType": "uint256",
          "name": "_amount",
          "type": "uint256"
        },
        {
          "internalType": "int256",
          "name": "_id",
          "type": "int256"
        }
      ],
      "name": "setActivePlayersFromOracl",
      "outputs": [],
      "stateMutability": "nonpayable",
      "type": "function"
    }
  ],
  "bytecode": "0x6080604052600a600455600a6005556004600655600a600755600460085560026009556002600a556001600b55600a600e5568056bc75e2d63100000600f556001601055678ac7230489e80000601155662386f26fc1000060145534801561006657600080fd5b50604051620049f0380380620049f08339818101604052604081101561008b57600080fd5b810190808051906020019092919080519060200190929190505050818133600d60006101000a81548173ffffffffffffffffffffffffffffffffffffffff021916908373ffffffffffffffffffffffffffffffffffffffff16021790555081601260006101000a81548173ffffffffffffffffffffffffffffffffffffffff021916908373ffffffffffffffffffffffffffffffffffffffff16021790555080601360006101000a81548173ffffffffffffffffffffffffffffffffffffffff021916908373ffffffffffffffffffffffffffffffffffffffff16021790555050505050614871806200017f6000396000f3fe6080604052600436106102465760003560e01c80638a9dbda711610139578063c369085e116100b6578063e1aea5231161007a578063e1aea52314610cbf578063e2d914f214610cfa578063e787218314610d49578063e79f365d14610da2578063ef99e09914610ddd578063f7ec585114610e0857610246565b8063c369085e14610bae578063cd09508514610be9578063ce44553c14610c14578063d7a86da714610c59578063df18581714610c9457610246565b80639580de67116100fd5780639580de6714610a9d578063a03c669714610ad8578063af9ace4514610b13578063b1642b5014610b3e578063b44901e814610b8357610246565b80638a9dbda7146109735780638bd6aefb1461099e5780638cdc86a614610a1a5780638da5cb5b14610a315780638fc8bc4214610a7257610246565b806353bdb062116101c7578063786508c51161018b578063786508c5146107fb57806378691f1614610826578063792e146e146108675780637dbb9dfa146108ac578063896aa7a41461094857610246565b806353bdb0621461061c57806354f6db7414610677578063671f3b94146106d35780636afd7b7f146106fe578063769c48981461072957610246565b8063275d6d701161020e578063275d6d701461045b5780632d0e277c146104c05780632e63e452146104eb5780633b97b5d614610516578063506d05cf146105db57610246565b806315cfe4191461024b5780631882efe01461027657806319d6b7d81461039357806324467c45146103ce578063246fe64714610409575b600080fd5b34801561025757600080fd5b50610260610e33565b6040518082815260200191505060405180910390f35b34801561028257600080fd5b506103916004803603604081101561029957600080fd5b81019080803590602001906401000000008111156102b657600080fd5b8201836020820111156102c857600080fd5b803590602001918460018302840111640100000000831117156102ea57600080fd5b91908080601f016020809104026020016040519081016040528093929190818152602001838380828437600081840152601f19601f8201169050808301925050505050505091929192908035906020019064010000000081111561034d57600080fd5b82018360208201111561035f57600080fd5b8035906020019184602083028401116401000000008311171561038157600080fd5b9091929391929390505050610e39565b005b34801561039f57600080fd5b506103cc600480360360208110156103b657600080fd5b8101908080359060200190929190505050610f60565b005b3480156103da57600080fd5b50610407600480360360208110156103f157600080fd5b8101908080359060200190929190505050611010565b005b34801561041557600080fd5b506104426004803603602081101561042c57600080fd5b81019080803590602001909291905050506110c0565b604051808260000b815260200191505060405180910390f35b6104be6004803603608081101561047157600080fd5b8101908080359060200190929190803560ff169060200190929190803573ffffffffffffffffffffffffffffffffffffffff169060200190929190803590602001909291905050506110de565b005b3480156104cc57600080fd5b506104d56116c7565b6040518082815260200191505060405180910390f35b3480156104f757600080fd5b506105006116cd565b6040518082815260200191505060405180910390f35b34801561052257600080fd5b506105d96004803603602081101561053957600080fd5b810190808035906020019064010000000081111561055657600080fd5b82018360208201111561056857600080fd5b8035906020019184602083028401116401000000008311171561058a57600080fd5b919080806020026020016040519081016040528093929190818152602001838360200280828437600081840152601f19601f8201169050808301925050505050505091929192905050506116d3565b005b3480156105e757600080fd5b506105f06116ed565b604051808273ffffffffffffffffffffffffffffffffffffffff16815260200191505060405180910390f35b34801561062857600080fd5b506106756004803603604081101561063f57600080fd5b81019080803573ffffffffffffffffffffffffffffffffffffffff16906020019092919080359060200190929190505050611713565b005b34801561068357600080fd5b506106ba6004803603604081101561069a57600080fd5b810190808035906020019092919080359060200190929190505050611811565b604051808260000b815260200191505060405180910390f35b3480156106df57600080fd5b506106e8611843565b6040518082815260200191505060405180910390f35b34801561070a57600080fd5b50610713611849565b6040518082815260200191505060405180910390f35b34801561073557600080fd5b506107f96004803603604081101561074c57600080fd5b81019080803590602001909291908035906020019064010000000081111561077357600080fd5b82018360208201111561078557600080fd5b803590602001918460018302840111640100000000831117156107a757600080fd5b91908080601f016020809104026020016040519081016040528093929190818152602001838380828437600081840152601f19601f82011690508083019250505050505050919291929050505061184f565b005b34801561080757600080fd5b50610810611903565b6040518082815260200191505060405180910390f35b34801561083257600080fd5b5061083b611909565b604051808273ffffffffffffffffffffffffffffffffffffffff16815260200191505060405180910390f35b34801561087357600080fd5b506108aa6004803603604081101561088a57600080fd5b81019080803590602001909291908035906020019092919050505061192f565b005b61094660048036036101208110156108c357600080fd5b81019080803590602001909291908035906020019092919080359060200190929190803560ff16906020019092919080359060200190929190803515159060200190929190803573ffffffffffffffffffffffffffffffffffffffff169060200190929190803515159060200190929190803590602001909291905050506119f3565b005b34801561095457600080fd5b5061095d611e87565b6040518082815260200191505060405180910390f35b34801561097f57600080fd5b50610988611e8d565b6040518082815260200191505060405180910390f35b610a18600480360360c08110156109b457600080fd5b8101908080359060200190929190803560ff16906020019092919080359060200190929190803573ffffffffffffffffffffffffffffffffffffffff16906020019092919080359060200190929190803560ff169060200190929190505050611e93565b005b348015610a2657600080fd5b50610a2f6126ab565b005b348015610a3d57600080fd5b50610a466126d6565b604051808273ffffffffffffffffffffffffffffffffffffffff16815260200191505060405180910390f35b348015610a7e57600080fd5b50610a876126fc565b6040518082815260200191505060405180910390f35b348015610aa957600080fd5b50610ad660048036036020811015610ac057600080fd5b8101908080359060200190929190505050612702565b005b348015610ae457600080fd5b50610b1160048036036020811015610afb57600080fd5b81019080803590602001909291905050506127b2565b005b348015610b1f57600080fd5b50610b28612862565b6040518082815260200191505060405180910390f35b348015610b4a57600080fd5b50610b8160048036036040811015610b6157600080fd5b810190808035906020019092919080359060200190929190505050612868565b005b348015610b8f57600080fd5b50610b98612920565b6040518082815260200191505060405180910390f35b348015610bba57600080fd5b50610be760048036036020811015610bd157600080fd5b8101908080359060200190929190505050612926565b005b348015610bf557600080fd5b50610bfe6129d6565b6040518082815260200191505060405180910390f35b348015610c2057600080fd5b50610c5760048036036040811015610c3757600080fd5b8101908080359060200190929190803590602001909291905050506129dc565b005b348015610c6557600080fd5b50610c9260048036036020811015610c7c57600080fd5b8101908080359060200190929190505050612bff565b005b348015610ca057600080fd5b50610ca9612caf565b6040518082815260200191505060405180910390f35b348015610ccb57600080fd5b50610cf860048036036020811015610ce257600080fd5b8101908080359060200190929190505050612cb5565b005b348015610d0657600080fd5b50610d3360048036036020811015610d1d57600080fd5b8101908080359060200190929190505050612d65565b6040518082815260200191505060405180910390f35b348015610d5557600080fd5b50610d8c60048036036040811015610d6c57600080fd5b810190808035906020019092919080359060200190929190505050612d89565b6040518082815260200191505060405180910390f35b348015610dae57600080fd5b50610ddb60048036036020811015610dc557600080fd5b8101908080359060200190929190505050612da0565b005b348015610de957600080fd5b50610df2612e84565b6040518082815260200191505060405180910390f35b348015610e1457600080fd5b50610e1d612e92565b6040518082815260200191505060405180910390f35b60105481565b600d60009054906101000a900473ffffffffffffffffffffffffffffffffffffffff1673ffffffffffffffffffffffffffffffffffffffff163373ffffffffffffffffffffffffffffffffffffffff1614610edf576040517f08c379a000000000000000000000000000000000000000000000000000000000815260040180806020018281038252603181526020018061480b6031913960400191505060405180910390fd5b81816001856040518082805190602001908083835b60208310610f175780518252602082019150602081019050602083039250610ef4565b6001836020036101000a03801982511681845116808217855250505050505090500191505090815260200160405180910390206000019190610f5a9291906145f2565b50505050565b600d60009054906101000a900473ffffffffffffffffffffffffffffffffffffffff1673ffffffffffffffffffffffffffffffffffffffff163373ffffffffffffffffffffffffffffffffffffffff1614611006576040517f08c379a000000000000000000000000000000000000000000000000000000000815260040180806020018281038252603181526020018061480b6031913960400191505060405180910390fd5b8060118190555050565b600d60009054906101000a900473ffffffffffffffffffffffffffffffffffffffff1673ffffffffffffffffffffffffffffffffffffffff163373ffffffffffffffffffffffffffffffffffffffff16146110b6576040517f08c379a000000000000000000000000000000000000000000000000000000000815260040180806020018281038252603181526020018061480b6031913960400191505060405180910390fd5b8060048190555050565b600080824203126110d457600090506110d9565b600190505b919050565b600d60009054906101000a900473ffffffffffffffffffffffffffffffffffffffff1673ffffffffffffffffffffffffffffffffffffffff163373ffffffffffffffffffffffffffffffffffffffff1614611184576040517f08c379a000000000000000000000000000000000000000000000000000000000815260040180806020018281038252603181526020018061480b6031913960400191505060405180910390fd5b60006111a4600080878152602001908152602001600020600201546110c0565b60000b1461121a576040517f08c379a00000000000000000000000000000000000000000000000000000000081526004018080602001828103825260118152602001807f54696d65206973206e6f742076616c696400000000000000000000000000000081525060200191505060405180910390fd5b6001151560008086815260200190815260200160002060050160008473ffffffffffffffffffffffffffffffffffffffff1673ffffffffffffffffffffffffffffffffffffffff16815260200190815260200160002060009054906101000a900460ff161515146112d6576040517f08c379a00000000000000000000000000000000000000000000000000000000081526004018080602001828103825260218152602001806147956021913960400191505060405180910390fd5b600080858152602001908152602001600020600f0160009054906101000a900460ff1661136b576040517f08c379a00000000000000000000000000000000000000000000000000000000081526004018080602001828103825260118152602001807f6576656e7420697320726576657274656400000000000000000000000000000081525060200191505060405180910390fd5b60008085815260200190815260200160002060110160009054906101000a900460ff16611400576040517f08c379a000000000000000000000000000000000000000000000000000000000815260040180806020018281038252600f8152602001807f6576656e742069732066696e697368000000000000000000000000000000000081525060200191505060405180910390fd5b60008060008681526020019081526020016000206006015414156114c1576001600080868152602001908152602001600020600f0160006101000a81548160ff0219169083151502179055507f847521552ad126e64c52b14640c804737bd67f2b6674309b332d1e5b17f857d18460405180828152602001806020018281038252601c8152602001807f646f206e6f74206861766520706c6179657273206f6e206576656e74000000008152506020019250505060405180910390a16116c1565b600080858152602001908152602001600020600a0160009054906101000a900460ff1680156115055750600080600086815260200190815260200160002060090154145b15611563577f7d056f7ad1cec2447e1046080437b34a925f7ddd6099486d01c4e0e01bd51a8c8460008087815260200190815260200160002060060154604051808381526020018281526020019250505060405180910390a16116c0565b61156b614692565b60405180604001604052808473ffffffffffffffffffffffffffffffffffffffff16815260200183815250905060008086815260200190815260200160002060070160008560ff16815260200190815260200160002081908060018154018082558091505060019003906000526020600020906002020160009091909190915060008201518160000160006101000a81548173ffffffffffffffffffffffffffffffffffffffff021916908373ffffffffffffffffffffffffffffffffffffffff1602179055506020820151816001015550506000600160008088815260200190815260200160002060080154019050806000808881526020019081526020016000206008018190555060008087815260200190815260200160002060090154811480156116ae5750600080600088815260200190815260200160002060090154115b156116bd576116bc86612da0565b5b50505b5b50505050565b60035481565b60115481565b80600290805190602001906116e99291906146c2565b5050565b601360009054906101000a900473ffffffffffffffffffffffffffffffffffffffff1681565b600d60009054906101000a900473ffffffffffffffffffffffffffffffffffffffff1673ffffffffffffffffffffffffffffffffffffffff163373ffffffffffffffffffffffffffffffffffffffff16146117b9576040517f08c379a000000000000000000000000000000000000000000000000000000000815260040180806020018281038252603181526020018061480b6031913960400191505060405180910390fd5b81600080838152602001908152602001600020600b0160006101000a81548173ffffffffffffffffffffffffffffffffffffffff021916908373ffffffffffffffffffffffffffffffffffffffff1602179055505050565b600080834203126118385760004283031261182f576000905061183d565b6002905061183d565b600190505b92915050565b60095481565b60045481565b600d60009054906101000a900473ffffffffffffffffffffffffffffffffffffffff1673ffffffffffffffffffffffffffffffffffffffff163373ffffffffffffffffffffffffffffffffffffffff16146118f5576040517f08c379a000000000000000000000000000000000000000000000000000000000815260040180806020018281038252603181526020018061480b6031913960400191505060405180910390fd5b6118ff8282612e98565b5050565b600b5481565b601260009054906101000a900473ffffffffffffffffffffffffffffffffffffffff1681565b600d60009054906101000a900473ffffffffffffffffffffffffffffffffffffffff1673ffffffffffffffffffffffffffffffffffffffff163373ffffffffffffffffffffffffffffffffffffffff16146119d5576040517f08c379a000000000000000000000000000000000000000000000000000000000815260040180806020018281038252603181526020018061480b6031913960400191505060405180910390fd5b81600080838152602001908152602001600020600901819055505050565b600d60009054906101000a900473ffffffffffffffffffffffffffffffffffffffff1673ffffffffffffffffffffffffffffffffffffffff163373ffffffffffffffffffffffffffffffffffffffff1614611a99576040517f08c379a000000000000000000000000000000000000000000000000000000000815260040180806020018281038252603181526020018061480b6031913960400191505060405180910390fd5b886000808b815260200190815260200160002060000181905550876000808b815260200190815260200160002060010181905550866000808b815260200190815260200160002060020181905550856000808b815260200190815260200160002060030160006101000a81548160ff021916908360ff160217905550846000808b815260200190815260200160002060090181905550826000808b8152602001908152602001600020600a0160016101000a81548173ffffffffffffffffffffffffffffffffffffffff021916908373ffffffffffffffffffffffffffffffffffffffff160217905550836000808b8152602001908152602001600020600a0160006101000a81548160ff021916908315150217905550816000808b8152602001908152602001600020600f0160016101000a81548160ff0219169083151502179055508115611e7c5780601360009054906101000a900473ffffffffffffffffffffffffffffffffffffffff1673ffffffffffffffffffffffffffffffffffffffff1663dd62ed3e85306040518363ffffffff1660e01b8152600401808373ffffffffffffffffffffffffffffffffffffffff1681526020018273ffffffffffffffffffffffffffffffffffffffff1681526020019250505060206040518083038186803b158015611c8b57600080fd5b505afa158015611c9f573d6000803e3d6000fd5b505050506040513d6020811015611cb557600080fd5b81019080805190602001909291905050501015611d3a576040517f08c379a000000000000000000000000000000000000000000000000000000000815260040180806020018281038252600f8152602001807f416c6c6f77616e6365206572726f72000000000000000000000000000000000081525060200191505060405180910390fd5b601360009054906101000a900473ffffffffffffffffffffffffffffffffffffffff1673ffffffffffffffffffffffffffffffffffffffff166323b872dd8430846040518463ffffffff1660e01b8152600401808473ffffffffffffffffffffffffffffffffffffffff1681526020018373ffffffffffffffffffffffffffffffffffffffff1681526020018281526020019350505050602060405180830381600087803b158015611deb57600080fd5b505af1158015611dff573d6000803e3d6000fd5b505050506040513d6020811015611e1557600080fd5b8101908080519060200190929190505050611e7b576040517f08c379a000000000000000000000000000000000000000000000000000000000815260040180806020018281038252602781526020018061476e6027913960400191505060405180910390fd5b5b505050505050505050565b60085481565b60055481565b600d60009054906101000a900473ffffffffffffffffffffffffffffffffffffffff1673ffffffffffffffffffffffffffffffffffffffff163373ffffffffffffffffffffffffffffffffffffffff1614611f39576040517f08c379a000000000000000000000000000000000000000000000000000000000815260040180806020018281038252603181526020018061480b6031913960400191505060405180910390fd5b6000611f6f600080898152602001908152602001600020600101546000808a815260200190815260200160002060020154611811565b60000b14611fe5576040517f08c379a00000000000000000000000000000000000000000000000000000000081526004018080602001828103825260118152602001807f54696d65206973206e6f742076616c696400000000000000000000000000000081525060200191505060405180910390fd5b600080878152602001908152602001600020600f0160009054906101000a900460ff1661207a576040517f08c379a00000000000000000000000000000000000000000000000000000000081526004018080602001828103825260118152602001807f6576656e7420697320726576657274656400000000000000000000000000000081525060200191505060405180910390fd5b60008087815260200190815260200160002060110160009054906101000a900460ff1661210f576040517f08c379a000000000000000000000000000000000000000000000000000000000815260040180806020018281038252600f8152602001807f6576656e742069732066696e697368000000000000000000000000000000000081525060200191505060405180910390fd5b6001151560008088815260200190815260200160002060050160008573ffffffffffffffffffffffffffffffffffffffff1673ffffffffffffffffffffffffffffffffffffffff16815260200190815260200160002060009054906101000a900460ff161515146121cb576040517f08c379a00000000000000000000000000000000000000000000000000000000081526004018080602001828103825260218152602001806147956021913960400191505060405180910390fd5b601454841015612226576040517f08c379a00000000000000000000000000000000000000000000000000000000081526004018080602001828103825260318152602001806147b66031913960400191505060405180910390fd5b61222e61470f565b60405180608001604052808481526020018573ffffffffffffffffffffffffffffffffffffffff1681526020018681526020018360ff16815250905060008088815260200190815260200160002060040160008760ff1681526020019081526020016000208190806001815401808255809150506001900390600052602060002090600402016000909190919091506000820151816000015560208201518160010160006101000a81548173ffffffffffffffffffffffffffffffffffffffff021916908373ffffffffffffffffffffffffffffffffffffffff1602179055506040820151816002015560608201518160030160006101000a81548160ff021916908360ff1602179055505050600160008089815260200190815260200160002060050160008673ffffffffffffffffffffffffffffffffffffffff1673ffffffffffffffffffffffffffffffffffffffff16815260200190815260200160002060006101000a81548160ff02191690831515021790555060016000808981526020019081526020016000206006016000828254019250508190555084600080898152602001908152602001600020600d016000828254019250508190555084601260009054906101000a900473ffffffffffffffffffffffffffffffffffffffff1673ffffffffffffffffffffffffffffffffffffffff1663dd62ed3e86306040518363ffffffff1660e01b8152600401808373ffffffffffffffffffffffffffffffffffffffff1681526020018273ffffffffffffffffffffffffffffffffffffffff1681526020019250505060206040518083038186803b15801561249557600080fd5b505afa1580156124a9573d6000803e3d6000fd5b505050506040513d60208110156124bf57600080fd5b81019080805190602001909291905050501015612544576040517f08c379a000000000000000000000000000000000000000000000000000000000815260040180806020018281038252600f8152602001807f416c6c6f77616e6365206572726f72000000000000000000000000000000000081525060200191505060405180910390fd5b601260009054906101000a900473ffffffffffffffffffffffffffffffffffffffff1673ffffffffffffffffffffffffffffffffffffffff166323b872dd8530886040518463ffffffff1660e01b8152600401808473ffffffffffffffffffffffffffffffffffffffff1681526020018373ffffffffffffffffffffffffffffffffffffffff1681526020018281526020019350505050602060405180830381600087803b1580156125f557600080fd5b505af1158015612609573d6000803e3d6000fd5b505050506040513d602081101561261f57600080fd5b81019080805190602001909291905050506126a2576040517f08c379a000000000000000000000000000000000000000000000000000000000815260040180806020018281038252601f8152602001807f5472616e73666572204254592066726f6d20706c6179657273206572726f720081525060200191505060405180910390fd5b50505050505050565b600060028054905014156126be576126d4565b6126d3600260006001600280549050036131ca565b5b565b600d60009054906101000a900473ffffffffffffffffffffffffffffffffffffffff1681565b60065481565b600d60009054906101000a900473ffffffffffffffffffffffffffffffffffffffff1673ffffffffffffffffffffffffffffffffffffffff163373ffffffffffffffffffffffffffffffffffffffff16146127a8576040517f08c379a000000000000000000000000000000000000000000000000000000000815260040180806020018281038252603181526020018061480b6031913960400191505060405180910390fd5b8060088190555050565b600d60009054906101000a900473ffffffffffffffffffffffffffffffffffffffff1673ffffffffffffffffffffffffffffffffffffffff163373ffffffffffffffffffffffffffffffffffffffff1614612858576040517f08c379a000000000000000000000000000000000000000000000000000000000815260040180806020018281038252603181526020018061480b6031913960400191505060405180910390fd5b80600e8190555050565b60075481565b600d60009054906101000a900473ffffffffffffffffffffffffffffffffffffffff1673ffffffffffffffffffffffffffffffffffffffff163373ffffffffffffffffffffffffffffffffffffffff161461290e576040517f08c379a000000000000000000000000000000000000000000000000000000000815260040180806020018281038252603181526020018061480b6031913960400191505060405180910390fd5b81600581905550806006819055505050565b600e5481565b600d60009054906101000a900473ffffffffffffffffffffffffffffffffffffffff1673ffffffffffffffffffffffffffffffffffffffff163373ffffffffffffffffffffffffffffffffffffffff16146129cc576040517f08c379a000000000000000000000000000000000000000000000000000000000815260040180806020018281038252603181526020018061480b6031913960400191505060405180910390fd5b8060108190555050565b600c5481565b600d60009054906101000a900473ffffffffffffffffffffffffffffffffffffffff1673ffffffffffffffffffffffffffffffffffffffff163373ffffffffffffffffffffffffffffffffffffffff1614612a82576040517f08c379a000000000000000000000000000000000000000000000000000000000815260040180806020018281038252603181526020018061480b6031913960400191505060405180910390fd5b80600080848152602001908152602001600020600e01819055506000612aaa82600454612d89565b9050601260009054906101000a900473ffffffffffffffffffffffffffffffffffffffff1673ffffffffffffffffffffffffffffffffffffffff1663341ce1fc600d60009054906101000a900473ffffffffffffffffffffffffffffffffffffffff16836040518363ffffffff1660e01b8152600401808373ffffffffffffffffffffffffffffffffffffffff16815260200182815260200192505050602060405180830381600087803b158015612b6157600080fd5b505af1158015612b75573d6000803e3d6000fd5b505050506040513d6020811015612b8b57600080fd5b8101908080519060200190929190505050612bf1576040517f08c379a00000000000000000000000000000000000000000000000000000000081526004018080602001828103825260248152602001806147e76024913960400191505060405180910390fd5b612bfa83613316565b505050565b600d60009054906101000a900473ffffffffffffffffffffffffffffffffffffffff1673ffffffffffffffffffffffffffffffffffffffff163373ffffffffffffffffffffffffffffffffffffffff1614612ca5576040517f08c379a000000000000000000000000000000000000000000000000000000000815260040180806020018281038252603181526020018061480b6031913960400191505060405180910390fd5b80600f8190555050565b600f5481565b600d60009054906101000a900473ffffffffffffffffffffffffffffffffffffffff1673ffffffffffffffffffffffffffffffffffffffff163373ffffffffffffffffffffffffffffffffffffffff1614612d5b576040517f08c379a000000000000000000000000000000000000000000000000000000000815260040180806020018281038252603181526020018061480b6031913960400191505060405180910390fd5b80600c8190555050565b60028181548110612d7557600080fd5b906000526020600020016000915090505481565b6000606483830281612d9757fe5b04905092915050565b60008080600090505b60008085815260200190815260200160002060030160009054906101000a900460ff1660ff168160ff161015612e50578260008086815260200190815260200160002060070160008360ff168152602001908152602001600020805490501115612e435760008085815260200190815260200160002060070160008260ff1681526020019081526020016000208054905092508060ff1691505b8080600101915050612da9565b50612e7f81838560008088815260200190815260200160002060030160009054906101000a900460ff16613c8f565b505050565b6000600e5460115402905090565b600a5481565b60005b60008084815260200190815260200160002060030160009054906101000a900460ff1660ff168160ff1610156130f35760005b60008085815260200190815260200160002060040160008360ff168152602001908152602001600020805490508160ff1610156130e557601260009054906101000a900473ffffffffffffffffffffffffffffffffffffffff1673ffffffffffffffffffffffffffffffffffffffff1663a9059cbb60008087815260200190815260200160002060040160008560ff1681526020019081526020016000208360ff1681548110612f7a57fe5b906000526020600020906004020160010160009054906101000a900473ffffffffffffffffffffffffffffffffffffffff1660008088815260200190815260200160002060040160008660ff1681526020019081526020016000208460ff1681548110612fe357fe5b9060005260206000209060040201600201546040518363ffffffff1660e01b8152600401808373ffffffffffffffffffffffffffffffffffffffff16815260200182815260200192505050602060405180830381600087803b15801561304857600080fd5b505af115801561305c573d6000803e3d6000fd5b505050506040513d602081101561307257600080fd5b81019080805190602001909291905050506130d8576040517f08c379a00000000000000000000000000000000000000000000000000000000081526004018080602001828103825260248152602001806147e76024913960400191505060405180910390fd5b8080600101915050612ece565b508080600101915050612e9b565b506001600080848152602001908152602001600020600f0160006101000a81548160ff0219169083151502179055507f847521552ad126e64c52b14640c804737bd67f2b6674309b332d1e5b17f857d182826040518083815260200180602001828103825283818151815260200191508051906020019080838360005b8381101561318b578082015181840152602081019050613170565b50505050905090810190601f1680156131b85780820380516001836020036101000a031916815260200191505b50935050505060405180910390a15050565b600082905060008290506000856002868603816131e357fe5b048601815481106131f057fe5b906000526020600020015490505b8183116132e6575b8086848154811061321357fe5b90600052602060002001541015613231578280600101935050613206565b5b85828154811061323e57fe5b906000526020600020015481101561325e57818060019003925050613232565b8183116132e15785828154811061327157fe5b906000526020600020015486848154811061328857fe5b906000526020600020015487858154811061329f57fe5b9060005260206000200160008986815481106132b757fe5b90600052602060002001600084919050558391905055505082806001019350508180600190039250505b6131fe565b818510156132fa576132f98686846131ca565b5b8383101561330e5761330d8684866131ca565b5b505050505050565b600073ffffffffffffffffffffffffffffffffffffffff16600080838152602001908152602001600020600b0160009054906101000a900473ffffffffffffffffffffffffffffffffffffffff1673ffffffffffffffffffffffffffffffffffffffff16146139865760006133a5600080848152602001908152602001600020600e0154600160055401612d89565b9050601260009054906101000a900473ffffffffffffffffffffffffffffffffffffffff1673ffffffffffffffffffffffffffffffffffffffff1663341ce1fc600080858152602001908152602001600020600a0160019054906101000a900473ffffffffffffffffffffffffffffffffffffffff16836040518363ffffffff1660e01b8152600401808373ffffffffffffffffffffffffffffffffffffffff16815260200182815260200192505050602060405180830381600087803b15801561346f57600080fd5b505af1158015613483573d6000803e3d6000fd5b505050506040513d602081101561349957600080fd5b81019080805190602001909291905050506134ff576040517f08c379a00000000000000000000000000000000000000000000000000000000081526004018080602001828103825260248152602001806147e76024913960400191505060405180910390fd5b6000613525600080858152602001908152602001600020600e01546001600a5401612d89565b9050601260009054906101000a900473ffffffffffffffffffffffffffffffffffffffff1673ffffffffffffffffffffffffffffffffffffffff1663341ce1fc600080868152602001908152602001600020600b0160009054906101000a900473ffffffffffffffffffffffffffffffffffffffff16836040518363ffffffff1660e01b8152600401808373ffffffffffffffffffffffffffffffffffffffff16815260200182815260200192505050602060405180830381600087803b1580156135ef57600080fd5b505af1158015613603573d6000803e3d6000fd5b505050506040513d602081101561361957600080fd5b810190808051906020019092919050505061367f576040517f08c379a00000000000000000000000000000000000000000000000000000000081526004018080602001828103825260248152602001806147e76024913960400191505060405180910390fd5b60006136a6600080868152602001908152602001600020600d0154600b5460065401612d89565b9050601260009054906101000a900473ffffffffffffffffffffffffffffffffffffffff1673ffffffffffffffffffffffffffffffffffffffff1663a9059cbb600080878152602001908152602001600020600a0160019054906101000a900473ffffffffffffffffffffffffffffffffffffffff16836040518363ffffffff1660e01b8152600401808373ffffffffffffffffffffffffffffffffffffffff16815260200182815260200192505050602060405180830381600087803b15801561377057600080fd5b505af1158015613784573d6000803e3d6000fd5b505050506040513d602081101561379a57600080fd5b8101908080519060200190929190505050613800576040517f08c379a00000000000000000000000000000000000000000000000000000000081526004018080602001828103825260248152602001806147e76024913960400191505060405180910390fd5b6000613823600080878152602001908152602001600020600d0154600b54612d89565b9050601260009054906101000a900473ffffffffffffffffffffffffffffffffffffffff1673ffffffffffffffffffffffffffffffffffffffff1663a9059cbb600080888152602001908152602001600020600b0160009054906101000a900473ffffffffffffffffffffffffffffffffffffffff16836040518363ffffffff1660e01b8152600401808373ffffffffffffffffffffffffffffffffffffffff16815260200182815260200192505050602060405180830381600087803b1580156138ed57600080fd5b505af1158015613901573d6000803e3d6000fd5b505050506040513d602081101561391757600080fd5b810190808051906020019092919050505061397d576040517f08c379a00000000000000000000000000000000000000000000000000000000081526004018080602001828103825260248152602001806147e76024913960400191505060405180910390fd5b50505050613c83565b60006139a9600080848152602001908152602001600020600e0154600554612d89565b9050601260009054906101000a900473ffffffffffffffffffffffffffffffffffffffff1673ffffffffffffffffffffffffffffffffffffffff1663341ce1fc600080858152602001908152602001600020600a0160019054906101000a900473ffffffffffffffffffffffffffffffffffffffff16836040518363ffffffff1660e01b8152600401808373ffffffffffffffffffffffffffffffffffffffff16815260200182815260200192505050602060405180830381600087803b158015613a7357600080fd5b505af1158015613a87573d6000803e3d6000fd5b505050506040513d6020811015613a9d57600080fd5b8101908080519060200190929190505050613b03576040517f08c379a00000000000000000000000000000000000000000000000000000000081526004018080602001828103825260248152602001806147e76024913960400191505060405180910390fd5b6000613b26600080858152602001908152602001600020600d0154600654612d89565b9050601260009054906101000a900473ffffffffffffffffffffffffffffffffffffffff1673ffffffffffffffffffffffffffffffffffffffff1663a9059cbb600080868152602001908152602001600020600a0160019054906101000a900473ffffffffffffffffffffffffffffffffffffffff16836040518363ffffffff1660e01b8152600401808373ffffffffffffffffffffffffffffffffffffffff16815260200182815260200192505050602060405180830381600087803b158015613bf057600080fd5b505af1158015613c04573d6000803e3d6000fd5b505050506040513d6020811015613c1a57600080fd5b8101908080519060200190929190505050613c80576040517f08c379a00000000000000000000000000000000000000000000000000000000081526004018080602001828103825260248152602001806147e76024913960400191505060405180910390fd5b50505b613c8c81613eec565b50565b6001600080848152602001908152602001600020600801541115613ec1576000808260ff1667ffffffffffffffff81118015613cca57600080fd5b50604051908082528060200260200182016040528015613cf95781602001602082028036833780820191505090505b50905060005b8360ff168160ff161015613d625760008086815260200190815260200160002060070160008260ff16815260200190815260200160002080549050828260ff1681518110613d4957fe5b6020026020010181815250508080600101915050613cff565b50613d6c816116d3565b613d746126ab565b60005b6001600280549050038160ff161015613e16576002805490506001820160ff161015613e095760028160ff1681548110613dad57fe5b906000526020600020015460026001830160ff1681548110613dcb57fe5b90600052602060002001541415613e085760028160ff1681548110613dec57fe5b9060005260206000200154861415613e075782806001019350505b5b5b8080600101915050613d77565b5060008260ff161115613e95576001600080868152602001908152602001600020600f0160006101000a81548160ff021916908315150217905550613e90846040518060400160405280601581526020017f6475706c6963617465732076616c696461746f72730000000000000000000000815250612e98565b613eba565b85600080868152602001908152602001600020600c0181905550613eb9868561446e565b5b5050613ee6565b83600080848152602001908152602001600020600c0181905550613ee5848361446e565b5b50505050565b6000806000838152602001908152602001600020600c01549050600080600073ffffffffffffffffffffffffffffffffffffffff16600080868152602001908152602001600020600b0160009054906101000a900473ffffffffffffffffffffffffffffffffffffffff1673ffffffffffffffffffffffffffffffffffffffff161415613f7f5760095460085401613f83565b6008545b905060005b6000808681526020019081526020016000206007016000858152602001908152602001600020805490508160ff1610156140135760008086815260200190815260200160002060070160008581526020019081526020016000208160ff1681548110613ff057fe5b906000526020600020906002020160010154830192508080600101915050613f88565b5060005b6000808681526020019081526020016000206007016000858152602001908152602001600020805490508160ff16101561445e57600061406e600080888152602001908152602001600020600e0154600754612d89565b905060008460008089815260200190815260200160002060070160008881526020019081526020016000208460ff16815481106140a757fe5b9060005260206000209060020201600101548302816140c257fe5b049050601260009054906101000a900473ffffffffffffffffffffffffffffffffffffffff1673ffffffffffffffffffffffffffffffffffffffff1663341ce1fc6000808a815260200190815260200160002060070160008981526020019081526020016000208560ff168154811061413757fe5b906000526020600020906002020160000160009054906101000a900473ffffffffffffffffffffffffffffffffffffffff16836040518363ffffffff1660e01b8152600401808373ffffffffffffffffffffffffffffffffffffffff16815260200182815260200192505050602060405180830381600087803b1580156141bd57600080fd5b505af11580156141d1573d6000803e3d6000fd5b505050506040513d60208110156141e757600080fd5b810190808051906020019092919050505061424d576040517f08c379a00000000000000000000000000000000000000000000000000000000081526004018080602001828103825260248152602001806147e76024913960400191505060405180910390fd5b600061426e6000808a8152602001908152602001600020600d015486612d89565b90506000866000808b815260200190815260200160002060070160008a81526020019081526020016000208660ff16815481106142a757fe5b9060005260206000209060020201600101548302816142c257fe5b049050601260009054906101000a900473ffffffffffffffffffffffffffffffffffffffff1673ffffffffffffffffffffffffffffffffffffffff1663a9059cbb6000808c815260200190815260200160002060070160008b81526020019081526020016000208760ff168154811061433757fe5b906000526020600020906002020160000160009054906101000a900473ffffffffffffffffffffffffffffffffffffffff16836040518363ffffffff1660e01b8152600401808373ffffffffffffffffffffffffffffffffffffffff16815260200182815260200192505050602060405180830381600087803b1580156143bd57600080fd5b505af11580156143d1573d6000803e3d6000fd5b505050506040513d60208110156143e757600080fd5b810190808051906020019092919050505061444d576040517f08c379a00000000000000000000000000000000000000000000000000000000081526004018080602001828103825260248152602001806147e76024913960400191505060405180910390fd5b505050508080600101915050614017565b50614468846145ef565b50505050565b600080600080848152602001908152602001600020600401600085815260200190815260200160002080549050905060005b818160ff1610156145025760008085815260200190815260200160002060040160008681526020019081526020016000208160ff16815481106144df57fe5b9060005260206000209060040201600201548301925080806001019150506144a0565b50600082600080868152602001908152602001600020600d0154039050600081141561456c57614567846040518060400160405280601d81526020017f706c61796572732063686f7365206f6e6c79206f6e6520616e7377657200000081525061184f565b6145e8565b7fc564f1ce140502e31afce0f5ad54d2877ba2dc7bd1b1e78a40794842d8d9c5a78460008087815260200190815260200160002060060154600080888152602001908152602001600020600d01546010546040518085815260200184815260200183815260200182815260200194505050505060405180910390a15b5050505050565b50565b828054828255906000526020600020908101928215614681579160200282015b8281111561468057823573ffffffffffffffffffffffffffffffffffffffff168260006101000a81548173ffffffffffffffffffffffffffffffffffffffff021916908373ffffffffffffffffffffffffffffffffffffffff16021790555091602001919060010190614612565b5b50905061468e9190614750565b5090565b6040518060400160405280600073ffffffffffffffffffffffffffffffffffffffff168152602001600081525090565b8280548282559060005260206000209081019282156146fe579160200282015b828111156146fd5782518255916020019190600101906146e2565b5b50905061470b9190614750565b5090565b604051806080016040528060008152602001600073ffffffffffffffffffffffffffffffffffffffff16815260200160008152602001600060ff1681525090565b5b80821115614769576000816000905550600101614751565b509056fe5472616e736665722042545920746f6b656e7320666f722050524f206576656e74206572726f727573657220616c726561647920706172746963697061746520696e206576656e7462657420616d6f756e74206d75737420626520626967676572206f7220657175616c20746f20302e303120746f6b656e735265766572742042455420746f6b656e20746f20706c6179657273206973206572726f72546869732066756e6374696f6e20636f756c64206f6e6c7920626520657865637574656420627920746865206f776e6572a26469706673582212201ece2bbae6407d914c27709427f25f7bf562eb7cfe2b70e31f067a8acb41f3ac64736f6c63430007060033",
  "immutableReferences": {},
  "source": "// SPDX-License-Identifier: MIT\npragma solidity >=0.4.22 <0.9.0;\n\nimport {PubStruct} from \"../../struct/PubStruct.sol\";\nimport {TimeValidation} from \"../../helpers/TimeValidation.sol\";\nimport {BET} from \"../../tokens/BET.sol\";\nimport {BTY} from \"../../tokens/BTY.sol\";\nimport {FinishEvent} from \"./FinishEvent.sol\";\n\ncontract PublicEvents is\n    TimeValidation,\n    PubStruct,\n    FinishEvent\n{\n    event calculateExpert(int256 id, uint256 activePlayers);\n    constructor(BET _betAddress, BTY _btyAddress) FinishEvent(_betAddress, _btyAddress){}\n    uint256 minBet = 10000000000000000;\n\n    function newEvent(\n        int256 _id,\n        uint256 _startTime,\n        uint256 _endTime,\n        uint8 _questAmount,\n        uint256 _amountExperts,\n        bool _calculateExperts,\n        address payable _host,\n        bool _premium,\n        uint256 _amountPremiumEvent\n    ) public payable ownerOnly() {\n        events[_id].id = _id;\n        events[_id].startTime = _startTime;\n        events[_id].endTime = _endTime;\n        events[_id].questAmount = _questAmount;\n        events[_id].amountExperts = _amountExperts;\n        events[_id].host = _host;\n        events[_id].calculateExperts = _calculateExperts;\n        events[_id].premium = _premium;\n        if (_premium) {\n            require(\n                btyToken.allowance(_host, address(this)) >= _amountPremiumEvent,\n                \"Allowance error\"\n            );\n            require(\n                btyToken.transferFrom(\n                    _host,\n                    address(this),\n                    _amountPremiumEvent\n                ),\n                \"Transfer BTY tokens for PRO event error\"\n            );\n        }\n    }\n\n    function addAdvisor(address payable _advisor, int256 _id) public ownerOnly(){\n          events[_id].advisor = _advisor;\n    }\n\n    function setAnswer(\n        int256 _id,\n        uint8 _whichAnswer,\n        uint256 _amount,\n        address payable _playerWallet,\n        int256 _playerId,\n        uint8 _referrersDeep\n    ) public payable ownerOnly() {\n        require(\n            timeAnswer(events[_id].startTime, events[_id].endTime) == 0,\n            \"Time is not valid\"\n        );\n        require(events[_id].reverted, \"event is reverted\");\n        require(events[_id].eventFinish, \"event is finish\");\n        require(\n            events[_id].allPlayers[_playerWallet] == true,\n            \"user already participate in event\"\n        );\n        require(_amount >= minBet, \"bet amount must be bigger or equal to 0.01 tokens\" );\n\n        PubStruct.Player memory player;\n        player = PubStruct.Player(_playerId, _playerWallet, _amount, _referrersDeep);\n        events[_id].players[_whichAnswer].push(player);\n        events[_id].allPlayers[_playerWallet] = true;\n        events[_id].activePlayers += 1;\n        events[_id].pool += _amount;\n\n        require(\n            betToken.allowance(_playerWallet, address(this)) >= _amount,\n            \"Allowance error\"\n        );\n        require(\n            betToken.transferFrom(_playerWallet, address(this), _amount),\n            \"Transfer BTY from players error\"\n        );\n    }\n\n    function setReferrers(string memory _key, address payable[] calldata _referrers) public ownerOnly(){\n        referrers[_key].referrer = _referrers;\n    }\n\n    function setValidator(\n        int256 _id,\n        uint8 _whichAnswer,\n        address payable _expertWallet,\n        uint256 _reputation\n    ) public payable ownerOnly() {\n        require(timeValidate(events[_id].endTime) == 0, \"Time is not valid\");\n        require(\n            events[_id].allPlayers[_expertWallet] == true,\n            \"user already participate in event\"\n        );\n        require(events[_id].reverted, \"event is reverted\");\n        require(events[_id].eventFinish, \"event is finish\");\n\n        if (events[_id].activePlayers == 0) {\n            events[_id].reverted = true;\n            emit revertedEvent(_id, \"do not have players on event\");\n        } else {\n            if (\n                events[_id].calculateExperts && events[_id].amountExperts == 0\n            ) {\n                emit calculateExpert(_id, events[_id].activePlayers);\n            } else {\n                PubStruct.Expert memory expert;\n                expert = PubStruct.Expert(_expertWallet, _reputation);\n                events[_id].expert[_whichAnswer].push(expert);\n                uint256 active = events[_id].activeExperts + 1;\n                events[_id].activeExperts = active;\n\n                if (active == events[_id].amountExperts && events[_id].amountExperts > 0) {\n                    letsFindCorrectAnswer(_id);\n                }\n            }\n        }\n    }\n\n    function setActivePlayersFromOracl(uint256 _amount, int256 _id) public ownerOnly {\n        events[_id].amountExperts = _amount;\n    }\n\n}\n",
  "sourcePath": "/Users/macbook/Documents/freelance/tokenominc/contracts/events/PublicEvents/PublicEvents.sol",
  "compiler": {
    "name": "solc",
    "version": "0.7.6+commit.7338295f.Linux.g++"
  },
  "schemaVersion": "3.2.2",
  "updatedAt": "2021-03-01T18:47:47.483Z",
  "networkType": "ethereum",
  "devdoc": {
    "kind": "dev",
    "methods": {},
    "version": 1
  },
  "userdoc": {
    "kind": "user",
    "methods": {},
    "version": 1
  }
}