{
  "contractName": "PublicEvents",
  "abi": [
    {
      "inputs": [
        {
          "internalType": "contract BET",
          "name": "_betAddress",
          "type": "address"
        },
        {
          "internalType": "contract BTY",
          "name": "_btyAddress",
          "type": "address"
        }
      ],
      "stateMutability": "nonpayable",
      "type": "constructor"
    },
    {
      "anonymous": false,
      "inputs": [
        {
          "indexed": false,
          "internalType": "address",
          "name": "userAddress",
          "type": "address"
        },
        {
          "indexed": false,
          "internalType": "address payable",
          "name": "relayerAddress",
          "type": "address"
        },
        {
          "indexed": false,
          "internalType": "bytes",
          "name": "functionSignature",
          "type": "bytes"
        }
      ],
      "name": "MetaTransactionExecuted",
      "type": "event"
    },
    {
      "anonymous": false,
      "inputs": [
        {
          "indexed": true,
          "internalType": "bytes32",
          "name": "role",
          "type": "bytes32"
        },
        {
          "indexed": true,
          "internalType": "bytes32",
          "name": "previousAdminRole",
          "type": "bytes32"
        },
        {
          "indexed": true,
          "internalType": "bytes32",
          "name": "newAdminRole",
          "type": "bytes32"
        }
      ],
      "name": "RoleAdminChanged",
      "type": "event"
    },
    {
      "anonymous": false,
      "inputs": [
        {
          "indexed": true,
          "internalType": "bytes32",
          "name": "role",
          "type": "bytes32"
        },
        {
          "indexed": true,
          "internalType": "address",
          "name": "account",
          "type": "address"
        },
        {
          "indexed": true,
          "internalType": "address",
          "name": "sender",
          "type": "address"
        }
      ],
      "name": "RoleGranted",
      "type": "event"
    },
    {
      "anonymous": false,
      "inputs": [
        {
          "indexed": true,
          "internalType": "bytes32",
          "name": "role",
          "type": "bytes32"
        },
        {
          "indexed": true,
          "internalType": "address",
          "name": "account",
          "type": "address"
        },
        {
          "indexed": true,
          "internalType": "address",
          "name": "sender",
          "type": "address"
        }
      ],
      "name": "RoleRevoked",
      "type": "event"
    },
    {
      "anonymous": false,
      "inputs": [
        {
          "indexed": false,
          "internalType": "int256",
          "name": "id",
          "type": "int256"
        },
        {
          "indexed": false,
          "internalType": "string",
          "name": "purpose",
          "type": "string"
        }
      ],
      "name": "revertedEvent",
      "type": "event"
    },
    {
      "inputs": [],
      "name": "DEFAULT_ADMIN_ROLE",
      "outputs": [
        {
          "internalType": "bytes32",
          "name": "",
          "type": "bytes32"
        }
      ],
      "stateMutability": "view",
      "type": "function",
      "constant": true
    },
    {
      "inputs": [
        {
          "internalType": "uint256",
          "name": "players",
          "type": "uint256"
        }
      ],
      "name": "calculateExpertAmount",
      "outputs": [
        {
          "internalType": "uint256",
          "name": "",
          "type": "uint256"
        }
      ],
      "stateMutability": "pure",
      "type": "function",
      "constant": true
    },
    {
      "inputs": [
        {
          "internalType": "address",
          "name": "userAddress",
          "type": "address"
        },
        {
          "internalType": "bytes",
          "name": "functionSignature",
          "type": "bytes"
        },
        {
          "internalType": "bytes32",
          "name": "sigR",
          "type": "bytes32"
        },
        {
          "internalType": "bytes32",
          "name": "sigS",
          "type": "bytes32"
        },
        {
          "internalType": "uint8",
          "name": "sigV",
          "type": "uint8"
        }
      ],
      "name": "executeMetaTransaction",
      "outputs": [
        {
          "internalType": "bytes",
          "name": "",
          "type": "bytes"
        }
      ],
      "stateMutability": "payable",
      "type": "function",
      "payable": true
    },
    {
      "inputs": [],
      "name": "getCompanyPerc",
      "outputs": [
        {
          "internalType": "uint256",
          "name": "",
          "type": "uint256"
        }
      ],
      "stateMutability": "view",
      "type": "function",
      "constant": true
    },
    {
      "inputs": [],
      "name": "getExpertPerc",
      "outputs": [
        {
          "internalType": "uint256",
          "name": "",
          "type": "uint256"
        }
      ],
      "stateMutability": "view",
      "type": "function",
      "constant": true
    },
    {
      "inputs": [],
      "name": "getFirstWithdraw",
      "outputs": [
        {
          "internalType": "uint256",
          "name": "",
          "type": "uint256"
        }
      ],
      "stateMutability": "view",
      "type": "function",
      "constant": true
    },
    {
      "inputs": [],
      "name": "getGFindex",
      "outputs": [
        {
          "internalType": "uint256",
          "name": "",
          "type": "uint256"
        }
      ],
      "stateMutability": "view",
      "type": "function",
      "constant": true
    },
    {
      "inputs": [],
      "name": "getGFrewards",
      "outputs": [
        {
          "internalType": "uint256",
          "name": "",
          "type": "uint256"
        }
      ],
      "stateMutability": "view",
      "type": "function",
      "constant": true
    },
    {
      "inputs": [],
      "name": "getHostPerc",
      "outputs": [
        {
          "internalType": "uint256",
          "name": "",
          "type": "uint256"
        }
      ],
      "stateMutability": "view",
      "type": "function",
      "constant": true
    },
    {
      "inputs": [
        {
          "internalType": "address",
          "name": "user",
          "type": "address"
        }
      ],
      "name": "getNonce",
      "outputs": [
        {
          "internalType": "uint256",
          "name": "nonce",
          "type": "uint256"
        }
      ],
      "stateMutability": "view",
      "type": "function",
      "constant": true
    },
    {
      "inputs": [
        {
          "internalType": "uint256",
          "name": "_percent",
          "type": "uint256"
        },
        {
          "internalType": "uint256",
          "name": "_from",
          "type": "uint256"
        }
      ],
      "name": "getPersent",
      "outputs": [
        {
          "internalType": "uint256",
          "name": "",
          "type": "uint256"
        }
      ],
      "stateMutability": "pure",
      "type": "function",
      "constant": true
    },
    {
      "inputs": [],
      "name": "getPlayerPers",
      "outputs": [
        {
          "internalType": "uint256",
          "name": "",
          "type": "uint256"
        }
      ],
      "stateMutability": "view",
      "type": "function",
      "constant": true
    },
    {
      "inputs": [
        {
          "internalType": "bytes32",
          "name": "role",
          "type": "bytes32"
        }
      ],
      "name": "getRoleAdmin",
      "outputs": [
        {
          "internalType": "bytes32",
          "name": "",
          "type": "bytes32"
        }
      ],
      "stateMutability": "view",
      "type": "function",
      "constant": true
    },
    {
      "inputs": [
        {
          "internalType": "bytes32",
          "name": "role",
          "type": "bytes32"
        },
        {
          "internalType": "uint256",
          "name": "index",
          "type": "uint256"
        }
      ],
      "name": "getRoleMember",
      "outputs": [
        {
          "internalType": "address",
          "name": "",
          "type": "address"
        }
      ],
      "stateMutability": "view",
      "type": "function",
      "constant": true
    },
    {
      "inputs": [
        {
          "internalType": "bytes32",
          "name": "role",
          "type": "bytes32"
        }
      ],
      "name": "getRoleMemberCount",
      "outputs": [
        {
          "internalType": "uint256",
          "name": "",
          "type": "uint256"
        }
      ],
      "stateMutability": "view",
      "type": "function",
      "constant": true
    },
    {
      "inputs": [],
      "name": "getWelcomeBTYTokens",
      "outputs": [
        {
          "internalType": "uint256",
          "name": "",
          "type": "uint256"
        }
      ],
      "stateMutability": "view",
      "type": "function",
      "constant": true
    },
    {
      "inputs": [
        {
          "internalType": "bytes32",
          "name": "role",
          "type": "bytes32"
        },
        {
          "internalType": "address",
          "name": "account",
          "type": "address"
        }
      ],
      "name": "grantRole",
      "outputs": [],
      "stateMutability": "nonpayable",
      "type": "function"
    },
    {
      "inputs": [
        {
          "internalType": "bytes32",
          "name": "role",
          "type": "bytes32"
        },
        {
          "internalType": "address",
          "name": "account",
          "type": "address"
        }
      ],
      "name": "hasRole",
      "outputs": [
        {
          "internalType": "bool",
          "name": "",
          "type": "bool"
        }
      ],
      "stateMutability": "view",
      "type": "function",
      "constant": true
    },
    {
      "inputs": [
        {
          "internalType": "bytes32",
          "name": "role",
          "type": "bytes32"
        },
        {
          "internalType": "address",
          "name": "account",
          "type": "address"
        }
      ],
      "name": "renounceRole",
      "outputs": [],
      "stateMutability": "nonpayable",
      "type": "function"
    },
    {
      "inputs": [
        {
          "internalType": "bytes32",
          "name": "role",
          "type": "bytes32"
        },
        {
          "internalType": "address",
          "name": "account",
          "type": "address"
        }
      ],
      "name": "revokeRole",
      "outputs": [],
      "stateMutability": "nonpayable",
      "type": "function"
    },
    {
      "inputs": [
        {
          "internalType": "uint256",
          "name": "_companyPerc",
          "type": "uint256"
        }
      ],
      "name": "setCompanyPerc",
      "outputs": [],
      "stateMutability": "nonpayable",
      "type": "function"
    },
    {
      "inputs": [
        {
          "internalType": "uint256",
          "name": "_expertPerc",
          "type": "uint256"
        }
      ],
      "name": "setExpertPerc",
      "outputs": [],
      "stateMutability": "nonpayable",
      "type": "function"
    },
    {
      "inputs": [
        {
          "internalType": "uint256",
          "name": "_firstWithdrawIndex",
          "type": "uint256"
        }
      ],
      "name": "setFirstWithdraw",
      "outputs": [],
      "stateMutability": "nonpayable",
      "type": "function"
    },
    {
      "inputs": [
        {
          "internalType": "uint256",
          "name": "_GFindex",
          "type": "uint256"
        }
      ],
      "name": "setGFindex",
      "outputs": [],
      "stateMutability": "nonpayable",
      "type": "function"
    },
    {
      "inputs": [
        {
          "internalType": "uint256",
          "name": "_GFrewards",
          "type": "uint256"
        }
      ],
      "name": "setGFrewards",
      "outputs": [],
      "stateMutability": "nonpayable",
      "type": "function"
    },
    {
      "inputs": [
        {
          "internalType": "uint256",
          "name": "_hostPerc",
          "type": "uint256"
        }
      ],
      "name": "setHostPerc",
      "outputs": [],
      "stateMutability": "nonpayable",
      "type": "function"
    },
    {
      "inputs": [
        {
          "internalType": "uint256",
          "name": "_playerPers",
          "type": "uint256"
        }
      ],
      "name": "setPlayerPers",
      "outputs": [],
      "stateMutability": "nonpayable",
      "type": "function"
    },
    {
      "inputs": [
        {
          "internalType": "uint256[]",
          "name": "_data",
          "type": "uint256[]"
        }
      ],
      "name": "setSort",
      "outputs": [],
      "stateMutability": "nonpayable",
      "type": "function"
    },
    {
      "inputs": [
        {
          "internalType": "uint256",
          "name": "_welcomeBTYTokens",
          "type": "uint256"
        }
      ],
      "name": "setWelcomeBTYTokens",
      "outputs": [],
      "stateMutability": "nonpayable",
      "type": "function"
    },
    {
      "inputs": [],
      "name": "sort",
      "outputs": [],
      "stateMutability": "nonpayable",
      "type": "function"
    },
    {
      "inputs": [
        {
          "internalType": "uint256",
          "name": "",
          "type": "uint256"
        }
      ],
      "name": "sortedArray",
      "outputs": [
        {
          "internalType": "uint256",
          "name": "",
          "type": "uint256"
        }
      ],
      "stateMutability": "view",
      "type": "function",
      "constant": true
    },
    {
      "inputs": [
        {
          "internalType": "uint256",
          "name": "_startTime",
          "type": "uint256"
        },
        {
          "internalType": "uint256",
          "name": "_endTime",
          "type": "uint256"
        }
      ],
      "name": "timeAnswer",
      "outputs": [
        {
          "internalType": "int8",
          "name": "",
          "type": "int8"
        }
      ],
      "stateMutability": "view",
      "type": "function",
      "constant": true
    },
    {
      "inputs": [
        {
          "internalType": "uint256",
          "name": "_endTime",
          "type": "uint256"
        }
      ],
      "name": "timeValidate",
      "outputs": [
        {
          "internalType": "int8",
          "name": "",
          "type": "int8"
        }
      ],
      "stateMutability": "view",
      "type": "function",
      "constant": true
    },
    {
      "stateMutability": "payable",
      "type": "receive",
      "payable": true
    },
    {
      "inputs": [
        {
          "internalType": "int256",
          "name": "_id",
          "type": "int256"
        },
        {
          "internalType": "uint256",
          "name": "_startTime",
          "type": "uint256"
        },
        {
          "internalType": "uint256",
          "name": "_endTime",
          "type": "uint256"
        },
        {
          "internalType": "uint8",
          "name": "_questAmount",
          "type": "uint8"
        },
        {
          "internalType": "uint256",
          "name": "_amountExperts",
          "type": "uint256"
        },
        {
          "internalType": "bool",
          "name": "_calculateExperts",
          "type": "bool"
        },
        {
          "internalType": "address payable",
          "name": "_host",
          "type": "address"
        },
        {
          "internalType": "bool",
          "name": "_premium",
          "type": "bool"
        },
        {
          "internalType": "uint256",
          "name": "_amountPremiumEvent",
          "type": "uint256"
        }
      ],
      "name": "newEvent",
      "outputs": [],
      "stateMutability": "payable",
      "type": "function",
      "payable": true
    },
    {
      "inputs": [
        {
          "internalType": "int256",
          "name": "_id",
          "type": "int256"
        },
        {
          "internalType": "uint8",
          "name": "_whichAnswer",
          "type": "uint8"
        },
        {
          "internalType": "uint256",
          "name": "_amount",
          "type": "uint256"
        },
        {
          "internalType": "address payable",
          "name": "_playerWallet",
          "type": "address"
        }
      ],
      "name": "setAnswer",
      "outputs": [],
      "stateMutability": "payable",
      "type": "function",
      "payable": true
    },
    {
      "inputs": [
        {
          "internalType": "int256",
          "name": "_id",
          "type": "int256"
        },
        {
          "internalType": "uint8",
          "name": "_whichAnswer",
          "type": "uint8"
        },
        {
          "internalType": "address payable",
          "name": "_expertWallet",
          "type": "address"
        },
        {
          "internalType": "int256",
          "name": "rating",
          "type": "int256"
        }
      ],
      "name": "setValidator",
      "outputs": [],
      "stateMutability": "payable",
      "type": "function",
      "payable": true
    },
    {
      "inputs": [
        {
          "internalType": "int256",
          "name": "_id",
          "type": "int256"
        },
        {
          "internalType": "string",
          "name": "purpose",
          "type": "string"
        }
      ],
      "name": "revertedPayment",
      "outputs": [],
      "stateMutability": "nonpayable",
      "type": "function"
    }
  ],
  "bytecode": "0x6080604052600a60085568056bc75e2d631000006009556001600a55678ac7230489e80000600b5534801561003357600080fd5b5060405162004366380380620043668339818101604052604081101561005857600080fd5b8101908080519060200190929190805190602001909291905050506040518060400160405280600f81526020017f5075626c69635f636f6e747261637400000000000000000000000000000000008152506040518060400160405280600181526020017f31000000000000000000000000000000000000000000000000000000000000008152506005828282828282604051806080016040528060528152602001620043146052913980519060200120838051906020012083805190602001208330604051602001808681526020018581526020018481526020018381526020018273ffffffffffffffffffffffffffffffffffffffff168152602001955050505050506040516020818303038152906040528051906020012060018190555050505050505050505033600760006101000a81548173ffffffffffffffffffffffffffffffffffffffff021916908373ffffffffffffffffffffffffffffffffffffffff16021790555033600d60006101000a81548173ffffffffffffffffffffffffffffffffffffffff021916908373ffffffffffffffffffffffffffffffffffffffff16021790555081600e60006101000a81548173ffffffffffffffffffffffffffffffffffffffff021916908373ffffffffffffffffffffffffffffffffffffffff16021790555080600f60006101000a81548173ffffffffffffffffffffffffffffffffffffffff021916908373ffffffffffffffffffffffffffffffffffffffff160217905550505061407d80620002976000396000f3fe60806040526004361061021e5760003560e01c80638cdc86a611610123578063ca15c873116100ab578063e1aea5231161006f578063e1aea52314610d6e578063e2d914f214610da9578063e640a53314610df8578063e787218314610e23578063ef99e09914610e7c57610225565b8063ca15c87314610c33578063ca2f2f7a14610c82578063d547741f14610cad578063d70b4bb614610d08578063d7a86da714610d3357610225565b8063997862cb116100f2578063997862cb14610b3c578063a03c669714610b67578063a217fddf14610ba2578063be8968aa14610bcd578063c369085e14610bf857610225565b80638cdc86a614610a0a5780639010d07c14610a2157806391d1485414610a905780639580de6714610b0157610225565b80632d0335ab116101a657806354f6db741161017557806354f6db74146107b0578063769c48981461080c578063782f4a4f146108de5780637dbb9dfa1461090957806388d9dd49146109a557610225565b80632d0335ab146105d05780632f2ff15d1461063557806336568abe146106905780633b97b5d6146106eb57610225565b806324467c45116101ed57806324467c451461047a578063246fe647146104b5578063248a9ca314610507578063282dc546146105565780632aad63d11461058157610225565b80630328ff4a1461022a5780630bf94f98146102655780630c53c51c146102ca57806319d6b7d81461043f57610225565b3661022557005b600080fd5b34801561023657600080fd5b506102636004803603602081101561024d57600080fd5b8101908080359060200190929190505050610ea7565b005b6102c86004803603608081101561027b57600080fd5b8101908080359060200190929190803560ff16906020019092919080359060200190929190803573ffffffffffffffffffffffffffffffffffffffff169060200190929190505050610f57565b005b6103c4600480360360a08110156102e057600080fd5b81019080803573ffffffffffffffffffffffffffffffffffffffff1690602001909291908035906020019064010000000081111561031d57600080fd5b82018360208201111561032f57600080fd5b8035906020019184600183028401116401000000008311171561035157600080fd5b91908080601f016020809104026020016040519081016040528093929190818152602001838380828437600081840152601f19601f8201169050808301925050505050505091929192908035906020019092919080359060200190929190803560ff1690602001909291905050506116e1565b6040518080602001828103825283818151815260200191508051906020019080838360005b838110156104045780820151818401526020810190506103e9565b50505050905090810190601f1680156104315780820380516001836020036101000a031916815260200191505b509250505060405180910390f35b34801561044b57600080fd5b506104786004803603602081101561046257600080fd5b8101908080359060200190929190505050611aee565b005b34801561048657600080fd5b506104b36004803603602081101561049d57600080fd5b8101908080359060200190929190505050611b9e565b005b3480156104c157600080fd5b506104ee600480360360208110156104d857600080fd5b8101908080359060200190929190505050611c4e565b604051808260000b815260200191505060405180910390f35b34801561051357600080fd5b506105406004803603602081101561052a57600080fd5b8101908080359060200190929190505050611c6c565b6040518082815260200191505060405180910390f35b34801561056257600080fd5b5061056b611c8b565b6040518082815260200191505060405180910390f35b34801561058d57600080fd5b506105ba600480360360208110156105a457600080fd5b8101908080359060200190929190505050611c95565b6040518082815260200191505060405180910390f35b3480156105dc57600080fd5b5061061f600480360360208110156105f357600080fd5b81019080803573ffffffffffffffffffffffffffffffffffffffff169060200190929190505050611dd9565b6040518082815260200191505060405180910390f35b34801561064157600080fd5b5061068e6004803603604081101561065857600080fd5b8101908080359060200190929190803573ffffffffffffffffffffffffffffffffffffffff169060200190929190505050611e22565b005b34801561069c57600080fd5b506106e9600480360360408110156106b357600080fd5b8101908080359060200190929190803573ffffffffffffffffffffffffffffffffffffffff169060200190929190505050611eab565b005b3480156106f757600080fd5b506107ae6004803603602081101561070e57600080fd5b810190808035906020019064010000000081111561072b57600080fd5b82018360208201111561073d57600080fd5b8035906020019184602083028401116401000000008311171561075f57600080fd5b919080806020026020016040519081016040528093929190818152602001838360200280828437600081840152601f19601f820116905080830192505050505050509192919290505050611f44565b005b3480156107bc57600080fd5b506107f3600480360360408110156107d357600080fd5b810190808035906020019092919080359060200190929190505050611f5e565b604051808260000b815260200191505060405180910390f35b34801561081857600080fd5b506108dc6004803603604081101561082f57600080fd5b81019080803590602001909291908035906020019064010000000081111561085657600080fd5b82018360208201111561086857600080fd5b8035906020019184600183028401116401000000008311171561088a57600080fd5b91908080601f016020809104026020016040519081016040528093929190818152602001838380828437600081840152601f19601f820116905080830192505050505050509192919290505050611f90565b005b3480156108ea57600080fd5b506108f3612044565b6040518082815260200191505060405180910390f35b6109a3600480360361012081101561092057600080fd5b81019080803590602001909291908035906020019092919080359060200190929190803560ff16906020019092919080359060200190929190803515159060200190929190803573ffffffffffffffffffffffffffffffffffffffff1690602001909291908035151590602001909291908035906020019092919050505061204e565b005b610a08600480360360808110156109bb57600080fd5b8101908080359060200190929190803560ff169060200190929190803573ffffffffffffffffffffffffffffffffffffffff169060200190929190803590602001909291905050506124ea565b005b348015610a1657600080fd5b50610a1f612a9c565b005b348015610a2d57600080fd5b50610a6460048036036040811015610a4457600080fd5b810190808035906020019092919080359060200190929190505050612ac7565b604051808273ffffffffffffffffffffffffffffffffffffffff16815260200191505060405180910390f35b348015610a9c57600080fd5b50610ae960048036036040811015610ab357600080fd5b8101908080359060200190929190803573ffffffffffffffffffffffffffffffffffffffff169060200190929190505050612af8565b60405180821515815260200191505060405180910390f35b348015610b0d57600080fd5b50610b3a60048036036020811015610b2457600080fd5b8101908080359060200190929190505050612b29565b005b348015610b4857600080fd5b50610b51612bd9565b6040518082815260200191505060405180910390f35b348015610b7357600080fd5b50610ba060048036036020811015610b8a57600080fd5b8101908080359060200190929190505050612be3565b005b348015610bae57600080fd5b50610bb7612c93565b6040518082815260200191505060405180910390f35b348015610bd957600080fd5b50610be2612c9a565b6040518082815260200191505060405180910390f35b348015610c0457600080fd5b50610c3160048036036020811015610c1b57600080fd5b8101908080359060200190929190505050612ca4565b005b348015610c3f57600080fd5b50610c6c60048036036020811015610c5657600080fd5b8101908080359060200190929190505050612d54565b6040518082815260200191505060405180910390f35b348015610c8e57600080fd5b50610c97612d7a565b6040518082815260200191505060405180910390f35b348015610cb957600080fd5b50610d0660048036036040811015610cd057600080fd5b8101908080359060200190929190803573ffffffffffffffffffffffffffffffffffffffff169060200190929190505050612d84565b005b348015610d1457600080fd5b50610d1d612e0d565b6040518082815260200191505060405180910390f35b348015610d3f57600080fd5b50610d6c60048036036020811015610d5657600080fd5b8101908080359060200190929190505050612e17565b005b348015610d7a57600080fd5b50610da760048036036020811015610d9157600080fd5b8101908080359060200190929190505050612ec7565b005b348015610db557600080fd5b50610de260048036036020811015610dcc57600080fd5b8101908080359060200190929190505050612f77565b6040518082815260200191505060405180910390f35b348015610e0457600080fd5b50610e0d612f9b565b6040518082815260200191505060405180910390f35b348015610e2f57600080fd5b50610e6660048036036040811015610e4657600080fd5b810190808035906020019092919080359060200190929190505050612fa5565b6040518082815260200191505060405180910390f35b348015610e8857600080fd5b50610e91612fbc565b6040518082815260200191505060405180910390f35b600760009054906101000a900473ffffffffffffffffffffffffffffffffffffffff1673ffffffffffffffffffffffffffffffffffffffff163373ffffffffffffffffffffffffffffffffffffffff1614610f4d576040517f08c379a0000000000000000000000000000000000000000000000000000000008152600401808060200182810382526031815260200180613fe86031913960400191505060405180910390fd5b8060048190555050565b600760009054906101000a900473ffffffffffffffffffffffffffffffffffffffff1673ffffffffffffffffffffffffffffffffffffffff163373ffffffffffffffffffffffffffffffffffffffff1614610ffd576040517f08c379a0000000000000000000000000000000000000000000000000000000008152600401808060200182810382526031815260200180613fe86031913960400191505060405180910390fd5b600061103560106000878152602001908152602001600020600101546010600088815260200190815260200160002060020154611f5e565b60000b146110ab576040517f08c379a00000000000000000000000000000000000000000000000000000000081526004018080602001828103825260118152602001807f54696d65206973206e6f742076616c696400000000000000000000000000000081525060200191505060405180910390fd5b60106000858152602001908152602001600020600d0160009054906101000a900460ff16611141576040517f08c379a00000000000000000000000000000000000000000000000000000000081526004018080602001828103825260118152602001807f6576656e7420697320726576657274656400000000000000000000000000000081525060200191505060405180910390fd5b60106000858152602001908152602001600020600f0160009054906101000a900460ff166111d7576040517f08c379a000000000000000000000000000000000000000000000000000000000815260040180806020018281038252600f8152602001807f6576656e742069732066696e697368000000000000000000000000000000000081525060200191505060405180910390fd5b600115156010600086815260200190815260200160002060050160008373ffffffffffffffffffffffffffffffffffffffff1673ffffffffffffffffffffffffffffffffffffffff16815260200190815260200160002060009054906101000a900460ff16151514611294576040517f08c379a0000000000000000000000000000000000000000000000000000000008152600401808060200182810382526021815260200180613ebe6021913960400191505060405180910390fd5b61129c613dcc565b60405180604001604052808373ffffffffffffffffffffffffffffffffffffffff1681526020018481525090506010600086815260200190815260200160002060040160008560ff16815260200190815260200160002081908060018154018082558091505060019003906000526020600020906002020160009091909190915060008201518160000160006101000a81548173ffffffffffffffffffffffffffffffffffffffff021916908373ffffffffffffffffffffffffffffffffffffffff16021790555060208201518160010155505060016010600087815260200190815260200160002060050160008473ffffffffffffffffffffffffffffffffffffffff1673ffffffffffffffffffffffffffffffffffffffff16815260200190815260200160002060006101000a81548160ff021916908315150217905550600160106000878152602001908152602001600020600601600082825401925050819055508260106000878152602001908152602001600020600c016000828254019250508190555082600e60009054906101000a900473ffffffffffffffffffffffffffffffffffffffff1673ffffffffffffffffffffffffffffffffffffffff1663dd62ed3e84306040518363ffffffff1660e01b8152600401808373ffffffffffffffffffffffffffffffffffffffff1681526020018273ffffffffffffffffffffffffffffffffffffffff1681526020019250505060206040518083038186803b1580156114cd57600080fd5b505afa1580156114e1573d6000803e3d6000fd5b505050506040513d60208110156114f757600080fd5b8101908080519060200190929190505050101561157c576040517f08c379a000000000000000000000000000000000000000000000000000000000815260040180806020018281038252600f8152602001807f416c6c6f77616e6365206572726f72000000000000000000000000000000000081525060200191505060405180910390fd5b600e60009054906101000a900473ffffffffffffffffffffffffffffffffffffffff1673ffffffffffffffffffffffffffffffffffffffff166323b872dd8330866040518463ffffffff1660e01b8152600401808473ffffffffffffffffffffffffffffffffffffffff1681526020018373ffffffffffffffffffffffffffffffffffffffff1681526020018281526020019350505050602060405180830381600087803b15801561162d57600080fd5b505af1158015611641573d6000803e3d6000fd5b505050506040513d602081101561165757600080fd5b81019080805190602001909291905050506116da576040517f08c379a000000000000000000000000000000000000000000000000000000000815260040180806020018281038252601f8152602001807f5472616e73666572204254592066726f6d20706c6179657273206572726f720081525060200191505060405180910390fd5b5050505050565b606060006040518060600160405280600260008a73ffffffffffffffffffffffffffffffffffffffff1673ffffffffffffffffffffffffffffffffffffffff1681526020019081526020016000205481526020018873ffffffffffffffffffffffffffffffffffffffff1681526020018781525090506117648782878787612fca565b6117b9576040517f08c379a0000000000000000000000000000000000000000000000000000000008152600401808060200182810382526021815260200180613fa36021913960400191505060405180910390fd5b61180c6001600260008a73ffffffffffffffffffffffffffffffffffffffff1673ffffffffffffffffffffffffffffffffffffffff1681526020019081526020016000205461307990919063ffffffff16565b600260008973ffffffffffffffffffffffffffffffffffffffff1673ffffffffffffffffffffffffffffffffffffffff168152602001908152602001600020819055507f5845892132946850460bff5a0083f71031bc5bf9aadcd40f1de79423eac9b10b873388604051808473ffffffffffffffffffffffffffffffffffffffff1681526020018373ffffffffffffffffffffffffffffffffffffffff16815260200180602001828103825283818151815260200191508051906020019080838360005b838110156118eb5780820151818401526020810190506118d0565b50505050905090810190601f1680156119185780820380516001836020036101000a031916815260200191505b5094505050505060405180910390a16000803073ffffffffffffffffffffffffffffffffffffffff16888a6040516020018083805190602001908083835b602083106119795780518252602082019150602081019050602083039250611956565b6001836020036101000a0380198251168184511680821785525050505050509050018273ffffffffffffffffffffffffffffffffffffffff1660601b8152601401925050506040516020818303038152906040526040518082805190602001908083835b60208310611a0057805182526020820191506020810190506020830392506119dd565b6001836020036101000a0380198251168184511680821785525050505050509050019150506000604051808303816000865af19150503d8060008114611a62576040519150601f19603f3d011682016040523d82523d6000602084013e611a67565b606091505b509150915081611adf576040517f08c379a000000000000000000000000000000000000000000000000000000000815260040180806020018281038252601c8152602001807f46756e6374696f6e2063616c6c206e6f74207375636365737366756c0000000081525060200191505060405180910390fd5b80935050505095945050505050565b600760009054906101000a900473ffffffffffffffffffffffffffffffffffffffff1673ffffffffffffffffffffffffffffffffffffffff163373ffffffffffffffffffffffffffffffffffffffff1614611b94576040517f08c379a0000000000000000000000000000000000000000000000000000000008152600401808060200182810382526031815260200180613fe86031913960400191505060405180910390fd5b80600b8190555050565b600760009054906101000a900473ffffffffffffffffffffffffffffffffffffffff1673ffffffffffffffffffffffffffffffffffffffff163373ffffffffffffffffffffffffffffffffffffffff1614611c44576040517f08c379a0000000000000000000000000000000000000000000000000000000008152600401808060200182810382526031815260200180613fe86031913960400191505060405180910390fd5b8060038190555050565b60008082420312611c625760009050611c67565b600190505b919050565b6000806000838152602001908152602001600020600201549050919050565b6000600b54905090565b600060028211611ca85760019050611dd4565b60038210158015611cba5750600b8211155b15611cc85760039050611dd4565b600c8210158015611cda5750601e8211155b15611ce85760059050611dd4565b601f8210158015611cfa575060388211155b15611d085760079050611dd4565b60398210158015611d1a5750605b8211155b15611d285760099050611dd4565b605c8210158015611d3a575060858211155b15611d4857600b9050611dd4565b60868210158015611d5b575061012c8211155b15611d6957600f9050611dd4565b61012d8210158015611d7d57506101f48211155b15611d8b5760179050611dd4565b6101f58210158015611d9f57506103e88211155b15611dad5760219050611dd4565b6103e98210158015611dc157506113888211155b15611dcf5760469050611dd4565b606490505b919050565b6000600260008373ffffffffffffffffffffffffffffffffffffffff1673ffffffffffffffffffffffffffffffffffffffff168152602001908152602001600020549050919050565b611e4860008084815260200190815260200160002060020154611e43613101565b612af8565b611e9d576040517f08c379a000000000000000000000000000000000000000000000000000000000815260040180806020018281038252602f815260200180613f01602f913960400191505060405180910390fd5b611ea78282613109565b5050565b611eb3613101565b73ffffffffffffffffffffffffffffffffffffffff168173ffffffffffffffffffffffffffffffffffffffff1614611f36576040517f08c379a000000000000000000000000000000000000000000000000000000000815260040180806020018281038252602f815260200180614019602f913960400191505060405180910390fd5b611f40828261319c565b5050565b80600c9080519060200190611f5a929190613dfc565b5050565b60008083420312611f8557600042830312611f7c5760009050611f8a565b60029050611f8a565b600190505b92915050565b600760009054906101000a900473ffffffffffffffffffffffffffffffffffffffff1673ffffffffffffffffffffffffffffffffffffffff163373ffffffffffffffffffffffffffffffffffffffff1614612036576040517f08c379a0000000000000000000000000000000000000000000000000000000008152600401808060200182810382526031815260200180613fe86031913960400191505060405180910390fd5b612040828261322f565b5050565b6000600954905090565b600760009054906101000a900473ffffffffffffffffffffffffffffffffffffffff1673ffffffffffffffffffffffffffffffffffffffff163373ffffffffffffffffffffffffffffffffffffffff16146120f4576040517f08c379a0000000000000000000000000000000000000000000000000000000008152600401808060200182810382526031815260200180613fe86031913960400191505060405180910390fd5b88601060008b81526020019081526020016000206000018190555087601060008b81526020019081526020016000206001018190555086601060008b81526020019081526020016000206002018190555085601060008b815260200190815260200160002060030160006101000a81548160ff021916908360ff16021790555084601060008b81526020019081526020016000206009018190555082601060008b8152602001908152602001600020600a0160016101000a81548173ffffffffffffffffffffffffffffffffffffffff021916908373ffffffffffffffffffffffffffffffffffffffff16021790555083601060008b8152602001908152602001600020600a0160006101000a81548160ff02191690831515021790555081601060008b8152602001908152602001600020600d0160016101000a81548160ff02191690831515021790555081156124df5780600f60009054906101000a900473ffffffffffffffffffffffffffffffffffffffff1673ffffffffffffffffffffffffffffffffffffffff1663dd62ed3e85306040518363ffffffff1660e01b8152600401808373ffffffffffffffffffffffffffffffffffffffff1681526020018273ffffffffffffffffffffffffffffffffffffffff1681526020019250505060206040518083038186803b1580156122ee57600080fd5b505afa158015612302573d6000803e3d6000fd5b505050506040513d602081101561231857600080fd5b8101908080519060200190929190505050101561239d576040517f08c379a000000000000000000000000000000000000000000000000000000000815260040180806020018281038252600f8152602001807f416c6c6f77616e6365206572726f72000000000000000000000000000000000081525060200191505060405180910390fd5b600f60009054906101000a900473ffffffffffffffffffffffffffffffffffffffff1673ffffffffffffffffffffffffffffffffffffffff166323b872dd8430846040518463ffffffff1660e01b8152600401808473ffffffffffffffffffffffffffffffffffffffff1681526020018373ffffffffffffffffffffffffffffffffffffffff1681526020018281526020019350505050602060405180830381600087803b15801561244e57600080fd5b505af1158015612462573d6000803e3d6000fd5b505050506040513d602081101561247857600080fd5b81019080805190602001909291905050506124de576040517f08c379a0000000000000000000000000000000000000000000000000000000008152600401808060200182810382526027815260200180613e976027913960400191505060405180910390fd5b5b505050505050505050565b600760009054906101000a900473ffffffffffffffffffffffffffffffffffffffff1673ffffffffffffffffffffffffffffffffffffffff163373ffffffffffffffffffffffffffffffffffffffff1614612590576040517f08c379a0000000000000000000000000000000000000000000000000000000008152600401808060200182810382526031815260200180613fe86031913960400191505060405180910390fd5b60006125b16010600087815260200190815260200160002060020154611c4e565b60000b14612627576040517f08c379a00000000000000000000000000000000000000000000000000000000081526004018080602001828103825260118152602001807f54696d65206973206e6f742076616c696400000000000000000000000000000081525060200191505060405180910390fd5b600115156010600086815260200190815260200160002060050160008473ffffffffffffffffffffffffffffffffffffffff1673ffffffffffffffffffffffffffffffffffffffff16815260200190815260200160002060009054906101000a900460ff161515146126e4576040517f08c379a0000000000000000000000000000000000000000000000000000000008152600401808060200182810382526021815260200180613ebe6021913960400191505060405180910390fd5b60106000858152602001908152602001600020600d0160009054906101000a900460ff1661277a576040517f08c379a00000000000000000000000000000000000000000000000000000000081526004018080602001828103825260118152602001807f6576656e7420697320726576657274656400000000000000000000000000000081525060200191505060405180910390fd5b60106000858152602001908152602001600020600f0160009054906101000a900460ff16612810576040517f08c379a000000000000000000000000000000000000000000000000000000000815260040180806020018281038252600f8152602001807f6576656e742069732066696e697368000000000000000000000000000000000081525060200191505060405180910390fd5b6000601060008681526020019081526020016000206006015414156128d357600160106000868152602001908152602001600020600d0160006101000a81548160ff0219169083151502179055507f847521552ad126e64c52b14640c804737bd67f2b6674309b332d1e5b17f857d18460405180828152602001806020018281038252600e8152602001807f646f206e6f7420706c61796572730000000000000000000000000000000000008152506020019250505060405180910390a1612a96565b60106000858152602001908152602001600020600a0160009054906101000a900460ff16156129365761291b6010600086815260200190815260200160002060060154611c95565b60106000868152602001908152602001600020600901819055505b61293e613e49565b60405180604001604052808473ffffffffffffffffffffffffffffffffffffffff1681526020018381525090506010600086815260200190815260200160002060070160008560ff16815260200190815260200160002081908060018154018082558091505060019003906000526020600020906002020160009091909190915060008201518160000160006101000a81548173ffffffffffffffffffffffffffffffffffffffff021916908373ffffffffffffffffffffffffffffffffffffffff1602179055506020820151816001015550506000600160106000888152602001908152602001600020600801540190506010600087815260200190815260200160002060090154811415612a7757806010600088815260200190815260200160002060080181905550612a7286613566565b612a93565b8060106000888152602001908152602001600020600801819055505b50505b50505050565b6000600c805490501415612aaf57612ac5565b612ac4600c60006001600c805490500361364e565b5b565b6000612af08260008086815260200190815260200160002060000161379a90919063ffffffff16565b905092915050565b6000612b21826000808681526020019081526020016000206000016137b490919063ffffffff16565b905092915050565b600760009054906101000a900473ffffffffffffffffffffffffffffffffffffffff1673ffffffffffffffffffffffffffffffffffffffff163373ffffffffffffffffffffffffffffffffffffffff1614612bcf576040517f08c379a0000000000000000000000000000000000000000000000000000000008152600401808060200182810382526031815260200180613fe86031913960400191505060405180910390fd5b8060058190555050565b6000600654905090565b600760009054906101000a900473ffffffffffffffffffffffffffffffffffffffff1673ffffffffffffffffffffffffffffffffffffffff163373ffffffffffffffffffffffffffffffffffffffff1614612c89576040517f08c379a0000000000000000000000000000000000000000000000000000000008152600401808060200182810382526031815260200180613fe86031913960400191505060405180910390fd5b8060088190555050565b6000801b81565b6000600454905090565b600760009054906101000a900473ffffffffffffffffffffffffffffffffffffffff1673ffffffffffffffffffffffffffffffffffffffff163373ffffffffffffffffffffffffffffffffffffffff1614612d4a576040517f08c379a0000000000000000000000000000000000000000000000000000000008152600401808060200182810382526031815260200180613fe86031913960400191505060405180910390fd5b80600a8190555050565b6000612d736000808481526020019081526020016000206000016137e4565b9050919050565b6000600354905090565b612daa60008084815260200190815260200160002060020154612da5613101565b612af8565b612dff576040517f08c379a0000000000000000000000000000000000000000000000000000000008152600401808060200182810382526030815260200180613f736030913960400191505060405180910390fd5b612e09828261319c565b5050565b6000600a54905090565b600760009054906101000a900473ffffffffffffffffffffffffffffffffffffffff1673ffffffffffffffffffffffffffffffffffffffff163373ffffffffffffffffffffffffffffffffffffffff1614612ebd576040517f08c379a0000000000000000000000000000000000000000000000000000000008152600401808060200182810382526031815260200180613fe86031913960400191505060405180910390fd5b8060098190555050565b600760009054906101000a900473ffffffffffffffffffffffffffffffffffffffff1673ffffffffffffffffffffffffffffffffffffffff163373ffffffffffffffffffffffffffffffffffffffff1614612f6d576040517f08c379a0000000000000000000000000000000000000000000000000000000008152600401808060200182810382526031815260200180613fe86031913960400191505060405180910390fd5b8060068190555050565b600c8181548110612f8757600080fd5b906000526020600020016000915090505481565b6000600554905090565b6000606483830281612fb357fe5b04905092915050565b6000600854600b5402905090565b60006001612fdf612fda876137f9565b613889565b83868660405160008152602001604052604051808581526020018460ff1681526020018381526020018281526020019450505050506020604051602081039080840390855afa158015613036573d6000803e3d6000fd5b5050506020604051035173ffffffffffffffffffffffffffffffffffffffff168673ffffffffffffffffffffffffffffffffffffffff1614905095945050505050565b6000808284019050838110156130f7576040517f08c379a000000000000000000000000000000000000000000000000000000000815260040180806020018281038252601b8152602001807f536166654d6174683a206164646974696f6e206f766572666c6f77000000000081525060200191505060405180910390fd5b8091505092915050565b600033905090565b613130816000808581526020019081526020016000206000016138f090919063ffffffff16565b156131985761313d613101565b73ffffffffffffffffffffffffffffffffffffffff168173ffffffffffffffffffffffffffffffffffffffff16837f2f8788117e7eff1d82e926ec794901d17c78024a50270940304540a733656f0d60405160405180910390a45b5050565b6131c38160008085815260200190815260200160002060000161392090919063ffffffff16565b1561322b576131d0613101565b73ffffffffffffffffffffffffffffffffffffffff168173ffffffffffffffffffffffffffffffffffffffff16837ff6391f5c32d9c69d2a47ea670b442974b53935d1edc7fd64eb21e047a839171b60405160405180910390a45b5050565b60005b6010600084815260200190815260200160002060030160009054906101000a900460ff1660ff168160ff16101561348e5760005b6010600085815260200190815260200160002060040160008360ff168152602001908152602001600020805490508160ff16101561348057600e60009054906101000a900473ffffffffffffffffffffffffffffffffffffffff1673ffffffffffffffffffffffffffffffffffffffff1663a9059cbb6010600087815260200190815260200160002060040160008560ff1681526020019081526020016000208360ff168154811061331457fe5b906000526020600020906002020160000160009054906101000a900473ffffffffffffffffffffffffffffffffffffffff166010600088815260200190815260200160002060040160008660ff1681526020019081526020016000208460ff168154811061337e57fe5b9060005260206000209060020201600101546040518363ffffffff1660e01b8152600401808373ffffffffffffffffffffffffffffffffffffffff16815260200182815260200192505050602060405180830381600087803b1580156133e357600080fd5b505af11580156133f7573d6000803e3d6000fd5b505050506040513d602081101561340d57600080fd5b8101908080519060200190929190505050613473576040517f08c379a0000000000000000000000000000000000000000000000000000000008152600401808060200182810382526024815260200180613fc46024913960400191505060405180910390fd5b8080600101915050613266565b508080600101915050613232565b50600160106000848152602001908152602001600020600d0160006101000a81548160ff0219169083151502179055507f847521552ad126e64c52b14640c804737bd67f2b6674309b332d1e5b17f857d182826040518083815260200180602001828103825283818151815260200191508051906020019080838360005b8381101561352757808201518184015260208101905061350c565b50505050905090810190601f1680156135545780820380516001836020036101000a031916815260200191505b50935050505060405180910390a15050565b60008080600090505b6010600085815260200190815260200160002060030160009054906101000a900460ff1660ff168160ff16101561361957826010600086815260200190815260200160002060070160008360ff16815260200190815260200160002080549050111561360c576010600085815260200190815260200160002060070160008260ff1681526020019081526020016000208054905092508060ff1691505b808060010191505061356f565b506136498183856010600088815260200190815260200160002060030160009054906101000a900460ff16613950565b505050565b6000829050600082905060008560028686038161366757fe5b0486018154811061367457fe5b906000526020600020015490505b81831161376a575b8086848154811061369757fe5b906000526020600020015410156136b557828060010193505061368a565b5b8582815481106136c257fe5b90600052602060002001548110156136e2578180600190039250506136b6565b818311613765578582815481106136f557fe5b906000526020600020015486848154811061370c57fe5b906000526020600020015487858154811061372357fe5b90600052602060002001600089868154811061373b57fe5b90600052602060002001600084919050558391905055505082806001019350508180600190039250505b613682565b8185101561377e5761377d86868461364e565b5b838310156137925761379186848661364e565b5b505050505050565b60006137a98360000183613bb0565b60001c905092915050565b60006137dc836000018373ffffffffffffffffffffffffffffffffffffffff1660001b613c33565b905092915050565b60006137f282600001613c56565b9050919050565b6000604051806080016040528060438152602001613f30604391398051906020012082600001518360200151846040015180519060200120604051602001808581526020018481526020018373ffffffffffffffffffffffffffffffffffffffff168152602001828152602001945050505050604051602081830303815290604052805190602001209050919050565b6000613893613c67565b8260405160200180807f190100000000000000000000000000000000000000000000000000000000000081525060020183815260200182815260200192505050604051602081830303815290604052805190602001209050919050565b6000613918836000018373ffffffffffffffffffffffffffffffffffffffff1660001b613c71565b905092915050565b6000613948836000018373ffffffffffffffffffffffffffffffffffffffff1660001b613ce1565b905092915050565b600160106000848152602001908152602001600020600801541115613b85576000808260ff1667ffffffffffffffff8111801561398c57600080fd5b506040519080825280602002602001820160405280156139bb5781602001602082028036833780820191505090505b50905060005b8360ff168160ff161015613a25576010600086815260200190815260200160002060070160008260ff16815260200190815260200160002080549050828260ff1681518110613a0c57fe5b60200260200101818152505080806001019150506139c1565b50613a2f81611f44565b613a37612a9c565b60005b6001600c80549050038160ff161015613ad957600c805490506001820160ff161015613acc57600c8160ff1681548110613a7057fe5b9060005260206000200154600c6001830160ff1681548110613a8e57fe5b90600052602060002001541415613acb57600c8160ff1681548110613aaf57fe5b9060005260206000200154861415613aca5782806001019350505b5b5b8080600101915050613a3a565b5060008260ff161115613b5957600160106000868152602001908152602001600020600d0160006101000a81548160ff021916908315150217905550613b54846040518060400160405280601581526020017f6475706c6963617465732076616c696461746f7273000000000000000000000081525061322f565b613b7e565b8560106000868152602001908152602001600020600b0181905550613b7d84613dc9565b5b5050613baa565b8360106000848152602001908152602001600020600b0181905550613ba982613dc9565b5b50505050565b600081836000018054905011613c11576040517f08c379a0000000000000000000000000000000000000000000000000000000008152600401808060200182810382526022815260200180613edf6022913960400191505060405180910390fd5b826000018281548110613c2057fe5b9060005260206000200154905092915050565b600080836001016000848152602001908152602001600020541415905092915050565b600081600001805490509050919050565b6000600154905090565b6000613c7d8383613c33565b613cd6578260000182908060018154018082558091505060019003906000526020600020016000909190919091505582600001805490508360010160008481526020019081526020016000208190555060019050613cdb565b600090505b92915050565b60008083600101600084815260200190815260200160002054905060008114613dbd5760006001820390506000600186600001805490500390506000866000018281548110613d2c57fe5b9060005260206000200154905080876000018481548110613d4957fe5b9060005260206000200181905550600183018760010160008381526020019081526020016000208190555086600001805480613d8157fe5b60019003818190600052602060002001600090559055866001016000878152602001908152602001600020600090556001945050505050613dc3565b60009150505b92915050565b50565b6040518060400160405280600073ffffffffffffffffffffffffffffffffffffffff168152602001600081525090565b828054828255906000526020600020908101928215613e38579160200282015b82811115613e37578251825591602001919060010190613e1c565b5b509050613e459190613e79565b5090565b6040518060400160405280600073ffffffffffffffffffffffffffffffffffffffff168152602001600081525090565b5b80821115613e92576000816000905550600101613e7a565b509056fe5472616e736665722042545920746f6b656e7320666f722050524f206576656e74206572726f727573657220616c726561647920706172746963697061746520696e206576656e74456e756d657261626c655365743a20696e646578206f7574206f6620626f756e6473416363657373436f6e74726f6c3a2073656e646572206d75737420626520616e2061646d696e20746f206772616e744d6574615472616e73616374696f6e2875696e74323536206e6f6e63652c616464726573732066726f6d2c62797465732066756e6374696f6e5369676e617475726529416363657373436f6e74726f6c3a2073656e646572206d75737420626520616e2061646d696e20746f207265766f6b655369676e657220616e64207369676e617475726520646f206e6f74206d617463685265766572742042455420746f6b656e20746f20706c6179657273206973206572726f72546869732066756e6374696f6e20636f756c64206f6e6c7920626520657865637574656420627920746865206f776e6572416363657373436f6e74726f6c3a2063616e206f6e6c792072656e6f756e636520726f6c657320666f722073656c66a26469706673582212209a7de6ea9498aff1bd6309576197e64d1ed7fa3d7d1566400d6b3923fd8d94dd64736f6c63430007060033454950373132446f6d61696e28737472696e67206e616d652c737472696e672076657273696f6e2c75696e7432353620636861696e49642c6164647265737320766572696679696e67436f6e747261637429",
  "immutableReferences": {},
  "source": "// SPDX-License-Identifier: MIT\npragma solidity >=0.4.22 <0.9.0;\n\nimport {MetaTransactLib} from \"../helpers/MetaTransactLib.sol\";\nimport {PubStruct} from \"../struct/PubStruct.sol\";\nimport {TimeValidation} from \"../helpers/TimeValidation.sol\";\nimport {BET} from \"../tokens/BET.sol\";\nimport {BTY} from \"../tokens/BTY.sol\";\nimport {ConfigVariables} from \"../config/ConfigVariables.sol\";\nimport {Libs} from \"../helpers/Libs.sol\";\n\ncontract PublicEvents is\n    MetaTransactLib,\n    TimeValidation,\n    ConfigVariables,\n    Libs\n{\n    address payable owner;\n    BET private betToken;\n    BTY private btyToken;\n\n    mapping(int256 => PubStruct.EventData) events;\n    event revertedEvent(int256 id, string purpose);\n\n    constructor(BET _betAddress, BTY _btyAddress)\n        MetaTransactLib(\"Public_contract\", \"1\", 5)\n    {\n        owner = msg.sender;\n        betToken = _betAddress;\n        btyToken = _btyAddress;\n    }\n\n    function newEvent(\n        int256 _id,\n        uint256 _startTime,\n        uint256 _endTime,\n        uint8 _questAmount,\n        uint256 _amountExperts,\n        bool _calculateExperts,\n        address payable _host,\n        bool _premium,\n        uint256 _amountPremiumEvent\n    ) public payable ownerOnly() {\n        events[_id].id = _id;\n        events[_id].startTime = _startTime;\n        events[_id].endTime = _endTime;\n        events[_id].questAmount = _questAmount;\n        events[_id].amountExperts = _amountExperts;\n        events[_id].host = _host;\n        events[_id].calculateExperts = _calculateExperts;\n        events[_id].premium = _premium;\n\n        // TODO add Advisor\n        if (_premium) {\n            require(\n                btyToken.allowance(_host, address(this)) >= _amountPremiumEvent,\n                \"Allowance error\"\n            );\n            require(\n                btyToken.transferFrom(_host, address(this), _amountPremiumEvent),\n                \"Transfer BTY tokens for PRO event error\"\n            );\n        }\n    }\n\n    function setAnswer(\n        int256 _id,\n        uint8 _whichAnswer,\n        uint256 _amount,\n        address payable _playerWallet\n    ) public payable ownerOnly() {\n        require(\n            timeAnswer(events[_id].startTime, events[_id].endTime) == 0,\n            \"Time is not valid\"\n        );\n        require(events[_id].reverted, \"event is reverted\");\n        require(events[_id].eventFinish, \"event is finish\");\n        require(\n            events[_id].allPlayers[_playerWallet] == true,\n            \"user already participate in event\"\n        );\n\n        PubStruct.Player memory player;\n        // TODO add Referrers\n        player = PubStruct.Player(_playerWallet, _amount);\n        events[_id].players[_whichAnswer].push(player);\n        events[_id].allPlayers[_playerWallet] = true;\n        events[_id].activePlayers += 1;\n        events[_id].pool += _amount;\n\n        require(\n            betToken.allowance(_playerWallet, address(this)) >= _amount,\n            \"Allowance error\"\n        );\n        require(\n            betToken.transferFrom(_playerWallet, address(this), _amount),\n            \"Transfer BTY from players error\"\n        );\n    }\n\n    function setValidator(\n        int256 _id,\n        uint8 _whichAnswer,\n        address payable _expertWallet,\n        int256 rating\n    ) public payable ownerOnly() {\n        require(timeValidate(events[_id].endTime) == 0, \"Time is not valid\");\n        require(\n            events[_id].allPlayers[_expertWallet] == true,\n            \"user already participate in event\"\n        );\n        require(events[_id].reverted, \"event is reverted\");\n        require(events[_id].eventFinish, \"event is finish\");\n\n        if (events[_id].activePlayers == 0) {\n            events[_id].reverted = true;\n            emit revertedEvent(_id, \"do not players\");\n        } else {\n            if (events[_id].calculateExperts) {\n                events[_id].amountExperts = calculateExpertAmount(\n                    events[_id].activePlayers\n                );\n            }\n            PubStruct.Expert memory expert;\n            expert = PubStruct.Expert(_expertWallet, rating);\n            events[_id].expert[_whichAnswer].push(expert);\n            uint256 active = events[_id].activeExperts + 1;\n            if (active == events[_id].amountExperts) {\n                events[_id].activeExperts = active;\n                letsFindCorrectAnswer(_id);\n            } else {\n                events[_id].activeExperts = active;\n            }\n        }\n    }\n\n    function letsFindCorrectAnswer(int256 _id) private {\n        uint256 biggestValue = 0;\n        uint256 correctAnswer;\n\n        // find correct answer\n        for (uint8 i = 0; i < events[_id].questAmount; i++) {\n            if (events[_id].expert[i].length > biggestValue) {\n                biggestValue = events[_id].expert[i].length;\n                correctAnswer = i;\n            }\n        }\n\n        findDuplicates(\n            correctAnswer,\n            biggestValue,\n            _id,\n            events[_id].questAmount\n        );\n    }\n\n    function findDuplicates(\n        uint256 correctAnswer,\n        uint256 biggestValue,\n        int256 _id,\n        uint8 questAmount\n    ) private {\n        if (events[_id].activeExperts > 1) {\n            uint8 duplicatesAnswers = 0;\n            uint256[] memory expertAnswers = new uint256[](questAmount);\n            for (uint8 i = 0; i < questAmount; i++) {\n                expertAnswers[i] = events[_id].expert[i].length;\n            }\n\n            setSort(expertAnswers);\n            sort();\n\n            for (uint8 i = 0; i < sortedArray.length - 1; i++) {\n                if ((i + 1) < sortedArray.length) {\n                    if (sortedArray[i + 1] == sortedArray[i]) {\n                        if (biggestValue == sortedArray[i]) {\n                            duplicatesAnswers++;\n                        }\n                    }\n                }\n            }\n\n            if (duplicatesAnswers > 0) {\n                events[_id].reverted = true;\n                revertPayment(_id, \"duplicates validators\");\n            } else {\n                events[_id].correctAnswer = correctAnswer;\n                findLosersPool(_id);\n            }\n        } else {\n            events[_id].correctAnswer = correctAnswer;\n            findLosersPool(_id);\n        }\n    }\n\n    function revertedPayment(int256 _id, string memory purpose)\n        public\n        ownerOnly()\n    {\n        revertPayment(_id, purpose);\n    }\n\n    function revertPayment(int256 _id, string memory purpose) private {\n        for (uint8 i = 0; i < events[_id].questAmount; i++) {\n            for (uint8 z = 0; z < events[_id].players[i].length; z++) {\n                require(\n                    betToken.transfer(\n                        events[_id].players[i][z].player,\n                        events[_id].players[i][z].amount\n                    ),\n                    \"Revert BET token to players is error\"\n                );\n            }\n        }\n        events[_id].reverted = true;\n        emit revertedEvent(_id, purpose);\n    }\n\n    function findLosersPool(int256 _id) private {}\n}\n",
  "sourcePath": "/Users/macbook/Documents/freelance/tokenominc/contracts/events/PublicEvents.sol",
  "compiler": {
    "name": "solc",
    "version": "0.7.6+commit.7338295f.Linux.g++"
  },
  "schemaVersion": "3.2.2",
  "updatedAt": "2021-02-24T10:17:43.138Z",
  "networkType": "ethereum",
  "devdoc": {
    "kind": "dev",
    "methods": {
      "getRoleAdmin(bytes32)": {
        "details": "Returns the admin role that controls `role`. See {grantRole} and {revokeRole}. To change a role's admin, use {_setRoleAdmin}."
      },
      "getRoleMember(bytes32,uint256)": {
        "details": "Returns one of the accounts that have `role`. `index` must be a value between 0 and {getRoleMemberCount}, non-inclusive. Role bearers are not sorted in any particular way, and their ordering may change at any point. WARNING: When using {getRoleMember} and {getRoleMemberCount}, make sure you perform all queries on the same block. See the following https://forum.openzeppelin.com/t/iterating-over-elements-on-enumerableset-in-openzeppelin-contracts/2296[forum post] for more information."
      },
      "getRoleMemberCount(bytes32)": {
        "details": "Returns the number of accounts that have `role`. Can be used together with {getRoleMember} to enumerate all bearers of a role."
      },
      "grantRole(bytes32,address)": {
        "details": "Grants `role` to `account`. If `account` had not been already granted `role`, emits a {RoleGranted} event. Requirements: - the caller must have ``role``'s admin role."
      },
      "hasRole(bytes32,address)": {
        "details": "Returns `true` if `account` has been granted `role`."
      },
      "renounceRole(bytes32,address)": {
        "details": "Revokes `role` from the calling account. Roles are often managed via {grantRole} and {revokeRole}: this function's purpose is to provide a mechanism for accounts to lose their privileges if they are compromised (such as when a trusted device is misplaced). If the calling account had been granted `role`, emits a {RoleRevoked} event. Requirements: - the caller must be `account`."
      },
      "revokeRole(bytes32,address)": {
        "details": "Revokes `role` from `account`. If `account` had been granted `role`, emits a {RoleRevoked} event. Requirements: - the caller must have ``role``'s admin role."
      }
    },
    "version": 1
  },
  "userdoc": {
    "kind": "user",
    "methods": {},
    "version": 1
  }
}