{
  "contractName": "PublicEvents",
  "abi": [
    {
      "inputs": [
        {
          "internalType": "contract BET",
          "name": "_betAddress",
          "type": "address"
        },
        {
          "internalType": "contract BTY",
          "name": "_btyAddress",
          "type": "address"
        }
      ],
      "stateMutability": "nonpayable",
      "type": "constructor"
    },
    {
      "anonymous": false,
      "inputs": [
        {
          "indexed": false,
          "internalType": "address",
          "name": "userAddress",
          "type": "address"
        },
        {
          "indexed": false,
          "internalType": "address payable",
          "name": "relayerAddress",
          "type": "address"
        },
        {
          "indexed": false,
          "internalType": "bytes",
          "name": "functionSignature",
          "type": "bytes"
        }
      ],
      "name": "MetaTransactionExecuted",
      "type": "event"
    },
    {
      "anonymous": false,
      "inputs": [
        {
          "indexed": true,
          "internalType": "bytes32",
          "name": "role",
          "type": "bytes32"
        },
        {
          "indexed": true,
          "internalType": "bytes32",
          "name": "previousAdminRole",
          "type": "bytes32"
        },
        {
          "indexed": true,
          "internalType": "bytes32",
          "name": "newAdminRole",
          "type": "bytes32"
        }
      ],
      "name": "RoleAdminChanged",
      "type": "event"
    },
    {
      "anonymous": false,
      "inputs": [
        {
          "indexed": true,
          "internalType": "bytes32",
          "name": "role",
          "type": "bytes32"
        },
        {
          "indexed": true,
          "internalType": "address",
          "name": "account",
          "type": "address"
        },
        {
          "indexed": true,
          "internalType": "address",
          "name": "sender",
          "type": "address"
        }
      ],
      "name": "RoleGranted",
      "type": "event"
    },
    {
      "anonymous": false,
      "inputs": [
        {
          "indexed": true,
          "internalType": "bytes32",
          "name": "role",
          "type": "bytes32"
        },
        {
          "indexed": true,
          "internalType": "address",
          "name": "account",
          "type": "address"
        },
        {
          "indexed": true,
          "internalType": "address",
          "name": "sender",
          "type": "address"
        }
      ],
      "name": "RoleRevoked",
      "type": "event"
    },
    {
      "anonymous": false,
      "inputs": [
        {
          "indexed": false,
          "internalType": "int256",
          "name": "id",
          "type": "int256"
        },
        {
          "indexed": false,
          "internalType": "string",
          "name": "purpose",
          "type": "string"
        }
      ],
      "name": "revertedEvent",
      "type": "event"
    },
    {
      "inputs": [],
      "name": "DEFAULT_ADMIN_ROLE",
      "outputs": [
        {
          "internalType": "bytes32",
          "name": "",
          "type": "bytes32"
        }
      ],
      "stateMutability": "view",
      "type": "function"
    },
    {
      "inputs": [
        {
          "internalType": "uint256",
          "name": "players",
          "type": "uint256"
        }
      ],
      "name": "calculateExpertAmount",
      "outputs": [
        {
          "internalType": "uint256",
          "name": "",
          "type": "uint256"
        }
      ],
      "stateMutability": "pure",
      "type": "function"
    },
    {
      "inputs": [
        {
          "internalType": "address",
          "name": "userAddress",
          "type": "address"
        },
        {
          "internalType": "bytes",
          "name": "functionSignature",
          "type": "bytes"
        },
        {
          "internalType": "bytes32",
          "name": "sigR",
          "type": "bytes32"
        },
        {
          "internalType": "bytes32",
          "name": "sigS",
          "type": "bytes32"
        },
        {
          "internalType": "uint8",
          "name": "sigV",
          "type": "uint8"
        }
      ],
      "name": "executeMetaTransaction",
      "outputs": [
        {
          "internalType": "bytes",
          "name": "",
          "type": "bytes"
        }
      ],
      "stateMutability": "payable",
      "type": "function"
    },
    {
      "inputs": [],
      "name": "getCompanyPerc",
      "outputs": [
        {
          "internalType": "uint256",
          "name": "",
          "type": "uint256"
        }
      ],
      "stateMutability": "view",
      "type": "function"
    },
    {
      "inputs": [],
      "name": "getExpertPerc",
      "outputs": [
        {
          "internalType": "uint256",
          "name": "",
          "type": "uint256"
        }
      ],
      "stateMutability": "view",
      "type": "function"
    },
    {
      "inputs": [],
      "name": "getFirstWithdraw",
      "outputs": [
        {
          "internalType": "uint256",
          "name": "",
          "type": "uint256"
        }
      ],
      "stateMutability": "view",
      "type": "function"
    },
    {
      "inputs": [],
      "name": "getGFindex",
      "outputs": [
        {
          "internalType": "uint256",
          "name": "",
          "type": "uint256"
        }
      ],
      "stateMutability": "view",
      "type": "function"
    },
    {
      "inputs": [],
      "name": "getGFrewards",
      "outputs": [
        {
          "internalType": "uint256",
          "name": "",
          "type": "uint256"
        }
      ],
      "stateMutability": "view",
      "type": "function"
    },
    {
      "inputs": [],
      "name": "getHostPerc",
      "outputs": [
        {
          "internalType": "uint256",
          "name": "",
          "type": "uint256"
        }
      ],
      "stateMutability": "view",
      "type": "function"
    },
    {
      "inputs": [
        {
          "internalType": "address",
          "name": "user",
          "type": "address"
        }
      ],
      "name": "getNonce",
      "outputs": [
        {
          "internalType": "uint256",
          "name": "nonce",
          "type": "uint256"
        }
      ],
      "stateMutability": "view",
      "type": "function"
    },
    {
      "inputs": [
        {
          "internalType": "uint256",
          "name": "_percent",
          "type": "uint256"
        },
        {
          "internalType": "uint256",
          "name": "_from",
          "type": "uint256"
        }
      ],
      "name": "getPersent",
      "outputs": [
        {
          "internalType": "uint256",
          "name": "",
          "type": "uint256"
        }
      ],
      "stateMutability": "pure",
      "type": "function"
    },
    {
      "inputs": [],
      "name": "getPlayerPers",
      "outputs": [
        {
          "internalType": "uint256",
          "name": "",
          "type": "uint256"
        }
      ],
      "stateMutability": "view",
      "type": "function"
    },
    {
      "inputs": [
        {
          "internalType": "bytes32",
          "name": "role",
          "type": "bytes32"
        }
      ],
      "name": "getRoleAdmin",
      "outputs": [
        {
          "internalType": "bytes32",
          "name": "",
          "type": "bytes32"
        }
      ],
      "stateMutability": "view",
      "type": "function"
    },
    {
      "inputs": [
        {
          "internalType": "bytes32",
          "name": "role",
          "type": "bytes32"
        },
        {
          "internalType": "uint256",
          "name": "index",
          "type": "uint256"
        }
      ],
      "name": "getRoleMember",
      "outputs": [
        {
          "internalType": "address",
          "name": "",
          "type": "address"
        }
      ],
      "stateMutability": "view",
      "type": "function"
    },
    {
      "inputs": [
        {
          "internalType": "bytes32",
          "name": "role",
          "type": "bytes32"
        }
      ],
      "name": "getRoleMemberCount",
      "outputs": [
        {
          "internalType": "uint256",
          "name": "",
          "type": "uint256"
        }
      ],
      "stateMutability": "view",
      "type": "function"
    },
    {
      "inputs": [
        {
          "internalType": "bytes32",
          "name": "role",
          "type": "bytes32"
        },
        {
          "internalType": "address",
          "name": "account",
          "type": "address"
        }
      ],
      "name": "grantRole",
      "outputs": [],
      "stateMutability": "nonpayable",
      "type": "function"
    },
    {
      "inputs": [
        {
          "internalType": "bytes32",
          "name": "role",
          "type": "bytes32"
        },
        {
          "internalType": "address",
          "name": "account",
          "type": "address"
        }
      ],
      "name": "hasRole",
      "outputs": [
        {
          "internalType": "bool",
          "name": "",
          "type": "bool"
        }
      ],
      "stateMutability": "view",
      "type": "function"
    },
    {
      "inputs": [
        {
          "internalType": "bytes32",
          "name": "role",
          "type": "bytes32"
        },
        {
          "internalType": "address",
          "name": "account",
          "type": "address"
        }
      ],
      "name": "renounceRole",
      "outputs": [],
      "stateMutability": "nonpayable",
      "type": "function"
    },
    {
      "inputs": [
        {
          "internalType": "bytes32",
          "name": "role",
          "type": "bytes32"
        },
        {
          "internalType": "address",
          "name": "account",
          "type": "address"
        }
      ],
      "name": "revokeRole",
      "outputs": [],
      "stateMutability": "nonpayable",
      "type": "function"
    },
    {
      "inputs": [
        {
          "internalType": "uint256",
          "name": "_companyPerc",
          "type": "uint256"
        }
      ],
      "name": "setCompanyPerc",
      "outputs": [],
      "stateMutability": "nonpayable",
      "type": "function"
    },
    {
      "inputs": [
        {
          "internalType": "uint256",
          "name": "_expertPerc",
          "type": "uint256"
        }
      ],
      "name": "setExpertPerc",
      "outputs": [],
      "stateMutability": "nonpayable",
      "type": "function"
    },
    {
      "inputs": [
        {
          "internalType": "uint256",
          "name": "_playerPers",
          "type": "uint256"
        }
      ],
      "name": "setFirstWithdraw",
      "outputs": [],
      "stateMutability": "nonpayable",
      "type": "function"
    },
    {
      "inputs": [
        {
          "internalType": "uint256",
          "name": "_GFindex",
          "type": "uint256"
        }
      ],
      "name": "setGFindex",
      "outputs": [],
      "stateMutability": "nonpayable",
      "type": "function"
    },
    {
      "inputs": [
        {
          "internalType": "uint256",
          "name": "_GFrewards",
          "type": "uint256"
        }
      ],
      "name": "setGFrewards",
      "outputs": [],
      "stateMutability": "nonpayable",
      "type": "function"
    },
    {
      "inputs": [
        {
          "internalType": "uint256",
          "name": "_hostPerc",
          "type": "uint256"
        }
      ],
      "name": "setHostPerc",
      "outputs": [],
      "stateMutability": "nonpayable",
      "type": "function"
    },
    {
      "inputs": [
        {
          "internalType": "uint256",
          "name": "_firstWithdraw",
          "type": "uint256"
        }
      ],
      "name": "setPlayerPers",
      "outputs": [],
      "stateMutability": "nonpayable",
      "type": "function"
    },
    {
      "inputs": [
        {
          "internalType": "uint256[]",
          "name": "_data",
          "type": "uint256[]"
        }
      ],
      "name": "setSort",
      "outputs": [],
      "stateMutability": "nonpayable",
      "type": "function"
    },
    {
      "inputs": [],
      "name": "sort",
      "outputs": [],
      "stateMutability": "nonpayable",
      "type": "function"
    },
    {
      "inputs": [
        {
          "internalType": "uint256",
          "name": "",
          "type": "uint256"
        }
      ],
      "name": "sortedArray",
      "outputs": [
        {
          "internalType": "uint256",
          "name": "",
          "type": "uint256"
        }
      ],
      "stateMutability": "view",
      "type": "function"
    },
    {
      "inputs": [
        {
          "internalType": "uint256",
          "name": "_startTime",
          "type": "uint256"
        },
        {
          "internalType": "uint256",
          "name": "_endTime",
          "type": "uint256"
        }
      ],
      "name": "timeAnswer",
      "outputs": [
        {
          "internalType": "int8",
          "name": "",
          "type": "int8"
        }
      ],
      "stateMutability": "view",
      "type": "function"
    },
    {
      "inputs": [
        {
          "internalType": "uint256",
          "name": "_endTime",
          "type": "uint256"
        }
      ],
      "name": "timeValidate",
      "outputs": [
        {
          "internalType": "int8",
          "name": "",
          "type": "int8"
        }
      ],
      "stateMutability": "view",
      "type": "function"
    },
    {
      "stateMutability": "payable",
      "type": "receive"
    },
    {
      "inputs": [
        {
          "internalType": "int256",
          "name": "_id",
          "type": "int256"
        },
        {
          "internalType": "uint256",
          "name": "_startTime",
          "type": "uint256"
        },
        {
          "internalType": "uint256",
          "name": "_endTime",
          "type": "uint256"
        },
        {
          "internalType": "uint8",
          "name": "_questAmount",
          "type": "uint8"
        },
        {
          "internalType": "uint256",
          "name": "_amountExperts",
          "type": "uint256"
        },
        {
          "internalType": "bool",
          "name": "_calculateExperts",
          "type": "bool"
        },
        {
          "internalType": "address payable",
          "name": "_host",
          "type": "address"
        },
        {
          "internalType": "bool",
          "name": "_premium",
          "type": "bool"
        },
        {
          "internalType": "uint256",
          "name": "_amountPremiumEvent",
          "type": "uint256"
        }
      ],
      "name": "newEvent",
      "outputs": [],
      "stateMutability": "payable",
      "type": "function"
    },
    {
      "inputs": [
        {
          "internalType": "int256",
          "name": "_id",
          "type": "int256"
        },
        {
          "internalType": "uint8",
          "name": "_whichAnswer",
          "type": "uint8"
        },
        {
          "internalType": "uint256",
          "name": "_amount",
          "type": "uint256"
        },
        {
          "internalType": "address payable",
          "name": "_playerWallet",
          "type": "address"
        }
      ],
      "name": "setAnswer",
      "outputs": [],
      "stateMutability": "payable",
      "type": "function"
    },
    {
      "inputs": [
        {
          "internalType": "int256",
          "name": "_id",
          "type": "int256"
        },
        {
          "internalType": "uint8",
          "name": "_whichAnswer",
          "type": "uint8"
        },
        {
          "internalType": "address payable",
          "name": "_expertWallet",
          "type": "address"
        },
        {
          "internalType": "int256",
          "name": "rating",
          "type": "int256"
        }
      ],
      "name": "setValidator",
      "outputs": [],
      "stateMutability": "payable",
      "type": "function"
    },
    {
      "inputs": [
        {
          "internalType": "int256",
          "name": "_id",
          "type": "int256"
        },
        {
          "internalType": "string",
          "name": "purpose",
          "type": "string"
        }
      ],
      "name": "revertedPayment",
      "outputs": [],
      "stateMutability": "nonpayable",
      "type": "function"
    }
  ],
  "bytecode": "0x608060405268056bc75e2d6310000060085568056bc75e2d631000006009556001600a5534801561002f57600080fd5b5060405162004228380380620042288339818101604052604081101561005457600080fd5b8101908080519060200190929190805190602001909291905050506040518060400160405280600f81526020017f5075626c69635f636f6e747261637400000000000000000000000000000000008152506040518060400160405280600181526020017f31000000000000000000000000000000000000000000000000000000000000008152506005828282828282604051806080016040528060528152602001620041d66052913980519060200120838051906020012083805190602001208330604051602001808681526020018581526020018481526020018381526020018273ffffffffffffffffffffffffffffffffffffffff168152602001955050505050506040516020818303038152906040528051906020012060018190555050505050505050505033600760006101000a81548173ffffffffffffffffffffffffffffffffffffffff021916908373ffffffffffffffffffffffffffffffffffffffff16021790555033600c60006101000a81548173ffffffffffffffffffffffffffffffffffffffff021916908373ffffffffffffffffffffffffffffffffffffffff16021790555081600d60006101000a81548173ffffffffffffffffffffffffffffffffffffffff021916908373ffffffffffffffffffffffffffffffffffffffff16021790555080600e60006101000a81548173ffffffffffffffffffffffffffffffffffffffff021916908373ffffffffffffffffffffffffffffffffffffffff1602179055505050613f4380620002936000396000f3fe6080604052600436106102085760003560e01c80639010d07c11610118578063ca2f2f7a116100a0578063e1aea5231161006f578063e1aea52314610cf2578063e2d914f214610d2d578063e640a53314610d7c578063e787218314610da7578063ef99e09914610e005761020f565b8063ca2f2f7a14610c06578063d547741f14610c31578063d70b4bb614610c8c578063d7a86da714610cb75761020f565b8063a03c6697116100e7578063a03c669714610aeb578063a217fddf14610b26578063be8968aa14610b51578063c369085e14610b7c578063ca15c87314610bb75761020f565b80639010d07c146109a557806391d1485414610a145780639580de6714610a85578063997862cb14610ac05761020f565b80632f2ff15d1161019b578063769c48981161016a578063769c489814610790578063782f4a4f146108625780637dbb9dfa1461088d57806388d9dd49146109295780638cdc86a61461098e5761020f565b80632f2ff15d146105b957806336568abe146106145780633b97b5d61461066f57806354f6db74146107345761020f565b8063246fe647116101d7578063246fe64714610464578063248a9ca3146104b65780632aad63d1146105055780632d0335ab146105545761020f565b80630328ff4a146102145780630bf94f981461024f5780630c53c51c146102b457806324467c45146104295761020f565b3661020f57005b600080fd5b34801561022057600080fd5b5061024d6004803603602081101561023757600080fd5b8101908080359060200190929190505050610e2b565b005b6102b26004803603608081101561026557600080fd5b8101908080359060200190929190803560ff16906020019092919080359060200190929190803573ffffffffffffffffffffffffffffffffffffffff169060200190929190505050610edb565b005b6103ae600480360360a08110156102ca57600080fd5b81019080803573ffffffffffffffffffffffffffffffffffffffff1690602001909291908035906020019064010000000081111561030757600080fd5b82018360208201111561031957600080fd5b8035906020019184600183028401116401000000008311171561033b57600080fd5b91908080601f016020809104026020016040519081016040528093929190818152602001838380828437600081840152601f19601f8201169050808301925050505050505091929192908035906020019092919080359060200190929190803560ff169060200190929190505050611665565b6040518080602001828103825283818151815260200191508051906020019080838360005b838110156103ee5780820151818401526020810190506103d3565b50505050905090810190601f16801561041b5780820380516001836020036101000a031916815260200191505b509250505060405180910390f35b34801561043557600080fd5b506104626004803603602081101561044c57600080fd5b8101908080359060200190929190505050611a72565b005b34801561047057600080fd5b5061049d6004803603602081101561048757600080fd5b8101908080359060200190929190505050611b22565b604051808260000b815260200191505060405180910390f35b3480156104c257600080fd5b506104ef600480360360208110156104d957600080fd5b8101908080359060200190929190505050611b40565b6040518082815260200191505060405180910390f35b34801561051157600080fd5b5061053e6004803603602081101561052857600080fd5b8101908080359060200190929190505050611b5f565b6040518082815260200191505060405180910390f35b34801561056057600080fd5b506105a36004803603602081101561057757600080fd5b81019080803573ffffffffffffffffffffffffffffffffffffffff169060200190929190505050611ca3565b6040518082815260200191505060405180910390f35b3480156105c557600080fd5b50610612600480360360408110156105dc57600080fd5b8101908080359060200190929190803573ffffffffffffffffffffffffffffffffffffffff169060200190929190505050611cec565b005b34801561062057600080fd5b5061066d6004803603604081101561063757600080fd5b8101908080359060200190929190803573ffffffffffffffffffffffffffffffffffffffff169060200190929190505050611d75565b005b34801561067b57600080fd5b506107326004803603602081101561069257600080fd5b81019080803590602001906401000000008111156106af57600080fd5b8201836020820111156106c157600080fd5b803590602001918460208302840111640100000000831117156106e357600080fd5b919080806020026020016040519081016040528093929190818152602001838360200280828437600081840152601f19601f820116905080830192505050505050509192919290505050611e0e565b005b34801561074057600080fd5b506107776004803603604081101561075757600080fd5b810190808035906020019092919080359060200190929190505050611e28565b604051808260000b815260200191505060405180910390f35b34801561079c57600080fd5b50610860600480360360408110156107b357600080fd5b8101908080359060200190929190803590602001906401000000008111156107da57600080fd5b8201836020820111156107ec57600080fd5b8035906020019184600183028401116401000000008311171561080e57600080fd5b91908080601f016020809104026020016040519081016040528093929190818152602001838380828437600081840152601f19601f820116905080830192505050505050509192919290505050611e5a565b005b34801561086e57600080fd5b50610877611f0e565b6040518082815260200191505060405180910390f35b61092760048036036101208110156108a457600080fd5b81019080803590602001909291908035906020019092919080359060200190929190803560ff16906020019092919080359060200190929190803515159060200190929190803573ffffffffffffffffffffffffffffffffffffffff16906020019092919080351515906020019092919080359060200190929190505050611f18565b005b61098c6004803603608081101561093f57600080fd5b8101908080359060200190929190803560ff169060200190929190803573ffffffffffffffffffffffffffffffffffffffff169060200190929190803590602001909291905050506123b4565b005b34801561099a57600080fd5b506109a3612966565b005b3480156109b157600080fd5b506109e8600480360360408110156109c857600080fd5b810190808035906020019092919080359060200190929190505050612991565b604051808273ffffffffffffffffffffffffffffffffffffffff16815260200191505060405180910390f35b348015610a2057600080fd5b50610a6d60048036036040811015610a3757600080fd5b8101908080359060200190929190803573ffffffffffffffffffffffffffffffffffffffff1690602001909291905050506129c2565b60405180821515815260200191505060405180910390f35b348015610a9157600080fd5b50610abe60048036036020811015610aa857600080fd5b81019080803590602001909291905050506129f3565b005b348015610acc57600080fd5b50610ad5612aa3565b6040518082815260200191505060405180910390f35b348015610af757600080fd5b50610b2460048036036020811015610b0e57600080fd5b8101908080359060200190929190505050612aad565b005b348015610b3257600080fd5b50610b3b612b5d565b6040518082815260200191505060405180910390f35b348015610b5d57600080fd5b50610b66612b64565b6040518082815260200191505060405180910390f35b348015610b8857600080fd5b50610bb560048036036020811015610b9f57600080fd5b8101908080359060200190929190505050612b6e565b005b348015610bc357600080fd5b50610bf060048036036020811015610bda57600080fd5b8101908080359060200190929190505050612c1e565b6040518082815260200191505060405180910390f35b348015610c1257600080fd5b50610c1b612c44565b6040518082815260200191505060405180910390f35b348015610c3d57600080fd5b50610c8a60048036036040811015610c5457600080fd5b8101908080359060200190929190803573ffffffffffffffffffffffffffffffffffffffff169060200190929190505050612c4e565b005b348015610c9857600080fd5b50610ca1612cd7565b6040518082815260200191505060405180910390f35b348015610cc357600080fd5b50610cf060048036036020811015610cda57600080fd5b8101908080359060200190929190505050612ce1565b005b348015610cfe57600080fd5b50610d2b60048036036020811015610d1557600080fd5b8101908080359060200190929190505050612d91565b005b348015610d3957600080fd5b50610d6660048036036020811015610d5057600080fd5b8101908080359060200190929190505050612e41565b6040518082815260200191505060405180910390f35b348015610d8857600080fd5b50610d91612e65565b6040518082815260200191505060405180910390f35b348015610db357600080fd5b50610dea60048036036040811015610dca57600080fd5b810190808035906020019092919080359060200190929190505050612e6f565b6040518082815260200191505060405180910390f35b348015610e0c57600080fd5b50610e15612e86565b6040518082815260200191505060405180910390f35b600760009054906101000a900473ffffffffffffffffffffffffffffffffffffffff1673ffffffffffffffffffffffffffffffffffffffff163373ffffffffffffffffffffffffffffffffffffffff1614610ed1576040517f08c379a0000000000000000000000000000000000000000000000000000000008152600401808060200182810382526031815260200180613eae6031913960400191505060405180910390fd5b8060048190555050565b600760009054906101000a900473ffffffffffffffffffffffffffffffffffffffff1673ffffffffffffffffffffffffffffffffffffffff163373ffffffffffffffffffffffffffffffffffffffff1614610f81576040517f08c379a0000000000000000000000000000000000000000000000000000000008152600401808060200182810382526031815260200180613eae6031913960400191505060405180910390fd5b6000610fb9600f600087815260200190815260200160002060010154600f600088815260200190815260200160002060020154611e28565b60000b1461102f576040517f08c379a00000000000000000000000000000000000000000000000000000000081526004018080602001828103825260118152602001807f54696d65206973206e6f742076616c696400000000000000000000000000000081525060200191505060405180910390fd5b600f6000858152602001908152602001600020600d0160009054906101000a900460ff166110c5576040517f08c379a00000000000000000000000000000000000000000000000000000000081526004018080602001828103825260118152602001807f6576656e7420697320726576657274656400000000000000000000000000000081525060200191505060405180910390fd5b600f6000858152602001908152602001600020600f0160009054906101000a900460ff1661115b576040517f08c379a000000000000000000000000000000000000000000000000000000000815260040180806020018281038252600f8152602001807f6576656e742069732066696e697368000000000000000000000000000000000081525060200191505060405180910390fd5b60011515600f600086815260200190815260200160002060050160008373ffffffffffffffffffffffffffffffffffffffff1673ffffffffffffffffffffffffffffffffffffffff16815260200190815260200160002060009054906101000a900460ff16151514611218576040517f08c379a0000000000000000000000000000000000000000000000000000000008152600401808060200182810382526021815260200180613d846021913960400191505060405180910390fd5b611220613c92565b60405180604001604052808373ffffffffffffffffffffffffffffffffffffffff168152602001848152509050600f600086815260200190815260200160002060040160008560ff16815260200190815260200160002081908060018154018082558091505060019003906000526020600020906002020160009091909190915060008201518160000160006101000a81548173ffffffffffffffffffffffffffffffffffffffff021916908373ffffffffffffffffffffffffffffffffffffffff1602179055506020820151816001015550506001600f600087815260200190815260200160002060050160008473ffffffffffffffffffffffffffffffffffffffff1673ffffffffffffffffffffffffffffffffffffffff16815260200190815260200160002060006101000a81548160ff0219169083151502179055506001600f60008781526020019081526020016000206006016000828254019250508190555082600f6000878152602001908152602001600020600c016000828254019250508190555082600d60009054906101000a900473ffffffffffffffffffffffffffffffffffffffff1673ffffffffffffffffffffffffffffffffffffffff1663dd62ed3e84306040518363ffffffff1660e01b8152600401808373ffffffffffffffffffffffffffffffffffffffff1681526020018273ffffffffffffffffffffffffffffffffffffffff1681526020019250505060206040518083038186803b15801561145157600080fd5b505afa158015611465573d6000803e3d6000fd5b505050506040513d602081101561147b57600080fd5b81019080805190602001909291905050501015611500576040517f08c379a000000000000000000000000000000000000000000000000000000000815260040180806020018281038252600f8152602001807f416c6c6f77616e6365206572726f72000000000000000000000000000000000081525060200191505060405180910390fd5b600d60009054906101000a900473ffffffffffffffffffffffffffffffffffffffff1673ffffffffffffffffffffffffffffffffffffffff166323b872dd8330866040518463ffffffff1660e01b8152600401808473ffffffffffffffffffffffffffffffffffffffff1681526020018373ffffffffffffffffffffffffffffffffffffffff1681526020018281526020019350505050602060405180830381600087803b1580156115b157600080fd5b505af11580156115c5573d6000803e3d6000fd5b505050506040513d60208110156115db57600080fd5b810190808051906020019092919050505061165e576040517f08c379a000000000000000000000000000000000000000000000000000000000815260040180806020018281038252601f8152602001807f5472616e73666572204254592066726f6d20706c6179657273206572726f720081525060200191505060405180910390fd5b5050505050565b606060006040518060600160405280600260008a73ffffffffffffffffffffffffffffffffffffffff1673ffffffffffffffffffffffffffffffffffffffff1681526020019081526020016000205481526020018873ffffffffffffffffffffffffffffffffffffffff1681526020018781525090506116e88782878787612e90565b61173d576040517f08c379a0000000000000000000000000000000000000000000000000000000008152600401808060200182810382526021815260200180613e696021913960400191505060405180910390fd5b6117906001600260008a73ffffffffffffffffffffffffffffffffffffffff1673ffffffffffffffffffffffffffffffffffffffff16815260200190815260200160002054612f3f90919063ffffffff16565b600260008973ffffffffffffffffffffffffffffffffffffffff1673ffffffffffffffffffffffffffffffffffffffff168152602001908152602001600020819055507f5845892132946850460bff5a0083f71031bc5bf9aadcd40f1de79423eac9b10b873388604051808473ffffffffffffffffffffffffffffffffffffffff1681526020018373ffffffffffffffffffffffffffffffffffffffff16815260200180602001828103825283818151815260200191508051906020019080838360005b8381101561186f578082015181840152602081019050611854565b50505050905090810190601f16801561189c5780820380516001836020036101000a031916815260200191505b5094505050505060405180910390a16000803073ffffffffffffffffffffffffffffffffffffffff16888a6040516020018083805190602001908083835b602083106118fd57805182526020820191506020810190506020830392506118da565b6001836020036101000a0380198251168184511680821785525050505050509050018273ffffffffffffffffffffffffffffffffffffffff1660601b8152601401925050506040516020818303038152906040526040518082805190602001908083835b602083106119845780518252602082019150602081019050602083039250611961565b6001836020036101000a0380198251168184511680821785525050505050509050019150506000604051808303816000865af19150503d80600081146119e6576040519150601f19603f3d011682016040523d82523d6000602084013e6119eb565b606091505b509150915081611a63576040517f08c379a000000000000000000000000000000000000000000000000000000000815260040180806020018281038252601c8152602001807f46756e6374696f6e2063616c6c206e6f74207375636365737366756c0000000081525060200191505060405180910390fd5b80935050505095945050505050565b600760009054906101000a900473ffffffffffffffffffffffffffffffffffffffff1673ffffffffffffffffffffffffffffffffffffffff163373ffffffffffffffffffffffffffffffffffffffff1614611b18576040517f08c379a0000000000000000000000000000000000000000000000000000000008152600401808060200182810382526031815260200180613eae6031913960400191505060405180910390fd5b8060038190555050565b60008082420312611b365760009050611b3b565b600190505b919050565b6000806000838152602001908152602001600020600201549050919050565b600060028211611b725760019050611c9e565b60038210158015611b845750600b8211155b15611b925760039050611c9e565b600c8210158015611ba45750601e8211155b15611bb25760059050611c9e565b601f8210158015611bc4575060388211155b15611bd25760079050611c9e565b60398210158015611be45750605b8211155b15611bf25760099050611c9e565b605c8210158015611c04575060858211155b15611c1257600b9050611c9e565b60868210158015611c25575061012c8211155b15611c3357600f9050611c9e565b61012d8210158015611c4757506101f48211155b15611c555760179050611c9e565b6101f58210158015611c6957506103e88211155b15611c775760219050611c9e565b6103e98210158015611c8b57506113888211155b15611c995760469050611c9e565b606490505b919050565b6000600260008373ffffffffffffffffffffffffffffffffffffffff1673ffffffffffffffffffffffffffffffffffffffff168152602001908152602001600020549050919050565b611d1260008084815260200190815260200160002060020154611d0d612fc7565b6129c2565b611d67576040517f08c379a000000000000000000000000000000000000000000000000000000000815260040180806020018281038252602f815260200180613dc7602f913960400191505060405180910390fd5b611d718282612fcf565b5050565b611d7d612fc7565b73ffffffffffffffffffffffffffffffffffffffff168173ffffffffffffffffffffffffffffffffffffffff1614611e00576040517f08c379a000000000000000000000000000000000000000000000000000000000815260040180806020018281038252602f815260200180613edf602f913960400191505060405180910390fd5b611e0a8282613062565b5050565b80600b9080519060200190611e24929190613cc2565b5050565b60008083420312611e4f57600042830312611e465760009050611e54565b60029050611e54565b600190505b92915050565b600760009054906101000a900473ffffffffffffffffffffffffffffffffffffffff1673ffffffffffffffffffffffffffffffffffffffff163373ffffffffffffffffffffffffffffffffffffffff1614611f00576040517f08c379a0000000000000000000000000000000000000000000000000000000008152600401808060200182810382526031815260200180613eae6031913960400191505060405180910390fd5b611f0a82826130f5565b5050565b6000600954905090565b600760009054906101000a900473ffffffffffffffffffffffffffffffffffffffff1673ffffffffffffffffffffffffffffffffffffffff163373ffffffffffffffffffffffffffffffffffffffff1614611fbe576040517f08c379a0000000000000000000000000000000000000000000000000000000008152600401808060200182810382526031815260200180613eae6031913960400191505060405180910390fd5b88600f60008b81526020019081526020016000206000018190555087600f60008b81526020019081526020016000206001018190555086600f60008b81526020019081526020016000206002018190555085600f60008b815260200190815260200160002060030160006101000a81548160ff021916908360ff16021790555084600f60008b81526020019081526020016000206009018190555082600f60008b8152602001908152602001600020600a0160016101000a81548173ffffffffffffffffffffffffffffffffffffffff021916908373ffffffffffffffffffffffffffffffffffffffff16021790555083600f60008b8152602001908152602001600020600a0160006101000a81548160ff02191690831515021790555081600f60008b8152602001908152602001600020600d0160016101000a81548160ff02191690831515021790555081156123a95780600e60009054906101000a900473ffffffffffffffffffffffffffffffffffffffff1673ffffffffffffffffffffffffffffffffffffffff1663dd62ed3e85306040518363ffffffff1660e01b8152600401808373ffffffffffffffffffffffffffffffffffffffff1681526020018273ffffffffffffffffffffffffffffffffffffffff1681526020019250505060206040518083038186803b1580156121b857600080fd5b505afa1580156121cc573d6000803e3d6000fd5b505050506040513d60208110156121e257600080fd5b81019080805190602001909291905050501015612267576040517f08c379a000000000000000000000000000000000000000000000000000000000815260040180806020018281038252600f8152602001807f416c6c6f77616e6365206572726f72000000000000000000000000000000000081525060200191505060405180910390fd5b600e60009054906101000a900473ffffffffffffffffffffffffffffffffffffffff1673ffffffffffffffffffffffffffffffffffffffff166323b872dd8430846040518463ffffffff1660e01b8152600401808473ffffffffffffffffffffffffffffffffffffffff1681526020018373ffffffffffffffffffffffffffffffffffffffff1681526020018281526020019350505050602060405180830381600087803b15801561231857600080fd5b505af115801561232c573d6000803e3d6000fd5b505050506040513d602081101561234257600080fd5b81019080805190602001909291905050506123a8576040517f08c379a0000000000000000000000000000000000000000000000000000000008152600401808060200182810382526027815260200180613d5d6027913960400191505060405180910390fd5b5b505050505050505050565b600760009054906101000a900473ffffffffffffffffffffffffffffffffffffffff1673ffffffffffffffffffffffffffffffffffffffff163373ffffffffffffffffffffffffffffffffffffffff161461245a576040517f08c379a0000000000000000000000000000000000000000000000000000000008152600401808060200182810382526031815260200180613eae6031913960400191505060405180910390fd5b600061247b600f600087815260200190815260200160002060020154611b22565b60000b146124f1576040517f08c379a00000000000000000000000000000000000000000000000000000000081526004018080602001828103825260118152602001807f54696d65206973206e6f742076616c696400000000000000000000000000000081525060200191505060405180910390fd5b60011515600f600086815260200190815260200160002060050160008473ffffffffffffffffffffffffffffffffffffffff1673ffffffffffffffffffffffffffffffffffffffff16815260200190815260200160002060009054906101000a900460ff161515146125ae576040517f08c379a0000000000000000000000000000000000000000000000000000000008152600401808060200182810382526021815260200180613d846021913960400191505060405180910390fd5b600f6000858152602001908152602001600020600d0160009054906101000a900460ff16612644576040517f08c379a00000000000000000000000000000000000000000000000000000000081526004018080602001828103825260118152602001807f6576656e7420697320726576657274656400000000000000000000000000000081525060200191505060405180910390fd5b600f6000858152602001908152602001600020600f0160009054906101000a900460ff166126da576040517f08c379a000000000000000000000000000000000000000000000000000000000815260040180806020018281038252600f8152602001807f6576656e742069732066696e697368000000000000000000000000000000000081525060200191505060405180910390fd5b6000600f600086815260200190815260200160002060060154141561279d576001600f6000868152602001908152602001600020600d0160006101000a81548160ff0219169083151502179055507f847521552ad126e64c52b14640c804737bd67f2b6674309b332d1e5b17f857d18460405180828152602001806020018281038252600e8152602001807f646f206e6f7420706c61796572730000000000000000000000000000000000008152506020019250505060405180910390a1612960565b600f6000858152602001908152602001600020600a0160009054906101000a900460ff1615612800576127e5600f600086815260200190815260200160002060060154611b5f565b600f6000868152602001908152602001600020600901819055505b612808613d0f565b60405180604001604052808473ffffffffffffffffffffffffffffffffffffffff168152602001838152509050600f600086815260200190815260200160002060070160008560ff16815260200190815260200160002081908060018154018082558091505060019003906000526020600020906002020160009091909190915060008201518160000160006101000a81548173ffffffffffffffffffffffffffffffffffffffff021916908373ffffffffffffffffffffffffffffffffffffffff16021790555060208201518160010155505060006001600f600088815260200190815260200160002060080154019050600f6000878152602001908152602001600020600901548114156129415780600f60008881526020019081526020016000206008018190555061293c8661342c565b61295d565b80600f6000888152602001908152602001600020600801819055505b50505b50505050565b6000600b8054905014156129795761298f565b61298e600b60006001600b8054905003613514565b5b565b60006129ba8260008086815260200190815260200160002060000161366090919063ffffffff16565b905092915050565b60006129eb8260008086815260200190815260200160002060000161367a90919063ffffffff16565b905092915050565b600760009054906101000a900473ffffffffffffffffffffffffffffffffffffffff1673ffffffffffffffffffffffffffffffffffffffff163373ffffffffffffffffffffffffffffffffffffffff1614612a99576040517f08c379a0000000000000000000000000000000000000000000000000000000008152600401808060200182810382526031815260200180613eae6031913960400191505060405180910390fd5b8060058190555050565b6000600654905090565b600760009054906101000a900473ffffffffffffffffffffffffffffffffffffffff1673ffffffffffffffffffffffffffffffffffffffff163373ffffffffffffffffffffffffffffffffffffffff1614612b53576040517f08c379a0000000000000000000000000000000000000000000000000000000008152600401808060200182810382526031815260200180613eae6031913960400191505060405180910390fd5b8060068190555050565b6000801b81565b6000600454905090565b600760009054906101000a900473ffffffffffffffffffffffffffffffffffffffff1673ffffffffffffffffffffffffffffffffffffffff163373ffffffffffffffffffffffffffffffffffffffff1614612c14576040517f08c379a0000000000000000000000000000000000000000000000000000000008152600401808060200182810382526031815260200180613eae6031913960400191505060405180910390fd5b80600a8190555050565b6000612c3d6000808481526020019081526020016000206000016136aa565b9050919050565b6000600354905090565b612c7460008084815260200190815260200160002060020154612c6f612fc7565b6129c2565b612cc9576040517f08c379a0000000000000000000000000000000000000000000000000000000008152600401808060200182810382526030815260200180613e396030913960400191505060405180910390fd5b612cd38282613062565b5050565b6000600a54905090565b600760009054906101000a900473ffffffffffffffffffffffffffffffffffffffff1673ffffffffffffffffffffffffffffffffffffffff163373ffffffffffffffffffffffffffffffffffffffff1614612d87576040517f08c379a0000000000000000000000000000000000000000000000000000000008152600401808060200182810382526031815260200180613eae6031913960400191505060405180910390fd5b8060098190555050565b600760009054906101000a900473ffffffffffffffffffffffffffffffffffffffff1673ffffffffffffffffffffffffffffffffffffffff163373ffffffffffffffffffffffffffffffffffffffff1614612e37576040517f08c379a0000000000000000000000000000000000000000000000000000000008152600401808060200182810382526031815260200180613eae6031913960400191505060405180910390fd5b8060088190555050565b600b8181548110612e5157600080fd5b906000526020600020016000915090505481565b6000600554905090565b6000606483830281612e7d57fe5b04905092915050565b6000600854905090565b60006001612ea5612ea0876136bf565b61374f565b83868660405160008152602001604052604051808581526020018460ff1681526020018381526020018281526020019450505050506020604051602081039080840390855afa158015612efc573d6000803e3d6000fd5b5050506020604051035173ffffffffffffffffffffffffffffffffffffffff168673ffffffffffffffffffffffffffffffffffffffff1614905095945050505050565b600080828401905083811015612fbd576040517f08c379a000000000000000000000000000000000000000000000000000000000815260040180806020018281038252601b8152602001807f536166654d6174683a206164646974696f6e206f766572666c6f77000000000081525060200191505060405180910390fd5b8091505092915050565b600033905090565b612ff6816000808581526020019081526020016000206000016137b690919063ffffffff16565b1561305e57613003612fc7565b73ffffffffffffffffffffffffffffffffffffffff168173ffffffffffffffffffffffffffffffffffffffff16837f2f8788117e7eff1d82e926ec794901d17c78024a50270940304540a733656f0d60405160405180910390a45b5050565b613089816000808581526020019081526020016000206000016137e690919063ffffffff16565b156130f157613096612fc7565b73ffffffffffffffffffffffffffffffffffffffff168173ffffffffffffffffffffffffffffffffffffffff16837ff6391f5c32d9c69d2a47ea670b442974b53935d1edc7fd64eb21e047a839171b60405160405180910390a45b5050565b60005b600f600084815260200190815260200160002060030160009054906101000a900460ff1660ff168160ff1610156133545760005b600f600085815260200190815260200160002060040160008360ff168152602001908152602001600020805490508160ff16101561334657600d60009054906101000a900473ffffffffffffffffffffffffffffffffffffffff1673ffffffffffffffffffffffffffffffffffffffff1663a9059cbb600f600087815260200190815260200160002060040160008560ff1681526020019081526020016000208360ff16815481106131da57fe5b906000526020600020906002020160000160009054906101000a900473ffffffffffffffffffffffffffffffffffffffff16600f600088815260200190815260200160002060040160008660ff1681526020019081526020016000208460ff168154811061324457fe5b9060005260206000209060020201600101546040518363ffffffff1660e01b8152600401808373ffffffffffffffffffffffffffffffffffffffff16815260200182815260200192505050602060405180830381600087803b1580156132a957600080fd5b505af11580156132bd573d6000803e3d6000fd5b505050506040513d60208110156132d357600080fd5b8101908080519060200190929190505050613339576040517f08c379a0000000000000000000000000000000000000000000000000000000008152600401808060200182810382526024815260200180613e8a6024913960400191505060405180910390fd5b808060010191505061312c565b5080806001019150506130f8565b506001600f6000848152602001908152602001600020600d0160006101000a81548160ff0219169083151502179055507f847521552ad126e64c52b14640c804737bd67f2b6674309b332d1e5b17f857d182826040518083815260200180602001828103825283818151815260200191508051906020019080838360005b838110156133ed5780820151818401526020810190506133d2565b50505050905090810190601f16801561341a5780820380516001836020036101000a031916815260200191505b50935050505060405180910390a15050565b60008080600090505b600f600085815260200190815260200160002060030160009054906101000a900460ff1660ff168160ff1610156134df5782600f600086815260200190815260200160002060070160008360ff1681526020019081526020016000208054905011156134d257600f600085815260200190815260200160002060070160008260ff1681526020019081526020016000208054905092508060ff1691505b8080600101915050613435565b5061350f818385600f600088815260200190815260200160002060030160009054906101000a900460ff16613816565b505050565b6000829050600082905060008560028686038161352d57fe5b0486018154811061353a57fe5b906000526020600020015490505b818311613630575b8086848154811061355d57fe5b9060005260206000200154101561357b578280600101935050613550565b5b85828154811061358857fe5b90600052602060002001548110156135a85781806001900392505061357c565b81831161362b578582815481106135bb57fe5b90600052602060002001548684815481106135d257fe5b90600052602060002001548785815481106135e957fe5b90600052602060002001600089868154811061360157fe5b90600052602060002001600084919050558391905055505082806001019350508180600190039250505b613548565b8185101561364457613643868684613514565b5b8383101561365857613657868486613514565b5b505050505050565b600061366f8360000183613a76565b60001c905092915050565b60006136a2836000018373ffffffffffffffffffffffffffffffffffffffff1660001b613af9565b905092915050565b60006136b882600001613b1c565b9050919050565b6000604051806080016040528060438152602001613df6604391398051906020012082600001518360200151846040015180519060200120604051602001808581526020018481526020018373ffffffffffffffffffffffffffffffffffffffff168152602001828152602001945050505050604051602081830303815290604052805190602001209050919050565b6000613759613b2d565b8260405160200180807f190100000000000000000000000000000000000000000000000000000000000081525060020183815260200182815260200192505050604051602081830303815290604052805190602001209050919050565b60006137de836000018373ffffffffffffffffffffffffffffffffffffffff1660001b613b37565b905092915050565b600061380e836000018373ffffffffffffffffffffffffffffffffffffffff1660001b613ba7565b905092915050565b6001600f6000848152602001908152602001600020600801541115613a4b576000808260ff1667ffffffffffffffff8111801561385257600080fd5b506040519080825280602002602001820160405280156138815781602001602082028036833780820191505090505b50905060005b8360ff168160ff1610156138eb57600f600086815260200190815260200160002060070160008260ff16815260200190815260200160002080549050828260ff16815181106138d257fe5b6020026020010181815250508080600101915050613887565b506138f581611e0e565b6138fd612966565b60005b6001600b80549050038160ff16101561399f57600b805490506001820160ff16101561399257600b8160ff168154811061393657fe5b9060005260206000200154600b6001830160ff168154811061395457fe5b9060005260206000200154141561399157600b8160ff168154811061397557fe5b90600052602060002001548614156139905782806001019350505b5b5b8080600101915050613900565b5060008260ff161115613a1f576001600f6000868152602001908152602001600020600d0160006101000a81548160ff021916908315150217905550613a1a846040518060400160405280601581526020017f6475706c6963617465732076616c696461746f727300000000000000000000008152506130f5565b613a44565b85600f6000868152602001908152602001600020600b0181905550613a4384613c8f565b5b5050613a70565b83600f6000848152602001908152602001600020600b0181905550613a6f82613c8f565b5b50505050565b600081836000018054905011613ad7576040517f08c379a0000000000000000000000000000000000000000000000000000000008152600401808060200182810382526022815260200180613da56022913960400191505060405180910390fd5b826000018281548110613ae657fe5b9060005260206000200154905092915050565b600080836001016000848152602001908152602001600020541415905092915050565b600081600001805490509050919050565b6000600154905090565b6000613b438383613af9565b613b9c578260000182908060018154018082558091505060019003906000526020600020016000909190919091505582600001805490508360010160008481526020019081526020016000208190555060019050613ba1565b600090505b92915050565b60008083600101600084815260200190815260200160002054905060008114613c835760006001820390506000600186600001805490500390506000866000018281548110613bf257fe5b9060005260206000200154905080876000018481548110613c0f57fe5b9060005260206000200181905550600183018760010160008381526020019081526020016000208190555086600001805480613c4757fe5b60019003818190600052602060002001600090559055866001016000878152602001908152602001600020600090556001945050505050613c89565b60009150505b92915050565b50565b6040518060400160405280600073ffffffffffffffffffffffffffffffffffffffff168152602001600081525090565b828054828255906000526020600020908101928215613cfe579160200282015b82811115613cfd578251825591602001919060010190613ce2565b5b509050613d0b9190613d3f565b5090565b6040518060400160405280600073ffffffffffffffffffffffffffffffffffffffff168152602001600081525090565b5b80821115613d58576000816000905550600101613d40565b509056fe5472616e736665722042545920746f6b656e7320666f722050524f206576656e74206572726f727573657220616c726561647920706172746963697061746520696e206576656e74456e756d657261626c655365743a20696e646578206f7574206f6620626f756e6473416363657373436f6e74726f6c3a2073656e646572206d75737420626520616e2061646d696e20746f206772616e744d6574615472616e73616374696f6e2875696e74323536206e6f6e63652c616464726573732066726f6d2c62797465732066756e6374696f6e5369676e617475726529416363657373436f6e74726f6c3a2073656e646572206d75737420626520616e2061646d696e20746f207265766f6b655369676e657220616e64207369676e617475726520646f206e6f74206d617463685265766572742042455420746f6b656e20746f20706c6179657273206973206572726f72546869732066756e6374696f6e20636f756c64206f6e6c7920626520657865637574656420627920746865206f776e6572416363657373436f6e74726f6c3a2063616e206f6e6c792072656e6f756e636520726f6c657320666f722073656c66a264697066735822122073ab4a2d0c2355bce73449a59f8cfcf9b34fdcbe6d4c6b8687e784aafd7c394e64736f6c63430007060033454950373132446f6d61696e28737472696e67206e616d652c737472696e672076657273696f6e2c75696e7432353620636861696e49642c6164647265737320766572696679696e67436f6e747261637429",
  "immutableReferences": {},
  "source": "// SPDX-License-Identifier: MIT\npragma solidity >=0.4.22 <0.9.0;\n\nimport {MetaTransactLib} from \"../helpers/MetaTransactLib.sol\";\nimport {PubStruct} from \"../struct/PubStruct.sol\";\nimport {TimeValidation} from \"../helpers/TimeValidation.sol\";\nimport {BET} from \"../tokens/BET.sol\";\nimport {BTY} from \"../tokens/BTY.sol\";\nimport {ConfigVariables} from \"../config/ConfigVariables.sol\";\nimport {Libs} from \"../helpers/Libs.sol\";\n\ncontract PublicEvents is\n    MetaTransactLib,\n    TimeValidation,\n    ConfigVariables,\n    Libs\n{\n    address payable owner;\n    BET private betToken;\n    BTY private btyToken;\n\n    mapping(int256 => PubStruct.EventData) events;\n    event revertedEvent(int256 id, string purpose);\n\n    constructor(BET _betAddress, BTY _btyAddress)\n        MetaTransactLib(\"Public_contract\", \"1\", 5)\n    {\n        owner = msg.sender;\n        betToken = _betAddress;\n        btyToken = _btyAddress;\n    }\n\n    function newEvent(\n        int256 _id,\n        uint256 _startTime,\n        uint256 _endTime,\n        uint8 _questAmount,\n        uint256 _amountExperts,\n        bool _calculateExperts,\n        address payable _host,\n        bool _premium,\n        uint256 _amountPremiumEvent\n    ) public payable ownerOnly() {\n        events[_id].id = _id;\n        events[_id].startTime = _startTime;\n        events[_id].endTime = _endTime;\n        events[_id].questAmount = _questAmount;\n        events[_id].amountExperts = _amountExperts;\n        events[_id].host = _host;\n        events[_id].calculateExperts = _calculateExperts;\n        events[_id].premium = _premium;\n\n        // TODO add Advisor\n        if (_premium) {\n            require(\n                btyToken.allowance(_host, address(this)) >= _amountPremiumEvent,\n                \"Allowance error\"\n            );\n            require(\n                btyToken.transferFrom(_host, address(this), _amountPremiumEvent),\n                \"Transfer BTY tokens for PRO event error\"\n            );\n        }\n    }\n\n    function setAnswer(\n        int256 _id,\n        uint8 _whichAnswer,\n        uint256 _amount,\n        address payable _playerWallet\n    ) public payable ownerOnly() {\n        require(\n            timeAnswer(events[_id].startTime, events[_id].endTime) == 0,\n            \"Time is not valid\"\n        );\n        require(events[_id].reverted, \"event is reverted\");\n        require(events[_id].eventFinish, \"event is finish\");\n        require(\n            events[_id].allPlayers[_playerWallet] == true,\n            \"user already participate in event\"\n        );\n\n        PubStruct.Player memory player;\n        // TODO add Referrers\n        player = PubStruct.Player(_playerWallet, _amount);\n        events[_id].players[_whichAnswer].push(player);\n        events[_id].allPlayers[_playerWallet] = true;\n        events[_id].activePlayers += 1;\n        events[_id].pool += _amount;\n\n        require(\n            betToken.allowance(_playerWallet, address(this)) >= _amount,\n            \"Allowance error\"\n        );\n        require(\n            betToken.transferFrom(_playerWallet, address(this), _amount),\n            \"Transfer BTY from players error\"\n        );\n    }\n\n    function setValidator(\n        int256 _id,\n        uint8 _whichAnswer,\n        address payable _expertWallet,\n        int256 rating\n    ) public payable ownerOnly() {\n        require(timeValidate(events[_id].endTime) == 0, \"Time is not valid\");\n        require(\n            events[_id].allPlayers[_expertWallet] == true,\n            \"user already participate in event\"\n        );\n        require(events[_id].reverted, \"event is reverted\");\n        require(events[_id].eventFinish, \"event is finish\");\n\n        if (events[_id].activePlayers == 0) {\n            events[_id].reverted = true;\n            emit revertedEvent(_id, \"do not players\");\n        } else {\n            if (events[_id].calculateExperts) {\n                events[_id].amountExperts = calculateExpertAmount(\n                    events[_id].activePlayers\n                );\n            }\n            PubStruct.Expert memory expert;\n            expert = PubStruct.Expert(_expertWallet, rating);\n            events[_id].expert[_whichAnswer].push(expert);\n            uint256 active = events[_id].activeExperts + 1;\n            if (active == events[_id].amountExperts) {\n                events[_id].activeExperts = active;\n                letsFindCorrectAnswer(_id);\n            } else {\n                events[_id].activeExperts = active;\n            }\n        }\n    }\n\n    function letsFindCorrectAnswer(int256 _id) private {\n        uint256 biggestValue = 0;\n        uint256 correctAnswer;\n\n        // find correct answer\n        for (uint8 i = 0; i < events[_id].questAmount; i++) {\n            if (events[_id].expert[i].length > biggestValue) {\n                biggestValue = events[_id].expert[i].length;\n                correctAnswer = i;\n            }\n        }\n\n        findDuplicates(\n            correctAnswer,\n            biggestValue,\n            _id,\n            events[_id].questAmount\n        );\n    }\n\n    function findDuplicates(\n        uint256 correctAnswer,\n        uint256 biggestValue,\n        int256 _id,\n        uint8 questAmount\n    ) private {\n        if (events[_id].activeExperts > 1) {\n            uint8 duplicatesAnswers = 0;\n            uint256[] memory expertAnswers = new uint256[](questAmount);\n            for (uint8 i = 0; i < questAmount; i++) {\n                expertAnswers[i] = events[_id].expert[i].length;\n            }\n\n            setSort(expertAnswers);\n            sort();\n\n            for (uint8 i = 0; i < sortedArray.length - 1; i++) {\n                if ((i + 1) < sortedArray.length) {\n                    if (sortedArray[i + 1] == sortedArray[i]) {\n                        if (biggestValue == sortedArray[i]) {\n                            duplicatesAnswers++;\n                        }\n                    }\n                }\n            }\n\n            if (duplicatesAnswers > 0) {\n                events[_id].reverted = true;\n                revertPayment(_id, \"duplicates validators\");\n            } else {\n                events[_id].correctAnswer = correctAnswer;\n                findLosersPool(_id);\n            }\n        } else {\n            events[_id].correctAnswer = correctAnswer;\n            findLosersPool(_id);\n        }\n    }\n\n    function revertedPayment(int256 _id, string memory purpose)\n        public\n        ownerOnly()\n    {\n        revertPayment(_id, purpose);\n    }\n\n    function revertPayment(int256 _id, string memory purpose) private {\n        for (uint8 i = 0; i < events[_id].questAmount; i++) {\n            for (uint8 z = 0; z < events[_id].players[i].length; z++) {\n                require(\n                    betToken.transfer(\n                        events[_id].players[i][z].player,\n                        events[_id].players[i][z].amount\n                    ),\n                    \"Revert BET token to players is error\"\n                );\n            }\n        }\n        events[_id].reverted = true;\n        emit revertedEvent(_id, purpose);\n    }\n\n    function findLosersPool(int256 _id) private {}\n}\n",
  "sourcePath": "/Users/macbook/Documents/freelance/tokenominc/contracts/events/PublicEvents.sol",
  "compiler": {
    "name": "solc",
    "version": "0.7.6+commit.7338295f.Linux.g++"
  },
  "schemaVersion": "3.2.2",
  "updatedAt": "2021-02-17T15:37:06.326Z",
  "devdoc": {
    "kind": "dev",
    "methods": {
      "getRoleAdmin(bytes32)": {
        "details": "Returns the admin role that controls `role`. See {grantRole} and {revokeRole}. To change a role's admin, use {_setRoleAdmin}."
      },
      "getRoleMember(bytes32,uint256)": {
        "details": "Returns one of the accounts that have `role`. `index` must be a value between 0 and {getRoleMemberCount}, non-inclusive. Role bearers are not sorted in any particular way, and their ordering may change at any point. WARNING: When using {getRoleMember} and {getRoleMemberCount}, make sure you perform all queries on the same block. See the following https://forum.openzeppelin.com/t/iterating-over-elements-on-enumerableset-in-openzeppelin-contracts/2296[forum post] for more information."
      },
      "getRoleMemberCount(bytes32)": {
        "details": "Returns the number of accounts that have `role`. Can be used together with {getRoleMember} to enumerate all bearers of a role."
      },
      "grantRole(bytes32,address)": {
        "details": "Grants `role` to `account`. If `account` had not been already granted `role`, emits a {RoleGranted} event. Requirements: - the caller must have ``role``'s admin role."
      },
      "hasRole(bytes32,address)": {
        "details": "Returns `true` if `account` has been granted `role`."
      },
      "renounceRole(bytes32,address)": {
        "details": "Revokes `role` from the calling account. Roles are often managed via {grantRole} and {revokeRole}: this function's purpose is to provide a mechanism for accounts to lose their privileges if they are compromised (such as when a trusted device is misplaced). If the calling account had been granted `role`, emits a {RoleRevoked} event. Requirements: - the caller must be `account`."
      },
      "revokeRole(bytes32,address)": {
        "details": "Revokes `role` from `account`. If `account` had been granted `role`, emits a {RoleRevoked} event. Requirements: - the caller must have ``role``'s admin role."
      }
    },
    "version": 1
  },
  "userdoc": {
    "kind": "user",
    "methods": {},
    "version": 1
  }
}