{
  "contractName": "PublicEvents",
  "abi": [
    {
      "inputs": [
        {
          "internalType": "contract BET",
          "name": "_betAddress",
          "type": "address"
        },
        {
          "internalType": "contract BTY",
          "name": "_btyAddress",
          "type": "address"
        }
      ],
      "stateMutability": "nonpayable",
      "type": "constructor"
    },
    {
      "anonymous": false,
      "inputs": [
        {
          "indexed": false,
          "internalType": "int256",
          "name": "id",
          "type": "int256"
        },
        {
          "indexed": false,
          "internalType": "uint256",
          "name": "activePlayers",
          "type": "uint256"
        }
      ],
      "name": "calculateExpert",
      "type": "event"
    },
    {
      "anonymous": false,
      "inputs": [
        {
          "indexed": false,
          "internalType": "int256",
          "name": "id",
          "type": "int256"
        },
        {
          "indexed": false,
          "internalType": "uint256",
          "name": "tokens",
          "type": "uint256"
        },
        {
          "indexed": false,
          "internalType": "uint256",
          "name": "correctAnswer",
          "type": "uint256"
        }
      ],
      "name": "eventFinish",
      "type": "event"
    },
    {
      "anonymous": false,
      "inputs": [
        {
          "indexed": false,
          "internalType": "int256",
          "name": "id",
          "type": "int256"
        },
        {
          "indexed": false,
          "internalType": "string",
          "name": "purpose",
          "type": "string"
        }
      ],
      "name": "revertedEvent",
      "type": "event"
    },
    {
      "inputs": [],
      "name": "GFindex",
      "outputs": [
        {
          "internalType": "uint256",
          "name": "",
          "type": "uint256"
        }
      ],
      "stateMutability": "view",
      "type": "function"
    },
    {
      "inputs": [],
      "name": "GFrewards",
      "outputs": [
        {
          "internalType": "uint256",
          "name": "",
          "type": "uint256"
        }
      ],
      "stateMutability": "view",
      "type": "function"
    },
    {
      "inputs": [],
      "name": "advisorPepc",
      "outputs": [
        {
          "internalType": "uint256",
          "name": "",
          "type": "uint256"
        }
      ],
      "stateMutability": "view",
      "type": "function"
    },
    {
      "inputs": [],
      "name": "advisorPercMint",
      "outputs": [
        {
          "internalType": "uint256",
          "name": "",
          "type": "uint256"
        }
      ],
      "stateMutability": "view",
      "type": "function"
    },
    {
      "inputs": [],
      "name": "betToken",
      "outputs": [
        {
          "internalType": "contract BET",
          "name": "",
          "type": "address"
        }
      ],
      "stateMutability": "view",
      "type": "function"
    },
    {
      "inputs": [],
      "name": "btyToken",
      "outputs": [
        {
          "internalType": "contract BTY",
          "name": "",
          "type": "address"
        }
      ],
      "stateMutability": "view",
      "type": "function"
    },
    {
      "inputs": [
        {
          "internalType": "uint256",
          "name": "_activePlayers",
          "type": "uint256"
        },
        {
          "internalType": "uint256",
          "name": "_pool",
          "type": "uint256"
        },
        {
          "internalType": "uint256",
          "name": "_GFindex",
          "type": "uint256"
        }
      ],
      "name": "calcMintedTokens",
      "outputs": [
        {
          "internalType": "uint256",
          "name": "",
          "type": "uint256"
        }
      ],
      "stateMutability": "pure",
      "type": "function"
    },
    {
      "inputs": [],
      "name": "comMarketFundPerc",
      "outputs": [
        {
          "internalType": "uint256",
          "name": "",
          "type": "uint256"
        }
      ],
      "stateMutability": "view",
      "type": "function"
    },
    {
      "inputs": [],
      "name": "comMarketFundWallet",
      "outputs": [
        {
          "internalType": "address payable",
          "name": "",
          "type": "address"
        }
      ],
      "stateMutability": "view",
      "type": "function"
    },
    {
      "inputs": [],
      "name": "developFundPerc",
      "outputs": [
        {
          "internalType": "uint256",
          "name": "",
          "type": "uint256"
        }
      ],
      "stateMutability": "view",
      "type": "function"
    },
    {
      "inputs": [],
      "name": "developFundPercPremim",
      "outputs": [
        {
          "internalType": "uint256",
          "name": "",
          "type": "uint256"
        }
      ],
      "stateMutability": "view",
      "type": "function"
    },
    {
      "inputs": [],
      "name": "expertExtraPerc",
      "outputs": [
        {
          "internalType": "uint256",
          "name": "",
          "type": "uint256"
        }
      ],
      "stateMutability": "view",
      "type": "function"
    },
    {
      "inputs": [],
      "name": "expertPerc",
      "outputs": [
        {
          "internalType": "uint256",
          "name": "",
          "type": "uint256"
        }
      ],
      "stateMutability": "view",
      "type": "function"
    },
    {
      "inputs": [],
      "name": "expertPercMint",
      "outputs": [
        {
          "internalType": "uint256",
          "name": "",
          "type": "uint256"
        }
      ],
      "stateMutability": "view",
      "type": "function"
    },
    {
      "inputs": [],
      "name": "expertPremiumPerc",
      "outputs": [
        {
          "internalType": "uint256",
          "name": "",
          "type": "uint256"
        }
      ],
      "stateMutability": "view",
      "type": "function"
    },
    {
      "inputs": [],
      "name": "extraHostPerc",
      "outputs": [
        {
          "internalType": "uint256",
          "name": "",
          "type": "uint256"
        }
      ],
      "stateMutability": "view",
      "type": "function"
    },
    {
      "inputs": [],
      "name": "extraHostPercMint",
      "outputs": [
        {
          "internalType": "uint256",
          "name": "",
          "type": "uint256"
        }
      ],
      "stateMutability": "view",
      "type": "function"
    },
    {
      "inputs": [],
      "name": "firstWithdrawIndex",
      "outputs": [
        {
          "internalType": "uint256",
          "name": "",
          "type": "uint256"
        }
      ],
      "stateMutability": "view",
      "type": "function"
    },
    {
      "inputs": [],
      "name": "getFirstWithdraw",
      "outputs": [
        {
          "internalType": "uint256",
          "name": "",
          "type": "uint256"
        }
      ],
      "stateMutability": "view",
      "type": "function"
    },
    {
      "inputs": [
        {
          "internalType": "uint256",
          "name": "_percent",
          "type": "uint256"
        },
        {
          "internalType": "uint256",
          "name": "_from",
          "type": "uint256"
        }
      ],
      "name": "getPercent",
      "outputs": [
        {
          "internalType": "uint256",
          "name": "",
          "type": "uint256"
        }
      ],
      "stateMutability": "pure",
      "type": "function"
    },
    {
      "inputs": [],
      "name": "hostPerc",
      "outputs": [
        {
          "internalType": "uint256",
          "name": "",
          "type": "uint256"
        }
      ],
      "stateMutability": "view",
      "type": "function"
    },
    {
      "inputs": [],
      "name": "hostPercMint",
      "outputs": [
        {
          "internalType": "uint256",
          "name": "",
          "type": "uint256"
        }
      ],
      "stateMutability": "view",
      "type": "function"
    },
    {
      "inputs": [
        {
          "internalType": "int256",
          "name": "_id",
          "type": "int256"
        }
      ],
      "name": "letsFindCorrectAnswer",
      "outputs": [],
      "stateMutability": "nonpayable",
      "type": "function"
    },
    {
      "inputs": [
        {
          "internalType": "int256",
          "name": "_id",
          "type": "int256"
        },
        {
          "internalType": "uint256",
          "name": "_tokens",
          "type": "uint256"
        }
      ],
      "name": "letsFinishEvent",
      "outputs": [],
      "stateMutability": "nonpayable",
      "type": "function"
    },
    {
      "inputs": [],
      "name": "moderatorsFundPerc",
      "outputs": [
        {
          "internalType": "uint256",
          "name": "",
          "type": "uint256"
        }
      ],
      "stateMutability": "view",
      "type": "function"
    },
    {
      "inputs": [],
      "name": "moderatorsFundWallet",
      "outputs": [
        {
          "internalType": "address payable",
          "name": "",
          "type": "address"
        }
      ],
      "stateMutability": "view",
      "type": "function"
    },
    {
      "inputs": [],
      "name": "owner",
      "outputs": [
        {
          "internalType": "address payable",
          "name": "",
          "type": "address"
        }
      ],
      "stateMutability": "view",
      "type": "function"
    },
    {
      "inputs": [],
      "name": "playersPers",
      "outputs": [
        {
          "internalType": "uint256",
          "name": "",
          "type": "uint256"
        }
      ],
      "stateMutability": "view",
      "type": "function"
    },
    {
      "inputs": [],
      "name": "playersPersMint",
      "outputs": [
        {
          "internalType": "uint256",
          "name": "",
          "type": "uint256"
        }
      ],
      "stateMutability": "view",
      "type": "function"
    },
    {
      "inputs": [],
      "name": "playersPersPremiun",
      "outputs": [
        {
          "internalType": "uint256",
          "name": "",
          "type": "uint256"
        }
      ],
      "stateMutability": "view",
      "type": "function"
    },
    {
      "inputs": [
        {
          "internalType": "int256",
          "name": "_id",
          "type": "int256"
        },
        {
          "internalType": "string",
          "name": "purpose",
          "type": "string"
        }
      ],
      "name": "revertedPayment",
      "outputs": [],
      "stateMutability": "nonpayable",
      "type": "function"
    },
    {
      "inputs": [
        {
          "internalType": "address payable",
          "name": "_wallet",
          "type": "address"
        }
      ],
      "name": "setComMarketFundWallet",
      "outputs": [],
      "stateMutability": "nonpayable",
      "type": "function"
    },
    {
      "inputs": [
        {
          "internalType": "uint256",
          "name": "_developFundPerc",
          "type": "uint256"
        }
      ],
      "name": "setDevelopFundPerc",
      "outputs": [],
      "stateMutability": "nonpayable",
      "type": "function"
    },
    {
      "inputs": [
        {
          "internalType": "uint256",
          "name": "_expertPerc",
          "type": "uint256"
        }
      ],
      "name": "setExpertPerc",
      "outputs": [],
      "stateMutability": "nonpayable",
      "type": "function"
    },
    {
      "inputs": [
        {
          "internalType": "uint256",
          "name": "_firstWithdrawIndex",
          "type": "uint256"
        }
      ],
      "name": "setFirstWithdraw",
      "outputs": [],
      "stateMutability": "nonpayable",
      "type": "function"
    },
    {
      "inputs": [
        {
          "internalType": "uint256",
          "name": "_GFindex",
          "type": "uint256"
        }
      ],
      "name": "setGFindex",
      "outputs": [],
      "stateMutability": "nonpayable",
      "type": "function"
    },
    {
      "inputs": [
        {
          "internalType": "uint256",
          "name": "_GFrewards",
          "type": "uint256"
        }
      ],
      "name": "setGFrewards",
      "outputs": [],
      "stateMutability": "nonpayable",
      "type": "function"
    },
    {
      "inputs": [
        {
          "internalType": "uint256",
          "name": "_hostPercMint",
          "type": "uint256"
        },
        {
          "internalType": "uint256",
          "name": "_hostPerc",
          "type": "uint256"
        }
      ],
      "name": "setHostPerc",
      "outputs": [],
      "stateMutability": "nonpayable",
      "type": "function"
    },
    {
      "inputs": [
        {
          "internalType": "address payable",
          "name": "_wallet",
          "type": "address"
        }
      ],
      "name": "setModeratorsFundWallet",
      "outputs": [],
      "stateMutability": "nonpayable",
      "type": "function"
    },
    {
      "inputs": [
        {
          "internalType": "uint256",
          "name": "_playersPersMint",
          "type": "uint256"
        }
      ],
      "name": "setPlayerPersMint",
      "outputs": [],
      "stateMutability": "nonpayable",
      "type": "function"
    },
    {
      "inputs": [
        {
          "internalType": "uint256",
          "name": "_welcomeBTYTokens",
          "type": "uint256"
        }
      ],
      "name": "setWelcomeBTYTokens",
      "outputs": [],
      "stateMutability": "nonpayable",
      "type": "function"
    },
    {
      "inputs": [
        {
          "internalType": "uint256",
          "name": "_startTime",
          "type": "uint256"
        },
        {
          "internalType": "uint256",
          "name": "_endTime",
          "type": "uint256"
        }
      ],
      "name": "timeAnswer",
      "outputs": [
        {
          "internalType": "int8",
          "name": "",
          "type": "int8"
        }
      ],
      "stateMutability": "view",
      "type": "function"
    },
    {
      "inputs": [
        {
          "internalType": "uint256",
          "name": "_endTime",
          "type": "uint256"
        }
      ],
      "name": "timeValidate",
      "outputs": [
        {
          "internalType": "int8",
          "name": "",
          "type": "int8"
        }
      ],
      "stateMutability": "view",
      "type": "function"
    },
    {
      "inputs": [],
      "name": "welcomeBTYTokens",
      "outputs": [
        {
          "internalType": "uint256",
          "name": "",
          "type": "uint256"
        }
      ],
      "stateMutability": "view",
      "type": "function"
    },
    {
      "inputs": [
        {
          "internalType": "int256",
          "name": "_id",
          "type": "int256"
        },
        {
          "internalType": "uint256",
          "name": "_startTime",
          "type": "uint256"
        },
        {
          "internalType": "uint256",
          "name": "_endTime",
          "type": "uint256"
        },
        {
          "internalType": "uint8",
          "name": "_questAmount",
          "type": "uint8"
        },
        {
          "internalType": "uint256",
          "name": "_amountExperts",
          "type": "uint256"
        },
        {
          "internalType": "bool",
          "name": "_calculateExperts",
          "type": "bool"
        },
        {
          "internalType": "address payable",
          "name": "_host",
          "type": "address"
        },
        {
          "internalType": "bool",
          "name": "_premium",
          "type": "bool"
        },
        {
          "internalType": "uint256",
          "name": "_amountPremiumEvent",
          "type": "uint256"
        }
      ],
      "name": "newEvent",
      "outputs": [],
      "stateMutability": "payable",
      "type": "function"
    },
    {
      "inputs": [
        {
          "internalType": "address payable",
          "name": "_advisor",
          "type": "address"
        },
        {
          "internalType": "int256",
          "name": "_id",
          "type": "int256"
        }
      ],
      "name": "addAdvisor",
      "outputs": [],
      "stateMutability": "nonpayable",
      "type": "function"
    },
    {
      "inputs": [
        {
          "internalType": "int256",
          "name": "_id",
          "type": "int256"
        },
        {
          "internalType": "uint8",
          "name": "_whichAnswer",
          "type": "uint8"
        },
        {
          "internalType": "uint256",
          "name": "_amount",
          "type": "uint256"
        },
        {
          "internalType": "address payable",
          "name": "_playerWallet",
          "type": "address"
        },
        {
          "internalType": "int256",
          "name": "_playerId",
          "type": "int256"
        },
        {
          "internalType": "uint8",
          "name": "_referrersDeep",
          "type": "uint8"
        }
      ],
      "name": "setAnswer",
      "outputs": [],
      "stateMutability": "payable",
      "type": "function"
    },
    {
      "inputs": [
        {
          "internalType": "string",
          "name": "_key",
          "type": "string"
        },
        {
          "internalType": "address payable[]",
          "name": "_referrers",
          "type": "address[]"
        }
      ],
      "name": "setReferrers",
      "outputs": [],
      "stateMutability": "nonpayable",
      "type": "function"
    },
    {
      "inputs": [
        {
          "internalType": "int256",
          "name": "_id",
          "type": "int256"
        },
        {
          "internalType": "uint8",
          "name": "_whichAnswer",
          "type": "uint8"
        },
        {
          "internalType": "address payable",
          "name": "_expertWallet",
          "type": "address"
        },
        {
          "internalType": "int256",
          "name": "_reputation",
          "type": "int256"
        }
      ],
      "name": "setValidator",
      "outputs": [],
      "stateMutability": "payable",
      "type": "function"
    },
    {
      "inputs": [
        {
          "internalType": "uint256",
          "name": "_amount",
          "type": "uint256"
        },
        {
          "internalType": "int256",
          "name": "_id",
          "type": "int256"
        }
      ],
      "name": "setActiveExpertsFromOracl",
      "outputs": [],
      "stateMutability": "nonpayable",
      "type": "function"
    }
  ],
  "bytecode": "0x6080604052600a600255600460035560016004556001600555600a60065560046007556002600855600f6009556002600a556001600b556032600c55605a600d55604b600e55600a600f5568056bc75e2d631000006010556001601155678ac7230489e80000601255600a601455600a60155560056017556002601955662386f26fc10000601c553480156200009457600080fd5b5060405162005d3338038062005d3383398181016040526040811015620000ba57600080fd5b810190808051906020019092919080519060200190929190505050818133601360006101000a81548173ffffffffffffffffffffffffffffffffffffffff021916908373ffffffffffffffffffffffffffffffffffffffff16021790555081601a60006101000a81548173ffffffffffffffffffffffffffffffffffffffff021916908373ffffffffffffffffffffffffffffffffffffffff16021790555080601b60006101000a81548173ffffffffffffffffffffffffffffffffffffffff021916908373ffffffffffffffffffffffffffffffffffffffff16021790555050505050615b8580620001ae6000396000f3fe6080604052600436106102c95760003560e01c8063896aa7a411610175578063b44901e8116100dc578063dd3c228311610095578063e1dcc4091161006f578063e1dcc40914610f83578063e79f365d14610fae578063ef99e09914610fe9578063f7ec585114611014576102c9565b8063dd3c228314610ef2578063df18581714610f2d578063e1755c6a14610f58576102c9565b8063b44901e814610db6578063c12c8c4614610de1578063c369085e14610e0c578063ce44553c14610e47578063d7a86da714610e8c578063dba8fe8714610ec7576102c9565b80639336e8fd1161012e5780639336e8fd14610c325780639580de6714610c6d578063a03c669714610ca8578063aaa3091e14610ce3578063af9ace4514610d46578063b1642b5014610d71576102c9565b8063896aa7a414610aa35780638a9dbda714610ace5780638bd6aefb14610af95780638da5cb5b14610b755780638fc8bc4214610bb6578063903a19cf14610be1576102c9565b80634a30062b1161023457806373e258ac116101ed57806378691f16116101c757806378691f16146109205780637dbb9dfa14610961578063802cc34c146109fd57806388d9dd4914610a3e576102c9565b806373e258ac146107f8578063769c489814610823578063786508c5146108f5576102c9565b80634a30062b14610637578063506d05cf1461067c57806353bdb062146106bd57806354f6db741461071857806355e8415814610774578063622198661461079f576102c9565b8063246fe64711610286578063246fe647146104f857806324beedd31461054a57806327e53717146105755780632c316d05146105a05780632e63e452146105cb5780633467f697146105f6576102c9565b8063134c3b07146102ce57806315cfe419146102f95780631882efe01461032457806319d6b7d8146104415780631c4083571461047c57806324045aad146104a7575b600080fd5b3480156102da57600080fd5b506102e361103f565b6040518082815260200191505060405180910390f35b34801561030557600080fd5b5061030e611045565b6040518082815260200191505060405180910390f35b34801561033057600080fd5b5061043f6004803603604081101561034757600080fd5b810190808035906020019064010000000081111561036457600080fd5b82018360208201111561037657600080fd5b8035906020019184600183028401116401000000008311171561039857600080fd5b91908080601f016020809104026020016040519081016040528093929190818152602001838380828437600081840152601f19601f820116905080830192505050505050509192919290803590602001906401000000008111156103fb57600080fd5b82018360208201111561040d57600080fd5b8035906020019184602083028401116401000000008311171561042f57600080fd5b909192939192939050505061104b565b005b34801561044d57600080fd5b5061047a6004803603602081101561046457600080fd5b8101908080359060200190929190505050611172565b005b34801561048857600080fd5b50610491611222565b6040518082815260200191505060405180910390f35b3480156104b357600080fd5b506104f6600480360360208110156104ca57600080fd5b81019080803573ffffffffffffffffffffffffffffffffffffffff169060200190929190505050611228565b005b34801561050457600080fd5b506105316004803603602081101561051b57600080fd5b8101908080359060200190929190505050611312565b604051808260000b815260200191505060405180910390f35b34801561055657600080fd5b5061055f611330565b6040518082815260200191505060405180910390f35b34801561058157600080fd5b5061058a611336565b6040518082815260200191505060405180910390f35b3480156105ac57600080fd5b506105b561133c565b6040518082815260200191505060405180910390f35b3480156105d757600080fd5b506105e0611342565b6040518082815260200191505060405180910390f35b34801561060257600080fd5b5061060b611348565b604051808273ffffffffffffffffffffffffffffffffffffffff16815260200191505060405180910390f35b34801561064357600080fd5b5061067a6004803603604081101561065a57600080fd5b81019080803590602001909291908035906020019092919050505061136e565b005b34801561068857600080fd5b50610691611432565b604051808273ffffffffffffffffffffffffffffffffffffffff16815260200191505060405180910390f35b3480156106c957600080fd5b50610716600480360360408110156106e057600080fd5b81019080803573ffffffffffffffffffffffffffffffffffffffff16906020019092919080359060200190929190505050611458565b005b34801561072457600080fd5b5061075b6004803603604081101561073b57600080fd5b810190808035906020019092919080359060200190929190505050611556565b604051808260000b815260200191505060405180910390f35b34801561078057600080fd5b50610789611588565b6040518082815260200191505060405180910390f35b3480156107ab57600080fd5b506107e2600480360360408110156107c257600080fd5b81019080803590602001909291908035906020019092919050505061158e565b6040518082815260200191505060405180910390f35b34801561080457600080fd5b5061080d6115a5565b6040518082815260200191505060405180910390f35b34801561082f57600080fd5b506108f36004803603604081101561084657600080fd5b81019080803590602001909291908035906020019064010000000081111561086d57600080fd5b82018360208201111561087f57600080fd5b803590602001918460018302840111640100000000831117156108a157600080fd5b91908080601f016020809104026020016040519081016040528093929190818152602001838380828437600081840152601f19601f8201169050808301925050505050505091929192905050506115ab565b005b34801561090157600080fd5b5061090a61165f565b6040518082815260200191505060405180910390f35b34801561092c57600080fd5b50610935611665565b604051808273ffffffffffffffffffffffffffffffffffffffff16815260200191505060405180910390f35b6109fb600480360361012081101561097857600080fd5b81019080803590602001909291908035906020019092919080359060200190929190803560ff16906020019092919080359060200190929190803515159060200190929190803573ffffffffffffffffffffffffffffffffffffffff1690602001909291908035151590602001909291908035906020019092919050505061168b565b005b348015610a0957600080fd5b50610a12611b1f565b604051808273ffffffffffffffffffffffffffffffffffffffff16815260200191505060405180910390f35b610aa160048036036080811015610a5457600080fd5b8101908080359060200190929190803560ff169060200190929190803573ffffffffffffffffffffffffffffffffffffffff16906020019092919080359060200190929190505050611b45565b005b348015610aaf57600080fd5b50610ab861213f565b6040518082815260200191505060405180910390f35b348015610ada57600080fd5b50610ae3612145565b6040518082815260200191505060405180910390f35b610b73600480360360c0811015610b0f57600080fd5b8101908080359060200190929190803560ff16906020019092919080359060200190929190803573ffffffffffffffffffffffffffffffffffffffff16906020019092919080359060200190929190803560ff16906020019092919050505061214b565b005b348015610b8157600080fd5b50610b8a612974565b604051808273ffffffffffffffffffffffffffffffffffffffff16815260200191505060405180910390f35b348015610bc257600080fd5b50610bcb61299a565b6040518082815260200191505060405180910390f35b348015610bed57600080fd5b50610c3060048036036020811015610c0457600080fd5b81019080803573ffffffffffffffffffffffffffffffffffffffff1690602001909291905050506129a0565b005b348015610c3e57600080fd5b50610c6b60048036036020811015610c5557600080fd5b8101908080359060200190929190505050612a8a565b005b348015610c7957600080fd5b50610ca660048036036020811015610c9057600080fd5b8101908080359060200190929190505050612b3a565b005b348015610cb457600080fd5b50610ce160048036036020811015610ccb57600080fd5b8101908080359060200190929190505050612bea565b005b348015610cef57600080fd5b50610d3060048036036060811015610d0657600080fd5b81019080803590602001909291908035906020019092919080359060200190929190505050612c9a565b6040518082815260200191505060405180910390f35b348015610d5257600080fd5b50610d5b612ce1565b6040518082815260200191505060405180910390f35b348015610d7d57600080fd5b50610db460048036036040811015610d9457600080fd5b810190808035906020019092919080359060200190929190505050612ce7565b005b348015610dc257600080fd5b50610dcb612d9f565b6040518082815260200191505060405180910390f35b348015610ded57600080fd5b50610df6612da5565b6040518082815260200191505060405180910390f35b348015610e1857600080fd5b50610e4560048036036020811015610e2f57600080fd5b8101908080359060200190929190505050612dab565b005b348015610e5357600080fd5b50610e8a60048036036040811015610e6a57600080fd5b810190808035906020019092919080359060200190929190505050612e5b565b005b348015610e9857600080fd5b50610ec560048036036020811015610eaf57600080fd5b8101908080359060200190929190505050613560565b005b348015610ed357600080fd5b50610edc613610565b6040518082815260200191505060405180910390f35b348015610efe57600080fd5b50610f2b60048036036020811015610f1557600080fd5b8101908080359060200190929190505050613616565b005b348015610f3957600080fd5b50610f426136c6565b6040518082815260200191505060405180910390f35b348015610f6457600080fd5b50610f6d6136cc565b6040518082815260200191505060405180910390f35b348015610f8f57600080fd5b50610f986136d2565b6040518082815260200191505060405180910390f35b348015610fba57600080fd5b50610fe760048036036020811015610fd157600080fd5b81019080803590602001909291905050506136d8565b005b348015610ff557600080fd5b50610ffe613899565b6040518082815260200191505060405180910390f35b34801561102057600080fd5b506110296138a7565b6040518082815260200191505060405180910390f35b600e5481565b60115481565b601360009054906101000a900473ffffffffffffffffffffffffffffffffffffffff1673ffffffffffffffffffffffffffffffffffffffff163373ffffffffffffffffffffffffffffffffffffffff16146110f1576040517f08c379a0000000000000000000000000000000000000000000000000000000008152600401808060200182810382526031815260200180615b1f6031913960400191505060405180910390fd5b81816001856040518082805190602001908083835b602083106111295780518252602082019150602081019050602083039250611106565b6001836020036101000a0380198251168184511680821785525050505050509050019150509081526020016040518091039020600001919061116c9291906158de565b50505050565b601360009054906101000a900473ffffffffffffffffffffffffffffffffffffffff1673ffffffffffffffffffffffffffffffffffffffff163373ffffffffffffffffffffffffffffffffffffffff1614611218576040517f08c379a0000000000000000000000000000000000000000000000000000000008152600401808060200182810382526031815260200180615b1f6031913960400191505060405180910390fd5b8060128190555050565b60145481565b601360009054906101000a900473ffffffffffffffffffffffffffffffffffffffff1673ffffffffffffffffffffffffffffffffffffffff163373ffffffffffffffffffffffffffffffffffffffff16146112ce576040517f08c379a0000000000000000000000000000000000000000000000000000000008152600401808060200182810382526031815260200180615b1f6031913960400191505060405180910390fd5b80601860006101000a81548173ffffffffffffffffffffffffffffffffffffffff021916908373ffffffffffffffffffffffffffffffffffffffff16021790555050565b60008082420312611326576000905061132b565b600190505b919050565b60195481565b600d5481565b60085481565b60125481565b601860009054906101000a900473ffffffffffffffffffffffffffffffffffffffff1681565b601360009054906101000a900473ffffffffffffffffffffffffffffffffffffffff1673ffffffffffffffffffffffffffffffffffffffff163373ffffffffffffffffffffffffffffffffffffffff1614611414576040517f08c379a0000000000000000000000000000000000000000000000000000000008152600401808060200182810382526031815260200180615b1f6031913960400191505060405180910390fd5b81600080838152602001908152602001600020600901819055505050565b601b60009054906101000a900473ffffffffffffffffffffffffffffffffffffffff1681565b601360009054906101000a900473ffffffffffffffffffffffffffffffffffffffff1673ffffffffffffffffffffffffffffffffffffffff163373ffffffffffffffffffffffffffffffffffffffff16146114fe576040517f08c379a0000000000000000000000000000000000000000000000000000000008152600401808060200182810382526031815260200180615b1f6031913960400191505060405180910390fd5b81600080838152602001908152602001600020600b0160006101000a81548173ffffffffffffffffffffffffffffffffffffffff021916908373ffffffffffffffffffffffffffffffffffffffff1602179055505050565b6000808342031261157d576000428303126115745760009050611582565b60029050611582565b600190505b92915050565b60055481565b600060648383028161159c57fe5b04905092915050565b600c5481565b601360009054906101000a900473ffffffffffffffffffffffffffffffffffffffff1673ffffffffffffffffffffffffffffffffffffffff163373ffffffffffffffffffffffffffffffffffffffff1614611651576040517f08c379a0000000000000000000000000000000000000000000000000000000008152600401808060200182810382526031815260200180615b1f6031913960400191505060405180910390fd5b61165b82826138ad565b5050565b600b5481565b601a60009054906101000a900473ffffffffffffffffffffffffffffffffffffffff1681565b601360009054906101000a900473ffffffffffffffffffffffffffffffffffffffff1673ffffffffffffffffffffffffffffffffffffffff163373ffffffffffffffffffffffffffffffffffffffff1614611731576040517f08c379a0000000000000000000000000000000000000000000000000000000008152600401808060200182810382526031815260200180615b1f6031913960400191505060405180910390fd5b886000808b815260200190815260200160002060000181905550876000808b815260200190815260200160002060010181905550866000808b815260200190815260200160002060020181905550856000808b815260200190815260200160002060030160006101000a81548160ff021916908360ff160217905550846000808b815260200190815260200160002060090181905550826000808b8152602001908152602001600020600a0160016101000a81548173ffffffffffffffffffffffffffffffffffffffff021916908373ffffffffffffffffffffffffffffffffffffffff160217905550836000808b8152602001908152602001600020600a0160006101000a81548160ff021916908315150217905550816000808b815260200190815260200160002060100160016101000a81548160ff0219169083151502179055508115611b145780601b60009054906101000a900473ffffffffffffffffffffffffffffffffffffffff1673ffffffffffffffffffffffffffffffffffffffff1663dd62ed3e85306040518363ffffffff1660e01b8152600401808373ffffffffffffffffffffffffffffffffffffffff1681526020018273ffffffffffffffffffffffffffffffffffffffff1681526020019250505060206040518083038186803b15801561192357600080fd5b505afa158015611937573d6000803e3d6000fd5b505050506040513d602081101561194d57600080fd5b810190808051906020019092919050505010156119d2576040517f08c379a000000000000000000000000000000000000000000000000000000000815260040180806020018281038252600f8152602001807f416c6c6f77616e6365206572726f72000000000000000000000000000000000081525060200191505060405180910390fd5b601b60009054906101000a900473ffffffffffffffffffffffffffffffffffffffff1673ffffffffffffffffffffffffffffffffffffffff166323b872dd8430846040518463ffffffff1660e01b8152600401808473ffffffffffffffffffffffffffffffffffffffff1681526020018373ffffffffffffffffffffffffffffffffffffffff1681526020018281526020019350505050602060405180830381600087803b158015611a8357600080fd5b505af1158015611a97573d6000803e3d6000fd5b505050506040513d6020811015611aad57600080fd5b8101908080519060200190929190505050611b13576040517f08c379a0000000000000000000000000000000000000000000000000000000008152600401808060200182810382526027815260200180615a0d6027913960400191505060405180910390fd5b5b505050505050505050565b601660009054906101000a900473ffffffffffffffffffffffffffffffffffffffff1681565b601360009054906101000a900473ffffffffffffffffffffffffffffffffffffffff1673ffffffffffffffffffffffffffffffffffffffff163373ffffffffffffffffffffffffffffffffffffffff1614611beb576040517f08c379a0000000000000000000000000000000000000000000000000000000008152600401808060200182810382526031815260200180615b1f6031913960400191505060405180910390fd5b6000611c0b60008087815260200190815260200160002060020154611312565b60000b14611c81576040517f08c379a00000000000000000000000000000000000000000000000000000000081526004018080602001828103825260118152602001807f54696d65206973206e6f742076616c696400000000000000000000000000000081525060200191505060405180910390fd5b6001151560008086815260200190815260200160002060050160008473ffffffffffffffffffffffffffffffffffffffff1673ffffffffffffffffffffffffffffffffffffffff16815260200190815260200160002060009054906101000a900460ff1615151415611d3e576040517f08c379a0000000000000000000000000000000000000000000000000000000008152600401808060200182810382526021815260200180615a346021913960400191505060405180910390fd5b6001151560008086815260200190815260200160002060100160009054906101000a900460ff1615151415611ddb576040517f08c379a00000000000000000000000000000000000000000000000000000000081526004018080602001828103825260118152602001807f6576656e7420697320726576657274656400000000000000000000000000000081525060200191505060405180910390fd5b6001151560008086815260200190815260200160002060120160009054906101000a900460ff1615151415611e78576040517f08c379a000000000000000000000000000000000000000000000000000000000815260040180806020018281038252600f8152602001807f6576656e742069732066696e697368000000000000000000000000000000000081525060200191505060405180910390fd5b6000806000868152602001908152602001600020600601541415611f3957600160008086815260200190815260200160002060100160006101000a81548160ff0219169083151502179055507f847521552ad126e64c52b14640c804737bd67f2b6674309b332d1e5b17f857d18460405180828152602001806020018281038252601c8152602001807f646f206e6f74206861766520706c6179657273206f6e206576656e74000000008152506020019250505060405180910390a1612139565b600080858152602001908152602001600020600a0160009054906101000a900460ff168015611f7d5750600080600086815260200190815260200160002060090154145b15611fdb577f7d056f7ad1cec2447e1046080437b34a925f7ddd6099486d01c4e0e01bd51a8c8460008087815260200190815260200160002060060154604051808381526020018281526020019250505060405180910390a1612138565b611fe361597e565b60405180604001604052808473ffffffffffffffffffffffffffffffffffffffff16815260200183815250905060008086815260200190815260200160002060070160008560ff16815260200190815260200160002081908060018154018082558091505060019003906000526020600020906002020160009091909190915060008201518160000160006101000a81548173ffffffffffffffffffffffffffffffffffffffff021916908373ffffffffffffffffffffffffffffffffffffffff1602179055506020820151816001015550506000600160008088815260200190815260200160002060080154019050806000808881526020019081526020016000206008018190555060008087815260200190815260200160002060090154811480156121265750600080600088815260200190815260200160002060090154115b1561213557612134866136d8565b5b50505b5b50505050565b60075481565b60025481565b601360009054906101000a900473ffffffffffffffffffffffffffffffffffffffff1673ffffffffffffffffffffffffffffffffffffffff163373ffffffffffffffffffffffffffffffffffffffff16146121f1576040517f08c379a0000000000000000000000000000000000000000000000000000000008152600401808060200182810382526031815260200180615b1f6031913960400191505060405180910390fd5b6000612227600080898152602001908152602001600020600101546000808a815260200190815260200160002060020154611556565b60000b1461229d576040517f08c379a00000000000000000000000000000000000000000000000000000000081526004018080602001828103825260118152602001807f54696d65206973206e6f742076616c696400000000000000000000000000000081525060200191505060405180910390fd5b6001151560008088815260200190815260200160002060100160009054906101000a900460ff161515141561233a576040517f08c379a00000000000000000000000000000000000000000000000000000000081526004018080602001828103825260118152602001807f6576656e7420697320726576657274656400000000000000000000000000000081525060200191505060405180910390fd5b6001151560008088815260200190815260200160002060120160009054906101000a900460ff16151514156123d7576040517f08c379a000000000000000000000000000000000000000000000000000000000815260040180806020018281038252600f8152602001807f6576656e742069732066696e697368000000000000000000000000000000000081525060200191505060405180910390fd5b6001151560008088815260200190815260200160002060050160008573ffffffffffffffffffffffffffffffffffffffff1673ffffffffffffffffffffffffffffffffffffffff16815260200190815260200160002060009054906101000a900460ff1615151415612494576040517f08c379a0000000000000000000000000000000000000000000000000000000008152600401808060200182810382526021815260200180615a346021913960400191505060405180910390fd5b601c548410156124ef576040517f08c379a0000000000000000000000000000000000000000000000000000000008152600401808060200182810382526031815260200180615a9e6031913960400191505060405180910390fd5b6124f76159ae565b60405180608001604052808481526020018573ffffffffffffffffffffffffffffffffffffffff1681526020018681526020018360ff16815250905060008088815260200190815260200160002060040160008760ff1681526020019081526020016000208190806001815401808255809150506001900390600052602060002090600402016000909190919091506000820151816000015560208201518160010160006101000a81548173ffffffffffffffffffffffffffffffffffffffff021916908373ffffffffffffffffffffffffffffffffffffffff1602179055506040820151816002015560608201518160030160006101000a81548160ff021916908360ff1602179055505050600160008089815260200190815260200160002060050160008673ffffffffffffffffffffffffffffffffffffffff1673ffffffffffffffffffffffffffffffffffffffff16815260200190815260200160002060006101000a81548160ff02191690831515021790555060016000808981526020019081526020016000206006016000828254019250508190555084600080898152602001908152602001600020600d016000828254019250508190555084601a60009054906101000a900473ffffffffffffffffffffffffffffffffffffffff1673ffffffffffffffffffffffffffffffffffffffff1663dd62ed3e86306040518363ffffffff1660e01b8152600401808373ffffffffffffffffffffffffffffffffffffffff1681526020018273ffffffffffffffffffffffffffffffffffffffff1681526020019250505060206040518083038186803b15801561275e57600080fd5b505afa158015612772573d6000803e3d6000fd5b505050506040513d602081101561278857600080fd5b8101908080519060200190929190505050101561280d576040517f08c379a000000000000000000000000000000000000000000000000000000000815260040180806020018281038252600f8152602001807f416c6c6f77616e6365206572726f72000000000000000000000000000000000081525060200191505060405180910390fd5b601a60009054906101000a900473ffffffffffffffffffffffffffffffffffffffff1673ffffffffffffffffffffffffffffffffffffffff166323b872dd8530886040518463ffffffff1660e01b8152600401808473ffffffffffffffffffffffffffffffffffffffff1681526020018373ffffffffffffffffffffffffffffffffffffffff1681526020018281526020019350505050602060405180830381600087803b1580156128be57600080fd5b505af11580156128d2573d6000803e3d6000fd5b505050506040513d60208110156128e857600080fd5b810190808051906020019092919050505061296b576040517f08c379a000000000000000000000000000000000000000000000000000000000815260040180806020018281038252601f8152602001807f5472616e73666572204254592066726f6d20706c6179657273206572726f720081525060200191505060405180910390fd5b50505050505050565b601360009054906101000a900473ffffffffffffffffffffffffffffffffffffffff1681565b60035481565b601360009054906101000a900473ffffffffffffffffffffffffffffffffffffffff1673ffffffffffffffffffffffffffffffffffffffff163373ffffffffffffffffffffffffffffffffffffffff1614612a46576040517f08c379a0000000000000000000000000000000000000000000000000000000008152600401808060200182810382526031815260200180615b1f6031913960400191505060405180910390fd5b80601660006101000a81548173ffffffffffffffffffffffffffffffffffffffff021916908373ffffffffffffffffffffffffffffffffffffffff16021790555050565b601360009054906101000a900473ffffffffffffffffffffffffffffffffffffffff1673ffffffffffffffffffffffffffffffffffffffff163373ffffffffffffffffffffffffffffffffffffffff1614612b30576040517f08c379a0000000000000000000000000000000000000000000000000000000008152600401808060200182810382526031815260200180615b1f6031913960400191505060405180910390fd5b80600c8190555050565b601360009054906101000a900473ffffffffffffffffffffffffffffffffffffffff1673ffffffffffffffffffffffffffffffffffffffff163373ffffffffffffffffffffffffffffffffffffffff1614612be0576040517f08c379a0000000000000000000000000000000000000000000000000000000008152600401808060200182810382526031815260200180615b1f6031913960400191505060405180910390fd5b8060078190555050565b601360009054906101000a900473ffffffffffffffffffffffffffffffffffffffff1673ffffffffffffffffffffffffffffffffffffffff163373ffffffffffffffffffffffffffffffffffffffff1614612c90576040517f08c379a0000000000000000000000000000000000000000000000000000000008152600401808060200182810382526031815260200180615b1f6031913960400191505060405180910390fd5b80600f8190555050565b60008060648560640381612caa57fe5b0490506000858581612cb857fe5b0490506064670de0b6b3a7640000858489850202020281612cd557fe5b04925050509392505050565b60065481565b601360009054906101000a900473ffffffffffffffffffffffffffffffffffffffff1673ffffffffffffffffffffffffffffffffffffffff163373ffffffffffffffffffffffffffffffffffffffff1614612d8d576040517f08c379a0000000000000000000000000000000000000000000000000000000008152600401808060200182810382526031815260200180615b1f6031913960400191505060405180910390fd5b81600281905550806003819055505050565b600f5481565b60045481565b601360009054906101000a900473ffffffffffffffffffffffffffffffffffffffff1673ffffffffffffffffffffffffffffffffffffffff163373ffffffffffffffffffffffffffffffffffffffff1614612e51576040517f08c379a0000000000000000000000000000000000000000000000000000000008152600401808060200182810382526031815260200180615b1f6031913960400191505060405180910390fd5b8060118190555050565b601360009054906101000a900473ffffffffffffffffffffffffffffffffffffffff1673ffffffffffffffffffffffffffffffffffffffff163373ffffffffffffffffffffffffffffffffffffffff1614612f01576040517f08c379a0000000000000000000000000000000000000000000000000000000008152600401808060200182810382526031815260200180615b1f6031913960400191505060405180910390fd5b80600080848152602001908152602001600020600f0181905550601a60009054906101000a900473ffffffffffffffffffffffffffffffffffffffff1673ffffffffffffffffffffffffffffffffffffffff1663341ce1fc601360009054906101000a900473ffffffffffffffffffffffffffffffffffffffff16612f888460145461158e565b6040518363ffffffff1660e01b8152600401808373ffffffffffffffffffffffffffffffffffffffff16815260200182815260200192505050602060405180830381600087803b158015612fdb57600080fd5b505af1158015612fef573d6000803e3d6000fd5b505050506040513d602081101561300557600080fd5b8101908080519060200190929190505050613088576040517f08c379a000000000000000000000000000000000000000000000000000000000815260040180806020018281038252601e8152602001807f4d696e7420746f20446576656c6f706d656e742046756e64206572726f72000081525060200191505060405180910390fd5b60008083815260200190815260200160002060100160019054906101000a900460ff161561321657601b60009054906101000a900473ffffffffffffffffffffffffffffffffffffffff1673ffffffffffffffffffffffffffffffffffffffff1663a9059cbb601360009054906101000a900473ffffffffffffffffffffffffffffffffffffffff166131326000808781526020019081526020016000206011015460155461158e565b6040518363ffffffff1660e01b8152600401808373ffffffffffffffffffffffffffffffffffffffff16815260200182815260200192505050602060405180830381600087803b15801561318557600080fd5b505af1158015613199573d6000803e3d6000fd5b505050506040513d60208110156131af57600080fd5b8101908080519060200190929190505050613215576040517f08c379a000000000000000000000000000000000000000000000000000000000815260040180806020018281038252602c815260200180615af3602c913960400191505060405180910390fd5b5b60008073ffffffffffffffffffffffffffffffffffffffff16600080858152602001908152602001600020600b0160009054906101000a900473ffffffffffffffffffffffffffffffffffffffff1673ffffffffffffffffffffffffffffffffffffffff16141561329157600a546005546017540101613295565b6017545b9050601a60009054906101000a900473ffffffffffffffffffffffffffffffffffffffff1673ffffffffffffffffffffffffffffffffffffffff1663341ce1fc601660009054906101000a900473ffffffffffffffffffffffffffffffffffffffff16613302858561158e565b6040518363ffffffff1660e01b8152600401808373ffffffffffffffffffffffffffffffffffffffff16815260200182815260200192505050602060405180830381600087803b15801561335557600080fd5b505af1158015613369573d6000803e3d6000fd5b505050506040513d602081101561337f57600080fd5b81019080805190602001909291905050506133e5576040517f08c379a0000000000000000000000000000000000000000000000000000000008152600401808060200182810382526026815260200180615a786026913960400191505060405180910390fd5b601a60009054906101000a900473ffffffffffffffffffffffffffffffffffffffff1673ffffffffffffffffffffffffffffffffffffffff1663341ce1fc601860009054906101000a900473ffffffffffffffffffffffffffffffffffffffff166134528560195461158e565b6040518363ffffffff1660e01b8152600401808373ffffffffffffffffffffffffffffffffffffffff16815260200182815260200192505050602060405180830381600087803b1580156134a557600080fd5b505af11580156134b9573d6000803e3d6000fd5b505050506040513d60208110156134cf57600080fd5b8101908080519060200190929190505050613552576040517f08c379a00000000000000000000000000000000000000000000000000000000081526004018080602001828103825260168152602001807f4d696e20746f204d6f64657261746f72732046756e640000000000000000000081525060200191505060405180910390fd5b61355b83613bdf565b505050565b601360009054906101000a900473ffffffffffffffffffffffffffffffffffffffff1673ffffffffffffffffffffffffffffffffffffffff163373ffffffffffffffffffffffffffffffffffffffff1614613606576040517f08c379a0000000000000000000000000000000000000000000000000000000008152600401808060200182810382526031815260200180615b1f6031913960400191505060405180910390fd5b8060108190555050565b60095481565b601360009054906101000a900473ffffffffffffffffffffffffffffffffffffffff1673ffffffffffffffffffffffffffffffffffffffff163373ffffffffffffffffffffffffffffffffffffffff16146136bc576040517f08c379a0000000000000000000000000000000000000000000000000000000008152600401808060200182810382526031815260200180615b1f6031913960400191505060405180910390fd5b8060148190555050565b60105481565b60175481565b60155481565b600080600080600090505b60008086815260200190815260200160002060030160009054906101000a900460ff1660ff168160ff1610156137f3578360008087815260200190815260200160002060070160008360ff1681526020019081526020016000208054905011156137815760008086815260200190815260200160002060070160008260ff1681526020019081526020016000208054905093508060ff1691506137e6565b8360008087815260200190815260200160002060070160008360ff1681526020019081526020016000208054905014156137e55760008086815260200190815260200160002060070160008260ff1681526020019081526020016000208054905092505b5b80806001019150506136e3565b508282141561386e57600160008086815260200190815260200160002060100160006101000a81548160ff021916908315150217905550613869846040518060400160405280601581526020017f6475706c6963617465732076616c696461746f727300000000000000000000008152506138ad565b613893565b80600080868152602001908152602001600020600c018190555061389281856145e0565b5b50505050565b6000600f5460125402905090565b600a5481565b60005b60008084815260200190815260200160002060030160009054906101000a900460ff1660ff168160ff161015613b085760005b60008085815260200190815260200160002060040160008360ff168152602001908152602001600020805490508160ff161015613afa57601a60009054906101000a900473ffffffffffffffffffffffffffffffffffffffff1673ffffffffffffffffffffffffffffffffffffffff1663a9059cbb60008087815260200190815260200160002060040160008560ff1681526020019081526020016000208360ff168154811061398f57fe5b906000526020600020906004020160010160009054906101000a900473ffffffffffffffffffffffffffffffffffffffff1660008088815260200190815260200160002060040160008660ff1681526020019081526020016000208460ff16815481106139f857fe5b9060005260206000209060040201600201546040518363ffffffff1660e01b8152600401808373ffffffffffffffffffffffffffffffffffffffff16815260200182815260200192505050602060405180830381600087803b158015613a5d57600080fd5b505af1158015613a71573d6000803e3d6000fd5b505050506040513d6020811015613a8757600080fd5b8101908080519060200190929190505050613aed576040517f08c379a0000000000000000000000000000000000000000000000000000000008152600401808060200182810382526024815260200180615acf6024913960400191505060405180910390fd5b80806001019150506138e3565b5080806001019150506138b0565b50600160008084815260200190815260200160002060100160006101000a81548160ff0219169083151502179055507f847521552ad126e64c52b14640c804737bd67f2b6674309b332d1e5b17f857d182826040518083815260200180602001828103825283818151815260200191508051906020019080838360005b83811015613ba0578082015181840152602081019050613b85565b50505050905090810190601f168015613bcd5780820380516001836020036101000a031916815260200191505b50935050505060405180910390a15050565b600073ffffffffffffffffffffffffffffffffffffffff16600080838152602001908152602001600020600b0160009054906101000a900473ffffffffffffffffffffffffffffffffffffffff1673ffffffffffffffffffffffffffffffffffffffff16146142a957601a60009054906101000a900473ffffffffffffffffffffffffffffffffffffffff1673ffffffffffffffffffffffffffffffffffffffff1663341ce1fc600080848152602001908152602001600020600a0160019054906101000a900473ffffffffffffffffffffffffffffffffffffffff16613ce1600080868152602001908152602001600020600f01546005546002540161158e565b6040518363ffffffff1660e01b8152600401808373ffffffffffffffffffffffffffffffffffffffff16815260200182815260200192505050602060405180830381600087803b158015613d3457600080fd5b505af1158015613d48573d6000803e3d6000fd5b505050506040513d6020811015613d5e57600080fd5b8101908080519060200190929190505050613de1576040517f08c379a000000000000000000000000000000000000000000000000000000000815260040180806020018281038252601e8152602001807f4d696e20746f20486f737420776974682061647669736f72206572726f72000081525060200191505060405180910390fd5b601a60009054906101000a900473ffffffffffffffffffffffffffffffffffffffff1673ffffffffffffffffffffffffffffffffffffffff1663341ce1fc600080848152602001908152602001600020600b0160009054906101000a900473ffffffffffffffffffffffffffffffffffffffff16613e76600080868152602001908152602001600020600f0154600a5461158e565b6040518363ffffffff1660e01b8152600401808373ffffffffffffffffffffffffffffffffffffffff16815260200182815260200192505050602060405180830381600087803b158015613ec957600080fd5b505af1158015613edd573d6000803e3d6000fd5b505050506040513d6020811015613ef357600080fd5b8101908080519060200190929190505050613f76576040517f08c379a00000000000000000000000000000000000000000000000000000000081526004018080602001828103825260158152602001807f4d696e7420746f2041647669736f72206572726f72000000000000000000000081525060200191505060405180910390fd5b601a60009054906101000a900473ffffffffffffffffffffffffffffffffffffffff1673ffffffffffffffffffffffffffffffffffffffff1663a9059cbb600080848152602001908152602001600020600a0160019054906101000a900473ffffffffffffffffffffffffffffffffffffffff1661400f600080868152602001908152602001600020600d01546004546003540161158e565b6040518363ffffffff1660e01b8152600401808373ffffffffffffffffffffffffffffffffffffffff16815260200182815260200192505050602060405180830381600087803b15801561406257600080fd5b505af1158015614076573d6000803e3d6000fd5b505050506040513d602081101561408c57600080fd5b810190808051906020019092919050505061410f576040517f08c379a000000000000000000000000000000000000000000000000000000000815260040180806020018281038252601e8152602001807f50617920746f20486f737420776974682061647669736f72206572726f72000081525060200191505060405180910390fd5b601a60009054906101000a900473ffffffffffffffffffffffffffffffffffffffff1673ffffffffffffffffffffffffffffffffffffffff1663a9059cbb600080848152602001908152602001600020600b0160009054906101000a900473ffffffffffffffffffffffffffffffffffffffff166141a4600080868152602001908152602001600020600d0154600b5461158e565b6040518363ffffffff1660e01b8152600401808373ffffffffffffffffffffffffffffffffffffffff16815260200182815260200192505050602060405180830381600087803b1580156141f757600080fd5b505af115801561420b573d6000803e3d6000fd5b505050506040513d602081101561422157600080fd5b81019080805190602001909291905050506142a4576040517f08c379a00000000000000000000000000000000000000000000000000000000081526004018080602001828103825260148152602001807f50617920746f2041647669736f72206572726f7200000000000000000000000081525060200191505060405180910390fd5b6145d4565b601a60009054906101000a900473ffffffffffffffffffffffffffffffffffffffff1673ffffffffffffffffffffffffffffffffffffffff1663341ce1fc600080848152602001908152602001600020600a0160019054906101000a900473ffffffffffffffffffffffffffffffffffffffff1661433e600080868152602001908152602001600020600f015460025461158e565b6040518363ffffffff1660e01b8152600401808373ffffffffffffffffffffffffffffffffffffffff16815260200182815260200192505050602060405180830381600087803b15801561439157600080fd5b505af11580156143a5573d6000803e3d6000fd5b505050506040513d60208110156143bb57600080fd5b810190808051906020019092919050505061443e576040517f08c379a00000000000000000000000000000000000000000000000000000000081526004018080602001828103825260128152602001807f4d696e7420746f20486f7374206572726f72000000000000000000000000000081525060200191505060405180910390fd5b601a60009054906101000a900473ffffffffffffffffffffffffffffffffffffffff1673ffffffffffffffffffffffffffffffffffffffff1663a9059cbb600080848152602001908152602001600020600a0160019054906101000a900473ffffffffffffffffffffffffffffffffffffffff166144d3600080868152602001908152602001600020600d015460035461158e565b6040518363ffffffff1660e01b8152600401808373ffffffffffffffffffffffffffffffffffffffff16815260200182815260200192505050602060405180830381600087803b15801561452657600080fd5b505af115801561453a573d6000803e3d6000fd5b505050506040513d602081101561455057600080fd5b81019080805190602001909291905050506145d3576040517f08c379a00000000000000000000000000000000000000000000000000000000081526004018080602001828103825260118152602001807f50617920746f20486f7374206572726f7200000000000000000000000000000081525060200191505060405180910390fd5b5b6145dd81614760565b50565b600080600080848152602001908152602001600020600401600085815260200190815260200160002080549050905060005b818160ff1610156146745760008085815260200190815260200160002060040160008681526020019081526020016000208160ff168154811061465157fe5b906000526020600020906004020160020154830192508080600101915050614612565b50600082600080868152602001908152602001600020600d015403905060008114156146de576146d9846040518060400160405280601d81526020017f706c61796572732063686f7365206f6e6c79206f6e6520616e737765720000008152506115ab565b614759565b80600080868152602001908152602001600020600e0181905550600061473160008087815260200190815260200160002060060154600080888152602001908152602001600020600d0154601154612c9a565b905080600080878152602001908152602001600020600f01819055506147578582612e5b565b505b5050505050565b600080600073ffffffffffffffffffffffffffffffffffffffff16600080858152602001908152602001600020600b0160009054906101000a900473ffffffffffffffffffffffffffffffffffffffff1673ffffffffffffffffffffffffffffffffffffffff1614156147d957600854600754016147dd565b6007545b905060005b6000808581526020019081526020016000206007016000806000878152602001908152602001600020600c01548152602001908152602001600020805490508160ff1610156148fa5760008060008681526020019081526020016000206007016000806000888152602001908152602001600020600c015481526020019081526020016000208260ff168154811061487657fe5b906000526020600020906002020160010154126148ed576000808581526020019081526020016000206007016000806000878152602001908152602001600020600c015481526020019081526020016000208160ff16815481106148d657fe5b906000526020600020906002020160010154830192505b80806001019150506147e2565b5060005b6000808581526020019081526020016000206007016000806000878152602001908152602001600020600c01548152602001908152602001600020805490508160ff161015614e9a5760008060008681526020019081526020016000206007016000806000888152602001908152602001600020600c015481526020019081526020016000208260ff168154811061499257fe5b906000526020600020906002020160010154905060008060008781526020019081526020016000206007016000806000898152602001908152602001600020600c015481526020019081526020016000208360ff16815481106149f157fe5b906000526020600020906002020160000160009054906101000a900473ffffffffffffffffffffffffffffffffffffffff16905060008212614e8b5760008583614a526000808b8152602001908152602001600020600f015460065461158e565b0281614a5a57fe5b049050601a60009054906101000a900473ffffffffffffffffffffffffffffffffffffffff1673ffffffffffffffffffffffffffffffffffffffff1663341ce1fc83836040518363ffffffff1660e01b8152600401808373ffffffffffffffffffffffffffffffffffffffff16815260200182815260200192505050602060405180830381600087803b158015614af057600080fd5b505af1158015614b04573d6000803e3d6000fd5b505050506040513d6020811015614b1a57600080fd5b8101908080519060200190929190505050614b9d576040517f08c379a00000000000000000000000000000000000000000000000000000000081526004018080602001828103825260158152602001807f4d696e7420746f2045787065727473206572726f72000000000000000000000081525060200191505060405180910390fd5b60008684614bc06000808c8152602001908152602001600020600d01548961158e565b0281614bc857fe5b049050601a60009054906101000a900473ffffffffffffffffffffffffffffffffffffffff1673ffffffffffffffffffffffffffffffffffffffff1663a9059cbb84836040518363ffffffff1660e01b8152600401808373ffffffffffffffffffffffffffffffffffffffff16815260200182815260200192505050602060405180830381600087803b158015614c5e57600080fd5b505af1158015614c72573d6000803e3d6000fd5b505050506040513d6020811015614c8857600080fd5b8101908080519060200190929190505050614d0b576040517f08c379a00000000000000000000000000000000000000000000000000000000081526004018080602001828103825260148152602001807f50617920746f2045787065727473206572726f7200000000000000000000000081525060200191505060405180910390fd5b60008089815260200190815260200160002060100160019054906101000a900460ff1615614e885760008785614d586000808d81526020019081526020016000206011015460095461158e565b0281614d6057fe5b049050601b60009054906101000a900473ffffffffffffffffffffffffffffffffffffffff1673ffffffffffffffffffffffffffffffffffffffff1663a9059cbb85836040518363ffffffff1660e01b8152600401808373ffffffffffffffffffffffffffffffffffffffff16815260200182815260200192505050602060405180830381600087803b158015614df657600080fd5b505af1158015614e0a573d6000803e3d6000fd5b505050506040513d6020811015614e2057600080fd5b8101908080519060200190929190505050614e86576040517f08c379a0000000000000000000000000000000000000000000000000000000008152600401808060200182810382526023815260200180615a556023913960400191505060405180910390fd5b505b50505b505080806001019150506148fe565b50614ea483614ea9565b505050565b6000614ecc600c54600080858152602001908152602001600020600f015461158e565b90506000614ef1600d54600080868152602001908152602001600020600e015461158e565b90506000806000858152602001908152602001600020600601548281614f1357fe5b0490506000614f39600e546000808881526020019081526020016000206011015461158e565b90506000806000878152602001908152602001600020600601548281614f5b57fe5b0490506000805b600080898152602001908152602001600020600601548160ff161015614fee5760008089815260200190815260200160002060040160008060008b8152602001908152602001600020600c015481526020019081526020016000208160ff1681548110614fcb57fe5b906000526020600020906004020160020154820191508080600101915050614f62565b50600080600089815260200190815260200160002060060154828161500f57fe5b04905060005b6000808a8152602001908152602001600020600601548160ff16101561555c5760008060008b815260200190815260200160002060040160008060008d8152602001908152602001600020600c015481526020019081526020016000208260ff168154811061508057fe5b906000526020600020906004020160020154905060008060008c815260200190815260200160002060040160008060008e8152602001908152602001600020600c015481526020019081526020016000208360ff16815481106150df57fe5b906000526020600020906004020160010160009054906101000a900473ffffffffffffffffffffffffffffffffffffffff16905060008060008d8152602001908152602001600020600601548b8161513357fe5b0485848161513d57fe5b04029050601a60009054906101000a900473ffffffffffffffffffffffffffffffffffffffff1673ffffffffffffffffffffffffffffffffffffffff1663341ce1fc83836040518363ffffffff1660e01b8152600401808373ffffffffffffffffffffffffffffffffffffffff16815260200182815260200192505050602060405180830381600087803b1580156151d457600080fd5b505af11580156151e8573d6000803e3d6000fd5b505050506040513d60208110156151fe57600080fd5b8101908080519060200190929190505050615281576040517f08c379a00000000000000000000000000000000000000000000000000000000081526004018080602001828103825260158152602001807f4d696e7420746f20506c6179657273206572726f72000000000000000000000081525060200191505060405180910390fd5b60008986858161528d57fe5b04029050601a60009054906101000a900473ffffffffffffffffffffffffffffffffffffffff1673ffffffffffffffffffffffffffffffffffffffff1663a9059cbb84836040518363ffffffff1660e01b8152600401808373ffffffffffffffffffffffffffffffffffffffff16815260200182815260200192505050602060405180830381600087803b15801561532457600080fd5b505af1158015615338573d6000803e3d6000fd5b505050506040513d602081101561534e57600080fd5b81019080805190602001909291905050506153d1576040517f08c379a00000000000000000000000000000000000000000000000000000000081526004018080602001828103825260148152602001807f50617920746f20506c6179657273206572726f7200000000000000000000000081525060200191505060405180910390fd5b6000808e815260200190815260200160002060100160019054906101000a900460ff161561554b5760008887868161540557fe5b04029050601b60009054906101000a900473ffffffffffffffffffffffffffffffffffffffff1673ffffffffffffffffffffffffffffffffffffffff1663a9059cbb85836040518363ffffffff1660e01b8152600401808373ffffffffffffffffffffffffffffffffffffffff16815260200182815260200192505050602060405180830381600087803b15801561549c57600080fd5b505af11580156154b0573d6000803e3d6000fd5b505050506040513d60208110156154c657600080fd5b8101908080519060200190929190505050615549576040517f08c379a000000000000000000000000000000000000000000000000000000000815260040180806020018281038252601c8152602001807f5072656d69756d2070617920746f20506c6179657273206572726f720000000081525060200191505060405180910390fd5b505b505050508080600101915050615015565b50615568888289615572565b5050505050505050565b60005b60008085815260200190815260200160002060030160009054906101000a900460ff1660ff168160ff161015615839578060ff16600080868152602001908152602001600020600c01541461582c5760005b60008086815260200190815260200160002060040160008360ff168152602001908152602001600020805490508160ff16101561582a57600080600087815260200190815260200160002060060154848161561e57fe5b048560008089815260200190815260200160002060040160008660ff1681526020019081526020016000208460ff168154811061565757fe5b9060005260206000209060040201600201548161567057fe5b04029050601a60009054906101000a900473ffffffffffffffffffffffffffffffffffffffff1673ffffffffffffffffffffffffffffffffffffffff1663341ce1fc60008089815260200190815260200160002060040160008660ff1681526020019081526020016000208460ff16815481106156e957fe5b906000526020600020906004020160010160009054906101000a900473ffffffffffffffffffffffffffffffffffffffff16836040518363ffffffff1660e01b8152600401808373ffffffffffffffffffffffffffffffffffffffff16815260200182815260200192505050602060405180830381600087803b15801561576f57600080fd5b505af1158015615783573d6000803e3d6000fd5b505050506040513d602081101561579957600080fd5b810190808051906020019092919050505061581c576040517f08c379a00000000000000000000000000000000000000000000000000000000081526004018080602001828103825260138152602001807f50617920746f206c6f73657273206572726f720000000000000000000000000081525060200191505060405180910390fd5b5080806001019150506155c7565b505b8080600101915050615575565b50600160008085815260200190815260200160002060120160006101000a81548160ff0219169083151502179055507f77259c2197fdb6e5ec1a797cb26a9e940c2ffb127130eee76de7c6b82acd869783600080868152602001908152602001600020600f0154600080878152602001908152602001600020600c015460405180848152602001838152602001828152602001935050505060405180910390a1505050565b82805482825590600052602060002090810192821561596d579160200282015b8281111561596c57823573ffffffffffffffffffffffffffffffffffffffff168260006101000a81548173ffffffffffffffffffffffffffffffffffffffff021916908373ffffffffffffffffffffffffffffffffffffffff160217905550916020019190600101906158fe565b5b50905061597a91906159ef565b5090565b6040518060400160405280600073ffffffffffffffffffffffffffffffffffffffff168152602001600081525090565b604051806080016040528060008152602001600073ffffffffffffffffffffffffffffffffffffffff16815260200160008152602001600060ff1681525090565b5b80821115615a085760008160009055506001016159f0565b509056fe5472616e736665722042545920746f6b656e7320666f722050524f206576656e74206572726f727573657220616c726561647920706172746963697061746520696e206576656e74506179207072656d69756d20746f6b656e7320746f2045787065727473206572726f724d696e7420746f20436f6d6d756e697479204d61726b6574696e672046756e64206572726f7262657420616d6f756e74206d75737420626520626967676572206f7220657175616c20746f20302e303120746f6b656e735265766572742042455420746f6b656e20746f20706c6179657273206973206572726f72506179207072656d69756d20746f6b656e7320746f20446576656c6f706d656e742046756e64206572726f72546869732066756e6374696f6e20636f756c64206f6e6c7920626520657865637574656420627920746865206f776e6572a2646970667358221220ec63b88301fabf1de1386c57291943293f97184b0119e0d919bf45c2092314a764736f6c63430007060033",
  "immutableReferences": {},
  "source": "// SPDX-License-Identifier: MIT\npragma solidity >=0.4.22 <0.9.0;\n\nimport {PubStruct} from \"../../struct/PubStruct.sol\";\nimport {TimeValidation} from \"../../helpers/TimeValidation.sol\";\nimport {BET} from \"../../tokens/BET.sol\";\nimport {BTY} from \"../../tokens/BTY.sol\";\nimport {FinishEvent} from \"./FinishEvent.sol\";\n\ncontract PublicEvents is\n    TimeValidation,\n    PubStruct,\n    FinishEvent\n{\n    event calculateExpert(int256 id, uint256 activePlayers);\n    constructor(BET _betAddress, BTY _btyAddress) FinishEvent(_betAddress, _btyAddress){}\n    uint256 minBet = 10000000000000000;\n\n    function newEvent(\n        int256 _id,\n        uint256 _startTime,\n        uint256 _endTime,\n        uint8 _questAmount,\n        uint256 _amountExperts,\n        bool _calculateExperts,\n        address payable _host,\n        bool _premium,\n        uint256 _amountPremiumEvent\n    ) public payable ownerOnly() {\n        events[_id].id = _id;\n        events[_id].startTime = _startTime;\n        events[_id].endTime = _endTime;\n        events[_id].questAmount = _questAmount;\n        events[_id].amountExperts = _amountExperts;\n        events[_id].host = _host;\n        events[_id].calculateExperts = _calculateExperts;\n        events[_id].premium = _premium;\n        if (_premium) {\n            require(\n                btyToken.allowance(_host, address(this)) >= _amountPremiumEvent,\n                \"Allowance error\"\n            );\n            require(\n                btyToken.transferFrom(\n                    _host,\n                    address(this),\n                    _amountPremiumEvent\n                ),\n                \"Transfer BTY tokens for PRO event error\"\n            );\n        }\n    }\n\n    function addAdvisor(address payable _advisor, int256 _id) public ownerOnly(){\n          events[_id].advisor = _advisor;\n    }\n\n    function setAnswer(\n        int256 _id,\n        uint8 _whichAnswer,\n        uint256 _amount,\n        address payable _playerWallet,\n        int256 _playerId,\n        uint8 _referrersDeep\n    ) public payable ownerOnly() {\n        require(\n            timeAnswer(events[_id].startTime, events[_id].endTime) == 0,\n            \"Time is not valid\"\n        );\n        require(events[_id].reverted != true, \"event is reverted\");\n        require(events[_id].eventFinish != true, \"event is finish\");\n        require(\n            events[_id].allPlayers[_playerWallet] != true,\n            \"user already participate in event\"\n        );\n        require(_amount >= minBet, \"bet amount must be bigger or equal to 0.01 tokens\" );\n\n        PubStruct.Player memory player;\n        player = PubStruct.Player(_playerId, _playerWallet, _amount, _referrersDeep);\n        events[_id].players[_whichAnswer].push(player);\n        events[_id].allPlayers[_playerWallet] = true;\n        events[_id].activePlayers += 1;\n        events[_id].pool += _amount;\n\n        require(\n            betToken.allowance(_playerWallet, address(this)) >= _amount,\n            \"Allowance error\"\n        );\n        require(\n            betToken.transferFrom(_playerWallet, address(this), _amount),\n            \"Transfer BTY from players error\"\n        );\n    }\n\n    function setReferrers(string memory _key, address payable[] calldata _referrers) public ownerOnly(){\n        referrers[_key].referrer = _referrers;\n    }\n\n    function setValidator(\n        int256 _id,\n        uint8 _whichAnswer,\n        address payable _expertWallet,\n        int256 _reputation\n    ) public payable ownerOnly() {\n        require(timeValidate(events[_id].endTime) == 0, \"Time is not valid\");\n        require(\n            events[_id].allPlayers[_expertWallet] != true,\n            \"user already participate in event\"\n        );\n        require(events[_id].reverted != true, \"event is reverted\");\n        require(events[_id].eventFinish != true, \"event is finish\");\n\n        if (events[_id].activePlayers == 0) {\n            events[_id].reverted = true;\n            emit revertedEvent(_id, \"do not have players on event\");\n        } else {\n            if (\n                events[_id].calculateExperts && events[_id].amountExperts == 0\n            ) {\n                emit calculateExpert(_id, events[_id].activePlayers);\n            } else {\n                PubStruct.Expert memory expert;\n                expert = PubStruct.Expert(_expertWallet, _reputation);\n                events[_id].expert[_whichAnswer].push(expert);\n                uint256 active = events[_id].activeExperts + 1;\n                events[_id].activeExperts = active;\n\n                if (active == events[_id].amountExperts && events[_id].amountExperts > 0) {\n                    letsFindCorrectAnswer(_id);\n                }\n            }\n        }\n    }\n\n    function setActiveExpertsFromOracl(uint256 _amount, int256 _id) public ownerOnly {\n        events[_id].amountExperts = _amount;\n    }\n\n}\n",
  "sourcePath": "/Users/macbook/Documents/freelance/tokenominc/contracts/events/PublicEvents/PublicEvents.sol",
  "compiler": {
    "name": "solc",
    "version": "0.7.6+commit.7338295f.Linux.g++"
  },
  "schemaVersion": "3.2.2",
  "updatedAt": "2021-03-09T14:57:39.529Z",
  "devdoc": {
    "kind": "dev",
    "methods": {},
    "version": 1
  },
  "userdoc": {
    "kind": "user",
    "methods": {},
    "version": 1
  }
}