{
  "contractName": "PublicEvents",
  "abi": [
    {
      "inputs": [
        {
          "internalType": "contract BET",
          "name": "_betAddress",
          "type": "address"
        },
        {
          "internalType": "contract BTY",
          "name": "_btyAddress",
          "type": "address"
        }
      ],
      "stateMutability": "nonpayable",
      "type": "constructor"
    },
    {
      "anonymous": false,
      "inputs": [
        {
          "indexed": false,
          "internalType": "address",
          "name": "userAddress",
          "type": "address"
        },
        {
          "indexed": false,
          "internalType": "address payable",
          "name": "relayerAddress",
          "type": "address"
        },
        {
          "indexed": false,
          "internalType": "bytes",
          "name": "functionSignature",
          "type": "bytes"
        }
      ],
      "name": "MetaTransactionExecuted",
      "type": "event"
    },
    {
      "anonymous": false,
      "inputs": [
        {
          "indexed": true,
          "internalType": "bytes32",
          "name": "role",
          "type": "bytes32"
        },
        {
          "indexed": true,
          "internalType": "bytes32",
          "name": "previousAdminRole",
          "type": "bytes32"
        },
        {
          "indexed": true,
          "internalType": "bytes32",
          "name": "newAdminRole",
          "type": "bytes32"
        }
      ],
      "name": "RoleAdminChanged",
      "type": "event"
    },
    {
      "anonymous": false,
      "inputs": [
        {
          "indexed": true,
          "internalType": "bytes32",
          "name": "role",
          "type": "bytes32"
        },
        {
          "indexed": true,
          "internalType": "address",
          "name": "account",
          "type": "address"
        },
        {
          "indexed": true,
          "internalType": "address",
          "name": "sender",
          "type": "address"
        }
      ],
      "name": "RoleGranted",
      "type": "event"
    },
    {
      "anonymous": false,
      "inputs": [
        {
          "indexed": true,
          "internalType": "bytes32",
          "name": "role",
          "type": "bytes32"
        },
        {
          "indexed": true,
          "internalType": "address",
          "name": "account",
          "type": "address"
        },
        {
          "indexed": true,
          "internalType": "address",
          "name": "sender",
          "type": "address"
        }
      ],
      "name": "RoleRevoked",
      "type": "event"
    },
    {
      "anonymous": false,
      "inputs": [
        {
          "indexed": false,
          "internalType": "int256",
          "name": "id",
          "type": "int256"
        },
        {
          "indexed": false,
          "internalType": "string",
          "name": "purpose",
          "type": "string"
        }
      ],
      "name": "revertedEvent",
      "type": "event"
    },
    {
      "inputs": [],
      "name": "DEFAULT_ADMIN_ROLE",
      "outputs": [
        {
          "internalType": "bytes32",
          "name": "",
          "type": "bytes32"
        }
      ],
      "stateMutability": "view",
      "type": "function"
    },
    {
      "inputs": [
        {
          "internalType": "uint256",
          "name": "players",
          "type": "uint256"
        }
      ],
      "name": "calculateExpertAmount",
      "outputs": [
        {
          "internalType": "uint256",
          "name": "",
          "type": "uint256"
        }
      ],
      "stateMutability": "pure",
      "type": "function"
    },
    {
      "inputs": [
        {
          "internalType": "address",
          "name": "userAddress",
          "type": "address"
        },
        {
          "internalType": "bytes",
          "name": "functionSignature",
          "type": "bytes"
        },
        {
          "internalType": "bytes32",
          "name": "sigR",
          "type": "bytes32"
        },
        {
          "internalType": "bytes32",
          "name": "sigS",
          "type": "bytes32"
        },
        {
          "internalType": "uint8",
          "name": "sigV",
          "type": "uint8"
        }
      ],
      "name": "executeMetaTransaction",
      "outputs": [
        {
          "internalType": "bytes",
          "name": "",
          "type": "bytes"
        }
      ],
      "stateMutability": "payable",
      "type": "function"
    },
    {
      "inputs": [],
      "name": "getCompanyPerc",
      "outputs": [
        {
          "internalType": "uint256",
          "name": "",
          "type": "uint256"
        }
      ],
      "stateMutability": "view",
      "type": "function"
    },
    {
      "inputs": [],
      "name": "getExpertPerc",
      "outputs": [
        {
          "internalType": "uint256",
          "name": "",
          "type": "uint256"
        }
      ],
      "stateMutability": "view",
      "type": "function"
    },
    {
      "inputs": [],
      "name": "getFirstWithdraw",
      "outputs": [
        {
          "internalType": "uint256",
          "name": "",
          "type": "uint256"
        }
      ],
      "stateMutability": "view",
      "type": "function"
    },
    {
      "inputs": [],
      "name": "getHostPerc",
      "outputs": [
        {
          "internalType": "uint256",
          "name": "",
          "type": "uint256"
        }
      ],
      "stateMutability": "view",
      "type": "function"
    },
    {
      "inputs": [
        {
          "internalType": "address",
          "name": "user",
          "type": "address"
        }
      ],
      "name": "getNonce",
      "outputs": [
        {
          "internalType": "uint256",
          "name": "nonce",
          "type": "uint256"
        }
      ],
      "stateMutability": "view",
      "type": "function"
    },
    {
      "inputs": [
        {
          "internalType": "uint256",
          "name": "_percent",
          "type": "uint256"
        },
        {
          "internalType": "uint256",
          "name": "_from",
          "type": "uint256"
        }
      ],
      "name": "getPersent",
      "outputs": [
        {
          "internalType": "uint256",
          "name": "",
          "type": "uint256"
        }
      ],
      "stateMutability": "pure",
      "type": "function"
    },
    {
      "inputs": [],
      "name": "getPlayerPers",
      "outputs": [
        {
          "internalType": "uint256",
          "name": "",
          "type": "uint256"
        }
      ],
      "stateMutability": "view",
      "type": "function"
    },
    {
      "inputs": [
        {
          "internalType": "bytes32",
          "name": "role",
          "type": "bytes32"
        }
      ],
      "name": "getRoleAdmin",
      "outputs": [
        {
          "internalType": "bytes32",
          "name": "",
          "type": "bytes32"
        }
      ],
      "stateMutability": "view",
      "type": "function"
    },
    {
      "inputs": [
        {
          "internalType": "bytes32",
          "name": "role",
          "type": "bytes32"
        },
        {
          "internalType": "uint256",
          "name": "index",
          "type": "uint256"
        }
      ],
      "name": "getRoleMember",
      "outputs": [
        {
          "internalType": "address",
          "name": "",
          "type": "address"
        }
      ],
      "stateMutability": "view",
      "type": "function"
    },
    {
      "inputs": [
        {
          "internalType": "bytes32",
          "name": "role",
          "type": "bytes32"
        }
      ],
      "name": "getRoleMemberCount",
      "outputs": [
        {
          "internalType": "uint256",
          "name": "",
          "type": "uint256"
        }
      ],
      "stateMutability": "view",
      "type": "function"
    },
    {
      "inputs": [
        {
          "internalType": "bytes32",
          "name": "role",
          "type": "bytes32"
        },
        {
          "internalType": "address",
          "name": "account",
          "type": "address"
        }
      ],
      "name": "grantRole",
      "outputs": [],
      "stateMutability": "nonpayable",
      "type": "function"
    },
    {
      "inputs": [
        {
          "internalType": "bytes32",
          "name": "role",
          "type": "bytes32"
        },
        {
          "internalType": "address",
          "name": "account",
          "type": "address"
        }
      ],
      "name": "hasRole",
      "outputs": [
        {
          "internalType": "bool",
          "name": "",
          "type": "bool"
        }
      ],
      "stateMutability": "view",
      "type": "function"
    },
    {
      "inputs": [
        {
          "internalType": "bytes32",
          "name": "role",
          "type": "bytes32"
        },
        {
          "internalType": "address",
          "name": "account",
          "type": "address"
        }
      ],
      "name": "renounceRole",
      "outputs": [],
      "stateMutability": "nonpayable",
      "type": "function"
    },
    {
      "inputs": [
        {
          "internalType": "bytes32",
          "name": "role",
          "type": "bytes32"
        },
        {
          "internalType": "address",
          "name": "account",
          "type": "address"
        }
      ],
      "name": "revokeRole",
      "outputs": [],
      "stateMutability": "nonpayable",
      "type": "function"
    },
    {
      "inputs": [
        {
          "internalType": "uint256",
          "name": "_companyPerc",
          "type": "uint256"
        }
      ],
      "name": "setCompanyPerc",
      "outputs": [],
      "stateMutability": "nonpayable",
      "type": "function"
    },
    {
      "inputs": [
        {
          "internalType": "uint256",
          "name": "_expertPerc",
          "type": "uint256"
        }
      ],
      "name": "setExpertPerc",
      "outputs": [],
      "stateMutability": "nonpayable",
      "type": "function"
    },
    {
      "inputs": [
        {
          "internalType": "uint256",
          "name": "_playerPers",
          "type": "uint256"
        }
      ],
      "name": "setFirstWithdraw",
      "outputs": [],
      "stateMutability": "nonpayable",
      "type": "function"
    },
    {
      "inputs": [
        {
          "internalType": "uint256",
          "name": "_hostPerc",
          "type": "uint256"
        }
      ],
      "name": "setHostPerc",
      "outputs": [],
      "stateMutability": "nonpayable",
      "type": "function"
    },
    {
      "inputs": [
        {
          "internalType": "uint256",
          "name": "_firstWithdraw",
          "type": "uint256"
        }
      ],
      "name": "setPlayerPers",
      "outputs": [],
      "stateMutability": "nonpayable",
      "type": "function"
    },
    {
      "inputs": [
        {
          "internalType": "uint256[]",
          "name": "_data",
          "type": "uint256[]"
        }
      ],
      "name": "setSort",
      "outputs": [],
      "stateMutability": "nonpayable",
      "type": "function"
    },
    {
      "inputs": [],
      "name": "sort",
      "outputs": [],
      "stateMutability": "nonpayable",
      "type": "function"
    },
    {
      "inputs": [
        {
          "internalType": "uint256",
          "name": "",
          "type": "uint256"
        }
      ],
      "name": "sortedArray",
      "outputs": [
        {
          "internalType": "uint256",
          "name": "",
          "type": "uint256"
        }
      ],
      "stateMutability": "view",
      "type": "function"
    },
    {
      "inputs": [
        {
          "internalType": "uint256",
          "name": "_startTime",
          "type": "uint256"
        },
        {
          "internalType": "uint256",
          "name": "_endTime",
          "type": "uint256"
        }
      ],
      "name": "timeAnswer",
      "outputs": [
        {
          "internalType": "int8",
          "name": "",
          "type": "int8"
        }
      ],
      "stateMutability": "view",
      "type": "function"
    },
    {
      "inputs": [
        {
          "internalType": "uint256",
          "name": "_endTime",
          "type": "uint256"
        }
      ],
      "name": "timeValidate",
      "outputs": [
        {
          "internalType": "int8",
          "name": "",
          "type": "int8"
        }
      ],
      "stateMutability": "view",
      "type": "function"
    },
    {
      "stateMutability": "payable",
      "type": "receive"
    },
    {
      "inputs": [
        {
          "internalType": "int256",
          "name": "_id",
          "type": "int256"
        },
        {
          "internalType": "uint256",
          "name": "_startTime",
          "type": "uint256"
        },
        {
          "internalType": "uint256",
          "name": "_endTime",
          "type": "uint256"
        },
        {
          "internalType": "uint8",
          "name": "_questAmount",
          "type": "uint8"
        },
        {
          "internalType": "uint256",
          "name": "_amountExperts",
          "type": "uint256"
        },
        {
          "internalType": "bool",
          "name": "_calculateExperts",
          "type": "bool"
        },
        {
          "internalType": "address payable",
          "name": "_host",
          "type": "address"
        },
        {
          "internalType": "bool",
          "name": "proEvent",
          "type": "bool"
        },
        {
          "internalType": "uint256",
          "name": "amountProEvent",
          "type": "uint256"
        }
      ],
      "name": "newEvent",
      "outputs": [],
      "stateMutability": "payable",
      "type": "function"
    },
    {
      "inputs": [
        {
          "internalType": "int256",
          "name": "_id",
          "type": "int256"
        },
        {
          "internalType": "uint8",
          "name": "_whichAnswer",
          "type": "uint8"
        },
        {
          "internalType": "uint256",
          "name": "_amount",
          "type": "uint256"
        },
        {
          "internalType": "address payable",
          "name": "_playerWallet",
          "type": "address"
        }
      ],
      "name": "setAnswer",
      "outputs": [],
      "stateMutability": "payable",
      "type": "function"
    },
    {
      "inputs": [
        {
          "internalType": "int256",
          "name": "_id",
          "type": "int256"
        },
        {
          "internalType": "uint8",
          "name": "_whichAnswer",
          "type": "uint8"
        },
        {
          "internalType": "address payable",
          "name": "_expertWallet",
          "type": "address"
        },
        {
          "internalType": "int256",
          "name": "rating",
          "type": "int256"
        }
      ],
      "name": "setValidator",
      "outputs": [],
      "stateMutability": "payable",
      "type": "function"
    },
    {
      "inputs": [
        {
          "internalType": "int256",
          "name": "_id",
          "type": "int256"
        },
        {
          "internalType": "string",
          "name": "purpose",
          "type": "string"
        }
      ],
      "name": "revertedPayment",
      "outputs": [],
      "stateMutability": "nonpayable",
      "type": "function"
    }
  ],
  "bytecode": "0x608060405268056bc75e2d6310000060085534801561001d57600080fd5b5060405162003ebf38038062003ebf8339818101604052604081101561004257600080fd5b8101908080519060200190929190805190602001909291905050506040518060400160405280600f81526020017f5075626c69635f636f6e747261637400000000000000000000000000000000008152506040518060400160405280600181526020017f3100000000000000000000000000000000000000000000000000000000000000815250600582828282828260405180608001604052806052815260200162003e6d6052913980519060200120838051906020012083805190602001208330604051602001808681526020018581526020018481526020018381526020018273ffffffffffffffffffffffffffffffffffffffff168152602001955050505050506040516020818303038152906040528051906020012060018190555050505050505050505033600760006101000a81548173ffffffffffffffffffffffffffffffffffffffff021916908373ffffffffffffffffffffffffffffffffffffffff16021790555033600a60006101000a81548173ffffffffffffffffffffffffffffffffffffffff021916908373ffffffffffffffffffffffffffffffffffffffff16021790555081600b60006101000a81548173ffffffffffffffffffffffffffffffffffffffff021916908373ffffffffffffffffffffffffffffffffffffffff16021790555080600c60006101000a81548173ffffffffffffffffffffffffffffffffffffffff021916908373ffffffffffffffffffffffffffffffffffffffff1602179055505050613bec80620002816000396000f3fe6080604052600436106101dc5760003560e01c80638cdc86a611610102578063ca15c87311610095578063e2d914f211610064578063e2d914f214610c35578063e640a53314610c84578063e787218314610caf578063ef99e09914610d08576101e3565b8063ca15c87314610b25578063ca2f2f7a14610b74578063d547741f14610b9f578063e1aea52314610bfa576101e3565b8063997862cb116100d1578063997862cb14610a69578063a03c669714610a94578063a217fddf14610acf578063be8968aa14610afa576101e3565b80638cdc86a6146109375780639010d07c1461094e57806391d14854146109bd5780639580de6714610a2e576101e3565b80632d0335ab1161017a57806354f6db741161014957806354f6db7414610708578063769c4898146107645780637dbb9dfa1461083657806388d9dd49146108d2576101e3565b80632d0335ab146105285780632f2ff15d1461058d57806336568abe146105e85780633b97b5d614610643576101e3565b806324467c45116101b657806324467c45146103fd578063246fe64714610438578063248a9ca31461048a5780632aad63d1146104d9576101e3565b80630328ff4a146101e85780630bf94f98146102235780630c53c51c14610288576101e3565b366101e357005b600080fd5b3480156101f457600080fd5b506102216004803603602081101561020b57600080fd5b8101908080359060200190929190505050610d33565b005b6102866004803603608081101561023957600080fd5b8101908080359060200190929190803560ff16906020019092919080359060200190929190803573ffffffffffffffffffffffffffffffffffffffff169060200190929190505050610de3565b005b610382600480360360a081101561029e57600080fd5b81019080803573ffffffffffffffffffffffffffffffffffffffff169060200190929190803590602001906401000000008111156102db57600080fd5b8201836020820111156102ed57600080fd5b8035906020019184600183028401116401000000008311171561030f57600080fd5b91908080601f016020809104026020016040519081016040528093929190818152602001838380828437600081840152601f19601f8201169050808301925050505050505091929192908035906020019092919080359060200190929190803560ff1690602001909291905050506114b0565b6040518080602001828103825283818151815260200191508051906020019080838360005b838110156103c25780820151818401526020810190506103a7565b50505050905090810190601f1680156103ef5780820380516001836020036101000a031916815260200191505b509250505060405180910390f35b34801561040957600080fd5b506104366004803603602081101561042057600080fd5b81019080803590602001909291905050506118bd565b005b34801561044457600080fd5b506104716004803603602081101561045b57600080fd5b810190808035906020019092919050505061196d565b604051808260000b815260200191505060405180910390f35b34801561049657600080fd5b506104c3600480360360208110156104ad57600080fd5b810190808035906020019092919050505061198b565b6040518082815260200191505060405180910390f35b3480156104e557600080fd5b50610512600480360360208110156104fc57600080fd5b81019080803590602001909291905050506119aa565b6040518082815260200191505060405180910390f35b34801561053457600080fd5b506105776004803603602081101561054b57600080fd5b81019080803573ffffffffffffffffffffffffffffffffffffffff169060200190929190505050611aee565b6040518082815260200191505060405180910390f35b34801561059957600080fd5b506105e6600480360360408110156105b057600080fd5b8101908080359060200190929190803573ffffffffffffffffffffffffffffffffffffffff169060200190929190505050611b37565b005b3480156105f457600080fd5b506106416004803603604081101561060b57600080fd5b8101908080359060200190929190803573ffffffffffffffffffffffffffffffffffffffff169060200190929190505050611bc0565b005b34801561064f57600080fd5b506107066004803603602081101561066657600080fd5b810190808035906020019064010000000081111561068357600080fd5b82018360208201111561069557600080fd5b803590602001918460208302840111640100000000831117156106b757600080fd5b919080806020026020016040519081016040528093929190818152602001838360200280828437600081840152601f19601f820116905080830192505050505050509192919290505050611c59565b005b34801561071457600080fd5b5061074b6004803603604081101561072b57600080fd5b810190808035906020019092919080359060200190929190505050611c73565b604051808260000b815260200191505060405180910390f35b34801561077057600080fd5b506108346004803603604081101561078757600080fd5b8101908080359060200190929190803590602001906401000000008111156107ae57600080fd5b8201836020820111156107c057600080fd5b803590602001918460018302840111640100000000831117156107e257600080fd5b91908080601f016020809104026020016040519081016040528093929190818152602001838380828437600081840152601f19601f820116905080830192505050505050509192919290505050611ca5565b005b6108d0600480360361012081101561084d57600080fd5b81019080803590602001909291908035906020019092919080359060200190929190803560ff16906020019092919080359060200190929190803515159060200190929190803573ffffffffffffffffffffffffffffffffffffffff16906020019092919080351515906020019092919080359060200190929190505050611d59565b005b610935600480360360808110156108e857600080fd5b8101908080359060200190929190803560ff169060200190929190803573ffffffffffffffffffffffffffffffffffffffff169060200190929190803590602001909291905050506121c7565b005b34801561094357600080fd5b5061094c612779565b005b34801561095a57600080fd5b506109916004803603604081101561097157600080fd5b8101908080359060200190929190803590602001909291905050506127a4565b604051808273ffffffffffffffffffffffffffffffffffffffff16815260200191505060405180910390f35b3480156109c957600080fd5b50610a16600480360360408110156109e057600080fd5b8101908080359060200190929190803573ffffffffffffffffffffffffffffffffffffffff1690602001909291905050506127d5565b60405180821515815260200191505060405180910390f35b348015610a3a57600080fd5b50610a6760048036036020811015610a5157600080fd5b8101908080359060200190929190505050612806565b005b348015610a7557600080fd5b50610a7e6128b6565b6040518082815260200191505060405180910390f35b348015610aa057600080fd5b50610acd60048036036020811015610ab757600080fd5b81019080803590602001909291905050506128c0565b005b348015610adb57600080fd5b50610ae4612970565b6040518082815260200191505060405180910390f35b348015610b0657600080fd5b50610b0f612977565b6040518082815260200191505060405180910390f35b348015610b3157600080fd5b50610b5e60048036036020811015610b4857600080fd5b8101908080359060200190929190505050612981565b6040518082815260200191505060405180910390f35b348015610b8057600080fd5b50610b896129a7565b6040518082815260200191505060405180910390f35b348015610bab57600080fd5b50610bf860048036036040811015610bc257600080fd5b8101908080359060200190929190803573ffffffffffffffffffffffffffffffffffffffff1690602001909291905050506129b1565b005b348015610c0657600080fd5b50610c3360048036036020811015610c1d57600080fd5b8101908080359060200190929190505050612a3a565b005b348015610c4157600080fd5b50610c6e60048036036020811015610c5857600080fd5b8101908080359060200190929190505050612aea565b6040518082815260200191505060405180910390f35b348015610c9057600080fd5b50610c99612b0e565b6040518082815260200191505060405180910390f35b348015610cbb57600080fd5b50610cf260048036036040811015610cd257600080fd5b810190808035906020019092919080359060200190929190505050612b18565b6040518082815260200191505060405180910390f35b348015610d1457600080fd5b50610d1d612b2f565b6040518082815260200191505060405180910390f35b600760009054906101000a900473ffffffffffffffffffffffffffffffffffffffff1673ffffffffffffffffffffffffffffffffffffffff163373ffffffffffffffffffffffffffffffffffffffff1614610dd9576040517f08c379a0000000000000000000000000000000000000000000000000000000008152600401808060200182810382526031815260200180613b576031913960400191505060405180910390fd5b8060048190555050565b600760009054906101000a900473ffffffffffffffffffffffffffffffffffffffff1673ffffffffffffffffffffffffffffffffffffffff163373ffffffffffffffffffffffffffffffffffffffff1614610e89576040517f08c379a0000000000000000000000000000000000000000000000000000000008152600401808060200182810382526031815260200180613b576031913960400191505060405180910390fd5b6000610ec1600d600087815260200190815260200160002060010154600d600088815260200190815260200160002060020154611c73565b60000b14610f37576040517f08c379a00000000000000000000000000000000000000000000000000000000081526004018080602001828103825260118152602001807f54696d65206973206e6f742076616c696400000000000000000000000000000081525060200191505060405180910390fd5b600d6000858152602001908152602001600020600d0160009054906101000a900460ff16610fcd576040517f08c379a00000000000000000000000000000000000000000000000000000000081526004018080602001828103825260118152602001807f6576656e7420697320726576657274656400000000000000000000000000000081525060200191505060405180910390fd5b600d6000858152602001908152602001600020600f0160009054906101000a900460ff16611063576040517f08c379a000000000000000000000000000000000000000000000000000000000815260040180806020018281038252600f8152602001807f6576656e742069732066696e697368000000000000000000000000000000000081525060200191505060405180910390fd5b61106b61393b565b60405180604001604052808373ffffffffffffffffffffffffffffffffffffffff168152602001848152509050600d600086815260200190815260200160002060040160008560ff16815260200190815260200160002081908060018154018082558091505060019003906000526020600020906002020160009091909190915060008201518160000160006101000a81548173ffffffffffffffffffffffffffffffffffffffff021916908373ffffffffffffffffffffffffffffffffffffffff1602179055506020820151816001015550506001600d600087815260200190815260200160002060050160008473ffffffffffffffffffffffffffffffffffffffff1673ffffffffffffffffffffffffffffffffffffffff16815260200190815260200160002060006101000a81548160ff0219169083151502179055506001600d60008781526020019081526020016000206006016000828254019250508190555082600d6000878152602001908152602001600020600c016000828254019250508190555082600b60009054906101000a900473ffffffffffffffffffffffffffffffffffffffff1673ffffffffffffffffffffffffffffffffffffffff1663dd62ed3e84306040518363ffffffff1660e01b8152600401808373ffffffffffffffffffffffffffffffffffffffff1681526020018273ffffffffffffffffffffffffffffffffffffffff1681526020019250505060206040518083038186803b15801561129c57600080fd5b505afa1580156112b0573d6000803e3d6000fd5b505050506040513d60208110156112c657600080fd5b8101908080519060200190929190505050101561134b576040517f08c379a000000000000000000000000000000000000000000000000000000000815260040180806020018281038252600f8152602001807f416c6c6f77616e6365206572726f72000000000000000000000000000000000081525060200191505060405180910390fd5b600b60009054906101000a900473ffffffffffffffffffffffffffffffffffffffff1673ffffffffffffffffffffffffffffffffffffffff166323b872dd8330866040518463ffffffff1660e01b8152600401808473ffffffffffffffffffffffffffffffffffffffff1681526020018373ffffffffffffffffffffffffffffffffffffffff1681526020018281526020019350505050602060405180830381600087803b1580156113fc57600080fd5b505af1158015611410573d6000803e3d6000fd5b505050506040513d602081101561142657600080fd5b81019080805190602001909291905050506114a9576040517f08c379a000000000000000000000000000000000000000000000000000000000815260040180806020018281038252601f8152602001807f5472616e73666572204254592066726f6d20706c6179657273206572726f720081525060200191505060405180910390fd5b5050505050565b606060006040518060600160405280600260008a73ffffffffffffffffffffffffffffffffffffffff1673ffffffffffffffffffffffffffffffffffffffff1681526020019081526020016000205481526020018873ffffffffffffffffffffffffffffffffffffffff1681526020018781525090506115338782878787612b39565b611588576040517f08c379a0000000000000000000000000000000000000000000000000000000008152600401808060200182810382526021815260200180613b126021913960400191505060405180910390fd5b6115db6001600260008a73ffffffffffffffffffffffffffffffffffffffff1673ffffffffffffffffffffffffffffffffffffffff16815260200190815260200160002054612be890919063ffffffff16565b600260008973ffffffffffffffffffffffffffffffffffffffff1673ffffffffffffffffffffffffffffffffffffffff168152602001908152602001600020819055507f5845892132946850460bff5a0083f71031bc5bf9aadcd40f1de79423eac9b10b873388604051808473ffffffffffffffffffffffffffffffffffffffff1681526020018373ffffffffffffffffffffffffffffffffffffffff16815260200180602001828103825283818151815260200191508051906020019080838360005b838110156116ba57808201518184015260208101905061169f565b50505050905090810190601f1680156116e75780820380516001836020036101000a031916815260200191505b5094505050505060405180910390a16000803073ffffffffffffffffffffffffffffffffffffffff16888a6040516020018083805190602001908083835b602083106117485780518252602082019150602081019050602083039250611725565b6001836020036101000a0380198251168184511680821785525050505050509050018273ffffffffffffffffffffffffffffffffffffffff1660601b8152601401925050506040516020818303038152906040526040518082805190602001908083835b602083106117cf57805182526020820191506020810190506020830392506117ac565b6001836020036101000a0380198251168184511680821785525050505050509050019150506000604051808303816000865af19150503d8060008114611831576040519150601f19603f3d011682016040523d82523d6000602084013e611836565b606091505b5091509150816118ae576040517f08c379a000000000000000000000000000000000000000000000000000000000815260040180806020018281038252601c8152602001807f46756e6374696f6e2063616c6c206e6f74207375636365737366756c0000000081525060200191505060405180910390fd5b80935050505095945050505050565b600760009054906101000a900473ffffffffffffffffffffffffffffffffffffffff1673ffffffffffffffffffffffffffffffffffffffff163373ffffffffffffffffffffffffffffffffffffffff1614611963576040517f08c379a0000000000000000000000000000000000000000000000000000000008152600401808060200182810382526031815260200180613b576031913960400191505060405180910390fd5b8060038190555050565b600080824203126119815760009050611986565b600190505b919050565b6000806000838152602001908152602001600020600201549050919050565b6000600282116119bd5760019050611ae9565b600382101580156119cf5750600b8211155b156119dd5760039050611ae9565b600c82101580156119ef5750601e8211155b156119fd5760059050611ae9565b601f8210158015611a0f575060388211155b15611a1d5760079050611ae9565b60398210158015611a2f5750605b8211155b15611a3d5760099050611ae9565b605c8210158015611a4f575060858211155b15611a5d57600b9050611ae9565b60868210158015611a70575061012c8211155b15611a7e57600f9050611ae9565b61012d8210158015611a9257506101f48211155b15611aa05760179050611ae9565b6101f58210158015611ab457506103e88211155b15611ac25760219050611ae9565b6103e98210158015611ad657506113888211155b15611ae45760469050611ae9565b606490505b919050565b6000600260008373ffffffffffffffffffffffffffffffffffffffff1673ffffffffffffffffffffffffffffffffffffffff168152602001908152602001600020549050919050565b611b5d60008084815260200190815260200160002060020154611b58612c70565b6127d5565b611bb2576040517f08c379a000000000000000000000000000000000000000000000000000000000815260040180806020018281038252602f815260200180613a70602f913960400191505060405180910390fd5b611bbc8282612c78565b5050565b611bc8612c70565b73ffffffffffffffffffffffffffffffffffffffff168173ffffffffffffffffffffffffffffffffffffffff1614611c4b576040517f08c379a000000000000000000000000000000000000000000000000000000000815260040180806020018281038252602f815260200180613b88602f913960400191505060405180910390fd5b611c558282612d0b565b5050565b8060099080519060200190611c6f92919061396b565b5050565b60008083420312611c9a57600042830312611c915760009050611c9f565b60029050611c9f565b600190505b92915050565b600760009054906101000a900473ffffffffffffffffffffffffffffffffffffffff1673ffffffffffffffffffffffffffffffffffffffff163373ffffffffffffffffffffffffffffffffffffffff1614611d4b576040517f08c379a0000000000000000000000000000000000000000000000000000000008152600401808060200182810382526031815260200180613b576031913960400191505060405180910390fd5b611d558282612d9e565b5050565b600760009054906101000a900473ffffffffffffffffffffffffffffffffffffffff1673ffffffffffffffffffffffffffffffffffffffff163373ffffffffffffffffffffffffffffffffffffffff1614611dff576040517f08c379a0000000000000000000000000000000000000000000000000000000008152600401808060200182810382526031815260200180613b576031913960400191505060405180910390fd5b88600d60008b81526020019081526020016000206000018190555087600d60008b81526020019081526020016000206001018190555086600d60008b81526020019081526020016000206002018190555085600d60008b815260200190815260200160002060030160006101000a81548160ff021916908360ff16021790555084600d60008b81526020019081526020016000206009018190555082600d60008b8152602001908152602001600020600a0160016101000a81548173ffffffffffffffffffffffffffffffffffffffff021916908373ffffffffffffffffffffffffffffffffffffffff16021790555083600d60008b8152602001908152602001600020600a0160006101000a81548160ff02191690831515021790555081156121bc5780600c60009054906101000a900473ffffffffffffffffffffffffffffffffffffffff1673ffffffffffffffffffffffffffffffffffffffff1663dd62ed3e85306040518363ffffffff1660e01b8152600401808373ffffffffffffffffffffffffffffffffffffffff1681526020018273ffffffffffffffffffffffffffffffffffffffff1681526020019250505060206040518083038186803b158015611fcb57600080fd5b505afa158015611fdf573d6000803e3d6000fd5b505050506040513d6020811015611ff557600080fd5b8101908080519060200190929190505050101561207a576040517f08c379a000000000000000000000000000000000000000000000000000000000815260040180806020018281038252600f8152602001807f416c6c6f77616e6365206572726f72000000000000000000000000000000000081525060200191505060405180910390fd5b600c60009054906101000a900473ffffffffffffffffffffffffffffffffffffffff1673ffffffffffffffffffffffffffffffffffffffff166323b872dd8430846040518463ffffffff1660e01b8152600401808473ffffffffffffffffffffffffffffffffffffffff1681526020018373ffffffffffffffffffffffffffffffffffffffff1681526020018281526020019350505050602060405180830381600087803b15801561212b57600080fd5b505af115801561213f573d6000803e3d6000fd5b505050506040513d602081101561215557600080fd5b81019080805190602001909291905050506121bb576040517f08c379a0000000000000000000000000000000000000000000000000000000008152600401808060200182810382526027815260200180613a066027913960400191505060405180910390fd5b5b505050505050505050565b600760009054906101000a900473ffffffffffffffffffffffffffffffffffffffff1673ffffffffffffffffffffffffffffffffffffffff163373ffffffffffffffffffffffffffffffffffffffff161461226d576040517f08c379a0000000000000000000000000000000000000000000000000000000008152600401808060200182810382526031815260200180613b576031913960400191505060405180910390fd5b600061228e600d60008781526020019081526020016000206002015461196d565b60000b14612304576040517f08c379a00000000000000000000000000000000000000000000000000000000081526004018080602001828103825260118152602001807f54696d65206973206e6f742076616c696400000000000000000000000000000081525060200191505060405180910390fd5b60011515600d600086815260200190815260200160002060050160008473ffffffffffffffffffffffffffffffffffffffff1673ffffffffffffffffffffffffffffffffffffffff16815260200190815260200160002060009054906101000a900460ff161515146123c1576040517f08c379a0000000000000000000000000000000000000000000000000000000008152600401808060200182810382526021815260200180613a2d6021913960400191505060405180910390fd5b600d6000858152602001908152602001600020600d0160009054906101000a900460ff16612457576040517f08c379a00000000000000000000000000000000000000000000000000000000081526004018080602001828103825260118152602001807f6576656e7420697320726576657274656400000000000000000000000000000081525060200191505060405180910390fd5b600d6000858152602001908152602001600020600f0160009054906101000a900460ff166124ed576040517f08c379a000000000000000000000000000000000000000000000000000000000815260040180806020018281038252600f8152602001807f6576656e742069732066696e697368000000000000000000000000000000000081525060200191505060405180910390fd5b6000600d60008681526020019081526020016000206006015414156125b0576001600d6000868152602001908152602001600020600d0160006101000a81548160ff0219169083151502179055507f847521552ad126e64c52b14640c804737bd67f2b6674309b332d1e5b17f857d18460405180828152602001806020018281038252600e8152602001807f646f206e6f7420706c61796572730000000000000000000000000000000000008152506020019250505060405180910390a1612773565b600d6000858152602001908152602001600020600a0160009054906101000a900460ff1615612613576125f8600d6000868152602001908152602001600020600601546119aa565b600d6000868152602001908152602001600020600901819055505b61261b6139b8565b60405180604001604052808473ffffffffffffffffffffffffffffffffffffffff168152602001838152509050600d600086815260200190815260200160002060070160008560ff16815260200190815260200160002081908060018154018082558091505060019003906000526020600020906002020160009091909190915060008201518160000160006101000a81548173ffffffffffffffffffffffffffffffffffffffff021916908373ffffffffffffffffffffffffffffffffffffffff16021790555060208201518160010155505060006001600d600088815260200190815260200160002060080154019050600d6000878152602001908152602001600020600901548114156127545780600d60008881526020019081526020016000206008018190555061274f866130d5565b612770565b80600d6000888152602001908152602001600020600801819055505b50505b50505050565b6000600980549050141561278c576127a2565b6127a1600960006001600980549050036131bd565b5b565b60006127cd8260008086815260200190815260200160002060000161330990919063ffffffff16565b905092915050565b60006127fe8260008086815260200190815260200160002060000161332390919063ffffffff16565b905092915050565b600760009054906101000a900473ffffffffffffffffffffffffffffffffffffffff1673ffffffffffffffffffffffffffffffffffffffff163373ffffffffffffffffffffffffffffffffffffffff16146128ac576040517f08c379a0000000000000000000000000000000000000000000000000000000008152600401808060200182810382526031815260200180613b576031913960400191505060405180910390fd5b8060058190555050565b6000600654905090565b600760009054906101000a900473ffffffffffffffffffffffffffffffffffffffff1673ffffffffffffffffffffffffffffffffffffffff163373ffffffffffffffffffffffffffffffffffffffff1614612966576040517f08c379a0000000000000000000000000000000000000000000000000000000008152600401808060200182810382526031815260200180613b576031913960400191505060405180910390fd5b8060068190555050565b6000801b81565b6000600454905090565b60006129a0600080848152602001908152602001600020600001613353565b9050919050565b6000600354905090565b6129d7600080848152602001908152602001600020600201546129d2612c70565b6127d5565b612a2c576040517f08c379a0000000000000000000000000000000000000000000000000000000008152600401808060200182810382526030815260200180613ae26030913960400191505060405180910390fd5b612a368282612d0b565b5050565b600760009054906101000a900473ffffffffffffffffffffffffffffffffffffffff1673ffffffffffffffffffffffffffffffffffffffff163373ffffffffffffffffffffffffffffffffffffffff1614612ae0576040517f08c379a0000000000000000000000000000000000000000000000000000000008152600401808060200182810382526031815260200180613b576031913960400191505060405180910390fd5b8060088190555050565b60098181548110612afa57600080fd5b906000526020600020016000915090505481565b6000600554905090565b6000606483830281612b2657fe5b04905092915050565b6000600854905090565b60006001612b4e612b4987613368565b6133f8565b83868660405160008152602001604052604051808581526020018460ff1681526020018381526020018281526020019450505050506020604051602081039080840390855afa158015612ba5573d6000803e3d6000fd5b5050506020604051035173ffffffffffffffffffffffffffffffffffffffff168673ffffffffffffffffffffffffffffffffffffffff1614905095945050505050565b600080828401905083811015612c66576040517f08c379a000000000000000000000000000000000000000000000000000000000815260040180806020018281038252601b8152602001807f536166654d6174683a206164646974696f6e206f766572666c6f77000000000081525060200191505060405180910390fd5b8091505092915050565b600033905090565b612c9f8160008085815260200190815260200160002060000161345f90919063ffffffff16565b15612d0757612cac612c70565b73ffffffffffffffffffffffffffffffffffffffff168173ffffffffffffffffffffffffffffffffffffffff16837f2f8788117e7eff1d82e926ec794901d17c78024a50270940304540a733656f0d60405160405180910390a45b5050565b612d328160008085815260200190815260200160002060000161348f90919063ffffffff16565b15612d9a57612d3f612c70565b73ffffffffffffffffffffffffffffffffffffffff168173ffffffffffffffffffffffffffffffffffffffff16837ff6391f5c32d9c69d2a47ea670b442974b53935d1edc7fd64eb21e047a839171b60405160405180910390a45b5050565b60005b600d600084815260200190815260200160002060030160009054906101000a900460ff1660ff168160ff161015612ffd5760005b600d600085815260200190815260200160002060040160008360ff168152602001908152602001600020805490508160ff161015612fef57600b60009054906101000a900473ffffffffffffffffffffffffffffffffffffffff1673ffffffffffffffffffffffffffffffffffffffff1663a9059cbb600d600087815260200190815260200160002060040160008560ff1681526020019081526020016000208360ff1681548110612e8357fe5b906000526020600020906002020160000160009054906101000a900473ffffffffffffffffffffffffffffffffffffffff16600d600088815260200190815260200160002060040160008660ff1681526020019081526020016000208460ff1681548110612eed57fe5b9060005260206000209060020201600101546040518363ffffffff1660e01b8152600401808373ffffffffffffffffffffffffffffffffffffffff16815260200182815260200192505050602060405180830381600087803b158015612f5257600080fd5b505af1158015612f66573d6000803e3d6000fd5b505050506040513d6020811015612f7c57600080fd5b8101908080519060200190929190505050612fe2576040517f08c379a0000000000000000000000000000000000000000000000000000000008152600401808060200182810382526024815260200180613b336024913960400191505060405180910390fd5b8080600101915050612dd5565b508080600101915050612da1565b506001600d6000848152602001908152602001600020600d0160006101000a81548160ff0219169083151502179055507f847521552ad126e64c52b14640c804737bd67f2b6674309b332d1e5b17f857d182826040518083815260200180602001828103825283818151815260200191508051906020019080838360005b8381101561309657808201518184015260208101905061307b565b50505050905090810190601f1680156130c35780820380516001836020036101000a031916815260200191505b50935050505060405180910390a15050565b60008080600090505b600d600085815260200190815260200160002060030160009054906101000a900460ff1660ff168160ff1610156131885782600d600086815260200190815260200160002060070160008360ff16815260200190815260200160002080549050111561317b57600d600085815260200190815260200160002060070160008260ff1681526020019081526020016000208054905092508060ff1691505b80806001019150506130de565b506131b8818385600d600088815260200190815260200160002060030160009054906101000a900460ff166134bf565b505050565b600082905060008290506000856002868603816131d657fe5b048601815481106131e357fe5b906000526020600020015490505b8183116132d9575b8086848154811061320657fe5b906000526020600020015410156132245782806001019350506131f9565b5b85828154811061323157fe5b906000526020600020015481101561325157818060019003925050613225565b8183116132d45785828154811061326457fe5b906000526020600020015486848154811061327b57fe5b906000526020600020015487858154811061329257fe5b9060005260206000200160008986815481106132aa57fe5b90600052602060002001600084919050558391905055505082806001019350508180600190039250505b6131f1565b818510156132ed576132ec8686846131bd565b5b83831015613301576133008684866131bd565b5b505050505050565b6000613318836000018361371f565b60001c905092915050565b600061334b836000018373ffffffffffffffffffffffffffffffffffffffff1660001b6137a2565b905092915050565b6000613361826000016137c5565b9050919050565b6000604051806080016040528060438152602001613a9f604391398051906020012082600001518360200151846040015180519060200120604051602001808581526020018481526020018373ffffffffffffffffffffffffffffffffffffffff168152602001828152602001945050505050604051602081830303815290604052805190602001209050919050565b60006134026137d6565b8260405160200180807f190100000000000000000000000000000000000000000000000000000000000081525060020183815260200182815260200192505050604051602081830303815290604052805190602001209050919050565b6000613487836000018373ffffffffffffffffffffffffffffffffffffffff1660001b6137e0565b905092915050565b60006134b7836000018373ffffffffffffffffffffffffffffffffffffffff1660001b613850565b905092915050565b6001600d60008481526020019081526020016000206008015411156136f4576000808260ff1667ffffffffffffffff811180156134fb57600080fd5b5060405190808252806020026020018201604052801561352a5781602001602082028036833780820191505090505b50905060005b8360ff168160ff16101561359457600d600086815260200190815260200160002060070160008260ff16815260200190815260200160002080549050828260ff168151811061357b57fe5b6020026020010181815250508080600101915050613530565b5061359e81611c59565b6135a6612779565b60005b6001600980549050038160ff161015613648576009805490506001820160ff16101561363b5760098160ff16815481106135df57fe5b906000526020600020015460096001830160ff16815481106135fd57fe5b9060005260206000200154141561363a5760098160ff168154811061361e57fe5b90600052602060002001548614156136395782806001019350505b5b5b80806001019150506135a9565b5060008260ff1611156136c8576001600d6000868152602001908152602001600020600d0160006101000a81548160ff0219169083151502179055506136c3846040518060400160405280601581526020017f6475706c6963617465732076616c696461746f72730000000000000000000000815250612d9e565b6136ed565b85600d6000868152602001908152602001600020600b01819055506136ec84613938565b5b5050613719565b83600d6000848152602001908152602001600020600b018190555061371882613938565b5b50505050565b600081836000018054905011613780576040517f08c379a0000000000000000000000000000000000000000000000000000000008152600401808060200182810382526022815260200180613a4e6022913960400191505060405180910390fd5b82600001828154811061378f57fe5b9060005260206000200154905092915050565b600080836001016000848152602001908152602001600020541415905092915050565b600081600001805490509050919050565b6000600154905090565b60006137ec83836137a2565b61384557826000018290806001815401808255809150506001900390600052602060002001600090919091909150558260000180549050836001016000848152602001908152602001600020819055506001905061384a565b600090505b92915050565b6000808360010160008481526020019081526020016000205490506000811461392c576000600182039050600060018660000180549050039050600086600001828154811061389b57fe5b90600052602060002001549050808760000184815481106138b857fe5b90600052602060002001819055506001830187600101600083815260200190815260200160002081905550866000018054806138f057fe5b60019003818190600052602060002001600090559055866001016000878152602001908152602001600020600090556001945050505050613932565b60009150505b92915050565b50565b6040518060400160405280600073ffffffffffffffffffffffffffffffffffffffff168152602001600081525090565b8280548282559060005260206000209081019282156139a7579160200282015b828111156139a657825182559160200191906001019061398b565b5b5090506139b491906139e8565b5090565b6040518060400160405280600073ffffffffffffffffffffffffffffffffffffffff168152602001600081525090565b5b80821115613a015760008160009055506001016139e9565b509056fe5472616e736665722042545920746f6b656e7320666f722050524f206576656e74206572726f727573657220616c726561647920706172746963697061746520696e206576656e74456e756d657261626c655365743a20696e646578206f7574206f6620626f756e6473416363657373436f6e74726f6c3a2073656e646572206d75737420626520616e2061646d696e20746f206772616e744d6574615472616e73616374696f6e2875696e74323536206e6f6e63652c616464726573732066726f6d2c62797465732066756e6374696f6e5369676e617475726529416363657373436f6e74726f6c3a2073656e646572206d75737420626520616e2061646d696e20746f207265766f6b655369676e657220616e64207369676e617475726520646f206e6f74206d617463685265766572742042455420746f6b656e20746f20706c6179657273206973206572726f72546869732066756e6374696f6e20636f756c64206f6e6c7920626520657865637574656420627920746865206f776e6572416363657373436f6e74726f6c3a2063616e206f6e6c792072656e6f756e636520726f6c657320666f722073656c66a2646970667358221220427f27331abff901fc7436cd154032e32a44485087af8b8d518ebcf3f56d025e64736f6c63430007060033454950373132446f6d61696e28737472696e67206e616d652c737472696e672076657273696f6e2c75696e7432353620636861696e49642c6164647265737320766572696679696e67436f6e747261637429",
  "immutableReferences": {},
  "source": "// SPDX-License-Identifier: MIT\npragma solidity >=0.4.22 <0.9.0;\n\nimport {MetaTransactLib} from \"../helpers/MetaTransactLib.sol\";\nimport {PubStruct} from \"../struct/PubStruct.sol\";\nimport {TimeValidation} from \"../helpers/TimeValidation.sol\";\nimport {BET} from \"../tokens/BET.sol\";\nimport {BTY} from \"../tokens/BTY.sol\";\nimport {ConfigVariables} from \"../config/ConfigVariables.sol\";\nimport {Libs} from \"../helpers/Libs.sol\";\n\ncontract PublicEvents is\n    MetaTransactLib,\n    TimeValidation,\n    ConfigVariables,\n    Libs\n{\n    address payable owner;\n    BET private betToken;\n    BTY private btyToken;\n\n    mapping(int256 => PubStruct.EventData) events;\n    event revertedEvent(int256 id, string purpose);\n\n    constructor(BET _betAddress, BTY _btyAddress)\n        MetaTransactLib(\"Public_contract\", \"1\", 5)\n    {\n        owner = msg.sender;\n        betToken = _betAddress;\n        btyToken = _btyAddress;\n    }\n\n    function newEvent(\n        int256 _id,\n        uint256 _startTime,\n        uint256 _endTime,\n        uint8 _questAmount,\n        uint256 _amountExperts,\n        bool _calculateExperts,\n        address payable _host,\n        bool proEvent,\n        uint256 amountProEvent\n    ) public payable ownerOnly() {\n        events[_id].id = _id;\n        events[_id].startTime = _startTime;\n        events[_id].endTime = _endTime;\n        events[_id].questAmount = _questAmount;\n        events[_id].amountExperts = _amountExperts;\n        events[_id].host = _host;\n        events[_id].calculateExperts = _calculateExperts;\n\n        // TODO add Advisor\n        if (proEvent) {\n            require(\n                btyToken.allowance(_host, address(this)) >= amountProEvent,\n                \"Allowance error\"\n            );\n            require(\n                btyToken.transferFrom(_host, address(this), amountProEvent),\n                \"Transfer BTY tokens for PRO event error\"\n            );\n        }\n    }\n\n    function setAnswer(\n        int256 _id,\n        uint8 _whichAnswer,\n        uint256 _amount,\n        address payable _playerWallet\n    ) public payable ownerOnly() {\n        require(\n            timeAnswer(events[_id].startTime, events[_id].endTime) == 0,\n            \"Time is not valid\"\n        );\n        require(events[_id].reverted, \"event is reverted\");\n        require(events[_id].eventFinish, \"event is finish\");\n\n        PubStruct.Player memory player;\n        // TODO add Referrers\n        player = PubStruct.Player(_playerWallet, _amount);\n        events[_id].players[_whichAnswer].push(player);\n        events[_id].allPlayers[_playerWallet] = true;\n        events[_id].activePlayers += 1;\n        events[_id].pool += _amount;\n\n        require(\n            betToken.allowance(_playerWallet, address(this)) >= _amount,\n            \"Allowance error\"\n        );\n        require(\n            betToken.transferFrom(_playerWallet, address(this), _amount),\n            \"Transfer BTY from players error\"\n        );\n    }\n\n    function setValidator(\n        int256 _id,\n        uint8 _whichAnswer,\n        address payable _expertWallet,\n        int256 rating\n    ) public payable ownerOnly() {\n        require(timeValidate(events[_id].endTime) == 0, \"Time is not valid\");\n        require(\n            events[_id].allPlayers[_expertWallet] == true,\n            \"user already participate in event\"\n        );\n        require(events[_id].reverted, \"event is reverted\");\n        require(events[_id].eventFinish, \"event is finish\");\n\n        if (events[_id].activePlayers == 0) {\n            events[_id].reverted = true;\n            emit revertedEvent(_id, \"do not players\");\n        } else {\n            if (events[_id].calculateExperts) {\n                events[_id].amountExperts = calculateExpertAmount(\n                    events[_id].activePlayers\n                );\n            }\n            PubStruct.Expert memory expert;\n            expert = PubStruct.Expert(_expertWallet, rating);\n            events[_id].expert[_whichAnswer].push(expert);\n            uint256 active = events[_id].activeExperts + 1;\n            if (active == events[_id].amountExperts) {\n                events[_id].activeExperts = active;\n                letsFindCorrectAnswer(_id);\n            } else {\n                events[_id].activeExperts = active;\n            }\n        }\n    }\n\n    function letsFindCorrectAnswer(int256 _id) private {\n        uint256 biggestValue = 0;\n        uint256 correctAnswer;\n\n        // find correct answer\n        for (uint8 i = 0; i < events[_id].questAmount; i++) {\n            if (events[_id].expert[i].length > biggestValue) {\n                biggestValue = events[_id].expert[i].length;\n                correctAnswer = i;\n            }\n        }\n\n        findDuplicates(\n            correctAnswer,\n            biggestValue,\n            _id,\n            events[_id].questAmount\n        );\n    }\n\n    function findDuplicates(\n        uint256 correctAnswer,\n        uint256 biggestValue,\n        int256 _id,\n        uint8 questAmount\n    ) private {\n        if (events[_id].activeExperts > 1) {\n            uint8 duplicatesAnswers = 0;\n            uint256[] memory expertAnswers = new uint256[](questAmount);\n            for (uint8 i = 0; i < questAmount; i++) {\n                expertAnswers[i] = events[_id].expert[i].length;\n            }\n\n            setSort(expertAnswers);\n            sort();\n\n            for (uint8 i = 0; i < sortedArray.length - 1; i++) {\n                if ((i + 1) < sortedArray.length) {\n                    if (sortedArray[i + 1] == sortedArray[i]) {\n                        if (biggestValue == sortedArray[i]) {\n                            duplicatesAnswers++;\n                        }\n                    }\n                }\n            }\n\n            if (duplicatesAnswers > 0) {\n                events[_id].reverted = true;\n                revertPayment(_id, \"duplicates validators\");\n            } else {\n                events[_id].correctAnswer = correctAnswer;\n                findLosersPool(_id);\n            }\n        } else {\n            events[_id].correctAnswer = correctAnswer;\n            findLosersPool(_id);\n        }\n    }\n\n    function revertedPayment(int256 _id, string memory purpose)\n        public\n        ownerOnly()\n    {\n        revertPayment(_id, purpose);\n    }\n\n    function revertPayment(int256 _id, string memory purpose) private {\n        for (uint8 i = 0; i < events[_id].questAmount; i++) {\n            for (uint8 z = 0; z < events[_id].players[i].length; z++) {\n                require(\n                    betToken.transfer(\n                        events[_id].players[i][z].player,\n                        events[_id].players[i][z].amount\n                    ),\n                    \"Revert BET token to players is error\"\n                );\n            }\n        }\n        events[_id].reverted = true;\n        emit revertedEvent(_id, purpose);\n    }\n\n    function findLosersPool(int256 _id) private {}\n}\n",
  "sourcePath": "/Users/macbook/Documents/freelance/tokenominc/contracts/events/PublicEvents.sol",
  "compiler": {
    "name": "solc",
    "version": "0.7.6+commit.7338295f.Linux.g++"
  },
  "schemaVersion": "3.2.2",
  "updatedAt": "2021-02-16T16:34:35.443Z",
  "devdoc": {
    "kind": "dev",
    "methods": {
      "getRoleAdmin(bytes32)": {
        "details": "Returns the admin role that controls `role`. See {grantRole} and {revokeRole}. To change a role's admin, use {_setRoleAdmin}."
      },
      "getRoleMember(bytes32,uint256)": {
        "details": "Returns one of the accounts that have `role`. `index` must be a value between 0 and {getRoleMemberCount}, non-inclusive. Role bearers are not sorted in any particular way, and their ordering may change at any point. WARNING: When using {getRoleMember} and {getRoleMemberCount}, make sure you perform all queries on the same block. See the following https://forum.openzeppelin.com/t/iterating-over-elements-on-enumerableset-in-openzeppelin-contracts/2296[forum post] for more information."
      },
      "getRoleMemberCount(bytes32)": {
        "details": "Returns the number of accounts that have `role`. Can be used together with {getRoleMember} to enumerate all bearers of a role."
      },
      "grantRole(bytes32,address)": {
        "details": "Grants `role` to `account`. If `account` had not been already granted `role`, emits a {RoleGranted} event. Requirements: - the caller must have ``role``'s admin role."
      },
      "hasRole(bytes32,address)": {
        "details": "Returns `true` if `account` has been granted `role`."
      },
      "renounceRole(bytes32,address)": {
        "details": "Revokes `role` from the calling account. Roles are often managed via {grantRole} and {revokeRole}: this function's purpose is to provide a mechanism for accounts to lose their privileges if they are compromised (such as when a trusted device is misplaced). If the calling account had been granted `role`, emits a {RoleRevoked} event. Requirements: - the caller must be `account`."
      },
      "revokeRole(bytes32,address)": {
        "details": "Revokes `role` from `account`. If `account` had been granted `role`, emits a {RoleRevoked} event. Requirements: - the caller must have ``role``'s admin role."
      }
    },
    "version": 1
  },
  "userdoc": {
    "kind": "user",
    "methods": {},
    "version": 1
  }
}