{
  "contractName": "PublicEvents",
  "abi": [
    {
      "inputs": [
        {
          "internalType": "contract BET",
          "name": "_betAddress",
          "type": "address"
        },
        {
          "internalType": "contract BTY",
          "name": "_btyAddress",
          "type": "address"
        }
      ],
      "stateMutability": "nonpayable",
      "type": "constructor"
    },
    {
      "anonymous": false,
      "inputs": [
        {
          "indexed": false,
          "internalType": "int256",
          "name": "id",
          "type": "int256"
        },
        {
          "indexed": false,
          "internalType": "uint256",
          "name": "activePlayers",
          "type": "uint256"
        }
      ],
      "name": "calculateExpert",
      "type": "event"
    },
    {
      "anonymous": false,
      "inputs": [
        {
          "indexed": false,
          "internalType": "int256",
          "name": "id",
          "type": "int256"
        },
        {
          "indexed": false,
          "internalType": "uint256",
          "name": "activePlayers",
          "type": "uint256"
        },
        {
          "indexed": false,
          "internalType": "uint256",
          "name": "pool",
          "type": "uint256"
        },
        {
          "indexed": false,
          "internalType": "uint256",
          "name": "GFindex",
          "type": "uint256"
        }
      ],
      "name": "calculateTokensAmount",
      "type": "event"
    },
    {
      "anonymous": false,
      "inputs": [
        {
          "indexed": false,
          "internalType": "int256",
          "name": "id",
          "type": "int256"
        },
        {
          "indexed": false,
          "internalType": "string",
          "name": "purpose",
          "type": "string"
        }
      ],
      "name": "revertedEvent",
      "type": "event"
    },
    {
      "inputs": [],
      "name": "GFindex",
      "outputs": [
        {
          "internalType": "uint256",
          "name": "",
          "type": "uint256"
        }
      ],
      "stateMutability": "view",
      "type": "function"
    },
    {
      "inputs": [],
      "name": "GFrewards",
      "outputs": [
        {
          "internalType": "uint256",
          "name": "",
          "type": "uint256"
        }
      ],
      "stateMutability": "view",
      "type": "function"
    },
    {
      "inputs": [],
      "name": "betToken",
      "outputs": [
        {
          "internalType": "contract BET",
          "name": "",
          "type": "address"
        }
      ],
      "stateMutability": "view",
      "type": "function"
    },
    {
      "inputs": [],
      "name": "btyToken",
      "outputs": [
        {
          "internalType": "contract BTY",
          "name": "",
          "type": "address"
        }
      ],
      "stateMutability": "view",
      "type": "function"
    },
    {
      "inputs": [],
      "name": "communityMarketingFund",
      "outputs": [
        {
          "internalType": "uint256",
          "name": "",
          "type": "uint256"
        }
      ],
      "stateMutability": "view",
      "type": "function"
    },
    {
      "inputs": [],
      "name": "companyPerc",
      "outputs": [
        {
          "internalType": "uint256",
          "name": "",
          "type": "uint256"
        }
      ],
      "stateMutability": "view",
      "type": "function"
    },
    {
      "inputs": [],
      "name": "expertPerc",
      "outputs": [
        {
          "internalType": "uint256",
          "name": "",
          "type": "uint256"
        }
      ],
      "stateMutability": "view",
      "type": "function"
    },
    {
      "inputs": [],
      "name": "firstWithdrawIndex",
      "outputs": [
        {
          "internalType": "uint256",
          "name": "",
          "type": "uint256"
        }
      ],
      "stateMutability": "view",
      "type": "function"
    },
    {
      "inputs": [],
      "name": "getFirstWithdraw",
      "outputs": [
        {
          "internalType": "uint256",
          "name": "",
          "type": "uint256"
        }
      ],
      "stateMutability": "view",
      "type": "function"
    },
    {
      "inputs": [
        {
          "internalType": "uint256",
          "name": "_percent",
          "type": "uint256"
        },
        {
          "internalType": "uint256",
          "name": "_from",
          "type": "uint256"
        }
      ],
      "name": "getPersent",
      "outputs": [
        {
          "internalType": "uint256",
          "name": "",
          "type": "uint256"
        }
      ],
      "stateMutability": "pure",
      "type": "function"
    },
    {
      "inputs": [],
      "name": "hostPerc",
      "outputs": [
        {
          "internalType": "uint256",
          "name": "",
          "type": "uint256"
        }
      ],
      "stateMutability": "view",
      "type": "function"
    },
    {
      "inputs": [
        {
          "internalType": "int256",
          "name": "_id",
          "type": "int256"
        }
      ],
      "name": "letsFindCorrectAnswer",
      "outputs": [],
      "stateMutability": "nonpayable",
      "type": "function"
    },
    {
      "inputs": [
        {
          "internalType": "int256",
          "name": "_id",
          "type": "int256"
        },
        {
          "internalType": "uint256",
          "name": "_tokens",
          "type": "uint256"
        }
      ],
      "name": "letsFinishEvent",
      "outputs": [],
      "stateMutability": "nonpayable",
      "type": "function"
    },
    {
      "inputs": [],
      "name": "owner",
      "outputs": [
        {
          "internalType": "address",
          "name": "",
          "type": "address"
        }
      ],
      "stateMutability": "view",
      "type": "function"
    },
    {
      "inputs": [],
      "name": "playerPers",
      "outputs": [
        {
          "internalType": "uint256",
          "name": "",
          "type": "uint256"
        }
      ],
      "stateMutability": "view",
      "type": "function"
    },
    {
      "inputs": [
        {
          "internalType": "int256",
          "name": "_id",
          "type": "int256"
        },
        {
          "internalType": "string",
          "name": "purpose",
          "type": "string"
        }
      ],
      "name": "revertedPayment",
      "outputs": [],
      "stateMutability": "nonpayable",
      "type": "function"
    },
    {
      "inputs": [
        {
          "internalType": "uint256",
          "name": "_companyPerc",
          "type": "uint256"
        }
      ],
      "name": "setCompanyPerc",
      "outputs": [],
      "stateMutability": "nonpayable",
      "type": "function"
    },
    {
      "inputs": [
        {
          "internalType": "uint256",
          "name": "_expertPerc",
          "type": "uint256"
        }
      ],
      "name": "setExpertPerc",
      "outputs": [],
      "stateMutability": "nonpayable",
      "type": "function"
    },
    {
      "inputs": [
        {
          "internalType": "uint256",
          "name": "_firstWithdrawIndex",
          "type": "uint256"
        }
      ],
      "name": "setFirstWithdraw",
      "outputs": [],
      "stateMutability": "nonpayable",
      "type": "function"
    },
    {
      "inputs": [
        {
          "internalType": "uint256",
          "name": "_GFindex",
          "type": "uint256"
        }
      ],
      "name": "setGFindex",
      "outputs": [],
      "stateMutability": "nonpayable",
      "type": "function"
    },
    {
      "inputs": [
        {
          "internalType": "uint256",
          "name": "_GFrewards",
          "type": "uint256"
        }
      ],
      "name": "setGFrewards",
      "outputs": [],
      "stateMutability": "nonpayable",
      "type": "function"
    },
    {
      "inputs": [
        {
          "internalType": "uint256",
          "name": "_hostPerc",
          "type": "uint256"
        }
      ],
      "name": "setHostPerc",
      "outputs": [],
      "stateMutability": "nonpayable",
      "type": "function"
    },
    {
      "inputs": [
        {
          "internalType": "uint256",
          "name": "_playerPers",
          "type": "uint256"
        }
      ],
      "name": "setPlayerPers",
      "outputs": [],
      "stateMutability": "nonpayable",
      "type": "function"
    },
    {
      "inputs": [
        {
          "internalType": "uint256[]",
          "name": "_data",
          "type": "uint256[]"
        }
      ],
      "name": "setSort",
      "outputs": [],
      "stateMutability": "nonpayable",
      "type": "function"
    },
    {
      "inputs": [
        {
          "internalType": "uint256",
          "name": "_welcomeBTYTokens",
          "type": "uint256"
        }
      ],
      "name": "setWelcomeBTYTokens",
      "outputs": [],
      "stateMutability": "nonpayable",
      "type": "function"
    },
    {
      "inputs": [],
      "name": "sort",
      "outputs": [],
      "stateMutability": "nonpayable",
      "type": "function"
    },
    {
      "inputs": [
        {
          "internalType": "uint256",
          "name": "",
          "type": "uint256"
        }
      ],
      "name": "sortedArray",
      "outputs": [
        {
          "internalType": "uint256",
          "name": "",
          "type": "uint256"
        }
      ],
      "stateMutability": "view",
      "type": "function"
    },
    {
      "inputs": [
        {
          "internalType": "uint256",
          "name": "_startTime",
          "type": "uint256"
        },
        {
          "internalType": "uint256",
          "name": "_endTime",
          "type": "uint256"
        }
      ],
      "name": "timeAnswer",
      "outputs": [
        {
          "internalType": "int8",
          "name": "",
          "type": "int8"
        }
      ],
      "stateMutability": "view",
      "type": "function"
    },
    {
      "inputs": [
        {
          "internalType": "uint256",
          "name": "_endTime",
          "type": "uint256"
        }
      ],
      "name": "timeValidate",
      "outputs": [
        {
          "internalType": "int8",
          "name": "",
          "type": "int8"
        }
      ],
      "stateMutability": "view",
      "type": "function"
    },
    {
      "inputs": [],
      "name": "welcomeBTYTokens",
      "outputs": [
        {
          "internalType": "uint256",
          "name": "",
          "type": "uint256"
        }
      ],
      "stateMutability": "view",
      "type": "function"
    },
    {
      "inputs": [
        {
          "internalType": "int256",
          "name": "_id",
          "type": "int256"
        },
        {
          "internalType": "uint256",
          "name": "_startTime",
          "type": "uint256"
        },
        {
          "internalType": "uint256",
          "name": "_endTime",
          "type": "uint256"
        },
        {
          "internalType": "uint8",
          "name": "_questAmount",
          "type": "uint8"
        },
        {
          "internalType": "uint256",
          "name": "_amountExperts",
          "type": "uint256"
        },
        {
          "internalType": "bool",
          "name": "_calculateExperts",
          "type": "bool"
        },
        {
          "internalType": "address payable",
          "name": "_host",
          "type": "address"
        },
        {
          "internalType": "bool",
          "name": "_premium",
          "type": "bool"
        },
        {
          "internalType": "uint256",
          "name": "_amountPremiumEvent",
          "type": "uint256"
        }
      ],
      "name": "newEvent",
      "outputs": [],
      "stateMutability": "payable",
      "type": "function"
    },
    {
      "inputs": [
        {
          "internalType": "address payable",
          "name": "_advisor",
          "type": "address"
        },
        {
          "internalType": "int256",
          "name": "_id",
          "type": "int256"
        }
      ],
      "name": "addAdvisor",
      "outputs": [],
      "stateMutability": "nonpayable",
      "type": "function"
    },
    {
      "inputs": [
        {
          "internalType": "int256",
          "name": "_id",
          "type": "int256"
        },
        {
          "internalType": "uint8",
          "name": "_whichAnswer",
          "type": "uint8"
        },
        {
          "internalType": "uint256",
          "name": "_amount",
          "type": "uint256"
        },
        {
          "internalType": "address payable",
          "name": "_playerWallet",
          "type": "address"
        },
        {
          "internalType": "int256",
          "name": "_playerId",
          "type": "int256"
        },
        {
          "internalType": "uint8",
          "name": "_referrersDeep",
          "type": "uint8"
        }
      ],
      "name": "setAnswer",
      "outputs": [],
      "stateMutability": "payable",
      "type": "function"
    },
    {
      "inputs": [
        {
          "internalType": "string",
          "name": "_key",
          "type": "string"
        },
        {
          "internalType": "address payable[]",
          "name": "_referrers",
          "type": "address[]"
        }
      ],
      "name": "setReferrers",
      "outputs": [],
      "stateMutability": "nonpayable",
      "type": "function"
    },
    {
      "inputs": [
        {
          "internalType": "int256",
          "name": "_id",
          "type": "int256"
        },
        {
          "internalType": "uint8",
          "name": "_whichAnswer",
          "type": "uint8"
        },
        {
          "internalType": "address payable",
          "name": "_expertWallet",
          "type": "address"
        },
        {
          "internalType": "int256",
          "name": "_reputation",
          "type": "int256"
        }
      ],
      "name": "setValidator",
      "outputs": [],
      "stateMutability": "payable",
      "type": "function"
    },
    {
      "inputs": [
        {
          "internalType": "uint256",
          "name": "_amount",
          "type": "uint256"
        },
        {
          "internalType": "int256",
          "name": "_id",
          "type": "int256"
        }
      ],
      "name": "setActivePlayersFromOracl",
      "outputs": [],
      "stateMutability": "nonpayable",
      "type": "function"
    }
  ],
  "bytecode": "0x6080604052600a600455600a600555600a600655600a60095568056bc75e2d63100000600a556001600b55678ac7230489e80000600c55662386f26fc10000600f5534801561004d57600080fd5b5060405161398f38038061398f8339818101604052604081101561007057600080fd5b810190808051906020019092919080519060200190929190505050818133600860006101000a81548173ffffffffffffffffffffffffffffffffffffffff021916908373ffffffffffffffffffffffffffffffffffffffff16021790555081600d60006101000a81548173ffffffffffffffffffffffffffffffffffffffff021916908373ffffffffffffffffffffffffffffffffffffffff16021790555080600e60006101000a81548173ffffffffffffffffffffffffffffffffffffffff021916908373ffffffffffffffffffffffffffffffffffffffff1602179055505050505061382c806101636000396000f3fe60806040526004361061020f5760003560e01c8063896aa7a411610118578063cd095085116100a0578063e1aea5231161006f578063e1aea52314610bd2578063e2d914f214610c0d578063e787218314610c5c578063e79f365d14610cb5578063ef99e09914610cf05761020f565b8063cd09508514610afc578063ce44553c14610b27578063d7a86da714610b6c578063df18581714610ba75761020f565b80638fc8bc42116100e75780638fc8bc42146109f55780639580de6714610a20578063a03c669714610a5b578063b44901e814610a96578063c369085e14610ac15761020f565b8063896aa7a4146108f65780638bd6aefb146109215780638cdc86a61461099d5780638da5cb5b146109b45761020f565b8063506d05cf1161019b578063769c48981161016a578063769c48981461069d57806378691f161461076f578063792e146e146107b05780637dbb9dfa146107f557806388d9dd49146108915761020f565b8063506d05cf1461057a57806353bdb062146105bb57806354f6db74146106165780636afd7b7f146106725761020f565b806324467c45116101e257806324467c45146103d2578063246fe6471461040d5780632d0e277c1461045f5780632e63e4521461048a5780633b97b5d6146104b55761020f565b80630328ff4a1461021457806315cfe4191461024f5780631882efe01461027a57806319d6b7d814610397575b600080fd5b34801561022057600080fd5b5061024d6004803603602081101561023757600080fd5b8101908080359060200190929190505050610d1b565b005b34801561025b57600080fd5b50610264610dcb565b6040518082815260200191505060405180910390f35b34801561028657600080fd5b506103956004803603604081101561029d57600080fd5b81019080803590602001906401000000008111156102ba57600080fd5b8201836020820111156102cc57600080fd5b803590602001918460018302840111640100000000831117156102ee57600080fd5b91908080601f016020809104026020016040519081016040528093929190818152602001838380828437600081840152601f19601f8201169050808301925050505050505091929192908035906020019064010000000081111561035157600080fd5b82018360208201111561036357600080fd5b8035906020019184602083028401116401000000008311171561038557600080fd5b9091929391929390505050610dd1565b005b3480156103a357600080fd5b506103d0600480360360208110156103ba57600080fd5b8101908080359060200190929190505050610ef8565b005b3480156103de57600080fd5b5061040b600480360360208110156103f557600080fd5b8101908080359060200190929190505050610fa8565b005b34801561041957600080fd5b506104466004803603602081101561043057600080fd5b8101908080359060200190929190505050611058565b604051808260000b815260200191505060405180910390f35b34801561046b57600080fd5b50610474611076565b6040518082815260200191505060405180910390f35b34801561049657600080fd5b5061049f61107c565b6040518082815260200191505060405180910390f35b3480156104c157600080fd5b50610578600480360360208110156104d857600080fd5b81019080803590602001906401000000008111156104f557600080fd5b82018360208201111561050757600080fd5b8035906020019184602083028401116401000000008311171561052957600080fd5b919080806020026020016040519081016040528093929190818152602001838360200280828437600081840152601f19601f820116905080830192505050505050509192919290505050611082565b005b34801561058657600080fd5b5061058f61109c565b604051808273ffffffffffffffffffffffffffffffffffffffff16815260200191505060405180910390f35b3480156105c757600080fd5b50610614600480360360408110156105de57600080fd5b81019080803573ffffffffffffffffffffffffffffffffffffffff169060200190929190803590602001909291905050506110c2565b005b34801561062257600080fd5b506106596004803603604081101561063957600080fd5b8101908080359060200190929190803590602001909291905050506111c0565b604051808260000b815260200191505060405180910390f35b34801561067e57600080fd5b506106876111f2565b6040518082815260200191505060405180910390f35b3480156106a957600080fd5b5061076d600480360360408110156106c057600080fd5b8101908080359060200190929190803590602001906401000000008111156106e757600080fd5b8201836020820111156106f957600080fd5b8035906020019184600183028401116401000000008311171561071b57600080fd5b91908080601f016020809104026020016040519081016040528093929190818152602001838380828437600081840152601f19601f8201169050808301925050505050505091929192905050506111f8565b005b34801561077b57600080fd5b506107846112ac565b604051808273ffffffffffffffffffffffffffffffffffffffff16815260200191505060405180910390f35b3480156107bc57600080fd5b506107f3600480360360408110156107d357600080fd5b8101908080359060200190929190803590602001909291905050506112d2565b005b61088f600480360361012081101561080c57600080fd5b81019080803590602001909291908035906020019092919080359060200190929190803560ff16906020019092919080359060200190929190803515159060200190929190803573ffffffffffffffffffffffffffffffffffffffff16906020019092919080351515906020019092919080359060200190929190505050611396565b005b6108f4600480360360808110156108a757600080fd5b8101908080359060200190929190803560ff169060200190929190803573ffffffffffffffffffffffffffffffffffffffff1690602001909291908035906020019092919050505061182a565b005b34801561090257600080fd5b5061090b611e13565b6040518082815260200191505060405180910390f35b61099b600480360360c081101561093757600080fd5b8101908080359060200190929190803560ff16906020019092919080359060200190929190803573ffffffffffffffffffffffffffffffffffffffff16906020019092919080359060200190929190803560ff169060200190929190505050611e19565b005b3480156109a957600080fd5b506109b2612631565b005b3480156109c057600080fd5b506109c961265c565b604051808273ffffffffffffffffffffffffffffffffffffffff16815260200191505060405180910390f35b348015610a0157600080fd5b50610a0a612682565b6040518082815260200191505060405180910390f35b348015610a2c57600080fd5b50610a5960048036036020811015610a4357600080fd5b8101908080359060200190929190505050612688565b005b348015610a6757600080fd5b50610a9460048036036020811015610a7e57600080fd5b8101908080359060200190929190505050612738565b005b348015610aa257600080fd5b50610aab6127e8565b6040518082815260200191505060405180910390f35b348015610acd57600080fd5b50610afa60048036036020811015610ae457600080fd5b81019080803590602001909291905050506127ee565b005b348015610b0857600080fd5b50610b1161289e565b6040518082815260200191505060405180910390f35b348015610b3357600080fd5b50610b6a60048036036040811015610b4a57600080fd5b8101908080359060200190929190803590602001909291905050506128a4565b005b348015610b7857600080fd5b50610ba560048036036020811015610b8f57600080fd5b8101908080359060200190929190505050612abe565b005b348015610bb357600080fd5b50610bbc612b6e565b6040518082815260200191505060405180910390f35b348015610bde57600080fd5b50610c0b60048036036020811015610bf557600080fd5b8101908080359060200190929190505050612b74565b005b348015610c1957600080fd5b50610c4660048036036020811015610c3057600080fd5b8101908080359060200190929190505050612c24565b6040518082815260200191505060405180910390f35b348015610c6857600080fd5b50610c9f60048036036040811015610c7f57600080fd5b810190808035906020019092919080359060200190929190505050612c48565b6040518082815260200191505060405180910390f35b348015610cc157600080fd5b50610cee60048036036020811015610cd857600080fd5b8101908080359060200190929190505050612c5f565b005b348015610cfc57600080fd5b50610d05612d43565b6040518082815260200191505060405180910390f35b600860009054906101000a900473ffffffffffffffffffffffffffffffffffffffff1673ffffffffffffffffffffffffffffffffffffffff163373ffffffffffffffffffffffffffffffffffffffff1614610dc1576040517f08c379a00000000000000000000000000000000000000000000000000000000081526004018080602001828103825260318152602001806137c66031913960400191505060405180910390fd5b8060058190555050565b600b5481565b600860009054906101000a900473ffffffffffffffffffffffffffffffffffffffff1673ffffffffffffffffffffffffffffffffffffffff163373ffffffffffffffffffffffffffffffffffffffff1614610e77576040517f08c379a00000000000000000000000000000000000000000000000000000000081526004018080602001828103825260318152602001806137c66031913960400191505060405180910390fd5b81816001856040518082805190602001908083835b60208310610eaf5780518252602082019150602081019050602083039250610e8c565b6001836020036101000a03801982511681845116808217855250505050505090500191505090815260200160405180910390206000019190610ef29291906135ad565b50505050565b600860009054906101000a900473ffffffffffffffffffffffffffffffffffffffff1673ffffffffffffffffffffffffffffffffffffffff163373ffffffffffffffffffffffffffffffffffffffff1614610f9e576040517f08c379a00000000000000000000000000000000000000000000000000000000081526004018080602001828103825260318152602001806137c66031913960400191505060405180910390fd5b80600c8190555050565b600860009054906101000a900473ffffffffffffffffffffffffffffffffffffffff1673ffffffffffffffffffffffffffffffffffffffff163373ffffffffffffffffffffffffffffffffffffffff161461104e576040517f08c379a00000000000000000000000000000000000000000000000000000000081526004018080602001828103825260318152602001806137c66031913960400191505060405180910390fd5b8060048190555050565b6000808242031261106c5760009050611071565b600190505b919050565b60035481565b600c5481565b806002908051906020019061109892919061364d565b5050565b600e60009054906101000a900473ffffffffffffffffffffffffffffffffffffffff1681565b600860009054906101000a900473ffffffffffffffffffffffffffffffffffffffff1673ffffffffffffffffffffffffffffffffffffffff163373ffffffffffffffffffffffffffffffffffffffff1614611168576040517f08c379a00000000000000000000000000000000000000000000000000000000081526004018080602001828103825260318152602001806137c66031913960400191505060405180910390fd5b81600080838152602001908152602001600020600b0160006101000a81548173ffffffffffffffffffffffffffffffffffffffff021916908373ffffffffffffffffffffffffffffffffffffffff1602179055505050565b600080834203126111e7576000428303126111de57600090506111ec565b600290506111ec565b600190505b92915050565b60045481565b600860009054906101000a900473ffffffffffffffffffffffffffffffffffffffff1673ffffffffffffffffffffffffffffffffffffffff163373ffffffffffffffffffffffffffffffffffffffff161461129e576040517f08c379a00000000000000000000000000000000000000000000000000000000081526004018080602001828103825260318152602001806137c66031913960400191505060405180910390fd5b6112a88282612d51565b5050565b600d60009054906101000a900473ffffffffffffffffffffffffffffffffffffffff1681565b600860009054906101000a900473ffffffffffffffffffffffffffffffffffffffff1673ffffffffffffffffffffffffffffffffffffffff163373ffffffffffffffffffffffffffffffffffffffff1614611378576040517f08c379a00000000000000000000000000000000000000000000000000000000081526004018080602001828103825260318152602001806137c66031913960400191505060405180910390fd5b81600080838152602001908152602001600020600901819055505050565b600860009054906101000a900473ffffffffffffffffffffffffffffffffffffffff1673ffffffffffffffffffffffffffffffffffffffff163373ffffffffffffffffffffffffffffffffffffffff161461143c576040517f08c379a00000000000000000000000000000000000000000000000000000000081526004018080602001828103825260318152602001806137c66031913960400191505060405180910390fd5b886000808b815260200190815260200160002060000181905550876000808b815260200190815260200160002060010181905550866000808b815260200190815260200160002060020181905550856000808b815260200190815260200160002060030160006101000a81548160ff021916908360ff160217905550846000808b815260200190815260200160002060090181905550826000808b8152602001908152602001600020600a0160016101000a81548173ffffffffffffffffffffffffffffffffffffffff021916908373ffffffffffffffffffffffffffffffffffffffff160217905550836000808b8152602001908152602001600020600a0160006101000a81548160ff021916908315150217905550816000808b8152602001908152602001600020600f0160016101000a81548160ff021916908315150217905550811561181f5780600e60009054906101000a900473ffffffffffffffffffffffffffffffffffffffff1673ffffffffffffffffffffffffffffffffffffffff1663dd62ed3e85306040518363ffffffff1660e01b8152600401808373ffffffffffffffffffffffffffffffffffffffff1681526020018273ffffffffffffffffffffffffffffffffffffffff1681526020019250505060206040518083038186803b15801561162e57600080fd5b505afa158015611642573d6000803e3d6000fd5b505050506040513d602081101561165857600080fd5b810190808051906020019092919050505010156116dd576040517f08c379a000000000000000000000000000000000000000000000000000000000815260040180806020018281038252600f8152602001807f416c6c6f77616e6365206572726f72000000000000000000000000000000000081525060200191505060405180910390fd5b600e60009054906101000a900473ffffffffffffffffffffffffffffffffffffffff1673ffffffffffffffffffffffffffffffffffffffff166323b872dd8430846040518463ffffffff1660e01b8152600401808473ffffffffffffffffffffffffffffffffffffffff1681526020018373ffffffffffffffffffffffffffffffffffffffff1681526020018281526020019350505050602060405180830381600087803b15801561178e57600080fd5b505af11580156117a2573d6000803e3d6000fd5b505050506040513d60208110156117b857600080fd5b810190808051906020019092919050505061181e576040517f08c379a00000000000000000000000000000000000000000000000000000000081526004018080602001828103825260278152602001806137296027913960400191505060405180910390fd5b5b505050505050505050565b600860009054906101000a900473ffffffffffffffffffffffffffffffffffffffff1673ffffffffffffffffffffffffffffffffffffffff163373ffffffffffffffffffffffffffffffffffffffff16146118d0576040517f08c379a00000000000000000000000000000000000000000000000000000000081526004018080602001828103825260318152602001806137c66031913960400191505060405180910390fd5b60006118f060008087815260200190815260200160002060020154611058565b60000b14611966576040517f08c379a00000000000000000000000000000000000000000000000000000000081526004018080602001828103825260118152602001807f54696d65206973206e6f742076616c696400000000000000000000000000000081525060200191505060405180910390fd5b6001151560008086815260200190815260200160002060050160008473ffffffffffffffffffffffffffffffffffffffff1673ffffffffffffffffffffffffffffffffffffffff16815260200190815260200160002060009054906101000a900460ff16151514611a22576040517f08c379a00000000000000000000000000000000000000000000000000000000081526004018080602001828103825260218152602001806137506021913960400191505060405180910390fd5b600080858152602001908152602001600020600f0160009054906101000a900460ff16611ab7576040517f08c379a00000000000000000000000000000000000000000000000000000000081526004018080602001828103825260118152602001807f6576656e7420697320726576657274656400000000000000000000000000000081525060200191505060405180910390fd5b60008085815260200190815260200160002060110160009054906101000a900460ff16611b4c576040517f08c379a000000000000000000000000000000000000000000000000000000000815260040180806020018281038252600f8152602001807f6576656e742069732066696e697368000000000000000000000000000000000081525060200191505060405180910390fd5b6000806000868152602001908152602001600020600601541415611c0d576001600080868152602001908152602001600020600f0160006101000a81548160ff0219169083151502179055507f847521552ad126e64c52b14640c804737bd67f2b6674309b332d1e5b17f857d18460405180828152602001806020018281038252601c8152602001807f646f206e6f74206861766520706c6179657273206f6e206576656e74000000008152506020019250505060405180910390a1611e0d565b600080858152602001908152602001600020600a0160009054906101000a900460ff168015611c515750600080600086815260200190815260200160002060090154145b15611caf577f7d056f7ad1cec2447e1046080437b34a925f7ddd6099486d01c4e0e01bd51a8c8460008087815260200190815260200160002060060154604051808381526020018281526020019250505060405180910390a1611e0c565b611cb761369a565b60405180604001604052808473ffffffffffffffffffffffffffffffffffffffff16815260200183815250905060008086815260200190815260200160002060070160008560ff16815260200190815260200160002081908060018154018082558091505060019003906000526020600020906002020160009091909190915060008201518160000160006101000a81548173ffffffffffffffffffffffffffffffffffffffff021916908373ffffffffffffffffffffffffffffffffffffffff160217905550602082015181600101555050600060016000808881526020019081526020016000206008015401905080600080888152602001908152602001600020600801819055506000808781526020019081526020016000206009015481148015611dfa5750600080600088815260200190815260200160002060090154115b15611e0957611e0886612c5f565b5b50505b5b50505050565b60065481565b600860009054906101000a900473ffffffffffffffffffffffffffffffffffffffff1673ffffffffffffffffffffffffffffffffffffffff163373ffffffffffffffffffffffffffffffffffffffff1614611ebf576040517f08c379a00000000000000000000000000000000000000000000000000000000081526004018080602001828103825260318152602001806137c66031913960400191505060405180910390fd5b6000611ef5600080898152602001908152602001600020600101546000808a8152602001908152602001600020600201546111c0565b60000b14611f6b576040517f08c379a00000000000000000000000000000000000000000000000000000000081526004018080602001828103825260118152602001807f54696d65206973206e6f742076616c696400000000000000000000000000000081525060200191505060405180910390fd5b600080878152602001908152602001600020600f0160009054906101000a900460ff16612000576040517f08c379a00000000000000000000000000000000000000000000000000000000081526004018080602001828103825260118152602001807f6576656e7420697320726576657274656400000000000000000000000000000081525060200191505060405180910390fd5b60008087815260200190815260200160002060110160009054906101000a900460ff16612095576040517f08c379a000000000000000000000000000000000000000000000000000000000815260040180806020018281038252600f8152602001807f6576656e742069732066696e697368000000000000000000000000000000000081525060200191505060405180910390fd5b6001151560008088815260200190815260200160002060050160008573ffffffffffffffffffffffffffffffffffffffff1673ffffffffffffffffffffffffffffffffffffffff16815260200190815260200160002060009054906101000a900460ff16151514612151576040517f08c379a00000000000000000000000000000000000000000000000000000000081526004018080602001828103825260218152602001806137506021913960400191505060405180910390fd5b600f548410156121ac576040517f08c379a00000000000000000000000000000000000000000000000000000000081526004018080602001828103825260318152602001806137716031913960400191505060405180910390fd5b6121b46136ca565b60405180608001604052808481526020018573ffffffffffffffffffffffffffffffffffffffff1681526020018681526020018360ff16815250905060008088815260200190815260200160002060040160008760ff1681526020019081526020016000208190806001815401808255809150506001900390600052602060002090600402016000909190919091506000820151816000015560208201518160010160006101000a81548173ffffffffffffffffffffffffffffffffffffffff021916908373ffffffffffffffffffffffffffffffffffffffff1602179055506040820151816002015560608201518160030160006101000a81548160ff021916908360ff1602179055505050600160008089815260200190815260200160002060050160008673ffffffffffffffffffffffffffffffffffffffff1673ffffffffffffffffffffffffffffffffffffffff16815260200190815260200160002060006101000a81548160ff02191690831515021790555060016000808981526020019081526020016000206006016000828254019250508190555084600080898152602001908152602001600020600d016000828254019250508190555084600d60009054906101000a900473ffffffffffffffffffffffffffffffffffffffff1673ffffffffffffffffffffffffffffffffffffffff1663dd62ed3e86306040518363ffffffff1660e01b8152600401808373ffffffffffffffffffffffffffffffffffffffff1681526020018273ffffffffffffffffffffffffffffffffffffffff1681526020019250505060206040518083038186803b15801561241b57600080fd5b505afa15801561242f573d6000803e3d6000fd5b505050506040513d602081101561244557600080fd5b810190808051906020019092919050505010156124ca576040517f08c379a000000000000000000000000000000000000000000000000000000000815260040180806020018281038252600f8152602001807f416c6c6f77616e6365206572726f72000000000000000000000000000000000081525060200191505060405180910390fd5b600d60009054906101000a900473ffffffffffffffffffffffffffffffffffffffff1673ffffffffffffffffffffffffffffffffffffffff166323b872dd8530886040518463ffffffff1660e01b8152600401808473ffffffffffffffffffffffffffffffffffffffff1681526020018373ffffffffffffffffffffffffffffffffffffffff1681526020018281526020019350505050602060405180830381600087803b15801561257b57600080fd5b505af115801561258f573d6000803e3d6000fd5b505050506040513d60208110156125a557600080fd5b8101908080519060200190929190505050612628576040517f08c379a000000000000000000000000000000000000000000000000000000000815260040180806020018281038252601f8152602001807f5472616e73666572204254592066726f6d20706c6179657273206572726f720081525060200191505060405180910390fd5b50505050505050565b600060028054905014156126445761265a565b61265960026000600160028054905003613083565b5b565b600860009054906101000a900473ffffffffffffffffffffffffffffffffffffffff1681565b60055481565b600860009054906101000a900473ffffffffffffffffffffffffffffffffffffffff1673ffffffffffffffffffffffffffffffffffffffff163373ffffffffffffffffffffffffffffffffffffffff161461272e576040517f08c379a00000000000000000000000000000000000000000000000000000000081526004018080602001828103825260318152602001806137c66031913960400191505060405180910390fd5b8060068190555050565b600860009054906101000a900473ffffffffffffffffffffffffffffffffffffffff1673ffffffffffffffffffffffffffffffffffffffff163373ffffffffffffffffffffffffffffffffffffffff16146127de576040517f08c379a00000000000000000000000000000000000000000000000000000000081526004018080602001828103825260318152602001806137c66031913960400191505060405180910390fd5b8060098190555050565b60095481565b600860009054906101000a900473ffffffffffffffffffffffffffffffffffffffff1673ffffffffffffffffffffffffffffffffffffffff163373ffffffffffffffffffffffffffffffffffffffff1614612894576040517f08c379a00000000000000000000000000000000000000000000000000000000081526004018080602001828103825260318152602001806137c66031913960400191505060405180910390fd5b80600b8190555050565b60075481565b600860009054906101000a900473ffffffffffffffffffffffffffffffffffffffff1673ffffffffffffffffffffffffffffffffffffffff163373ffffffffffffffffffffffffffffffffffffffff161461294a576040517f08c379a00000000000000000000000000000000000000000000000000000000081526004018080602001828103825260318152602001806137c66031913960400191505060405180910390fd5b80600080848152602001908152602001600020600e0181905550600061297282600454612c48565b9050600d60009054906101000a900473ffffffffffffffffffffffffffffffffffffffff1673ffffffffffffffffffffffffffffffffffffffff1663341ce1fc600860009054906101000a900473ffffffffffffffffffffffffffffffffffffffff16836040518363ffffffff1660e01b8152600401808373ffffffffffffffffffffffffffffffffffffffff16815260200182815260200192505050602060405180830381600087803b158015612a2957600080fd5b505af1158015612a3d573d6000803e3d6000fd5b505050506040513d6020811015612a5357600080fd5b8101908080519060200190929190505050612ab9576040517f08c379a00000000000000000000000000000000000000000000000000000000081526004018080602001828103825260248152602001806137a26024913960400191505060405180910390fd5b505050565b600860009054906101000a900473ffffffffffffffffffffffffffffffffffffffff1673ffffffffffffffffffffffffffffffffffffffff163373ffffffffffffffffffffffffffffffffffffffff1614612b64576040517f08c379a00000000000000000000000000000000000000000000000000000000081526004018080602001828103825260318152602001806137c66031913960400191505060405180910390fd5b80600a8190555050565b600a5481565b600860009054906101000a900473ffffffffffffffffffffffffffffffffffffffff1673ffffffffffffffffffffffffffffffffffffffff163373ffffffffffffffffffffffffffffffffffffffff1614612c1a576040517f08c379a00000000000000000000000000000000000000000000000000000000081526004018080602001828103825260318152602001806137c66031913960400191505060405180910390fd5b8060078190555050565b60028181548110612c3457600080fd5b906000526020600020016000915090505481565b6000606483830281612c5657fe5b04905092915050565b60008080600090505b60008085815260200190815260200160002060030160009054906101000a900460ff1660ff168160ff161015612d0f578260008086815260200190815260200160002060070160008360ff168152602001908152602001600020805490501115612d025760008085815260200190815260200160002060070160008260ff1681526020019081526020016000208054905092508060ff1691505b8080600101915050612c68565b50612d3e81838560008088815260200190815260200160002060030160009054906101000a900460ff166131cf565b505050565b6000600954600c5402905090565b60005b60008084815260200190815260200160002060030160009054906101000a900460ff1660ff168160ff161015612fac5760005b60008085815260200190815260200160002060040160008360ff168152602001908152602001600020805490508160ff161015612f9e57600d60009054906101000a900473ffffffffffffffffffffffffffffffffffffffff1673ffffffffffffffffffffffffffffffffffffffff1663a9059cbb60008087815260200190815260200160002060040160008560ff1681526020019081526020016000208360ff1681548110612e3357fe5b906000526020600020906004020160010160009054906101000a900473ffffffffffffffffffffffffffffffffffffffff1660008088815260200190815260200160002060040160008660ff1681526020019081526020016000208460ff1681548110612e9c57fe5b9060005260206000209060040201600201546040518363ffffffff1660e01b8152600401808373ffffffffffffffffffffffffffffffffffffffff16815260200182815260200192505050602060405180830381600087803b158015612f0157600080fd5b505af1158015612f15573d6000803e3d6000fd5b505050506040513d6020811015612f2b57600080fd5b8101908080519060200190929190505050612f91576040517f08c379a00000000000000000000000000000000000000000000000000000000081526004018080602001828103825260248152602001806137a26024913960400191505060405180910390fd5b8080600101915050612d87565b508080600101915050612d54565b506001600080848152602001908152602001600020600f0160006101000a81548160ff0219169083151502179055507f847521552ad126e64c52b14640c804737bd67f2b6674309b332d1e5b17f857d182826040518083815260200180602001828103825283818151815260200191508051906020019080838360005b83811015613044578082015181840152602081019050613029565b50505050905090810190601f1680156130715780820380516001836020036101000a031916815260200191505b50935050505060405180910390a15050565b6000829050600082905060008560028686038161309c57fe5b048601815481106130a957fe5b906000526020600020015490505b81831161319f575b808684815481106130cc57fe5b906000526020600020015410156130ea5782806001019350506130bf565b5b8582815481106130f757fe5b9060005260206000200154811015613117578180600190039250506130eb565b81831161319a5785828154811061312a57fe5b906000526020600020015486848154811061314157fe5b906000526020600020015487858154811061315857fe5b90600052602060002001600089868154811061317057fe5b90600052602060002001600084919050558391905055505082806001019350508180600190039250505b6130b7565b818510156131b3576131b2868684613083565b5b838310156131c7576131c6868486613083565b5b505050505050565b6001600080848152602001908152602001600020600801541115613401576000808260ff1667ffffffffffffffff8111801561320a57600080fd5b506040519080825280602002602001820160405280156132395781602001602082028036833780820191505090505b50905060005b8360ff168160ff1610156132a25760008086815260200190815260200160002060070160008260ff16815260200190815260200160002080549050828260ff168151811061328957fe5b602002602001018181525050808060010191505061323f565b506132ac81611082565b6132b4612631565b60005b6001600280549050038160ff161015613356576002805490506001820160ff1610156133495760028160ff16815481106132ed57fe5b906000526020600020015460026001830160ff168154811061330b57fe5b906000526020600020015414156133485760028160ff168154811061332c57fe5b90600052602060002001548614156133475782806001019350505b5b5b80806001019150506132b7565b5060008260ff1611156133d5576001600080868152602001908152602001600020600f0160006101000a81548160ff0219169083151502179055506133d0846040518060400160405280601581526020017f6475706c6963617465732076616c696461746f72730000000000000000000000815250612d51565b6133fa565b85600080868152602001908152602001600020600c01819055506133f9868561342c565b5b5050613426565b83600080848152602001908152602001600020600c0181905550613425848361342c565b5b50505050565b600080600080848152602001908152602001600020600401600085815260200190815260200160002080549050905060005b818160ff1610156134c05760008085815260200190815260200160002060040160008681526020019081526020016000208160ff168154811061349d57fe5b90600052602060002090600402016002015483019250808060010191505061345e565b50600082600080868152602001908152602001600020600d0154039050600081141561352a57613525846040518060400160405280601d81526020017f706c61796572732063686f7365206f6e6c79206f6e6520616e737765720000008152506111f8565b6135a6565b7fc564f1ce140502e31afce0f5ad54d2877ba2dc7bd1b1e78a40794842d8d9c5a78460008087815260200190815260200160002060060154600080888152602001908152602001600020600d0154600b546040518085815260200184815260200183815260200182815260200194505050505060405180910390a15b5050505050565b82805482825590600052602060002090810192821561363c579160200282015b8281111561363b57823573ffffffffffffffffffffffffffffffffffffffff168260006101000a81548173ffffffffffffffffffffffffffffffffffffffff021916908373ffffffffffffffffffffffffffffffffffffffff160217905550916020019190600101906135cd565b5b509050613649919061370b565b5090565b828054828255906000526020600020908101928215613689579160200282015b8281111561368857825182559160200191906001019061366d565b5b509050613696919061370b565b5090565b6040518060400160405280600073ffffffffffffffffffffffffffffffffffffffff168152602001600081525090565b604051806080016040528060008152602001600073ffffffffffffffffffffffffffffffffffffffff16815260200160008152602001600060ff1681525090565b5b8082111561372457600081600090555060010161370c565b509056fe5472616e736665722042545920746f6b656e7320666f722050524f206576656e74206572726f727573657220616c726561647920706172746963697061746520696e206576656e7462657420616d6f756e74206d75737420626520626967676572206f7220657175616c20746f20302e303120746f6b656e735265766572742042455420746f6b656e20746f20706c6179657273206973206572726f72546869732066756e6374696f6e20636f756c64206f6e6c7920626520657865637574656420627920746865206f776e6572a2646970667358221220563be535cb99e6664976dc1b1767ab098080693083d28aebef861b74f2b5abbf64736f6c63430007060033",
  "immutableReferences": {},
  "source": "// SPDX-License-Identifier: MIT\npragma solidity >=0.4.22 <0.9.0;\n\nimport {PubStruct} from \"../../struct/PubStruct.sol\";\nimport {TimeValidation} from \"../../helpers/TimeValidation.sol\";\nimport {BET} from \"../../tokens/BET.sol\";\nimport {BTY} from \"../../tokens/BTY.sol\";\nimport {FinishEvent} from \"./FinishEvent.sol\";\n\ncontract PublicEvents is\n    TimeValidation,\n    PubStruct,\n    FinishEvent\n{\n    event calculateExpert(int256 id, uint256 activePlayers);\n    constructor(BET _betAddress, BTY _btyAddress) FinishEvent(_betAddress, _btyAddress){}\n    uint256 minBet = 10000000000000000;\n\n    function newEvent(\n        int256 _id,\n        uint256 _startTime,\n        uint256 _endTime,\n        uint8 _questAmount,\n        uint256 _amountExperts,\n        bool _calculateExperts,\n        address payable _host,\n        bool _premium,\n        uint256 _amountPremiumEvent\n    ) public payable ownerOnly() {\n        events[_id].id = _id;\n        events[_id].startTime = _startTime;\n        events[_id].endTime = _endTime;\n        events[_id].questAmount = _questAmount;\n        events[_id].amountExperts = _amountExperts;\n        events[_id].host = _host;\n        events[_id].calculateExperts = _calculateExperts;\n        events[_id].premium = _premium;\n        if (_premium) {\n            require(\n                btyToken.allowance(_host, address(this)) >= _amountPremiumEvent,\n                \"Allowance error\"\n            );\n            require(\n                btyToken.transferFrom(\n                    _host,\n                    address(this),\n                    _amountPremiumEvent\n                ),\n                \"Transfer BTY tokens for PRO event error\"\n            );\n        }\n    }\n\n    function addAdvisor(address payable _advisor, int256 _id) public ownerOnly(){\n          events[_id].advisor = _advisor;\n    }\n\n    function setAnswer(\n        int256 _id,\n        uint8 _whichAnswer,\n        uint256 _amount,\n        address payable _playerWallet,\n        int256 _playerId,\n        uint8 _referrersDeep\n    ) public payable ownerOnly() {\n        require(\n            timeAnswer(events[_id].startTime, events[_id].endTime) == 0,\n            \"Time is not valid\"\n        );\n        require(events[_id].reverted, \"event is reverted\");\n        require(events[_id].eventFinish, \"event is finish\");\n        require(\n            events[_id].allPlayers[_playerWallet] == true,\n            \"user already participate in event\"\n        );\n        require(_amount >= minBet, \"bet amount must be bigger or equal to 0.01 tokens\" );\n\n        PubStruct.Player memory player;\n        player = PubStruct.Player(_playerId, _playerWallet, _amount, _referrersDeep);\n        events[_id].players[_whichAnswer].push(player);\n        events[_id].allPlayers[_playerWallet] = true;\n        events[_id].activePlayers += 1;\n        events[_id].pool += _amount;\n\n        require(\n            betToken.allowance(_playerWallet, address(this)) >= _amount,\n            \"Allowance error\"\n        );\n        require(\n            betToken.transferFrom(_playerWallet, address(this), _amount),\n            \"Transfer BTY from players error\"\n        );\n    }\n\n    function setReferrers(string memory _key, address payable[] calldata _referrers) public ownerOnly(){\n        referrers[_key].referrer = _referrers;\n    }\n\n    function setValidator(\n        int256 _id,\n        uint8 _whichAnswer,\n        address payable _expertWallet,\n        int256 _reputation\n    ) public payable ownerOnly() {\n        require(timeValidate(events[_id].endTime) == 0, \"Time is not valid\");\n        require(\n            events[_id].allPlayers[_expertWallet] == true,\n            \"user already participate in event\"\n        );\n        require(events[_id].reverted, \"event is reverted\");\n        require(events[_id].eventFinish, \"event is finish\");\n\n        if (events[_id].activePlayers == 0) {\n            events[_id].reverted = true;\n            emit revertedEvent(_id, \"do not have players on event\");\n        } else {\n            if (\n                events[_id].calculateExperts && events[_id].amountExperts == 0\n            ) {\n                emit calculateExpert(_id, events[_id].activePlayers);\n            } else {\n                PubStruct.Expert memory expert;\n                expert = PubStruct.Expert(_expertWallet, _reputation);\n                events[_id].expert[_whichAnswer].push(expert);\n                uint256 active = events[_id].activeExperts + 1;\n                events[_id].activeExperts = active;\n\n                if (active == events[_id].amountExperts && events[_id].amountExperts > 0) {\n                    letsFindCorrectAnswer(_id);\n                }\n            }\n        }\n    }\n\n    function setActivePlayersFromOracl(uint256 _amount, int256 _id) public ownerOnly {\n        events[_id].amountExperts = _amount;\n    }\n\n}\n",
  "sourcePath": "/Users/macbook/Documents/freelance/tokenominc/contracts/events/PublicEvents/PublicEvents.sol",
  "compiler": {
    "name": "solc",
    "version": "0.7.6+commit.7338295f.Linux.g++"
  },
  "schemaVersion": "3.2.2",
  "updatedAt": "2021-03-01T13:44:40.712Z",
  "devdoc": {
    "kind": "dev",
    "methods": {},
    "version": 1
  },
  "userdoc": {
    "kind": "user",
    "methods": {},
    "version": 1
  }
}