{
  "contractName": "PublicEvents",
  "abi": [
    {
      "inputs": [
        {
          "internalType": "contract BET",
          "name": "_betAddress",
          "type": "address"
        },
        {
          "internalType": "contract BTY",
          "name": "_btyAddress",
          "type": "address"
        }
      ],
      "stateMutability": "nonpayable",
      "type": "constructor"
    },
    {
      "anonymous": false,
      "inputs": [
        {
          "indexed": false,
          "internalType": "int256",
          "name": "id",
          "type": "int256"
        },
        {
          "indexed": false,
          "internalType": "uint256",
          "name": "activePlayers",
          "type": "uint256"
        }
      ],
      "name": "calculateExpert",
      "type": "event"
    },
    {
      "anonymous": false,
      "inputs": [
        {
          "indexed": false,
          "internalType": "int256",
          "name": "id",
          "type": "int256"
        }
      ],
      "name": "findCorrectAnswer",
      "type": "event"
    },
    {
      "anonymous": false,
      "inputs": [
        {
          "indexed": false,
          "internalType": "int256",
          "name": "id",
          "type": "int256"
        },
        {
          "indexed": false,
          "internalType": "string",
          "name": "purpose",
          "type": "string"
        }
      ],
      "name": "revertedEvent",
      "type": "event"
    },
    {
      "inputs": [],
      "name": "betToken",
      "outputs": [
        {
          "internalType": "contract BET",
          "name": "",
          "type": "address"
        }
      ],
      "stateMutability": "view",
      "type": "function"
    },
    {
      "inputs": [],
      "name": "btyToken",
      "outputs": [
        {
          "internalType": "contract BTY",
          "name": "",
          "type": "address"
        }
      ],
      "stateMutability": "view",
      "type": "function"
    },
    {
      "inputs": [
        {
          "internalType": "int256",
          "name": "",
          "type": "int256"
        }
      ],
      "name": "events",
      "outputs": [
        {
          "internalType": "int256",
          "name": "id",
          "type": "int256"
        },
        {
          "internalType": "uint256",
          "name": "startTime",
          "type": "uint256"
        },
        {
          "internalType": "uint256",
          "name": "endTime",
          "type": "uint256"
        },
        {
          "internalType": "uint256",
          "name": "questAmount",
          "type": "uint256"
        },
        {
          "internalType": "uint256",
          "name": "activePlayers",
          "type": "uint256"
        },
        {
          "internalType": "uint256",
          "name": "activeExperts",
          "type": "uint256"
        },
        {
          "internalType": "uint256",
          "name": "amountExperts",
          "type": "uint256"
        },
        {
          "internalType": "bool",
          "name": "calculateExperts",
          "type": "bool"
        },
        {
          "internalType": "address payable",
          "name": "host",
          "type": "address"
        },
        {
          "internalType": "address payable",
          "name": "advisor",
          "type": "address"
        },
        {
          "internalType": "uint256",
          "name": "pool",
          "type": "uint256"
        },
        {
          "internalType": "uint256",
          "name": "premiumAmount",
          "type": "uint256"
        }
      ],
      "stateMutability": "view",
      "type": "function"
    },
    {
      "inputs": [
        {
          "internalType": "int256",
          "name": "_id",
          "type": "int256"
        }
      ],
      "name": "getActivePlayers",
      "outputs": [
        {
          "internalType": "uint256",
          "name": "",
          "type": "uint256"
        }
      ],
      "stateMutability": "view",
      "type": "function"
    },
    {
      "inputs": [
        {
          "internalType": "int256",
          "name": "_id",
          "type": "int256"
        }
      ],
      "name": "getAdvisorAddr",
      "outputs": [
        {
          "internalType": "address",
          "name": "",
          "type": "address"
        }
      ],
      "stateMutability": "view",
      "type": "function"
    },
    {
      "inputs": [
        {
          "internalType": "int256",
          "name": "_id",
          "type": "int256"
        },
        {
          "internalType": "uint256",
          "name": "i",
          "type": "uint256"
        }
      ],
      "name": "getExpertAmount",
      "outputs": [
        {
          "internalType": "uint256",
          "name": "",
          "type": "uint256"
        }
      ],
      "stateMutability": "view",
      "type": "function"
    },
    {
      "inputs": [
        {
          "internalType": "int256",
          "name": "_id",
          "type": "int256"
        },
        {
          "internalType": "uint256",
          "name": "i",
          "type": "uint256"
        },
        {
          "internalType": "uint256",
          "name": "z",
          "type": "uint256"
        }
      ],
      "name": "getExpertReput",
      "outputs": [
        {
          "internalType": "int256",
          "name": "",
          "type": "int256"
        }
      ],
      "stateMutability": "view",
      "type": "function"
    },
    {
      "inputs": [
        {
          "internalType": "int256",
          "name": "_id",
          "type": "int256"
        },
        {
          "internalType": "uint256",
          "name": "i",
          "type": "uint256"
        },
        {
          "internalType": "uint256",
          "name": "z",
          "type": "uint256"
        }
      ],
      "name": "getExpertWallet",
      "outputs": [
        {
          "internalType": "address payable",
          "name": "",
          "type": "address"
        }
      ],
      "stateMutability": "view",
      "type": "function"
    },
    {
      "inputs": [
        {
          "internalType": "int256",
          "name": "_id",
          "type": "int256"
        }
      ],
      "name": "getHostAddr",
      "outputs": [
        {
          "internalType": "address",
          "name": "",
          "type": "address"
        }
      ],
      "stateMutability": "view",
      "type": "function"
    },
    {
      "inputs": [
        {
          "internalType": "int256",
          "name": "_id",
          "type": "int256"
        },
        {
          "internalType": "uint256",
          "name": "i",
          "type": "uint256"
        }
      ],
      "name": "getPlayerAmount",
      "outputs": [
        {
          "internalType": "uint256",
          "name": "",
          "type": "uint256"
        }
      ],
      "stateMutability": "view",
      "type": "function"
    },
    {
      "inputs": [
        {
          "internalType": "int256",
          "name": "_id",
          "type": "int256"
        },
        {
          "internalType": "uint256",
          "name": "i",
          "type": "uint256"
        },
        {
          "internalType": "uint256",
          "name": "z",
          "type": "uint256"
        }
      ],
      "name": "getPlayerTokens",
      "outputs": [
        {
          "internalType": "uint256",
          "name": "",
          "type": "uint256"
        }
      ],
      "stateMutability": "view",
      "type": "function"
    },
    {
      "inputs": [
        {
          "internalType": "int256",
          "name": "_id",
          "type": "int256"
        },
        {
          "internalType": "uint256",
          "name": "i",
          "type": "uint256"
        },
        {
          "internalType": "uint256",
          "name": "z",
          "type": "uint256"
        }
      ],
      "name": "getPlayerWallet",
      "outputs": [
        {
          "internalType": "address payable",
          "name": "",
          "type": "address"
        }
      ],
      "stateMutability": "view",
      "type": "function"
    },
    {
      "inputs": [
        {
          "internalType": "int256",
          "name": "_id",
          "type": "int256"
        }
      ],
      "name": "getPool",
      "outputs": [
        {
          "internalType": "uint256",
          "name": "",
          "type": "uint256"
        }
      ],
      "stateMutability": "view",
      "type": "function"
    },
    {
      "inputs": [
        {
          "internalType": "int256",
          "name": "_id",
          "type": "int256"
        }
      ],
      "name": "getPremiumAmount",
      "outputs": [
        {
          "internalType": "uint256",
          "name": "",
          "type": "uint256"
        }
      ],
      "stateMutability": "view",
      "type": "function"
    },
    {
      "inputs": [
        {
          "internalType": "int256",
          "name": "_id",
          "type": "int256"
        }
      ],
      "name": "getQuestAmount",
      "outputs": [
        {
          "internalType": "uint256",
          "name": "",
          "type": "uint256"
        }
      ],
      "stateMutability": "view",
      "type": "function"
    },
    {
      "inputs": [
        {
          "internalType": "uint256",
          "name": "_startTime",
          "type": "uint256"
        },
        {
          "internalType": "uint256",
          "name": "_endTime",
          "type": "uint256"
        }
      ],
      "name": "timeAnswer",
      "outputs": [
        {
          "internalType": "int8",
          "name": "",
          "type": "int8"
        }
      ],
      "stateMutability": "view",
      "type": "function"
    },
    {
      "inputs": [
        {
          "internalType": "uint256",
          "name": "_endTime",
          "type": "uint256"
        }
      ],
      "name": "timeValidate",
      "outputs": [
        {
          "internalType": "int8",
          "name": "",
          "type": "int8"
        }
      ],
      "stateMutability": "view",
      "type": "function"
    },
    {
      "inputs": [
        {
          "internalType": "address",
          "name": "_mpaddr",
          "type": "address"
        },
        {
          "internalType": "address",
          "name": "_ppaddr",
          "type": "address"
        }
      ],
      "name": "setAddresses",
      "outputs": [],
      "stateMutability": "nonpayable",
      "type": "function"
    },
    {
      "inputs": [
        {
          "internalType": "int256",
          "name": "_id",
          "type": "int256"
        },
        {
          "internalType": "uint256",
          "name": "_sT",
          "type": "uint256"
        },
        {
          "internalType": "uint256",
          "name": "_eT",
          "type": "uint256"
        },
        {
          "internalType": "uint256",
          "name": "_questAmount",
          "type": "uint256"
        },
        {
          "internalType": "uint256",
          "name": "_amountExp",
          "type": "uint256"
        },
        {
          "internalType": "bool",
          "name": "_calcExp",
          "type": "bool"
        },
        {
          "internalType": "address payable",
          "name": "_host",
          "type": "address"
        },
        {
          "internalType": "uint256",
          "name": "_amountPrem",
          "type": "uint256"
        }
      ],
      "name": "newEvent",
      "outputs": [],
      "stateMutability": "payable",
      "type": "function"
    },
    {
      "inputs": [
        {
          "internalType": "address payable",
          "name": "_advisor",
          "type": "address"
        },
        {
          "internalType": "int256",
          "name": "_id",
          "type": "int256"
        }
      ],
      "name": "addAdvisor",
      "outputs": [],
      "stateMutability": "nonpayable",
      "type": "function"
    },
    {
      "inputs": [
        {
          "internalType": "int256",
          "name": "_id",
          "type": "int256"
        },
        {
          "internalType": "uint256",
          "name": "_answer",
          "type": "uint256"
        },
        {
          "internalType": "uint256",
          "name": "_amount",
          "type": "uint256"
        },
        {
          "internalType": "address payable",
          "name": "_pWallet",
          "type": "address"
        },
        {
          "internalType": "int256",
          "name": "_playerId",
          "type": "int256"
        },
        {
          "internalType": "uint256",
          "name": "_refDeep",
          "type": "uint256"
        }
      ],
      "name": "setAnswer",
      "outputs": [],
      "stateMutability": "payable",
      "type": "function"
    },
    {
      "inputs": [
        {
          "internalType": "string",
          "name": "_key",
          "type": "string"
        },
        {
          "internalType": "address payable[]",
          "name": "_referrers",
          "type": "address[]"
        }
      ],
      "name": "setReferrers",
      "outputs": [],
      "stateMutability": "nonpayable",
      "type": "function"
    },
    {
      "inputs": [
        {
          "internalType": "int256",
          "name": "_id",
          "type": "int256"
        },
        {
          "internalType": "uint256",
          "name": "_answer",
          "type": "uint256"
        },
        {
          "internalType": "address payable",
          "name": "_eWallet",
          "type": "address"
        },
        {
          "internalType": "int256",
          "name": "_reput",
          "type": "int256"
        }
      ],
      "name": "setValidator",
      "outputs": [],
      "stateMutability": "payable",
      "type": "function"
    },
    {
      "inputs": [
        {
          "internalType": "uint256",
          "name": "_amount",
          "type": "uint256"
        },
        {
          "internalType": "int256",
          "name": "_id",
          "type": "int256"
        }
      ],
      "name": "setActiveExpertsFromOracl",
      "outputs": [],
      "stateMutability": "nonpayable",
      "type": "function"
    },
    {
      "inputs": [
        {
          "internalType": "address",
          "name": "_addr",
          "type": "address"
        },
        {
          "internalType": "uint256",
          "name": "_amount",
          "type": "uint256"
        }
      ],
      "name": "mint",
      "outputs": [
        {
          "internalType": "bool",
          "name": "",
          "type": "bool"
        }
      ],
      "stateMutability": "nonpayable",
      "type": "function"
    },
    {
      "inputs": [
        {
          "internalType": "address",
          "name": "_addr",
          "type": "address"
        },
        {
          "internalType": "uint256",
          "name": "_amount",
          "type": "uint256"
        }
      ],
      "name": "pay",
      "outputs": [
        {
          "internalType": "bool",
          "name": "",
          "type": "bool"
        }
      ],
      "stateMutability": "nonpayable",
      "type": "function"
    },
    {
      "inputs": [
        {
          "internalType": "address",
          "name": "_addr",
          "type": "address"
        },
        {
          "internalType": "uint256",
          "name": "_amount",
          "type": "uint256"
        }
      ],
      "name": "payBTY",
      "outputs": [
        {
          "internalType": "bool",
          "name": "",
          "type": "bool"
        }
      ],
      "stateMutability": "nonpayable",
      "type": "function"
    }
  ],
  "bytecode": "0x6080604052662386f26fc1000060025534801561001b57600080fd5b506040516135a93803806135a98339818101604052604081101561003e57600080fd5b81019080805190602001909291908051906020019092919050505081600360006101000a81548173ffffffffffffffffffffffffffffffffffffffff021916908373ffffffffffffffffffffffffffffffffffffffff16021790555080600460006101000a81548173ffffffffffffffffffffffffffffffffffffffff021916908373ffffffffffffffffffffffffffffffffffffffff16021790555033600660006101000a81548173ffffffffffffffffffffffffffffffffffffffff021916908373ffffffffffffffffffffffffffffffffffffffff160217905550505061347c8061012d6000396000f3fe60806040526004361061019c5760003560e01c806354f6db74116100ec57806390107afe1161008a578063c407687611610064578063c407687614610b53578063f438835c14610bc4578063f46cf83814610c29578063f946c20714610ca25761019c565b806390107afe14610a315780639147f01714610aa2578063a96c2aea14610b045761019c565b806378691f16116100c657806378691f16146108c55780637c997f6714610906578063805591731461097f578063859f0f6a146109ce5761019c565b806354f6db741461078357806371aee945146107df578063730f3d14146108385761019c565b806340c10f19116101595780634a30062b116101335780634a30062b146105d85780634c30a15a1461061d578063506d05cf146106e757806353bdb062146107285761019c565b806340c10f191461049157806342f1bb8d14610502578063458a8079146105675761019c565b80630569ae99146101a15780631882efe01461020457806323c8778e14610321578063246fe6471461037a57806330286c37146103cc578063377e2c7c1461041b575b600080fd5b3480156101ad57600080fd5b506101ee600480360360608110156101c457600080fd5b81019080803590602001909291908035906020019092919080359060200190929190505050610cf1565b6040518082815260200191505060405180910390f35b34801561021057600080fd5b5061031f6004803603604081101561022757600080fd5b810190808035906020019064010000000081111561024457600080fd5b82018360208201111561025657600080fd5b8035906020019184600183028401116401000000008311171561027857600080fd5b91908080601f016020809104026020016040519081016040528093929190818152602001838380828437600081840152601f19601f820116905080830192505050505050509192919290803590602001906401000000008111156102db57600080fd5b8201836020820111156102ed57600080fd5b8035906020019184602083028401116401000000008311171561030f57600080fd5b9091929391929390505050610d3f565b005b34801561032d57600080fd5b506103646004803603604081101561034457600080fd5b810190808035906020019092919080359060200190929190505050610e83565b6040518082815260200191505060405180910390f35b34801561038657600080fd5b506103b36004803603602081101561039d57600080fd5b8101908080359060200190929190505050610eb7565b604051808260000b815260200191505060405180910390f35b3480156103d857600080fd5b50610405600480360360208110156103ef57600080fd5b8101908080359060200190929190505050610ed5565b6040518082815260200191505060405180910390f35b61048f600480360360c081101561043157600080fd5b81019080803590602001909291908035906020019092919080359060200190929190803573ffffffffffffffffffffffffffffffffffffffff1690602001909291908035906020019092919080359060200190929190505050610ef4565b005b34801561049d57600080fd5b506104ea600480360360408110156104b457600080fd5b81019080803573ffffffffffffffffffffffffffffffffffffffff16906020019092919080359060200190929190505050611833565b60405180821515815260200191505060405180910390f35b34801561050e57600080fd5b5061053b6004803603602081101561052557600080fd5b8101908080359060200190929190505050611a9a565b604051808273ffffffffffffffffffffffffffffffffffffffff16815260200191505060405180910390f35b34801561057357600080fd5b506105c06004803603604081101561058a57600080fd5b81019080803573ffffffffffffffffffffffffffffffffffffffff16906020019092919080359060200190929190505050611ad9565b60405180821515815260200191505060405180910390f35b3480156105e457600080fd5b5061061b600480360360408110156105fb57600080fd5b810190808035906020019092919080359060200190929190505050611d40565b005b34801561062957600080fd5b506106566004803603602081101561064057600080fd5b8101908080359060200190929190505050611e21565b604051808d81526020018c81526020018b81526020018a815260200189815260200188815260200187815260200186151581526020018573ffffffffffffffffffffffffffffffffffffffff1681526020018473ffffffffffffffffffffffffffffffffffffffff1681526020018381526020018281526020019c5050505050505050505050505060405180910390f35b3480156106f357600080fd5b506106fc611ece565b604051808273ffffffffffffffffffffffffffffffffffffffff16815260200191505060405180910390f35b34801561073457600080fd5b506107816004803603604081101561074b57600080fd5b81019080803573ffffffffffffffffffffffffffffffffffffffff16906020019092919080359060200190929190505050611ef4565b005b34801561078f57600080fd5b506107c6600480360360408110156107a657600080fd5b81019080803590602001909291908035906020019092919050505061200f565b604051808260000b815260200191505060405180910390f35b3480156107eb57600080fd5b506108226004803603604081101561080257600080fd5b810190808035906020019092919080359060200190929190505050612041565b6040518082815260200191505060405180910390f35b6108c3600480360361010081101561084f57600080fd5b810190808035906020019092919080359060200190929190803590602001909291908035906020019092919080359060200190929190803515159060200190929190803573ffffffffffffffffffffffffffffffffffffffff16906020019092919080359060200190929190505050612075565b005b3480156108d157600080fd5b506108da61251e565b604051808273ffffffffffffffffffffffffffffffffffffffff16815260200191505060405180910390f35b34801561091257600080fd5b506109536004803603606081101561092957600080fd5b81019080803590602001909291908035906020019092919080359060200190929190505050612544565b604051808273ffffffffffffffffffffffffffffffffffffffff16815260200191505060405180910390f35b34801561098b57600080fd5b506109b8600480360360208110156109a257600080fd5b81019080803590602001909291905050506125b2565b6040518082815260200191505060405180910390f35b3480156109da57600080fd5b50610a1b600480360360608110156109f157600080fd5b810190808035906020019092919080359060200190929190803590602001909291905050506125d1565b6040518082815260200191505060405180910390f35b348015610a3d57600080fd5b50610aa060048036036040811015610a5457600080fd5b81019080803573ffffffffffffffffffffffffffffffffffffffff169060200190929190803573ffffffffffffffffffffffffffffffffffffffff16906020019092919050505061261f565b005b610b0260048036036080811015610ab857600080fd5b810190808035906020019092919080359060200190929190803573ffffffffffffffffffffffffffffffffffffffff169060200190929190803590602001909291905050506127a9565b005b348015610b1057600080fd5b50610b3d60048036036020811015610b2757600080fd5b8101908080359060200190929190505050612f77565b6040518082815260200191505060405180910390f35b348015610b5f57600080fd5b50610bac60048036036040811015610b7657600080fd5b81019080803573ffffffffffffffffffffffffffffffffffffffff16906020019092919080359060200190929190505050612f96565b60405180821515815260200191505060405180910390f35b348015610bd057600080fd5b50610bfd60048036036020811015610be757600080fd5b81019080803590602001909291905050506131fd565b604051808273ffffffffffffffffffffffffffffffffffffffff16815260200191505060405180910390f35b348015610c3557600080fd5b50610c7660048036036060811015610c4c57600080fd5b8101908080359060200190929190803590602001909291908035906020019092919050505061323c565b604051808273ffffffffffffffffffffffffffffffffffffffff16815260200191505060405180910390f35b348015610cae57600080fd5b50610cdb60048036036020811015610cc557600080fd5b81019080803590602001909291905050506132aa565b6040518082815260200191505060405180910390f35b600080600085815260200190815260200160002060070160008481526020019081526020016000208281548110610d2457fe5b90600052602060002090600202016001015490509392505050565b600660009054906101000a900473ffffffffffffffffffffffffffffffffffffffff1673ffffffffffffffffffffffffffffffffffffffff163373ffffffffffffffffffffffffffffffffffffffff1614610e02576040517f08c379a000000000000000000000000000000000000000000000000000000000815260040180806020018281038252600a8152602001807f6f776e6572206f6e6c790000000000000000000000000000000000000000000081525060200191505060405180910390fd5b81816001856040518082805190602001908083835b60208310610e3a5780518252602082019150602081019050602083039250610e17565b6001836020036101000a03801982511681845116808217855250505050505090500191505090815260200160405180910390206000019190610e7d9291906132c9565b50505050565b6000806000848152602001908152602001600020600701600083815260200190815260200160002080549050905092915050565b60008082420312610ecb5760009050610ed0565b600190505b919050565b6000806000838152602001908152602001600020600c01549050919050565b600660009054906101000a900473ffffffffffffffffffffffffffffffffffffffff1673ffffffffffffffffffffffffffffffffffffffff163373ffffffffffffffffffffffffffffffffffffffff1614610fb7576040517f08c379a000000000000000000000000000000000000000000000000000000000815260040180806020018281038252600a8152602001807f6f776e6572206f6e6c790000000000000000000000000000000000000000000081525060200191505060405180910390fd5b6000610fed600080898152602001908152602001600020600101546000808a81526020019081526020016000206002015461200f565b60000b14611063576040517f08c379a00000000000000000000000000000000000000000000000000000000081526004018080602001828103825260118152602001807f54696d65206973206e6f742076616c696400000000000000000000000000000081525060200191505060405180910390fd5b60011515600560009054906101000a900473ffffffffffffffffffffffffffffffffffffffff1673ffffffffffffffffffffffffffffffffffffffff1663362e41b6886040518263ffffffff1660e01b81526004018082815260200191505060206040518083038186803b1580156110da57600080fd5b505afa1580156110ee573d6000803e3d6000fd5b505050506040513d602081101561110457600080fd5b81019080805190602001909291905050501515141561118b576040517f08c379a00000000000000000000000000000000000000000000000000000000081526004018080602001828103825260118152602001807f6576656e7420697320726576657274656400000000000000000000000000000081525060200191505060405180910390fd5b60011515600560009054906101000a900473ffffffffffffffffffffffffffffffffffffffff1673ffffffffffffffffffffffffffffffffffffffff1663d343c1dc886040518263ffffffff1660e01b81526004018082815260200191505060206040518083038186803b15801561120257600080fd5b505afa158015611216573d6000803e3d6000fd5b505050506040513d602081101561122c57600080fd5b8101908080519060200190929190505050151514156112b3576040517f08c379a000000000000000000000000000000000000000000000000000000000815260040180806020018281038252600f8152602001807f6576656e742069732066696e697368000000000000000000000000000000000081525060200191505060405180910390fd5b6001151560008088815260200190815260200160002060050160008573ffffffffffffffffffffffffffffffffffffffff1673ffffffffffffffffffffffffffffffffffffffff16815260200190815260200160002060009054906101000a900460ff1615151415611370576040517f08c379a00000000000000000000000000000000000000000000000000000000081526004018080602001828103825260218152602001806133f56021913960400191505060405180910390fd5b6002548410156113cb576040517f08c379a00000000000000000000000000000000000000000000000000000000081526004018080602001828103825260318152602001806134166031913960400191505060405180910390fd5b6113d3613369565b60405180608001604052808481526020018573ffffffffffffffffffffffffffffffffffffffff16815260200186815260200183815250905060008088815260200190815260200160002060040160008781526020019081526020016000208190806001815401808255809150506001900390600052602060002090600402016000909190919091506000820151816000015560208201518160010160006101000a81548173ffffffffffffffffffffffffffffffffffffffff021916908373ffffffffffffffffffffffffffffffffffffffff16021790555060408201518160020155606082015181600301555050600160008089815260200190815260200160002060050160008673ffffffffffffffffffffffffffffffffffffffff1673ffffffffffffffffffffffffffffffffffffffff16815260200190815260200160002060006101000a81548160ff02191690831515021790555060016000808981526020019081526020016000206006016000828254019250508190555084600080898152602001908152602001600020600c016000828254019250508190555084600360009054906101000a900473ffffffffffffffffffffffffffffffffffffffff1673ffffffffffffffffffffffffffffffffffffffff1663dd62ed3e86306040518363ffffffff1660e01b8152600401808373ffffffffffffffffffffffffffffffffffffffff1681526020018273ffffffffffffffffffffffffffffffffffffffff1681526020019250505060206040518083038186803b15801561161d57600080fd5b505afa158015611631573d6000803e3d6000fd5b505050506040513d602081101561164757600080fd5b810190808051906020019092919050505010156116cc576040517f08c379a000000000000000000000000000000000000000000000000000000000815260040180806020018281038252600f8152602001807f416c6c6f77616e6365206572726f72000000000000000000000000000000000081525060200191505060405180910390fd5b600360009054906101000a900473ffffffffffffffffffffffffffffffffffffffff1673ffffffffffffffffffffffffffffffffffffffff166323b872dd8530886040518463ffffffff1660e01b8152600401808473ffffffffffffffffffffffffffffffffffffffff1681526020018373ffffffffffffffffffffffffffffffffffffffff1681526020018281526020019350505050602060405180830381600087803b15801561177d57600080fd5b505af1158015611791573d6000803e3d6000fd5b505050506040513d60208110156117a757600080fd5b810190808051906020019092919050505061182a576040517f08c379a000000000000000000000000000000000000000000000000000000000815260040180806020018281038252601f8152602001807f5472616e73666572204254592066726f6d20706c6179657273206572726f720081525060200191505060405180910390fd5b50505050505050565b6000600760009054906101000a900473ffffffffffffffffffffffffffffffffffffffff1673ffffffffffffffffffffffffffffffffffffffff163373ffffffffffffffffffffffffffffffffffffffff1614806118de5750600860009054906101000a900473ffffffffffffffffffffffffffffffffffffffff1673ffffffffffffffffffffffffffffffffffffffff163373ffffffffffffffffffffffffffffffffffffffff16145b611950576040517f08c379a000000000000000000000000000000000000000000000000000000000815260040180806020018281038252600a8152602001807f6f776e6572206f6e6c790000000000000000000000000000000000000000000081525060200191505060405180910390fd5b600360009054906101000a900473ffffffffffffffffffffffffffffffffffffffff1673ffffffffffffffffffffffffffffffffffffffff1663341ce1fc84846040518363ffffffff1660e01b8152600401808373ffffffffffffffffffffffffffffffffffffffff16815260200182815260200192505050602060405180830381600087803b1580156119e357600080fd5b505af11580156119f7573d6000803e3d6000fd5b505050506040513d6020811015611a0d57600080fd5b8101908080519060200190929190505050611a90576040517f08c379a00000000000000000000000000000000000000000000000000000000081526004018080602001828103825260078152602001807f706179206572720000000000000000000000000000000000000000000000000081525060200191505060405180910390fd5b6001905092915050565b6000806000838152602001908152602001600020600b0160009054906101000a900473ffffffffffffffffffffffffffffffffffffffff169050919050565b6000600760009054906101000a900473ffffffffffffffffffffffffffffffffffffffff1673ffffffffffffffffffffffffffffffffffffffff163373ffffffffffffffffffffffffffffffffffffffff161480611b845750600860009054906101000a900473ffffffffffffffffffffffffffffffffffffffff1673ffffffffffffffffffffffffffffffffffffffff163373ffffffffffffffffffffffffffffffffffffffff16145b611bf6576040517f08c379a000000000000000000000000000000000000000000000000000000000815260040180806020018281038252600a8152602001807f6f776e6572206f6e6c790000000000000000000000000000000000000000000081525060200191505060405180910390fd5b600460009054906101000a900473ffffffffffffffffffffffffffffffffffffffff1673ffffffffffffffffffffffffffffffffffffffff1663a9059cbb84846040518363ffffffff1660e01b8152600401808373ffffffffffffffffffffffffffffffffffffffff16815260200182815260200192505050602060405180830381600087803b158015611c8957600080fd5b505af1158015611c9d573d6000803e3d6000fd5b505050506040513d6020811015611cb357600080fd5b8101908080519060200190929190505050611d36576040517f08c379a00000000000000000000000000000000000000000000000000000000081526004018080602001828103825260088152602001807f6d696e742065727200000000000000000000000000000000000000000000000081525060200191505060405180910390fd5b6001905092915050565b600660009054906101000a900473ffffffffffffffffffffffffffffffffffffffff1673ffffffffffffffffffffffffffffffffffffffff163373ffffffffffffffffffffffffffffffffffffffff1614611e03576040517f08c379a000000000000000000000000000000000000000000000000000000000815260040180806020018281038252600a8152602001807f6f776e6572206f6e6c790000000000000000000000000000000000000000000081525060200191505060405180910390fd5b81600080838152602001908152602001600020600901819055505050565b600060205280600052604060002060009150905080600001549080600101549080600201549080600301549080600601549080600801549080600901549080600a0160009054906101000a900460ff169080600a0160019054906101000a900473ffffffffffffffffffffffffffffffffffffffff169080600b0160009054906101000a900473ffffffffffffffffffffffffffffffffffffffff169080600c01549080600d015490508c565b600460009054906101000a900473ffffffffffffffffffffffffffffffffffffffff1681565b600660009054906101000a900473ffffffffffffffffffffffffffffffffffffffff1673ffffffffffffffffffffffffffffffffffffffff163373ffffffffffffffffffffffffffffffffffffffff1614611fb7576040517f08c379a000000000000000000000000000000000000000000000000000000000815260040180806020018281038252600a8152602001807f6f776e6572206f6e6c790000000000000000000000000000000000000000000081525060200191505060405180910390fd5b81600080838152602001908152602001600020600b0160006101000a81548173ffffffffffffffffffffffffffffffffffffffff021916908373ffffffffffffffffffffffffffffffffffffffff1602179055505050565b600080834203126120365760004283031261202d576000905061203b565b6002905061203b565b600190505b92915050565b6000806000848152602001908152602001600020600401600083815260200190815260200160002080549050905092915050565b600660009054906101000a900473ffffffffffffffffffffffffffffffffffffffff1673ffffffffffffffffffffffffffffffffffffffff163373ffffffffffffffffffffffffffffffffffffffff1614612138576040517f08c379a000000000000000000000000000000000000000000000000000000000815260040180806020018281038252600a8152602001807f6f776e6572206f6e6c790000000000000000000000000000000000000000000081525060200191505060405180910390fd5b876000808a815260200190815260200160002060000181905550866000808a815260200190815260200160002060010181905550856000808a815260200190815260200160002060020181905550846000808a815260200190815260200160002060030181905550836000808a815260200190815260200160002060090181905550816000808a8152602001908152602001600020600a0160016101000a81548173ffffffffffffffffffffffffffffffffffffffff021916908373ffffffffffffffffffffffffffffffffffffffff160217905550826000808a8152602001908152602001600020600a0160006101000a81548160ff021916908315150217905550600081111561251457806000808a8152602001908152602001600020600d018190555080600460009054906101000a900473ffffffffffffffffffffffffffffffffffffffff1673ffffffffffffffffffffffffffffffffffffffff1663dd62ed3e84306040518363ffffffff1660e01b8152600401808373ffffffffffffffffffffffffffffffffffffffff1681526020018273ffffffffffffffffffffffffffffffffffffffff1681526020019250505060206040518083038186803b15801561230657600080fd5b505afa15801561231a573d6000803e3d6000fd5b505050506040513d602081101561233057600080fd5b810190808051906020019092919050505010156123b5576040517f08c379a00000000000000000000000000000000000000000000000000000000081526004018080602001828103825260098152602001807f416c6c6f77616e6365000000000000000000000000000000000000000000000081525060200191505060405180910390fd5b600460009054906101000a900473ffffffffffffffffffffffffffffffffffffffff1673ffffffffffffffffffffffffffffffffffffffff166323b872dd8330846040518463ffffffff1660e01b8152600401808473ffffffffffffffffffffffffffffffffffffffff1681526020018373ffffffffffffffffffffffffffffffffffffffff1681526020018281526020019350505050602060405180830381600087803b15801561246657600080fd5b505af115801561247a573d6000803e3d6000fd5b505050506040513d602081101561249057600080fd5b8101908080519060200190929190505050612513576040517f08c379a000000000000000000000000000000000000000000000000000000000815260040180806020018281038252600d8152602001807f4254592050524f206576656e740000000000000000000000000000000000000081525060200191505060405180910390fd5b5b5050505050505050565b600360009054906101000a900473ffffffffffffffffffffffffffffffffffffffff1681565b60008060008581526020019081526020016000206004016000848152602001908152602001600020828154811061257757fe5b906000526020600020906004020160010160009054906101000a900473ffffffffffffffffffffffffffffffffffffffff1690509392505050565b6000806000838152602001908152602001600020600d01549050919050565b60008060008581526020019081526020016000206004016000848152602001908152602001600020828154811061260457fe5b90600052602060002090600402016002015490509392505050565b600660009054906101000a900473ffffffffffffffffffffffffffffffffffffffff1673ffffffffffffffffffffffffffffffffffffffff163373ffffffffffffffffffffffffffffffffffffffff16146126e2576040517f08c379a000000000000000000000000000000000000000000000000000000000815260040180806020018281038252600a8152602001807f6f776e6572206f6e6c790000000000000000000000000000000000000000000081525060200191505060405180910390fd5b81600560006101000a81548173ffffffffffffffffffffffffffffffffffffffff021916908373ffffffffffffffffffffffffffffffffffffffff16021790555081600760006101000a81548173ffffffffffffffffffffffffffffffffffffffff021916908373ffffffffffffffffffffffffffffffffffffffff16021790555080600860006101000a81548173ffffffffffffffffffffffffffffffffffffffff021916908373ffffffffffffffffffffffffffffffffffffffff1602179055505050565b600660009054906101000a900473ffffffffffffffffffffffffffffffffffffffff1673ffffffffffffffffffffffffffffffffffffffff163373ffffffffffffffffffffffffffffffffffffffff161461286c576040517f08c379a000000000000000000000000000000000000000000000000000000000815260040180806020018281038252600a8152602001807f6f776e6572206f6e6c790000000000000000000000000000000000000000000081525060200191505060405180910390fd5b600061288c60008087815260200190815260200160002060020154610eb7565b60000b14612902576040517f08c379a000000000000000000000000000000000000000000000000000000000815260040180806020018281038252600e8152602001807f6e6f742076616c69642074696d6500000000000000000000000000000000000081525060200191505060405180910390fd5b60008085815260200190815260200160002060050160008373ffffffffffffffffffffffffffffffffffffffff1673ffffffffffffffffffffffffffffffffffffffff16815260200190815260200160002060009054906101000a900460ff16156129d5576040517f08c379a00000000000000000000000000000000000000000000000000000000081526004018080602001828103825260108152602001807f757365722070617274696369706174650000000000000000000000000000000081525060200191505060405180910390fd5b60011515600560009054906101000a900473ffffffffffffffffffffffffffffffffffffffff1673ffffffffffffffffffffffffffffffffffffffff1663362e41b6866040518263ffffffff1660e01b81526004018082815260200191505060206040518083038186803b158015612a4c57600080fd5b505afa158015612a60573d6000803e3d6000fd5b505050506040513d6020811015612a7657600080fd5b810190808051906020019092919050505015151415612afd576040517f08c379a00000000000000000000000000000000000000000000000000000000081526004018080602001828103825260118152602001807f6576656e7420697320726576657274656400000000000000000000000000000081525060200191505060405180910390fd5b60011515600560009054906101000a900473ffffffffffffffffffffffffffffffffffffffff1673ffffffffffffffffffffffffffffffffffffffff1663d343c1dc866040518263ffffffff1660e01b81526004018082815260200191505060206040518083038186803b158015612b7457600080fd5b505afa158015612b88573d6000803e3d6000fd5b505050506040513d6020811015612b9e57600080fd5b810190808051906020019092919050505015151415612c25576040517f08c379a000000000000000000000000000000000000000000000000000000000815260040180806020018281038252600f8152602001807f6576656e742069732066696e697368000000000000000000000000000000000081525060200191505060405180910390fd5b6000806000868152602001908152602001600020600601541415612d4557600560009054906101000a900473ffffffffffffffffffffffffffffffffffffffff1673ffffffffffffffffffffffffffffffffffffffff16639ec2345a856040518263ffffffff1660e01b815260040180828152602001915050600060405180830381600087803b158015612cb857600080fd5b505af1158015612ccc573d6000803e3d6000fd5b505050507f847521552ad126e64c52b14640c804737bd67f2b6674309b332d1e5b17f857d1846040518082815260200180602001828103825260138152602001807f646f206e6f74206861766520706c6179657273000000000000000000000000008152506020019250505060405180910390a1612f71565b600080858152602001908152602001600020600a0160009054906101000a900460ff168015612d895750600080600086815260200190815260200160002060090154145b15612de7577f7d056f7ad1cec2447e1046080437b34a925f7ddd6099486d01c4e0e01bd51a8c8460008087815260200190815260200160002060060154604051808381526020018281526020019250505060405180910390a1612f70565b612def6133a7565b60405180604001604052808473ffffffffffffffffffffffffffffffffffffffff168152602001838152509050600080868152602001908152602001600020600701600085815260200190815260200160002081908060018154018082558091505060019003906000526020600020906002020160009091909190915060008201518160000160006101000a81548173ffffffffffffffffffffffffffffffffffffffff021916908373ffffffffffffffffffffffffffffffffffffffff1602179055506020820151816001015550506001600080878152602001908152602001600020600801600082825401925050819055506000808681526020019081526020016000206009015460008087815260200190815260200160002060080154148015612f315750600080600087815260200190815260200160002060090154115b15612f6e577fa41def8a44f88925e3e009abe2bb54653ea68faeeccd9a6a45ff94bb19f040d7856040518082815260200191505060405180910390a15b505b5b50505050565b6000806000838152602001908152602001600020600301549050919050565b6000600760009054906101000a900473ffffffffffffffffffffffffffffffffffffffff1673ffffffffffffffffffffffffffffffffffffffff163373ffffffffffffffffffffffffffffffffffffffff1614806130415750600860009054906101000a900473ffffffffffffffffffffffffffffffffffffffff1673ffffffffffffffffffffffffffffffffffffffff163373ffffffffffffffffffffffffffffffffffffffff16145b6130b3576040517f08c379a000000000000000000000000000000000000000000000000000000000815260040180806020018281038252600a8152602001807f6f776e6572206f6e6c790000000000000000000000000000000000000000000081525060200191505060405180910390fd5b600360009054906101000a900473ffffffffffffffffffffffffffffffffffffffff1673ffffffffffffffffffffffffffffffffffffffff1663a9059cbb84846040518363ffffffff1660e01b8152600401808373ffffffffffffffffffffffffffffffffffffffff16815260200182815260200192505050602060405180830381600087803b15801561314657600080fd5b505af115801561315a573d6000803e3d6000fd5b505050506040513d602081101561317057600080fd5b81019080805190602001909291905050506131f3576040517f08c379a00000000000000000000000000000000000000000000000000000000081526004018080602001828103825260088152602001807f6d696e742065727200000000000000000000000000000000000000000000000081525060200191505060405180910390fd5b6001905092915050565b6000806000838152602001908152602001600020600a0160019054906101000a900473ffffffffffffffffffffffffffffffffffffffff169050919050565b60008060008581526020019081526020016000206007016000848152602001908152602001600020828154811061326f57fe5b906000526020600020906002020160000160009054906101000a900473ffffffffffffffffffffffffffffffffffffffff1690509392505050565b6000806000838152602001908152602001600020600601549050919050565b828054828255906000526020600020908101928215613358579160200282015b8281111561335757823573ffffffffffffffffffffffffffffffffffffffff168260006101000a81548173ffffffffffffffffffffffffffffffffffffffff021916908373ffffffffffffffffffffffffffffffffffffffff160217905550916020019190600101906132e9565b5b50905061336591906133d7565b5090565b604051806080016040528060008152602001600073ffffffffffffffffffffffffffffffffffffffff16815260200160008152602001600081525090565b6040518060400160405280600073ffffffffffffffffffffffffffffffffffffffff168152602001600081525090565b5b808211156133f05760008160009055506001016133d8565b509056fe7573657220616c726561647920706172746963697061746520696e206576656e7462657420616d6f756e74206d75737420626520626967676572206f7220657175616c20746f20302e303120746f6b656e73a264697066735822122003533aec62350e20408fb7d7706713aa85867a9dd5bc2250d297c8d1577389d064736f6c63430007060033",
  "immutableReferences": {},
  "source": "// SPDX-License-Identifier: MIT\npragma solidity >=0.4.22 <0.9.0;\n\nimport {TimeValidation} from \"../../helpers/TimeValidation.sol\";\nimport {BET} from \"../../tokens/BET.sol\";\nimport {BTY} from \"../../tokens/BTY.sol\";\nimport {PubStruct} from \"../../struct/PubStruct.sol\";\nimport {MPStruct} from \"../../struct/MPStruct.sol\";\n\ncontract PublicEvents is\n    TimeValidation,\n    PubStruct\n{\n    event calculateExpert(int256 id, uint256 activePlayers);\n    event findCorrectAnswer(int256 id);\n    event revertedEvent(int256 id, string purpose);\n\n    uint minBet = 10000000000000000;\n    BET public betToken;\n    BTY public btyToken;\n    MPStruct mpData;\n    address owner;\n    address MPContract;\n    address PPContract;\n    \n    constructor(BET _betAddress, BTY _btyAddress){\n        betToken = _betAddress;\n        btyToken = _btyAddress;\n        owner = msg.sender;\n    }\n\n    function setAddresses(address _mpaddr, address _ppaddr) public {\n        require( msg.sender == owner, \"owner only\");\n        mpData = MPStruct(_mpaddr);\n        MPContract = _mpaddr;\n        PPContract = _ppaddr;\n    }\n\n    function newEvent(\n        int _id,\n        uint _sT,\n        uint _eT,\n        uint _questAmount,\n        uint _amountExp,\n        bool _calcExp,\n        address payable _host,\n        uint _amountPrem\n    ) public payable {\n        require( msg.sender == owner, \"owner only\");\n        events[_id].id = _id;\n        events[_id].startTime = _sT;\n        events[_id].endTime = _eT;\n        events[_id].questAmount = _questAmount;\n        events[_id].amountExperts = _amountExp;\n        events[_id].host = _host;\n        events[_id].calculateExperts = _calcExp;\n        if (_amountPrem > 0) {\n            events[_id].premiumAmount = _amountPrem;\n            require( btyToken.allowance(_host, address(this)) >= _amountPrem, \"Allowance\" );\n            require( btyToken.transferFrom(_host, address(this), _amountPrem), \"BTY PRO event\" );\n        }\n    }\n\n    function addAdvisor(address payable _advisor, int256 _id) public{\n        require( msg.sender == owner, \"owner only\");\n        events[_id].advisor = _advisor;\n    }\n\n    function setAnswer(\n        int _id,\n        uint _answer,\n        uint _amount,\n        address payable _pWallet,\n        int _playerId,\n        uint _refDeep\n    ) public payable {\n        require( msg.sender == owner, \"owner only\");\n         require(\n             timeAnswer(events[_id].startTime, events[_id].endTime) == 0,\n             \"Time is not valid\"\n         );\n         require(mpData.checkReverted(_id) != true, \"event is reverted\");\n         require(mpData.checkEventFinish(_id) != true, \"event is finish\");\n         require(\n             events[_id].allPlayers[_pWallet] != true,\n             \"user already participate in event\"\n         );\n         require(_amount >= minBet, \"bet amount must be bigger or equal to 0.01 tokens\" );\n\n        PubStruct.Player memory player;\n        player = PubStruct.Player(_playerId, _pWallet, _amount, _refDeep);\n        events[_id].players[_answer].push(player);\n        events[_id].allPlayers[_pWallet] = true;\n        events[_id].activePlayers += 1;\n        events[_id].pool += _amount;\n\n         require(\n             betToken.allowance(_pWallet, address(this)) >= _amount,\n             \"Allowance error\"\n         );\n         require(\n             betToken.transferFrom(_pWallet, address(this), _amount),\n             \"Transfer BTY from players error\"\n         );\n    }\n\n    function setReferrers(string memory _key, address payable[] calldata _referrers) public {\n        require( msg.sender == owner, \"owner only\");\n        referrers[_key].referrer = _referrers;\n    }\n\n    function setValidator(\n        int _id,\n        uint _answer,\n        address payable _eWallet,\n        int _reput\n    ) public payable {\n        require( msg.sender == owner, \"owner only\");\n        require(timeValidate(events[_id].endTime) == 0, \"not valid time\"); \n        require(\n            !events[_id].allPlayers[_eWallet],\n            \"user participate\"\n        );\n        require(mpData.checkReverted(_id) != true, \"event is reverted\");\n        require(mpData.checkEventFinish(_id) != true, \"event is finish\");\n\n        if (events[_id].activePlayers == 0) {\n            mpData.setReverted(_id);\n            emit revertedEvent(_id, \"do not have players\");\n        } else {\n            if (\n                events[_id].calculateExperts && events[_id].amountExperts == 0\n            ) {\n                emit calculateExpert(_id, events[_id].activePlayers);\n            } else {\n                PubStruct.Expert memory expert;\n                expert = PubStruct.Expert(_eWallet, _reput);\n                events[_id].expert[_answer].push(expert);\n                events[_id].activeExperts += 1;\n\n                if (events[_id].activeExperts == events[_id].amountExperts && events[_id].amountExperts > 0) {\n                    emit findCorrectAnswer(_id);\n                }\n            }\n        }\n    }\n\n    function setActiveExpertsFromOracl(uint _amount, int _id) public {\n        require( msg.sender == owner, \"owner only\");\n        events[_id].amountExperts = _amount;\n    }\n\n    function mint(address _addr, uint _amount) public returns(bool) {\n        require( msg.sender == MPContract || msg.sender == PPContract, \"owner only\");\n        require(betToken.mintFromPublicContract(_addr, _amount),\"pay err\");\n        return true;\n    }\n\n    function pay(address _addr, uint _amount) public returns(bool) {\n        require( msg.sender == MPContract || msg.sender == PPContract, \"owner only\");\n        require(betToken.transfer(_addr, _amount),\"mint err\");\n        return true;\n    }\n\n    function payBTY(address _addr, uint _amount) public returns(bool) {\n        require( msg.sender == MPContract || msg.sender == PPContract, \"owner only\");\n        require(btyToken.transfer(_addr, _amount),\"mint err\");\n        return true;\n    }\n\n}\n",
  "sourcePath": "/Users/macbook/Documents/freelance/tokenominc/contracts/events/PublicEvents/PublicEvents.sol",
  "compiler": {
    "name": "solc",
    "version": "0.7.6+commit.7338295f.Linux.g++"
  },
  "schemaVersion": "3.3.4",
  "updatedAt": "2021-03-12T17:33:53.626Z",
  "devdoc": {
    "kind": "dev",
    "methods": {},
    "version": 1
  },
  "userdoc": {
    "kind": "user",
    "methods": {},
    "version": 1
  }
}