{
  "contractName": "PubStruct",
  "abi": [
    {
      "inputs": [
        {
          "internalType": "int256",
          "name": "",
          "type": "int256"
        }
      ],
      "name": "events",
      "outputs": [
        {
          "internalType": "int256",
          "name": "id",
          "type": "int256"
        },
        {
          "internalType": "uint256",
          "name": "startTime",
          "type": "uint256"
        },
        {
          "internalType": "uint256",
          "name": "endTime",
          "type": "uint256"
        },
        {
          "internalType": "uint256",
          "name": "questAmount",
          "type": "uint256"
        },
        {
          "internalType": "uint256",
          "name": "activePlayers",
          "type": "uint256"
        },
        {
          "internalType": "uint256",
          "name": "activeExperts",
          "type": "uint256"
        },
        {
          "internalType": "uint256",
          "name": "amountExperts",
          "type": "uint256"
        },
        {
          "internalType": "bool",
          "name": "calculateExperts",
          "type": "bool"
        },
        {
          "internalType": "address payable",
          "name": "host",
          "type": "address"
        },
        {
          "internalType": "address payable",
          "name": "advisor",
          "type": "address"
        },
        {
          "internalType": "uint256",
          "name": "pool",
          "type": "uint256"
        },
        {
          "internalType": "uint256",
          "name": "amountPremiumEvent",
          "type": "uint256"
        }
      ],
      "stateMutability": "view",
      "type": "function"
    },
    {
      "inputs": [
        {
          "internalType": "int256",
          "name": "_id",
          "type": "int256"
        }
      ],
      "name": "getQuestAmount",
      "outputs": [
        {
          "internalType": "uint256",
          "name": "",
          "type": "uint256"
        }
      ],
      "stateMutability": "view",
      "type": "function"
    },
    {
      "inputs": [
        {
          "internalType": "int256",
          "name": "_id",
          "type": "int256"
        },
        {
          "internalType": "uint256",
          "name": "i",
          "type": "uint256"
        }
      ],
      "name": "getExpertAmount",
      "outputs": [
        {
          "internalType": "uint256",
          "name": "",
          "type": "uint256"
        }
      ],
      "stateMutability": "view",
      "type": "function"
    },
    {
      "inputs": [
        {
          "internalType": "int256",
          "name": "_id",
          "type": "int256"
        },
        {
          "internalType": "uint256",
          "name": "i",
          "type": "uint256"
        }
      ],
      "name": "getPlayerAmount",
      "outputs": [
        {
          "internalType": "uint256",
          "name": "",
          "type": "uint256"
        }
      ],
      "stateMutability": "view",
      "type": "function"
    },
    {
      "inputs": [
        {
          "internalType": "int256",
          "name": "_id",
          "type": "int256"
        },
        {
          "internalType": "uint256",
          "name": "i",
          "type": "uint256"
        },
        {
          "internalType": "uint256",
          "name": "z",
          "type": "uint256"
        }
      ],
      "name": "getPlayerWallet",
      "outputs": [
        {
          "internalType": "address",
          "name": "",
          "type": "address"
        }
      ],
      "stateMutability": "view",
      "type": "function"
    },
    {
      "inputs": [
        {
          "internalType": "int256",
          "name": "_id",
          "type": "int256"
        },
        {
          "internalType": "uint256",
          "name": "i",
          "type": "uint256"
        },
        {
          "internalType": "uint256",
          "name": "z",
          "type": "uint256"
        }
      ],
      "name": "getPlayerTokens",
      "outputs": [
        {
          "internalType": "uint256",
          "name": "",
          "type": "uint256"
        }
      ],
      "stateMutability": "view",
      "type": "function"
    },
    {
      "inputs": [
        {
          "internalType": "int256",
          "name": "_id",
          "type": "int256"
        }
      ],
      "name": "getActivePlayers",
      "outputs": [
        {
          "internalType": "uint256",
          "name": "",
          "type": "uint256"
        }
      ],
      "stateMutability": "view",
      "type": "function"
    },
    {
      "inputs": [
        {
          "internalType": "int256",
          "name": "_id",
          "type": "int256"
        }
      ],
      "name": "getPool",
      "outputs": [
        {
          "internalType": "uint256",
          "name": "",
          "type": "uint256"
        }
      ],
      "stateMutability": "view",
      "type": "function"
    }
  ],
  "bytecode": "0x608060405234801561001057600080fd5b506105ce806100206000396000f3fe608060405234801561001057600080fd5b50600436106100885760003560e01c80637c997f671161005b5780637c997f6714610224578063859f0f6a14610290578063a96c2aea146102e6578063f946c2071461032857610088565b806323c8778e1461008d57806330286c37146100d95780634c30a15a1461011b57806371aee945146101d8575b600080fd5b6100c3600480360360408110156100a357600080fd5b81019080803590602001909291908035906020019092919050505061036a565b6040518082815260200191505060405180910390f35b610105600480360360208110156100ef57600080fd5b810190808035906020019092919050505061039e565b6040518082815260200191505060405180910390f35b6101476004803603602081101561013157600080fd5b81019080803590602001909291905050506103bd565b604051808d81526020018c81526020018b81526020018a815260200189815260200188815260200187815260200186151581526020018573ffffffffffffffffffffffffffffffffffffffff1681526020018473ffffffffffffffffffffffffffffffffffffffff1681526020018381526020018281526020019c5050505050505050505050505060405180910390f35b61020e600480360360408110156101ee57600080fd5b81019080803590602001909291908035906020019092919050505061046a565b6040518082815260200191505060405180910390f35b6102646004803603606081101561023a57600080fd5b8101908080359060200190929190803590602001909291908035906020019092919050505061049e565b604051808273ffffffffffffffffffffffffffffffffffffffff16815260200191505060405180910390f35b6102d0600480360360608110156102a657600080fd5b8101908080359060200190929190803590602001909291908035906020019092919050505061050c565b6040518082815260200191505060405180910390f35b610312600480360360208110156102fc57600080fd5b810190808035906020019092919050505061055a565b6040518082815260200191505060405180910390f35b6103546004803603602081101561033e57600080fd5b8101908080359060200190929190505050610579565b6040518082815260200191505060405180910390f35b6000806000848152602001908152602001600020600701600083815260200190815260200160002080549050905092915050565b6000806000838152602001908152602001600020600c01549050919050565b600060205280600052604060002060009150905080600001549080600101549080600201549080600301549080600601549080600801549080600901549080600a0160009054906101000a900460ff169080600a0160019054906101000a900473ffffffffffffffffffffffffffffffffffffffff169080600b0160009054906101000a900473ffffffffffffffffffffffffffffffffffffffff169080600c01549080600d015490508c565b6000806000848152602001908152602001600020600401600083815260200190815260200160002080549050905092915050565b6000806000858152602001908152602001600020600401600084815260200190815260200160002082815481106104d157fe5b906000526020600020906004020160010160009054906101000a900473ffffffffffffffffffffffffffffffffffffffff1690509392505050565b60008060008581526020019081526020016000206004016000848152602001908152602001600020828154811061053f57fe5b90600052602060002090600402016002015490509392505050565b6000806000838152602001908152602001600020600301549050919050565b600080600083815260200190815260200160002060060154905091905056fea2646970667358221220dad126c860a9fee7cef35e9c71cdceeef65f860795bf18899e55e7e217dc73f764736f6c63430007060033",
  "immutableReferences": {},
  "source": "// SPDX-License-Identifier: MIT\npragma solidity >=0.4.22 <0.9.0;\n\ncontract PubStruct {\n    struct Player {\n        int playerId;\n        address payable player;\n        uint amount;\n        uint referrersDeep;\n    }\n\n    struct Referrers {\n        address payable[] referrer;\n    }\n\n    struct Expert {\n        address payable expert;\n        int reputation;\n    }\n\n    struct EventData {\n        int id;\n        uint startTime;\n        uint endTime;\n        uint questAmount;\n        mapping(uint => Player[]) players;\n        mapping(address => bool) allPlayers; // added for validation if players whant ot be expers\n        uint activePlayers; // amount of all players\n        mapping(uint => Expert[]) expert;\n        uint activeExperts; // amount of all expers\n        uint amountExperts; // expers needed for finish event, can be 0 if calculateExperts is true\n        bool calculateExperts; \n        address payable host;\n        address payable advisor;\n        uint pool;\n        uint amountPremiumEvent; \n    }\n\n    mapping(int => EventData) public events;\n    mapping(string => Referrers) referrers; // include eventID + userID + referrersDeep\n\n    function getQuestAmount(int _id) view public returns(uint) {\n        return events[_id].questAmount;\n    }\n\n    function getExpertAmount(int _id, uint i) view public returns(uint) {\n        return events[_id].expert[i].length;\n    }\n\n    function getPlayerAmount(int _id, uint i) view public returns(uint) {\n        return events[_id].players[i].length;\n    }\n\n    function getPlayerWallet(int _id, uint i, uint z) view public returns(address) {\n        return events[_id].players[i][z].player;\n    }\n\n    function getPlayerTokens(int _id, uint i, uint z) view public returns(uint) {\n        return events[_id].players[i][z].amount;\n    }\n\n    function getActivePlayers(int _id) view public returns(uint) {\n        return events[_id].activePlayers;\n    }\n\n    function getPool(int _id) view public returns(uint) {\n        return events[_id].pool;\n    }\n}\n",
  "sourcePath": "/Users/macbook/Documents/freelance/tokenominc/contracts/struct/PubStruct.sol",
  "compiler": {
    "name": "solc",
    "version": "0.7.6+commit.7338295f.Linux.g++"
  },
  "schemaVersion": "3.3.4",
  "updatedAt": "2021-03-11T15:04:35.089Z",
  "devdoc": {
    "kind": "dev",
    "methods": {},
    "version": 1
  },
  "userdoc": {
    "kind": "user",
    "methods": {},
    "version": 1
  }
}