{
  "contractName": "PubStruct",
  "abi": [
    {
      "inputs": [
        {
          "internalType": "int256",
          "name": "",
          "type": "int256"
        }
      ],
      "name": "events",
      "outputs": [
        {
          "internalType": "int256",
          "name": "id",
          "type": "int256"
        },
        {
          "internalType": "uint256",
          "name": "startTime",
          "type": "uint256"
        },
        {
          "internalType": "uint256",
          "name": "endTime",
          "type": "uint256"
        },
        {
          "internalType": "uint256",
          "name": "questAmount",
          "type": "uint256"
        },
        {
          "internalType": "uint256",
          "name": "activePlayers",
          "type": "uint256"
        },
        {
          "internalType": "uint256",
          "name": "activeExperts",
          "type": "uint256"
        },
        {
          "internalType": "uint256",
          "name": "amountExperts",
          "type": "uint256"
        },
        {
          "internalType": "bool",
          "name": "calculateExperts",
          "type": "bool"
        },
        {
          "internalType": "address payable",
          "name": "host",
          "type": "address"
        },
        {
          "internalType": "address payable",
          "name": "advisor",
          "type": "address"
        },
        {
          "internalType": "uint256",
          "name": "pool",
          "type": "uint256"
        },
        {
          "internalType": "uint256",
          "name": "premiumAmount",
          "type": "uint256"
        }
      ],
      "stateMutability": "view",
      "type": "function"
    },
    {
      "inputs": [
        {
          "internalType": "int256",
          "name": "_id",
          "type": "int256"
        }
      ],
      "name": "getQuestAmount",
      "outputs": [
        {
          "internalType": "uint256",
          "name": "",
          "type": "uint256"
        }
      ],
      "stateMutability": "view",
      "type": "function"
    },
    {
      "inputs": [
        {
          "internalType": "int256",
          "name": "_id",
          "type": "int256"
        },
        {
          "internalType": "uint256",
          "name": "i",
          "type": "uint256"
        }
      ],
      "name": "getExpertAmount",
      "outputs": [
        {
          "internalType": "uint256",
          "name": "",
          "type": "uint256"
        }
      ],
      "stateMutability": "view",
      "type": "function"
    },
    {
      "inputs": [
        {
          "internalType": "int256",
          "name": "_id",
          "type": "int256"
        },
        {
          "internalType": "uint256",
          "name": "i",
          "type": "uint256"
        },
        {
          "internalType": "uint256",
          "name": "z",
          "type": "uint256"
        }
      ],
      "name": "getExpertWallet",
      "outputs": [
        {
          "internalType": "address payable",
          "name": "",
          "type": "address"
        }
      ],
      "stateMutability": "view",
      "type": "function"
    },
    {
      "inputs": [
        {
          "internalType": "int256",
          "name": "_id",
          "type": "int256"
        },
        {
          "internalType": "uint256",
          "name": "i",
          "type": "uint256"
        },
        {
          "internalType": "uint256",
          "name": "z",
          "type": "uint256"
        }
      ],
      "name": "getExpertReput",
      "outputs": [
        {
          "internalType": "int256",
          "name": "",
          "type": "int256"
        }
      ],
      "stateMutability": "view",
      "type": "function"
    },
    {
      "inputs": [
        {
          "internalType": "int256",
          "name": "_id",
          "type": "int256"
        },
        {
          "internalType": "uint256",
          "name": "i",
          "type": "uint256"
        }
      ],
      "name": "getPlayerAmount",
      "outputs": [
        {
          "internalType": "uint256",
          "name": "",
          "type": "uint256"
        }
      ],
      "stateMutability": "view",
      "type": "function"
    },
    {
      "inputs": [
        {
          "internalType": "int256",
          "name": "_id",
          "type": "int256"
        },
        {
          "internalType": "uint256",
          "name": "i",
          "type": "uint256"
        },
        {
          "internalType": "uint256",
          "name": "z",
          "type": "uint256"
        }
      ],
      "name": "getPlayerWallet",
      "outputs": [
        {
          "internalType": "address payable",
          "name": "",
          "type": "address"
        }
      ],
      "stateMutability": "view",
      "type": "function"
    },
    {
      "inputs": [
        {
          "internalType": "int256",
          "name": "_id",
          "type": "int256"
        },
        {
          "internalType": "uint256",
          "name": "i",
          "type": "uint256"
        },
        {
          "internalType": "uint256",
          "name": "z",
          "type": "uint256"
        }
      ],
      "name": "getPlayerTokens",
      "outputs": [
        {
          "internalType": "uint256",
          "name": "",
          "type": "uint256"
        }
      ],
      "stateMutability": "view",
      "type": "function"
    },
    {
      "inputs": [
        {
          "internalType": "int256",
          "name": "_id",
          "type": "int256"
        }
      ],
      "name": "getActivePlayers",
      "outputs": [
        {
          "internalType": "uint256",
          "name": "",
          "type": "uint256"
        }
      ],
      "stateMutability": "view",
      "type": "function"
    },
    {
      "inputs": [
        {
          "internalType": "int256",
          "name": "_id",
          "type": "int256"
        }
      ],
      "name": "getPool",
      "outputs": [
        {
          "internalType": "uint256",
          "name": "",
          "type": "uint256"
        }
      ],
      "stateMutability": "view",
      "type": "function"
    },
    {
      "inputs": [
        {
          "internalType": "int256",
          "name": "_id",
          "type": "int256"
        }
      ],
      "name": "getPremiumAmount",
      "outputs": [
        {
          "internalType": "uint256",
          "name": "",
          "type": "uint256"
        }
      ],
      "stateMutability": "view",
      "type": "function"
    },
    {
      "inputs": [
        {
          "internalType": "int256",
          "name": "_id",
          "type": "int256"
        }
      ],
      "name": "getAdvisorAddr",
      "outputs": [
        {
          "internalType": "address",
          "name": "",
          "type": "address"
        }
      ],
      "stateMutability": "view",
      "type": "function"
    },
    {
      "inputs": [
        {
          "internalType": "int256",
          "name": "_id",
          "type": "int256"
        }
      ],
      "name": "getHostAddr",
      "outputs": [
        {
          "internalType": "address",
          "name": "",
          "type": "address"
        }
      ],
      "stateMutability": "view",
      "type": "function"
    }
  ],
  "bytecode": "0x608060405234801561001057600080fd5b50610922806100206000396000f3fe608060405234801561001057600080fd5b50600436106100cf5760003560e01c80637c997f671161008c578063a96c2aea11610066578063a96c2aea1461041d578063f438835c1461045f578063f46cf838146104b7578063f946c20714610523576100cf565b80637c997f67146103195780638055917314610385578063859f0f6a146103c7576100cf565b80630569ae99146100d457806323c8778e1461012a57806330286c371461017657806342f1bb8d146101b85780634c30a15a1461021057806371aee945146102cd575b600080fd5b610114600480360360608110156100ea57600080fd5b81019080803590602001909291908035906020019092919080359060200190929190505050610565565b6040518082815260200191505060405180910390f35b6101606004803603604081101561014057600080fd5b8101908080359060200190929190803590602001909291905050506105b3565b6040518082815260200191505060405180910390f35b6101a26004803603602081101561018c57600080fd5b81019080803590602001909291905050506105e7565b6040518082815260200191505060405180910390f35b6101e4600480360360208110156101ce57600080fd5b8101908080359060200190929190505050610606565b604051808273ffffffffffffffffffffffffffffffffffffffff16815260200191505060405180910390f35b61023c6004803603602081101561022657600080fd5b8101908080359060200190929190505050610645565b604051808d81526020018c81526020018b81526020018a815260200189815260200188815260200187815260200186151581526020018573ffffffffffffffffffffffffffffffffffffffff1681526020018473ffffffffffffffffffffffffffffffffffffffff1681526020018381526020018281526020019c5050505050505050505050505060405180910390f35b610303600480360360408110156102e357600080fd5b8101908080359060200190929190803590602001909291905050506106f2565b6040518082815260200191505060405180910390f35b6103596004803603606081101561032f57600080fd5b81019080803590602001909291908035906020019092919080359060200190929190505050610726565b604051808273ffffffffffffffffffffffffffffffffffffffff16815260200191505060405180910390f35b6103b16004803603602081101561039b57600080fd5b8101908080359060200190929190505050610794565b6040518082815260200191505060405180910390f35b610407600480360360608110156103dd57600080fd5b810190808035906020019092919080359060200190929190803590602001909291905050506107b3565b6040518082815260200191505060405180910390f35b6104496004803603602081101561043357600080fd5b8101908080359060200190929190505050610801565b6040518082815260200191505060405180910390f35b61048b6004803603602081101561047557600080fd5b8101908080359060200190929190505050610820565b604051808273ffffffffffffffffffffffffffffffffffffffff16815260200191505060405180910390f35b6104f7600480360360608110156104cd57600080fd5b8101908080359060200190929190803590602001909291908035906020019092919050505061085f565b604051808273ffffffffffffffffffffffffffffffffffffffff16815260200191505060405180910390f35b61054f6004803603602081101561053957600080fd5b81019080803590602001909291905050506108cd565b6040518082815260200191505060405180910390f35b60008060008581526020019081526020016000206007016000848152602001908152602001600020828154811061059857fe5b90600052602060002090600202016001015490509392505050565b6000806000848152602001908152602001600020600701600083815260200190815260200160002080549050905092915050565b6000806000838152602001908152602001600020600c01549050919050565b6000806000838152602001908152602001600020600b0160009054906101000a900473ffffffffffffffffffffffffffffffffffffffff169050919050565b600060205280600052604060002060009150905080600001549080600101549080600201549080600301549080600601549080600801549080600901549080600a0160009054906101000a900460ff169080600a0160019054906101000a900473ffffffffffffffffffffffffffffffffffffffff169080600b0160009054906101000a900473ffffffffffffffffffffffffffffffffffffffff169080600c01549080600d015490508c565b6000806000848152602001908152602001600020600401600083815260200190815260200160002080549050905092915050565b60008060008581526020019081526020016000206004016000848152602001908152602001600020828154811061075957fe5b906000526020600020906002020160000160009054906101000a900473ffffffffffffffffffffffffffffffffffffffff1690509392505050565b6000806000838152602001908152602001600020600d01549050919050565b6000806000858152602001908152602001600020600401600084815260200190815260200160002082815481106107e657fe5b90600052602060002090600202016001015490509392505050565b6000806000838152602001908152602001600020600301549050919050565b6000806000838152602001908152602001600020600a0160019054906101000a900473ffffffffffffffffffffffffffffffffffffffff169050919050565b60008060008581526020019081526020016000206007016000848152602001908152602001600020828154811061089257fe5b906000526020600020906002020160000160009054906101000a900473ffffffffffffffffffffffffffffffffffffffff1690509392505050565b600080600083815260200190815260200160002060060154905091905056fea264697066735822122021d69d3f23775de1df83b3ce389507ec80d23b8080d116fe73c31a42dda5c6b064736f6c63430007060033",
  "immutableReferences": {},
  "source": "// SPDX-License-Identifier: MIT\npragma solidity >=0.4.22 <0.9.0;\n\ncontract PubStruct {\n    struct Player {\n        address payable player;\n        uint amount;\n    }\n\n    struct Expert {\n        address payable expert;\n        int reputation;\n    }\n\n    struct EventData {\n        int id;\n        uint startTime;\n        uint endTime;\n        uint questAmount;\n        mapping(uint => Player[]) players;\n        mapping(address => bool) allPlayers; // added for validation if players whant ot be expers\n        uint activePlayers; // amount of all players\n        mapping(uint => Expert[]) expert;\n        uint activeExperts; // amount of all expers\n        uint amountExperts; // expers needed for finish event, can be 0 if calculateExperts is true\n        bool calculateExperts; \n        address payable host;\n        address payable advisor;\n        uint pool;\n        uint premiumAmount; \n    }\n\n    mapping(int => EventData) public events;\n\n    function getQuestAmount(int _id) view public returns(uint) {\n        return events[_id].questAmount;\n    }\n\n    function getExpertAmount(int _id, uint i) view public returns(uint) {\n        return events[_id].expert[i].length;\n    }\n\n    function getExpertWallet(int _id, uint i, uint z) view public returns(address payable) {\n        return events[_id].expert[i][z].expert;\n    }\n\n    function getExpertReput(int _id, uint i, uint z) view public returns(int) {\n        return events[_id].expert[i][z].reputation;\n    }\n\n    function getPlayerAmount(int _id, uint i) view public returns(uint) {\n        return events[_id].players[i].length;\n    }\n\n    function getPlayerWallet(int _id, uint i, uint z) view public returns(address payable) {\n        return events[_id].players[i][z].player;\n    }\n\n    function getPlayerTokens(int _id, uint i, uint z) view public returns(uint) {\n        return events[_id].players[i][z].amount;\n    }\n\n    function getActivePlayers(int _id) view public returns(uint) {\n        return events[_id].activePlayers;\n    }\n\n    function getPool(int _id) view public returns(uint) {\n        return events[_id].pool;\n    }\n\n    function getPremiumAmount(int _id) view public returns(uint) {\n        return events[_id].premiumAmount;\n    }\n\n    function getAdvisorAddr(int _id) view public returns(address) {\n        return events[_id].advisor;\n    }\n\n    function getHostAddr(int _id) view public returns(address) {\n        return events[_id].host;\n    }\n}\n",
  "sourcePath": "/Users/macbook/Documents/freelance/tokenominc/contracts/matic/struct/PubStruct.sol",
  "compiler": {
    "name": "solc",
    "version": "0.7.6+commit.7338295f.Linux.g++"
  },
  "schemaVersion": "3.3.4",
  "updatedAt": "2021-03-17T15:28:12.327Z",
  "devdoc": {
    "kind": "dev",
    "methods": {},
    "version": 1
  },
  "userdoc": {
    "kind": "user",
    "methods": {},
    "version": 1
  }
}