{
  "contractName": "TimeValidation",
  "abi": [
    {
      "inputs": [
        {
          "internalType": "uint256",
          "name": "_startTime",
          "type": "uint256"
        },
        {
          "internalType": "uint256",
          "name": "_endTime",
          "type": "uint256"
        }
      ],
      "name": "timeAnswer",
      "outputs": [
        {
          "internalType": "int8",
          "name": "",
          "type": "int8"
        }
      ],
      "stateMutability": "view",
      "type": "function"
    },
    {
      "inputs": [
        {
          "internalType": "uint256",
          "name": "_endTime",
          "type": "uint256"
        }
      ],
      "name": "timeValidate",
      "outputs": [
        {
          "internalType": "int8",
          "name": "",
          "type": "int8"
        }
      ],
      "stateMutability": "view",
      "type": "function"
    }
  ],
  "bytecode": "0x608060405234801561001057600080fd5b50610155806100206000396000f3fe608060405234801561001057600080fd5b50600436106100365760003560e01c8063246fe6471461003b57806354f6db7414610080575b600080fd5b6100676004803603602081101561005157600080fd5b81019080803590602001909291905050506100cf565b604051808260000b815260200191505060405180910390f35b6100b66004803603604081101561009657600080fd5b8101908080359060200190929190803590602001909291905050506100ed565b604051808260000b815260200191505060405180910390f35b600080824203126100e357600090506100e8565b600190505b919050565b600080834203126101145760004283031261010b5760009050610119565b60029050610119565b600190505b9291505056fea2646970667358221220391012f9c92e3bd389eb57e8ff43ebd44a29939a60e242fdffb670473cce77b964736f6c63430007060033",
  "immutableReferences": {},
  "source": "// SPDX-License-Identifier: MIT\npragma solidity >=0.4.22 <0.9.0;\n\ncontract TimeValidation {\n    function timeAnswer(uint256 _startTime, uint256 _endTime)\n        public\n        view\n        returns (int8)\n    {\n        if (int256(block.timestamp - _startTime) >= 0) {\n            if (int256(_endTime - block.timestamp) >= 0) {\n                // user can make answer because time is valid.\n                return 0;\n            } else {\n                // user can't make answer because event is finish.\n                return 2;\n            }\n        } else {\n            // user can't make answer because event is not started yet.\n            return 1;\n        }\n    }\n\n    function timeValidate(uint256 _endTime) public view returns (int8) {\n        if (int256(block.timestamp - _endTime) >= 0) {\n            // user can validate because time is valid.\n            return 0;\n        } else {\n            // user can't validate because event is not started yet.\n            return 1;\n        }\n    }\n}\n",
  "sourcePath": "/Users/macbook/Documents/freelance/tokenominc/contracts/helpers/TimeValidation.sol",
  "compiler": {
    "name": "solc",
    "version": "0.7.6+commit.7338295f.Linux.g++"
  },
  "schemaVersion": "3.2.2",
  "updatedAt": "2021-03-09T14:57:39.539Z",
  "devdoc": {
    "kind": "dev",
    "methods": {},
    "version": 1
  },
  "userdoc": {
    "kind": "user",
    "methods": {},
    "version": 1
  }
}